{"contracts/TestCaller.sol":{"TestCaller":{"abi":[{"inputs":[{"internalType":"address","name":"token","type":"address"},{"internalType":"address","name":"to1","type":"address"},{"internalType":"uint256","name":"amount1","type":"uint256"},{"internalType":"uint256","name":"nonce1","type":"uint256"},{"internalType":"address","name":"to2","type":"address"},{"internalType":"uint256","name":"amount2","type":"uint256"},{"internalType":"uint256","name":"nonce2","type":"uint256"}],"name":"callTwo","outputs":[{"internalType":"bool","name":"","type":"bool"},{"internalType":"bool","name":"","type":"bool"}],"stateMutability":"nonpayable","type":"function"}],"evm":{"bytecode":{"linkReferences":{},"object":"608060405234801561001057600080fd5b5061025f806100206000396000f3fe608060405234801561001057600080fd5b506004361061002b5760003560e01c80639d01d80c14610030575b600080fd5b61004361003e366004610196565b61005e565b60408051921515835290151560208301520160405180910390f35b604051638893002f60e01b81526001600160a01b03878116600483015260248201879052604482018690526000918291829182918c1690638893002f906064016020604051808303816000875af19250505080156100d9575060408051601f3d908101601f191682019092526100d691810190610200565b60015b6100e657600091506100e9565b91505b604051638893002f60e01b81526001600160a01b03888116600483015260248201889052604482018790528c1690638893002f906064016020604051808303816000875af192505050801561015b575060408051601f3d908101601f1916820190925261015891810190610200565b60015b6101675750600061016a565b90505b909a909950975050505050505050565b80356001600160a01b038116811461019157600080fd5b919050565b600080600080600080600060e0888a0312156101b157600080fd5b6101ba8861017a565b96506101c86020890161017a565b955060408801359450606088013593506101e46080890161017a565b925060a0880135915060c0880135905092959891949750929550565b60006020828403121561021257600080fd5b8151801515811461022257600080fd5b939250505056fea2646970667358221220f1d66bfa55087962cb8c1a524d6710a5722a0c73687cc48059249b98d8e7de7964736f6c63430008140033","opcodes":"PUSH1 0x80 PUSH1 0x40 MSTORE CALLVALUE DUP1 ISZERO PUSH2 0x10 JUMPI PUSH1 0x0 DUP1 REVERT JUMPDEST POP PUSH2 0x25F DUP1 PUSH2 0x20 PUSH1 0x0 CODECOPY PUSH1 0x0 RETURN INVALID PUSH1 0x80 PUSH1 0x40 MSTORE CALLVALUE DUP1 ISZERO PUSH2 0x10 JUMPI PUSH1 0x0 DUP1 REVERT JUMPDEST POP PUSH1 0x4 CALLDATASIZE LT PUSH2 0x2B JUMPI PUSH1 0x0 CALLDATALOAD PUSH1 0xE0 SHR DUP1 PUSH4 0x9D01D80C EQ PUSH2 0x30 JUMPI JUMPDEST PUSH1 0x0 DUP1 REVERT JUMPDEST PUSH2 0x43 PUSH2 0x3E CALLDATASIZE PUSH1 0x4 PUSH2 0x196 JUMP JUMPDEST PUSH2 0x5E JUMP JUMPDEST PUSH1 0x40 DUP1 MLOAD SWAP3 ISZERO ISZERO DUP4 MSTORE SWAP1 ISZERO ISZERO PUSH1 0x20 DUP4 ADD MSTORE ADD PUSH1 0x40 MLOAD DUP1 SWAP2 SUB SWAP1 RETURN JUMPDEST PUSH1 0x40 MLOAD PUSH4 0x8893002F PUSH1 0xE0 SHL DUP2 MSTORE PUSH1 0x1 PUSH1 0x1 PUSH1 0xA0 SHL SUB DUP8 DUP2 AND PUSH1 0x4 DUP4 ADD MSTORE PUSH1 0x24 DUP3 ADD DUP8 SWAP1 MSTORE PUSH1 0x44 DUP3 ADD DUP7 SWAP1 MSTORE PUSH1 0x0 SWAP2 DUP3 SWAP2 DUP3 SWAP2 DUP3 SWAP2 DUP13 AND SWAP1 PUSH4 0x8893002F SWAP1 PUSH1 0x64 ADD PUSH1 0x20 PUSH1 0x40 MLOAD DUP1 DUP4 SUB DUP2 PUSH1 0x0 DUP8 GAS CALL SWAP3 POP POP POP DUP1 ISZERO PUSH2 0xD9 JUMPI POP PUSH1 0x40 DUP1 MLOAD PUSH1 0x1F RETURNDATASIZE SWAP1 DUP2 ADD PUSH1 0x1F NOT AND DUP3 ADD SWAP1 SWAP3 MSTORE PUSH2 0xD6 SWAP2 DUP2 ADD SWAP1 PUSH2 0x200 JUMP JUMPDEST PUSH1 0x1 JUMPDEST PUSH2 0xE6 JUMPI PUSH1 0x0 SWAP2 POP PUSH2 0xE9 JUMP JUMPDEST SWAP2 POP JUMPDEST PUSH1 0x40 MLOAD PUSH4 0x8893002F PUSH1 0xE0 SHL DUP2 MSTORE PUSH1 0x1 PUSH1 0x1 PUSH1 0xA0 SHL SUB DUP9 DUP2 AND PUSH1 0x4 DUP4 ADD MSTORE PUSH1 0x24 DUP3 ADD DUP9 SWAP1 MSTORE PUSH1 0x44 DUP3 ADD DUP8 SWAP1 MSTORE DUP13 AND SWAP1 PUSH4 0x8893002F SWAP1 PUSH1 0x64 ADD PUSH1 0x20 PUSH1 0x40 MLOAD DUP1 DUP4 SUB DUP2 PUSH1 0x0 DUP8 GAS CALL SWAP3 POP POP POP DUP1 ISZERO PUSH2 0x15B JUMPI POP PUSH1 0x40 DUP1 MLOAD PUSH1 0x1F RETURNDATASIZE SWAP1 DUP2 ADD PUSH1 0x1F NOT AND DUP3 ADD SWAP1 SWAP3 MSTORE PUSH2 0x158 SWAP2 DUP2 ADD SWAP1 PUSH2 0x200 JUMP JUMPDEST PUSH1 0x1 JUMPDEST PUSH2 0x167 JUMPI POP PUSH1 0x0 PUSH2 0x16A JUMP JUMPDEST SWAP1 POP JUMPDEST SWAP1 SWAP11 SWAP1 SWAP10 POP SWAP8 POP POP POP POP POP POP POP POP JUMP JUMPDEST DUP1 CALLDATALOAD PUSH1 0x1 PUSH1 0x1 PUSH1 0xA0 SHL SUB DUP2 AND DUP2 EQ PUSH2 0x191 JUMPI PUSH1 0x0 DUP1 REVERT JUMPDEST SWAP2 SWAP1 POP JUMP JUMPDEST PUSH1 0x0 DUP1 PUSH1 0x0 DUP1 PUSH1 0x0 DUP1 PUSH1 0x0 PUSH1 0xE0 DUP9 DUP11 SUB SLT ISZERO PUSH2 0x1B1 JUMPI PUSH1 0x0 DUP1 REVERT JUMPDEST PUSH2 0x1BA DUP9 PUSH2 0x17A JUMP JUMPDEST SWAP7 POP PUSH2 0x1C8 PUSH1 0x20 DUP10 ADD PUSH2 0x17A JUMP JUMPDEST SWAP6 POP PUSH1 0x40 DUP9 ADD CALLDATALOAD SWAP5 POP PUSH1 0x60 DUP9 ADD CALLDATALOAD SWAP4 POP PUSH2 0x1E4 PUSH1 0x80 DUP10 ADD PUSH2 0x17A JUMP JUMPDEST SWAP3 POP PUSH1 0xA0 DUP9 ADD CALLDATALOAD SWAP2 POP PUSH1 0xC0 DUP9 ADD CALLDATALOAD SWAP1 POP SWAP3 SWAP6 SWAP9 SWAP2 SWAP5 SWAP8 POP SWAP3 SWAP6 POP JUMP JUMPDEST PUSH1 0x0 PUSH1 0x20 DUP3 DUP5 SUB SLT ISZERO PUSH2 0x212 JUMPI PUSH1 0x0 DUP1 REVERT JUMPDEST DUP2 MLOAD DUP1 ISZERO ISZERO DUP2 EQ PUSH2 0x222 JUMPI PUSH1 0x0 DUP1 REVERT JUMPDEST SWAP4 SWAP3 POP POP POP JUMP INVALID LOG2 PUSH5 0x6970667358 0x22 SLT KECCAK256 CALL 0xD6 PUSH12 0xFA55087962CB8C1A524D6710 0xA5 PUSH19 0x2A0C73687CC48059249B98D8E7DE7964736F6C PUSH4 0x43000814 STOP CALLER "},"methodIdentifiers":{"callTwo(address,address,uint256,uint256,address,uint256,uint256)":"9d01d80c"}}}}}