{"contracts/FIACoinV6.sol":{"FIACoinV6":{"abi":[{"inputs":[{"internalType":"address","name":"_treasury","type":"address"},{"internalType":"address","name":"_founder","type":"address"},{"internalType":"address","name":"_executor","type":"address"}],"stateMutability":"nonpayable","type":"constructor"},{"inputs":[{"internalType":"address","name":"spender","type":"address"},{"internalType":"uint256","name":"allowance","type":"uint256"},{"internalType":"uint256","name":"needed","type":"uint256"}],"name":"ERC20InsufficientAllowance","type":"error"},{"inputs":[{"internalType":"address","name":"sender","type":"address"},{"internalType":"uint256","name":"balance","type":"uint256"},{"internalType":"uint256","name":"needed","type":"uint256"}],"name":"ERC20InsufficientBalance","type":"error"},{"inputs":[{"internalType":"address","name":"approver","type":"address"}],"name":"ERC20InvalidApprover","type":"error"},{"inputs":[{"internalType":"address","name":"receiver","type":"address"}],"name":"ERC20InvalidReceiver","type":"error"},{"inputs":[{"internalType":"address","name":"sender","type":"address"}],"name":"ERC20InvalidSender","type":"error"},{"inputs":[{"internalType":"address","name":"spender","type":"address"}],"name":"ERC20InvalidSpender","type":"error"},{"inputs":[],"name":"EnforcedPause","type":"error"},{"inputs":[],"name":"ExpectedPause","type":"error"},{"inputs":[{"internalType":"address","name":"owner","type":"address"}],"name":"OwnableInvalidOwner","type":"error"},{"inputs":[{"internalType":"address","name":"account","type":"address"}],"name":"OwnableUnauthorizedAccount","type":"error"},{"inputs":[],"name":"ReentrancyGuardReentrantCall","type":"error"},{"anonymous":false,"inputs":[{"indexed":true,"internalType":"address","name":"owner","type":"address"},{"indexed":true,"internalType":"address","name":"spender","type":"address"},{"indexed":false,"internalType":"uint256","name":"value","type":"uint256"}],"name":"Approval","type":"event"},{"anonymous":false,"inputs":[{"indexed":true,"internalType":"address","name":"user","type":"address"},{"indexed":false,"internalType":"uint256","name":"totalAmount","type":"uint256"},{"indexed":false,"internalType":"uint256","name":"stakeCount","type":"uint256"}],"name":"BatchStaking","type":"event"},{"anonymous":false,"inputs":[{"indexed":true,"internalType":"address","name":"from","type":"address"},{"indexed":false,"internalType":"uint256","name":"totalAmount","type":"uint256"},{"indexed":false,"internalType":"uint256","name":"recipientCount","type":"uint256"}],"name":"BatchTransfer","type":"event"},{"anonymous":false,"inputs":[{"indexed":false,"internalType":"string","name":"action","type":"string"},{"indexed":false,"internalType":"address","name":"actor","type":"address"}],"name":"EmergencyAction","type":"event"},{"anonymous":false,"inputs":[{"indexed":false,"internalType":"uint256","name":"oldFee","type":"uint256"},{"indexed":false,"internalType":"uint256","name":"newFee","type":"uint256"}],"name":"FeeConfigurationChanged","type":"event"},{"anonymous":false,"inputs":[{"indexed":false,"internalType":"uint256","name":"treasury","type":"uint256"},{"indexed":false,"internalType":"uint256","name":"founder","type":"uint256"},{"indexed":false,"internalType":"uint256","name":"burn","type":"uint256"}],"name":"FeeDistributionChanged","type":"event"},{"anonymous":false,"inputs":[{"indexed":true,"internalType":"address","name":"account","type":"address"},{"indexed":false,"internalType":"bool","name":"exempt","type":"bool"}],"name":"FeeExemptionSet","type":"event"},{"anonymous":false,"inputs":[{"indexed":true,"internalType":"address","name":"from","type":"address"},{"indexed":true,"internalType":"address","name":"to","type":"address"},{"indexed":false,"internalType":"uint256","name":"amount","type":"uint256"}],"name":"Fingered","type":"event"},{"anonymous":false,"inputs":[{"indexed":true,"internalType":"address","name":"previousOwner","type":"address"},{"indexed":true,"internalType":"address","name":"newOwner","type":"address"}],"name":"OwnershipTransferred","type":"event"},{"anonymous":false,"inputs":[{"indexed":false,"internalType":"address","name":"account","type":"address"}],"name":"Paused","type":"event"},{"anonymous":false,"inputs":[{"indexed":true,"internalType":"uint256","name":"proposalId","type":"uint256"},{"indexed":true,"internalType":"address","name":"proposer","type":"address"},{"indexed":false,"internalType":"string","name":"description","type":"string"}],"name":"ProposalCreated","type":"event"},{"anonymous":false,"inputs":[{"indexed":true,"internalType":"uint256","name":"proposalId","type":"uint256"}],"name":"ProposalExecuted","type":"event"},{"anonymous":false,"inputs":[{"indexed":true,"internalType":"address","name":"user","type":"address"},{"indexed":false,"internalType":"uint256","name":"reward","type":"uint256"},{"indexed":false,"internalType":"uint256","name":"stakeIndex","type":"uint256"}],"name":"RewardClaimed","type":"event"},{"anonymous":false,"inputs":[{"indexed":true,"internalType":"address","name":"user","type":"address"},{"indexed":false,"internalType":"uint256","name":"amount","type":"uint256"},{"indexed":false,"internalType":"uint256","name":"lockPeriod","type":"uint256"},{"indexed":false,"internalType":"uint256","name":"stakeIndex","type":"uint256"}],"name":"Staked","type":"event"},{"anonymous":false,"inputs":[{"indexed":true,"internalType":"address","name":"from","type":"address"},{"indexed":true,"internalType":"address","name":"to","type":"address"},{"indexed":false,"internalType":"uint256","name":"value","type":"uint256"}],"name":"Transfer","type":"event"},{"anonymous":false,"inputs":[{"indexed":false,"internalType":"address","name":"account","type":"address"}],"name":"Unpaused","type":"event"},{"anonymous":false,"inputs":[{"indexed":true,"internalType":"address","name":"user","type":"address"},{"indexed":false,"internalType":"uint256","name":"amount","type":"uint256"},{"indexed":false,"internalType":"uint256","name":"stakeIndex","type":"uint256"}],"name":"Unstaked","type":"event"},{"anonymous":false,"inputs":[{"indexed":true,"internalType":"uint256","name":"proposalId","type":"uint256"},{"indexed":true,"internalType":"address","name":"voter","type":"address"},{"indexed":false,"internalType":"bool","name":"support","type":"bool"},{"indexed":false,"internalType":"uint256","name":"votingPower","type":"uint256"}],"name":"VoteCast","type":"event"},{"inputs":[],"name":"EXECUTION_DELAY","outputs":[{"internalType":"uint256","name":"","type":"uint256"}],"stateMutability":"view","type":"function"},{"inputs":[],"name":"FEE_CHANGE_DELAY","outputs":[{"internalType":"uint256","name":"","type":"uint256"}],"stateMutability":"view","type":"function"},{"inputs":[],"name":"LOCK_180_DAYS","outputs":[{"internalType":"uint256","name":"","type":"uint256"}],"stateMutability":"view","type":"function"},{"inputs":[],"name":"LOCK_30_DAYS","outputs":[{"internalType":"uint256","name":"","type":"uint256"}],"stateMutability":"view","type":"function"},{"inputs":[],"name":"LOCK_365_DAYS","outputs":[{"internalType":"uint256","name":"","type":"uint256"}],"stateMutability":"view","type":"function"},{"inputs":[],"name":"LOCK_90_DAYS","outputs":[{"internalType":"uint256","name":"","type":"uint256"}],"stateMutability":"view","type":"function"},{"inputs":[],"name":"MAX_TOTAL_FEE_BP","outputs":[{"internalType":"uint256","name":"","type":"uint256"}],"stateMutability":"view","type":"function"},{"inputs":[],"name":"PROPOSAL_THRESHOLD","outputs":[{"internalType":"uint256","name":"","type":"uint256"}],"stateMutability":"view","type":"function"},{"inputs":[],"name":"QUORUM_PERCENTAGE","outputs":[{"internalType":"uint256","name":"","type":"uint256"}],"stateMutability":"view","type":"function"},{"inputs":[],"name":"TOTAL_SUPPLY","outputs":[{"internalType":"uint256","name":"","type":"uint256"}],"stateMutability":"view","type":"function"},{"inputs":[],"name":"VOTING_PERIOD","outputs":[{"internalType":"uint256","name":"","type":"uint256"}],"stateMutability":"view","type":"function"},{"inputs":[{"internalType":"uint256","name":"amount","type":"uint256"}],"name":"addToRewardPool","outputs":[],"stateMutability":"nonpayable","type":"function"},{"inputs":[{"internalType":"address","name":"owner","type":"address"},{"internalType":"address","name":"spender","type":"address"}],"name":"allowance","outputs":[{"internalType":"uint256","name":"","type":"uint256"}],"stateMutability":"view","type":"function"},{"inputs":[{"internalType":"address","name":"spender","type":"address"},{"internalType":"uint256","name":"value","type":"uint256"}],"name":"approve","outputs":[{"internalType":"bool","name":"","type":"bool"}],"stateMutability":"nonpayable","type":"function"},{"inputs":[{"internalType":"address","name":"account","type":"address"}],"name":"balanceOf","outputs":[{"internalType":"uint256","name":"","type":"uint256"}],"stateMutability":"view","type":"function"},{"inputs":[{"internalType":"uint256","name":"amount","type":"uint256"}],"name":"burn","outputs":[],"stateMutability":"nonpayable","type":"function"},{"inputs":[],"name":"decimals","outputs":[{"internalType":"uint8","name":"","type":"uint8"}],"stateMutability":"view","type":"function"},{"inputs":[],"name":"emergencyPause","outputs":[],"stateMutability":"nonpayable","type":"function"},{"inputs":[],"name":"emergencyUnpause","outputs":[],"stateMutability":"nonpayable","type":"function"},{"inputs":[{"internalType":"uint256","name":"proposalId","type":"uint256"}],"name":"execute","outputs":[],"stateMutability":"nonpayable","type":"function"},{"inputs":[],"name":"executor","outputs":[{"internalType":"address","name":"","type":"address"}],"stateMutability":"view","type":"function"},{"inputs":[],"name":"feeToBurnBP","outputs":[{"internalType":"uint256","name":"","type":"uint256"}],"stateMutability":"view","type":"function"},{"inputs":[],"name":"feeToFounderBP","outputs":[{"internalType":"uint256","name":"","type":"uint256"}],"stateMutability":"view","type":"function"},{"inputs":[],"name":"feeToTreasuryBP","outputs":[{"internalType":"uint256","name":"","type":"uint256"}],"stateMutability":"view","type":"function"},{"inputs":[],"name":"founderWallet","outputs":[{"internalType":"address","name":"","type":"address"}],"stateMutability":"view","type":"function"},{"inputs":[{"internalType":"address","name":"account","type":"address"}],"name":"getVotingPower","outputs":[{"internalType":"uint256","name":"","type":"uint256"}],"stateMutability":"view","type":"function"},{"inputs":[{"internalType":"uint256","name":"","type":"uint256"},{"internalType":"address","name":"","type":"address"}],"name":"hasVoted","outputs":[{"internalType":"bool","name":"","type":"bool"}],"stateMutability":"view","type":"function"},{"inputs":[{"internalType":"address","name":"","type":"address"}],"name":"isFeeExempt","outputs":[{"internalType":"bool","name":"","type":"bool"}],"stateMutability":"view","type":"function"},{"inputs":[],"name":"lastFeeChange","outputs":[{"internalType":"uint256","name":"","type":"uint256"}],"stateMutability":"view","type":"function"},{"inputs":[{"internalType":"address","name":"","type":"address"}],"name":"lastTxBlock","outputs":[{"internalType":"uint256","name":"","type":"uint256"}],"stateMutability":"view","type":"function"},{"inputs":[{"internalType":"address","name":"","type":"address"}],"name":"lastTxTime","outputs":[{"internalType":"uint256","name":"","type":"uint256"}],"stateMutability":"view","type":"function"},{"inputs":[],"name":"name","outputs":[{"internalType":"string","name":"","type":"string"}],"stateMutability":"view","type":"function"},{"inputs":[],"name":"owner","outputs":[{"internalType":"address","name":"","type":"address"}],"stateMutability":"view","type":"function"},{"inputs":[],"name":"paused","outputs":[{"internalType":"bool","name":"","type":"bool"}],"stateMutability":"view","type":"function"},{"inputs":[],"name":"proposalCount","outputs":[{"internalType":"uint256","name":"","type":"uint256"}],"stateMutability":"view","type":"function"},{"inputs":[{"internalType":"uint256","name":"","type":"uint256"}],"name":"proposals","outputs":[{"internalType":"uint256","name":"id","type":"uint256"},{"internalType":"address","name":"proposer","type":"address"},{"internalType":"string","name":"description","type":"string"},{"internalType":"uint256","name":"forVotes","type":"uint256"},{"internalType":"uint256","name":"againstVotes","type":"uint256"},{"internalType":"uint256","name":"startTime","type":"uint256"},{"internalType":"uint256","name":"endTime","type":"uint256"},{"internalType":"bool","name":"executed","type":"bool"},{"internalType":"enum FIACoinV6.ProposalType","name":"proposalType","type":"uint8"},{"internalType":"bytes","name":"proposalData","type":"bytes"}],"stateMutability":"view","type":"function"},{"inputs":[{"internalType":"string","name":"description","type":"string"},{"internalType":"enum FIACoinV6.ProposalType","name":"pType","type":"uint8"},{"internalType":"bytes","name":"data","type":"bytes"}],"name":"propose","outputs":[{"internalType":"uint256","name":"","type":"uint256"}],"stateMutability":"nonpayable","type":"function"},{"inputs":[{"internalType":"address","name":"to","type":"address"},{"internalType":"uint256","name":"amount","type":"uint256"},{"internalType":"uint256","name":"nonce","type":"uint256"}],"name":"protectedTransfer","outputs":[{"internalType":"bool","name":"","type":"bool"}],"stateMutability":"nonpayable","type":"function"},{"inputs":[],"name":"renounceOwnership","outputs":[],"stateMutability":"nonpayable","type":"function"},{"inputs":[],"name":"rewardPool","outputs":[{"internalType":"uint256","name":"","type":"uint256"}],"stateMutability":"view","type":"function"},{"inputs":[{"internalType":"address","name":"_executor","type":"address"}],"name":"setExecutor","outputs":[],"stateMutability":"nonpayable","type":"function"},{"inputs":[{"internalType":"uint256","name":"_treasury","type":"uint256"},{"internalType":"uint256","name":"_founder","type":"uint256"},{"internalType":"uint256","name":"_burn","type":"uint256"}],"name":"setFeeDistribution","outputs":[],"stateMutability":"nonpayable","type":"function"},{"inputs":[{"internalType":"address","name":"account","type":"address"},{"internalType":"bool","name":"exempt","type":"bool"}],"name":"setFeeExempt","outputs":[],"stateMutability":"nonpayable","type":"function"},{"inputs":[{"internalType":"uint256","name":"_totalFeeBP","type":"uint256"}],"name":"setTotalFeeBP","outputs":[],"stateMutability":"nonpayable","type":"function"},{"inputs":[{"internalType":"uint256","name":"","type":"uint256"}],"name":"stakingAPY","outputs":[{"internalType":"uint256","name":"","type":"uint256"}],"stateMutability":"view","type":"function"},{"inputs":[],"name":"symbol","outputs":[{"internalType":"string","name":"","type":"string"}],"stateMutability":"view","type":"function"},{"inputs":[],"name":"tokenStats","outputs":[{"internalType":"uint256","name":"totalFeeCollected","type":"uint256"},{"internalType":"uint256","name":"totalBurned","type":"uint256"},{"internalType":"uint256","name":"totalStaked","type":"uint256"},{"internalType":"uint256","name":"uniqueHolders","type":"uint256"},{"internalType":"uint256","name":"transactionCount","type":"uint256"}],"stateMutability":"view","type":"function"},{"inputs":[],"name":"totalFeeBP","outputs":[{"internalType":"uint256","name":"","type":"uint256"}],"stateMutability":"view","type":"function"},{"inputs":[],"name":"totalStaked","outputs":[{"internalType":"uint256","name":"","type":"uint256"}],"stateMutability":"view","type":"function"},{"inputs":[],"name":"totalSupply","outputs":[{"internalType":"uint256","name":"","type":"uint256"}],"stateMutability":"view","type":"function"},{"inputs":[{"internalType":"address","name":"to","type":"address"},{"internalType":"uint256","name":"value","type":"uint256"}],"name":"transfer","outputs":[{"internalType":"bool","name":"","type":"bool"}],"stateMutability":"nonpayable","type":"function"},{"inputs":[{"internalType":"address","name":"from","type":"address"},{"internalType":"address","name":"to","type":"address"},{"internalType":"uint256","name":"value","type":"uint256"}],"name":"transferFrom","outputs":[{"internalType":"bool","name":"","type":"bool"}],"stateMutability":"nonpayable","type":"function"},{"inputs":[{"internalType":"address","name":"newOwner","type":"address"}],"name":"transferOwnership","outputs":[],"stateMutability":"nonpayable","type":"function"},{"inputs":[],"name":"treasury","outputs":[{"internalType":"address","name":"","type":"address"}],"stateMutability":"view","type":"function"},{"inputs":[],"name":"txLimits","outputs":[{"internalType":"uint256","name":"maxTxAmount","type":"uint256"},{"internalType":"uint256","name":"maxWalletAmount","type":"uint256"},{"internalType":"uint256","name":"txCooldown","type":"uint256"},{"internalType":"bool","name":"limitsActive","type":"bool"}],"stateMutability":"view","type":"function"},{"inputs":[{"internalType":"bytes32","name":"","type":"bytes32"}],"name":"usedNonces","outputs":[{"internalType":"bool","name":"","type":"bool"}],"stateMutability":"view","type":"function"},{"inputs":[{"internalType":"address","name":"","type":"address"},{"internalType":"uint256","name":"","type":"uint256"}],"name":"userStakes","outputs":[{"internalType":"uint256","name":"amount","type":"uint256"},{"internalType":"uint256","name":"stakingTime","type":"uint256"},{"internalType":"uint256","name":"lastRewardClaim","type":"uint256"},{"internalType":"uint256","name":"lockPeriod","type":"uint256"},{"internalType":"bool","name":"autoCompound","type":"bool"}],"stateMutability":"view","type":"function"},{"inputs":[{"internalType":"address","name":"","type":"address"}],"name":"userStats","outputs":[{"internalType":"uint256","name":"totalFeesPaid","type":"uint256"},{"internalType":"uint256","name":"totalStakingRewards","type":"uint256"},{"internalType":"uint256","name":"transactionCount","type":"uint256"},{"internalType":"uint256","name":"firstTransactionTime","type":"uint256"}],"stateMutability":"view","type":"function"},{"inputs":[{"internalType":"uint256","name":"proposalId","type":"uint256"},{"internalType":"bool","name":"support","type":"bool"}],"name":"vote","outputs":[],"stateMutability":"nonpayable","type":"function"},{"inputs":[{"internalType":"uint256","name":"","type":"uint256"},{"internalType":"address","name":"","type":"address"}],"name":"votingPower","outputs":[{"internalType":"uint256","name":"","type":"uint256"}],"stateMutability":"view","type":"function"}],"evm":{"bytecode":{"linkReferences":{},"object":"6080604052606460075560326008556014600955601e600a553480156200002557600080fd5b506040516200364b3803806200364b8339810160408190526200004891620009d4565b336040518060400160405280600a8152602001692334b0a1b7b4b7103b1b60b11b8152506040518060400160405280600381526020016246494160e81b815250816003908162000099919062000ac2565b506004620000a8828262000ac2565b5050506001600160a01b038116620000db57604051631e4fbdf760e01b8152600060048201526024015b60405180910390fd5b620000e68162000371565b5060016006556001600160a01b038316158015906200010d57506001600160a01b03821615155b6200015b5760405162461bcd60e51b815260206004820152601860248201527f5a65726f2061646472657373206e6f7420616c6c6f77656400000000000000006044820152606401620000d2565b600c80546001600160a01b038086166001600160a01b031992831617909255600d8054858416908316179055600f80549284169290911691909117905542600b55600754600a54600954600854620001b4919062000ba4565b620001c0919062000ba4565b146200020f5760405162461bcd60e51b815260206004820152601860248201527f496e76616c69642066656520646973747269627574696f6e00000000000000006044820152606401620000d2565b601760205261012c7fde76e11c5d351371c0ab5f4f054874c0280415fbcd6d59465fa3c6de30080952556101f47f18f6c95e2c535ac8785f4f248c7ccda041905cec1eb53b293738b004eb678b45556102bc7f0a6517c63730efe90efbfce5899bd250b0f825c6da952dec1d2a8deb35d176d6556301e133806000526103847fbe02ee63ce8b3f8ef8acc702b614f7c31098b7c8b2c9f100ba0b162106c0044055604080516080810190915280620002d86103e86d314dc6448d9338c15b0a0000000062000bc0565b8152602001620002f860646d314dc6448d9338c15b0a0000000062000bc0565b8152603c60208083019190915260016040928301528251601855820151601955810151601a5560600151601b805460ff19169115159190911790556200034d336d314dc6448d9338c15b0a00000000620003c3565b50506001602255503360009081526024602052604090204260039091015562000c2f565b600580546001600160a01b038381166001600160a01b0319831681179093556040519116919082907f8be0079c531659141344cd1fd0a4f28419497f9722a3daafe3b4186f6b6457e090600090a35050565b6001600160a01b038216620003ef5760405163ec442f0560e01b815260006004820152602401620000d2565b620003fd6000838362000401565b5050565b6200040b620007bb565b6001600160a01b038316158015906200042c57506001600160a01b03821615155b156200043f576200043f838383620007f0565b6001600160a01b03831615806200045d57506001600160a01b038216155b80620004695750600754155b806200048d57506001600160a01b0383166000908152600e602052604090205460ff165b80620004b157506001600160a01b0382166000908152600e602052604090205460ff165b156200052e57620004c483838362000898565b6001600160a01b03831615801590620004e557506001600160a01b03821615155b156200052957816001600160a01b0316836001600160a01b03166000805160206200362b833981519152836040516200052091815260200190565b60405180910390a35b505050565b601b5460ff1680156200054a57506001600160a01b0383163014155b80156200056057506001600160a01b0382163014155b1562000612576200057181620008fd565b6019548162000595846001600160a01b031660009081526020819052604090205490565b620005a1919062000ba4565b111562000612576001600160a01b0382166000908152600e602052604090205460ff16620006125760405162461bcd60e51b815260206004820152601560248201527f57616c6c6574206c696d697420657863656564656400000000000000000000006044820152606401620000d2565b60006127106007548362000627919062000be3565b62000633919062000bc0565b90506000600754600854836200064a919062000be3565b62000656919062000bc0565b90506000600754600954846200066d919062000be3565b62000679919062000bc0565b90506000816200068a848662000bfd565b62000696919062000bfd565b90506000620006a6858762000bfd565b90508315620006c957600c54620006c99089906001600160a01b03168662000898565b8215620006ea57600d54620006ea9089906001600160a01b03168562000898565b81156200071a57620006fd88836200097d565b81601f600101600082825462000714919062000ba4565b90915550505b6200072788888362000898565b84601f60000160008282546200073e919062000ba4565b90915550506001600160a01b038816600090815260246020526040812080548792906200076d90849062000ba4565b92505081905550866001600160a01b0316886001600160a01b03166000805160206200362b83398151915283604051620007a991815260200190565b60405180910390a35050505050505050565b620007cf600554600160a01b900460ff1690565b15620007ee5760405163d93c066560e01b815260040160405180910390fd5b565b60238054906000620008028362000c13565b90915550506001600160a01b0383166000908152602460205260408120600201805491620008308362000c13565b90915550506001600160a01b03821660009081526024602052604081206003015490036200088d576001600160a01b0382166000908152602460205260408120426003909101556022805491620008878362000c13565b91905055505b505060155460215550565b6001600160a01b038316620008c457604051634b637e8f60e11b815260006004820152602401620000d2565b6001600160a01b038216620008f05760405163ec442f0560e01b815260006004820152602401620000d2565b6200052983838362000401565b601b5460ff168015620009205750336000908152600e602052604090205460ff16155b156200097a576018548111156200097a5760405162461bcd60e51b815260206004820181905260248201527f5472616e73616374696f6e20616d6f756e742065786365656473206c696d69746044820152606401620000d2565b50565b6001600160a01b038216620009a957604051634b637e8f60e11b815260006004820152602401620000d2565b620003fd8260008362000401565b80516001600160a01b0381168114620009cf57600080fd5b919050565b600080600060608486031215620009ea57600080fd5b620009f584620009b7565b925062000a0560208501620009b7565b915062000a1560408501620009b7565b90509250925092565b634e487b7160e01b600052604160045260246000fd5b600181811c9082168062000a4957607f821691505b60208210810362000a6a57634e487b7160e01b600052602260045260246000fd5b50919050565b601f8211156200052957600081815260208120601f850160051c8101602086101562000a995750805b601f850160051c820191505b8181101562000aba5782815560010162000aa5565b505050505050565b81516001600160401b0381111562000ade5762000ade62000a1e565b62000af68162000aef845462000a34565b8462000a70565b602080601f83116001811462000b2e576000841562000b155750858301515b600019600386901b1c1916600185901b17855562000aba565b600085815260208120601f198616915b8281101562000b5f5788860151825594840194600190910190840162000b3e565b508582101562000b7e5787850151600019600388901b60f8161c191681555b5050505050600190811b01905550565b634e487b7160e01b600052601160045260246000fd5b8082018082111562000bba5762000bba62000b8e565b92915050565b60008262000bde57634e487b7160e01b600052601260045260246000fd5b500490565b808202811582820484141762000bba5762000bba62000b8e565b8181038181111562000bba5762000bba62000b8e565b60006001820162000c285762000c2862000b8e565b5060010190565b6129ec8062000c3f6000396000f3fe608060405234801561001057600080fd5b50600436106103a45760003560e01c80638893002f116101e9578063bb4d44361161010f578063dd62ed3e116100ad578063f2fde38b1161007c578063f2fde38b146108a5578063f6141345146108b8578063fe0d94c1146108c1578063feb61724146108d457600080fd5b8063dd62ed3e1461081f578063e37c3a5514610858578063ee8a7c1514610862578063f270fde41461086a57600080fd5b8063c9d27afe116100e9578063c9d27afe146107b8578063ceb88a16146107cb578063d90125a5146107eb578063da35c6641461081657600080fd5b8063bb4d443614610788578063be8a361f1461079b578063c34c08e5146107a557600080fd5b8063a6c2660311610187578063b1610d7e11610156578063b1610d7e1461071b578063b5d5b5fa14610725578063b95ffbce14610762578063ba8e568f1461077557600080fd5b8063a6c26603146106a2578063a9059cbb146106b3578063ad1cecb2146106c6578063b0dfd2e6146106d957600080fd5b80638ebfc796116101c35780638ebfc7961461065f578063902d55a51461067257806395d89b4114610687578063a23d3c351461068f57600080fd5b80638893002f146105e65780638a65d874146105f95780638da5cb5b1461064e57600080fd5b80634a4e3bd5116102ce578063695056881161026c5780637c6e5db71161023b5780637c6e5db7146105a9578063817b1cd2146105b357806382865218146105bc578063875bb4e2146105c657600080fd5b8063695056881461057d57806370a0823114610586578063715018a6146105995780637c4ccbea146105a157600080fd5b806355ef9b5e116102a857806355ef9b5e1461052e5780635c975abb1461053757806361d027b31461054957806366666aa91461057457600080fd5b80634a4e3bd51461051357806351383f981461051b57806351858e271461052657600080fd5b80631c3c0ea81161034657806337f135d71161031557806337f135d7146104a55780633f4218e0146104af57806342966c68146104d257806343859632146104e557600080fd5b80631c3c0ea81461045b5780631f1f5bb31461047057806323b872dd14610483578063313ce5671461049657600080fd5b8063118725ce11610382578063118725ce14610413578063120a81511461042a57806317d636051461043357806318160ddd1461045357600080fd5b8063013cf08b146103a957806306fdde03146103db578063095ea7b3146103f0575b600080fd5b6103bc6103b7366004612376565b6108f7565b6040516103d29a999897969594939291906123eb565b60405180910390f35b6103e3610a6c565b6040516103d29190612481565b6104036103fe3660046124b0565b610afe565b60405190151581526020016103d2565b61041c60095481565b6040519081526020016103d2565b61041c600a5481565b61041c6104413660046124dc565b601e6020526000908152604090205481565b60025461041c565b61046e6104693660046124dc565b610b18565b005b61046e61047e366004612376565b610b42565b6104036104913660046124f9565b610c3f565b604051601281526020016103d2565b61041c6202a30081565b6104036104bd3660046124dc565b600e6020526000908152604090205460ff1681565b61046e6104e0366004612376565b610c63565b6104036104f336600461253a565b601260209081526000928352604080842090915290825290205460ff1681565b61046e610c8a565b61041c6301e1338081565b61046e610cf0565b61041c60085481565b600554600160a01b900460ff16610403565b600c5461055c906001600160a01b031681565b6040516001600160a01b0390911681526020016103d2565b61041c60165481565b61041c600b5481565b61041c6105943660046124dc565b610d4e565b61046e610d69565b61041c60c881565b61041c62278d0081565b61041c60155481565b61041c62ed4e0081565b61041c6105d4366004612376565b60176020526000908152604090205481565b6104036105f436600461256a565b610d7d565b61062e6106073660046124dc565b60246020526000908152604090208054600182015460028301546003909301549192909184565b6040805194855260208501939093529183015260608201526080016103d2565b6005546001600160a01b031661055c565b61046e61066d3660046125b4565b610f26565b61041c6d314dc6448d9338c15b0a0000000081565b6103e3610f8d565b600d5461055c906001600160a01b031681565b61041c69d3c21bcecceda100000081565b6104036106c13660046124b0565b610f9c565b61041c6106d4366004612675565b610faa565b601f546020546021546022546023546106f3949392919085565b604080519586526020860194909452928401919091526060830152608082015260a0016103d2565b61041c62093a8081565b6107386107333660046124b0565b6111c7565b6040805195865260208601949094529284019190915260608301521515608082015260a0016103d2565b61046e610770366004612376565b611218565b61046e61078336600461271c565b61128c565b61041c6107963660046124dc565b611358565b61041c6201518081565b600f5461055c906001600160a01b031681565b61046e6107c6366004612748565b611363565b61041c6107d93660046124dc565b601c6020526000908152604090205481565b61041c6107f936600461253a565b601360209081526000928352604080842090915290825290205481565b61041c60105481565b61041c61082d36600461276b565b6001600160a01b03918216600090815260016020908152604080832093909416825291909152205490565b61041c6276a70081565b61041c600a81565b601854601954601a54601b546108839392919060ff1684565b60408051948552602085019390935291830152151560608201526080016103d2565b61046e6108b33660046124dc565b611583565b61041c60075481565b61046e6108cf366004612376565b6115c1565b6104036108e2366004612376565b601d6020526000908152604090205460ff1681565b60116020526000908152604090208054600182015460028301805492936001600160a01b039092169261092990612799565b80601f016020809104026020016040519081016040528092919081815260200182805461095590612799565b80156109a25780601f10610977576101008083540402835291602001916109a2565b820191906000526020600020905b81548152906001019060200180831161098557829003601f168201915b5050506003840154600485015460058601546006870154600788015460088901805498999598949750929550909360ff80831694610100909304169290916109e990612799565b80601f0160208091040260200160405190810160405280929190818152602001828054610a1590612799565b8015610a625780601f10610a3757610100808354040283529160200191610a62565b820191906000526020600020905b815481529060010190602001808311610a4557829003601f168201915b505050505090508a565b606060038054610a7b90612799565b80601f0160208091040260200160405190810160405280929190818152602001828054610aa790612799565b8015610af45780601f10610ac957610100808354040283529160200191610af4565b820191906000526020600020905b815481529060010190602001808311610ad757829003601f168201915b5050505050905090565b600033610b0c818585611a42565b60019150505b92915050565b610b20611a54565b600f80546001600160a01b0319166001600160a01b0392909216919091179055565b610b4a611a54565b60c8811115610b965760405162461bcd60e51b81526020600482015260136024820152724665652065786365656473206d6178696d756d60681b60448201526064015b60405180910390fd5b62015180600b54610ba791906127e9565b421015610bf65760405162461bcd60e51b815260206004820152601760248201527f466565206368616e676520746f6f206672657175656e740000000000000000006044820152606401610b8d565b600780549082905542600b5560408051828152602081018490527fcf4c3ba0667a6e28c2746a4ee8d23efa18b2ca17591c2a22c36773a0232661d8910160405180910390a15050565b600033610c4d858285611a81565b610c58858585611b00565b506001949350505050565b610c6d3382611b5f565b80601f6001016000828254610c8291906127e9565b909155505050565b610c92611a54565b610c9a611b99565b6040805181815260079181019190915266554e504155534560c81b60608201523360208201527f2a09e26ec96218a3a144df2e04de096b7f0410106a4caff3cdfa5d667e604f2a906080015b60405180910390a1565b610cf8611a54565b610d00611be9565b6040805181815260059181019190915264504155534560d81b60608201523360208201527f2a09e26ec96218a3a144df2e04de096b7f0410106a4caff3cdfa5d667e604f2a90608001610ce6565b6001600160a01b031660009081526020819052604090205490565b610d71611a54565b610d7b6000611c2c565b565b601b54600090829060ff1615610f1257336000908152601c60205260409020544311610de45760405162461bcd60e51b815260206004820152601660248201527529b0b6b290313637b1b5903a3930b739b0b1ba34b7b760511b6044820152606401610b8d565b6040805133602080830191909152818301849052825180830384018152606090920183528151918101919091206000908152601d909152205460ff1615610e5a5760405162461bcd60e51b815260206004820152600a602482015269139bdb98d9481d5cd95960b21b6044820152606401610b8d565b601a54336000908152601e6020526040902054610e7791906127e9565b421015610eb95760405162461bcd60e51b815260206004820152601060248201526f10dbdbdb191bdddb881b9bdd081b595d60821b6044820152606401610b8d565b336000818152601c602090815260408083204390558051808301859052808201869052815180820383018152606090910182528051908301208352601d8252808320805460ff19166001179055928252601e9052204290555b610f1b84611c7e565b610c58338686611b00565b610f2e611a54565b6001600160a01b0382166000818152600e6020908152604091829020805460ff191685151590811790915591519182527f210f2a4a589e25d95b24cbdb060d26ae79bbe123a564d0f973503d48badd00ca910160405180910390a25050565b606060048054610a7b90612799565b600033610b0c818585611b00565b600069d3c21bcecceda1000000610fc033610d4e565b10156110185760405162461bcd60e51b815260206004820152602160248201527f496e73756666696369656e742062616c616e636520666f722070726f706f73616044820152601b60fa1b6064820152608401610b8d565b6010805460009182611029836127fc565b919050559050604051806101400160405280828152602001336001600160a01b03168152602001868152602001600081526020016000815260200142815260200162093a804261107991906127e9565b815260006020820152604001856003811115611097576110976123d5565b8152602090810185905260008381526011825260409081902083518155918301516001830180546001600160a01b0319166001600160a01b0390921691909117905582015160028201906110eb9082612863565b50606082015181600301556080820151816004015560a0820151816005015560c0820151816006015560e08201518160070160006101000a81548160ff0219169083151502179055506101008201518160070160016101000a81548160ff0219169083600381111561115f5761115f6123d5565b021790555061012082015160088201906111799082612863565b50905050336001600160a01b0316817f7585f467599d0f008985f231af99293be388626ac16ca59505c2f8f88969cd63876040516111b79190612481565b60405180910390a3949350505050565b601460205281600052604060002081815481106111e357600080fd5b600091825260209091206005909102018054600182015460028301546003840154600490940154929550909350919060ff1685565b611220611a54565b8061122a33610d4e565b101561126f5760405162461bcd60e51b8152602060048201526014602482015273496e73756666696369656e742062616c616e636560601b6044820152606401610b8d565b61127a333083611b00565b8060166000828254610c8291906127e9565b611294611a54565b600754816112a284866127e9565b6112ac91906127e9565b146113035760405162461bcd60e51b815260206004820152602160248201527f446973747269627574696f6e206d75737420657175616c20746f74616c2066656044820152606560f81b6064820152608401610b8d565b60088390556009829055600a81905560408051848152602081018490529081018290527f69fc4c7ba13251e049284d74af6f22b2804db0152deb918f6cf17451917fe97f9060600160405180910390a1505050565b6000610b1282610d4e565b60105482106113aa5760405162461bcd60e51b8152602060048201526013602482015272125b9d985b1a59081c1c9bdc1bdcd85b081251606a1b6044820152606401610b8d565b600082815260126020908152604080832033845290915290205460ff16156114045760405162461bcd60e51b815260206004820152600d60248201526c105b1c9958591e481d9bdd1959609a1b6044820152606401610b8d565b60008281526011602052604090206006015442111561145b5760405162461bcd60e51b8152602060048201526013602482015272159bdd1a5b99c81c195c9a5bd908195b991959606a1b6044820152606401610b8d565b600061146633610d4e565b9050600081116114aa5760405162461bcd60e51b815260206004820152600f60248201526e2737903b37ba34b733903837bbb2b960891b6044820152606401610b8d565b600083815260126020908152604080832033808552908352818420805460ff191660011790558684526013835281842090845290915290208190558115611517576000838152601160205260408120600301805483929061150c9084906127e9565b9091555061153e9050565b600083815260116020526040812060040180548392906115389084906127e9565b90915550505b60408051831515815260208101839052339185917fcbdf6214089cba887ecbf35a0b6a734589959c9763342c756bb2a80ca2bc9f6e91015b60405180910390a3505050565b61158b611a54565b6001600160a01b0381166115b557604051631e4fbdf760e01b815260006004820152602401610b8d565b6115be81611c2c565b50565b60105481106116085760405162461bcd60e51b8152602060048201526013602482015272125b9d985b1a59081c1c9bdc1bdcd85b081251606a1b6044820152606401610b8d565b600f546001600160a01b031633148061162b57506005546001600160a01b031633145b6116775760405162461bcd60e51b815260206004820152601960248201527f4e6f7420617574686f72697a656420746f2065786563757465000000000000006044820152606401610b8d565b6000818152601160205260409020600781015460ff16156116cd5760405162461bcd60e51b815260206004820152601060248201526f105b1c9958591e48195e1958dd5d195960821b6044820152606401610b8d565b806006015442116117165760405162461bcd60e51b8152602060048201526013602482015272566f74696e67207374696c6c2061637469766560681b6044820152606401610b8d565b6202a300816006015461172991906127e9565b42116117775760405162461bcd60e51b815260206004820152601760248201527f457865637574696f6e2064656c6179206e6f74206d65740000000000000000006044820152606401610b8d565b60008160040154826003015461178d91906127e9565b905060006064600a61179e60025490565b6117a89190612923565b6117b2919061293a565b9050808210156117f55760405162461bcd60e51b815260206004820152600e60248201526d145d5bdc9d5b481b9bdd081b595d60921b6044820152606401610b8d565b82600401548360030154116118405760405162461bcd60e51b8152602060048201526011602482015270141c9bdc1bdcd85b081c995a9958dd1959607a1b6044820152606401610b8d565b60078301805460ff19166001908117909155604080516101408101825285548152918501546001600160a01b03166020830152600285018054611a11939287929084019161188d90612799565b80601f01602080910402602001604051908101604052809291908181526020018280546118b990612799565b80156119065780601f106118db57610100808354040283529160200191611906565b820191906000526020600020905b8154815290600101906020018083116118e957829003601f168201915b50505091835250506003828101546020830152600483015460408301526005830154606083015260068301546080830152600783015460ff808216151560a085015260c0909301926101009091041690811115611965576119656123d5565b6003811115611976576119766123d5565b815260200160088201805461198a90612799565b80601f01602080910402602001604051908101604052809291908181526020018280546119b690612799565b8015611a035780601f106119d857610100808354040283529160200191611a03565b820191906000526020600020905b8154815290600101906020018083116119e657829003601f168201915b505050505081525050611cf7565b60405184907f712ae1383f79ac853f8d882153778e0260ef8f03b504e2866e0593e04d2b291f90600090a250505050565b611a4f8383836001611e3a565b505050565b6005546001600160a01b03163314610d7b5760405163118cdaa760e01b8152336004820152602401610b8d565b6001600160a01b03838116600090815260016020908152604080832093861683529290522054600019811015611afa5781811015611aeb57604051637dc7a0d960e11b81526001600160a01b03841660048201526024810182905260448101839052606401610b8d565b611afa84848484036000611e3a565b50505050565b6001600160a01b038316611b2a57604051634b637e8f60e11b815260006004820152602401610b8d565b6001600160a01b038216611b545760405163ec442f0560e01b815260006004820152602401610b8d565b611a4f838383611f0f565b6001600160a01b038216611b8957604051634b637e8f60e11b815260006004820152602401610b8d565b611b9582600083611f0f565b5050565b611ba1612280565b6005805460ff60a01b191690557f5db9ee0a495bf2e6ff9c91a7834c1ba4fdd244a5e8aa4e537bd38aeae4b073aa335b6040516001600160a01b039091168152602001610ce6565b611bf16122aa565b6005805460ff60a01b1916600160a01b1790557f62e78cea01bee320cd4e420270b5ea74000d11b0c9f74754ebdbfc544b05a258611bd13390565b600580546001600160a01b038381166001600160a01b0319831681179093556040519116919082907f8be0079c531659141344cd1fd0a4f28419497f9722a3daafe3b4186f6b6457e090600090a35050565b601b5460ff168015611ca05750336000908152600e602052604090205460ff16155b156115be576018548111156115be5760405162461bcd60e51b815260206004820181905260248201527f5472616e73616374696f6e20616d6f756e742065786365656473206c696d69746044820152606401610b8d565b60008161010001516003811115611d1057611d106123d5565b03611d7f576000816101200151806020019051810190611d30919061295c565b905060c8811115611d795760405162461bcd60e51b81526020600482015260136024820152724665652065786365656473206d6178696d756d60681b6044820152606401610b8d565b60075550565b60018161010001516003811115611d9857611d986123d5565b036115be57600080826101200151806020019051810190611db99190612975565b600c5491935091508190611dd5906001600160a01b0316610d4e565b1015611e235760405162461bcd60e51b815260206004820152601d60248201527f496e73756666696369656e742074726561737572792062616c616e63650000006044820152606401610b8d565b600c54611a4f906001600160a01b03168383611b00565b6001600160a01b038416611e645760405163e602df0560e01b815260006004820152602401610b8d565b6001600160a01b038316611e8e57604051634a1406b160e11b815260006004820152602401610b8d565b6001600160a01b0380851660009081526001602090815260408083209387168352929052208290558015611afa57826001600160a01b0316846001600160a01b03167f8c5be1e5ebec7d5bd14f71427d1e84f3dd0314c0f7b2291e5b200ac8c7c3b92584604051611f0191815260200190565b60405180910390a350505050565b611f176122aa565b6001600160a01b03831615801590611f3757506001600160a01b03821615155b15611f4757611f478383836122d5565b6001600160a01b0383161580611f6457506001600160a01b038216155b80611f6f5750600754155b80611f9257506001600160a01b0383166000908152600e602052604090205460ff165b80611fb557506001600160a01b0382166000908152600e602052604090205460ff165b1561202f57611fc5838383611b00565b6001600160a01b03831615801590611fe557506001600160a01b03821615155b15611a4f57816001600160a01b0316836001600160a01b03167f59abb1a21ac9c02d9c217285768a906af17496e4cada7962f129b92f0ac948cf8360405161157691815260200190565b601b5460ff16801561204a57506001600160a01b0383163014155b801561205f57506001600160a01b0382163014155b156120ea5761206d81611c7e565b6019548161207a84610d4e565b61208491906127e9565b11156120ea576001600160a01b0382166000908152600e602052604090205460ff166120ea5760405162461bcd60e51b815260206004820152601560248201527415d85b1b195d081b1a5b5a5d08195e18d959591959605a1b6044820152606401610b8d565b6000612710600754836120fd9190612923565b612107919061293a565b905060006007546008548361211c9190612923565b612126919061293a565b905060006007546009548461213b9190612923565b612145919061293a565b905060008161215484866129a3565b61215e91906129a3565b9050600061216c85876129a3565b9050831561218c57600c5461218c9089906001600160a01b031686611b00565b82156121aa57600d546121aa9089906001600160a01b031685611b00565b81156121d5576121ba8883611b5f565b81601f60010160008282546121cf91906127e9565b90915550505b6121e0888883611b00565b84601f60000160008282546121f591906127e9565b90915550506001600160a01b038816600090815260246020526040812080548792906122229084906127e9565b92505081905550866001600160a01b0316886001600160a01b03167f59abb1a21ac9c02d9c217285768a906af17496e4cada7962f129b92f0ac948cf8360405161226e91815260200190565b60405180910390a35050505050505050565b600554600160a01b900460ff16610d7b57604051638dfc202b60e01b815260040160405180910390fd5b600554600160a01b900460ff1615610d7b5760405163d93c066560e01b815260040160405180910390fd5b602380549060006122e5836127fc565b90915550506001600160a01b0383166000908152602460205260408120600201805491612311836127fc565b90915550506001600160a01b038216600090815260246020526040812060030154900361236b576001600160a01b0382166000908152602460205260408120426003909101556022805491612365836127fc565b91905055505b505060155460215550565b60006020828403121561238857600080fd5b5035919050565b6000815180845260005b818110156123b557602081850181015186830182015201612399565b506000602082860101526020601f19601f83011685010191505092915050565b634e487b7160e01b600052602160045260246000fd5b8a81526001600160a01b038a166020820152610140604082018190526000906124168382018c61238f565b90508960608401528860808401528760a08401528660c084015285151560e08401526004851061245657634e487b7160e01b600052602160045260246000fd5b84610100840152828103610120840152612470818561238f565b9d9c50505050505050505050505050565b602081526000612494602083018461238f565b9392505050565b6001600160a01b03811681146115be57600080fd5b600080604083850312156124c357600080fd5b82356124ce8161249b565b946020939093013593505050565b6000602082840312156124ee57600080fd5b81356124948161249b565b60008060006060848603121561250e57600080fd5b83356125198161249b565b925060208401356125298161249b565b929592945050506040919091013590565b6000806040838503121561254d57600080fd5b82359150602083013561255f8161249b565b809150509250929050565b60008060006060848603121561257f57600080fd5b833561258a8161249b565b95602085013595506040909401359392505050565b803580151581146125af57600080fd5b919050565b600080604083850312156125c757600080fd5b82356125d28161249b565b91506125e06020840161259f565b90509250929050565b634e487b7160e01b600052604160045260246000fd5b600067ffffffffffffffff8084111561261a5761261a6125e9565b604051601f8501601f19908116603f01168101908282118183101715612642576126426125e9565b8160405280935085815286868601111561265b57600080fd5b858560208301376000602087830101525050509392505050565b60008060006060848603121561268a57600080fd5b833567ffffffffffffffff808211156126a257600080fd5b818601915086601f8301126126b657600080fd5b6126c5878335602085016125ff565b945060208601359150600482106126db57600080fd5b909250604085013590808211156126f157600080fd5b508401601f8101861361270357600080fd5b612712868235602084016125ff565b9150509250925092565b60008060006060848603121561273157600080fd5b505081359360208301359350604090920135919050565b6000806040838503121561275b57600080fd5b823591506125e06020840161259f565b6000806040838503121561277e57600080fd5b82356127898161249b565b9150602083013561255f8161249b565b600181811c908216806127ad57607f821691505b6020821081036127cd57634e487b7160e01b600052602260045260246000fd5b50919050565b634e487b7160e01b600052601160045260246000fd5b80820180821115610b1257610b126127d3565b60006001820161280e5761280e6127d3565b5060010190565b601f821115611a4f57600081815260208120601f850160051c8101602086101561283c5750805b601f850160051c820191505b8181101561285b57828155600101612848565b505050505050565b815167ffffffffffffffff81111561287d5761287d6125e9565b6128918161288b8454612799565b84612815565b602080601f8311600181146128c657600084156128ae5750858301515b600019600386901b1c1916600185901b17855561285b565b600085815260208120601f198616915b828110156128f5578886015182559484019460019091019084016128d6565b50858210156129135787850151600019600388901b60f8161c191681555b5050505050600190811b01905550565b8082028115828204841417610b1257610b126127d3565b60008261295757634e487b7160e01b600052601260045260246000fd5b500490565b60006020828403121561296e57600080fd5b5051919050565b6000806040838503121561298857600080fd5b82516129938161249b565b6020939093015192949293505050565b81810381811115610b1257610b126127d356fea2646970667358221220a51c9fc919bd418ae71178f49554fa42b3d284ea03e9edfe1bb81b3fefd6310e64736f6c6343000814003359abb1a21ac9c02d9c217285768a906af17496e4cada7962f129b92f0ac948cf","opcodes":"PUSH1 0x80 PUSH1 0x40 MSTORE PUSH1 0x64 PUSH1 0x7 SSTORE PUSH1 0x32 PUSH1 0x8 SSTORE PUSH1 0x14 PUSH1 0x9 SSTORE PUSH1 0x1E PUSH1 0xA SSTORE CALLVALUE DUP1 ISZERO PUSH3 0x25 JUMPI PUSH1 0x0 DUP1 REVERT JUMPDEST POP PUSH1 0x40 MLOAD PUSH3 0x364B CODESIZE SUB DUP1 PUSH3 0x364B DUP4 CODECOPY DUP2 ADD PUSH1 0x40 DUP2 SWAP1 MSTORE PUSH3 0x48 SWAP2 PUSH3 0x9D4 JUMP JUMPDEST CALLER PUSH1 0x40 MLOAD DUP1 PUSH1 0x40 ADD PUSH1 0x40 MSTORE DUP1 PUSH1 0xA DUP2 MSTORE PUSH1 0x20 ADD PUSH10 0x2334B0A1B7B4B7103B1B PUSH1 0xB1 SHL DUP2 MSTORE POP PUSH1 0x40 MLOAD DUP1 PUSH1 0x40 ADD PUSH1 0x40 MSTORE DUP1 PUSH1 0x3 DUP2 MSTORE PUSH1 0x20 ADD PUSH3 0x464941 PUSH1 0xE8 SHL DUP2 MSTORE POP DUP2 PUSH1 0x3 SWAP1 DUP2 PUSH3 0x99 SWAP2 SWAP1 PUSH3 0xAC2 JUMP JUMPDEST POP PUSH1 0x4 PUSH3 0xA8 DUP3 DUP3 PUSH3 0xAC2 JUMP JUMPDEST POP POP POP PUSH1 0x1 PUSH1 0x1 PUSH1 0xA0 SHL SUB DUP2 AND PUSH3 0xDB JUMPI PUSH1 0x40 MLOAD PUSH4 0x1E4FBDF7 PUSH1 0xE0 SHL DUP2 MSTORE PUSH1 0x0 PUSH1 0x4 DUP3 ADD MSTORE PUSH1 0x24 ADD JUMPDEST PUSH1 0x40 MLOAD DUP1 SWAP2 SUB SWAP1 REVERT JUMPDEST PUSH3 0xE6 DUP2 PUSH3 0x371 JUMP JUMPDEST POP PUSH1 0x1 PUSH1 0x6 SSTORE PUSH1 0x1 PUSH1 0x1 PUSH1 0xA0 SHL SUB DUP4 AND ISZERO DUP1 ISZERO SWAP1 PUSH3 0x10D JUMPI POP PUSH1 0x1 PUSH1 0x1 PUSH1 0xA0 SHL SUB DUP3 AND ISZERO ISZERO JUMPDEST PUSH3 0x15B JUMPI PUSH1 0x40 MLOAD PUSH3 0x461BCD PUSH1 0xE5 SHL DUP2 MSTORE PUSH1 0x20 PUSH1 0x4 DUP3 ADD MSTORE PUSH1 0x18 PUSH1 0x24 DUP3 ADD MSTORE PUSH32 0x5A65726F2061646472657373206E6F7420616C6C6F7765640000000000000000 PUSH1 0x44 DUP3 ADD MSTORE PUSH1 0x64 ADD PUSH3 0xD2 JUMP JUMPDEST PUSH1 0xC DUP1 SLOAD PUSH1 0x1 PUSH1 0x1 PUSH1 0xA0 SHL SUB DUP1 DUP7 AND PUSH1 0x1 PUSH1 0x1 PUSH1 0xA0 SHL SUB NOT SWAP3 DUP4 AND OR SWAP1 SWAP3 SSTORE PUSH1 0xD DUP1 SLOAD DUP6 DUP5 AND SWAP1 DUP4 AND OR SWAP1 SSTORE PUSH1 0xF DUP1 SLOAD SWAP3 DUP5 AND SWAP3 SWAP1 SWAP2 AND SWAP2 SWAP1 SWAP2 OR SWAP1 SSTORE TIMESTAMP PUSH1 0xB SSTORE PUSH1 0x7 SLOAD PUSH1 0xA SLOAD PUSH1 0x9 SLOAD PUSH1 0x8 SLOAD PUSH3 0x1B4 SWAP2 SWAP1 PUSH3 0xBA4 JUMP JUMPDEST PUSH3 0x1C0 SWAP2 SWAP1 PUSH3 0xBA4 JUMP JUMPDEST EQ PUSH3 0x20F JUMPI PUSH1 0x40 MLOAD PUSH3 0x461BCD PUSH1 0xE5 SHL DUP2 MSTORE PUSH1 0x20 PUSH1 0x4 DUP3 ADD MSTORE PUSH1 0x18 PUSH1 0x24 DUP3 ADD MSTORE PUSH32 0x496E76616C69642066656520646973747269627574696F6E0000000000000000 PUSH1 0x44 DUP3 ADD MSTORE PUSH1 0x64 ADD PUSH3 0xD2 JUMP JUMPDEST PUSH1 0x17 PUSH1 0x20 MSTORE PUSH2 0x12C PUSH32 0xDE76E11C5D351371C0AB5F4F054874C0280415FBCD6D59465FA3C6DE30080952 SSTORE PUSH2 0x1F4 PUSH32 0x18F6C95E2C535AC8785F4F248C7CCDA041905CEC1EB53B293738B004EB678B45 SSTORE PUSH2 0x2BC PUSH32 0xA6517C63730EFE90EFBFCE5899BD250B0F825C6DA952DEC1D2A8DEB35D176D6 SSTORE PUSH4 0x1E13380 PUSH1 0x0 MSTORE PUSH2 0x384 PUSH32 0xBE02EE63CE8B3F8EF8ACC702B614F7C31098B7C8B2C9F100BA0B162106C00440 SSTORE PUSH1 0x40 DUP1 MLOAD PUSH1 0x80 DUP2 ADD SWAP1 SWAP2 MSTORE DUP1 PUSH3 0x2D8 PUSH2 0x3E8 PUSH14 0x314DC6448D9338C15B0A00000000 PUSH3 0xBC0 JUMP JUMPDEST DUP2 MSTORE PUSH1 0x20 ADD PUSH3 0x2F8 PUSH1 0x64 PUSH14 0x314DC6448D9338C15B0A00000000 PUSH3 0xBC0 JUMP JUMPDEST DUP2 MSTORE PUSH1 0x3C PUSH1 0x20 DUP1 DUP4 ADD SWAP2 SWAP1 SWAP2 MSTORE PUSH1 0x1 PUSH1 0x40 SWAP3 DUP4 ADD MSTORE DUP3 MLOAD PUSH1 0x18 SSTORE DUP3 ADD MLOAD PUSH1 0x19 SSTORE DUP2 ADD MLOAD PUSH1 0x1A SSTORE PUSH1 0x60 ADD MLOAD PUSH1 0x1B DUP1 SLOAD PUSH1 0xFF NOT AND SWAP2 ISZERO ISZERO SWAP2 SWAP1 SWAP2 OR SWAP1 SSTORE PUSH3 0x34D CALLER PUSH14 0x314DC6448D9338C15B0A00000000 PUSH3 0x3C3 JUMP JUMPDEST POP POP PUSH1 0x1 PUSH1 0x22 SSTORE POP CALLER PUSH1 0x0 SWAP1 DUP2 MSTORE PUSH1 0x24 PUSH1 0x20 MSTORE PUSH1 0x40 SWAP1 KECCAK256 TIMESTAMP PUSH1 0x3 SWAP1 SWAP2 ADD SSTORE PUSH3 0xC2F JUMP JUMPDEST PUSH1 0x5 DUP1 SLOAD PUSH1 0x1 PUSH1 0x1 PUSH1 0xA0 SHL SUB DUP4 DUP2 AND PUSH1 0x1 PUSH1 0x1 PUSH1 0xA0 SHL SUB NOT DUP4 AND DUP2 OR SWAP1 SWAP4 SSTORE PUSH1 0x40 MLOAD SWAP2 AND SWAP2 SWAP1 DUP3 SWAP1 PUSH32 0x8BE0079C531659141344CD1FD0A4F28419497F9722A3DAAFE3B4186F6B6457E0 SWAP1 PUSH1 0x0 SWAP1 LOG3 POP POP JUMP JUMPDEST PUSH1 0x1 PUSH1 0x1 PUSH1 0xA0 SHL SUB DUP3 AND PUSH3 0x3EF JUMPI PUSH1 0x40 MLOAD PUSH4 0xEC442F05 PUSH1 0xE0 SHL DUP2 MSTORE PUSH1 0x0 PUSH1 0x4 DUP3 ADD MSTORE PUSH1 0x24 ADD PUSH3 0xD2 JUMP JUMPDEST PUSH3 0x3FD PUSH1 0x0 DUP4 DUP4 PUSH3 0x401 JUMP JUMPDEST POP POP JUMP JUMPDEST PUSH3 0x40B PUSH3 0x7BB JUMP JUMPDEST PUSH1 0x1 PUSH1 0x1 PUSH1 0xA0 SHL SUB DUP4 AND ISZERO DUP1 ISZERO SWAP1 PUSH3 0x42C JUMPI POP PUSH1 0x1 PUSH1 0x1 PUSH1 0xA0 SHL SUB DUP3 AND ISZERO ISZERO JUMPDEST ISZERO PUSH3 0x43F JUMPI PUSH3 0x43F DUP4 DUP4 DUP4 PUSH3 0x7F0 JUMP JUMPDEST PUSH1 0x1 PUSH1 0x1 PUSH1 0xA0 SHL SUB DUP4 AND ISZERO DUP1 PUSH3 0x45D JUMPI POP PUSH1 0x1 PUSH1 0x1 PUSH1 0xA0 SHL SUB DUP3 AND ISZERO JUMPDEST DUP1 PUSH3 0x469 JUMPI POP PUSH1 0x7 SLOAD ISZERO JUMPDEST DUP1 PUSH3 0x48D JUMPI POP PUSH1 0x1 PUSH1 0x1 PUSH1 0xA0 SHL SUB DUP4 AND PUSH1 0x0 SWAP1 DUP2 MSTORE PUSH1 0xE PUSH1 0x20 MSTORE PUSH1 0x40 SWAP1 KECCAK256 SLOAD PUSH1 0xFF AND JUMPDEST DUP1 PUSH3 0x4B1 JUMPI POP PUSH1 0x1 PUSH1 0x1 PUSH1 0xA0 SHL SUB DUP3 AND PUSH1 0x0 SWAP1 DUP2 MSTORE PUSH1 0xE PUSH1 0x20 MSTORE PUSH1 0x40 SWAP1 KECCAK256 SLOAD PUSH1 0xFF AND JUMPDEST ISZERO PUSH3 0x52E JUMPI PUSH3 0x4C4 DUP4 DUP4 DUP4 PUSH3 0x898 JUMP JUMPDEST PUSH1 0x1 PUSH1 0x1 PUSH1 0xA0 SHL SUB DUP4 AND ISZERO DUP1 ISZERO SWAP1 PUSH3 0x4E5 JUMPI POP PUSH1 0x1 PUSH1 0x1 PUSH1 0xA0 SHL SUB DUP3 AND ISZERO ISZERO JUMPDEST ISZERO PUSH3 0x529 JUMPI DUP2 PUSH1 0x1 PUSH1 0x1 PUSH1 0xA0 SHL SUB AND DUP4 PUSH1 0x1 PUSH1 0x1 PUSH1 0xA0 SHL SUB AND PUSH1 0x0 DUP1 MLOAD PUSH1 0x20 PUSH3 0x362B DUP4 CODECOPY DUP2 MLOAD SWAP2 MSTORE DUP4 PUSH1 0x40 MLOAD PUSH3 0x520 SWAP2 DUP2 MSTORE PUSH1 0x20 ADD SWAP1 JUMP JUMPDEST PUSH1 0x40 MLOAD DUP1 SWAP2 SUB SWAP1 LOG3 JUMPDEST POP POP POP JUMP JUMPDEST PUSH1 0x1B SLOAD PUSH1 0xFF AND DUP1 ISZERO PUSH3 0x54A JUMPI POP PUSH1 0x1 PUSH1 0x1 PUSH1 0xA0 SHL SUB DUP4 AND ADDRESS EQ ISZERO JUMPDEST DUP1 ISZERO PUSH3 0x560 JUMPI POP PUSH1 0x1 PUSH1 0x1 PUSH1 0xA0 SHL SUB DUP3 AND ADDRESS EQ ISZERO JUMPDEST ISZERO PUSH3 0x612 JUMPI PUSH3 0x571 DUP2 PUSH3 0x8FD JUMP JUMPDEST PUSH1 0x19 SLOAD DUP2 PUSH3 0x595 DUP5 PUSH1 0x1 PUSH1 0x1 PUSH1 0xA0 SHL SUB AND PUSH1 0x0 SWAP1 DUP2 MSTORE PUSH1 0x20 DUP2 SWAP1 MSTORE PUSH1 0x40 SWAP1 KECCAK256 SLOAD SWAP1 JUMP JUMPDEST PUSH3 0x5A1 SWAP2 SWAP1 PUSH3 0xBA4 JUMP JUMPDEST GT ISZERO PUSH3 0x612 JUMPI PUSH1 0x1 PUSH1 0x1 PUSH1 0xA0 SHL SUB DUP3 AND PUSH1 0x0 SWAP1 DUP2 MSTORE PUSH1 0xE PUSH1 0x20 MSTORE PUSH1 0x40 SWAP1 KECCAK256 SLOAD PUSH1 0xFF AND PUSH3 0x612 JUMPI PUSH1 0x40 MLOAD PUSH3 0x461BCD PUSH1 0xE5 SHL DUP2 MSTORE PUSH1 0x20 PUSH1 0x4 DUP3 ADD MSTORE PUSH1 0x15 PUSH1 0x24 DUP3 ADD MSTORE PUSH32 0x57616C6C6574206C696D69742065786365656465640000000000000000000000 PUSH1 0x44 DUP3 ADD MSTORE PUSH1 0x64 ADD PUSH3 0xD2 JUMP JUMPDEST PUSH1 0x0 PUSH2 0x2710 PUSH1 0x7 SLOAD DUP4 PUSH3 0x627 SWAP2 SWAP1 PUSH3 0xBE3 JUMP JUMPDEST PUSH3 0x633 SWAP2 SWAP1 PUSH3 0xBC0 JUMP JUMPDEST SWAP1 POP PUSH1 0x0 PUSH1 0x7 SLOAD PUSH1 0x8 SLOAD DUP4 PUSH3 0x64A SWAP2 SWAP1 PUSH3 0xBE3 JUMP JUMPDEST PUSH3 0x656 SWAP2 SWAP1 PUSH3 0xBC0 JUMP JUMPDEST SWAP1 POP PUSH1 0x0 PUSH1 0x7 SLOAD PUSH1 0x9 SLOAD DUP5 PUSH3 0x66D SWAP2 SWAP1 PUSH3 0xBE3 JUMP JUMPDEST PUSH3 0x679 SWAP2 SWAP1 PUSH3 0xBC0 JUMP JUMPDEST SWAP1 POP PUSH1 0x0 DUP2 PUSH3 0x68A DUP5 DUP7 PUSH3 0xBFD JUMP JUMPDEST PUSH3 0x696 SWAP2 SWAP1 PUSH3 0xBFD JUMP JUMPDEST SWAP1 POP PUSH1 0x0 PUSH3 0x6A6 DUP6 DUP8 PUSH3 0xBFD JUMP JUMPDEST SWAP1 POP DUP4 ISZERO PUSH3 0x6C9 JUMPI PUSH1 0xC SLOAD PUSH3 0x6C9 SWAP1 DUP10 SWAP1 PUSH1 0x1 PUSH1 0x1 PUSH1 0xA0 SHL SUB AND DUP7 PUSH3 0x898 JUMP JUMPDEST DUP3 ISZERO PUSH3 0x6EA JUMPI PUSH1 0xD SLOAD PUSH3 0x6EA SWAP1 DUP10 SWAP1 PUSH1 0x1 PUSH1 0x1 PUSH1 0xA0 SHL SUB AND DUP6 PUSH3 0x898 JUMP JUMPDEST DUP2 ISZERO PUSH3 0x71A JUMPI PUSH3 0x6FD DUP9 DUP4 PUSH3 0x97D JUMP JUMPDEST DUP2 PUSH1 0x1F PUSH1 0x1 ADD PUSH1 0x0 DUP3 DUP3 SLOAD PUSH3 0x714 SWAP2 SWAP1 PUSH3 0xBA4 JUMP JUMPDEST SWAP1 SWAP2 SSTORE POP POP JUMPDEST PUSH3 0x727 DUP9 DUP9 DUP4 PUSH3 0x898 JUMP JUMPDEST DUP5 PUSH1 0x1F PUSH1 0x0 ADD PUSH1 0x0 DUP3 DUP3 SLOAD PUSH3 0x73E SWAP2 SWAP1 PUSH3 0xBA4 JUMP JUMPDEST SWAP1 SWAP2 SSTORE POP POP PUSH1 0x1 PUSH1 0x1 PUSH1 0xA0 SHL SUB DUP9 AND PUSH1 0x0 SWAP1 DUP2 MSTORE PUSH1 0x24 PUSH1 0x20 MSTORE PUSH1 0x40 DUP2 KECCAK256 DUP1 SLOAD DUP8 SWAP3 SWAP1 PUSH3 0x76D SWAP1 DUP5 SWAP1 PUSH3 0xBA4 JUMP JUMPDEST SWAP3 POP POP DUP2 SWAP1 SSTORE POP DUP7 PUSH1 0x1 PUSH1 0x1 PUSH1 0xA0 SHL SUB AND DUP9 PUSH1 0x1 PUSH1 0x1 PUSH1 0xA0 SHL SUB AND PUSH1 0x0 DUP1 MLOAD PUSH1 0x20 PUSH3 0x362B DUP4 CODECOPY DUP2 MLOAD SWAP2 MSTORE DUP4 PUSH1 0x40 MLOAD PUSH3 0x7A9 SWAP2 DUP2 MSTORE PUSH1 0x20 ADD SWAP1 JUMP JUMPDEST PUSH1 0x40 MLOAD DUP1 SWAP2 SUB SWAP1 LOG3 POP POP POP POP POP POP POP POP JUMP JUMPDEST PUSH3 0x7CF PUSH1 0x5 SLOAD PUSH1 0x1 PUSH1 0xA0 SHL SWAP1 DIV PUSH1 0xFF AND SWAP1 JUMP JUMPDEST ISZERO PUSH3 0x7EE JUMPI PUSH1 0x40 MLOAD PUSH4 0xD93C0665 PUSH1 0xE0 SHL DUP2 MSTORE PUSH1 0x4 ADD PUSH1 0x40 MLOAD DUP1 SWAP2 SUB SWAP1 REVERT JUMPDEST JUMP JUMPDEST PUSH1 0x23 DUP1 SLOAD SWAP1 PUSH1 0x0 PUSH3 0x802 DUP4 PUSH3 0xC13 JUMP JUMPDEST SWAP1 SWAP2 SSTORE POP POP PUSH1 0x1 PUSH1 0x1 PUSH1 0xA0 SHL SUB DUP4 AND PUSH1 0x0 SWAP1 DUP2 MSTORE PUSH1 0x24 PUSH1 0x20 MSTORE PUSH1 0x40 DUP2 KECCAK256 PUSH1 0x2 ADD DUP1 SLOAD SWAP2 PUSH3 0x830 DUP4 PUSH3 0xC13 JUMP JUMPDEST SWAP1 SWAP2 SSTORE POP POP PUSH1 0x1 PUSH1 0x1 PUSH1 0xA0 SHL SUB DUP3 AND PUSH1 0x0 SWAP1 DUP2 MSTORE PUSH1 0x24 PUSH1 0x20 MSTORE PUSH1 0x40 DUP2 KECCAK256 PUSH1 0x3 ADD SLOAD SWAP1 SUB PUSH3 0x88D JUMPI PUSH1 0x1 PUSH1 0x1 PUSH1 0xA0 SHL SUB DUP3 AND PUSH1 0x0 SWAP1 DUP2 MSTORE PUSH1 0x24 PUSH1 0x20 MSTORE PUSH1 0x40 DUP2 KECCAK256 TIMESTAMP PUSH1 0x3 SWAP1 SWAP2 ADD SSTORE PUSH1 0x22 DUP1 SLOAD SWAP2 PUSH3 0x887 DUP4 PUSH3 0xC13 JUMP JUMPDEST SWAP2 SWAP1 POP SSTORE POP JUMPDEST POP POP PUSH1 0x15 SLOAD PUSH1 0x21 SSTORE POP JUMP JUMPDEST PUSH1 0x1 PUSH1 0x1 PUSH1 0xA0 SHL SUB DUP4 AND PUSH3 0x8C4 JUMPI PUSH1 0x40 MLOAD PUSH4 0x4B637E8F PUSH1 0xE1 SHL DUP2 MSTORE PUSH1 0x0 PUSH1 0x4 DUP3 ADD MSTORE PUSH1 0x24 ADD PUSH3 0xD2 JUMP JUMPDEST PUSH1 0x1 PUSH1 0x1 PUSH1 0xA0 SHL SUB DUP3 AND PUSH3 0x8F0 JUMPI PUSH1 0x40 MLOAD PUSH4 0xEC442F05 PUSH1 0xE0 SHL DUP2 MSTORE PUSH1 0x0 PUSH1 0x4 DUP3 ADD MSTORE PUSH1 0x24 ADD PUSH3 0xD2 JUMP JUMPDEST PUSH3 0x529 DUP4 DUP4 DUP4 PUSH3 0x401 JUMP JUMPDEST PUSH1 0x1B SLOAD PUSH1 0xFF AND DUP1 ISZERO PUSH3 0x920 JUMPI POP CALLER PUSH1 0x0 SWAP1 DUP2 MSTORE PUSH1 0xE PUSH1 0x20 MSTORE PUSH1 0x40 SWAP1 KECCAK256 SLOAD PUSH1 0xFF AND ISZERO JUMPDEST ISZERO PUSH3 0x97A JUMPI PUSH1 0x18 SLOAD DUP2 GT ISZERO PUSH3 0x97A JUMPI PUSH1 0x40 MLOAD PUSH3 0x461BCD PUSH1 0xE5 SHL DUP2 MSTORE PUSH1 0x20 PUSH1 0x4 DUP3 ADD DUP2 SWAP1 MSTORE PUSH1 0x24 DUP3 ADD MSTORE PUSH32 0x5472616E73616374696F6E20616D6F756E742065786365656473206C696D6974 PUSH1 0x44 DUP3 ADD MSTORE PUSH1 0x64 ADD PUSH3 0xD2 JUMP JUMPDEST POP JUMP JUMPDEST PUSH1 0x1 PUSH1 0x1 PUSH1 0xA0 SHL SUB DUP3 AND PUSH3 0x9A9 JUMPI PUSH1 0x40 MLOAD PUSH4 0x4B637E8F PUSH1 0xE1 SHL DUP2 MSTORE PUSH1 0x0 PUSH1 0x4 DUP3 ADD MSTORE PUSH1 0x24 ADD PUSH3 0xD2 JUMP JUMPDEST PUSH3 0x3FD DUP3 PUSH1 0x0 DUP4 PUSH3 0x401 JUMP JUMPDEST DUP1 MLOAD PUSH1 0x1 PUSH1 0x1 PUSH1 0xA0 SHL SUB DUP2 AND DUP2 EQ PUSH3 0x9CF JUMPI PUSH1 0x0 DUP1 REVERT JUMPDEST SWAP2 SWAP1 POP JUMP JUMPDEST PUSH1 0x0 DUP1 PUSH1 0x0 PUSH1 0x60 DUP5 DUP7 SUB SLT ISZERO PUSH3 0x9EA JUMPI PUSH1 0x0 DUP1 REVERT JUMPDEST PUSH3 0x9F5 DUP5 PUSH3 0x9B7 JUMP JUMPDEST SWAP3 POP PUSH3 0xA05 PUSH1 0x20 DUP6 ADD PUSH3 0x9B7 JUMP JUMPDEST SWAP2 POP PUSH3 0xA15 PUSH1 0x40 DUP6 ADD PUSH3 0x9B7 JUMP JUMPDEST SWAP1 POP SWAP3 POP SWAP3 POP SWAP3 JUMP JUMPDEST PUSH4 0x4E487B71 PUSH1 0xE0 SHL PUSH1 0x0 MSTORE PUSH1 0x41 PUSH1 0x4 MSTORE PUSH1 0x24 PUSH1 0x0 REVERT JUMPDEST PUSH1 0x1 DUP2 DUP2 SHR SWAP1 DUP3 AND DUP1 PUSH3 0xA49 JUMPI PUSH1 0x7F DUP3 AND SWAP2 POP JUMPDEST PUSH1 0x20 DUP3 LT DUP2 SUB PUSH3 0xA6A JUMPI PUSH4 0x4E487B71 PUSH1 0xE0 SHL PUSH1 0x0 MSTORE PUSH1 0x22 PUSH1 0x4 MSTORE PUSH1 0x24 PUSH1 0x0 REVERT JUMPDEST POP SWAP2 SWAP1 POP JUMP JUMPDEST PUSH1 0x1F DUP3 GT ISZERO PUSH3 0x529 JUMPI PUSH1 0x0 DUP2 DUP2 MSTORE PUSH1 0x20 DUP2 KECCAK256 PUSH1 0x1F DUP6 ADD PUSH1 0x5 SHR DUP2 ADD PUSH1 0x20 DUP7 LT ISZERO PUSH3 0xA99 JUMPI POP DUP1 JUMPDEST PUSH1 0x1F DUP6 ADD PUSH1 0x5 SHR DUP3 ADD SWAP2 POP JUMPDEST DUP2 DUP2 LT ISZERO PUSH3 0xABA JUMPI DUP3 DUP2 SSTORE PUSH1 0x1 ADD PUSH3 0xAA5 JUMP JUMPDEST POP POP POP POP POP POP JUMP JUMPDEST DUP2 MLOAD PUSH1 0x1 PUSH1 0x1 PUSH1 0x40 SHL SUB DUP2 GT ISZERO PUSH3 0xADE JUMPI PUSH3 0xADE PUSH3 0xA1E JUMP JUMPDEST PUSH3 0xAF6 DUP2 PUSH3 0xAEF DUP5 SLOAD PUSH3 0xA34 JUMP JUMPDEST DUP5 PUSH3 0xA70 JUMP JUMPDEST PUSH1 0x20 DUP1 PUSH1 0x1F DUP4 GT PUSH1 0x1 DUP2 EQ PUSH3 0xB2E JUMPI PUSH1 0x0 DUP5 ISZERO PUSH3 0xB15 JUMPI POP DUP6 DUP4 ADD MLOAD JUMPDEST PUSH1 0x0 NOT PUSH1 0x3 DUP7 SWAP1 SHL SHR NOT AND PUSH1 0x1 DUP6 SWAP1 SHL OR DUP6 SSTORE PUSH3 0xABA JUMP JUMPDEST PUSH1 0x0 DUP6 DUP2 MSTORE PUSH1 0x20 DUP2 KECCAK256 PUSH1 0x1F NOT DUP7 AND SWAP2 JUMPDEST DUP3 DUP2 LT ISZERO PUSH3 0xB5F JUMPI DUP9 DUP7 ADD MLOAD DUP3 SSTORE SWAP5 DUP5 ADD SWAP5 PUSH1 0x1 SWAP1 SWAP2 ADD SWAP1 DUP5 ADD PUSH3 0xB3E JUMP JUMPDEST POP DUP6 DUP3 LT ISZERO PUSH3 0xB7E JUMPI DUP8 DUP6 ADD MLOAD PUSH1 0x0 NOT PUSH1 0x3 DUP9 SWAP1 SHL PUSH1 0xF8 AND SHR NOT AND DUP2 SSTORE JUMPDEST POP POP POP POP POP PUSH1 0x1 SWAP1 DUP2 SHL ADD SWAP1 SSTORE POP JUMP JUMPDEST PUSH4 0x4E487B71 PUSH1 0xE0 SHL PUSH1 0x0 MSTORE PUSH1 0x11 PUSH1 0x4 MSTORE PUSH1 0x24 PUSH1 0x0 REVERT JUMPDEST DUP1 DUP3 ADD DUP1 DUP3 GT ISZERO PUSH3 0xBBA JUMPI PUSH3 0xBBA PUSH3 0xB8E JUMP JUMPDEST SWAP3 SWAP2 POP POP JUMP JUMPDEST PUSH1 0x0 DUP3 PUSH3 0xBDE JUMPI PUSH4 0x4E487B71 PUSH1 0xE0 SHL PUSH1 0x0 MSTORE PUSH1 0x12 PUSH1 0x4 MSTORE PUSH1 0x24 PUSH1 0x0 REVERT JUMPDEST POP DIV SWAP1 JUMP JUMPDEST DUP1 DUP3 MUL DUP2 ISZERO DUP3 DUP3 DIV DUP5 EQ OR PUSH3 0xBBA JUMPI PUSH3 0xBBA PUSH3 0xB8E JUMP JUMPDEST DUP2 DUP2 SUB DUP2 DUP2 GT ISZERO PUSH3 0xBBA JUMPI PUSH3 0xBBA PUSH3 0xB8E JUMP JUMPDEST PUSH1 0x0 PUSH1 0x1 DUP3 ADD PUSH3 0xC28 JUMPI PUSH3 0xC28 PUSH3 0xB8E JUMP JUMPDEST POP PUSH1 0x1 ADD SWAP1 JUMP JUMPDEST PUSH2 0x29EC DUP1 PUSH3 0xC3F PUSH1 0x0 CODECOPY PUSH1 0x0 RETURN INVALID PUSH1 0x80 PUSH1 0x40 MSTORE CALLVALUE DUP1 ISZERO PUSH2 0x10 JUMPI PUSH1 0x0 DUP1 REVERT JUMPDEST POP PUSH1 0x4 CALLDATASIZE LT PUSH2 0x3A4 JUMPI PUSH1 0x0 CALLDATALOAD PUSH1 0xE0 SHR DUP1 PUSH4 0x8893002F GT PUSH2 0x1E9 JUMPI DUP1 PUSH4 0xBB4D4436 GT PUSH2 0x10F JUMPI DUP1 PUSH4 0xDD62ED3E GT PUSH2 0xAD JUMPI DUP1 PUSH4 0xF2FDE38B GT PUSH2 0x7C JUMPI DUP1 PUSH4 0xF2FDE38B EQ PUSH2 0x8A5 JUMPI DUP1 PUSH4 0xF6141345 EQ PUSH2 0x8B8 JUMPI DUP1 PUSH4 0xFE0D94C1 EQ PUSH2 0x8C1 JUMPI DUP1 PUSH4 0xFEB61724 EQ PUSH2 0x8D4 JUMPI PUSH1 0x0 DUP1 REVERT JUMPDEST DUP1 PUSH4 0xDD62ED3E EQ PUSH2 0x81F JUMPI DUP1 PUSH4 0xE37C3A55 EQ PUSH2 0x858 JUMPI DUP1 PUSH4 0xEE8A7C15 EQ PUSH2 0x862 JUMPI DUP1 PUSH4 0xF270FDE4 EQ PUSH2 0x86A JUMPI PUSH1 0x0 DUP1 REVERT JUMPDEST DUP1 PUSH4 0xC9D27AFE GT PUSH2 0xE9 JUMPI DUP1 PUSH4 0xC9D27AFE EQ PUSH2 0x7B8 JUMPI DUP1 PUSH4 0xCEB88A16 EQ PUSH2 0x7CB JUMPI DUP1 PUSH4 0xD90125A5 EQ PUSH2 0x7EB JUMPI DUP1 PUSH4 0xDA35C664 EQ PUSH2 0x816 JUMPI PUSH1 0x0 DUP1 REVERT JUMPDEST DUP1 PUSH4 0xBB4D4436 EQ PUSH2 0x788 JUMPI DUP1 PUSH4 0xBE8A361F EQ PUSH2 0x79B JUMPI DUP1 PUSH4 0xC34C08E5 EQ PUSH2 0x7A5 JUMPI PUSH1 0x0 DUP1 REVERT JUMPDEST DUP1 PUSH4 0xA6C26603 GT PUSH2 0x187 JUMPI DUP1 PUSH4 0xB1610D7E GT PUSH2 0x156 JUMPI DUP1 PUSH4 0xB1610D7E EQ PUSH2 0x71B JUMPI DUP1 PUSH4 0xB5D5B5FA EQ PUSH2 0x725 JUMPI DUP1 PUSH4 0xB95FFBCE EQ PUSH2 0x762 JUMPI DUP1 PUSH4 0xBA8E568F EQ PUSH2 0x775 JUMPI PUSH1 0x0 DUP1 REVERT JUMPDEST DUP1 PUSH4 0xA6C26603 EQ PUSH2 0x6A2 JUMPI DUP1 PUSH4 0xA9059CBB EQ PUSH2 0x6B3 JUMPI DUP1 PUSH4 0xAD1CECB2 EQ PUSH2 0x6C6 JUMPI DUP1 PUSH4 0xB0DFD2E6 EQ PUSH2 0x6D9 JUMPI PUSH1 0x0 DUP1 REVERT JUMPDEST DUP1 PUSH4 0x8EBFC796 GT PUSH2 0x1C3 JUMPI DUP1 PUSH4 0x8EBFC796 EQ PUSH2 0x65F JUMPI DUP1 PUSH4 0x902D55A5 EQ PUSH2 0x672 JUMPI DUP1 PUSH4 0x95D89B41 EQ PUSH2 0x687 JUMPI DUP1 PUSH4 0xA23D3C35 EQ PUSH2 0x68F JUMPI PUSH1 0x0 DUP1 REVERT JUMPDEST DUP1 PUSH4 0x8893002F EQ PUSH2 0x5E6 JUMPI DUP1 PUSH4 0x8A65D874 EQ PUSH2 0x5F9 JUMPI DUP1 PUSH4 0x8DA5CB5B EQ PUSH2 0x64E JUMPI PUSH1 0x0 DUP1 REVERT JUMPDEST DUP1 PUSH4 0x4A4E3BD5 GT PUSH2 0x2CE JUMPI DUP1 PUSH4 0x69505688 GT PUSH2 0x26C JUMPI DUP1 PUSH4 0x7C6E5DB7 GT PUSH2 0x23B JUMPI DUP1 PUSH4 0x7C6E5DB7 EQ PUSH2 0x5A9 JUMPI DUP1 PUSH4 0x817B1CD2 EQ PUSH2 0x5B3 JUMPI DUP1 PUSH4 0x82865218 EQ PUSH2 0x5BC JUMPI DUP1 PUSH4 0x875BB4E2 EQ PUSH2 0x5C6 JUMPI PUSH1 0x0 DUP1 REVERT JUMPDEST DUP1 PUSH4 0x69505688 EQ PUSH2 0x57D JUMPI DUP1 PUSH4 0x70A08231 EQ PUSH2 0x586 JUMPI DUP1 PUSH4 0x715018A6 EQ PUSH2 0x599 JUMPI DUP1 PUSH4 0x7C4CCBEA EQ PUSH2 0x5A1 JUMPI PUSH1 0x0 DUP1 REVERT JUMPDEST DUP1 PUSH4 0x55EF9B5E GT PUSH2 0x2A8 JUMPI DUP1 PUSH4 0x55EF9B5E EQ PUSH2 0x52E JUMPI DUP1 PUSH4 0x5C975ABB EQ PUSH2 0x537 JUMPI DUP1 PUSH4 0x61D027B3 EQ PUSH2 0x549 JUMPI DUP1 PUSH4 0x66666AA9 EQ PUSH2 0x574 JUMPI PUSH1 0x0 DUP1 REVERT JUMPDEST DUP1 PUSH4 0x4A4E3BD5 EQ PUSH2 0x513 JUMPI DUP1 PUSH4 0x51383F98 EQ PUSH2 0x51B JUMPI DUP1 PUSH4 0x51858E27 EQ PUSH2 0x526 JUMPI PUSH1 0x0 DUP1 REVERT JUMPDEST DUP1 PUSH4 0x1C3C0EA8 GT PUSH2 0x346 JUMPI DUP1 PUSH4 0x37F135D7 GT PUSH2 0x315 JUMPI DUP1 PUSH4 0x37F135D7 EQ PUSH2 0x4A5 JUMPI DUP1 PUSH4 0x3F4218E0 EQ PUSH2 0x4AF JUMPI DUP1 PUSH4 0x42966C68 EQ PUSH2 0x4D2 JUMPI DUP1 PUSH4 0x43859632 EQ PUSH2 0x4E5 JUMPI PUSH1 0x0 DUP1 REVERT JUMPDEST DUP1 PUSH4 0x1C3C0EA8 EQ PUSH2 0x45B JUMPI DUP1 PUSH4 0x1F1F5BB3 EQ PUSH2 0x470 JUMPI DUP1 PUSH4 0x23B872DD EQ PUSH2 0x483 JUMPI DUP1 PUSH4 0x313CE567 EQ PUSH2 0x496 JUMPI PUSH1 0x0 DUP1 REVERT JUMPDEST DUP1 PUSH4 0x118725CE GT PUSH2 0x382 JUMPI DUP1 PUSH4 0x118725CE EQ PUSH2 0x413 JUMPI DUP1 PUSH4 0x120A8151 EQ PUSH2 0x42A JUMPI DUP1 PUSH4 0x17D63605 EQ PUSH2 0x433 JUMPI DUP1 PUSH4 0x18160DDD EQ PUSH2 0x453 JUMPI PUSH1 0x0 DUP1 REVERT JUMPDEST DUP1 PUSH4 0x13CF08B EQ PUSH2 0x3A9 JUMPI DUP1 PUSH4 0x6FDDE03 EQ PUSH2 0x3DB JUMPI DUP1 PUSH4 0x95EA7B3 EQ PUSH2 0x3F0 JUMPI JUMPDEST PUSH1 0x0 DUP1 REVERT JUMPDEST PUSH2 0x3BC PUSH2 0x3B7 CALLDATASIZE PUSH1 0x4 PUSH2 0x2376 JUMP JUMPDEST PUSH2 0x8F7 JUMP JUMPDEST PUSH1 0x40 MLOAD PUSH2 0x3D2 SWAP11 SWAP10 SWAP9 SWAP8 SWAP7 SWAP6 SWAP5 SWAP4 SWAP3 SWAP2 SWAP1 PUSH2 0x23EB JUMP JUMPDEST PUSH1 0x40 MLOAD DUP1 SWAP2 SUB SWAP1 RETURN JUMPDEST PUSH2 0x3E3 PUSH2 0xA6C JUMP JUMPDEST PUSH1 0x40 MLOAD PUSH2 0x3D2 SWAP2 SWAP1 PUSH2 0x2481 JUMP JUMPDEST PUSH2 0x403 PUSH2 0x3FE CALLDATASIZE PUSH1 0x4 PUSH2 0x24B0 JUMP JUMPDEST PUSH2 0xAFE JUMP JUMPDEST PUSH1 0x40 MLOAD SWAP1 ISZERO ISZERO DUP2 MSTORE PUSH1 0x20 ADD PUSH2 0x3D2 JUMP JUMPDEST PUSH2 0x41C PUSH1 0x9 SLOAD DUP2 JUMP JUMPDEST PUSH1 0x40 MLOAD SWAP1 DUP2 MSTORE PUSH1 0x20 ADD PUSH2 0x3D2 JUMP JUMPDEST PUSH2 0x41C PUSH1 0xA SLOAD DUP2 JUMP JUMPDEST PUSH2 0x41C PUSH2 0x441 CALLDATASIZE PUSH1 0x4 PUSH2 0x24DC JUMP JUMPDEST PUSH1 0x1E PUSH1 0x20 MSTORE PUSH1 0x0 SWAP1 DUP2 MSTORE PUSH1 0x40 SWAP1 KECCAK256 SLOAD DUP2 JUMP JUMPDEST PUSH1 0x2 SLOAD PUSH2 0x41C JUMP JUMPDEST PUSH2 0x46E PUSH2 0x469 CALLDATASIZE PUSH1 0x4 PUSH2 0x24DC JUMP JUMPDEST PUSH2 0xB18 JUMP JUMPDEST STOP JUMPDEST PUSH2 0x46E PUSH2 0x47E CALLDATASIZE PUSH1 0x4 PUSH2 0x2376 JUMP JUMPDEST PUSH2 0xB42 JUMP JUMPDEST PUSH2 0x403 PUSH2 0x491 CALLDATASIZE PUSH1 0x4 PUSH2 0x24F9 JUMP JUMPDEST PUSH2 0xC3F JUMP JUMPDEST PUSH1 0x40 MLOAD PUSH1 0x12 DUP2 MSTORE PUSH1 0x20 ADD PUSH2 0x3D2 JUMP JUMPDEST PUSH2 0x41C PUSH3 0x2A300 DUP2 JUMP JUMPDEST PUSH2 0x403 PUSH2 0x4BD CALLDATASIZE PUSH1 0x4 PUSH2 0x24DC JUMP JUMPDEST PUSH1 0xE PUSH1 0x20 MSTORE PUSH1 0x0 SWAP1 DUP2 MSTORE PUSH1 0x40 SWAP1 KECCAK256 SLOAD PUSH1 0xFF AND DUP2 JUMP JUMPDEST PUSH2 0x46E PUSH2 0x4E0 CALLDATASIZE PUSH1 0x4 PUSH2 0x2376 JUMP JUMPDEST PUSH2 0xC63 JUMP JUMPDEST PUSH2 0x403 PUSH2 0x4F3 CALLDATASIZE PUSH1 0x4 PUSH2 0x253A JUMP JUMPDEST PUSH1 0x12 PUSH1 0x20 SWAP1 DUP2 MSTORE PUSH1 0x0 SWAP3 DUP4 MSTORE PUSH1 0x40 DUP1 DUP5 KECCAK256 SWAP1 SWAP2 MSTORE SWAP1 DUP3 MSTORE SWAP1 KECCAK256 SLOAD PUSH1 0xFF AND DUP2 JUMP JUMPDEST PUSH2 0x46E PUSH2 0xC8A JUMP JUMPDEST PUSH2 0x41C PUSH4 0x1E13380 DUP2 JUMP JUMPDEST PUSH2 0x46E PUSH2 0xCF0 JUMP JUMPDEST PUSH2 0x41C PUSH1 0x8 SLOAD DUP2 JUMP JUMPDEST PUSH1 0x5 SLOAD PUSH1 0x1 PUSH1 0xA0 SHL SWAP1 DIV PUSH1 0xFF AND PUSH2 0x403 JUMP JUMPDEST PUSH1 0xC SLOAD PUSH2 0x55C SWAP1 PUSH1 0x1 PUSH1 0x1 PUSH1 0xA0 SHL SUB AND DUP2 JUMP JUMPDEST PUSH1 0x40 MLOAD PUSH1 0x1 PUSH1 0x1 PUSH1 0xA0 SHL SUB SWAP1 SWAP2 AND DUP2 MSTORE PUSH1 0x20 ADD PUSH2 0x3D2 JUMP JUMPDEST PUSH2 0x41C PUSH1 0x16 SLOAD DUP2 JUMP JUMPDEST PUSH2 0x41C PUSH1 0xB SLOAD DUP2 JUMP JUMPDEST PUSH2 0x41C PUSH2 0x594 CALLDATASIZE PUSH1 0x4 PUSH2 0x24DC JUMP JUMPDEST PUSH2 0xD4E JUMP JUMPDEST PUSH2 0x46E PUSH2 0xD69 JUMP JUMPDEST PUSH2 0x41C PUSH1 0xC8 DUP2 JUMP JUMPDEST PUSH2 0x41C PUSH3 0x278D00 DUP2 JUMP JUMPDEST PUSH2 0x41C PUSH1 0x15 SLOAD DUP2 JUMP JUMPDEST PUSH2 0x41C PUSH3 0xED4E00 DUP2 JUMP JUMPDEST PUSH2 0x41C PUSH2 0x5D4 CALLDATASIZE PUSH1 0x4 PUSH2 0x2376 JUMP JUMPDEST PUSH1 0x17 PUSH1 0x20 MSTORE PUSH1 0x0 SWAP1 DUP2 MSTORE PUSH1 0x40 SWAP1 KECCAK256 SLOAD DUP2 JUMP JUMPDEST PUSH2 0x403 PUSH2 0x5F4 CALLDATASIZE PUSH1 0x4 PUSH2 0x256A JUMP JUMPDEST PUSH2 0xD7D JUMP JUMPDEST PUSH2 0x62E PUSH2 0x607 CALLDATASIZE PUSH1 0x4 PUSH2 0x24DC JUMP JUMPDEST PUSH1 0x24 PUSH1 0x20 MSTORE PUSH1 0x0 SWAP1 DUP2 MSTORE PUSH1 0x40 SWAP1 KECCAK256 DUP1 SLOAD PUSH1 0x1 DUP3 ADD SLOAD PUSH1 0x2 DUP4 ADD SLOAD PUSH1 0x3 SWAP1 SWAP4 ADD SLOAD SWAP2 SWAP3 SWAP1 SWAP2 DUP5 JUMP JUMPDEST PUSH1 0x40 DUP1 MLOAD SWAP5 DUP6 MSTORE PUSH1 0x20 DUP6 ADD SWAP4 SWAP1 SWAP4 MSTORE SWAP2 DUP4 ADD MSTORE PUSH1 0x60 DUP3 ADD MSTORE PUSH1 0x80 ADD PUSH2 0x3D2 JUMP JUMPDEST PUSH1 0x5 SLOAD PUSH1 0x1 PUSH1 0x1 PUSH1 0xA0 SHL SUB AND PUSH2 0x55C JUMP JUMPDEST PUSH2 0x46E PUSH2 0x66D CALLDATASIZE PUSH1 0x4 PUSH2 0x25B4 JUMP JUMPDEST PUSH2 0xF26 JUMP JUMPDEST PUSH2 0x41C PUSH14 0x314DC6448D9338C15B0A00000000 DUP2 JUMP JUMPDEST PUSH2 0x3E3 PUSH2 0xF8D JUMP JUMPDEST PUSH1 0xD SLOAD PUSH2 0x55C SWAP1 PUSH1 0x1 PUSH1 0x1 PUSH1 0xA0 SHL SUB AND DUP2 JUMP JUMPDEST PUSH2 0x41C PUSH10 0xD3C21BCECCEDA1000000 DUP2 JUMP JUMPDEST PUSH2 0x403 PUSH2 0x6C1 CALLDATASIZE PUSH1 0x4 PUSH2 0x24B0 JUMP JUMPDEST PUSH2 0xF9C JUMP JUMPDEST PUSH2 0x41C PUSH2 0x6D4 CALLDATASIZE PUSH1 0x4 PUSH2 0x2675 JUMP JUMPDEST PUSH2 0xFAA JUMP JUMPDEST PUSH1 0x1F SLOAD PUSH1 0x20 SLOAD PUSH1 0x21 SLOAD PUSH1 0x22 SLOAD PUSH1 0x23 SLOAD PUSH2 0x6F3 SWAP5 SWAP4 SWAP3 SWAP2 SWAP1 DUP6 JUMP JUMPDEST PUSH1 0x40 DUP1 MLOAD SWAP6 DUP7 MSTORE PUSH1 0x20 DUP7 ADD SWAP5 SWAP1 SWAP5 MSTORE SWAP3 DUP5 ADD SWAP2 SWAP1 SWAP2 MSTORE PUSH1 0x60 DUP4 ADD MSTORE PUSH1 0x80 DUP3 ADD MSTORE PUSH1 0xA0 ADD PUSH2 0x3D2 JUMP JUMPDEST PUSH2 0x41C PUSH3 0x93A80 DUP2 JUMP JUMPDEST PUSH2 0x738 PUSH2 0x733 CALLDATASIZE PUSH1 0x4 PUSH2 0x24B0 JUMP JUMPDEST PUSH2 0x11C7 JUMP JUMPDEST PUSH1 0x40 DUP1 MLOAD SWAP6 DUP7 MSTORE PUSH1 0x20 DUP7 ADD SWAP5 SWAP1 SWAP5 MSTORE SWAP3 DUP5 ADD SWAP2 SWAP1 SWAP2 MSTORE PUSH1 0x60 DUP4 ADD MSTORE ISZERO ISZERO PUSH1 0x80 DUP3 ADD MSTORE PUSH1 0xA0 ADD PUSH2 0x3D2 JUMP JUMPDEST PUSH2 0x46E PUSH2 0x770 CALLDATASIZE PUSH1 0x4 PUSH2 0x2376 JUMP JUMPDEST PUSH2 0x1218 JUMP JUMPDEST PUSH2 0x46E PUSH2 0x783 CALLDATASIZE PUSH1 0x4 PUSH2 0x271C JUMP JUMPDEST PUSH2 0x128C JUMP JUMPDEST PUSH2 0x41C PUSH2 0x796 CALLDATASIZE PUSH1 0x4 PUSH2 0x24DC JUMP JUMPDEST PUSH2 0x1358 JUMP JUMPDEST PUSH2 0x41C PUSH3 0x15180 DUP2 JUMP JUMPDEST PUSH1 0xF SLOAD PUSH2 0x55C SWAP1 PUSH1 0x1 PUSH1 0x1 PUSH1 0xA0 SHL SUB AND DUP2 JUMP JUMPDEST PUSH2 0x46E PUSH2 0x7C6 CALLDATASIZE PUSH1 0x4 PUSH2 0x2748 JUMP JUMPDEST PUSH2 0x1363 JUMP JUMPDEST PUSH2 0x41C PUSH2 0x7D9 CALLDATASIZE PUSH1 0x4 PUSH2 0x24DC JUMP JUMPDEST PUSH1 0x1C PUSH1 0x20 MSTORE PUSH1 0x0 SWAP1 DUP2 MSTORE PUSH1 0x40 SWAP1 KECCAK256 SLOAD DUP2 JUMP JUMPDEST PUSH2 0x41C PUSH2 0x7F9 CALLDATASIZE PUSH1 0x4 PUSH2 0x253A JUMP JUMPDEST PUSH1 0x13 PUSH1 0x20 SWAP1 DUP2 MSTORE PUSH1 0x0 SWAP3 DUP4 MSTORE PUSH1 0x40 DUP1 DUP5 KECCAK256 SWAP1 SWAP2 MSTORE SWAP1 DUP3 MSTORE SWAP1 KECCAK256 SLOAD DUP2 JUMP JUMPDEST PUSH2 0x41C PUSH1 0x10 SLOAD DUP2 JUMP JUMPDEST PUSH2 0x41C PUSH2 0x82D CALLDATASIZE PUSH1 0x4 PUSH2 0x276B JUMP JUMPDEST PUSH1 0x1 PUSH1 0x1 PUSH1 0xA0 SHL SUB SWAP2 DUP3 AND PUSH1 0x0 SWAP1 DUP2 MSTORE PUSH1 0x1 PUSH1 0x20 SWAP1 DUP2 MSTORE PUSH1 0x40 DUP1 DUP4 KECCAK256 SWAP4 SWAP1 SWAP5 AND DUP3 MSTORE SWAP2 SWAP1 SWAP2 MSTORE KECCAK256 SLOAD SWAP1 JUMP JUMPDEST PUSH2 0x41C PUSH3 0x76A700 DUP2 JUMP JUMPDEST PUSH2 0x41C PUSH1 0xA DUP2 JUMP JUMPDEST PUSH1 0x18 SLOAD PUSH1 0x19 SLOAD PUSH1 0x1A SLOAD PUSH1 0x1B SLOAD PUSH2 0x883 SWAP4 SWAP3 SWAP2 SWAP1 PUSH1 0xFF AND DUP5 JUMP JUMPDEST PUSH1 0x40 DUP1 MLOAD SWAP5 DUP6 MSTORE PUSH1 0x20 DUP6 ADD SWAP4 SWAP1 SWAP4 MSTORE SWAP2 DUP4 ADD MSTORE ISZERO ISZERO PUSH1 0x60 DUP3 ADD MSTORE PUSH1 0x80 ADD PUSH2 0x3D2 JUMP JUMPDEST PUSH2 0x46E PUSH2 0x8B3 CALLDATASIZE PUSH1 0x4 PUSH2 0x24DC JUMP JUMPDEST PUSH2 0x1583 JUMP JUMPDEST PUSH2 0x41C PUSH1 0x7 SLOAD DUP2 JUMP JUMPDEST PUSH2 0x46E PUSH2 0x8CF CALLDATASIZE PUSH1 0x4 PUSH2 0x2376 JUMP JUMPDEST PUSH2 0x15C1 JUMP JUMPDEST PUSH2 0x403 PUSH2 0x8E2 CALLDATASIZE PUSH1 0x4 PUSH2 0x2376 JUMP JUMPDEST PUSH1 0x1D PUSH1 0x20 MSTORE PUSH1 0x0 SWAP1 DUP2 MSTORE PUSH1 0x40 SWAP1 KECCAK256 SLOAD PUSH1 0xFF AND DUP2 JUMP JUMPDEST PUSH1 0x11 PUSH1 0x20 MSTORE PUSH1 0x0 SWAP1 DUP2 MSTORE PUSH1 0x40 SWAP1 KECCAK256 DUP1 SLOAD PUSH1 0x1 DUP3 ADD SLOAD PUSH1 0x2 DUP4 ADD DUP1 SLOAD SWAP3 SWAP4 PUSH1 0x1 PUSH1 0x1 PUSH1 0xA0 SHL SUB SWAP1 SWAP3 AND SWAP3 PUSH2 0x929 SWAP1 PUSH2 0x2799 JUMP JUMPDEST DUP1 PUSH1 0x1F ADD PUSH1 0x20 DUP1 SWAP2 DIV MUL PUSH1 0x20 ADD PUSH1 0x40 MLOAD SWAP1 DUP2 ADD PUSH1 0x40 MSTORE DUP1 SWAP3 SWAP2 SWAP1 DUP2 DUP2 MSTORE PUSH1 0x20 ADD DUP3 DUP1 SLOAD PUSH2 0x955 SWAP1 PUSH2 0x2799 JUMP JUMPDEST DUP1 ISZERO PUSH2 0x9A2 JUMPI DUP1 PUSH1 0x1F LT PUSH2 0x977 JUMPI PUSH2 0x100 DUP1 DUP4 SLOAD DIV MUL DUP4 MSTORE SWAP2 PUSH1 0x20 ADD SWAP2 PUSH2 0x9A2 JUMP JUMPDEST DUP3 ADD SWAP2 SWAP1 PUSH1 0x0 MSTORE PUSH1 0x20 PUSH1 0x0 KECCAK256 SWAP1 JUMPDEST DUP2 SLOAD DUP2 MSTORE SWAP1 PUSH1 0x1 ADD SWAP1 PUSH1 0x20 ADD DUP1 DUP4 GT PUSH2 0x985 JUMPI DUP3 SWAP1 SUB PUSH1 0x1F AND DUP3 ADD SWAP2 JUMPDEST POP POP POP PUSH1 0x3 DUP5 ADD SLOAD PUSH1 0x4 DUP6 ADD SLOAD PUSH1 0x5 DUP7 ADD SLOAD PUSH1 0x6 DUP8 ADD SLOAD PUSH1 0x7 DUP9 ADD SLOAD PUSH1 0x8 DUP10 ADD DUP1 SLOAD SWAP9 SWAP10 SWAP6 SWAP9 SWAP5 SWAP8 POP SWAP3 SWAP6 POP SWAP1 SWAP4 PUSH1 0xFF DUP1 DUP4 AND SWAP5 PUSH2 0x100 SWAP1 SWAP4 DIV AND SWAP3 SWAP1 SWAP2 PUSH2 0x9E9 SWAP1 PUSH2 0x2799 JUMP JUMPDEST DUP1 PUSH1 0x1F ADD PUSH1 0x20 DUP1 SWAP2 DIV MUL PUSH1 0x20 ADD PUSH1 0x40 MLOAD SWAP1 DUP2 ADD PUSH1 0x40 MSTORE DUP1 SWAP3 SWAP2 SWAP1 DUP2 DUP2 MSTORE PUSH1 0x20 ADD DUP3 DUP1 SLOAD PUSH2 0xA15 SWAP1 PUSH2 0x2799 JUMP JUMPDEST DUP1 ISZERO PUSH2 0xA62 JUMPI DUP1 PUSH1 0x1F LT PUSH2 0xA37 JUMPI PUSH2 0x100 DUP1 DUP4 SLOAD DIV MUL DUP4 MSTORE SWAP2 PUSH1 0x20 ADD SWAP2 PUSH2 0xA62 JUMP JUMPDEST DUP3 ADD SWAP2 SWAP1 PUSH1 0x0 MSTORE PUSH1 0x20 PUSH1 0x0 KECCAK256 SWAP1 JUMPDEST DUP2 SLOAD DUP2 MSTORE SWAP1 PUSH1 0x1 ADD SWAP1 PUSH1 0x20 ADD DUP1 DUP4 GT PUSH2 0xA45 JUMPI DUP3 SWAP1 SUB PUSH1 0x1F AND DUP3 ADD SWAP2 JUMPDEST POP POP POP POP POP SWAP1 POP DUP11 JUMP JUMPDEST PUSH1 0x60 PUSH1 0x3 DUP1 SLOAD PUSH2 0xA7B SWAP1 PUSH2 0x2799 JUMP JUMPDEST DUP1 PUSH1 0x1F ADD PUSH1 0x20 DUP1 SWAP2 DIV MUL PUSH1 0x20 ADD PUSH1 0x40 MLOAD SWAP1 DUP2 ADD PUSH1 0x40 MSTORE DUP1 SWAP3 SWAP2 SWAP1 DUP2 DUP2 MSTORE PUSH1 0x20 ADD DUP3 DUP1 SLOAD PUSH2 0xAA7 SWAP1 PUSH2 0x2799 JUMP JUMPDEST DUP1 ISZERO PUSH2 0xAF4 JUMPI DUP1 PUSH1 0x1F LT PUSH2 0xAC9 JUMPI PUSH2 0x100 DUP1 DUP4 SLOAD DIV MUL DUP4 MSTORE SWAP2 PUSH1 0x20 ADD SWAP2 PUSH2 0xAF4 JUMP JUMPDEST DUP3 ADD SWAP2 SWAP1 PUSH1 0x0 MSTORE PUSH1 0x20 PUSH1 0x0 KECCAK256 SWAP1 JUMPDEST DUP2 SLOAD DUP2 MSTORE SWAP1 PUSH1 0x1 ADD SWAP1 PUSH1 0x20 ADD DUP1 DUP4 GT PUSH2 0xAD7 JUMPI DUP3 SWAP1 SUB PUSH1 0x1F AND DUP3 ADD SWAP2 JUMPDEST POP POP POP POP POP SWAP1 POP SWAP1 JUMP JUMPDEST PUSH1 0x0 CALLER PUSH2 0xB0C DUP2 DUP6 DUP6 PUSH2 0x1A42 JUMP JUMPDEST PUSH1 0x1 SWAP2 POP POP JUMPDEST SWAP3 SWAP2 POP POP JUMP JUMPDEST PUSH2 0xB20 PUSH2 0x1A54 JUMP JUMPDEST PUSH1 0xF DUP1 SLOAD PUSH1 0x1 PUSH1 0x1 PUSH1 0xA0 SHL SUB NOT AND PUSH1 0x1 PUSH1 0x1 PUSH1 0xA0 SHL SUB SWAP3 SWAP1 SWAP3 AND SWAP2 SWAP1 SWAP2 OR SWAP1 SSTORE JUMP JUMPDEST PUSH2 0xB4A PUSH2 0x1A54 JUMP JUMPDEST PUSH1 0xC8 DUP2 GT ISZERO PUSH2 0xB96 JUMPI PUSH1 0x40 MLOAD PUSH3 0x461BCD PUSH1 0xE5 SHL DUP2 MSTORE PUSH1 0x20 PUSH1 0x4 DUP3 ADD MSTORE PUSH1 0x13 PUSH1 0x24 DUP3 ADD MSTORE PUSH19 0x4665652065786365656473206D6178696D756D PUSH1 0x68 SHL PUSH1 0x44 DUP3 ADD MSTORE PUSH1 0x64 ADD JUMPDEST PUSH1 0x40 MLOAD DUP1 SWAP2 SUB SWAP1 REVERT JUMPDEST PUSH3 0x15180 PUSH1 0xB SLOAD PUSH2 0xBA7 SWAP2 SWAP1 PUSH2 0x27E9 JUMP JUMPDEST TIMESTAMP LT ISZERO PUSH2 0xBF6 JUMPI PUSH1 0x40 MLOAD PUSH3 0x461BCD PUSH1 0xE5 SHL DUP2 MSTORE PUSH1 0x20 PUSH1 0x4 DUP3 ADD MSTORE PUSH1 0x17 PUSH1 0x24 DUP3 ADD MSTORE PUSH32 0x466565206368616E676520746F6F206672657175656E74000000000000000000 PUSH1 0x44 DUP3 ADD MSTORE PUSH1 0x64 ADD PUSH2 0xB8D JUMP JUMPDEST PUSH1 0x7 DUP1 SLOAD SWAP1 DUP3 SWAP1 SSTORE TIMESTAMP PUSH1 0xB SSTORE PUSH1 0x40 DUP1 MLOAD DUP3 DUP2 MSTORE PUSH1 0x20 DUP2 ADD DUP5 SWAP1 MSTORE PUSH32 0xCF4C3BA0667A6E28C2746A4EE8D23EFA18B2CA17591C2A22C36773A0232661D8 SWAP2 ADD PUSH1 0x40 MLOAD DUP1 SWAP2 SUB SWAP1 LOG1 POP POP JUMP JUMPDEST PUSH1 0x0 CALLER PUSH2 0xC4D DUP6 DUP3 DUP6 PUSH2 0x1A81 JUMP JUMPDEST PUSH2 0xC58 DUP6 DUP6 DUP6 PUSH2 0x1B00 JUMP JUMPDEST POP PUSH1 0x1 SWAP5 SWAP4 POP POP POP POP JUMP JUMPDEST PUSH2 0xC6D CALLER DUP3 PUSH2 0x1B5F JUMP JUMPDEST DUP1 PUSH1 0x1F PUSH1 0x1 ADD PUSH1 0x0 DUP3 DUP3 SLOAD PUSH2 0xC82 SWAP2 SWAP1 PUSH2 0x27E9 JUMP JUMPDEST SWAP1 SWAP2 SSTORE POP POP POP JUMP JUMPDEST PUSH2 0xC92 PUSH2 0x1A54 JUMP JUMPDEST PUSH2 0xC9A PUSH2 0x1B99 JUMP JUMPDEST PUSH1 0x40 DUP1 MLOAD DUP2 DUP2 MSTORE PUSH1 0x7 SWAP2 DUP2 ADD SWAP2 SWAP1 SWAP2 MSTORE PUSH7 0x554E5041555345 PUSH1 0xC8 SHL PUSH1 0x60 DUP3 ADD MSTORE CALLER PUSH1 0x20 DUP3 ADD MSTORE PUSH32 0x2A09E26EC96218A3A144DF2E04DE096B7F0410106A4CAFF3CDFA5D667E604F2A SWAP1 PUSH1 0x80 ADD JUMPDEST PUSH1 0x40 MLOAD DUP1 SWAP2 SUB SWAP1 LOG1 JUMP JUMPDEST PUSH2 0xCF8 PUSH2 0x1A54 JUMP JUMPDEST PUSH2 0xD00 PUSH2 0x1BE9 JUMP JUMPDEST PUSH1 0x40 DUP1 MLOAD DUP2 DUP2 MSTORE PUSH1 0x5 SWAP2 DUP2 ADD SWAP2 SWAP1 SWAP2 MSTORE PUSH5 0x5041555345 PUSH1 0xD8 SHL PUSH1 0x60 DUP3 ADD MSTORE CALLER PUSH1 0x20 DUP3 ADD MSTORE PUSH32 0x2A09E26EC96218A3A144DF2E04DE096B7F0410106A4CAFF3CDFA5D667E604F2A SWAP1 PUSH1 0x80 ADD PUSH2 0xCE6 JUMP JUMPDEST PUSH1 0x1 PUSH1 0x1 PUSH1 0xA0 SHL SUB AND PUSH1 0x0 SWAP1 DUP2 MSTORE PUSH1 0x20 DUP2 SWAP1 MSTORE PUSH1 0x40 SWAP1 KECCAK256 SLOAD SWAP1 JUMP JUMPDEST PUSH2 0xD71 PUSH2 0x1A54 JUMP JUMPDEST PUSH2 0xD7B PUSH1 0x0 PUSH2 0x1C2C JUMP JUMPDEST JUMP JUMPDEST PUSH1 0x1B SLOAD PUSH1 0x0 SWAP1 DUP3 SWAP1 PUSH1 0xFF AND ISZERO PUSH2 0xF12 JUMPI CALLER PUSH1 0x0 SWAP1 DUP2 MSTORE PUSH1 0x1C PUSH1 0x20 MSTORE PUSH1 0x40 SWAP1 KECCAK256 SLOAD NUMBER GT PUSH2 0xDE4 JUMPI PUSH1 0x40 MLOAD PUSH3 0x461BCD PUSH1 0xE5 SHL DUP2 MSTORE PUSH1 0x20 PUSH1 0x4 DUP3 ADD MSTORE PUSH1 0x16 PUSH1 0x24 DUP3 ADD MSTORE PUSH22 0x29B0B6B290313637B1B5903A3930B739B0B1BA34B7B7 PUSH1 0x51 SHL PUSH1 0x44 DUP3 ADD MSTORE PUSH1 0x64 ADD PUSH2 0xB8D JUMP JUMPDEST PUSH1 0x40 DUP1 MLOAD CALLER PUSH1 0x20 DUP1 DUP4 ADD SWAP2 SWAP1 SWAP2 MSTORE DUP2 DUP4 ADD DUP5 SWAP1 MSTORE DUP3 MLOAD DUP1 DUP4 SUB DUP5 ADD DUP2 MSTORE PUSH1 0x60 SWAP1 SWAP3 ADD DUP4 MSTORE DUP2 MLOAD SWAP2 DUP2 ADD SWAP2 SWAP1 SWAP2 KECCAK256 PUSH1 0x0 SWAP1 DUP2 MSTORE PUSH1 0x1D SWAP1 SWAP2 MSTORE KECCAK256 SLOAD PUSH1 0xFF AND ISZERO PUSH2 0xE5A JUMPI PUSH1 0x40 MLOAD PUSH3 0x461BCD PUSH1 0xE5 SHL DUP2 MSTORE PUSH1 0x20 PUSH1 0x4 DUP3 ADD MSTORE PUSH1 0xA PUSH1 0x24 DUP3 ADD MSTORE PUSH10 0x139BDB98D9481D5CD959 PUSH1 0xB2 SHL PUSH1 0x44 DUP3 ADD MSTORE PUSH1 0x64 ADD PUSH2 0xB8D JUMP JUMPDEST PUSH1 0x1A SLOAD CALLER PUSH1 0x0 SWAP1 DUP2 MSTORE PUSH1 0x1E PUSH1 0x20 MSTORE PUSH1 0x40 SWAP1 KECCAK256 SLOAD PUSH2 0xE77 SWAP2 SWAP1 PUSH2 0x27E9 JUMP JUMPDEST TIMESTAMP LT ISZERO PUSH2 0xEB9 JUMPI PUSH1 0x40 MLOAD PUSH3 0x461BCD PUSH1 0xE5 SHL DUP2 MSTORE PUSH1 0x20 PUSH1 0x4 DUP3 ADD MSTORE PUSH1 0x10 PUSH1 0x24 DUP3 ADD MSTORE PUSH16 0x10DBDBDB191BDDDB881B9BDD081B595D PUSH1 0x82 SHL PUSH1 0x44 DUP3 ADD MSTORE PUSH1 0x64 ADD PUSH2 0xB8D JUMP JUMPDEST CALLER PUSH1 0x0 DUP2 DUP2 MSTORE PUSH1 0x1C PUSH1 0x20 SWAP1 DUP2 MSTORE PUSH1 0x40 DUP1 DUP4 KECCAK256 NUMBER SWAP1 SSTORE DUP1 MLOAD DUP1 DUP4 ADD DUP6 SWAP1 MSTORE DUP1 DUP3 ADD DUP7 SWAP1 MSTORE DUP2 MLOAD DUP1 DUP3 SUB DUP4 ADD DUP2 MSTORE PUSH1 0x60 SWAP1 SWAP2 ADD DUP3 MSTORE DUP1 MLOAD SWAP1 DUP4 ADD KECCAK256 DUP4 MSTORE PUSH1 0x1D DUP3 MSTORE DUP1 DUP4 KECCAK256 DUP1 SLOAD PUSH1 0xFF NOT AND PUSH1 0x1 OR SWAP1 SSTORE SWAP3 DUP3 MSTORE PUSH1 0x1E SWAP1 MSTORE KECCAK256 TIMESTAMP SWAP1 SSTORE JUMPDEST PUSH2 0xF1B DUP5 PUSH2 0x1C7E JUMP JUMPDEST PUSH2 0xC58 CALLER DUP7 DUP7 PUSH2 0x1B00 JUMP JUMPDEST PUSH2 0xF2E PUSH2 0x1A54 JUMP JUMPDEST PUSH1 0x1 PUSH1 0x1 PUSH1 0xA0 SHL SUB DUP3 AND PUSH1 0x0 DUP2 DUP2 MSTORE PUSH1 0xE PUSH1 0x20 SWAP1 DUP2 MSTORE PUSH1 0x40 SWAP2 DUP3 SWAP1 KECCAK256 DUP1 SLOAD PUSH1 0xFF NOT AND DUP6 ISZERO ISZERO SWAP1 DUP2 OR SWAP1 SWAP2 SSTORE SWAP2 MLOAD SWAP2 DUP3 MSTORE PUSH32 0x210F2A4A589E25D95B24CBDB060D26AE79BBE123A564D0F973503D48BADD00CA SWAP2 ADD PUSH1 0x40 MLOAD DUP1 SWAP2 SUB SWAP1 LOG2 POP POP JUMP JUMPDEST PUSH1 0x60 PUSH1 0x4 DUP1 SLOAD PUSH2 0xA7B SWAP1 PUSH2 0x2799 JUMP JUMPDEST PUSH1 0x0 CALLER PUSH2 0xB0C DUP2 DUP6 DUP6 PUSH2 0x1B00 JUMP JUMPDEST PUSH1 0x0 PUSH10 0xD3C21BCECCEDA1000000 PUSH2 0xFC0 CALLER PUSH2 0xD4E JUMP JUMPDEST LT ISZERO PUSH2 0x1018 JUMPI PUSH1 0x40 MLOAD PUSH3 0x461BCD PUSH1 0xE5 SHL DUP2 MSTORE PUSH1 0x20 PUSH1 0x4 DUP3 ADD MSTORE PUSH1 0x21 PUSH1 0x24 DUP3 ADD MSTORE PUSH32 0x496E73756666696369656E742062616C616E636520666F722070726F706F7361 PUSH1 0x44 DUP3 ADD MSTORE PUSH1 0x1B PUSH1 0xFA SHL PUSH1 0x64 DUP3 ADD MSTORE PUSH1 0x84 ADD PUSH2 0xB8D JUMP JUMPDEST PUSH1 0x10 DUP1 SLOAD PUSH1 0x0 SWAP2 DUP3 PUSH2 0x1029 DUP4 PUSH2 0x27FC JUMP JUMPDEST SWAP2 SWAP1 POP SSTORE SWAP1 POP PUSH1 0x40 MLOAD DUP1 PUSH2 0x140 ADD PUSH1 0x40 MSTORE DUP1 DUP3 DUP2 MSTORE PUSH1 0x20 ADD CALLER PUSH1 0x1 PUSH1 0x1 PUSH1 0xA0 SHL SUB AND DUP2 MSTORE PUSH1 0x20 ADD DUP7 DUP2 MSTORE PUSH1 0x20 ADD PUSH1 0x0 DUP2 MSTORE PUSH1 0x20 ADD PUSH1 0x0 DUP2 MSTORE PUSH1 0x20 ADD TIMESTAMP DUP2 MSTORE PUSH1 0x20 ADD PUSH3 0x93A80 TIMESTAMP PUSH2 0x1079 SWAP2 SWAP1 PUSH2 0x27E9 JUMP JUMPDEST DUP2 MSTORE PUSH1 0x0 PUSH1 0x20 DUP3 ADD MSTORE PUSH1 0x40 ADD DUP6 PUSH1 0x3 DUP2 GT ISZERO PUSH2 0x1097 JUMPI PUSH2 0x1097 PUSH2 0x23D5 JUMP JUMPDEST DUP2 MSTORE PUSH1 0x20 SWAP1 DUP2 ADD DUP6 SWAP1 MSTORE PUSH1 0x0 DUP4 DUP2 MSTORE PUSH1 0x11 DUP3 MSTORE PUSH1 0x40 SWAP1 DUP2 SWAP1 KECCAK256 DUP4 MLOAD DUP2 SSTORE SWAP2 DUP4 ADD MLOAD PUSH1 0x1 DUP4 ADD DUP1 SLOAD PUSH1 0x1 PUSH1 0x1 PUSH1 0xA0 SHL SUB NOT AND PUSH1 0x1 PUSH1 0x1 PUSH1 0xA0 SHL SUB SWAP1 SWAP3 AND SWAP2 SWAP1 SWAP2 OR SWAP1 SSTORE DUP3 ADD MLOAD PUSH1 0x2 DUP3 ADD SWAP1 PUSH2 0x10EB SWAP1 DUP3 PUSH2 0x2863 JUMP JUMPDEST POP PUSH1 0x60 DUP3 ADD MLOAD DUP2 PUSH1 0x3 ADD SSTORE PUSH1 0x80 DUP3 ADD MLOAD DUP2 PUSH1 0x4 ADD SSTORE PUSH1 0xA0 DUP3 ADD MLOAD DUP2 PUSH1 0x5 ADD SSTORE PUSH1 0xC0 DUP3 ADD MLOAD DUP2 PUSH1 0x6 ADD SSTORE PUSH1 0xE0 DUP3 ADD MLOAD DUP2 PUSH1 0x7 ADD PUSH1 0x0 PUSH2 0x100 EXP DUP2 SLOAD DUP2 PUSH1 0xFF MUL NOT AND SWAP1 DUP4 ISZERO ISZERO MUL OR SWAP1 SSTORE POP PUSH2 0x100 DUP3 ADD MLOAD DUP2 PUSH1 0x7 ADD PUSH1 0x1 PUSH2 0x100 EXP DUP2 SLOAD DUP2 PUSH1 0xFF MUL NOT AND SWAP1 DUP4 PUSH1 0x3 DUP2 GT ISZERO PUSH2 0x115F JUMPI PUSH2 0x115F PUSH2 0x23D5 JUMP JUMPDEST MUL OR SWAP1 SSTORE POP PUSH2 0x120 DUP3 ADD MLOAD PUSH1 0x8 DUP3 ADD SWAP1 PUSH2 0x1179 SWAP1 DUP3 PUSH2 0x2863 JUMP JUMPDEST POP SWAP1 POP POP CALLER PUSH1 0x1 PUSH1 0x1 PUSH1 0xA0 SHL SUB AND DUP2 PUSH32 0x7585F467599D0F008985F231AF99293BE388626AC16CA59505C2F8F88969CD63 DUP8 PUSH1 0x40 MLOAD PUSH2 0x11B7 SWAP2 SWAP1 PUSH2 0x2481 JUMP JUMPDEST PUSH1 0x40 MLOAD DUP1 SWAP2 SUB SWAP1 LOG3 SWAP5 SWAP4 POP POP POP POP JUMP JUMPDEST PUSH1 0x14 PUSH1 0x20 MSTORE DUP2 PUSH1 0x0 MSTORE PUSH1 0x40 PUSH1 0x0 KECCAK256 DUP2 DUP2 SLOAD DUP2 LT PUSH2 0x11E3 JUMPI PUSH1 0x0 DUP1 REVERT JUMPDEST PUSH1 0x0 SWAP2 DUP3 MSTORE PUSH1 0x20 SWAP1 SWAP2 KECCAK256 PUSH1 0x5 SWAP1 SWAP2 MUL ADD DUP1 SLOAD PUSH1 0x1 DUP3 ADD SLOAD PUSH1 0x2 DUP4 ADD SLOAD PUSH1 0x3 DUP5 ADD SLOAD PUSH1 0x4 SWAP1 SWAP5 ADD SLOAD SWAP3 SWAP6 POP SWAP1 SWAP4 POP SWAP2 SWAP1 PUSH1 0xFF AND DUP6 JUMP JUMPDEST PUSH2 0x1220 PUSH2 0x1A54 JUMP JUMPDEST DUP1 PUSH2 0x122A CALLER PUSH2 0xD4E JUMP JUMPDEST LT ISZERO PUSH2 0x126F JUMPI PUSH1 0x40 MLOAD PUSH3 0x461BCD PUSH1 0xE5 SHL DUP2 MSTORE PUSH1 0x20 PUSH1 0x4 DUP3 ADD MSTORE PUSH1 0x14 PUSH1 0x24 DUP3 ADD MSTORE PUSH20 0x496E73756666696369656E742062616C616E6365 PUSH1 0x60 SHL PUSH1 0x44 DUP3 ADD MSTORE PUSH1 0x64 ADD PUSH2 0xB8D JUMP JUMPDEST PUSH2 0x127A CALLER ADDRESS DUP4 PUSH2 0x1B00 JUMP JUMPDEST DUP1 PUSH1 0x16 PUSH1 0x0 DUP3 DUP3 SLOAD PUSH2 0xC82 SWAP2 SWAP1 PUSH2 0x27E9 JUMP JUMPDEST PUSH2 0x1294 PUSH2 0x1A54 JUMP JUMPDEST PUSH1 0x7 SLOAD DUP2 PUSH2 0x12A2 DUP5 DUP7 PUSH2 0x27E9 JUMP JUMPDEST PUSH2 0x12AC SWAP2 SWAP1 PUSH2 0x27E9 JUMP JUMPDEST EQ PUSH2 0x1303 JUMPI PUSH1 0x40 MLOAD PUSH3 0x461BCD PUSH1 0xE5 SHL DUP2 MSTORE PUSH1 0x20 PUSH1 0x4 DUP3 ADD MSTORE PUSH1 0x21 PUSH1 0x24 DUP3 ADD MSTORE PUSH32 0x446973747269627574696F6E206D75737420657175616C20746F74616C206665 PUSH1 0x44 DUP3 ADD MSTORE PUSH1 0x65 PUSH1 0xF8 SHL PUSH1 0x64 DUP3 ADD MSTORE PUSH1 0x84 ADD PUSH2 0xB8D JUMP JUMPDEST PUSH1 0x8 DUP4 SWAP1 SSTORE PUSH1 0x9 DUP3 SWAP1 SSTORE PUSH1 0xA DUP2 SWAP1 SSTORE PUSH1 0x40 DUP1 MLOAD DUP5 DUP2 MSTORE PUSH1 0x20 DUP2 ADD DUP5 SWAP1 MSTORE SWAP1 DUP2 ADD DUP3 SWAP1 MSTORE PUSH32 0x69FC4C7BA13251E049284D74AF6F22B2804DB0152DEB918F6CF17451917FE97F SWAP1 PUSH1 0x60 ADD PUSH1 0x40 MLOAD DUP1 SWAP2 SUB SWAP1 LOG1 POP POP POP JUMP JUMPDEST PUSH1 0x0 PUSH2 0xB12 DUP3 PUSH2 0xD4E JUMP JUMPDEST PUSH1 0x10 SLOAD DUP3 LT PUSH2 0x13AA JUMPI PUSH1 0x40 MLOAD PUSH3 0x461BCD PUSH1 0xE5 SHL DUP2 MSTORE PUSH1 0x20 PUSH1 0x4 DUP3 ADD MSTORE PUSH1 0x13 PUSH1 0x24 DUP3 ADD MSTORE PUSH19 0x125B9D985B1A59081C1C9BDC1BDCD85B081251 PUSH1 0x6A SHL PUSH1 0x44 DUP3 ADD MSTORE PUSH1 0x64 ADD PUSH2 0xB8D JUMP JUMPDEST PUSH1 0x0 DUP3 DUP2 MSTORE PUSH1 0x12 PUSH1 0x20 SWAP1 DUP2 MSTORE PUSH1 0x40 DUP1 DUP4 KECCAK256 CALLER DUP5 MSTORE SWAP1 SWAP2 MSTORE SWAP1 KECCAK256 SLOAD PUSH1 0xFF AND ISZERO PUSH2 0x1404 JUMPI PUSH1 0x40 MLOAD PUSH3 0x461BCD PUSH1 0xE5 SHL DUP2 MSTORE PUSH1 0x20 PUSH1 0x4 DUP3 ADD MSTORE PUSH1 0xD PUSH1 0x24 DUP3 ADD MSTORE PUSH13 0x105B1C9958591E481D9BDD1959 PUSH1 0x9A SHL PUSH1 0x44 DUP3 ADD MSTORE PUSH1 0x64 ADD PUSH2 0xB8D JUMP JUMPDEST PUSH1 0x0 DUP3 DUP2 MSTORE PUSH1 0x11 PUSH1 0x20 MSTORE PUSH1 0x40 SWAP1 KECCAK256 PUSH1 0x6 ADD SLOAD TIMESTAMP GT ISZERO PUSH2 0x145B JUMPI PUSH1 0x40 MLOAD PUSH3 0x461BCD PUSH1 0xE5 SHL DUP2 MSTORE PUSH1 0x20 PUSH1 0x4 DUP3 ADD MSTORE PUSH1 0x13 PUSH1 0x24 DUP3 ADD MSTORE PUSH19 0x159BDD1A5B99C81C195C9A5BD908195B991959 PUSH1 0x6A SHL PUSH1 0x44 DUP3 ADD MSTORE PUSH1 0x64 ADD PUSH2 0xB8D JUMP JUMPDEST PUSH1 0x0 PUSH2 0x1466 CALLER PUSH2 0xD4E JUMP JUMPDEST SWAP1 POP PUSH1 0x0 DUP2 GT PUSH2 0x14AA JUMPI PUSH1 0x40 MLOAD PUSH3 0x461BCD PUSH1 0xE5 SHL DUP2 MSTORE PUSH1 0x20 PUSH1 0x4 DUP3 ADD MSTORE PUSH1 0xF PUSH1 0x24 DUP3 ADD MSTORE PUSH15 0x2737903B37BA34B733903837BBB2B9 PUSH1 0x89 SHL PUSH1 0x44 DUP3 ADD MSTORE PUSH1 0x64 ADD PUSH2 0xB8D JUMP JUMPDEST PUSH1 0x0 DUP4 DUP2 MSTORE PUSH1 0x12 PUSH1 0x20 SWAP1 DUP2 MSTORE PUSH1 0x40 DUP1 DUP4 KECCAK256 CALLER DUP1 DUP6 MSTORE SWAP1 DUP4 MSTORE DUP2 DUP5 KECCAK256 DUP1 SLOAD PUSH1 0xFF NOT AND PUSH1 0x1 OR SWAP1 SSTORE DUP7 DUP5 MSTORE PUSH1 0x13 DUP4 MSTORE DUP2 DUP5 KECCAK256 SWAP1 DUP5 MSTORE SWAP1 SWAP2 MSTORE SWAP1 KECCAK256 DUP2 SWAP1 SSTORE DUP2 ISZERO PUSH2 0x1517 JUMPI PUSH1 0x0 DUP4 DUP2 MSTORE PUSH1 0x11 PUSH1 0x20 MSTORE PUSH1 0x40 DUP2 KECCAK256 PUSH1 0x3 ADD DUP1 SLOAD DUP4 SWAP3 SWAP1 PUSH2 0x150C SWAP1 DUP5 SWAP1 PUSH2 0x27E9 JUMP JUMPDEST SWAP1 SWAP2 SSTORE POP PUSH2 0x153E SWAP1 POP JUMP JUMPDEST PUSH1 0x0 DUP4 DUP2 MSTORE PUSH1 0x11 PUSH1 0x20 MSTORE PUSH1 0x40 DUP2 KECCAK256 PUSH1 0x4 ADD DUP1 SLOAD DUP4 SWAP3 SWAP1 PUSH2 0x1538 SWAP1 DUP5 SWAP1 PUSH2 0x27E9 JUMP JUMPDEST SWAP1 SWAP2 SSTORE POP POP JUMPDEST PUSH1 0x40 DUP1 MLOAD DUP4 ISZERO ISZERO DUP2 MSTORE PUSH1 0x20 DUP2 ADD DUP4 SWAP1 MSTORE CALLER SWAP2 DUP6 SWAP2 PUSH32 0xCBDF6214089CBA887ECBF35A0B6A734589959C9763342C756BB2A80CA2BC9F6E SWAP2 ADD JUMPDEST PUSH1 0x40 MLOAD DUP1 SWAP2 SUB SWAP1 LOG3 POP POP POP JUMP JUMPDEST PUSH2 0x158B PUSH2 0x1A54 JUMP JUMPDEST PUSH1 0x1 PUSH1 0x1 PUSH1 0xA0 SHL SUB DUP2 AND PUSH2 0x15B5 JUMPI PUSH1 0x40 MLOAD PUSH4 0x1E4FBDF7 PUSH1 0xE0 SHL DUP2 MSTORE PUSH1 0x0 PUSH1 0x4 DUP3 ADD MSTORE PUSH1 0x24 ADD PUSH2 0xB8D JUMP JUMPDEST PUSH2 0x15BE DUP2 PUSH2 0x1C2C JUMP JUMPDEST POP JUMP JUMPDEST PUSH1 0x10 SLOAD DUP2 LT PUSH2 0x1608 JUMPI PUSH1 0x40 MLOAD PUSH3 0x461BCD PUSH1 0xE5 SHL DUP2 MSTORE PUSH1 0x20 PUSH1 0x4 DUP3 ADD MSTORE PUSH1 0x13 PUSH1 0x24 DUP3 ADD MSTORE PUSH19 0x125B9D985B1A59081C1C9BDC1BDCD85B081251 PUSH1 0x6A SHL PUSH1 0x44 DUP3 ADD MSTORE PUSH1 0x64 ADD PUSH2 0xB8D JUMP JUMPDEST PUSH1 0xF SLOAD PUSH1 0x1 PUSH1 0x1 PUSH1 0xA0 SHL SUB AND CALLER EQ DUP1 PUSH2 0x162B JUMPI POP PUSH1 0x5 SLOAD PUSH1 0x1 PUSH1 0x1 PUSH1 0xA0 SHL SUB AND CALLER EQ JUMPDEST PUSH2 0x1677 JUMPI PUSH1 0x40 MLOAD PUSH3 0x461BCD PUSH1 0xE5 SHL DUP2 MSTORE PUSH1 0x20 PUSH1 0x4 DUP3 ADD MSTORE PUSH1 0x19 PUSH1 0x24 DUP3 ADD MSTORE PUSH32 0x4E6F7420617574686F72697A656420746F206578656375746500000000000000 PUSH1 0x44 DUP3 ADD MSTORE PUSH1 0x64 ADD PUSH2 0xB8D JUMP JUMPDEST PUSH1 0x0 DUP2 DUP2 MSTORE PUSH1 0x11 PUSH1 0x20 MSTORE PUSH1 0x40 SWAP1 KECCAK256 PUSH1 0x7 DUP2 ADD SLOAD PUSH1 0xFF AND ISZERO PUSH2 0x16CD JUMPI PUSH1 0x40 MLOAD PUSH3 0x461BCD PUSH1 0xE5 SHL DUP2 MSTORE PUSH1 0x20 PUSH1 0x4 DUP3 ADD MSTORE PUSH1 0x10 PUSH1 0x24 DUP3 ADD MSTORE PUSH16 0x105B1C9958591E48195E1958DD5D1959 PUSH1 0x82 SHL PUSH1 0x44 DUP3 ADD MSTORE PUSH1 0x64 ADD PUSH2 0xB8D JUMP JUMPDEST DUP1 PUSH1 0x6 ADD SLOAD TIMESTAMP GT PUSH2 0x1716 JUMPI PUSH1 0x40 MLOAD PUSH3 0x461BCD PUSH1 0xE5 SHL DUP2 MSTORE PUSH1 0x20 PUSH1 0x4 DUP3 ADD MSTORE PUSH1 0x13 PUSH1 0x24 DUP3 ADD MSTORE PUSH19 0x566F74696E67207374696C6C20616374697665 PUSH1 0x68 SHL PUSH1 0x44 DUP3 ADD MSTORE PUSH1 0x64 ADD PUSH2 0xB8D JUMP JUMPDEST PUSH3 0x2A300 DUP2 PUSH1 0x6 ADD SLOAD PUSH2 0x1729 SWAP2 SWAP1 PUSH2 0x27E9 JUMP JUMPDEST TIMESTAMP GT PUSH2 0x1777 JUMPI PUSH1 0x40 MLOAD PUSH3 0x461BCD PUSH1 0xE5 SHL DUP2 MSTORE PUSH1 0x20 PUSH1 0x4 DUP3 ADD MSTORE PUSH1 0x17 PUSH1 0x24 DUP3 ADD MSTORE PUSH32 0x457865637574696F6E2064656C6179206E6F74206D6574000000000000000000 PUSH1 0x44 DUP3 ADD MSTORE PUSH1 0x64 ADD PUSH2 0xB8D JUMP JUMPDEST PUSH1 0x0 DUP2 PUSH1 0x4 ADD SLOAD DUP3 PUSH1 0x3 ADD SLOAD PUSH2 0x178D SWAP2 SWAP1 PUSH2 0x27E9 JUMP JUMPDEST SWAP1 POP PUSH1 0x0 PUSH1 0x64 PUSH1 0xA PUSH2 0x179E PUSH1 0x2 SLOAD SWAP1 JUMP JUMPDEST PUSH2 0x17A8 SWAP2 SWAP1 PUSH2 0x2923 JUMP JUMPDEST PUSH2 0x17B2 SWAP2 SWAP1 PUSH2 0x293A JUMP JUMPDEST SWAP1 POP DUP1 DUP3 LT ISZERO PUSH2 0x17F5 JUMPI PUSH1 0x40 MLOAD PUSH3 0x461BCD PUSH1 0xE5 SHL DUP2 MSTORE PUSH1 0x20 PUSH1 0x4 DUP3 ADD MSTORE PUSH1 0xE PUSH1 0x24 DUP3 ADD MSTORE PUSH14 0x145D5BDC9D5B481B9BDD081B595D PUSH1 0x92 SHL PUSH1 0x44 DUP3 ADD MSTORE PUSH1 0x64 ADD PUSH2 0xB8D JUMP JUMPDEST DUP3 PUSH1 0x4 ADD SLOAD DUP4 PUSH1 0x3 ADD SLOAD GT PUSH2 0x1840 JUMPI PUSH1 0x40 MLOAD PUSH3 0x461BCD PUSH1 0xE5 SHL DUP2 MSTORE PUSH1 0x20 PUSH1 0x4 DUP3 ADD MSTORE PUSH1 0x11 PUSH1 0x24 DUP3 ADD MSTORE PUSH17 0x141C9BDC1BDCD85B081C995A9958DD1959 PUSH1 0x7A SHL PUSH1 0x44 DUP3 ADD MSTORE PUSH1 0x64 ADD PUSH2 0xB8D JUMP JUMPDEST PUSH1 0x7 DUP4 ADD DUP1 SLOAD PUSH1 0xFF NOT AND PUSH1 0x1 SWAP1 DUP2 OR SWAP1 SWAP2 SSTORE PUSH1 0x40 DUP1 MLOAD PUSH2 0x140 DUP2 ADD DUP3 MSTORE DUP6 SLOAD DUP2 MSTORE SWAP2 DUP6 ADD SLOAD PUSH1 0x1 PUSH1 0x1 PUSH1 0xA0 SHL SUB AND PUSH1 0x20 DUP4 ADD MSTORE PUSH1 0x2 DUP6 ADD DUP1 SLOAD PUSH2 0x1A11 SWAP4 SWAP3 DUP8 SWAP3 SWAP1 DUP5 ADD SWAP2 PUSH2 0x188D SWAP1 PUSH2 0x2799 JUMP JUMPDEST DUP1 PUSH1 0x1F ADD PUSH1 0x20 DUP1 SWAP2 DIV MUL PUSH1 0x20 ADD PUSH1 0x40 MLOAD SWAP1 DUP2 ADD PUSH1 0x40 MSTORE DUP1 SWAP3 SWAP2 SWAP1 DUP2 DUP2 MSTORE PUSH1 0x20 ADD DUP3 DUP1 SLOAD PUSH2 0x18B9 SWAP1 PUSH2 0x2799 JUMP JUMPDEST DUP1 ISZERO PUSH2 0x1906 JUMPI DUP1 PUSH1 0x1F LT PUSH2 0x18DB JUMPI PUSH2 0x100 DUP1 DUP4 SLOAD DIV MUL DUP4 MSTORE SWAP2 PUSH1 0x20 ADD SWAP2 PUSH2 0x1906 JUMP JUMPDEST DUP3 ADD SWAP2 SWAP1 PUSH1 0x0 MSTORE PUSH1 0x20 PUSH1 0x0 KECCAK256 SWAP1 JUMPDEST DUP2 SLOAD DUP2 MSTORE SWAP1 PUSH1 0x1 ADD SWAP1 PUSH1 0x20 ADD DUP1 DUP4 GT PUSH2 0x18E9 JUMPI DUP3 SWAP1 SUB PUSH1 0x1F AND DUP3 ADD SWAP2 JUMPDEST POP POP POP SWAP2 DUP4 MSTORE POP POP PUSH1 0x3 DUP3 DUP2 ADD SLOAD PUSH1 0x20 DUP4 ADD MSTORE PUSH1 0x4 DUP4 ADD SLOAD PUSH1 0x40 DUP4 ADD MSTORE PUSH1 0x5 DUP4 ADD SLOAD PUSH1 0x60 DUP4 ADD MSTORE PUSH1 0x6 DUP4 ADD SLOAD PUSH1 0x80 DUP4 ADD MSTORE PUSH1 0x7 DUP4 ADD SLOAD PUSH1 0xFF DUP1 DUP3 AND ISZERO ISZERO PUSH1 0xA0 DUP6 ADD MSTORE PUSH1 0xC0 SWAP1 SWAP4 ADD SWAP3 PUSH2 0x100 SWAP1 SWAP2 DIV AND SWAP1 DUP2 GT ISZERO PUSH2 0x1965 JUMPI PUSH2 0x1965 PUSH2 0x23D5 JUMP JUMPDEST PUSH1 0x3 DUP2 GT ISZERO PUSH2 0x1976 JUMPI PUSH2 0x1976 PUSH2 0x23D5 JUMP JUMPDEST DUP2 MSTORE PUSH1 0x20 ADD PUSH1 0x8 DUP3 ADD DUP1 SLOAD PUSH2 0x198A SWAP1 PUSH2 0x2799 JUMP JUMPDEST DUP1 PUSH1 0x1F ADD PUSH1 0x20 DUP1 SWAP2 DIV MUL PUSH1 0x20 ADD PUSH1 0x40 MLOAD SWAP1 DUP2 ADD PUSH1 0x40 MSTORE DUP1 SWAP3 SWAP2 SWAP1 DUP2 DUP2 MSTORE PUSH1 0x20 ADD DUP3 DUP1 SLOAD PUSH2 0x19B6 SWAP1 PUSH2 0x2799 JUMP JUMPDEST DUP1 ISZERO PUSH2 0x1A03 JUMPI DUP1 PUSH1 0x1F LT PUSH2 0x19D8 JUMPI PUSH2 0x100 DUP1 DUP4 SLOAD DIV MUL DUP4 MSTORE SWAP2 PUSH1 0x20 ADD SWAP2 PUSH2 0x1A03 JUMP JUMPDEST DUP3 ADD SWAP2 SWAP1 PUSH1 0x0 MSTORE PUSH1 0x20 PUSH1 0x0 KECCAK256 SWAP1 JUMPDEST DUP2 SLOAD DUP2 MSTORE SWAP1 PUSH1 0x1 ADD SWAP1 PUSH1 0x20 ADD DUP1 DUP4 GT PUSH2 0x19E6 JUMPI DUP3 SWAP1 SUB PUSH1 0x1F AND DUP3 ADD SWAP2 JUMPDEST POP POP POP POP POP DUP2 MSTORE POP POP PUSH2 0x1CF7 JUMP JUMPDEST PUSH1 0x40 MLOAD DUP5 SWAP1 PUSH32 0x712AE1383F79AC853F8D882153778E0260EF8F03B504E2866E0593E04D2B291F SWAP1 PUSH1 0x0 SWAP1 LOG2 POP POP POP POP JUMP JUMPDEST PUSH2 0x1A4F DUP4 DUP4 DUP4 PUSH1 0x1 PUSH2 0x1E3A JUMP JUMPDEST POP POP POP JUMP JUMPDEST PUSH1 0x5 SLOAD PUSH1 0x1 PUSH1 0x1 PUSH1 0xA0 SHL SUB AND CALLER EQ PUSH2 0xD7B JUMPI PUSH1 0x40 MLOAD PUSH4 0x118CDAA7 PUSH1 0xE0 SHL DUP2 MSTORE CALLER PUSH1 0x4 DUP3 ADD MSTORE PUSH1 0x24 ADD PUSH2 0xB8D JUMP JUMPDEST PUSH1 0x1 PUSH1 0x1 PUSH1 0xA0 SHL SUB DUP4 DUP2 AND PUSH1 0x0 SWAP1 DUP2 MSTORE PUSH1 0x1 PUSH1 0x20 SWAP1 DUP2 MSTORE PUSH1 0x40 DUP1 DUP4 KECCAK256 SWAP4 DUP7 AND DUP4 MSTORE SWAP3 SWAP1 MSTORE KECCAK256 SLOAD PUSH1 0x0 NOT DUP2 LT ISZERO PUSH2 0x1AFA JUMPI DUP2 DUP2 LT ISZERO PUSH2 0x1AEB JUMPI PUSH1 0x40 MLOAD PUSH4 0x7DC7A0D9 PUSH1 0xE1 SHL DUP2 MSTORE PUSH1 0x1 PUSH1 0x1 PUSH1 0xA0 SHL SUB DUP5 AND PUSH1 0x4 DUP3 ADD MSTORE PUSH1 0x24 DUP2 ADD DUP3 SWAP1 MSTORE PUSH1 0x44 DUP2 ADD DUP4 SWAP1 MSTORE PUSH1 0x64 ADD PUSH2 0xB8D JUMP JUMPDEST PUSH2 0x1AFA DUP5 DUP5 DUP5 DUP5 SUB PUSH1 0x0 PUSH2 0x1E3A JUMP JUMPDEST POP POP POP POP JUMP JUMPDEST PUSH1 0x1 PUSH1 0x1 PUSH1 0xA0 SHL SUB DUP4 AND PUSH2 0x1B2A JUMPI PUSH1 0x40 MLOAD PUSH4 0x4B637E8F PUSH1 0xE1 SHL DUP2 MSTORE PUSH1 0x0 PUSH1 0x4 DUP3 ADD MSTORE PUSH1 0x24 ADD PUSH2 0xB8D JUMP JUMPDEST PUSH1 0x1 PUSH1 0x1 PUSH1 0xA0 SHL SUB DUP3 AND PUSH2 0x1B54 JUMPI PUSH1 0x40 MLOAD PUSH4 0xEC442F05 PUSH1 0xE0 SHL DUP2 MSTORE PUSH1 0x0 PUSH1 0x4 DUP3 ADD MSTORE PUSH1 0x24 ADD PUSH2 0xB8D JUMP JUMPDEST PUSH2 0x1A4F DUP4 DUP4 DUP4 PUSH2 0x1F0F JUMP JUMPDEST PUSH1 0x1 PUSH1 0x1 PUSH1 0xA0 SHL SUB DUP3 AND PUSH2 0x1B89 JUMPI PUSH1 0x40 MLOAD PUSH4 0x4B637E8F PUSH1 0xE1 SHL DUP2 MSTORE PUSH1 0x0 PUSH1 0x4 DUP3 ADD MSTORE PUSH1 0x24 ADD PUSH2 0xB8D JUMP JUMPDEST PUSH2 0x1B95 DUP3 PUSH1 0x0 DUP4 PUSH2 0x1F0F JUMP JUMPDEST POP POP JUMP JUMPDEST PUSH2 0x1BA1 PUSH2 0x2280 JUMP JUMPDEST PUSH1 0x5 DUP1 SLOAD PUSH1 0xFF PUSH1 0xA0 SHL NOT AND SWAP1 SSTORE PUSH32 0x5DB9EE0A495BF2E6FF9C91A7834C1BA4FDD244A5E8AA4E537BD38AEAE4B073AA CALLER JUMPDEST PUSH1 0x40 MLOAD PUSH1 0x1 PUSH1 0x1 PUSH1 0xA0 SHL SUB SWAP1 SWAP2 AND DUP2 MSTORE PUSH1 0x20 ADD PUSH2 0xCE6 JUMP JUMPDEST PUSH2 0x1BF1 PUSH2 0x22AA JUMP JUMPDEST PUSH1 0x5 DUP1 SLOAD PUSH1 0xFF PUSH1 0xA0 SHL NOT AND PUSH1 0x1 PUSH1 0xA0 SHL OR SWAP1 SSTORE PUSH32 0x62E78CEA01BEE320CD4E420270B5EA74000D11B0C9F74754EBDBFC544B05A258 PUSH2 0x1BD1 CALLER SWAP1 JUMP JUMPDEST PUSH1 0x5 DUP1 SLOAD PUSH1 0x1 PUSH1 0x1 PUSH1 0xA0 SHL SUB DUP4 DUP2 AND PUSH1 0x1 PUSH1 0x1 PUSH1 0xA0 SHL SUB NOT DUP4 AND DUP2 OR SWAP1 SWAP4 SSTORE PUSH1 0x40 MLOAD SWAP2 AND SWAP2 SWAP1 DUP3 SWAP1 PUSH32 0x8BE0079C531659141344CD1FD0A4F28419497F9722A3DAAFE3B4186F6B6457E0 SWAP1 PUSH1 0x0 SWAP1 LOG3 POP POP JUMP JUMPDEST PUSH1 0x1B SLOAD PUSH1 0xFF AND DUP1 ISZERO PUSH2 0x1CA0 JUMPI POP CALLER PUSH1 0x0 SWAP1 DUP2 MSTORE PUSH1 0xE PUSH1 0x20 MSTORE PUSH1 0x40 SWAP1 KECCAK256 SLOAD PUSH1 0xFF AND ISZERO JUMPDEST ISZERO PUSH2 0x15BE JUMPI PUSH1 0x18 SLOAD DUP2 GT ISZERO PUSH2 0x15BE JUMPI PUSH1 0x40 MLOAD PUSH3 0x461BCD PUSH1 0xE5 SHL DUP2 MSTORE PUSH1 0x20 PUSH1 0x4 DUP3 ADD DUP2 SWAP1 MSTORE PUSH1 0x24 DUP3 ADD MSTORE PUSH32 0x5472616E73616374696F6E20616D6F756E742065786365656473206C696D6974 PUSH1 0x44 DUP3 ADD MSTORE PUSH1 0x64 ADD PUSH2 0xB8D JUMP JUMPDEST PUSH1 0x0 DUP2 PUSH2 0x100 ADD MLOAD PUSH1 0x3 DUP2 GT ISZERO PUSH2 0x1D10 JUMPI PUSH2 0x1D10 PUSH2 0x23D5 JUMP JUMPDEST SUB PUSH2 0x1D7F JUMPI PUSH1 0x0 DUP2 PUSH2 0x120 ADD MLOAD DUP1 PUSH1 0x20 ADD SWAP1 MLOAD DUP2 ADD SWAP1 PUSH2 0x1D30 SWAP2 SWAP1 PUSH2 0x295C JUMP JUMPDEST SWAP1 POP PUSH1 0xC8 DUP2 GT ISZERO PUSH2 0x1D79 JUMPI PUSH1 0x40 MLOAD PUSH3 0x461BCD PUSH1 0xE5 SHL DUP2 MSTORE PUSH1 0x20 PUSH1 0x4 DUP3 ADD MSTORE PUSH1 0x13 PUSH1 0x24 DUP3 ADD MSTORE PUSH19 0x4665652065786365656473206D6178696D756D PUSH1 0x68 SHL PUSH1 0x44 DUP3 ADD MSTORE PUSH1 0x64 ADD PUSH2 0xB8D JUMP JUMPDEST PUSH1 0x7 SSTORE POP JUMP JUMPDEST PUSH1 0x1 DUP2 PUSH2 0x100 ADD MLOAD PUSH1 0x3 DUP2 GT ISZERO PUSH2 0x1D98 JUMPI PUSH2 0x1D98 PUSH2 0x23D5 JUMP JUMPDEST SUB PUSH2 0x15BE JUMPI PUSH1 0x0 DUP1 DUP3 PUSH2 0x120 ADD MLOAD DUP1 PUSH1 0x20 ADD SWAP1 MLOAD DUP2 ADD SWAP1 PUSH2 0x1DB9 SWAP2 SWAP1 PUSH2 0x2975 JUMP JUMPDEST PUSH1 0xC SLOAD SWAP2 SWAP4 POP SWAP2 POP DUP2 SWAP1 PUSH2 0x1DD5 SWAP1 PUSH1 0x1 PUSH1 0x1 PUSH1 0xA0 SHL SUB AND PUSH2 0xD4E JUMP JUMPDEST LT ISZERO PUSH2 0x1E23 JUMPI PUSH1 0x40 MLOAD PUSH3 0x461BCD PUSH1 0xE5 SHL DUP2 MSTORE PUSH1 0x20 PUSH1 0x4 DUP3 ADD MSTORE PUSH1 0x1D PUSH1 0x24 DUP3 ADD MSTORE PUSH32 0x496E73756666696369656E742074726561737572792062616C616E6365000000 PUSH1 0x44 DUP3 ADD MSTORE PUSH1 0x64 ADD PUSH2 0xB8D JUMP JUMPDEST PUSH1 0xC SLOAD PUSH2 0x1A4F SWAP1 PUSH1 0x1 PUSH1 0x1 PUSH1 0xA0 SHL SUB AND DUP4 DUP4 PUSH2 0x1B00 JUMP JUMPDEST PUSH1 0x1 PUSH1 0x1 PUSH1 0xA0 SHL SUB DUP5 AND PUSH2 0x1E64 JUMPI PUSH1 0x40 MLOAD PUSH4 0xE602DF05 PUSH1 0xE0 SHL DUP2 MSTORE PUSH1 0x0 PUSH1 0x4 DUP3 ADD MSTORE PUSH1 0x24 ADD PUSH2 0xB8D JUMP JUMPDEST PUSH1 0x1 PUSH1 0x1 PUSH1 0xA0 SHL SUB DUP4 AND PUSH2 0x1E8E JUMPI PUSH1 0x40 MLOAD PUSH4 0x4A1406B1 PUSH1 0xE1 SHL DUP2 MSTORE PUSH1 0x0 PUSH1 0x4 DUP3 ADD MSTORE PUSH1 0x24 ADD PUSH2 0xB8D JUMP JUMPDEST PUSH1 0x1 PUSH1 0x1 PUSH1 0xA0 SHL SUB DUP1 DUP6 AND PUSH1 0x0 SWAP1 DUP2 MSTORE PUSH1 0x1 PUSH1 0x20 SWAP1 DUP2 MSTORE PUSH1 0x40 DUP1 DUP4 KECCAK256 SWAP4 DUP8 AND DUP4 MSTORE SWAP3 SWAP1 MSTORE KECCAK256 DUP3 SWAP1 SSTORE DUP1 ISZERO PUSH2 0x1AFA JUMPI DUP3 PUSH1 0x1 PUSH1 0x1 PUSH1 0xA0 SHL SUB AND DUP5 PUSH1 0x1 PUSH1 0x1 PUSH1 0xA0 SHL SUB AND PUSH32 0x8C5BE1E5EBEC7D5BD14F71427D1E84F3DD0314C0F7B2291E5B200AC8C7C3B925 DUP5 PUSH1 0x40 MLOAD PUSH2 0x1F01 SWAP2 DUP2 MSTORE PUSH1 0x20 ADD SWAP1 JUMP JUMPDEST PUSH1 0x40 MLOAD DUP1 SWAP2 SUB SWAP1 LOG3 POP POP POP POP JUMP JUMPDEST PUSH2 0x1F17 PUSH2 0x22AA JUMP JUMPDEST PUSH1 0x1 PUSH1 0x1 PUSH1 0xA0 SHL SUB DUP4 AND ISZERO DUP1 ISZERO SWAP1 PUSH2 0x1F37 JUMPI POP PUSH1 0x1 PUSH1 0x1 PUSH1 0xA0 SHL SUB DUP3 AND ISZERO ISZERO JUMPDEST ISZERO PUSH2 0x1F47 JUMPI PUSH2 0x1F47 DUP4 DUP4 DUP4 PUSH2 0x22D5 JUMP JUMPDEST PUSH1 0x1 PUSH1 0x1 PUSH1 0xA0 SHL SUB DUP4 AND ISZERO DUP1 PUSH2 0x1F64 JUMPI POP PUSH1 0x1 PUSH1 0x1 PUSH1 0xA0 SHL SUB DUP3 AND ISZERO JUMPDEST DUP1 PUSH2 0x1F6F JUMPI POP PUSH1 0x7 SLOAD ISZERO JUMPDEST DUP1 PUSH2 0x1F92 JUMPI POP PUSH1 0x1 PUSH1 0x1 PUSH1 0xA0 SHL SUB DUP4 AND PUSH1 0x0 SWAP1 DUP2 MSTORE PUSH1 0xE PUSH1 0x20 MSTORE PUSH1 0x40 SWAP1 KECCAK256 SLOAD PUSH1 0xFF AND JUMPDEST DUP1 PUSH2 0x1FB5 JUMPI POP PUSH1 0x1 PUSH1 0x1 PUSH1 0xA0 SHL SUB DUP3 AND PUSH1 0x0 SWAP1 DUP2 MSTORE PUSH1 0xE PUSH1 0x20 MSTORE PUSH1 0x40 SWAP1 KECCAK256 SLOAD PUSH1 0xFF AND JUMPDEST ISZERO PUSH2 0x202F JUMPI PUSH2 0x1FC5 DUP4 DUP4 DUP4 PUSH2 0x1B00 JUMP JUMPDEST PUSH1 0x1 PUSH1 0x1 PUSH1 0xA0 SHL SUB DUP4 AND ISZERO DUP1 ISZERO SWAP1 PUSH2 0x1FE5 JUMPI POP PUSH1 0x1 PUSH1 0x1 PUSH1 0xA0 SHL SUB DUP3 AND ISZERO ISZERO JUMPDEST ISZERO PUSH2 0x1A4F JUMPI DUP2 PUSH1 0x1 PUSH1 0x1 PUSH1 0xA0 SHL SUB AND DUP4 PUSH1 0x1 PUSH1 0x1 PUSH1 0xA0 SHL SUB AND PUSH32 0x59ABB1A21AC9C02D9C217285768A906AF17496E4CADA7962F129B92F0AC948CF DUP4 PUSH1 0x40 MLOAD PUSH2 0x1576 SWAP2 DUP2 MSTORE PUSH1 0x20 ADD SWAP1 JUMP JUMPDEST PUSH1 0x1B SLOAD PUSH1 0xFF AND DUP1 ISZERO PUSH2 0x204A JUMPI POP PUSH1 0x1 PUSH1 0x1 PUSH1 0xA0 SHL SUB DUP4 AND ADDRESS EQ ISZERO JUMPDEST DUP1 ISZERO PUSH2 0x205F JUMPI POP PUSH1 0x1 PUSH1 0x1 PUSH1 0xA0 SHL SUB DUP3 AND ADDRESS EQ ISZERO JUMPDEST ISZERO PUSH2 0x20EA JUMPI PUSH2 0x206D DUP2 PUSH2 0x1C7E JUMP JUMPDEST PUSH1 0x19 SLOAD DUP2 PUSH2 0x207A DUP5 PUSH2 0xD4E JUMP JUMPDEST PUSH2 0x2084 SWAP2 SWAP1 PUSH2 0x27E9 JUMP JUMPDEST GT ISZERO PUSH2 0x20EA JUMPI PUSH1 0x1 PUSH1 0x1 PUSH1 0xA0 SHL SUB DUP3 AND PUSH1 0x0 SWAP1 DUP2 MSTORE PUSH1 0xE PUSH1 0x20 MSTORE PUSH1 0x40 SWAP1 KECCAK256 SLOAD PUSH1 0xFF AND PUSH2 0x20EA JUMPI PUSH1 0x40 MLOAD PUSH3 0x461BCD PUSH1 0xE5 SHL DUP2 MSTORE PUSH1 0x20 PUSH1 0x4 DUP3 ADD MSTORE PUSH1 0x15 PUSH1 0x24 DUP3 ADD MSTORE PUSH21 0x15D85B1B195D081B1A5B5A5D08195E18D959591959 PUSH1 0x5A SHL PUSH1 0x44 DUP3 ADD MSTORE PUSH1 0x64 ADD PUSH2 0xB8D JUMP JUMPDEST PUSH1 0x0 PUSH2 0x2710 PUSH1 0x7 SLOAD DUP4 PUSH2 0x20FD SWAP2 SWAP1 PUSH2 0x2923 JUMP JUMPDEST PUSH2 0x2107 SWAP2 SWAP1 PUSH2 0x293A JUMP JUMPDEST SWAP1 POP PUSH1 0x0 PUSH1 0x7 SLOAD PUSH1 0x8 SLOAD DUP4 PUSH2 0x211C SWAP2 SWAP1 PUSH2 0x2923 JUMP JUMPDEST PUSH2 0x2126 SWAP2 SWAP1 PUSH2 0x293A JUMP JUMPDEST SWAP1 POP PUSH1 0x0 PUSH1 0x7 SLOAD PUSH1 0x9 SLOAD DUP5 PUSH2 0x213B SWAP2 SWAP1 PUSH2 0x2923 JUMP JUMPDEST PUSH2 0x2145 SWAP2 SWAP1 PUSH2 0x293A JUMP JUMPDEST SWAP1 POP PUSH1 0x0 DUP2 PUSH2 0x2154 DUP5 DUP7 PUSH2 0x29A3 JUMP JUMPDEST PUSH2 0x215E SWAP2 SWAP1 PUSH2 0x29A3 JUMP JUMPDEST SWAP1 POP PUSH1 0x0 PUSH2 0x216C DUP6 DUP8 PUSH2 0x29A3 JUMP JUMPDEST SWAP1 POP DUP4 ISZERO PUSH2 0x218C JUMPI PUSH1 0xC SLOAD PUSH2 0x218C SWAP1 DUP10 SWAP1 PUSH1 0x1 PUSH1 0x1 PUSH1 0xA0 SHL SUB AND DUP7 PUSH2 0x1B00 JUMP JUMPDEST DUP3 ISZERO PUSH2 0x21AA JUMPI PUSH1 0xD SLOAD PUSH2 0x21AA SWAP1 DUP10 SWAP1 PUSH1 0x1 PUSH1 0x1 PUSH1 0xA0 SHL SUB AND DUP6 PUSH2 0x1B00 JUMP JUMPDEST DUP2 ISZERO PUSH2 0x21D5 JUMPI PUSH2 0x21BA DUP9 DUP4 PUSH2 0x1B5F JUMP JUMPDEST DUP2 PUSH1 0x1F PUSH1 0x1 ADD PUSH1 0x0 DUP3 DUP3 SLOAD PUSH2 0x21CF SWAP2 SWAP1 PUSH2 0x27E9 JUMP JUMPDEST SWAP1 SWAP2 SSTORE POP POP JUMPDEST PUSH2 0x21E0 DUP9 DUP9 DUP4 PUSH2 0x1B00 JUMP JUMPDEST DUP5 PUSH1 0x1F PUSH1 0x0 ADD PUSH1 0x0 DUP3 DUP3 SLOAD PUSH2 0x21F5 SWAP2 SWAP1 PUSH2 0x27E9 JUMP JUMPDEST SWAP1 SWAP2 SSTORE POP POP PUSH1 0x1 PUSH1 0x1 PUSH1 0xA0 SHL SUB DUP9 AND PUSH1 0x0 SWAP1 DUP2 MSTORE PUSH1 0x24 PUSH1 0x20 MSTORE PUSH1 0x40 DUP2 KECCAK256 DUP1 SLOAD DUP8 SWAP3 SWAP1 PUSH2 0x2222 SWAP1 DUP5 SWAP1 PUSH2 0x27E9 JUMP JUMPDEST SWAP3 POP POP DUP2 SWAP1 SSTORE POP DUP7 PUSH1 0x1 PUSH1 0x1 PUSH1 0xA0 SHL SUB AND DUP9 PUSH1 0x1 PUSH1 0x1 PUSH1 0xA0 SHL SUB AND PUSH32 0x59ABB1A21AC9C02D9C217285768A906AF17496E4CADA7962F129B92F0AC948CF DUP4 PUSH1 0x40 MLOAD PUSH2 0x226E SWAP2 DUP2 MSTORE PUSH1 0x20 ADD SWAP1 JUMP JUMPDEST PUSH1 0x40 MLOAD DUP1 SWAP2 SUB SWAP1 LOG3 POP POP POP POP POP POP POP POP JUMP JUMPDEST PUSH1 0x5 SLOAD PUSH1 0x1 PUSH1 0xA0 SHL SWAP1 DIV PUSH1 0xFF AND PUSH2 0xD7B JUMPI PUSH1 0x40 MLOAD PUSH4 0x8DFC202B PUSH1 0xE0 SHL DUP2 MSTORE PUSH1 0x4 ADD PUSH1 0x40 MLOAD DUP1 SWAP2 SUB SWAP1 REVERT JUMPDEST PUSH1 0x5 SLOAD PUSH1 0x1 PUSH1 0xA0 SHL SWAP1 DIV PUSH1 0xFF AND ISZERO PUSH2 0xD7B JUMPI PUSH1 0x40 MLOAD PUSH4 0xD93C0665 PUSH1 0xE0 SHL DUP2 MSTORE PUSH1 0x4 ADD PUSH1 0x40 MLOAD DUP1 SWAP2 SUB SWAP1 REVERT JUMPDEST PUSH1 0x23 DUP1 SLOAD SWAP1 PUSH1 0x0 PUSH2 0x22E5 DUP4 PUSH2 0x27FC JUMP JUMPDEST SWAP1 SWAP2 SSTORE POP POP PUSH1 0x1 PUSH1 0x1 PUSH1 0xA0 SHL SUB DUP4 AND PUSH1 0x0 SWAP1 DUP2 MSTORE PUSH1 0x24 PUSH1 0x20 MSTORE PUSH1 0x40 DUP2 KECCAK256 PUSH1 0x2 ADD DUP1 SLOAD SWAP2 PUSH2 0x2311 DUP4 PUSH2 0x27FC JUMP JUMPDEST SWAP1 SWAP2 SSTORE POP POP PUSH1 0x1 PUSH1 0x1 PUSH1 0xA0 SHL SUB DUP3 AND PUSH1 0x0 SWAP1 DUP2 MSTORE PUSH1 0x24 PUSH1 0x20 MSTORE PUSH1 0x40 DUP2 KECCAK256 PUSH1 0x3 ADD SLOAD SWAP1 SUB PUSH2 0x236B JUMPI PUSH1 0x1 PUSH1 0x1 PUSH1 0xA0 SHL SUB DUP3 AND PUSH1 0x0 SWAP1 DUP2 MSTORE PUSH1 0x24 PUSH1 0x20 MSTORE PUSH1 0x40 DUP2 KECCAK256 TIMESTAMP PUSH1 0x3 SWAP1 SWAP2 ADD SSTORE PUSH1 0x22 DUP1 SLOAD SWAP2 PUSH2 0x2365 DUP4 PUSH2 0x27FC JUMP JUMPDEST SWAP2 SWAP1 POP SSTORE POP JUMPDEST POP POP PUSH1 0x15 SLOAD PUSH1 0x21 SSTORE POP JUMP JUMPDEST PUSH1 0x0 PUSH1 0x20 DUP3 DUP5 SUB SLT ISZERO PUSH2 0x2388 JUMPI PUSH1 0x0 DUP1 REVERT JUMPDEST POP CALLDATALOAD SWAP2 SWAP1 POP JUMP JUMPDEST PUSH1 0x0 DUP2 MLOAD DUP1 DUP5 MSTORE PUSH1 0x0 JUMPDEST DUP2 DUP2 LT ISZERO PUSH2 0x23B5 JUMPI PUSH1 0x20 DUP2 DUP6 ADD DUP2 ADD MLOAD DUP7 DUP4 ADD DUP3 ADD MSTORE ADD PUSH2 0x2399 JUMP JUMPDEST POP PUSH1 0x0 PUSH1 0x20 DUP3 DUP7 ADD ADD MSTORE PUSH1 0x20 PUSH1 0x1F NOT PUSH1 0x1F DUP4 ADD AND DUP6 ADD ADD SWAP2 POP POP SWAP3 SWAP2 POP POP JUMP JUMPDEST PUSH4 0x4E487B71 PUSH1 0xE0 SHL PUSH1 0x0 MSTORE PUSH1 0x21 PUSH1 0x4 MSTORE PUSH1 0x24 PUSH1 0x0 REVERT JUMPDEST DUP11 DUP2 MSTORE PUSH1 0x1 PUSH1 0x1 PUSH1 0xA0 SHL SUB DUP11 AND PUSH1 0x20 DUP3 ADD MSTORE PUSH2 0x140 PUSH1 0x40 DUP3 ADD DUP2 SWAP1 MSTORE PUSH1 0x0 SWAP1 PUSH2 0x2416 DUP4 DUP3 ADD DUP13 PUSH2 0x238F JUMP JUMPDEST SWAP1 POP DUP10 PUSH1 0x60 DUP5 ADD MSTORE DUP9 PUSH1 0x80 DUP5 ADD MSTORE DUP8 PUSH1 0xA0 DUP5 ADD MSTORE DUP7 PUSH1 0xC0 DUP5 ADD MSTORE DUP6 ISZERO ISZERO PUSH1 0xE0 DUP5 ADD MSTORE PUSH1 0x4 DUP6 LT PUSH2 0x2456 JUMPI PUSH4 0x4E487B71 PUSH1 0xE0 SHL PUSH1 0x0 MSTORE PUSH1 0x21 PUSH1 0x4 MSTORE PUSH1 0x24 PUSH1 0x0 REVERT JUMPDEST DUP5 PUSH2 0x100 DUP5 ADD MSTORE DUP3 DUP2 SUB PUSH2 0x120 DUP5 ADD MSTORE PUSH2 0x2470 DUP2 DUP6 PUSH2 0x238F JUMP JUMPDEST SWAP14 SWAP13 POP POP POP POP POP POP POP POP POP POP POP POP POP JUMP JUMPDEST PUSH1 0x20 DUP2 MSTORE PUSH1 0x0 PUSH2 0x2494 PUSH1 0x20 DUP4 ADD DUP5 PUSH2 0x238F JUMP JUMPDEST SWAP4 SWAP3 POP POP POP JUMP JUMPDEST PUSH1 0x1 PUSH1 0x1 PUSH1 0xA0 SHL SUB DUP2 AND DUP2 EQ PUSH2 0x15BE JUMPI PUSH1 0x0 DUP1 REVERT JUMPDEST PUSH1 0x0 DUP1 PUSH1 0x40 DUP4 DUP6 SUB SLT ISZERO PUSH2 0x24C3 JUMPI PUSH1 0x0 DUP1 REVERT JUMPDEST DUP3 CALLDATALOAD PUSH2 0x24CE DUP2 PUSH2 0x249B JUMP JUMPDEST SWAP5 PUSH1 0x20 SWAP4 SWAP1 SWAP4 ADD CALLDATALOAD SWAP4 POP POP POP JUMP JUMPDEST PUSH1 0x0 PUSH1 0x20 DUP3 DUP5 SUB SLT ISZERO PUSH2 0x24EE JUMPI PUSH1 0x0 DUP1 REVERT JUMPDEST DUP2 CALLDATALOAD PUSH2 0x2494 DUP2 PUSH2 0x249B JUMP JUMPDEST PUSH1 0x0 DUP1 PUSH1 0x0 PUSH1 0x60 DUP5 DUP7 SUB SLT ISZERO PUSH2 0x250E JUMPI PUSH1 0x0 DUP1 REVERT JUMPDEST DUP4 CALLDATALOAD PUSH2 0x2519 DUP2 PUSH2 0x249B JUMP JUMPDEST SWAP3 POP PUSH1 0x20 DUP5 ADD CALLDATALOAD PUSH2 0x2529 DUP2 PUSH2 0x249B JUMP JUMPDEST SWAP3 SWAP6 SWAP3 SWAP5 POP POP POP PUSH1 0x40 SWAP2 SWAP1 SWAP2 ADD CALLDATALOAD SWAP1 JUMP JUMPDEST PUSH1 0x0 DUP1 PUSH1 0x40 DUP4 DUP6 SUB SLT ISZERO PUSH2 0x254D JUMPI PUSH1 0x0 DUP1 REVERT JUMPDEST DUP3 CALLDATALOAD SWAP2 POP PUSH1 0x20 DUP4 ADD CALLDATALOAD PUSH2 0x255F DUP2 PUSH2 0x249B JUMP JUMPDEST DUP1 SWAP2 POP POP SWAP3 POP SWAP3 SWAP1 POP JUMP JUMPDEST PUSH1 0x0 DUP1 PUSH1 0x0 PUSH1 0x60 DUP5 DUP7 SUB SLT ISZERO PUSH2 0x257F JUMPI PUSH1 0x0 DUP1 REVERT JUMPDEST DUP4 CALLDATALOAD PUSH2 0x258A DUP2 PUSH2 0x249B JUMP JUMPDEST SWAP6 PUSH1 0x20 DUP6 ADD CALLDATALOAD SWAP6 POP PUSH1 0x40 SWAP1 SWAP5 ADD CALLDATALOAD SWAP4 SWAP3 POP POP POP JUMP JUMPDEST DUP1 CALLDATALOAD DUP1 ISZERO ISZERO DUP2 EQ PUSH2 0x25AF JUMPI PUSH1 0x0 DUP1 REVERT JUMPDEST SWAP2 SWAP1 POP JUMP JUMPDEST PUSH1 0x0 DUP1 PUSH1 0x40 DUP4 DUP6 SUB SLT ISZERO PUSH2 0x25C7 JUMPI PUSH1 0x0 DUP1 REVERT JUMPDEST DUP3 CALLDATALOAD PUSH2 0x25D2 DUP2 PUSH2 0x249B JUMP JUMPDEST SWAP2 POP PUSH2 0x25E0 PUSH1 0x20 DUP5 ADD PUSH2 0x259F JUMP JUMPDEST SWAP1 POP SWAP3 POP SWAP3 SWAP1 POP JUMP JUMPDEST PUSH4 0x4E487B71 PUSH1 0xE0 SHL PUSH1 0x0 MSTORE PUSH1 0x41 PUSH1 0x4 MSTORE PUSH1 0x24 PUSH1 0x0 REVERT JUMPDEST PUSH1 0x0 PUSH8 0xFFFFFFFFFFFFFFFF DUP1 DUP5 GT ISZERO PUSH2 0x261A JUMPI PUSH2 0x261A PUSH2 0x25E9 JUMP JUMPDEST PUSH1 0x40 MLOAD PUSH1 0x1F DUP6 ADD PUSH1 0x1F NOT SWAP1 DUP2 AND PUSH1 0x3F ADD AND DUP2 ADD SWAP1 DUP3 DUP3 GT DUP2 DUP4 LT OR ISZERO PUSH2 0x2642 JUMPI PUSH2 0x2642 PUSH2 0x25E9 JUMP JUMPDEST DUP2 PUSH1 0x40 MSTORE DUP1 SWAP4 POP DUP6 DUP2 MSTORE DUP7 DUP7 DUP7 ADD GT ISZERO PUSH2 0x265B JUMPI PUSH1 0x0 DUP1 REVERT JUMPDEST DUP6 DUP6 PUSH1 0x20 DUP4 ADD CALLDATACOPY PUSH1 0x0 PUSH1 0x20 DUP8 DUP4 ADD ADD MSTORE POP POP POP SWAP4 SWAP3 POP POP POP JUMP JUMPDEST PUSH1 0x0 DUP1 PUSH1 0x0 PUSH1 0x60 DUP5 DUP7 SUB SLT ISZERO PUSH2 0x268A JUMPI PUSH1 0x0 DUP1 REVERT JUMPDEST DUP4 CALLDATALOAD PUSH8 0xFFFFFFFFFFFFFFFF DUP1 DUP3 GT ISZERO PUSH2 0x26A2 JUMPI PUSH1 0x0 DUP1 REVERT JUMPDEST DUP2 DUP7 ADD SWAP2 POP DUP7 PUSH1 0x1F DUP4 ADD SLT PUSH2 0x26B6 JUMPI PUSH1 0x0 DUP1 REVERT JUMPDEST PUSH2 0x26C5 DUP8 DUP4 CALLDATALOAD PUSH1 0x20 DUP6 ADD PUSH2 0x25FF JUMP JUMPDEST SWAP5 POP PUSH1 0x20 DUP7 ADD CALLDATALOAD SWAP2 POP PUSH1 0x4 DUP3 LT PUSH2 0x26DB JUMPI PUSH1 0x0 DUP1 REVERT JUMPDEST SWAP1 SWAP3 POP PUSH1 0x40 DUP6 ADD CALLDATALOAD SWAP1 DUP1 DUP3 GT ISZERO PUSH2 0x26F1 JUMPI PUSH1 0x0 DUP1 REVERT JUMPDEST POP DUP5 ADD PUSH1 0x1F DUP2 ADD DUP7 SGT PUSH2 0x2703 JUMPI PUSH1 0x0 DUP1 REVERT JUMPDEST PUSH2 0x2712 DUP7 DUP3 CALLDATALOAD PUSH1 0x20 DUP5 ADD PUSH2 0x25FF JUMP JUMPDEST SWAP2 POP POP SWAP3 POP SWAP3 POP SWAP3 JUMP JUMPDEST PUSH1 0x0 DUP1 PUSH1 0x0 PUSH1 0x60 DUP5 DUP7 SUB SLT ISZERO PUSH2 0x2731 JUMPI PUSH1 0x0 DUP1 REVERT JUMPDEST POP POP DUP2 CALLDATALOAD SWAP4 PUSH1 0x20 DUP4 ADD CALLDATALOAD SWAP4 POP PUSH1 0x40 SWAP1 SWAP3 ADD CALLDATALOAD SWAP2 SWAP1 POP JUMP JUMPDEST PUSH1 0x0 DUP1 PUSH1 0x40 DUP4 DUP6 SUB SLT ISZERO PUSH2 0x275B JUMPI PUSH1 0x0 DUP1 REVERT JUMPDEST DUP3 CALLDATALOAD SWAP2 POP PUSH2 0x25E0 PUSH1 0x20 DUP5 ADD PUSH2 0x259F JUMP JUMPDEST PUSH1 0x0 DUP1 PUSH1 0x40 DUP4 DUP6 SUB SLT ISZERO PUSH2 0x277E JUMPI PUSH1 0x0 DUP1 REVERT JUMPDEST DUP3 CALLDATALOAD PUSH2 0x2789 DUP2 PUSH2 0x249B JUMP JUMPDEST SWAP2 POP PUSH1 0x20 DUP4 ADD CALLDATALOAD PUSH2 0x255F DUP2 PUSH2 0x249B JUMP JUMPDEST PUSH1 0x1 DUP2 DUP2 SHR SWAP1 DUP3 AND DUP1 PUSH2 0x27AD JUMPI PUSH1 0x7F DUP3 AND SWAP2 POP JUMPDEST PUSH1 0x20 DUP3 LT DUP2 SUB PUSH2 0x27CD JUMPI PUSH4 0x4E487B71 PUSH1 0xE0 SHL PUSH1 0x0 MSTORE PUSH1 0x22 PUSH1 0x4 MSTORE PUSH1 0x24 PUSH1 0x0 REVERT JUMPDEST POP SWAP2 SWAP1 POP JUMP JUMPDEST PUSH4 0x4E487B71 PUSH1 0xE0 SHL PUSH1 0x0 MSTORE PUSH1 0x11 PUSH1 0x4 MSTORE PUSH1 0x24 PUSH1 0x0 REVERT JUMPDEST DUP1 DUP3 ADD DUP1 DUP3 GT ISZERO PUSH2 0xB12 JUMPI PUSH2 0xB12 PUSH2 0x27D3 JUMP JUMPDEST PUSH1 0x0 PUSH1 0x1 DUP3 ADD PUSH2 0x280E JUMPI PUSH2 0x280E PUSH2 0x27D3 JUMP JUMPDEST POP PUSH1 0x1 ADD SWAP1 JUMP JUMPDEST PUSH1 0x1F DUP3 GT ISZERO PUSH2 0x1A4F JUMPI PUSH1 0x0 DUP2 DUP2 MSTORE PUSH1 0x20 DUP2 KECCAK256 PUSH1 0x1F DUP6 ADD PUSH1 0x5 SHR DUP2 ADD PUSH1 0x20 DUP7 LT ISZERO PUSH2 0x283C JUMPI POP DUP1 JUMPDEST PUSH1 0x1F DUP6 ADD PUSH1 0x5 SHR DUP3 ADD SWAP2 POP JUMPDEST DUP2 DUP2 LT ISZERO PUSH2 0x285B JUMPI DUP3 DUP2 SSTORE PUSH1 0x1 ADD PUSH2 0x2848 JUMP JUMPDEST POP POP POP POP POP POP JUMP JUMPDEST DUP2 MLOAD PUSH8 0xFFFFFFFFFFFFFFFF DUP2 GT ISZERO PUSH2 0x287D JUMPI PUSH2 0x287D PUSH2 0x25E9 JUMP JUMPDEST PUSH2 0x2891 DUP2 PUSH2 0x288B DUP5 SLOAD PUSH2 0x2799 JUMP JUMPDEST DUP5 PUSH2 0x2815 JUMP JUMPDEST PUSH1 0x20 DUP1 PUSH1 0x1F DUP4 GT PUSH1 0x1 DUP2 EQ PUSH2 0x28C6 JUMPI PUSH1 0x0 DUP5 ISZERO PUSH2 0x28AE JUMPI POP DUP6 DUP4 ADD MLOAD JUMPDEST PUSH1 0x0 NOT PUSH1 0x3 DUP7 SWAP1 SHL SHR NOT AND PUSH1 0x1 DUP6 SWAP1 SHL OR DUP6 SSTORE PUSH2 0x285B JUMP JUMPDEST PUSH1 0x0 DUP6 DUP2 MSTORE PUSH1 0x20 DUP2 KECCAK256 PUSH1 0x1F NOT DUP7 AND SWAP2 JUMPDEST DUP3 DUP2 LT ISZERO PUSH2 0x28F5 JUMPI DUP9 DUP7 ADD MLOAD DUP3 SSTORE SWAP5 DUP5 ADD SWAP5 PUSH1 0x1 SWAP1 SWAP2 ADD SWAP1 DUP5 ADD PUSH2 0x28D6 JUMP JUMPDEST POP DUP6 DUP3 LT ISZERO PUSH2 0x2913 JUMPI DUP8 DUP6 ADD MLOAD PUSH1 0x0 NOT PUSH1 0x3 DUP9 SWAP1 SHL PUSH1 0xF8 AND SHR NOT AND DUP2 SSTORE JUMPDEST POP POP POP POP POP PUSH1 0x1 SWAP1 DUP2 SHL ADD SWAP1 SSTORE POP JUMP JUMPDEST DUP1 DUP3 MUL DUP2 ISZERO DUP3 DUP3 DIV DUP5 EQ OR PUSH2 0xB12 JUMPI PUSH2 0xB12 PUSH2 0x27D3 JUMP JUMPDEST PUSH1 0x0 DUP3 PUSH2 0x2957 JUMPI PUSH4 0x4E487B71 PUSH1 0xE0 SHL PUSH1 0x0 MSTORE PUSH1 0x12 PUSH1 0x4 MSTORE PUSH1 0x24 PUSH1 0x0 REVERT JUMPDEST POP DIV SWAP1 JUMP JUMPDEST PUSH1 0x0 PUSH1 0x20 DUP3 DUP5 SUB SLT ISZERO PUSH2 0x296E JUMPI PUSH1 0x0 DUP1 REVERT JUMPDEST POP MLOAD SWAP2 SWAP1 POP JUMP JUMPDEST PUSH1 0x0 DUP1 PUSH1 0x40 DUP4 DUP6 SUB SLT ISZERO PUSH2 0x2988 JUMPI PUSH1 0x0 DUP1 REVERT JUMPDEST DUP3 MLOAD PUSH2 0x2993 DUP2 PUSH2 0x249B JUMP JUMPDEST PUSH1 0x20 SWAP4 SWAP1 SWAP4 ADD MLOAD SWAP3 SWAP5 SWAP3 SWAP4 POP POP POP JUMP JUMPDEST DUP2 DUP2 SUB DUP2 DUP2 GT ISZERO PUSH2 0xB12 JUMPI PUSH2 0xB12 PUSH2 0x27D3 JUMP INVALID LOG2 PUSH5 0x6970667358 0x22 SLT KECCAK256 0xA5 SHR SWAP16 0xC9 NOT 0xBD COINBASE DUP11 0xE7 GT PUSH25 0xF49554FA42B3D284EA03E9EDFE1BB81B3FEFD6310E64736F6C PUSH4 0x43000814 STOP CALLER MSIZE 0xAB 0xB1 LOG2 BYTE 0xC9 0xC0 0x2D SWAP13 0x21 PUSH19 0x85768A906AF17496E4CADA7962F129B92F0AC9 BASEFEE 0xCF "},"methodIdentifiers":{"EXECUTION_DELAY()":"37f135d7","FEE_CHANGE_DELAY()":"be8a361f","LOCK_180_DAYS()":"82865218","LOCK_30_DAYS()":"7c6e5db7","LOCK_365_DAYS()":"51383f98","LOCK_90_DAYS()":"e37c3a55","MAX_TOTAL_FEE_BP()":"7c4ccbea","PROPOSAL_THRESHOLD()":"a6c26603","QUORUM_PERCENTAGE()":"ee8a7c15","TOTAL_SUPPLY()":"902d55a5","VOTING_PERIOD()":"b1610d7e","addToRewardPool(uint256)":"b95ffbce","allowance(address,address)":"dd62ed3e","approve(address,uint256)":"095ea7b3","balanceOf(address)":"70a08231","burn(uint256)":"42966c68","decimals()":"313ce567","emergencyPause()":"51858e27","emergencyUnpause()":"4a4e3bd5","execute(uint256)":"fe0d94c1","executor()":"c34c08e5","feeToBurnBP()":"120a8151","feeToFounderBP()":"118725ce","feeToTreasuryBP()":"55ef9b5e","founderWallet()":"a23d3c35","getVotingPower(address)":"bb4d4436","hasVoted(uint256,address)":"43859632","isFeeExempt(address)":"3f4218e0","lastFeeChange()":"69505688","lastTxBlock(address)":"ceb88a16","lastTxTime(address)":"17d63605","name()":"06fdde03","owner()":"8da5cb5b","paused()":"5c975abb","proposalCount()":"da35c664","proposals(uint256)":"013cf08b","propose(string,uint8,bytes)":"ad1cecb2","protectedTransfer(address,uint256,uint256)":"8893002f","renounceOwnership()":"715018a6","rewardPool()":"66666aa9","setExecutor(address)":"1c3c0ea8","setFeeDistribution(uint256,uint256,uint256)":"ba8e568f","setFeeExempt(address,bool)":"8ebfc796","setTotalFeeBP(uint256)":"1f1f5bb3","stakingAPY(uint256)":"875bb4e2","symbol()":"95d89b41","tokenStats()":"b0dfd2e6","totalFeeBP()":"f6141345","totalStaked()":"817b1cd2","totalSupply()":"18160ddd","transfer(address,uint256)":"a9059cbb","transferFrom(address,address,uint256)":"23b872dd","transferOwnership(address)":"f2fde38b","treasury()":"61d027b3","txLimits()":"f270fde4","usedNonces(bytes32)":"feb61724","userStakes(address,uint256)":"b5d5b5fa","userStats(address)":"8a65d874","vote(uint256,bool)":"c9d27afe","votingPower(uint256,address)":"d90125a5"}}}}}