{"contracts/FIACoin.sol":{"FIACoin":{"abi":[{"inputs":[{"internalType":"address","name":"_treasury","type":"address"},{"internalType":"address","name":"_founder","type":"address"}],"stateMutability":"nonpayable","type":"constructor"},{"inputs":[{"internalType":"address","name":"spender","type":"address"},{"internalType":"uint256","name":"allowance","type":"uint256"},{"internalType":"uint256","name":"needed","type":"uint256"}],"name":"ERC20InsufficientAllowance","type":"error"},{"inputs":[{"internalType":"address","name":"sender","type":"address"},{"internalType":"uint256","name":"balance","type":"uint256"},{"internalType":"uint256","name":"needed","type":"uint256"}],"name":"ERC20InsufficientBalance","type":"error"},{"inputs":[{"internalType":"address","name":"approver","type":"address"}],"name":"ERC20InvalidApprover","type":"error"},{"inputs":[{"internalType":"address","name":"receiver","type":"address"}],"name":"ERC20InvalidReceiver","type":"error"},{"inputs":[{"internalType":"address","name":"sender","type":"address"}],"name":"ERC20InvalidSender","type":"error"},{"inputs":[{"internalType":"address","name":"spender","type":"address"}],"name":"ERC20InvalidSpender","type":"error"},{"inputs":[{"internalType":"address","name":"owner","type":"address"}],"name":"OwnableInvalidOwner","type":"error"},{"inputs":[{"internalType":"address","name":"account","type":"address"}],"name":"OwnableUnauthorizedAccount","type":"error"},{"anonymous":false,"inputs":[{"indexed":true,"internalType":"address","name":"owner","type":"address"},{"indexed":true,"internalType":"address","name":"spender","type":"address"},{"indexed":false,"internalType":"uint256","name":"value","type":"uint256"}],"name":"Approval","type":"event"},{"anonymous":false,"inputs":[{"indexed":true,"internalType":"address","name":"from","type":"address"},{"indexed":true,"internalType":"address","name":"to","type":"address"},{"indexed":false,"internalType":"uint256","name":"amount","type":"uint256"}],"name":"Fingered","type":"event"},{"anonymous":false,"inputs":[{"indexed":true,"internalType":"address","name":"previousOwner","type":"address"},{"indexed":true,"internalType":"address","name":"newOwner","type":"address"}],"name":"OwnershipTransferred","type":"event"},{"anonymous":false,"inputs":[{"indexed":true,"internalType":"address","name":"from","type":"address"},{"indexed":true,"internalType":"address","name":"to","type":"address"},{"indexed":false,"internalType":"uint256","name":"value","type":"uint256"}],"name":"Transfer","type":"event"},{"inputs":[],"name":"MAX_TOTAL_FEE_BP","outputs":[{"internalType":"uint256","name":"","type":"uint256"}],"stateMutability":"view","type":"function"},{"inputs":[{"internalType":"address","name":"owner","type":"address"},{"internalType":"address","name":"spender","type":"address"}],"name":"allowance","outputs":[{"internalType":"uint256","name":"","type":"uint256"}],"stateMutability":"view","type":"function"},{"inputs":[{"internalType":"address","name":"spender","type":"address"},{"internalType":"uint256","name":"value","type":"uint256"}],"name":"approve","outputs":[{"internalType":"bool","name":"","type":"bool"}],"stateMutability":"nonpayable","type":"function"},{"inputs":[{"internalType":"address","name":"account","type":"address"}],"name":"balanceOf","outputs":[{"internalType":"uint256","name":"","type":"uint256"}],"stateMutability":"view","type":"function"},{"inputs":[{"internalType":"uint256","name":"amount","type":"uint256"}],"name":"burn","outputs":[],"stateMutability":"nonpayable","type":"function"},{"inputs":[],"name":"decimals","outputs":[{"internalType":"uint8","name":"","type":"uint8"}],"stateMutability":"view","type":"function"},{"inputs":[],"name":"feeToBurnBP","outputs":[{"internalType":"uint256","name":"","type":"uint256"}],"stateMutability":"view","type":"function"},{"inputs":[],"name":"feeToFounderBP","outputs":[{"internalType":"uint256","name":"","type":"uint256"}],"stateMutability":"view","type":"function"},{"inputs":[],"name":"feeToTreasuryBP","outputs":[{"internalType":"uint256","name":"","type":"uint256"}],"stateMutability":"view","type":"function"},{"inputs":[],"name":"founderWallet","outputs":[{"internalType":"address","name":"","type":"address"}],"stateMutability":"view","type":"function"},{"inputs":[{"internalType":"address","name":"","type":"address"}],"name":"isFeeExempt","outputs":[{"internalType":"bool","name":"","type":"bool"}],"stateMutability":"view","type":"function"},{"inputs":[],"name":"name","outputs":[{"internalType":"string","name":"","type":"string"}],"stateMutability":"view","type":"function"},{"inputs":[],"name":"owner","outputs":[{"internalType":"address","name":"","type":"address"}],"stateMutability":"view","type":"function"},{"inputs":[],"name":"renounceOwnership","outputs":[],"stateMutability":"nonpayable","type":"function"},{"inputs":[],"name":"symbol","outputs":[{"internalType":"string","name":"","type":"string"}],"stateMutability":"view","type":"function"},{"inputs":[],"name":"totalFeeBP","outputs":[{"internalType":"uint256","name":"","type":"uint256"}],"stateMutability":"view","type":"function"},{"inputs":[],"name":"totalSupply","outputs":[{"internalType":"uint256","name":"","type":"uint256"}],"stateMutability":"view","type":"function"},{"inputs":[{"internalType":"address","name":"to","type":"address"},{"internalType":"uint256","name":"value","type":"uint256"}],"name":"transfer","outputs":[{"internalType":"bool","name":"","type":"bool"}],"stateMutability":"nonpayable","type":"function"},{"inputs":[{"internalType":"address","name":"from","type":"address"},{"internalType":"address","name":"to","type":"address"},{"internalType":"uint256","name":"value","type":"uint256"}],"name":"transferFrom","outputs":[{"internalType":"bool","name":"","type":"bool"}],"stateMutability":"nonpayable","type":"function"},{"inputs":[{"internalType":"address","name":"newOwner","type":"address"}],"name":"transferOwnership","outputs":[],"stateMutability":"nonpayable","type":"function"},{"inputs":[],"name":"treasury","outputs":[{"internalType":"address","name":"","type":"address"}],"stateMutability":"view","type":"function"}],"evm":{"bytecode":{"linkReferences":{},"object":"6080604052606460065560326007556014600855601e6009553480156200002557600080fd5b50604051620015dd380380620015dd833981016040819052620000489162000636565b336040518060400160405280600d81526020016c46696e67657220496e2041737360981b8152506040518060400160405280600381526020016246494160e81b81525081600390816200009c919062000712565b506004620000ab828262000712565b5050506001600160a01b038116620000de57604051631e4fbdf760e01b8152600060048201526024015b60405180910390fd5b620000e981620001f5565b506001600160a01b038216158015906200010b57506001600160a01b03811615155b620001455760405162461bcd60e51b81526020600482015260096024820152683d32b9379030b2323960b91b6044820152606401620000d5565b600a80546001600160a01b038085166001600160a01b031992831617909255600b805492841692909116919091179055620001a63362000183601290565b6200019090600a620008f3565b620001a090633b9aca006200090b565b62000247565b336000908152600c60205260408082208054600160ff1991821681179092556001600160a01b039586168452828420805482168317905593909416825290208054909116909117905562000974565b600580546001600160a01b038381166001600160a01b0319831681179093556040519116919082907f8be0079c531659141344cd1fd0a4f28419497f9722a3daafe3b4186f6b6457e090600090a35050565b6001600160a01b038216620002735760405163ec442f0560e01b815260006004820152602401620000d5565b620002816000838362000285565b5050565b6001600160a01b0383161580620002a357506001600160a01b038216155b80620002af5750600654155b80620002d357506001600160a01b0383166000908152600c602052604090205460ff165b80620002f757506001600160a01b0382166000908152600c602052604090205460ff165b1562000374576200030a838383620004b9565b6001600160a01b038316158015906200032b57506001600160a01b03821615155b156200036f57816001600160a01b0316836001600160a01b0316600080516020620015bd833981519152836040516200036691815260200190565b60405180910390a35b505050565b6000612710600654836200038991906200090b565b62000395919062000925565b9050600060065460075483620003ac91906200090b565b620003b8919062000925565b9050600060065460085484620003cf91906200090b565b620003db919062000925565b9050600060065460095485620003f291906200090b565b620003fe919062000925565b905060006200040e858762000948565b90506200041d888883620004b9565b83156200043e57600a546200043e9089906001600160a01b031686620004b9565b82156200045f57600b546200045f9089906001600160a01b031685620004b9565b81156200047257620004728883620005df565b866001600160a01b0316886001600160a01b0316600080516020620015bd83398151915288604051620004a791815260200190565b60405180910390a35050505050505050565b6001600160a01b038316620004e8578060026000828254620004dc91906200095e565b909155506200055c9050565b6001600160a01b038316600090815260208190526040902054818110156200053d5760405163391434e360e21b81526001600160a01b03851660048201526024810182905260448101839052606401620000d5565b6001600160a01b03841660009081526020819052604090209082900390555b6001600160a01b0382166200057a5760028054829003905562000599565b6001600160a01b03821660009081526020819052604090208054820190555b816001600160a01b0316836001600160a01b03167fddf252ad1be2c89b69c2b068fc378daa952ba7f163c4a11628f55a4df523b3ef836040516200036691815260200190565b6001600160a01b0382166200060b57604051634b637e8f60e11b815260006004820152602401620000d5565b620002818260008362000285565b80516001600160a01b03811681146200063157600080fd5b919050565b600080604083850312156200064a57600080fd5b620006558362000619565b9150620006656020840162000619565b90509250929050565b634e487b7160e01b600052604160045260246000fd5b600181811c908216806200069957607f821691505b602082108103620006ba57634e487b7160e01b600052602260045260246000fd5b50919050565b601f8211156200036f57600081815260208120601f850160051c81016020861015620006e95750805b601f850160051c820191505b818110156200070a57828155600101620006f5565b505050505050565b81516001600160401b038111156200072e576200072e6200066e565b62000746816200073f845462000684565b84620006c0565b602080601f8311600181146200077e5760008415620007655750858301515b600019600386901b1c1916600185901b1785556200070a565b600085815260208120601f198616915b82811015620007af578886015182559484019460019091019084016200078e565b5085821015620007ce5787850151600019600388901b60f8161c191681555b5050505050600190811b01905550565b634e487b7160e01b600052601160045260246000fd5b600181815b8085111562000835578160001904821115620008195762000819620007de565b808516156200082757918102915b93841c9390800290620007f9565b509250929050565b6000826200084e57506001620008ed565b816200085d57506000620008ed565b81600181146200087657600281146200088157620008a1565b6001915050620008ed565b60ff841115620008955762000895620007de565b50506001821b620008ed565b5060208310610133831016604e8410600b8410161715620008c6575081810a620008ed565b620008d28383620007f4565b8060001904821115620008e957620008e9620007de565b0290505b92915050565b60006200090460ff8416836200083d565b9392505050565b8082028115828204841417620008ed57620008ed620007de565b6000826200094357634e487b7160e01b600052601260045260246000fd5b500490565b81810381811115620008ed57620008ed620007de565b80820180821115620008ed57620008ed620007de565b610c3980620009846000396000f3fe608060405234801561001057600080fd5b50600436106101375760003560e01c806361d027b3116100b857806395d89b411161007c57806395d89b411461027d578063a23d3c3514610285578063a9059cbb14610298578063dd62ed3e146102ab578063f2fde38b146102e4578063f6141345146102f757600080fd5b806361d027b31461020857806370a0823114610233578063715018a61461025c5780637c4ccbea146102645780638da5cb5b1461026c57600080fd5b806323b872dd116100ff57806323b872dd146101a5578063313ce567146101b85780633f4218e0146101c757806342966c68146101ea57806355ef9b5e146101ff57600080fd5b806306fdde031461013c578063095ea7b31461015a578063118725ce1461017d578063120a81511461019457806318160ddd1461019d575b600080fd5b610144610300565b6040516101519190610a16565b60405180910390f35b61016d610168366004610a80565b610392565b6040519015158152602001610151565b61018660085481565b604051908152602001610151565b61018660095481565b600254610186565b61016d6101b3366004610aaa565b6103ac565b60405160128152602001610151565b61016d6101d5366004610ae6565b600c6020526000908152604090205460ff1681565b6101fd6101f8366004610b08565b6103d0565b005b61018660075481565b600a5461021b906001600160a01b031681565b6040516001600160a01b039091168152602001610151565b610186610241366004610ae6565b6001600160a01b031660009081526020819052604090205490565b6101fd6103dd565b61018660c881565b6005546001600160a01b031661021b565b6101446103f1565b600b5461021b906001600160a01b031681565b61016d6102a6366004610a80565b610400565b6101866102b9366004610b21565b6001600160a01b03918216600090815260016020908152604080832093909416825291909152205490565b6101fd6102f2366004610ae6565b61040e565b61018660065481565b60606003805461030f90610b54565b80601f016020809104026020016040519081016040528092919081815260200182805461033b90610b54565b80156103885780601f1061035d57610100808354040283529160200191610388565b820191906000526020600020905b81548152906001019060200180831161036b57829003601f168201915b5050505050905090565b6000336103a081858561044e565b60019150505b92915050565b6000336103ba858285610460565b6103c58585856104df565b506001949350505050565b6103da338261053e565b50565b6103e5610578565b6103ef60006105a5565b565b60606004805461030f90610b54565b6000336103a08185856104df565b610416610578565b6001600160a01b03811661044557604051631e4fbdf760e01b8152600060048201526024015b60405180910390fd5b6103da816105a5565b61045b83838360016105f7565b505050565b6001600160a01b038381166000908152600160209081526040808320938616835292905220546000198110156104d957818110156104ca57604051637dc7a0d960e11b81526001600160a01b0384166004820152602481018290526044810183905260640161043c565b6104d9848484840360006105f7565b50505050565b6001600160a01b03831661050957604051634b637e8f60e11b81526000600482015260240161043c565b6001600160a01b0382166105335760405163ec442f0560e01b81526000600482015260240161043c565b61045b8383836106cc565b6001600160a01b03821661056857604051634b637e8f60e11b81526000600482015260240161043c565b610574826000836106cc565b5050565b6005546001600160a01b031633146103ef5760405163118cdaa760e01b815233600482015260240161043c565b600580546001600160a01b038381166001600160a01b0319831681179093556040519116919082907f8be0079c531659141344cd1fd0a4f28419497f9722a3daafe3b4186f6b6457e090600090a35050565b6001600160a01b0384166106215760405163e602df0560e01b81526000600482015260240161043c565b6001600160a01b03831661064b57604051634a1406b160e11b81526000600482015260240161043c565b6001600160a01b03808516600090815260016020908152604080832093871683529290522082905580156104d957826001600160a01b0316846001600160a01b03167f8c5be1e5ebec7d5bd14f71427d1e84f3dd0314c0f7b2291e5b200ac8c7c3b925846040516106be91815260200190565b60405180910390a350505050565b6001600160a01b03831615806106e957506001600160a01b038216155b806106f45750600654155b8061071757506001600160a01b0383166000908152600c602052604090205460ff165b8061073a57506001600160a01b0382166000908152600c602052604090205460ff165b156107c15761074a8383836108f9565b6001600160a01b0383161580159061076a57506001600160a01b03821615155b1561045b57816001600160a01b0316836001600160a01b03167f59abb1a21ac9c02d9c217285768a906af17496e4cada7962f129b92f0ac948cf836040516107b491815260200190565b60405180910390a3505050565b6000612710600654836107d49190610ba4565b6107de9190610bbb565b90506000600654600754836107f39190610ba4565b6107fd9190610bbb565b90506000600654600854846108129190610ba4565b61081c9190610bbb565b90506000600654600954856108319190610ba4565b61083b9190610bbb565b905060006108498587610bdd565b90506108568888836108f9565b831561087457600a546108749089906001600160a01b0316866108f9565b821561089257600b546108929089906001600160a01b0316856108f9565b81156108a2576108a2888361053e565b866001600160a01b0316886001600160a01b03167f59abb1a21ac9c02d9c217285768a906af17496e4cada7962f129b92f0ac948cf886040516108e791815260200190565b60405180910390a35050505050505050565b6001600160a01b0383166109245780600260008282546109199190610bf0565b909155506109969050565b6001600160a01b038316600090815260208190526040902054818110156109775760405163391434e360e21b81526001600160a01b0385166004820152602481018290526044810183905260640161043c565b6001600160a01b03841660009081526020819052604090209082900390555b6001600160a01b0382166109b2576002805482900390556109d1565b6001600160a01b03821660009081526020819052604090208054820190555b816001600160a01b0316836001600160a01b03167fddf252ad1be2c89b69c2b068fc378daa952ba7f163c4a11628f55a4df523b3ef836040516107b491815260200190565b600060208083528351808285015260005b81811015610a4357858101830151858201604001528201610a27565b506000604082860101526040601f19601f8301168501019250505092915050565b80356001600160a01b0381168114610a7b57600080fd5b919050565b60008060408385031215610a9357600080fd5b610a9c83610a64565b946020939093013593505050565b600080600060608486031215610abf57600080fd5b610ac884610a64565b9250610ad660208501610a64565b9150604084013590509250925092565b600060208284031215610af857600080fd5b610b0182610a64565b9392505050565b600060208284031215610b1a57600080fd5b5035919050565b60008060408385031215610b3457600080fd5b610b3d83610a64565b9150610b4b60208401610a64565b90509250929050565b600181811c90821680610b6857607f821691505b602082108103610b8857634e487b7160e01b600052602260045260246000fd5b50919050565b634e487b7160e01b600052601160045260246000fd5b80820281158282048414176103a6576103a6610b8e565b600082610bd857634e487b7160e01b600052601260045260246000fd5b500490565b818103818111156103a6576103a6610b8e565b808201808211156103a6576103a6610b8e56fea2646970667358221220f34ca74f46dabd1eb8ba706230fe3370ac18475f55699ca99a40926d6897dbf664736f6c6343000814003359abb1a21ac9c02d9c217285768a906af17496e4cada7962f129b92f0ac948cf","opcodes":"PUSH1 0x80 PUSH1 0x40 MSTORE PUSH1 0x64 PUSH1 0x6 SSTORE PUSH1 0x32 PUSH1 0x7 SSTORE PUSH1 0x14 PUSH1 0x8 SSTORE PUSH1 0x1E PUSH1 0x9 SSTORE CALLVALUE DUP1 ISZERO PUSH3 0x25 JUMPI PUSH1 0x0 DUP1 REVERT JUMPDEST POP PUSH1 0x40 MLOAD PUSH3 0x15DD CODESIZE SUB DUP1 PUSH3 0x15DD DUP4 CODECOPY DUP2 ADD PUSH1 0x40 DUP2 SWAP1 MSTORE PUSH3 0x48 SWAP2 PUSH3 0x636 JUMP JUMPDEST CALLER PUSH1 0x40 MLOAD DUP1 PUSH1 0x40 ADD PUSH1 0x40 MSTORE DUP1 PUSH1 0xD DUP2 MSTORE PUSH1 0x20 ADD PUSH13 0x46696E67657220496E20417373 PUSH1 0x98 SHL DUP2 MSTORE POP PUSH1 0x40 MLOAD DUP1 PUSH1 0x40 ADD PUSH1 0x40 MSTORE DUP1 PUSH1 0x3 DUP2 MSTORE PUSH1 0x20 ADD PUSH3 0x464941 PUSH1 0xE8 SHL DUP2 MSTORE POP DUP2 PUSH1 0x3 SWAP1 DUP2 PUSH3 0x9C SWAP2 SWAP1 PUSH3 0x712 JUMP JUMPDEST POP PUSH1 0x4 PUSH3 0xAB DUP3 DUP3 PUSH3 0x712 JUMP JUMPDEST POP POP POP PUSH1 0x1 PUSH1 0x1 PUSH1 0xA0 SHL SUB DUP2 AND PUSH3 0xDE JUMPI PUSH1 0x40 MLOAD PUSH4 0x1E4FBDF7 PUSH1 0xE0 SHL DUP2 MSTORE PUSH1 0x0 PUSH1 0x4 DUP3 ADD MSTORE PUSH1 0x24 ADD JUMPDEST PUSH1 0x40 MLOAD DUP1 SWAP2 SUB SWAP1 REVERT JUMPDEST PUSH3 0xE9 DUP2 PUSH3 0x1F5 JUMP JUMPDEST POP PUSH1 0x1 PUSH1 0x1 PUSH1 0xA0 SHL SUB DUP3 AND ISZERO DUP1 ISZERO SWAP1 PUSH3 0x10B JUMPI POP PUSH1 0x1 PUSH1 0x1 PUSH1 0xA0 SHL SUB DUP2 AND ISZERO ISZERO JUMPDEST PUSH3 0x145 JUMPI PUSH1 0x40 MLOAD PUSH3 0x461BCD PUSH1 0xE5 SHL DUP2 MSTORE PUSH1 0x20 PUSH1 0x4 DUP3 ADD MSTORE PUSH1 0x9 PUSH1 0x24 DUP3 ADD MSTORE PUSH9 0x3D32B9379030B23239 PUSH1 0xB9 SHL PUSH1 0x44 DUP3 ADD MSTORE PUSH1 0x64 ADD PUSH3 0xD5 JUMP JUMPDEST PUSH1 0xA DUP1 SLOAD PUSH1 0x1 PUSH1 0x1 PUSH1 0xA0 SHL SUB DUP1 DUP6 AND PUSH1 0x1 PUSH1 0x1 PUSH1 0xA0 SHL SUB NOT SWAP3 DUP4 AND OR SWAP1 SWAP3 SSTORE PUSH1 0xB DUP1 SLOAD SWAP3 DUP5 AND SWAP3 SWAP1 SWAP2 AND SWAP2 SWAP1 SWAP2 OR SWAP1 SSTORE PUSH3 0x1A6 CALLER PUSH3 0x183 PUSH1 0x12 SWAP1 JUMP JUMPDEST PUSH3 0x190 SWAP1 PUSH1 0xA PUSH3 0x8F3 JUMP JUMPDEST PUSH3 0x1A0 SWAP1 PUSH4 0x3B9ACA00 PUSH3 0x90B JUMP JUMPDEST PUSH3 0x247 JUMP JUMPDEST CALLER PUSH1 0x0 SWAP1 DUP2 MSTORE PUSH1 0xC PUSH1 0x20 MSTORE PUSH1 0x40 DUP1 DUP3 KECCAK256 DUP1 SLOAD PUSH1 0x1 PUSH1 0xFF NOT SWAP2 DUP3 AND DUP2 OR SWAP1 SWAP3 SSTORE PUSH1 0x1 PUSH1 0x1 PUSH1 0xA0 SHL SUB SWAP6 DUP7 AND DUP5 MSTORE DUP3 DUP5 KECCAK256 DUP1 SLOAD DUP3 AND DUP4 OR SWAP1 SSTORE SWAP4 SWAP1 SWAP5 AND DUP3 MSTORE SWAP1 KECCAK256 DUP1 SLOAD SWAP1 SWAP2 AND SWAP1 SWAP2 OR SWAP1 SSTORE PUSH3 0x974 JUMP JUMPDEST PUSH1 0x5 DUP1 SLOAD PUSH1 0x1 PUSH1 0x1 PUSH1 0xA0 SHL SUB DUP4 DUP2 AND PUSH1 0x1 PUSH1 0x1 PUSH1 0xA0 SHL SUB NOT DUP4 AND DUP2 OR SWAP1 SWAP4 SSTORE PUSH1 0x40 MLOAD SWAP2 AND SWAP2 SWAP1 DUP3 SWAP1 PUSH32 0x8BE0079C531659141344CD1FD0A4F28419497F9722A3DAAFE3B4186F6B6457E0 SWAP1 PUSH1 0x0 SWAP1 LOG3 POP POP JUMP JUMPDEST PUSH1 0x1 PUSH1 0x1 PUSH1 0xA0 SHL SUB DUP3 AND PUSH3 0x273 JUMPI PUSH1 0x40 MLOAD PUSH4 0xEC442F05 PUSH1 0xE0 SHL DUP2 MSTORE PUSH1 0x0 PUSH1 0x4 DUP3 ADD MSTORE PUSH1 0x24 ADD PUSH3 0xD5 JUMP JUMPDEST PUSH3 0x281 PUSH1 0x0 DUP4 DUP4 PUSH3 0x285 JUMP JUMPDEST POP POP JUMP JUMPDEST PUSH1 0x1 PUSH1 0x1 PUSH1 0xA0 SHL SUB DUP4 AND ISZERO DUP1 PUSH3 0x2A3 JUMPI POP PUSH1 0x1 PUSH1 0x1 PUSH1 0xA0 SHL SUB DUP3 AND ISZERO JUMPDEST DUP1 PUSH3 0x2AF JUMPI POP PUSH1 0x6 SLOAD ISZERO JUMPDEST DUP1 PUSH3 0x2D3 JUMPI POP PUSH1 0x1 PUSH1 0x1 PUSH1 0xA0 SHL SUB DUP4 AND PUSH1 0x0 SWAP1 DUP2 MSTORE PUSH1 0xC PUSH1 0x20 MSTORE PUSH1 0x40 SWAP1 KECCAK256 SLOAD PUSH1 0xFF AND JUMPDEST DUP1 PUSH3 0x2F7 JUMPI POP PUSH1 0x1 PUSH1 0x1 PUSH1 0xA0 SHL SUB DUP3 AND PUSH1 0x0 SWAP1 DUP2 MSTORE PUSH1 0xC PUSH1 0x20 MSTORE PUSH1 0x40 SWAP1 KECCAK256 SLOAD PUSH1 0xFF AND JUMPDEST ISZERO PUSH3 0x374 JUMPI PUSH3 0x30A DUP4 DUP4 DUP4 PUSH3 0x4B9 JUMP JUMPDEST PUSH1 0x1 PUSH1 0x1 PUSH1 0xA0 SHL SUB DUP4 AND ISZERO DUP1 ISZERO SWAP1 PUSH3 0x32B JUMPI POP PUSH1 0x1 PUSH1 0x1 PUSH1 0xA0 SHL SUB DUP3 AND ISZERO ISZERO JUMPDEST ISZERO PUSH3 0x36F JUMPI DUP2 PUSH1 0x1 PUSH1 0x1 PUSH1 0xA0 SHL SUB AND DUP4 PUSH1 0x1 PUSH1 0x1 PUSH1 0xA0 SHL SUB AND PUSH1 0x0 DUP1 MLOAD PUSH1 0x20 PUSH3 0x15BD DUP4 CODECOPY DUP2 MLOAD SWAP2 MSTORE DUP4 PUSH1 0x40 MLOAD PUSH3 0x366 SWAP2 DUP2 MSTORE PUSH1 0x20 ADD SWAP1 JUMP JUMPDEST PUSH1 0x40 MLOAD DUP1 SWAP2 SUB SWAP1 LOG3 JUMPDEST POP POP POP JUMP JUMPDEST PUSH1 0x0 PUSH2 0x2710 PUSH1 0x6 SLOAD DUP4 PUSH3 0x389 SWAP2 SWAP1 PUSH3 0x90B JUMP JUMPDEST PUSH3 0x395 SWAP2 SWAP1 PUSH3 0x925 JUMP JUMPDEST SWAP1 POP PUSH1 0x0 PUSH1 0x6 SLOAD PUSH1 0x7 SLOAD DUP4 PUSH3 0x3AC SWAP2 SWAP1 PUSH3 0x90B JUMP JUMPDEST PUSH3 0x3B8 SWAP2 SWAP1 PUSH3 0x925 JUMP JUMPDEST SWAP1 POP PUSH1 0x0 PUSH1 0x6 SLOAD PUSH1 0x8 SLOAD DUP5 PUSH3 0x3CF SWAP2 SWAP1 PUSH3 0x90B JUMP JUMPDEST PUSH3 0x3DB SWAP2 SWAP1 PUSH3 0x925 JUMP JUMPDEST SWAP1 POP PUSH1 0x0 PUSH1 0x6 SLOAD PUSH1 0x9 SLOAD DUP6 PUSH3 0x3F2 SWAP2 SWAP1 PUSH3 0x90B JUMP JUMPDEST PUSH3 0x3FE SWAP2 SWAP1 PUSH3 0x925 JUMP JUMPDEST SWAP1 POP PUSH1 0x0 PUSH3 0x40E DUP6 DUP8 PUSH3 0x948 JUMP JUMPDEST SWAP1 POP PUSH3 0x41D DUP9 DUP9 DUP4 PUSH3 0x4B9 JUMP JUMPDEST DUP4 ISZERO PUSH3 0x43E JUMPI PUSH1 0xA SLOAD PUSH3 0x43E SWAP1 DUP10 SWAP1 PUSH1 0x1 PUSH1 0x1 PUSH1 0xA0 SHL SUB AND DUP7 PUSH3 0x4B9 JUMP JUMPDEST DUP3 ISZERO PUSH3 0x45F JUMPI PUSH1 0xB SLOAD PUSH3 0x45F SWAP1 DUP10 SWAP1 PUSH1 0x1 PUSH1 0x1 PUSH1 0xA0 SHL SUB AND DUP6 PUSH3 0x4B9 JUMP JUMPDEST DUP2 ISZERO PUSH3 0x472 JUMPI PUSH3 0x472 DUP9 DUP4 PUSH3 0x5DF JUMP JUMPDEST DUP7 PUSH1 0x1 PUSH1 0x1 PUSH1 0xA0 SHL SUB AND DUP9 PUSH1 0x1 PUSH1 0x1 PUSH1 0xA0 SHL SUB AND PUSH1 0x0 DUP1 MLOAD PUSH1 0x20 PUSH3 0x15BD DUP4 CODECOPY DUP2 MLOAD SWAP2 MSTORE DUP9 PUSH1 0x40 MLOAD PUSH3 0x4A7 SWAP2 DUP2 MSTORE PUSH1 0x20 ADD SWAP1 JUMP JUMPDEST PUSH1 0x40 MLOAD DUP1 SWAP2 SUB SWAP1 LOG3 POP POP POP POP POP POP POP POP JUMP JUMPDEST PUSH1 0x1 PUSH1 0x1 PUSH1 0xA0 SHL SUB DUP4 AND PUSH3 0x4E8 JUMPI DUP1 PUSH1 0x2 PUSH1 0x0 DUP3 DUP3 SLOAD PUSH3 0x4DC SWAP2 SWAP1 PUSH3 0x95E JUMP JUMPDEST SWAP1 SWAP2 SSTORE POP PUSH3 0x55C SWAP1 POP JUMP JUMPDEST PUSH1 0x1 PUSH1 0x1 PUSH1 0xA0 SHL SUB DUP4 AND PUSH1 0x0 SWAP1 DUP2 MSTORE PUSH1 0x20 DUP2 SWAP1 MSTORE PUSH1 0x40 SWAP1 KECCAK256 SLOAD DUP2 DUP2 LT ISZERO PUSH3 0x53D JUMPI PUSH1 0x40 MLOAD PUSH4 0x391434E3 PUSH1 0xE2 SHL DUP2 MSTORE PUSH1 0x1 PUSH1 0x1 PUSH1 0xA0 SHL SUB DUP6 AND PUSH1 0x4 DUP3 ADD MSTORE PUSH1 0x24 DUP2 ADD DUP3 SWAP1 MSTORE PUSH1 0x44 DUP2 ADD DUP4 SWAP1 MSTORE PUSH1 0x64 ADD PUSH3 0xD5 JUMP JUMPDEST PUSH1 0x1 PUSH1 0x1 PUSH1 0xA0 SHL SUB DUP5 AND PUSH1 0x0 SWAP1 DUP2 MSTORE PUSH1 0x20 DUP2 SWAP1 MSTORE PUSH1 0x40 SWAP1 KECCAK256 SWAP1 DUP3 SWAP1 SUB SWAP1 SSTORE JUMPDEST PUSH1 0x1 PUSH1 0x1 PUSH1 0xA0 SHL SUB DUP3 AND PUSH3 0x57A JUMPI PUSH1 0x2 DUP1 SLOAD DUP3 SWAP1 SUB SWAP1 SSTORE PUSH3 0x599 JUMP JUMPDEST PUSH1 0x1 PUSH1 0x1 PUSH1 0xA0 SHL SUB DUP3 AND PUSH1 0x0 SWAP1 DUP2 MSTORE PUSH1 0x20 DUP2 SWAP1 MSTORE PUSH1 0x40 SWAP1 KECCAK256 DUP1 SLOAD DUP3 ADD SWAP1 SSTORE JUMPDEST DUP2 PUSH1 0x1 PUSH1 0x1 PUSH1 0xA0 SHL SUB AND DUP4 PUSH1 0x1 PUSH1 0x1 PUSH1 0xA0 SHL SUB AND PUSH32 0xDDF252AD1BE2C89B69C2B068FC378DAA952BA7F163C4A11628F55A4DF523B3EF DUP4 PUSH1 0x40 MLOAD PUSH3 0x366 SWAP2 DUP2 MSTORE PUSH1 0x20 ADD SWAP1 JUMP JUMPDEST PUSH1 0x1 PUSH1 0x1 PUSH1 0xA0 SHL SUB DUP3 AND PUSH3 0x60B JUMPI PUSH1 0x40 MLOAD PUSH4 0x4B637E8F PUSH1 0xE1 SHL DUP2 MSTORE PUSH1 0x0 PUSH1 0x4 DUP3 ADD MSTORE PUSH1 0x24 ADD PUSH3 0xD5 JUMP JUMPDEST PUSH3 0x281 DUP3 PUSH1 0x0 DUP4 PUSH3 0x285 JUMP JUMPDEST DUP1 MLOAD PUSH1 0x1 PUSH1 0x1 PUSH1 0xA0 SHL SUB DUP2 AND DUP2 EQ PUSH3 0x631 JUMPI PUSH1 0x0 DUP1 REVERT JUMPDEST SWAP2 SWAP1 POP JUMP JUMPDEST PUSH1 0x0 DUP1 PUSH1 0x40 DUP4 DUP6 SUB SLT ISZERO PUSH3 0x64A JUMPI PUSH1 0x0 DUP1 REVERT JUMPDEST PUSH3 0x655 DUP4 PUSH3 0x619 JUMP JUMPDEST SWAP2 POP PUSH3 0x665 PUSH1 0x20 DUP5 ADD PUSH3 0x619 JUMP JUMPDEST SWAP1 POP SWAP3 POP SWAP3 SWAP1 POP JUMP JUMPDEST PUSH4 0x4E487B71 PUSH1 0xE0 SHL PUSH1 0x0 MSTORE PUSH1 0x41 PUSH1 0x4 MSTORE PUSH1 0x24 PUSH1 0x0 REVERT JUMPDEST PUSH1 0x1 DUP2 DUP2 SHR SWAP1 DUP3 AND DUP1 PUSH3 0x699 JUMPI PUSH1 0x7F DUP3 AND SWAP2 POP JUMPDEST PUSH1 0x20 DUP3 LT DUP2 SUB PUSH3 0x6BA JUMPI PUSH4 0x4E487B71 PUSH1 0xE0 SHL PUSH1 0x0 MSTORE PUSH1 0x22 PUSH1 0x4 MSTORE PUSH1 0x24 PUSH1 0x0 REVERT JUMPDEST POP SWAP2 SWAP1 POP JUMP JUMPDEST PUSH1 0x1F DUP3 GT ISZERO PUSH3 0x36F JUMPI PUSH1 0x0 DUP2 DUP2 MSTORE PUSH1 0x20 DUP2 KECCAK256 PUSH1 0x1F DUP6 ADD PUSH1 0x5 SHR DUP2 ADD PUSH1 0x20 DUP7 LT ISZERO PUSH3 0x6E9 JUMPI POP DUP1 JUMPDEST PUSH1 0x1F DUP6 ADD PUSH1 0x5 SHR DUP3 ADD SWAP2 POP JUMPDEST DUP2 DUP2 LT ISZERO PUSH3 0x70A JUMPI DUP3 DUP2 SSTORE PUSH1 0x1 ADD PUSH3 0x6F5 JUMP JUMPDEST POP POP POP POP POP POP JUMP JUMPDEST DUP2 MLOAD PUSH1 0x1 PUSH1 0x1 PUSH1 0x40 SHL SUB DUP2 GT ISZERO PUSH3 0x72E JUMPI PUSH3 0x72E PUSH3 0x66E JUMP JUMPDEST PUSH3 0x746 DUP2 PUSH3 0x73F DUP5 SLOAD PUSH3 0x684 JUMP JUMPDEST DUP5 PUSH3 0x6C0 JUMP JUMPDEST PUSH1 0x20 DUP1 PUSH1 0x1F DUP4 GT PUSH1 0x1 DUP2 EQ PUSH3 0x77E JUMPI PUSH1 0x0 DUP5 ISZERO PUSH3 0x765 JUMPI POP DUP6 DUP4 ADD MLOAD JUMPDEST PUSH1 0x0 NOT PUSH1 0x3 DUP7 SWAP1 SHL SHR NOT AND PUSH1 0x1 DUP6 SWAP1 SHL OR DUP6 SSTORE PUSH3 0x70A JUMP JUMPDEST PUSH1 0x0 DUP6 DUP2 MSTORE PUSH1 0x20 DUP2 KECCAK256 PUSH1 0x1F NOT DUP7 AND SWAP2 JUMPDEST DUP3 DUP2 LT ISZERO PUSH3 0x7AF JUMPI DUP9 DUP7 ADD MLOAD DUP3 SSTORE SWAP5 DUP5 ADD SWAP5 PUSH1 0x1 SWAP1 SWAP2 ADD SWAP1 DUP5 ADD PUSH3 0x78E JUMP JUMPDEST POP DUP6 DUP3 LT ISZERO PUSH3 0x7CE JUMPI DUP8 DUP6 ADD MLOAD PUSH1 0x0 NOT PUSH1 0x3 DUP9 SWAP1 SHL PUSH1 0xF8 AND SHR NOT AND DUP2 SSTORE JUMPDEST POP POP POP POP POP PUSH1 0x1 SWAP1 DUP2 SHL ADD SWAP1 SSTORE POP JUMP JUMPDEST PUSH4 0x4E487B71 PUSH1 0xE0 SHL PUSH1 0x0 MSTORE PUSH1 0x11 PUSH1 0x4 MSTORE PUSH1 0x24 PUSH1 0x0 REVERT JUMPDEST PUSH1 0x1 DUP2 DUP2 JUMPDEST DUP1 DUP6 GT ISZERO PUSH3 0x835 JUMPI DUP2 PUSH1 0x0 NOT DIV DUP3 GT ISZERO PUSH3 0x819 JUMPI PUSH3 0x819 PUSH3 0x7DE JUMP JUMPDEST DUP1 DUP6 AND ISZERO PUSH3 0x827 JUMPI SWAP2 DUP2 MUL SWAP2 JUMPDEST SWAP4 DUP5 SHR SWAP4 SWAP1 DUP1 MUL SWAP1 PUSH3 0x7F9 JUMP JUMPDEST POP SWAP3 POP SWAP3 SWAP1 POP JUMP JUMPDEST PUSH1 0x0 DUP3 PUSH3 0x84E JUMPI POP PUSH1 0x1 PUSH3 0x8ED JUMP JUMPDEST DUP2 PUSH3 0x85D JUMPI POP PUSH1 0x0 PUSH3 0x8ED JUMP JUMPDEST DUP2 PUSH1 0x1 DUP2 EQ PUSH3 0x876 JUMPI PUSH1 0x2 DUP2 EQ PUSH3 0x881 JUMPI PUSH3 0x8A1 JUMP JUMPDEST PUSH1 0x1 SWAP2 POP POP PUSH3 0x8ED JUMP JUMPDEST PUSH1 0xFF DUP5 GT ISZERO PUSH3 0x895 JUMPI PUSH3 0x895 PUSH3 0x7DE JUMP JUMPDEST POP POP PUSH1 0x1 DUP3 SHL PUSH3 0x8ED JUMP JUMPDEST POP PUSH1 0x20 DUP4 LT PUSH2 0x133 DUP4 LT AND PUSH1 0x4E DUP5 LT PUSH1 0xB DUP5 LT AND OR ISZERO PUSH3 0x8C6 JUMPI POP DUP2 DUP2 EXP PUSH3 0x8ED JUMP JUMPDEST PUSH3 0x8D2 DUP4 DUP4 PUSH3 0x7F4 JUMP JUMPDEST DUP1 PUSH1 0x0 NOT DIV DUP3 GT ISZERO PUSH3 0x8E9 JUMPI PUSH3 0x8E9 PUSH3 0x7DE JUMP JUMPDEST MUL SWAP1 POP JUMPDEST SWAP3 SWAP2 POP POP JUMP JUMPDEST PUSH1 0x0 PUSH3 0x904 PUSH1 0xFF DUP5 AND DUP4 PUSH3 0x83D JUMP JUMPDEST SWAP4 SWAP3 POP POP POP JUMP JUMPDEST DUP1 DUP3 MUL DUP2 ISZERO DUP3 DUP3 DIV DUP5 EQ OR PUSH3 0x8ED JUMPI PUSH3 0x8ED PUSH3 0x7DE JUMP JUMPDEST PUSH1 0x0 DUP3 PUSH3 0x943 JUMPI PUSH4 0x4E487B71 PUSH1 0xE0 SHL PUSH1 0x0 MSTORE PUSH1 0x12 PUSH1 0x4 MSTORE PUSH1 0x24 PUSH1 0x0 REVERT JUMPDEST POP DIV SWAP1 JUMP JUMPDEST DUP2 DUP2 SUB DUP2 DUP2 GT ISZERO PUSH3 0x8ED JUMPI PUSH3 0x8ED PUSH3 0x7DE JUMP JUMPDEST DUP1 DUP3 ADD DUP1 DUP3 GT ISZERO PUSH3 0x8ED JUMPI PUSH3 0x8ED PUSH3 0x7DE JUMP JUMPDEST PUSH2 0xC39 DUP1 PUSH3 0x984 PUSH1 0x0 CODECOPY PUSH1 0x0 RETURN INVALID PUSH1 0x80 PUSH1 0x40 MSTORE CALLVALUE DUP1 ISZERO PUSH2 0x10 JUMPI PUSH1 0x0 DUP1 REVERT JUMPDEST POP PUSH1 0x4 CALLDATASIZE LT PUSH2 0x137 JUMPI PUSH1 0x0 CALLDATALOAD PUSH1 0xE0 SHR DUP1 PUSH4 0x61D027B3 GT PUSH2 0xB8 JUMPI DUP1 PUSH4 0x95D89B41 GT PUSH2 0x7C JUMPI DUP1 PUSH4 0x95D89B41 EQ PUSH2 0x27D JUMPI DUP1 PUSH4 0xA23D3C35 EQ PUSH2 0x285 JUMPI DUP1 PUSH4 0xA9059CBB EQ PUSH2 0x298 JUMPI DUP1 PUSH4 0xDD62ED3E EQ PUSH2 0x2AB JUMPI DUP1 PUSH4 0xF2FDE38B EQ PUSH2 0x2E4 JUMPI DUP1 PUSH4 0xF6141345 EQ PUSH2 0x2F7 JUMPI PUSH1 0x0 DUP1 REVERT JUMPDEST DUP1 PUSH4 0x61D027B3 EQ PUSH2 0x208 JUMPI DUP1 PUSH4 0x70A08231 EQ PUSH2 0x233 JUMPI DUP1 PUSH4 0x715018A6 EQ PUSH2 0x25C JUMPI DUP1 PUSH4 0x7C4CCBEA EQ PUSH2 0x264 JUMPI DUP1 PUSH4 0x8DA5CB5B EQ PUSH2 0x26C JUMPI PUSH1 0x0 DUP1 REVERT JUMPDEST DUP1 PUSH4 0x23B872DD GT PUSH2 0xFF JUMPI DUP1 PUSH4 0x23B872DD EQ PUSH2 0x1A5 JUMPI DUP1 PUSH4 0x313CE567 EQ PUSH2 0x1B8 JUMPI DUP1 PUSH4 0x3F4218E0 EQ PUSH2 0x1C7 JUMPI DUP1 PUSH4 0x42966C68 EQ PUSH2 0x1EA JUMPI DUP1 PUSH4 0x55EF9B5E EQ PUSH2 0x1FF JUMPI PUSH1 0x0 DUP1 REVERT JUMPDEST DUP1 PUSH4 0x6FDDE03 EQ PUSH2 0x13C JUMPI DUP1 PUSH4 0x95EA7B3 EQ PUSH2 0x15A JUMPI DUP1 PUSH4 0x118725CE EQ PUSH2 0x17D JUMPI DUP1 PUSH4 0x120A8151 EQ PUSH2 0x194 JUMPI DUP1 PUSH4 0x18160DDD EQ PUSH2 0x19D JUMPI JUMPDEST PUSH1 0x0 DUP1 REVERT JUMPDEST PUSH2 0x144 PUSH2 0x300 JUMP JUMPDEST PUSH1 0x40 MLOAD PUSH2 0x151 SWAP2 SWAP1 PUSH2 0xA16 JUMP JUMPDEST PUSH1 0x40 MLOAD DUP1 SWAP2 SUB SWAP1 RETURN JUMPDEST PUSH2 0x16D PUSH2 0x168 CALLDATASIZE PUSH1 0x4 PUSH2 0xA80 JUMP JUMPDEST PUSH2 0x392 JUMP JUMPDEST PUSH1 0x40 MLOAD SWAP1 ISZERO ISZERO DUP2 MSTORE PUSH1 0x20 ADD PUSH2 0x151 JUMP JUMPDEST PUSH2 0x186 PUSH1 0x8 SLOAD DUP2 JUMP JUMPDEST PUSH1 0x40 MLOAD SWAP1 DUP2 MSTORE PUSH1 0x20 ADD PUSH2 0x151 JUMP JUMPDEST PUSH2 0x186 PUSH1 0x9 SLOAD DUP2 JUMP JUMPDEST PUSH1 0x2 SLOAD PUSH2 0x186 JUMP JUMPDEST PUSH2 0x16D PUSH2 0x1B3 CALLDATASIZE PUSH1 0x4 PUSH2 0xAAA JUMP JUMPDEST PUSH2 0x3AC JUMP JUMPDEST PUSH1 0x40 MLOAD PUSH1 0x12 DUP2 MSTORE PUSH1 0x20 ADD PUSH2 0x151 JUMP JUMPDEST PUSH2 0x16D PUSH2 0x1D5 CALLDATASIZE PUSH1 0x4 PUSH2 0xAE6 JUMP JUMPDEST PUSH1 0xC PUSH1 0x20 MSTORE PUSH1 0x0 SWAP1 DUP2 MSTORE PUSH1 0x40 SWAP1 KECCAK256 SLOAD PUSH1 0xFF AND DUP2 JUMP JUMPDEST PUSH2 0x1FD PUSH2 0x1F8 CALLDATASIZE PUSH1 0x4 PUSH2 0xB08 JUMP JUMPDEST PUSH2 0x3D0 JUMP JUMPDEST STOP JUMPDEST PUSH2 0x186 PUSH1 0x7 SLOAD DUP2 JUMP JUMPDEST PUSH1 0xA SLOAD PUSH2 0x21B SWAP1 PUSH1 0x1 PUSH1 0x1 PUSH1 0xA0 SHL SUB AND DUP2 JUMP JUMPDEST PUSH1 0x40 MLOAD PUSH1 0x1 PUSH1 0x1 PUSH1 0xA0 SHL SUB SWAP1 SWAP2 AND DUP2 MSTORE PUSH1 0x20 ADD PUSH2 0x151 JUMP JUMPDEST PUSH2 0x186 PUSH2 0x241 CALLDATASIZE PUSH1 0x4 PUSH2 0xAE6 JUMP JUMPDEST PUSH1 0x1 PUSH1 0x1 PUSH1 0xA0 SHL SUB AND PUSH1 0x0 SWAP1 DUP2 MSTORE PUSH1 0x20 DUP2 SWAP1 MSTORE PUSH1 0x40 SWAP1 KECCAK256 SLOAD SWAP1 JUMP JUMPDEST PUSH2 0x1FD PUSH2 0x3DD JUMP JUMPDEST PUSH2 0x186 PUSH1 0xC8 DUP2 JUMP JUMPDEST PUSH1 0x5 SLOAD PUSH1 0x1 PUSH1 0x1 PUSH1 0xA0 SHL SUB AND PUSH2 0x21B JUMP JUMPDEST PUSH2 0x144 PUSH2 0x3F1 JUMP JUMPDEST PUSH1 0xB SLOAD PUSH2 0x21B SWAP1 PUSH1 0x1 PUSH1 0x1 PUSH1 0xA0 SHL SUB AND DUP2 JUMP JUMPDEST PUSH2 0x16D PUSH2 0x2A6 CALLDATASIZE PUSH1 0x4 PUSH2 0xA80 JUMP JUMPDEST PUSH2 0x400 JUMP JUMPDEST PUSH2 0x186 PUSH2 0x2B9 CALLDATASIZE PUSH1 0x4 PUSH2 0xB21 JUMP JUMPDEST PUSH1 0x1 PUSH1 0x1 PUSH1 0xA0 SHL SUB SWAP2 DUP3 AND PUSH1 0x0 SWAP1 DUP2 MSTORE PUSH1 0x1 PUSH1 0x20 SWAP1 DUP2 MSTORE PUSH1 0x40 DUP1 DUP4 KECCAK256 SWAP4 SWAP1 SWAP5 AND DUP3 MSTORE SWAP2 SWAP1 SWAP2 MSTORE KECCAK256 SLOAD SWAP1 JUMP JUMPDEST PUSH2 0x1FD PUSH2 0x2F2 CALLDATASIZE PUSH1 0x4 PUSH2 0xAE6 JUMP JUMPDEST PUSH2 0x40E JUMP JUMPDEST PUSH2 0x186 PUSH1 0x6 SLOAD DUP2 JUMP JUMPDEST PUSH1 0x60 PUSH1 0x3 DUP1 SLOAD PUSH2 0x30F SWAP1 PUSH2 0xB54 JUMP JUMPDEST DUP1 PUSH1 0x1F ADD PUSH1 0x20 DUP1 SWAP2 DIV MUL PUSH1 0x20 ADD PUSH1 0x40 MLOAD SWAP1 DUP2 ADD PUSH1 0x40 MSTORE DUP1 SWAP3 SWAP2 SWAP1 DUP2 DUP2 MSTORE PUSH1 0x20 ADD DUP3 DUP1 SLOAD PUSH2 0x33B SWAP1 PUSH2 0xB54 JUMP JUMPDEST DUP1 ISZERO PUSH2 0x388 JUMPI DUP1 PUSH1 0x1F LT PUSH2 0x35D JUMPI PUSH2 0x100 DUP1 DUP4 SLOAD DIV MUL DUP4 MSTORE SWAP2 PUSH1 0x20 ADD SWAP2 PUSH2 0x388 JUMP JUMPDEST DUP3 ADD SWAP2 SWAP1 PUSH1 0x0 MSTORE PUSH1 0x20 PUSH1 0x0 KECCAK256 SWAP1 JUMPDEST DUP2 SLOAD DUP2 MSTORE SWAP1 PUSH1 0x1 ADD SWAP1 PUSH1 0x20 ADD DUP1 DUP4 GT PUSH2 0x36B JUMPI DUP3 SWAP1 SUB PUSH1 0x1F AND DUP3 ADD SWAP2 JUMPDEST POP POP POP POP POP SWAP1 POP SWAP1 JUMP JUMPDEST PUSH1 0x0 CALLER PUSH2 0x3A0 DUP2 DUP6 DUP6 PUSH2 0x44E JUMP JUMPDEST PUSH1 0x1 SWAP2 POP POP JUMPDEST SWAP3 SWAP2 POP POP JUMP JUMPDEST PUSH1 0x0 CALLER PUSH2 0x3BA DUP6 DUP3 DUP6 PUSH2 0x460 JUMP JUMPDEST PUSH2 0x3C5 DUP6 DUP6 DUP6 PUSH2 0x4DF JUMP JUMPDEST POP PUSH1 0x1 SWAP5 SWAP4 POP POP POP POP JUMP JUMPDEST PUSH2 0x3DA CALLER DUP3 PUSH2 0x53E JUMP JUMPDEST POP JUMP JUMPDEST PUSH2 0x3E5 PUSH2 0x578 JUMP JUMPDEST PUSH2 0x3EF PUSH1 0x0 PUSH2 0x5A5 JUMP JUMPDEST JUMP JUMPDEST PUSH1 0x60 PUSH1 0x4 DUP1 SLOAD PUSH2 0x30F SWAP1 PUSH2 0xB54 JUMP JUMPDEST PUSH1 0x0 CALLER PUSH2 0x3A0 DUP2 DUP6 DUP6 PUSH2 0x4DF JUMP JUMPDEST PUSH2 0x416 PUSH2 0x578 JUMP JUMPDEST PUSH1 0x1 PUSH1 0x1 PUSH1 0xA0 SHL SUB DUP2 AND PUSH2 0x445 JUMPI PUSH1 0x40 MLOAD PUSH4 0x1E4FBDF7 PUSH1 0xE0 SHL DUP2 MSTORE PUSH1 0x0 PUSH1 0x4 DUP3 ADD MSTORE PUSH1 0x24 ADD JUMPDEST PUSH1 0x40 MLOAD DUP1 SWAP2 SUB SWAP1 REVERT JUMPDEST PUSH2 0x3DA DUP2 PUSH2 0x5A5 JUMP JUMPDEST PUSH2 0x45B DUP4 DUP4 DUP4 PUSH1 0x1 PUSH2 0x5F7 JUMP JUMPDEST POP POP POP JUMP JUMPDEST PUSH1 0x1 PUSH1 0x1 PUSH1 0xA0 SHL SUB DUP4 DUP2 AND PUSH1 0x0 SWAP1 DUP2 MSTORE PUSH1 0x1 PUSH1 0x20 SWAP1 DUP2 MSTORE PUSH1 0x40 DUP1 DUP4 KECCAK256 SWAP4 DUP7 AND DUP4 MSTORE SWAP3 SWAP1 MSTORE KECCAK256 SLOAD PUSH1 0x0 NOT DUP2 LT ISZERO PUSH2 0x4D9 JUMPI DUP2 DUP2 LT ISZERO PUSH2 0x4CA JUMPI PUSH1 0x40 MLOAD PUSH4 0x7DC7A0D9 PUSH1 0xE1 SHL DUP2 MSTORE PUSH1 0x1 PUSH1 0x1 PUSH1 0xA0 SHL SUB DUP5 AND PUSH1 0x4 DUP3 ADD MSTORE PUSH1 0x24 DUP2 ADD DUP3 SWAP1 MSTORE PUSH1 0x44 DUP2 ADD DUP4 SWAP1 MSTORE PUSH1 0x64 ADD PUSH2 0x43C JUMP JUMPDEST PUSH2 0x4D9 DUP5 DUP5 DUP5 DUP5 SUB PUSH1 0x0 PUSH2 0x5F7 JUMP JUMPDEST POP POP POP POP JUMP JUMPDEST PUSH1 0x1 PUSH1 0x1 PUSH1 0xA0 SHL SUB DUP4 AND PUSH2 0x509 JUMPI PUSH1 0x40 MLOAD PUSH4 0x4B637E8F PUSH1 0xE1 SHL DUP2 MSTORE PUSH1 0x0 PUSH1 0x4 DUP3 ADD MSTORE PUSH1 0x24 ADD PUSH2 0x43C JUMP JUMPDEST PUSH1 0x1 PUSH1 0x1 PUSH1 0xA0 SHL SUB DUP3 AND PUSH2 0x533 JUMPI PUSH1 0x40 MLOAD PUSH4 0xEC442F05 PUSH1 0xE0 SHL DUP2 MSTORE PUSH1 0x0 PUSH1 0x4 DUP3 ADD MSTORE PUSH1 0x24 ADD PUSH2 0x43C JUMP JUMPDEST PUSH2 0x45B DUP4 DUP4 DUP4 PUSH2 0x6CC JUMP JUMPDEST PUSH1 0x1 PUSH1 0x1 PUSH1 0xA0 SHL SUB DUP3 AND PUSH2 0x568 JUMPI PUSH1 0x40 MLOAD PUSH4 0x4B637E8F PUSH1 0xE1 SHL DUP2 MSTORE PUSH1 0x0 PUSH1 0x4 DUP3 ADD MSTORE PUSH1 0x24 ADD PUSH2 0x43C JUMP JUMPDEST PUSH2 0x574 DUP3 PUSH1 0x0 DUP4 PUSH2 0x6CC JUMP JUMPDEST POP POP JUMP JUMPDEST PUSH1 0x5 SLOAD PUSH1 0x1 PUSH1 0x1 PUSH1 0xA0 SHL SUB AND CALLER EQ PUSH2 0x3EF JUMPI PUSH1 0x40 MLOAD PUSH4 0x118CDAA7 PUSH1 0xE0 SHL DUP2 MSTORE CALLER PUSH1 0x4 DUP3 ADD MSTORE PUSH1 0x24 ADD PUSH2 0x43C JUMP JUMPDEST PUSH1 0x5 DUP1 SLOAD PUSH1 0x1 PUSH1 0x1 PUSH1 0xA0 SHL SUB DUP4 DUP2 AND PUSH1 0x1 PUSH1 0x1 PUSH1 0xA0 SHL SUB NOT DUP4 AND DUP2 OR SWAP1 SWAP4 SSTORE PUSH1 0x40 MLOAD SWAP2 AND SWAP2 SWAP1 DUP3 SWAP1 PUSH32 0x8BE0079C531659141344CD1FD0A4F28419497F9722A3DAAFE3B4186F6B6457E0 SWAP1 PUSH1 0x0 SWAP1 LOG3 POP POP JUMP JUMPDEST PUSH1 0x1 PUSH1 0x1 PUSH1 0xA0 SHL SUB DUP5 AND PUSH2 0x621 JUMPI PUSH1 0x40 MLOAD PUSH4 0xE602DF05 PUSH1 0xE0 SHL DUP2 MSTORE PUSH1 0x0 PUSH1 0x4 DUP3 ADD MSTORE PUSH1 0x24 ADD PUSH2 0x43C JUMP JUMPDEST PUSH1 0x1 PUSH1 0x1 PUSH1 0xA0 SHL SUB DUP4 AND PUSH2 0x64B JUMPI PUSH1 0x40 MLOAD PUSH4 0x4A1406B1 PUSH1 0xE1 SHL DUP2 MSTORE PUSH1 0x0 PUSH1 0x4 DUP3 ADD MSTORE PUSH1 0x24 ADD PUSH2 0x43C JUMP JUMPDEST PUSH1 0x1 PUSH1 0x1 PUSH1 0xA0 SHL SUB DUP1 DUP6 AND PUSH1 0x0 SWAP1 DUP2 MSTORE PUSH1 0x1 PUSH1 0x20 SWAP1 DUP2 MSTORE PUSH1 0x40 DUP1 DUP4 KECCAK256 SWAP4 DUP8 AND DUP4 MSTORE SWAP3 SWAP1 MSTORE KECCAK256 DUP3 SWAP1 SSTORE DUP1 ISZERO PUSH2 0x4D9 JUMPI DUP3 PUSH1 0x1 PUSH1 0x1 PUSH1 0xA0 SHL SUB AND DUP5 PUSH1 0x1 PUSH1 0x1 PUSH1 0xA0 SHL SUB AND PUSH32 0x8C5BE1E5EBEC7D5BD14F71427D1E84F3DD0314C0F7B2291E5B200AC8C7C3B925 DUP5 PUSH1 0x40 MLOAD PUSH2 0x6BE SWAP2 DUP2 MSTORE PUSH1 0x20 ADD SWAP1 JUMP JUMPDEST PUSH1 0x40 MLOAD DUP1 SWAP2 SUB SWAP1 LOG3 POP POP POP POP JUMP JUMPDEST PUSH1 0x1 PUSH1 0x1 PUSH1 0xA0 SHL SUB DUP4 AND ISZERO DUP1 PUSH2 0x6E9 JUMPI POP PUSH1 0x1 PUSH1 0x1 PUSH1 0xA0 SHL SUB DUP3 AND ISZERO JUMPDEST DUP1 PUSH2 0x6F4 JUMPI POP PUSH1 0x6 SLOAD ISZERO JUMPDEST DUP1 PUSH2 0x717 JUMPI POP PUSH1 0x1 PUSH1 0x1 PUSH1 0xA0 SHL SUB DUP4 AND PUSH1 0x0 SWAP1 DUP2 MSTORE PUSH1 0xC PUSH1 0x20 MSTORE PUSH1 0x40 SWAP1 KECCAK256 SLOAD PUSH1 0xFF AND JUMPDEST DUP1 PUSH2 0x73A JUMPI POP PUSH1 0x1 PUSH1 0x1 PUSH1 0xA0 SHL SUB DUP3 AND PUSH1 0x0 SWAP1 DUP2 MSTORE PUSH1 0xC PUSH1 0x20 MSTORE PUSH1 0x40 SWAP1 KECCAK256 SLOAD PUSH1 0xFF AND JUMPDEST ISZERO PUSH2 0x7C1 JUMPI PUSH2 0x74A DUP4 DUP4 DUP4 PUSH2 0x8F9 JUMP JUMPDEST PUSH1 0x1 PUSH1 0x1 PUSH1 0xA0 SHL SUB DUP4 AND ISZERO DUP1 ISZERO SWAP1 PUSH2 0x76A JUMPI POP PUSH1 0x1 PUSH1 0x1 PUSH1 0xA0 SHL SUB DUP3 AND ISZERO ISZERO JUMPDEST ISZERO PUSH2 0x45B JUMPI DUP2 PUSH1 0x1 PUSH1 0x1 PUSH1 0xA0 SHL SUB AND DUP4 PUSH1 0x1 PUSH1 0x1 PUSH1 0xA0 SHL SUB AND PUSH32 0x59ABB1A21AC9C02D9C217285768A906AF17496E4CADA7962F129B92F0AC948CF DUP4 PUSH1 0x40 MLOAD PUSH2 0x7B4 SWAP2 DUP2 MSTORE PUSH1 0x20 ADD SWAP1 JUMP JUMPDEST PUSH1 0x40 MLOAD DUP1 SWAP2 SUB SWAP1 LOG3 POP POP POP JUMP JUMPDEST PUSH1 0x0 PUSH2 0x2710 PUSH1 0x6 SLOAD DUP4 PUSH2 0x7D4 SWAP2 SWAP1 PUSH2 0xBA4 JUMP JUMPDEST PUSH2 0x7DE SWAP2 SWAP1 PUSH2 0xBBB JUMP JUMPDEST SWAP1 POP PUSH1 0x0 PUSH1 0x6 SLOAD PUSH1 0x7 SLOAD DUP4 PUSH2 0x7F3 SWAP2 SWAP1 PUSH2 0xBA4 JUMP JUMPDEST PUSH2 0x7FD SWAP2 SWAP1 PUSH2 0xBBB JUMP JUMPDEST SWAP1 POP PUSH1 0x0 PUSH1 0x6 SLOAD PUSH1 0x8 SLOAD DUP5 PUSH2 0x812 SWAP2 SWAP1 PUSH2 0xBA4 JUMP JUMPDEST PUSH2 0x81C SWAP2 SWAP1 PUSH2 0xBBB JUMP JUMPDEST SWAP1 POP PUSH1 0x0 PUSH1 0x6 SLOAD PUSH1 0x9 SLOAD DUP6 PUSH2 0x831 SWAP2 SWAP1 PUSH2 0xBA4 JUMP JUMPDEST PUSH2 0x83B SWAP2 SWAP1 PUSH2 0xBBB JUMP JUMPDEST SWAP1 POP PUSH1 0x0 PUSH2 0x849 DUP6 DUP8 PUSH2 0xBDD JUMP JUMPDEST SWAP1 POP PUSH2 0x856 DUP9 DUP9 DUP4 PUSH2 0x8F9 JUMP JUMPDEST DUP4 ISZERO PUSH2 0x874 JUMPI PUSH1 0xA SLOAD PUSH2 0x874 SWAP1 DUP10 SWAP1 PUSH1 0x1 PUSH1 0x1 PUSH1 0xA0 SHL SUB AND DUP7 PUSH2 0x8F9 JUMP JUMPDEST DUP3 ISZERO PUSH2 0x892 JUMPI PUSH1 0xB SLOAD PUSH2 0x892 SWAP1 DUP10 SWAP1 PUSH1 0x1 PUSH1 0x1 PUSH1 0xA0 SHL SUB AND DUP6 PUSH2 0x8F9 JUMP JUMPDEST DUP2 ISZERO PUSH2 0x8A2 JUMPI PUSH2 0x8A2 DUP9 DUP4 PUSH2 0x53E JUMP JUMPDEST DUP7 PUSH1 0x1 PUSH1 0x1 PUSH1 0xA0 SHL SUB AND DUP9 PUSH1 0x1 PUSH1 0x1 PUSH1 0xA0 SHL SUB AND PUSH32 0x59ABB1A21AC9C02D9C217285768A906AF17496E4CADA7962F129B92F0AC948CF DUP9 PUSH1 0x40 MLOAD PUSH2 0x8E7 SWAP2 DUP2 MSTORE PUSH1 0x20 ADD SWAP1 JUMP JUMPDEST PUSH1 0x40 MLOAD DUP1 SWAP2 SUB SWAP1 LOG3 POP POP POP POP POP POP POP POP JUMP JUMPDEST PUSH1 0x1 PUSH1 0x1 PUSH1 0xA0 SHL SUB DUP4 AND PUSH2 0x924 JUMPI DUP1 PUSH1 0x2 PUSH1 0x0 DUP3 DUP3 SLOAD PUSH2 0x919 SWAP2 SWAP1 PUSH2 0xBF0 JUMP JUMPDEST SWAP1 SWAP2 SSTORE POP PUSH2 0x996 SWAP1 POP JUMP JUMPDEST PUSH1 0x1 PUSH1 0x1 PUSH1 0xA0 SHL SUB DUP4 AND PUSH1 0x0 SWAP1 DUP2 MSTORE PUSH1 0x20 DUP2 SWAP1 MSTORE PUSH1 0x40 SWAP1 KECCAK256 SLOAD DUP2 DUP2 LT ISZERO PUSH2 0x977 JUMPI PUSH1 0x40 MLOAD PUSH4 0x391434E3 PUSH1 0xE2 SHL DUP2 MSTORE PUSH1 0x1 PUSH1 0x1 PUSH1 0xA0 SHL SUB DUP6 AND PUSH1 0x4 DUP3 ADD MSTORE PUSH1 0x24 DUP2 ADD DUP3 SWAP1 MSTORE PUSH1 0x44 DUP2 ADD DUP4 SWAP1 MSTORE PUSH1 0x64 ADD PUSH2 0x43C JUMP JUMPDEST PUSH1 0x1 PUSH1 0x1 PUSH1 0xA0 SHL SUB DUP5 AND PUSH1 0x0 SWAP1 DUP2 MSTORE PUSH1 0x20 DUP2 SWAP1 MSTORE PUSH1 0x40 SWAP1 KECCAK256 SWAP1 DUP3 SWAP1 SUB SWAP1 SSTORE JUMPDEST PUSH1 0x1 PUSH1 0x1 PUSH1 0xA0 SHL SUB DUP3 AND PUSH2 0x9B2 JUMPI PUSH1 0x2 DUP1 SLOAD DUP3 SWAP1 SUB SWAP1 SSTORE PUSH2 0x9D1 JUMP JUMPDEST PUSH1 0x1 PUSH1 0x1 PUSH1 0xA0 SHL SUB DUP3 AND PUSH1 0x0 SWAP1 DUP2 MSTORE PUSH1 0x20 DUP2 SWAP1 MSTORE PUSH1 0x40 SWAP1 KECCAK256 DUP1 SLOAD DUP3 ADD SWAP1 SSTORE JUMPDEST DUP2 PUSH1 0x1 PUSH1 0x1 PUSH1 0xA0 SHL SUB AND DUP4 PUSH1 0x1 PUSH1 0x1 PUSH1 0xA0 SHL SUB AND PUSH32 0xDDF252AD1BE2C89B69C2B068FC378DAA952BA7F163C4A11628F55A4DF523B3EF DUP4 PUSH1 0x40 MLOAD PUSH2 0x7B4 SWAP2 DUP2 MSTORE PUSH1 0x20 ADD SWAP1 JUMP JUMPDEST PUSH1 0x0 PUSH1 0x20 DUP1 DUP4 MSTORE DUP4 MLOAD DUP1 DUP3 DUP6 ADD MSTORE PUSH1 0x0 JUMPDEST DUP2 DUP2 LT ISZERO PUSH2 0xA43 JUMPI DUP6 DUP2 ADD DUP4 ADD MLOAD DUP6 DUP3 ADD PUSH1 0x40 ADD MSTORE DUP3 ADD PUSH2 0xA27 JUMP JUMPDEST POP PUSH1 0x0 PUSH1 0x40 DUP3 DUP7 ADD ADD MSTORE PUSH1 0x40 PUSH1 0x1F NOT PUSH1 0x1F DUP4 ADD AND DUP6 ADD ADD SWAP3 POP POP POP SWAP3 SWAP2 POP POP JUMP JUMPDEST DUP1 CALLDATALOAD PUSH1 0x1 PUSH1 0x1 PUSH1 0xA0 SHL SUB DUP2 AND DUP2 EQ PUSH2 0xA7B JUMPI PUSH1 0x0 DUP1 REVERT JUMPDEST SWAP2 SWAP1 POP JUMP JUMPDEST PUSH1 0x0 DUP1 PUSH1 0x40 DUP4 DUP6 SUB SLT ISZERO PUSH2 0xA93 JUMPI PUSH1 0x0 DUP1 REVERT JUMPDEST PUSH2 0xA9C DUP4 PUSH2 0xA64 JUMP JUMPDEST SWAP5 PUSH1 0x20 SWAP4 SWAP1 SWAP4 ADD CALLDATALOAD SWAP4 POP POP POP JUMP JUMPDEST PUSH1 0x0 DUP1 PUSH1 0x0 PUSH1 0x60 DUP5 DUP7 SUB SLT ISZERO PUSH2 0xABF JUMPI PUSH1 0x0 DUP1 REVERT JUMPDEST PUSH2 0xAC8 DUP5 PUSH2 0xA64 JUMP JUMPDEST SWAP3 POP PUSH2 0xAD6 PUSH1 0x20 DUP6 ADD PUSH2 0xA64 JUMP JUMPDEST SWAP2 POP PUSH1 0x40 DUP5 ADD CALLDATALOAD SWAP1 POP SWAP3 POP SWAP3 POP SWAP3 JUMP JUMPDEST PUSH1 0x0 PUSH1 0x20 DUP3 DUP5 SUB SLT ISZERO PUSH2 0xAF8 JUMPI PUSH1 0x0 DUP1 REVERT JUMPDEST PUSH2 0xB01 DUP3 PUSH2 0xA64 JUMP JUMPDEST SWAP4 SWAP3 POP POP POP JUMP JUMPDEST PUSH1 0x0 PUSH1 0x20 DUP3 DUP5 SUB SLT ISZERO PUSH2 0xB1A JUMPI PUSH1 0x0 DUP1 REVERT JUMPDEST POP CALLDATALOAD SWAP2 SWAP1 POP JUMP JUMPDEST PUSH1 0x0 DUP1 PUSH1 0x40 DUP4 DUP6 SUB SLT ISZERO PUSH2 0xB34 JUMPI PUSH1 0x0 DUP1 REVERT JUMPDEST PUSH2 0xB3D DUP4 PUSH2 0xA64 JUMP JUMPDEST SWAP2 POP PUSH2 0xB4B PUSH1 0x20 DUP5 ADD PUSH2 0xA64 JUMP JUMPDEST SWAP1 POP SWAP3 POP SWAP3 SWAP1 POP JUMP JUMPDEST PUSH1 0x1 DUP2 DUP2 SHR SWAP1 DUP3 AND DUP1 PUSH2 0xB68 JUMPI PUSH1 0x7F DUP3 AND SWAP2 POP JUMPDEST PUSH1 0x20 DUP3 LT DUP2 SUB PUSH2 0xB88 JUMPI PUSH4 0x4E487B71 PUSH1 0xE0 SHL PUSH1 0x0 MSTORE PUSH1 0x22 PUSH1 0x4 MSTORE PUSH1 0x24 PUSH1 0x0 REVERT JUMPDEST POP SWAP2 SWAP1 POP JUMP JUMPDEST PUSH4 0x4E487B71 PUSH1 0xE0 SHL PUSH1 0x0 MSTORE PUSH1 0x11 PUSH1 0x4 MSTORE PUSH1 0x24 PUSH1 0x0 REVERT JUMPDEST DUP1 DUP3 MUL DUP2 ISZERO DUP3 DUP3 DIV DUP5 EQ OR PUSH2 0x3A6 JUMPI PUSH2 0x3A6 PUSH2 0xB8E JUMP JUMPDEST PUSH1 0x0 DUP3 PUSH2 0xBD8 JUMPI PUSH4 0x4E487B71 PUSH1 0xE0 SHL PUSH1 0x0 MSTORE PUSH1 0x12 PUSH1 0x4 MSTORE PUSH1 0x24 PUSH1 0x0 REVERT JUMPDEST POP DIV SWAP1 JUMP JUMPDEST DUP2 DUP2 SUB DUP2 DUP2 GT ISZERO PUSH2 0x3A6 JUMPI PUSH2 0x3A6 PUSH2 0xB8E JUMP JUMPDEST DUP1 DUP3 ADD DUP1 DUP3 GT ISZERO PUSH2 0x3A6 JUMPI PUSH2 0x3A6 PUSH2 0xB8E JUMP INVALID LOG2 PUSH5 0x6970667358 0x22 SLT KECCAK256 RETURN 0x4C 0xA7 0x4F CHAINID 0xDA 0xBD 0x1E 0xB8 0xBA PUSH17 0x6230FE3370AC18475F55699CA99A40926D PUSH9 0x97DBF664736F6C6343 STOP ADDMOD EQ STOP CALLER MSIZE 0xAB 0xB1 LOG2 BYTE 0xC9 0xC0 0x2D SWAP13 0x21 PUSH19 0x85768A906AF17496E4CADA7962F129B92F0AC9 BASEFEE 0xCF "},"methodIdentifiers":{"MAX_TOTAL_FEE_BP()":"7c4ccbea","allowance(address,address)":"dd62ed3e","approve(address,uint256)":"095ea7b3","balanceOf(address)":"70a08231","burn(uint256)":"42966c68","decimals()":"313ce567","feeToBurnBP()":"120a8151","feeToFounderBP()":"118725ce","feeToTreasuryBP()":"55ef9b5e","founderWallet()":"a23d3c35","isFeeExempt(address)":"3f4218e0","name()":"06fdde03","owner()":"8da5cb5b","renounceOwnership()":"715018a6","symbol()":"95d89b41","totalFeeBP()":"f6141345","totalSupply()":"18160ddd","transfer(address,uint256)":"a9059cbb","transferFrom(address,address,uint256)":"23b872dd","transferOwnership(address)":"f2fde38b","treasury()":"61d027b3"}}}}}