{"contracts/FIACoinV6.sol":{"FIACoinV6":{"abi":[{"inputs":[{"internalType":"address","name":"_treasury","type":"address"},{"internalType":"address","name":"_founder","type":"address"},{"internalType":"address","name":"_executor","type":"address"}],"stateMutability":"nonpayable","type":"constructor"},{"inputs":[{"internalType":"address","name":"spender","type":"address"},{"internalType":"uint256","name":"allowance","type":"uint256"},{"internalType":"uint256","name":"needed","type":"uint256"}],"name":"ERC20InsufficientAllowance","type":"error"},{"inputs":[{"internalType":"address","name":"sender","type":"address"},{"internalType":"uint256","name":"balance","type":"uint256"},{"internalType":"uint256","name":"needed","type":"uint256"}],"name":"ERC20InsufficientBalance","type":"error"},{"inputs":[{"internalType":"address","name":"approver","type":"address"}],"name":"ERC20InvalidApprover","type":"error"},{"inputs":[{"internalType":"address","name":"receiver","type":"address"}],"name":"ERC20InvalidReceiver","type":"error"},{"inputs":[{"internalType":"address","name":"sender","type":"address"}],"name":"ERC20InvalidSender","type":"error"},{"inputs":[{"internalType":"address","name":"spender","type":"address"}],"name":"ERC20InvalidSpender","type":"error"},{"inputs":[],"name":"EnforcedPause","type":"error"},{"inputs":[],"name":"ExpectedPause","type":"error"},{"inputs":[{"internalType":"address","name":"owner","type":"address"}],"name":"OwnableInvalidOwner","type":"error"},{"inputs":[{"internalType":"address","name":"account","type":"address"}],"name":"OwnableUnauthorizedAccount","type":"error"},{"inputs":[],"name":"ReentrancyGuardReentrantCall","type":"error"},{"anonymous":false,"inputs":[{"indexed":true,"internalType":"address","name":"owner","type":"address"},{"indexed":true,"internalType":"address","name":"spender","type":"address"},{"indexed":false,"internalType":"uint256","name":"value","type":"uint256"}],"name":"Approval","type":"event"},{"anonymous":false,"inputs":[{"indexed":true,"internalType":"address","name":"user","type":"address"},{"indexed":false,"internalType":"uint256","name":"totalAmount","type":"uint256"},{"indexed":false,"internalType":"uint256","name":"stakeCount","type":"uint256"}],"name":"BatchStaking","type":"event"},{"anonymous":false,"inputs":[{"indexed":true,"internalType":"address","name":"from","type":"address"},{"indexed":false,"internalType":"uint256","name":"totalAmount","type":"uint256"},{"indexed":false,"internalType":"uint256","name":"recipientCount","type":"uint256"}],"name":"BatchTransfer","type":"event"},{"anonymous":false,"inputs":[{"indexed":false,"internalType":"string","name":"action","type":"string"},{"indexed":false,"internalType":"address","name":"actor","type":"address"}],"name":"EmergencyAction","type":"event"},{"anonymous":false,"inputs":[{"indexed":false,"internalType":"uint256","name":"oldFee","type":"uint256"},{"indexed":false,"internalType":"uint256","name":"newFee","type":"uint256"}],"name":"FeeConfigurationChanged","type":"event"},{"anonymous":false,"inputs":[{"indexed":false,"internalType":"uint256","name":"treasury","type":"uint256"},{"indexed":false,"internalType":"uint256","name":"founder","type":"uint256"},{"indexed":false,"internalType":"uint256","name":"burn","type":"uint256"}],"name":"FeeDistributionChanged","type":"event"},{"anonymous":false,"inputs":[{"indexed":true,"internalType":"address","name":"account","type":"address"},{"indexed":false,"internalType":"bool","name":"exempt","type":"bool"}],"name":"FeeExemptionSet","type":"event"},{"anonymous":false,"inputs":[{"indexed":true,"internalType":"address","name":"from","type":"address"},{"indexed":true,"internalType":"address","name":"to","type":"address"},{"indexed":false,"internalType":"uint256","name":"amount","type":"uint256"}],"name":"Fingered","type":"event"},{"anonymous":false,"inputs":[{"indexed":true,"internalType":"address","name":"previousOwner","type":"address"},{"indexed":true,"internalType":"address","name":"newOwner","type":"address"}],"name":"OwnershipTransferred","type":"event"},{"anonymous":false,"inputs":[{"indexed":false,"internalType":"address","name":"account","type":"address"}],"name":"Paused","type":"event"},{"anonymous":false,"inputs":[{"indexed":true,"internalType":"uint256","name":"proposalId","type":"uint256"},{"indexed":true,"internalType":"address","name":"proposer","type":"address"},{"indexed":false,"internalType":"string","name":"description","type":"string"}],"name":"ProposalCreated","type":"event"},{"anonymous":false,"inputs":[{"indexed":true,"internalType":"uint256","name":"proposalId","type":"uint256"}],"name":"ProposalExecuted","type":"event"},{"anonymous":false,"inputs":[{"indexed":true,"internalType":"address","name":"user","type":"address"},{"indexed":false,"internalType":"uint256","name":"reward","type":"uint256"},{"indexed":false,"internalType":"uint256","name":"stakeIndex","type":"uint256"}],"name":"RewardClaimed","type":"event"},{"anonymous":false,"inputs":[{"indexed":true,"internalType":"address","name":"user","type":"address"},{"indexed":false,"internalType":"uint256","name":"amount","type":"uint256"},{"indexed":false,"internalType":"uint256","name":"lockPeriod","type":"uint256"},{"indexed":false,"internalType":"uint256","name":"stakeIndex","type":"uint256"}],"name":"Staked","type":"event"},{"anonymous":false,"inputs":[{"indexed":true,"internalType":"address","name":"from","type":"address"},{"indexed":true,"internalType":"address","name":"to","type":"address"},{"indexed":false,"internalType":"uint256","name":"value","type":"uint256"}],"name":"Transfer","type":"event"},{"anonymous":false,"inputs":[{"indexed":false,"internalType":"address","name":"account","type":"address"}],"name":"Unpaused","type":"event"},{"anonymous":false,"inputs":[{"indexed":true,"internalType":"address","name":"user","type":"address"},{"indexed":false,"internalType":"uint256","name":"amount","type":"uint256"},{"indexed":false,"internalType":"uint256","name":"stakeIndex","type":"uint256"}],"name":"Unstaked","type":"event"},{"anonymous":false,"inputs":[{"indexed":true,"internalType":"uint256","name":"proposalId","type":"uint256"},{"indexed":true,"internalType":"address","name":"voter","type":"address"},{"indexed":false,"internalType":"bool","name":"support","type":"bool"},{"indexed":false,"internalType":"uint256","name":"votingPower","type":"uint256"}],"name":"VoteCast","type":"event"},{"inputs":[],"name":"EXECUTION_DELAY","outputs":[{"internalType":"uint256","name":"","type":"uint256"}],"stateMutability":"view","type":"function"},{"inputs":[],"name":"FEE_CHANGE_DELAY","outputs":[{"internalType":"uint256","name":"","type":"uint256"}],"stateMutability":"view","type":"function"},{"inputs":[],"name":"LOCK_180_DAYS","outputs":[{"internalType":"uint256","name":"","type":"uint256"}],"stateMutability":"view","type":"function"},{"inputs":[],"name":"LOCK_30_DAYS","outputs":[{"internalType":"uint256","name":"","type":"uint256"}],"stateMutability":"view","type":"function"},{"inputs":[],"name":"LOCK_365_DAYS","outputs":[{"internalType":"uint256","name":"","type":"uint256"}],"stateMutability":"view","type":"function"},{"inputs":[],"name":"LOCK_90_DAYS","outputs":[{"internalType":"uint256","name":"","type":"uint256"}],"stateMutability":"view","type":"function"},{"inputs":[],"name":"MAX_TOTAL_FEE_BP","outputs":[{"internalType":"uint256","name":"","type":"uint256"}],"stateMutability":"view","type":"function"},{"inputs":[],"name":"PROPOSAL_THRESHOLD","outputs":[{"internalType":"uint256","name":"","type":"uint256"}],"stateMutability":"view","type":"function"},{"inputs":[],"name":"QUORUM_PERCENTAGE","outputs":[{"internalType":"uint256","name":"","type":"uint256"}],"stateMutability":"view","type":"function"},{"inputs":[],"name":"TOTAL_SUPPLY","outputs":[{"internalType":"uint256","name":"","type":"uint256"}],"stateMutability":"view","type":"function"},{"inputs":[],"name":"VOTING_PERIOD","outputs":[{"internalType":"uint256","name":"","type":"uint256"}],"stateMutability":"view","type":"function"},{"inputs":[{"internalType":"uint256","name":"amount","type":"uint256"}],"name":"addToRewardPool","outputs":[],"stateMutability":"nonpayable","type":"function"},{"inputs":[{"internalType":"address","name":"owner","type":"address"},{"internalType":"address","name":"spender","type":"address"}],"name":"allowance","outputs":[{"internalType":"uint256","name":"","type":"uint256"}],"stateMutability":"view","type":"function"},{"inputs":[{"internalType":"address","name":"spender","type":"address"},{"internalType":"uint256","name":"value","type":"uint256"}],"name":"approve","outputs":[{"internalType":"bool","name":"","type":"bool"}],"stateMutability":"nonpayable","type":"function"},{"inputs":[{"internalType":"address","name":"account","type":"address"}],"name":"balanceOf","outputs":[{"internalType":"uint256","name":"","type":"uint256"}],"stateMutability":"view","type":"function"},{"inputs":[{"internalType":"uint256","name":"amount","type":"uint256"}],"name":"burn","outputs":[],"stateMutability":"nonpayable","type":"function"},{"inputs":[],"name":"decimals","outputs":[{"internalType":"uint8","name":"","type":"uint8"}],"stateMutability":"view","type":"function"},{"inputs":[],"name":"emergencyPause","outputs":[],"stateMutability":"nonpayable","type":"function"},{"inputs":[],"name":"emergencyUnpause","outputs":[],"stateMutability":"nonpayable","type":"function"},{"inputs":[{"internalType":"uint256","name":"proposalId","type":"uint256"}],"name":"execute","outputs":[],"stateMutability":"nonpayable","type":"function"},{"inputs":[],"name":"executor","outputs":[{"internalType":"address","name":"","type":"address"}],"stateMutability":"view","type":"function"},{"inputs":[],"name":"feeToBurnBP","outputs":[{"internalType":"uint256","name":"","type":"uint256"}],"stateMutability":"view","type":"function"},{"inputs":[],"name":"feeToFounderBP","outputs":[{"internalType":"uint256","name":"","type":"uint256"}],"stateMutability":"view","type":"function"},{"inputs":[],"name":"feeToTreasuryBP","outputs":[{"internalType":"uint256","name":"","type":"uint256"}],"stateMutability":"view","type":"function"},{"inputs":[],"name":"founderWallet","outputs":[{"internalType":"address","name":"","type":"address"}],"stateMutability":"view","type":"function"},{"inputs":[{"internalType":"address","name":"account","type":"address"}],"name":"getVotingPower","outputs":[{"internalType":"uint256","name":"","type":"uint256"}],"stateMutability":"view","type":"function"},{"inputs":[{"internalType":"uint256","name":"","type":"uint256"},{"internalType":"address","name":"","type":"address"}],"name":"hasVoted","outputs":[{"internalType":"bool","name":"","type":"bool"}],"stateMutability":"view","type":"function"},{"inputs":[{"internalType":"address","name":"","type":"address"}],"name":"isFeeExempt","outputs":[{"internalType":"bool","name":"","type":"bool"}],"stateMutability":"view","type":"function"},{"inputs":[],"name":"lastFeeChange","outputs":[{"internalType":"uint256","name":"","type":"uint256"}],"stateMutability":"view","type":"function"},{"inputs":[{"internalType":"address","name":"","type":"address"}],"name":"lastTxBlock","outputs":[{"internalType":"uint256","name":"","type":"uint256"}],"stateMutability":"view","type":"function"},{"inputs":[{"internalType":"address","name":"","type":"address"}],"name":"lastTxTime","outputs":[{"internalType":"uint256","name":"","type":"uint256"}],"stateMutability":"view","type":"function"},{"inputs":[],"name":"name","outputs":[{"internalType":"string","name":"","type":"string"}],"stateMutability":"view","type":"function"},{"inputs":[],"name":"owner","outputs":[{"internalType":"address","name":"","type":"address"}],"stateMutability":"view","type":"function"},{"inputs":[{"internalType":"address","name":"proposer","type":"address"},{"internalType":"string","name":"description","type":"string"},{"internalType":"enum FIACoinV6.ProposalType","name":"pType","type":"uint8"},{"internalType":"bytes","name":"data","type":"bytes"}],"name":"ownerCreateProposalForTests","outputs":[{"internalType":"uint256","name":"","type":"uint256"}],"stateMutability":"nonpayable","type":"function"},{"inputs":[{"internalType":"address","name":"to","type":"address"},{"internalType":"uint256","name":"amount","type":"uint256"}],"name":"ownerMintForTests","outputs":[],"stateMutability":"nonpayable","type":"function"},{"inputs":[],"name":"paused","outputs":[{"internalType":"bool","name":"","type":"bool"}],"stateMutability":"view","type":"function"},{"inputs":[],"name":"proposalCount","outputs":[{"internalType":"uint256","name":"","type":"uint256"}],"stateMutability":"view","type":"function"},{"inputs":[{"internalType":"uint256","name":"","type":"uint256"}],"name":"proposals","outputs":[{"internalType":"uint256","name":"id","type":"uint256"},{"internalType":"address","name":"proposer","type":"address"},{"internalType":"string","name":"description","type":"string"},{"internalType":"uint256","name":"forVotes","type":"uint256"},{"internalType":"uint256","name":"againstVotes","type":"uint256"},{"internalType":"uint256","name":"startTime","type":"uint256"},{"internalType":"uint256","name":"endTime","type":"uint256"},{"internalType":"bool","name":"executed","type":"bool"},{"internalType":"enum FIACoinV6.ProposalType","name":"proposalType","type":"uint8"},{"internalType":"bytes","name":"proposalData","type":"bytes"}],"stateMutability":"view","type":"function"},{"inputs":[{"internalType":"string","name":"description","type":"string"},{"internalType":"enum FIACoinV6.ProposalType","name":"pType","type":"uint8"},{"internalType":"bytes","name":"data","type":"bytes"}],"name":"propose","outputs":[{"internalType":"uint256","name":"","type":"uint256"}],"stateMutability":"nonpayable","type":"function"},{"inputs":[{"internalType":"address","name":"to","type":"address"},{"internalType":"uint256","name":"amount","type":"uint256"},{"internalType":"uint256","name":"nonce","type":"uint256"}],"name":"protectedTransfer","outputs":[{"internalType":"bool","name":"","type":"bool"}],"stateMutability":"nonpayable","type":"function"},{"inputs":[],"name":"renounceOwnership","outputs":[],"stateMutability":"nonpayable","type":"function"},{"inputs":[],"name":"rewardPool","outputs":[{"internalType":"uint256","name":"","type":"uint256"}],"stateMutability":"view","type":"function"},{"inputs":[{"internalType":"address","name":"_executor","type":"address"}],"name":"setExecutor","outputs":[],"stateMutability":"nonpayable","type":"function"},{"inputs":[{"internalType":"uint256","name":"_treasury","type":"uint256"},{"internalType":"uint256","name":"_founder","type":"uint256"},{"internalType":"uint256","name":"_burn","type":"uint256"}],"name":"setFeeDistribution","outputs":[],"stateMutability":"nonpayable","type":"function"},{"inputs":[{"internalType":"address","name":"account","type":"address"},{"internalType":"bool","name":"exempt","type":"bool"}],"name":"setFeeExempt","outputs":[],"stateMutability":"nonpayable","type":"function"},{"inputs":[{"internalType":"uint256","name":"_totalFeeBP","type":"uint256"}],"name":"setTotalFeeBP","outputs":[],"stateMutability":"nonpayable","type":"function"},{"inputs":[{"internalType":"uint256","name":"","type":"uint256"}],"name":"stakingAPY","outputs":[{"internalType":"uint256","name":"","type":"uint256"}],"stateMutability":"view","type":"function"},{"inputs":[],"name":"symbol","outputs":[{"internalType":"string","name":"","type":"string"}],"stateMutability":"view","type":"function"},{"inputs":[],"name":"tokenStats","outputs":[{"internalType":"uint256","name":"totalFeeCollected","type":"uint256"},{"internalType":"uint256","name":"totalBurned","type":"uint256"},{"internalType":"uint256","name":"totalStaked","type":"uint256"},{"internalType":"uint256","name":"uniqueHolders","type":"uint256"},{"internalType":"uint256","name":"transactionCount","type":"uint256"}],"stateMutability":"view","type":"function"},{"inputs":[],"name":"totalFeeBP","outputs":[{"internalType":"uint256","name":"","type":"uint256"}],"stateMutability":"view","type":"function"},{"inputs":[],"name":"totalStaked","outputs":[{"internalType":"uint256","name":"","type":"uint256"}],"stateMutability":"view","type":"function"},{"inputs":[],"name":"totalSupply","outputs":[{"internalType":"uint256","name":"","type":"uint256"}],"stateMutability":"view","type":"function"},{"inputs":[{"internalType":"address","name":"to","type":"address"},{"internalType":"uint256","name":"value","type":"uint256"}],"name":"transfer","outputs":[{"internalType":"bool","name":"","type":"bool"}],"stateMutability":"nonpayable","type":"function"},{"inputs":[{"internalType":"address","name":"from","type":"address"},{"internalType":"address","name":"to","type":"address"},{"internalType":"uint256","name":"value","type":"uint256"}],"name":"transferFrom","outputs":[{"internalType":"bool","name":"","type":"bool"}],"stateMutability":"nonpayable","type":"function"},{"inputs":[{"internalType":"address","name":"newOwner","type":"address"}],"name":"transferOwnership","outputs":[],"stateMutability":"nonpayable","type":"function"},{"inputs":[],"name":"treasury","outputs":[{"internalType":"address","name":"","type":"address"}],"stateMutability":"view","type":"function"},{"inputs":[],"name":"txLimits","outputs":[{"internalType":"uint256","name":"maxTxAmount","type":"uint256"},{"internalType":"uint256","name":"maxWalletAmount","type":"uint256"},{"internalType":"uint256","name":"txCooldown","type":"uint256"},{"internalType":"bool","name":"limitsActive","type":"bool"}],"stateMutability":"view","type":"function"},{"inputs":[{"internalType":"bytes32","name":"","type":"bytes32"}],"name":"usedNonces","outputs":[{"internalType":"bool","name":"","type":"bool"}],"stateMutability":"view","type":"function"},{"inputs":[{"internalType":"address","name":"","type":"address"},{"internalType":"uint256","name":"","type":"uint256"}],"name":"userStakes","outputs":[{"internalType":"uint256","name":"amount","type":"uint256"},{"internalType":"uint256","name":"stakingTime","type":"uint256"},{"internalType":"uint256","name":"lastRewardClaim","type":"uint256"},{"internalType":"uint256","name":"lockPeriod","type":"uint256"},{"internalType":"bool","name":"autoCompound","type":"bool"}],"stateMutability":"view","type":"function"},{"inputs":[{"internalType":"address","name":"","type":"address"}],"name":"userStats","outputs":[{"internalType":"uint256","name":"totalFeesPaid","type":"uint256"},{"internalType":"uint256","name":"totalStakingRewards","type":"uint256"},{"internalType":"uint256","name":"transactionCount","type":"uint256"},{"internalType":"uint256","name":"firstTransactionTime","type":"uint256"}],"stateMutability":"view","type":"function"},{"inputs":[{"internalType":"uint256","name":"proposalId","type":"uint256"},{"internalType":"bool","name":"support","type":"bool"}],"name":"vote","outputs":[],"stateMutability":"nonpayable","type":"function"},{"inputs":[{"internalType":"uint256","name":"","type":"uint256"},{"internalType":"address","name":"","type":"address"}],"name":"votingPower","outputs":[{"internalType":"uint256","name":"","type":"uint256"}],"stateMutability":"view","type":"function"}],"evm":{"bytecode":{"linkReferences":{},"object":"6080604052606460075560326008556014600955601e600a553480156200002557600080fd5b5060405162003c8638038062003c86833981016040819052620000489162000b58565b336040518060400160405280600a8152602001692334b0a1b7b4b7103b1b60b11b8152506040518060400160405280600381526020016246494160e81b815250816003908162000099919062000c46565b506004620000a8828262000c46565b5050506001600160a01b038116620000db57604051631e4fbdf760e01b8152600060048201526024015b60405180910390fd5b620000e6816200039d565b506001600655600f805460ff60a01b1916600160a01b1790556001600160a01b038316158015906200012057506001600160a01b03821615155b6200016e5760405162461bcd60e51b815260206004820152601860248201527f5a65726f2061646472657373206e6f7420616c6c6f77656400000000000000006044820152606401620000d2565b600c80546001600160a01b038086166001600160a01b031992831617909255600d8054858416908316179055600f80549284169290911691909117905542600b55600754600a54600954600854620001c7919062000d28565b620001d3919062000d28565b14620002225760405162461bcd60e51b815260206004820152601860248201527f496e76616c69642066656520646973747269627574696f6e00000000000000006044820152606401620000d2565b601760205261012c7fde76e11c5d351371c0ab5f4f054874c0280415fbcd6d59465fa3c6de30080952556101f47f18f6c95e2c535ac8785f4f248c7ccda041905cec1eb53b293738b004eb678b45556102bc7f0a6517c63730efe90efbfce5899bd250b0f825c6da952dec1d2a8deb35d176d6556301e133806000526103847fbe02ee63ce8b3f8ef8acc702b614f7c31098b7c8b2c9f100ba0b162106c0044055604080516080810190915280620002eb6103e86d314dc6448d9338c15b0a0000000062000d44565b81526020016200030b60646d314dc6448d9338c15b0a0000000062000d44565b8152603c60208083019190915260016040928301528251601855820151601955810151601a5560600151601b805460ff1916911515919091179055600c546200036c906001600160a01b03166d314dc6448d9338c15b0a00000000620003ef565b505060016022555033600090815260246020526040902042600390910155600f805460ff60a01b1916905562000db3565b600580546001600160a01b038381166001600160a01b0319831681179093556040519116919082907f8be0079c531659141344cd1fd0a4f28419497f9722a3daafe3b4186f6b6457e090600090a35050565b6001600160a01b0382166200041b5760405163ec442f0560e01b815260006004820152602401620000d2565b62000429600083836200042d565b5050565b62000437620008b8565b600f54600160a01b900460ff1615620004c15762000457838383620008ed565b6001600160a01b038316158015906200047857506001600160a01b03821615155b15620004bc57816001600160a01b0316836001600160a01b031660008051602062003c6683398151915283604051620004b391815260200190565b60405180910390a35b505050565b6001600160a01b03831615801590620004e257506001600160a01b03821615155b15620004f557620004f583838362000a13565b6001600160a01b038316620005565762000511838383620008ed565b6001600160a01b03821615620004bc57816001600160a01b0316836001600160a01b031660008051602062003c6683398151915283604051620004b391815260200190565b6001600160a01b038216620005955762000572838383620008ed565b80601f600101600082825462000589919062000d28565b90915550620004bc9050565b6007541580620005bd57506001600160a01b0383166000908152600e602052604090205460ff165b80620005e157506001600160a01b0382166000908152600e602052604090205460ff165b156200062957620005f4838383620008ed565b816001600160a01b0316836001600160a01b031660008051602062003c6683398151915283604051620004b391815260200190565b601b5460ff1680156200064557506001600160a01b0383163014155b80156200065b57506001600160a01b0382163014155b156200070d576200066c8162000abb565b6019548162000690846001600160a01b031660009081526020819052604090205490565b6200069c919062000d28565b11156200070d576001600160a01b0382166000908152600e602052604090205460ff166200070d5760405162461bcd60e51b815260206004820152601560248201527f57616c6c6574206c696d697420657863656564656400000000000000000000006044820152606401620000d2565b60006127106007548362000722919062000d67565b6200072e919062000d44565b905060006007546008548362000745919062000d67565b62000751919062000d44565b905060006007546009548462000768919062000d67565b62000774919062000d44565b905060008162000785848662000d81565b62000791919062000d81565b90506000620007a1858762000d81565b90508315620007c457600c54620007c49089906001600160a01b031686620008ed565b8215620007e557600d54620007e59089906001600160a01b031685620008ed565b81156200081757620007fa88600084620008ed565b81601f600101600082825462000811919062000d28565b90915550505b62000824888883620008ed565b84601f60000160008282546200083b919062000d28565b90915550506001600160a01b038816600090815260246020526040812080548792906200086a90849062000d28565b92505081905550866001600160a01b0316886001600160a01b031660008051602062003c6683398151915283604051620008a691815260200190565b60405180910390a35050505050505050565b620008cc600554600160a01b900460ff1690565b15620008eb5760405163d93c066560e01b815260040160405180910390fd5b565b6001600160a01b0383166200091c57806002600082825462000910919062000d28565b90915550620009909050565b6001600160a01b03831660009081526020819052604090205481811015620009715760405163391434e360e21b81526001600160a01b03851660048201526024810182905260448101839052606401620000d2565b6001600160a01b03841660009081526020819052604090209082900390555b6001600160a01b038216620009ae57600280548290039055620009cd565b6001600160a01b03821660009081526020819052604090208054820190555b816001600160a01b0316836001600160a01b03167fddf252ad1be2c89b69c2b068fc378daa952ba7f163c4a11628f55a4df523b3ef83604051620004b391815260200190565b6023805490600062000a258362000d97565b90915550506001600160a01b038316600090815260246020526040812060020180549162000a538362000d97565b90915550506001600160a01b038216600090815260246020526040812060030154900362000ab0576001600160a01b038216600090815260246020526040812042600390910155602280549162000aaa8362000d97565b91905055505b505060155460215550565b601b5460ff16801562000ade5750336000908152600e602052604090205460ff16155b1562000b385760185481111562000b385760405162461bcd60e51b815260206004820181905260248201527f5472616e73616374696f6e20616d6f756e742065786365656473206c696d69746044820152606401620000d2565b50565b80516001600160a01b038116811462000b5357600080fd5b919050565b60008060006060848603121562000b6e57600080fd5b62000b798462000b3b565b925062000b896020850162000b3b565b915062000b996040850162000b3b565b90509250925092565b634e487b7160e01b600052604160045260246000fd5b600181811c9082168062000bcd57607f821691505b60208210810362000bee57634e487b7160e01b600052602260045260246000fd5b50919050565b601f821115620004bc57600081815260208120601f850160051c8101602086101562000c1d5750805b601f850160051c820191505b8181101562000c3e5782815560010162000c29565b505050505050565b81516001600160401b0381111562000c625762000c6262000ba2565b62000c7a8162000c73845462000bb8565b8462000bf4565b602080601f83116001811462000cb2576000841562000c995750858301515b600019600386901b1c1916600185901b17855562000c3e565b600085815260208120601f198616915b8281101562000ce35788860151825594840194600190910190840162000cc2565b508582101562000d025787850151600019600388901b60f8161c191681555b5050505050600190811b01905550565b634e487b7160e01b600052601160045260246000fd5b8082018082111562000d3e5762000d3e62000d12565b92915050565b60008262000d6257634e487b7160e01b600052601260045260246000fd5b500490565b808202811582820484141762000d3e5762000d3e62000d12565b8181038181111562000d3e5762000d3e62000d12565b60006001820162000dac5762000dac62000d12565b5060010190565b612ea38062000dc36000396000f3fe608060405234801561001057600080fd5b50600436106103ba5760003560e01c80638893002f116101f4578063ba8e568f1161011a578063dd62ed3e116100ad578063f2fde38b1161007c578063f2fde38b146108e1578063f6141345146108f4578063fe0d94c1146108fd578063feb617241461091057600080fd5b8063dd62ed3e1461085b578063e37c3a5514610894578063ee8a7c151461089e578063f270fde4146108a657600080fd5b8063c9d27afe116100e9578063c9d27afe146107f4578063ceb88a1614610807578063d90125a514610827578063da35c6641461085257600080fd5b8063ba8e568f146107b1578063bb4d4436146107c4578063be8a361f146107d7578063c34c08e5146107e157600080fd5b8063a41b108311610192578063b0dfd2e611610161578063b0dfd2e614610715578063b1610d7e14610757578063b5d5b5fa14610761578063b95ffbce1461079e57600080fd5b8063a41b1083146106cb578063a6c26603146106de578063a9059cbb146106ef578063ad1cecb21461070257600080fd5b80638ebfc796116101ce5780638ebfc79614610688578063902d55a51461069b57806395d89b41146106b0578063a23d3c35146106b857600080fd5b80638893002f1461060f5780638a65d874146106225780638da5cb5b1461067757600080fd5b80634a4e3bd5116102e457806369505688116102775780637c6e5db7116102465780637c6e5db7146105d2578063817b1cd2146105dc57806382865218146105e5578063875bb4e2146105ef57600080fd5b806369505688146105a657806370a08231146105af578063715018a6146105c25780637c4ccbea146105ca57600080fd5b80635c1b1bac116102b35780635c1b1bac1461054d5780635c975abb1461056057806361d027b31461057257806366666aa91461059d57600080fd5b80634a4e3bd51461052957806351383f981461053157806351858e271461053c57806355ef9b5e1461054457600080fd5b80631c3c0ea81161035c57806337f135d71161032b57806337f135d7146104bb5780633f4218e0146104c557806342966c68146104e857806343859632146104fb57600080fd5b80631c3c0ea8146104715780631f1f5bb31461048657806323b872dd14610499578063313ce567146104ac57600080fd5b8063118725ce11610398578063118725ce14610429578063120a81511461044057806317d636051461044957806318160ddd1461046957600080fd5b8063013cf08b146103bf57806306fdde03146103f1578063095ea7b314610406575b600080fd5b6103d26103cd366004612793565b610933565b6040516103e89a99989796959493929190612808565b60405180910390f35b6103f9610aa8565b6040516103e8919061289e565b6104196104143660046128cd565b610b3a565b60405190151581526020016103e8565b61043260095481565b6040519081526020016103e8565b610432600a5481565b6104326104573660046128f9565b601e6020526000908152604090205481565b600254610432565b61048461047f3660046128f9565b610b54565b005b610484610494366004612793565b610b7e565b6104196104a7366004612916565b610c7b565b604051601281526020016103e8565b6104326202a30081565b6104196104d33660046128f9565b600e6020526000908152604090205460ff1681565b6104846104f6366004612793565b610c9f565b610419610509366004612957565b601260209081526000928352604080842090915290825290205460ff1681565b610484610cc6565b6104326301e1338081565b610484610d2c565b61043260085481565b61043261055b366004612a3e565b610d8a565b600554600160a01b900460ff16610419565b600c54610585906001600160a01b031681565b6040516001600160a01b0390911681526020016103e8565b61043260165481565b610432600b5481565b6104326105bd3660046128f9565b610f44565b610484610f5f565b61043260c881565b61043262278d0081565b61043260155481565b61043262ed4e0081565b6104326105fd366004612793565b60176020526000908152604090205481565b61041961061d366004612ac5565b610f73565b6106576106303660046128f9565b60246020526000908152604090208054600182015460028301546003909301549192909184565b6040805194855260208501939093529183015260608201526080016103e8565b6005546001600160a01b0316610585565b610484610696366004612b0a565b61111c565b6104326d314dc6448d9338c15b0a0000000081565b6103f9611183565b600d54610585906001600160a01b031681565b6104846106d93660046128cd565b611192565b61043269d3c21bcecceda100000081565b6104196106fd3660046128cd565b6111c8565b610432610710366004612b3f565b6111d6565b601f5460205460215460225460235461072f949392919085565b604080519586526020860194909452928401919091526060830152608082015260a0016103e8565b61043262093a8081565b61077461076f3660046128cd565b6113f3565b6040805195865260208601949094529284019190915260608301521515608082015260a0016103e8565b6104846107ac366004612793565b611444565b6104846107bf366004612bb3565b6114b8565b6104326107d23660046128f9565b611584565b6104326201518081565b600f54610585906001600160a01b031681565b610484610802366004612bdf565b61158f565b6104326108153660046128f9565b601c6020526000908152604090205481565b610432610835366004612957565b601360209081526000928352604080842090915290825290205481565b61043260105481565b610432610869366004612c02565b6001600160a01b03918216600090815260016020908152604080832093909416825291909152205490565b6104326276a70081565b610432600a81565b601854601954601a54601b546108bf9392919060ff1684565b60408051948552602085019390935291830152151560608201526080016103e8565b6104846108ef3660046128f9565b6117af565b61043260075481565b61048461090b366004612793565b6117ed565b61041961091e366004612793565b601d6020526000908152604090205460ff1681565b60116020526000908152604090208054600182015460028301805492936001600160a01b039092169261096590612c30565b80601f016020809104026020016040519081016040528092919081815260200182805461099190612c30565b80156109de5780601f106109b3576101008083540402835291602001916109de565b820191906000526020600020905b8154815290600101906020018083116109c157829003601f168201915b5050506003840154600485015460058601546006870154600788015460088901805498999598949750929550909360ff8083169461010090930416929091610a2590612c30565b80601f0160208091040260200160405190810160405280929190818152602001828054610a5190612c30565b8015610a9e5780601f10610a7357610100808354040283529160200191610a9e565b820191906000526020600020905b815481529060010190602001808311610a8157829003601f168201915b505050505090508a565b606060038054610ab790612c30565b80601f0160208091040260200160405190810160405280929190818152602001828054610ae390612c30565b8015610b305780601f10610b0557610100808354040283529160200191610b30565b820191906000526020600020905b815481529060010190602001808311610b1357829003601f168201915b5050505050905090565b600033610b48818585611c6e565b60019150505b92915050565b610b5c611c80565b600f80546001600160a01b0319166001600160a01b0392909216919091179055565b610b86611c80565b60c8811115610bd25760405162461bcd60e51b81526020600482015260136024820152724665652065786365656473206d6178696d756d60681b60448201526064015b60405180910390fd5b62015180600b54610be39190612c80565b421015610c325760405162461bcd60e51b815260206004820152601760248201527f466565206368616e676520746f6f206672657175656e740000000000000000006044820152606401610bc9565b600780549082905542600b5560408051828152602081018490527fcf4c3ba0667a6e28c2746a4ee8d23efa18b2ca17591c2a22c36773a0232661d8910160405180910390a15050565b600033610c89858285611cad565b610c94858585611d2c565b506001949350505050565b610ca93382611d8b565b80601f6001016000828254610cbe9190612c80565b909155505050565b610cce611c80565b610cd6611dc5565b6040805181815260079181019190915266554e504155534560c81b60608201523360208201527f2a09e26ec96218a3a144df2e04de096b7f0410106a4caff3cdfa5d667e604f2a906080015b60405180910390a1565b610d34611c80565b610d3c611e15565b6040805181815260059181019190915264504155534560d81b60608201523360208201527f2a09e26ec96218a3a144df2e04de096b7f0410106a4caff3cdfa5d667e604f2a90608001610d22565b6000610d94611c80565b6010805460009182610da583612c93565b919050559050604051806101400160405280828152602001876001600160a01b03168152602001868152602001600081526020016000815260200142815260200162093a8042610df59190612c80565b815260006020820152604001856003811115610e1357610e136127f2565b8152602090810185905260008381526011825260409081902083518155918301516001830180546001600160a01b0319166001600160a01b039092169190911790558201516002820190610e679082612cfa565b50606082015181600301556080820151816004015560a0820151816005015560c0820151816006015560e08201518160070160006101000a81548160ff0219169083151502179055506101008201518160070160016101000a81548160ff02191690836003811115610edb57610edb6127f2565b02179055506101208201516008820190610ef59082612cfa565b50905050856001600160a01b0316817f7585f467599d0f008985f231af99293be388626ac16ca59505c2f8f88969cd6387604051610f33919061289e565b60405180910390a395945050505050565b6001600160a01b031660009081526020819052604090205490565b610f67611c80565b610f716000611e58565b565b601b54600090829060ff161561110857336000908152601c60205260409020544311610fda5760405162461bcd60e51b815260206004820152601660248201527529b0b6b290313637b1b5903a3930b739b0b1ba34b7b760511b6044820152606401610bc9565b6040805133602080830191909152818301849052825180830384018152606090920183528151918101919091206000908152601d909152205460ff16156110505760405162461bcd60e51b815260206004820152600a602482015269139bdb98d9481d5cd95960b21b6044820152606401610bc9565b601a54336000908152601e602052604090205461106d9190612c80565b4210156110af5760405162461bcd60e51b815260206004820152601060248201526f10dbdbdb191bdddb881b9bdd081b595d60821b6044820152606401610bc9565b336000818152601c602090815260408083204390558051808301859052808201869052815180820383018152606090910182528051908301208352601d8252808320805460ff19166001179055928252601e9052204290555b61111184611eaa565b610c94338686611d2c565b611124611c80565b6001600160a01b0382166000818152600e6020908152604091829020805460ff191685151590811790915591519182527f210f2a4a589e25d95b24cbdb060d26ae79bbe123a564d0f973503d48badd00ca910160405180910390a25050565b606060048054610ab790612c30565b61119a611c80565b600f805460ff60a01b1916600160a01b1790556111b78282611f23565b5050600f805460ff60a01b19169055565b600033610b48818585611d2c565b600069d3c21bcecceda10000006111ec33610f44565b10156112445760405162461bcd60e51b815260206004820152602160248201527f496e73756666696369656e742062616c616e636520666f722070726f706f73616044820152601b60fa1b6064820152608401610bc9565b601080546000918261125583612c93565b919050559050604051806101400160405280828152602001336001600160a01b03168152602001868152602001600081526020016000815260200142815260200162093a80426112a59190612c80565b8152600060208201526040018560038111156112c3576112c36127f2565b8152602090810185905260008381526011825260409081902083518155918301516001830180546001600160a01b0319166001600160a01b0390921691909117905582015160028201906113179082612cfa565b50606082015181600301556080820151816004015560a0820151816005015560c0820151816006015560e08201518160070160006101000a81548160ff0219169083151502179055506101008201518160070160016101000a81548160ff0219169083600381111561138b5761138b6127f2565b021790555061012082015160088201906113a59082612cfa565b50905050336001600160a01b0316817f7585f467599d0f008985f231af99293be388626ac16ca59505c2f8f88969cd63876040516113e3919061289e565b60405180910390a3949350505050565b6014602052816000526040600020818154811061140f57600080fd5b600091825260209091206005909102018054600182015460028301546003840154600490940154929550909350919060ff1685565b61144c611c80565b8061145633610f44565b101561149b5760405162461bcd60e51b8152602060048201526014602482015273496e73756666696369656e742062616c616e636560601b6044820152606401610bc9565b6114a6333083611d2c565b8060166000828254610cbe9190612c80565b6114c0611c80565b600754816114ce8486612c80565b6114d89190612c80565b1461152f5760405162461bcd60e51b815260206004820152602160248201527f446973747269627574696f6e206d75737420657175616c20746f74616c2066656044820152606560f81b6064820152608401610bc9565b60088390556009829055600a81905560408051848152602081018490529081018290527f69fc4c7ba13251e049284d74af6f22b2804db0152deb918f6cf17451917fe97f9060600160405180910390a1505050565b6000610b4e82610f44565b60105482106115d65760405162461bcd60e51b8152602060048201526013602482015272125b9d985b1a59081c1c9bdc1bdcd85b081251606a1b6044820152606401610bc9565b600082815260126020908152604080832033845290915290205460ff16156116305760405162461bcd60e51b815260206004820152600d60248201526c105b1c9958591e481d9bdd1959609a1b6044820152606401610bc9565b6000828152601160205260409020600601544211156116875760405162461bcd60e51b8152602060048201526013602482015272159bdd1a5b99c81c195c9a5bd908195b991959606a1b6044820152606401610bc9565b600061169233610f44565b9050600081116116d65760405162461bcd60e51b815260206004820152600f60248201526e2737903b37ba34b733903837bbb2b960891b6044820152606401610bc9565b600083815260126020908152604080832033808552908352818420805460ff1916600117905586845260138352818420908452909152902081905581156117435760008381526011602052604081206003018054839290611738908490612c80565b9091555061176a9050565b60008381526011602052604081206004018054839290611764908490612c80565b90915550505b60408051831515815260208101839052339185917fcbdf6214089cba887ecbf35a0b6a734589959c9763342c756bb2a80ca2bc9f6e91015b60405180910390a3505050565b6117b7611c80565b6001600160a01b0381166117e157604051631e4fbdf760e01b815260006004820152602401610bc9565b6117ea81611e58565b50565b60105481106118345760405162461bcd60e51b8152602060048201526013602482015272125b9d985b1a59081c1c9bdc1bdcd85b081251606a1b6044820152606401610bc9565b600f546001600160a01b031633148061185757506005546001600160a01b031633145b6118a35760405162461bcd60e51b815260206004820152601960248201527f4e6f7420617574686f72697a656420746f2065786563757465000000000000006044820152606401610bc9565b6000818152601160205260409020600781015460ff16156118f95760405162461bcd60e51b815260206004820152601060248201526f105b1c9958591e48195e1958dd5d195960821b6044820152606401610bc9565b806006015442116119425760405162461bcd60e51b8152602060048201526013602482015272566f74696e67207374696c6c2061637469766560681b6044820152606401610bc9565b6202a30081600601546119559190612c80565b42116119a35760405162461bcd60e51b815260206004820152601760248201527f457865637574696f6e2064656c6179206e6f74206d65740000000000000000006044820152606401610bc9565b6000816004015482600301546119b99190612c80565b905060006064600a6119ca60025490565b6119d49190612dba565b6119de9190612dd1565b905080821015611a215760405162461bcd60e51b815260206004820152600e60248201526d145d5bdc9d5b481b9bdd081b595d60921b6044820152606401610bc9565b8260040154836003015411611a6c5760405162461bcd60e51b8152602060048201526011602482015270141c9bdc1bdcd85b081c995a9958dd1959607a1b6044820152606401610bc9565b60078301805460ff19166001908117909155604080516101408101825285548152918501546001600160a01b03166020830152600285018054611c3d9392879290840191611ab990612c30565b80601f0160208091040260200160405190810160405280929190818152602001828054611ae590612c30565b8015611b325780601f10611b0757610100808354040283529160200191611b32565b820191906000526020600020905b815481529060010190602001808311611b1557829003601f168201915b50505091835250506003828101546020830152600483015460408301526005830154606083015260068301546080830152600783015460ff808216151560a085015260c0909301926101009091041690811115611b9157611b916127f2565b6003811115611ba257611ba26127f2565b8152602001600882018054611bb690612c30565b80601f0160208091040260200160405190810160405280929190818152602001828054611be290612c30565b8015611c2f5780601f10611c0457610100808354040283529160200191611c2f565b820191906000526020600020905b815481529060010190602001808311611c1257829003601f168201915b505050505081525050611f59565b60405184907f712ae1383f79ac853f8d882153778e0260ef8f03b504e2866e0593e04d2b291f90600090a250505050565b611c7b838383600161209c565b505050565b6005546001600160a01b03163314610f715760405163118cdaa760e01b8152336004820152602401610bc9565b6001600160a01b03838116600090815260016020908152604080832093861683529290522054600019811015611d265781811015611d1757604051637dc7a0d960e11b81526001600160a01b03841660048201526024810182905260448101839052606401610bc9565b611d268484848403600061209c565b50505050565b6001600160a01b038316611d5657604051634b637e8f60e11b815260006004820152602401610bc9565b6001600160a01b038216611d805760405163ec442f0560e01b815260006004820152602401610bc9565b611c7b838383612171565b6001600160a01b038216611db557604051634b637e8f60e11b815260006004820152602401610bc9565b611dc182600083612171565b5050565b611dcd612580565b6005805460ff60a01b191690557f5db9ee0a495bf2e6ff9c91a7834c1ba4fdd244a5e8aa4e537bd38aeae4b073aa335b6040516001600160a01b039091168152602001610d22565b611e1d6125aa565b6005805460ff60a01b1916600160a01b1790557f62e78cea01bee320cd4e420270b5ea74000d11b0c9f74754ebdbfc544b05a258611dfd3390565b600580546001600160a01b038381166001600160a01b0319831681179093556040519116919082907f8be0079c531659141344cd1fd0a4f28419497f9722a3daafe3b4186f6b6457e090600090a35050565b601b5460ff168015611ecc5750336000908152600e602052604090205460ff16155b156117ea576018548111156117ea5760405162461bcd60e51b815260206004820181905260248201527f5472616e73616374696f6e20616d6f756e742065786365656473206c696d69746044820152606401610bc9565b6001600160a01b038216611f4d5760405163ec442f0560e01b815260006004820152602401610bc9565b611dc160008383612171565b60008161010001516003811115611f7257611f726127f2565b03611fe1576000816101200151806020019051810190611f929190612df3565b905060c8811115611fdb5760405162461bcd60e51b81526020600482015260136024820152724665652065786365656473206d6178696d756d60681b6044820152606401610bc9565b60075550565b60018161010001516003811115611ffa57611ffa6127f2565b036117ea5760008082610120015180602001905181019061201b9190612e0c565b600c5491935091508190612037906001600160a01b0316610f44565b10156120855760405162461bcd60e51b815260206004820152601d60248201527f496e73756666696369656e742074726561737572792062616c616e63650000006044820152606401610bc9565b600c54611c7b906001600160a01b03168383611d2c565b6001600160a01b0384166120c65760405163e602df0560e01b815260006004820152602401610bc9565b6001600160a01b0383166120f057604051634a1406b160e11b815260006004820152602401610bc9565b6001600160a01b0380851660009081526001602090815260408083209387168352929052208290558015611d2657826001600160a01b0316846001600160a01b03167f8c5be1e5ebec7d5bd14f71427d1e84f3dd0314c0f7b2291e5b200ac8c7c3b9258460405161216391815260200190565b60405180910390a350505050565b6121796125aa565b600f54600160a01b900460ff16156121ee576121968383836125d5565b6001600160a01b038316158015906121b657506001600160a01b03821615155b15611c7b57816001600160a01b0316836001600160a01b0316600080516020612e4e833981519152836040516117a291815260200190565b6001600160a01b0383161580159061220e57506001600160a01b03821615155b1561221e5761221e8383836126f2565b6001600160a01b038316612279576122378383836125d5565b6001600160a01b03821615611c7b57816001600160a01b0316836001600160a01b0316600080516020612e4e833981519152836040516117a291815260200190565b6001600160a01b0382166122b2576122928383836125d5565b80601f60010160008282546122a79190612c80565b90915550611c7b9050565b60075415806122d957506001600160a01b0383166000908152600e602052604090205460ff165b806122fc57506001600160a01b0382166000908152600e602052604090205460ff165b1561233f5761230c8383836125d5565b816001600160a01b0316836001600160a01b0316600080516020612e4e833981519152836040516117a291815260200190565b601b5460ff16801561235a57506001600160a01b0383163014155b801561236f57506001600160a01b0382163014155b156123fa5761237d81611eaa565b6019548161238a84610f44565b6123949190612c80565b11156123fa576001600160a01b0382166000908152600e602052604090205460ff166123fa5760405162461bcd60e51b815260206004820152601560248201527415d85b1b195d081b1a5b5a5d08195e18d959591959605a1b6044820152606401610bc9565b60006127106007548361240d9190612dba565b6124179190612dd1565b905060006007546008548361242c9190612dba565b6124369190612dd1565b905060006007546009548461244b9190612dba565b6124559190612dd1565b90506000816124648486612e3a565b61246e9190612e3a565b9050600061247c8587612e3a565b9050831561249c57600c5461249c9089906001600160a01b0316866125d5565b82156124ba57600d546124ba9089906001600160a01b0316856125d5565b81156124e7576124cc886000846125d5565b81601f60010160008282546124e19190612c80565b90915550505b6124f28888836125d5565b84601f60000160008282546125079190612c80565b90915550506001600160a01b03881660009081526024602052604081208054879290612534908490612c80565b92505081905550866001600160a01b0316886001600160a01b0316600080516020612e4e8339815191528360405161256e91815260200190565b60405180910390a35050505050505050565b600554600160a01b900460ff16610f7157604051638dfc202b60e01b815260040160405180910390fd5b600554600160a01b900460ff1615610f715760405163d93c066560e01b815260040160405180910390fd5b6001600160a01b0383166126005780600260008282546125f59190612c80565b909155506126729050565b6001600160a01b038316600090815260208190526040902054818110156126535760405163391434e360e21b81526001600160a01b03851660048201526024810182905260448101839052606401610bc9565b6001600160a01b03841660009081526020819052604090209082900390555b6001600160a01b03821661268e576002805482900390556126ad565b6001600160a01b03821660009081526020819052604090208054820190555b816001600160a01b0316836001600160a01b03167fddf252ad1be2c89b69c2b068fc378daa952ba7f163c4a11628f55a4df523b3ef836040516117a291815260200190565b6023805490600061270283612c93565b90915550506001600160a01b038316600090815260246020526040812060020180549161272e83612c93565b90915550506001600160a01b0382166000908152602460205260408120600301549003612788576001600160a01b038216600090815260246020526040812042600390910155602280549161278283612c93565b91905055505b505060155460215550565b6000602082840312156127a557600080fd5b5035919050565b6000815180845260005b818110156127d2576020818501810151868301820152016127b6565b506000602082860101526020601f19601f83011685010191505092915050565b634e487b7160e01b600052602160045260246000fd5b8a81526001600160a01b038a166020820152610140604082018190526000906128338382018c6127ac565b90508960608401528860808401528760a08401528660c084015285151560e08401526004851061287357634e487b7160e01b600052602160045260246000fd5b8461010084015282810361012084015261288d81856127ac565b9d9c50505050505050505050505050565b6020815260006128b160208301846127ac565b9392505050565b6001600160a01b03811681146117ea57600080fd5b600080604083850312156128e057600080fd5b82356128eb816128b8565b946020939093013593505050565b60006020828403121561290b57600080fd5b81356128b1816128b8565b60008060006060848603121561292b57600080fd5b8335612936816128b8565b92506020840135612946816128b8565b929592945050506040919091013590565b6000806040838503121561296a57600080fd5b82359150602083013561297c816128b8565b809150509250929050565b634e487b7160e01b600052604160045260246000fd5b600082601f8301126129ae57600080fd5b813567ffffffffffffffff808211156129c9576129c9612987565b604051601f8301601f19908116603f011681019082821181831017156129f1576129f1612987565b81604052838152866020858801011115612a0a57600080fd5b836020870160208301376000602085830101528094505050505092915050565b803560048110612a3957600080fd5b919050565b60008060008060808587031215612a5457600080fd5b8435612a5f816128b8565b9350602085013567ffffffffffffffff80821115612a7c57600080fd5b612a888883890161299d565b9450612a9660408801612a2a565b93506060870135915080821115612aac57600080fd5b50612ab98782880161299d565b91505092959194509250565b600080600060608486031215612ada57600080fd5b8335612ae5816128b8565b95602085013595506040909401359392505050565b80358015158114612a3957600080fd5b60008060408385031215612b1d57600080fd5b8235612b28816128b8565b9150612b3660208401612afa565b90509250929050565b600080600060608486031215612b5457600080fd5b833567ffffffffffffffff80821115612b6c57600080fd5b612b788783880161299d565b9450612b8660208701612a2a565b93506040860135915080821115612b9c57600080fd5b50612ba98682870161299d565b9150509250925092565b600080600060608486031215612bc857600080fd5b505081359360208301359350604090920135919050565b60008060408385031215612bf257600080fd5b82359150612b3660208401612afa565b60008060408385031215612c1557600080fd5b8235612c20816128b8565b9150602083013561297c816128b8565b600181811c90821680612c4457607f821691505b602082108103612c6457634e487b7160e01b600052602260045260246000fd5b50919050565b634e487b7160e01b600052601160045260246000fd5b80820180821115610b4e57610b4e612c6a565b600060018201612ca557612ca5612c6a565b5060010190565b601f821115611c7b57600081815260208120601f850160051c81016020861015612cd35750805b601f850160051c820191505b81811015612cf257828155600101612cdf565b505050505050565b815167ffffffffffffffff811115612d1457612d14612987565b612d2881612d228454612c30565b84612cac565b602080601f831160018114612d5d5760008415612d455750858301515b600019600386901b1c1916600185901b178555612cf2565b600085815260208120601f198616915b82811015612d8c57888601518255948401946001909101908401612d6d565b5085821015612daa5787850151600019600388901b60f8161c191681555b5050505050600190811b01905550565b8082028115828204841417610b4e57610b4e612c6a565b600082612dee57634e487b7160e01b600052601260045260246000fd5b500490565b600060208284031215612e0557600080fd5b5051919050565b60008060408385031215612e1f57600080fd5b8251612e2a816128b8565b6020939093015192949293505050565b81810381811115610b4e57610b4e612c6a56fe59abb1a21ac9c02d9c217285768a906af17496e4cada7962f129b92f0ac948cfa2646970667358221220c5ab0ec9f89eacbc41e13b2b94261c15233a5770f74dad0ad4321faad45d934c64736f6c6343000814003359abb1a21ac9c02d9c217285768a906af17496e4cada7962f129b92f0ac948cf","opcodes":"PUSH1 0x80 PUSH1 0x40 MSTORE PUSH1 0x64 PUSH1 0x7 SSTORE PUSH1 0x32 PUSH1 0x8 SSTORE PUSH1 0x14 PUSH1 0x9 SSTORE PUSH1 0x1E PUSH1 0xA SSTORE CALLVALUE DUP1 ISZERO PUSH3 0x25 JUMPI PUSH1 0x0 DUP1 REVERT JUMPDEST POP PUSH1 0x40 MLOAD PUSH3 0x3C86 CODESIZE SUB DUP1 PUSH3 0x3C86 DUP4 CODECOPY DUP2 ADD PUSH1 0x40 DUP2 SWAP1 MSTORE PUSH3 0x48 SWAP2 PUSH3 0xB58 JUMP JUMPDEST CALLER PUSH1 0x40 MLOAD DUP1 PUSH1 0x40 ADD PUSH1 0x40 MSTORE DUP1 PUSH1 0xA DUP2 MSTORE PUSH1 0x20 ADD PUSH10 0x2334B0A1B7B4B7103B1B PUSH1 0xB1 SHL DUP2 MSTORE POP PUSH1 0x40 MLOAD DUP1 PUSH1 0x40 ADD PUSH1 0x40 MSTORE DUP1 PUSH1 0x3 DUP2 MSTORE PUSH1 0x20 ADD PUSH3 0x464941 PUSH1 0xE8 SHL DUP2 MSTORE POP DUP2 PUSH1 0x3 SWAP1 DUP2 PUSH3 0x99 SWAP2 SWAP1 PUSH3 0xC46 JUMP JUMPDEST POP PUSH1 0x4 PUSH3 0xA8 DUP3 DUP3 PUSH3 0xC46 JUMP JUMPDEST POP POP POP PUSH1 0x1 PUSH1 0x1 PUSH1 0xA0 SHL SUB DUP2 AND PUSH3 0xDB JUMPI PUSH1 0x40 MLOAD PUSH4 0x1E4FBDF7 PUSH1 0xE0 SHL DUP2 MSTORE PUSH1 0x0 PUSH1 0x4 DUP3 ADD MSTORE PUSH1 0x24 ADD JUMPDEST PUSH1 0x40 MLOAD DUP1 SWAP2 SUB SWAP1 REVERT JUMPDEST PUSH3 0xE6 DUP2 PUSH3 0x39D JUMP JUMPDEST POP PUSH1 0x1 PUSH1 0x6 SSTORE PUSH1 0xF DUP1 SLOAD PUSH1 0xFF PUSH1 0xA0 SHL NOT AND PUSH1 0x1 PUSH1 0xA0 SHL OR SWAP1 SSTORE PUSH1 0x1 PUSH1 0x1 PUSH1 0xA0 SHL SUB DUP4 AND ISZERO DUP1 ISZERO SWAP1 PUSH3 0x120 JUMPI POP PUSH1 0x1 PUSH1 0x1 PUSH1 0xA0 SHL SUB DUP3 AND ISZERO ISZERO JUMPDEST PUSH3 0x16E JUMPI PUSH1 0x40 MLOAD PUSH3 0x461BCD PUSH1 0xE5 SHL DUP2 MSTORE PUSH1 0x20 PUSH1 0x4 DUP3 ADD MSTORE PUSH1 0x18 PUSH1 0x24 DUP3 ADD MSTORE PUSH32 0x5A65726F2061646472657373206E6F7420616C6C6F7765640000000000000000 PUSH1 0x44 DUP3 ADD MSTORE PUSH1 0x64 ADD PUSH3 0xD2 JUMP JUMPDEST PUSH1 0xC DUP1 SLOAD PUSH1 0x1 PUSH1 0x1 PUSH1 0xA0 SHL SUB DUP1 DUP7 AND PUSH1 0x1 PUSH1 0x1 PUSH1 0xA0 SHL SUB NOT SWAP3 DUP4 AND OR SWAP1 SWAP3 SSTORE PUSH1 0xD DUP1 SLOAD DUP6 DUP5 AND SWAP1 DUP4 AND OR SWAP1 SSTORE PUSH1 0xF DUP1 SLOAD SWAP3 DUP5 AND SWAP3 SWAP1 SWAP2 AND SWAP2 SWAP1 SWAP2 OR SWAP1 SSTORE TIMESTAMP PUSH1 0xB SSTORE PUSH1 0x7 SLOAD PUSH1 0xA SLOAD PUSH1 0x9 SLOAD PUSH1 0x8 SLOAD PUSH3 0x1C7 SWAP2 SWAP1 PUSH3 0xD28 JUMP JUMPDEST PUSH3 0x1D3 SWAP2 SWAP1 PUSH3 0xD28 JUMP JUMPDEST EQ PUSH3 0x222 JUMPI PUSH1 0x40 MLOAD PUSH3 0x461BCD PUSH1 0xE5 SHL DUP2 MSTORE PUSH1 0x20 PUSH1 0x4 DUP3 ADD MSTORE PUSH1 0x18 PUSH1 0x24 DUP3 ADD MSTORE PUSH32 0x496E76616C69642066656520646973747269627574696F6E0000000000000000 PUSH1 0x44 DUP3 ADD MSTORE PUSH1 0x64 ADD PUSH3 0xD2 JUMP JUMPDEST PUSH1 0x17 PUSH1 0x20 MSTORE PUSH2 0x12C PUSH32 0xDE76E11C5D351371C0AB5F4F054874C0280415FBCD6D59465FA3C6DE30080952 SSTORE PUSH2 0x1F4 PUSH32 0x18F6C95E2C535AC8785F4F248C7CCDA041905CEC1EB53B293738B004EB678B45 SSTORE PUSH2 0x2BC PUSH32 0xA6517C63730EFE90EFBFCE5899BD250B0F825C6DA952DEC1D2A8DEB35D176D6 SSTORE PUSH4 0x1E13380 PUSH1 0x0 MSTORE PUSH2 0x384 PUSH32 0xBE02EE63CE8B3F8EF8ACC702B614F7C31098B7C8B2C9F100BA0B162106C00440 SSTORE PUSH1 0x40 DUP1 MLOAD PUSH1 0x80 DUP2 ADD SWAP1 SWAP2 MSTORE DUP1 PUSH3 0x2EB PUSH2 0x3E8 PUSH14 0x314DC6448D9338C15B0A00000000 PUSH3 0xD44 JUMP JUMPDEST DUP2 MSTORE PUSH1 0x20 ADD PUSH3 0x30B PUSH1 0x64 PUSH14 0x314DC6448D9338C15B0A00000000 PUSH3 0xD44 JUMP JUMPDEST DUP2 MSTORE PUSH1 0x3C PUSH1 0x20 DUP1 DUP4 ADD SWAP2 SWAP1 SWAP2 MSTORE PUSH1 0x1 PUSH1 0x40 SWAP3 DUP4 ADD MSTORE DUP3 MLOAD PUSH1 0x18 SSTORE DUP3 ADD MLOAD PUSH1 0x19 SSTORE DUP2 ADD MLOAD PUSH1 0x1A SSTORE PUSH1 0x60 ADD MLOAD PUSH1 0x1B DUP1 SLOAD PUSH1 0xFF NOT AND SWAP2 ISZERO ISZERO SWAP2 SWAP1 SWAP2 OR SWAP1 SSTORE PUSH1 0xC SLOAD PUSH3 0x36C SWAP1 PUSH1 0x1 PUSH1 0x1 PUSH1 0xA0 SHL SUB AND PUSH14 0x314DC6448D9338C15B0A00000000 PUSH3 0x3EF JUMP JUMPDEST POP POP PUSH1 0x1 PUSH1 0x22 SSTORE POP CALLER PUSH1 0x0 SWAP1 DUP2 MSTORE PUSH1 0x24 PUSH1 0x20 MSTORE PUSH1 0x40 SWAP1 KECCAK256 TIMESTAMP PUSH1 0x3 SWAP1 SWAP2 ADD SSTORE PUSH1 0xF DUP1 SLOAD PUSH1 0xFF PUSH1 0xA0 SHL NOT AND SWAP1 SSTORE PUSH3 0xDB3 JUMP JUMPDEST PUSH1 0x5 DUP1 SLOAD PUSH1 0x1 PUSH1 0x1 PUSH1 0xA0 SHL SUB DUP4 DUP2 AND PUSH1 0x1 PUSH1 0x1 PUSH1 0xA0 SHL SUB NOT DUP4 AND DUP2 OR SWAP1 SWAP4 SSTORE PUSH1 0x40 MLOAD SWAP2 AND SWAP2 SWAP1 DUP3 SWAP1 PUSH32 0x8BE0079C531659141344CD1FD0A4F28419497F9722A3DAAFE3B4186F6B6457E0 SWAP1 PUSH1 0x0 SWAP1 LOG3 POP POP JUMP JUMPDEST PUSH1 0x1 PUSH1 0x1 PUSH1 0xA0 SHL SUB DUP3 AND PUSH3 0x41B JUMPI PUSH1 0x40 MLOAD PUSH4 0xEC442F05 PUSH1 0xE0 SHL DUP2 MSTORE PUSH1 0x0 PUSH1 0x4 DUP3 ADD MSTORE PUSH1 0x24 ADD PUSH3 0xD2 JUMP JUMPDEST PUSH3 0x429 PUSH1 0x0 DUP4 DUP4 PUSH3 0x42D JUMP JUMPDEST POP POP JUMP JUMPDEST PUSH3 0x437 PUSH3 0x8B8 JUMP JUMPDEST PUSH1 0xF SLOAD PUSH1 0x1 PUSH1 0xA0 SHL SWAP1 DIV PUSH1 0xFF AND ISZERO PUSH3 0x4C1 JUMPI PUSH3 0x457 DUP4 DUP4 DUP4 PUSH3 0x8ED JUMP JUMPDEST PUSH1 0x1 PUSH1 0x1 PUSH1 0xA0 SHL SUB DUP4 AND ISZERO DUP1 ISZERO SWAP1 PUSH3 0x478 JUMPI POP PUSH1 0x1 PUSH1 0x1 PUSH1 0xA0 SHL SUB DUP3 AND ISZERO ISZERO JUMPDEST ISZERO PUSH3 0x4BC JUMPI DUP2 PUSH1 0x1 PUSH1 0x1 PUSH1 0xA0 SHL SUB AND DUP4 PUSH1 0x1 PUSH1 0x1 PUSH1 0xA0 SHL SUB AND PUSH1 0x0 DUP1 MLOAD PUSH1 0x20 PUSH3 0x3C66 DUP4 CODECOPY DUP2 MLOAD SWAP2 MSTORE DUP4 PUSH1 0x40 MLOAD PUSH3 0x4B3 SWAP2 DUP2 MSTORE PUSH1 0x20 ADD SWAP1 JUMP JUMPDEST PUSH1 0x40 MLOAD DUP1 SWAP2 SUB SWAP1 LOG3 JUMPDEST POP POP POP JUMP JUMPDEST PUSH1 0x1 PUSH1 0x1 PUSH1 0xA0 SHL SUB DUP4 AND ISZERO DUP1 ISZERO SWAP1 PUSH3 0x4E2 JUMPI POP PUSH1 0x1 PUSH1 0x1 PUSH1 0xA0 SHL SUB DUP3 AND ISZERO ISZERO JUMPDEST ISZERO PUSH3 0x4F5 JUMPI PUSH3 0x4F5 DUP4 DUP4 DUP4 PUSH3 0xA13 JUMP JUMPDEST PUSH1 0x1 PUSH1 0x1 PUSH1 0xA0 SHL SUB DUP4 AND PUSH3 0x556 JUMPI PUSH3 0x511 DUP4 DUP4 DUP4 PUSH3 0x8ED JUMP JUMPDEST PUSH1 0x1 PUSH1 0x1 PUSH1 0xA0 SHL SUB DUP3 AND ISZERO PUSH3 0x4BC JUMPI DUP2 PUSH1 0x1 PUSH1 0x1 PUSH1 0xA0 SHL SUB AND DUP4 PUSH1 0x1 PUSH1 0x1 PUSH1 0xA0 SHL SUB AND PUSH1 0x0 DUP1 MLOAD PUSH1 0x20 PUSH3 0x3C66 DUP4 CODECOPY DUP2 MLOAD SWAP2 MSTORE DUP4 PUSH1 0x40 MLOAD PUSH3 0x4B3 SWAP2 DUP2 MSTORE PUSH1 0x20 ADD SWAP1 JUMP JUMPDEST PUSH1 0x1 PUSH1 0x1 PUSH1 0xA0 SHL SUB DUP3 AND PUSH3 0x595 JUMPI PUSH3 0x572 DUP4 DUP4 DUP4 PUSH3 0x8ED JUMP JUMPDEST DUP1 PUSH1 0x1F PUSH1 0x1 ADD PUSH1 0x0 DUP3 DUP3 SLOAD PUSH3 0x589 SWAP2 SWAP1 PUSH3 0xD28 JUMP JUMPDEST SWAP1 SWAP2 SSTORE POP PUSH3 0x4BC SWAP1 POP JUMP JUMPDEST PUSH1 0x7 SLOAD ISZERO DUP1 PUSH3 0x5BD JUMPI POP PUSH1 0x1 PUSH1 0x1 PUSH1 0xA0 SHL SUB DUP4 AND PUSH1 0x0 SWAP1 DUP2 MSTORE PUSH1 0xE PUSH1 0x20 MSTORE PUSH1 0x40 SWAP1 KECCAK256 SLOAD PUSH1 0xFF AND JUMPDEST DUP1 PUSH3 0x5E1 JUMPI POP PUSH1 0x1 PUSH1 0x1 PUSH1 0xA0 SHL SUB DUP3 AND PUSH1 0x0 SWAP1 DUP2 MSTORE PUSH1 0xE PUSH1 0x20 MSTORE PUSH1 0x40 SWAP1 KECCAK256 SLOAD PUSH1 0xFF AND JUMPDEST ISZERO PUSH3 0x629 JUMPI PUSH3 0x5F4 DUP4 DUP4 DUP4 PUSH3 0x8ED JUMP JUMPDEST DUP2 PUSH1 0x1 PUSH1 0x1 PUSH1 0xA0 SHL SUB AND DUP4 PUSH1 0x1 PUSH1 0x1 PUSH1 0xA0 SHL SUB AND PUSH1 0x0 DUP1 MLOAD PUSH1 0x20 PUSH3 0x3C66 DUP4 CODECOPY DUP2 MLOAD SWAP2 MSTORE DUP4 PUSH1 0x40 MLOAD PUSH3 0x4B3 SWAP2 DUP2 MSTORE PUSH1 0x20 ADD SWAP1 JUMP JUMPDEST PUSH1 0x1B SLOAD PUSH1 0xFF AND DUP1 ISZERO PUSH3 0x645 JUMPI POP PUSH1 0x1 PUSH1 0x1 PUSH1 0xA0 SHL SUB DUP4 AND ADDRESS EQ ISZERO JUMPDEST DUP1 ISZERO PUSH3 0x65B JUMPI POP PUSH1 0x1 PUSH1 0x1 PUSH1 0xA0 SHL SUB DUP3 AND ADDRESS EQ ISZERO JUMPDEST ISZERO PUSH3 0x70D JUMPI PUSH3 0x66C DUP2 PUSH3 0xABB JUMP JUMPDEST PUSH1 0x19 SLOAD DUP2 PUSH3 0x690 DUP5 PUSH1 0x1 PUSH1 0x1 PUSH1 0xA0 SHL SUB AND PUSH1 0x0 SWAP1 DUP2 MSTORE PUSH1 0x20 DUP2 SWAP1 MSTORE PUSH1 0x40 SWAP1 KECCAK256 SLOAD SWAP1 JUMP JUMPDEST PUSH3 0x69C SWAP2 SWAP1 PUSH3 0xD28 JUMP JUMPDEST GT ISZERO PUSH3 0x70D JUMPI PUSH1 0x1 PUSH1 0x1 PUSH1 0xA0 SHL SUB DUP3 AND PUSH1 0x0 SWAP1 DUP2 MSTORE PUSH1 0xE PUSH1 0x20 MSTORE PUSH1 0x40 SWAP1 KECCAK256 SLOAD PUSH1 0xFF AND PUSH3 0x70D JUMPI PUSH1 0x40 MLOAD PUSH3 0x461BCD PUSH1 0xE5 SHL DUP2 MSTORE PUSH1 0x20 PUSH1 0x4 DUP3 ADD MSTORE PUSH1 0x15 PUSH1 0x24 DUP3 ADD MSTORE PUSH32 0x57616C6C6574206C696D69742065786365656465640000000000000000000000 PUSH1 0x44 DUP3 ADD MSTORE PUSH1 0x64 ADD PUSH3 0xD2 JUMP JUMPDEST PUSH1 0x0 PUSH2 0x2710 PUSH1 0x7 SLOAD DUP4 PUSH3 0x722 SWAP2 SWAP1 PUSH3 0xD67 JUMP JUMPDEST PUSH3 0x72E SWAP2 SWAP1 PUSH3 0xD44 JUMP JUMPDEST SWAP1 POP PUSH1 0x0 PUSH1 0x7 SLOAD PUSH1 0x8 SLOAD DUP4 PUSH3 0x745 SWAP2 SWAP1 PUSH3 0xD67 JUMP JUMPDEST PUSH3 0x751 SWAP2 SWAP1 PUSH3 0xD44 JUMP JUMPDEST SWAP1 POP PUSH1 0x0 PUSH1 0x7 SLOAD PUSH1 0x9 SLOAD DUP5 PUSH3 0x768 SWAP2 SWAP1 PUSH3 0xD67 JUMP JUMPDEST PUSH3 0x774 SWAP2 SWAP1 PUSH3 0xD44 JUMP JUMPDEST SWAP1 POP PUSH1 0x0 DUP2 PUSH3 0x785 DUP5 DUP7 PUSH3 0xD81 JUMP JUMPDEST PUSH3 0x791 SWAP2 SWAP1 PUSH3 0xD81 JUMP JUMPDEST SWAP1 POP PUSH1 0x0 PUSH3 0x7A1 DUP6 DUP8 PUSH3 0xD81 JUMP JUMPDEST SWAP1 POP DUP4 ISZERO PUSH3 0x7C4 JUMPI PUSH1 0xC SLOAD PUSH3 0x7C4 SWAP1 DUP10 SWAP1 PUSH1 0x1 PUSH1 0x1 PUSH1 0xA0 SHL SUB AND DUP7 PUSH3 0x8ED JUMP JUMPDEST DUP3 ISZERO PUSH3 0x7E5 JUMPI PUSH1 0xD SLOAD PUSH3 0x7E5 SWAP1 DUP10 SWAP1 PUSH1 0x1 PUSH1 0x1 PUSH1 0xA0 SHL SUB AND DUP6 PUSH3 0x8ED JUMP JUMPDEST DUP2 ISZERO PUSH3 0x817 JUMPI PUSH3 0x7FA DUP9 PUSH1 0x0 DUP5 PUSH3 0x8ED JUMP JUMPDEST DUP2 PUSH1 0x1F PUSH1 0x1 ADD PUSH1 0x0 DUP3 DUP3 SLOAD PUSH3 0x811 SWAP2 SWAP1 PUSH3 0xD28 JUMP JUMPDEST SWAP1 SWAP2 SSTORE POP POP JUMPDEST PUSH3 0x824 DUP9 DUP9 DUP4 PUSH3 0x8ED JUMP JUMPDEST DUP5 PUSH1 0x1F PUSH1 0x0 ADD PUSH1 0x0 DUP3 DUP3 SLOAD PUSH3 0x83B SWAP2 SWAP1 PUSH3 0xD28 JUMP JUMPDEST SWAP1 SWAP2 SSTORE POP POP PUSH1 0x1 PUSH1 0x1 PUSH1 0xA0 SHL SUB DUP9 AND PUSH1 0x0 SWAP1 DUP2 MSTORE PUSH1 0x24 PUSH1 0x20 MSTORE PUSH1 0x40 DUP2 KECCAK256 DUP1 SLOAD DUP8 SWAP3 SWAP1 PUSH3 0x86A SWAP1 DUP5 SWAP1 PUSH3 0xD28 JUMP JUMPDEST SWAP3 POP POP DUP2 SWAP1 SSTORE POP DUP7 PUSH1 0x1 PUSH1 0x1 PUSH1 0xA0 SHL SUB AND DUP9 PUSH1 0x1 PUSH1 0x1 PUSH1 0xA0 SHL SUB AND PUSH1 0x0 DUP1 MLOAD PUSH1 0x20 PUSH3 0x3C66 DUP4 CODECOPY DUP2 MLOAD SWAP2 MSTORE DUP4 PUSH1 0x40 MLOAD PUSH3 0x8A6 SWAP2 DUP2 MSTORE PUSH1 0x20 ADD SWAP1 JUMP JUMPDEST PUSH1 0x40 MLOAD DUP1 SWAP2 SUB SWAP1 LOG3 POP POP POP POP POP POP POP POP JUMP JUMPDEST PUSH3 0x8CC PUSH1 0x5 SLOAD PUSH1 0x1 PUSH1 0xA0 SHL SWAP1 DIV PUSH1 0xFF AND SWAP1 JUMP JUMPDEST ISZERO PUSH3 0x8EB JUMPI PUSH1 0x40 MLOAD PUSH4 0xD93C0665 PUSH1 0xE0 SHL DUP2 MSTORE PUSH1 0x4 ADD PUSH1 0x40 MLOAD DUP1 SWAP2 SUB SWAP1 REVERT JUMPDEST JUMP JUMPDEST PUSH1 0x1 PUSH1 0x1 PUSH1 0xA0 SHL SUB DUP4 AND PUSH3 0x91C JUMPI DUP1 PUSH1 0x2 PUSH1 0x0 DUP3 DUP3 SLOAD PUSH3 0x910 SWAP2 SWAP1 PUSH3 0xD28 JUMP JUMPDEST SWAP1 SWAP2 SSTORE POP PUSH3 0x990 SWAP1 POP JUMP JUMPDEST PUSH1 0x1 PUSH1 0x1 PUSH1 0xA0 SHL SUB DUP4 AND PUSH1 0x0 SWAP1 DUP2 MSTORE PUSH1 0x20 DUP2 SWAP1 MSTORE PUSH1 0x40 SWAP1 KECCAK256 SLOAD DUP2 DUP2 LT ISZERO PUSH3 0x971 JUMPI PUSH1 0x40 MLOAD PUSH4 0x391434E3 PUSH1 0xE2 SHL DUP2 MSTORE PUSH1 0x1 PUSH1 0x1 PUSH1 0xA0 SHL SUB DUP6 AND PUSH1 0x4 DUP3 ADD MSTORE PUSH1 0x24 DUP2 ADD DUP3 SWAP1 MSTORE PUSH1 0x44 DUP2 ADD DUP4 SWAP1 MSTORE PUSH1 0x64 ADD PUSH3 0xD2 JUMP JUMPDEST PUSH1 0x1 PUSH1 0x1 PUSH1 0xA0 SHL SUB DUP5 AND PUSH1 0x0 SWAP1 DUP2 MSTORE PUSH1 0x20 DUP2 SWAP1 MSTORE PUSH1 0x40 SWAP1 KECCAK256 SWAP1 DUP3 SWAP1 SUB SWAP1 SSTORE JUMPDEST PUSH1 0x1 PUSH1 0x1 PUSH1 0xA0 SHL SUB DUP3 AND PUSH3 0x9AE JUMPI PUSH1 0x2 DUP1 SLOAD DUP3 SWAP1 SUB SWAP1 SSTORE PUSH3 0x9CD JUMP JUMPDEST PUSH1 0x1 PUSH1 0x1 PUSH1 0xA0 SHL SUB DUP3 AND PUSH1 0x0 SWAP1 DUP2 MSTORE PUSH1 0x20 DUP2 SWAP1 MSTORE PUSH1 0x40 SWAP1 KECCAK256 DUP1 SLOAD DUP3 ADD SWAP1 SSTORE JUMPDEST DUP2 PUSH1 0x1 PUSH1 0x1 PUSH1 0xA0 SHL SUB AND DUP4 PUSH1 0x1 PUSH1 0x1 PUSH1 0xA0 SHL SUB AND PUSH32 0xDDF252AD1BE2C89B69C2B068FC378DAA952BA7F163C4A11628F55A4DF523B3EF DUP4 PUSH1 0x40 MLOAD PUSH3 0x4B3 SWAP2 DUP2 MSTORE PUSH1 0x20 ADD SWAP1 JUMP JUMPDEST PUSH1 0x23 DUP1 SLOAD SWAP1 PUSH1 0x0 PUSH3 0xA25 DUP4 PUSH3 0xD97 JUMP JUMPDEST SWAP1 SWAP2 SSTORE POP POP PUSH1 0x1 PUSH1 0x1 PUSH1 0xA0 SHL SUB DUP4 AND PUSH1 0x0 SWAP1 DUP2 MSTORE PUSH1 0x24 PUSH1 0x20 MSTORE PUSH1 0x40 DUP2 KECCAK256 PUSH1 0x2 ADD DUP1 SLOAD SWAP2 PUSH3 0xA53 DUP4 PUSH3 0xD97 JUMP JUMPDEST SWAP1 SWAP2 SSTORE POP POP PUSH1 0x1 PUSH1 0x1 PUSH1 0xA0 SHL SUB DUP3 AND PUSH1 0x0 SWAP1 DUP2 MSTORE PUSH1 0x24 PUSH1 0x20 MSTORE PUSH1 0x40 DUP2 KECCAK256 PUSH1 0x3 ADD SLOAD SWAP1 SUB PUSH3 0xAB0 JUMPI PUSH1 0x1 PUSH1 0x1 PUSH1 0xA0 SHL SUB DUP3 AND PUSH1 0x0 SWAP1 DUP2 MSTORE PUSH1 0x24 PUSH1 0x20 MSTORE PUSH1 0x40 DUP2 KECCAK256 TIMESTAMP PUSH1 0x3 SWAP1 SWAP2 ADD SSTORE PUSH1 0x22 DUP1 SLOAD SWAP2 PUSH3 0xAAA DUP4 PUSH3 0xD97 JUMP JUMPDEST SWAP2 SWAP1 POP SSTORE POP JUMPDEST POP POP PUSH1 0x15 SLOAD PUSH1 0x21 SSTORE POP JUMP JUMPDEST PUSH1 0x1B SLOAD PUSH1 0xFF AND DUP1 ISZERO PUSH3 0xADE JUMPI POP CALLER PUSH1 0x0 SWAP1 DUP2 MSTORE PUSH1 0xE PUSH1 0x20 MSTORE PUSH1 0x40 SWAP1 KECCAK256 SLOAD PUSH1 0xFF AND ISZERO JUMPDEST ISZERO PUSH3 0xB38 JUMPI PUSH1 0x18 SLOAD DUP2 GT ISZERO PUSH3 0xB38 JUMPI PUSH1 0x40 MLOAD PUSH3 0x461BCD PUSH1 0xE5 SHL DUP2 MSTORE PUSH1 0x20 PUSH1 0x4 DUP3 ADD DUP2 SWAP1 MSTORE PUSH1 0x24 DUP3 ADD MSTORE PUSH32 0x5472616E73616374696F6E20616D6F756E742065786365656473206C696D6974 PUSH1 0x44 DUP3 ADD MSTORE PUSH1 0x64 ADD PUSH3 0xD2 JUMP JUMPDEST POP JUMP JUMPDEST DUP1 MLOAD PUSH1 0x1 PUSH1 0x1 PUSH1 0xA0 SHL SUB DUP2 AND DUP2 EQ PUSH3 0xB53 JUMPI PUSH1 0x0 DUP1 REVERT JUMPDEST SWAP2 SWAP1 POP JUMP JUMPDEST PUSH1 0x0 DUP1 PUSH1 0x0 PUSH1 0x60 DUP5 DUP7 SUB SLT ISZERO PUSH3 0xB6E JUMPI PUSH1 0x0 DUP1 REVERT JUMPDEST PUSH3 0xB79 DUP5 PUSH3 0xB3B JUMP JUMPDEST SWAP3 POP PUSH3 0xB89 PUSH1 0x20 DUP6 ADD PUSH3 0xB3B JUMP JUMPDEST SWAP2 POP PUSH3 0xB99 PUSH1 0x40 DUP6 ADD PUSH3 0xB3B JUMP JUMPDEST SWAP1 POP SWAP3 POP SWAP3 POP SWAP3 JUMP JUMPDEST PUSH4 0x4E487B71 PUSH1 0xE0 SHL PUSH1 0x0 MSTORE PUSH1 0x41 PUSH1 0x4 MSTORE PUSH1 0x24 PUSH1 0x0 REVERT JUMPDEST PUSH1 0x1 DUP2 DUP2 SHR SWAP1 DUP3 AND DUP1 PUSH3 0xBCD JUMPI PUSH1 0x7F DUP3 AND SWAP2 POP JUMPDEST PUSH1 0x20 DUP3 LT DUP2 SUB PUSH3 0xBEE JUMPI PUSH4 0x4E487B71 PUSH1 0xE0 SHL PUSH1 0x0 MSTORE PUSH1 0x22 PUSH1 0x4 MSTORE PUSH1 0x24 PUSH1 0x0 REVERT JUMPDEST POP SWAP2 SWAP1 POP JUMP JUMPDEST PUSH1 0x1F DUP3 GT ISZERO PUSH3 0x4BC JUMPI PUSH1 0x0 DUP2 DUP2 MSTORE PUSH1 0x20 DUP2 KECCAK256 PUSH1 0x1F DUP6 ADD PUSH1 0x5 SHR DUP2 ADD PUSH1 0x20 DUP7 LT ISZERO PUSH3 0xC1D JUMPI POP DUP1 JUMPDEST PUSH1 0x1F DUP6 ADD PUSH1 0x5 SHR DUP3 ADD SWAP2 POP JUMPDEST DUP2 DUP2 LT ISZERO PUSH3 0xC3E JUMPI DUP3 DUP2 SSTORE PUSH1 0x1 ADD PUSH3 0xC29 JUMP JUMPDEST POP POP POP POP POP POP JUMP JUMPDEST DUP2 MLOAD PUSH1 0x1 PUSH1 0x1 PUSH1 0x40 SHL SUB DUP2 GT ISZERO PUSH3 0xC62 JUMPI PUSH3 0xC62 PUSH3 0xBA2 JUMP JUMPDEST PUSH3 0xC7A DUP2 PUSH3 0xC73 DUP5 SLOAD PUSH3 0xBB8 JUMP JUMPDEST DUP5 PUSH3 0xBF4 JUMP JUMPDEST PUSH1 0x20 DUP1 PUSH1 0x1F DUP4 GT PUSH1 0x1 DUP2 EQ PUSH3 0xCB2 JUMPI PUSH1 0x0 DUP5 ISZERO PUSH3 0xC99 JUMPI POP DUP6 DUP4 ADD MLOAD JUMPDEST PUSH1 0x0 NOT PUSH1 0x3 DUP7 SWAP1 SHL SHR NOT AND PUSH1 0x1 DUP6 SWAP1 SHL OR DUP6 SSTORE PUSH3 0xC3E JUMP JUMPDEST PUSH1 0x0 DUP6 DUP2 MSTORE PUSH1 0x20 DUP2 KECCAK256 PUSH1 0x1F NOT DUP7 AND SWAP2 JUMPDEST DUP3 DUP2 LT ISZERO PUSH3 0xCE3 JUMPI DUP9 DUP7 ADD MLOAD DUP3 SSTORE SWAP5 DUP5 ADD SWAP5 PUSH1 0x1 SWAP1 SWAP2 ADD SWAP1 DUP5 ADD PUSH3 0xCC2 JUMP JUMPDEST POP DUP6 DUP3 LT ISZERO PUSH3 0xD02 JUMPI DUP8 DUP6 ADD MLOAD PUSH1 0x0 NOT PUSH1 0x3 DUP9 SWAP1 SHL PUSH1 0xF8 AND SHR NOT AND DUP2 SSTORE JUMPDEST POP POP POP POP POP PUSH1 0x1 SWAP1 DUP2 SHL ADD SWAP1 SSTORE POP JUMP JUMPDEST PUSH4 0x4E487B71 PUSH1 0xE0 SHL PUSH1 0x0 MSTORE PUSH1 0x11 PUSH1 0x4 MSTORE PUSH1 0x24 PUSH1 0x0 REVERT JUMPDEST DUP1 DUP3 ADD DUP1 DUP3 GT ISZERO PUSH3 0xD3E JUMPI PUSH3 0xD3E PUSH3 0xD12 JUMP JUMPDEST SWAP3 SWAP2 POP POP JUMP JUMPDEST PUSH1 0x0 DUP3 PUSH3 0xD62 JUMPI PUSH4 0x4E487B71 PUSH1 0xE0 SHL PUSH1 0x0 MSTORE PUSH1 0x12 PUSH1 0x4 MSTORE PUSH1 0x24 PUSH1 0x0 REVERT JUMPDEST POP DIV SWAP1 JUMP JUMPDEST DUP1 DUP3 MUL DUP2 ISZERO DUP3 DUP3 DIV DUP5 EQ OR PUSH3 0xD3E JUMPI PUSH3 0xD3E PUSH3 0xD12 JUMP JUMPDEST DUP2 DUP2 SUB DUP2 DUP2 GT ISZERO PUSH3 0xD3E JUMPI PUSH3 0xD3E PUSH3 0xD12 JUMP JUMPDEST PUSH1 0x0 PUSH1 0x1 DUP3 ADD PUSH3 0xDAC JUMPI PUSH3 0xDAC PUSH3 0xD12 JUMP JUMPDEST POP PUSH1 0x1 ADD SWAP1 JUMP JUMPDEST PUSH2 0x2EA3 DUP1 PUSH3 0xDC3 PUSH1 0x0 CODECOPY PUSH1 0x0 RETURN INVALID PUSH1 0x80 PUSH1 0x40 MSTORE CALLVALUE DUP1 ISZERO PUSH2 0x10 JUMPI PUSH1 0x0 DUP1 REVERT JUMPDEST POP PUSH1 0x4 CALLDATASIZE LT PUSH2 0x3BA JUMPI PUSH1 0x0 CALLDATALOAD PUSH1 0xE0 SHR DUP1 PUSH4 0x8893002F GT PUSH2 0x1F4 JUMPI DUP1 PUSH4 0xBA8E568F GT PUSH2 0x11A JUMPI DUP1 PUSH4 0xDD62ED3E GT PUSH2 0xAD JUMPI DUP1 PUSH4 0xF2FDE38B GT PUSH2 0x7C JUMPI DUP1 PUSH4 0xF2FDE38B EQ PUSH2 0x8E1 JUMPI DUP1 PUSH4 0xF6141345 EQ PUSH2 0x8F4 JUMPI DUP1 PUSH4 0xFE0D94C1 EQ PUSH2 0x8FD JUMPI DUP1 PUSH4 0xFEB61724 EQ PUSH2 0x910 JUMPI PUSH1 0x0 DUP1 REVERT JUMPDEST DUP1 PUSH4 0xDD62ED3E EQ PUSH2 0x85B JUMPI DUP1 PUSH4 0xE37C3A55 EQ PUSH2 0x894 JUMPI DUP1 PUSH4 0xEE8A7C15 EQ PUSH2 0x89E JUMPI DUP1 PUSH4 0xF270FDE4 EQ PUSH2 0x8A6 JUMPI PUSH1 0x0 DUP1 REVERT JUMPDEST DUP1 PUSH4 0xC9D27AFE GT PUSH2 0xE9 JUMPI DUP1 PUSH4 0xC9D27AFE EQ PUSH2 0x7F4 JUMPI DUP1 PUSH4 0xCEB88A16 EQ PUSH2 0x807 JUMPI DUP1 PUSH4 0xD90125A5 EQ PUSH2 0x827 JUMPI DUP1 PUSH4 0xDA35C664 EQ PUSH2 0x852 JUMPI PUSH1 0x0 DUP1 REVERT JUMPDEST DUP1 PUSH4 0xBA8E568F EQ PUSH2 0x7B1 JUMPI DUP1 PUSH4 0xBB4D4436 EQ PUSH2 0x7C4 JUMPI DUP1 PUSH4 0xBE8A361F EQ PUSH2 0x7D7 JUMPI DUP1 PUSH4 0xC34C08E5 EQ PUSH2 0x7E1 JUMPI PUSH1 0x0 DUP1 REVERT JUMPDEST DUP1 PUSH4 0xA41B1083 GT PUSH2 0x192 JUMPI DUP1 PUSH4 0xB0DFD2E6 GT PUSH2 0x161 JUMPI DUP1 PUSH4 0xB0DFD2E6 EQ PUSH2 0x715 JUMPI DUP1 PUSH4 0xB1610D7E EQ PUSH2 0x757 JUMPI DUP1 PUSH4 0xB5D5B5FA EQ PUSH2 0x761 JUMPI DUP1 PUSH4 0xB95FFBCE EQ PUSH2 0x79E JUMPI PUSH1 0x0 DUP1 REVERT JUMPDEST DUP1 PUSH4 0xA41B1083 EQ PUSH2 0x6CB JUMPI DUP1 PUSH4 0xA6C26603 EQ PUSH2 0x6DE JUMPI DUP1 PUSH4 0xA9059CBB EQ PUSH2 0x6EF JUMPI DUP1 PUSH4 0xAD1CECB2 EQ PUSH2 0x702 JUMPI PUSH1 0x0 DUP1 REVERT JUMPDEST DUP1 PUSH4 0x8EBFC796 GT PUSH2 0x1CE JUMPI DUP1 PUSH4 0x8EBFC796 EQ PUSH2 0x688 JUMPI DUP1 PUSH4 0x902D55A5 EQ PUSH2 0x69B JUMPI DUP1 PUSH4 0x95D89B41 EQ PUSH2 0x6B0 JUMPI DUP1 PUSH4 0xA23D3C35 EQ PUSH2 0x6B8 JUMPI PUSH1 0x0 DUP1 REVERT JUMPDEST DUP1 PUSH4 0x8893002F EQ PUSH2 0x60F JUMPI DUP1 PUSH4 0x8A65D874 EQ PUSH2 0x622 JUMPI DUP1 PUSH4 0x8DA5CB5B EQ PUSH2 0x677 JUMPI PUSH1 0x0 DUP1 REVERT JUMPDEST DUP1 PUSH4 0x4A4E3BD5 GT PUSH2 0x2E4 JUMPI DUP1 PUSH4 0x69505688 GT PUSH2 0x277 JUMPI DUP1 PUSH4 0x7C6E5DB7 GT PUSH2 0x246 JUMPI DUP1 PUSH4 0x7C6E5DB7 EQ PUSH2 0x5D2 JUMPI DUP1 PUSH4 0x817B1CD2 EQ PUSH2 0x5DC JUMPI DUP1 PUSH4 0x82865218 EQ PUSH2 0x5E5 JUMPI DUP1 PUSH4 0x875BB4E2 EQ PUSH2 0x5EF JUMPI PUSH1 0x0 DUP1 REVERT JUMPDEST DUP1 PUSH4 0x69505688 EQ PUSH2 0x5A6 JUMPI DUP1 PUSH4 0x70A08231 EQ PUSH2 0x5AF JUMPI DUP1 PUSH4 0x715018A6 EQ PUSH2 0x5C2 JUMPI DUP1 PUSH4 0x7C4CCBEA EQ PUSH2 0x5CA JUMPI PUSH1 0x0 DUP1 REVERT JUMPDEST DUP1 PUSH4 0x5C1B1BAC GT PUSH2 0x2B3 JUMPI DUP1 PUSH4 0x5C1B1BAC EQ PUSH2 0x54D JUMPI DUP1 PUSH4 0x5C975ABB EQ PUSH2 0x560 JUMPI DUP1 PUSH4 0x61D027B3 EQ PUSH2 0x572 JUMPI DUP1 PUSH4 0x66666AA9 EQ PUSH2 0x59D JUMPI PUSH1 0x0 DUP1 REVERT JUMPDEST DUP1 PUSH4 0x4A4E3BD5 EQ PUSH2 0x529 JUMPI DUP1 PUSH4 0x51383F98 EQ PUSH2 0x531 JUMPI DUP1 PUSH4 0x51858E27 EQ PUSH2 0x53C JUMPI DUP1 PUSH4 0x55EF9B5E EQ PUSH2 0x544 JUMPI PUSH1 0x0 DUP1 REVERT JUMPDEST DUP1 PUSH4 0x1C3C0EA8 GT PUSH2 0x35C JUMPI DUP1 PUSH4 0x37F135D7 GT PUSH2 0x32B JUMPI DUP1 PUSH4 0x37F135D7 EQ PUSH2 0x4BB JUMPI DUP1 PUSH4 0x3F4218E0 EQ PUSH2 0x4C5 JUMPI DUP1 PUSH4 0x42966C68 EQ PUSH2 0x4E8 JUMPI DUP1 PUSH4 0x43859632 EQ PUSH2 0x4FB JUMPI PUSH1 0x0 DUP1 REVERT JUMPDEST DUP1 PUSH4 0x1C3C0EA8 EQ PUSH2 0x471 JUMPI DUP1 PUSH4 0x1F1F5BB3 EQ PUSH2 0x486 JUMPI DUP1 PUSH4 0x23B872DD EQ PUSH2 0x499 JUMPI DUP1 PUSH4 0x313CE567 EQ PUSH2 0x4AC JUMPI PUSH1 0x0 DUP1 REVERT JUMPDEST DUP1 PUSH4 0x118725CE GT PUSH2 0x398 JUMPI DUP1 PUSH4 0x118725CE EQ PUSH2 0x429 JUMPI DUP1 PUSH4 0x120A8151 EQ PUSH2 0x440 JUMPI DUP1 PUSH4 0x17D63605 EQ PUSH2 0x449 JUMPI DUP1 PUSH4 0x18160DDD EQ PUSH2 0x469 JUMPI PUSH1 0x0 DUP1 REVERT JUMPDEST DUP1 PUSH4 0x13CF08B EQ PUSH2 0x3BF JUMPI DUP1 PUSH4 0x6FDDE03 EQ PUSH2 0x3F1 JUMPI DUP1 PUSH4 0x95EA7B3 EQ PUSH2 0x406 JUMPI JUMPDEST PUSH1 0x0 DUP1 REVERT JUMPDEST PUSH2 0x3D2 PUSH2 0x3CD CALLDATASIZE PUSH1 0x4 PUSH2 0x2793 JUMP JUMPDEST PUSH2 0x933 JUMP JUMPDEST PUSH1 0x40 MLOAD PUSH2 0x3E8 SWAP11 SWAP10 SWAP9 SWAP8 SWAP7 SWAP6 SWAP5 SWAP4 SWAP3 SWAP2 SWAP1 PUSH2 0x2808 JUMP JUMPDEST PUSH1 0x40 MLOAD DUP1 SWAP2 SUB SWAP1 RETURN JUMPDEST PUSH2 0x3F9 PUSH2 0xAA8 JUMP JUMPDEST PUSH1 0x40 MLOAD PUSH2 0x3E8 SWAP2 SWAP1 PUSH2 0x289E JUMP JUMPDEST PUSH2 0x419 PUSH2 0x414 CALLDATASIZE PUSH1 0x4 PUSH2 0x28CD JUMP JUMPDEST PUSH2 0xB3A JUMP JUMPDEST PUSH1 0x40 MLOAD SWAP1 ISZERO ISZERO DUP2 MSTORE PUSH1 0x20 ADD PUSH2 0x3E8 JUMP JUMPDEST PUSH2 0x432 PUSH1 0x9 SLOAD DUP2 JUMP JUMPDEST PUSH1 0x40 MLOAD SWAP1 DUP2 MSTORE PUSH1 0x20 ADD PUSH2 0x3E8 JUMP JUMPDEST PUSH2 0x432 PUSH1 0xA SLOAD DUP2 JUMP JUMPDEST PUSH2 0x432 PUSH2 0x457 CALLDATASIZE PUSH1 0x4 PUSH2 0x28F9 JUMP JUMPDEST PUSH1 0x1E PUSH1 0x20 MSTORE PUSH1 0x0 SWAP1 DUP2 MSTORE PUSH1 0x40 SWAP1 KECCAK256 SLOAD DUP2 JUMP JUMPDEST PUSH1 0x2 SLOAD PUSH2 0x432 JUMP JUMPDEST PUSH2 0x484 PUSH2 0x47F CALLDATASIZE PUSH1 0x4 PUSH2 0x28F9 JUMP JUMPDEST PUSH2 0xB54 JUMP JUMPDEST STOP JUMPDEST PUSH2 0x484 PUSH2 0x494 CALLDATASIZE PUSH1 0x4 PUSH2 0x2793 JUMP JUMPDEST PUSH2 0xB7E JUMP JUMPDEST PUSH2 0x419 PUSH2 0x4A7 CALLDATASIZE PUSH1 0x4 PUSH2 0x2916 JUMP JUMPDEST PUSH2 0xC7B JUMP JUMPDEST PUSH1 0x40 MLOAD PUSH1 0x12 DUP2 MSTORE PUSH1 0x20 ADD PUSH2 0x3E8 JUMP JUMPDEST PUSH2 0x432 PUSH3 0x2A300 DUP2 JUMP JUMPDEST PUSH2 0x419 PUSH2 0x4D3 CALLDATASIZE PUSH1 0x4 PUSH2 0x28F9 JUMP JUMPDEST PUSH1 0xE PUSH1 0x20 MSTORE PUSH1 0x0 SWAP1 DUP2 MSTORE PUSH1 0x40 SWAP1 KECCAK256 SLOAD PUSH1 0xFF AND DUP2 JUMP JUMPDEST PUSH2 0x484 PUSH2 0x4F6 CALLDATASIZE PUSH1 0x4 PUSH2 0x2793 JUMP JUMPDEST PUSH2 0xC9F JUMP JUMPDEST PUSH2 0x419 PUSH2 0x509 CALLDATASIZE PUSH1 0x4 PUSH2 0x2957 JUMP JUMPDEST PUSH1 0x12 PUSH1 0x20 SWAP1 DUP2 MSTORE PUSH1 0x0 SWAP3 DUP4 MSTORE PUSH1 0x40 DUP1 DUP5 KECCAK256 SWAP1 SWAP2 MSTORE SWAP1 DUP3 MSTORE SWAP1 KECCAK256 SLOAD PUSH1 0xFF AND DUP2 JUMP JUMPDEST PUSH2 0x484 PUSH2 0xCC6 JUMP JUMPDEST PUSH2 0x432 PUSH4 0x1E13380 DUP2 JUMP JUMPDEST PUSH2 0x484 PUSH2 0xD2C JUMP JUMPDEST PUSH2 0x432 PUSH1 0x8 SLOAD DUP2 JUMP JUMPDEST PUSH2 0x432 PUSH2 0x55B CALLDATASIZE PUSH1 0x4 PUSH2 0x2A3E JUMP JUMPDEST PUSH2 0xD8A JUMP JUMPDEST PUSH1 0x5 SLOAD PUSH1 0x1 PUSH1 0xA0 SHL SWAP1 DIV PUSH1 0xFF AND PUSH2 0x419 JUMP JUMPDEST PUSH1 0xC SLOAD PUSH2 0x585 SWAP1 PUSH1 0x1 PUSH1 0x1 PUSH1 0xA0 SHL SUB AND DUP2 JUMP JUMPDEST PUSH1 0x40 MLOAD PUSH1 0x1 PUSH1 0x1 PUSH1 0xA0 SHL SUB SWAP1 SWAP2 AND DUP2 MSTORE PUSH1 0x20 ADD PUSH2 0x3E8 JUMP JUMPDEST PUSH2 0x432 PUSH1 0x16 SLOAD DUP2 JUMP JUMPDEST PUSH2 0x432 PUSH1 0xB SLOAD DUP2 JUMP JUMPDEST PUSH2 0x432 PUSH2 0x5BD CALLDATASIZE PUSH1 0x4 PUSH2 0x28F9 JUMP JUMPDEST PUSH2 0xF44 JUMP JUMPDEST PUSH2 0x484 PUSH2 0xF5F JUMP JUMPDEST PUSH2 0x432 PUSH1 0xC8 DUP2 JUMP JUMPDEST PUSH2 0x432 PUSH3 0x278D00 DUP2 JUMP JUMPDEST PUSH2 0x432 PUSH1 0x15 SLOAD DUP2 JUMP JUMPDEST PUSH2 0x432 PUSH3 0xED4E00 DUP2 JUMP JUMPDEST PUSH2 0x432 PUSH2 0x5FD CALLDATASIZE PUSH1 0x4 PUSH2 0x2793 JUMP JUMPDEST PUSH1 0x17 PUSH1 0x20 MSTORE PUSH1 0x0 SWAP1 DUP2 MSTORE PUSH1 0x40 SWAP1 KECCAK256 SLOAD DUP2 JUMP JUMPDEST PUSH2 0x419 PUSH2 0x61D CALLDATASIZE PUSH1 0x4 PUSH2 0x2AC5 JUMP JUMPDEST PUSH2 0xF73 JUMP JUMPDEST PUSH2 0x657 PUSH2 0x630 CALLDATASIZE PUSH1 0x4 PUSH2 0x28F9 JUMP JUMPDEST PUSH1 0x24 PUSH1 0x20 MSTORE PUSH1 0x0 SWAP1 DUP2 MSTORE PUSH1 0x40 SWAP1 KECCAK256 DUP1 SLOAD PUSH1 0x1 DUP3 ADD SLOAD PUSH1 0x2 DUP4 ADD SLOAD PUSH1 0x3 SWAP1 SWAP4 ADD SLOAD SWAP2 SWAP3 SWAP1 SWAP2 DUP5 JUMP JUMPDEST PUSH1 0x40 DUP1 MLOAD SWAP5 DUP6 MSTORE PUSH1 0x20 DUP6 ADD SWAP4 SWAP1 SWAP4 MSTORE SWAP2 DUP4 ADD MSTORE PUSH1 0x60 DUP3 ADD MSTORE PUSH1 0x80 ADD PUSH2 0x3E8 JUMP JUMPDEST PUSH1 0x5 SLOAD PUSH1 0x1 PUSH1 0x1 PUSH1 0xA0 SHL SUB AND PUSH2 0x585 JUMP JUMPDEST PUSH2 0x484 PUSH2 0x696 CALLDATASIZE PUSH1 0x4 PUSH2 0x2B0A JUMP JUMPDEST PUSH2 0x111C JUMP JUMPDEST PUSH2 0x432 PUSH14 0x314DC6448D9338C15B0A00000000 DUP2 JUMP JUMPDEST PUSH2 0x3F9 PUSH2 0x1183 JUMP JUMPDEST PUSH1 0xD SLOAD PUSH2 0x585 SWAP1 PUSH1 0x1 PUSH1 0x1 PUSH1 0xA0 SHL SUB AND DUP2 JUMP JUMPDEST PUSH2 0x484 PUSH2 0x6D9 CALLDATASIZE PUSH1 0x4 PUSH2 0x28CD JUMP JUMPDEST PUSH2 0x1192 JUMP JUMPDEST PUSH2 0x432 PUSH10 0xD3C21BCECCEDA1000000 DUP2 JUMP JUMPDEST PUSH2 0x419 PUSH2 0x6FD CALLDATASIZE PUSH1 0x4 PUSH2 0x28CD JUMP JUMPDEST PUSH2 0x11C8 JUMP JUMPDEST PUSH2 0x432 PUSH2 0x710 CALLDATASIZE PUSH1 0x4 PUSH2 0x2B3F JUMP JUMPDEST PUSH2 0x11D6 JUMP JUMPDEST PUSH1 0x1F SLOAD PUSH1 0x20 SLOAD PUSH1 0x21 SLOAD PUSH1 0x22 SLOAD PUSH1 0x23 SLOAD PUSH2 0x72F SWAP5 SWAP4 SWAP3 SWAP2 SWAP1 DUP6 JUMP JUMPDEST PUSH1 0x40 DUP1 MLOAD SWAP6 DUP7 MSTORE PUSH1 0x20 DUP7 ADD SWAP5 SWAP1 SWAP5 MSTORE SWAP3 DUP5 ADD SWAP2 SWAP1 SWAP2 MSTORE PUSH1 0x60 DUP4 ADD MSTORE PUSH1 0x80 DUP3 ADD MSTORE PUSH1 0xA0 ADD PUSH2 0x3E8 JUMP JUMPDEST PUSH2 0x432 PUSH3 0x93A80 DUP2 JUMP JUMPDEST PUSH2 0x774 PUSH2 0x76F CALLDATASIZE PUSH1 0x4 PUSH2 0x28CD JUMP JUMPDEST PUSH2 0x13F3 JUMP JUMPDEST PUSH1 0x40 DUP1 MLOAD SWAP6 DUP7 MSTORE PUSH1 0x20 DUP7 ADD SWAP5 SWAP1 SWAP5 MSTORE SWAP3 DUP5 ADD SWAP2 SWAP1 SWAP2 MSTORE PUSH1 0x60 DUP4 ADD MSTORE ISZERO ISZERO PUSH1 0x80 DUP3 ADD MSTORE PUSH1 0xA0 ADD PUSH2 0x3E8 JUMP JUMPDEST PUSH2 0x484 PUSH2 0x7AC CALLDATASIZE PUSH1 0x4 PUSH2 0x2793 JUMP JUMPDEST PUSH2 0x1444 JUMP JUMPDEST PUSH2 0x484 PUSH2 0x7BF CALLDATASIZE PUSH1 0x4 PUSH2 0x2BB3 JUMP JUMPDEST PUSH2 0x14B8 JUMP JUMPDEST PUSH2 0x432 PUSH2 0x7D2 CALLDATASIZE PUSH1 0x4 PUSH2 0x28F9 JUMP JUMPDEST PUSH2 0x1584 JUMP JUMPDEST PUSH2 0x432 PUSH3 0x15180 DUP2 JUMP JUMPDEST PUSH1 0xF SLOAD PUSH2 0x585 SWAP1 PUSH1 0x1 PUSH1 0x1 PUSH1 0xA0 SHL SUB AND DUP2 JUMP JUMPDEST PUSH2 0x484 PUSH2 0x802 CALLDATASIZE PUSH1 0x4 PUSH2 0x2BDF JUMP JUMPDEST PUSH2 0x158F JUMP JUMPDEST PUSH2 0x432 PUSH2 0x815 CALLDATASIZE PUSH1 0x4 PUSH2 0x28F9 JUMP JUMPDEST PUSH1 0x1C PUSH1 0x20 MSTORE PUSH1 0x0 SWAP1 DUP2 MSTORE PUSH1 0x40 SWAP1 KECCAK256 SLOAD DUP2 JUMP JUMPDEST PUSH2 0x432 PUSH2 0x835 CALLDATASIZE PUSH1 0x4 PUSH2 0x2957 JUMP JUMPDEST PUSH1 0x13 PUSH1 0x20 SWAP1 DUP2 MSTORE PUSH1 0x0 SWAP3 DUP4 MSTORE PUSH1 0x40 DUP1 DUP5 KECCAK256 SWAP1 SWAP2 MSTORE SWAP1 DUP3 MSTORE SWAP1 KECCAK256 SLOAD DUP2 JUMP JUMPDEST PUSH2 0x432 PUSH1 0x10 SLOAD DUP2 JUMP JUMPDEST PUSH2 0x432 PUSH2 0x869 CALLDATASIZE PUSH1 0x4 PUSH2 0x2C02 JUMP JUMPDEST PUSH1 0x1 PUSH1 0x1 PUSH1 0xA0 SHL SUB SWAP2 DUP3 AND PUSH1 0x0 SWAP1 DUP2 MSTORE PUSH1 0x1 PUSH1 0x20 SWAP1 DUP2 MSTORE PUSH1 0x40 DUP1 DUP4 KECCAK256 SWAP4 SWAP1 SWAP5 AND DUP3 MSTORE SWAP2 SWAP1 SWAP2 MSTORE KECCAK256 SLOAD SWAP1 JUMP JUMPDEST PUSH2 0x432 PUSH3 0x76A700 DUP2 JUMP JUMPDEST PUSH2 0x432 PUSH1 0xA DUP2 JUMP JUMPDEST PUSH1 0x18 SLOAD PUSH1 0x19 SLOAD PUSH1 0x1A SLOAD PUSH1 0x1B SLOAD PUSH2 0x8BF SWAP4 SWAP3 SWAP2 SWAP1 PUSH1 0xFF AND DUP5 JUMP JUMPDEST PUSH1 0x40 DUP1 MLOAD SWAP5 DUP6 MSTORE PUSH1 0x20 DUP6 ADD SWAP4 SWAP1 SWAP4 MSTORE SWAP2 DUP4 ADD MSTORE ISZERO ISZERO PUSH1 0x60 DUP3 ADD MSTORE PUSH1 0x80 ADD PUSH2 0x3E8 JUMP JUMPDEST PUSH2 0x484 PUSH2 0x8EF CALLDATASIZE PUSH1 0x4 PUSH2 0x28F9 JUMP JUMPDEST PUSH2 0x17AF JUMP JUMPDEST PUSH2 0x432 PUSH1 0x7 SLOAD DUP2 JUMP JUMPDEST PUSH2 0x484 PUSH2 0x90B CALLDATASIZE PUSH1 0x4 PUSH2 0x2793 JUMP JUMPDEST PUSH2 0x17ED JUMP JUMPDEST PUSH2 0x419 PUSH2 0x91E CALLDATASIZE PUSH1 0x4 PUSH2 0x2793 JUMP JUMPDEST PUSH1 0x1D PUSH1 0x20 MSTORE PUSH1 0x0 SWAP1 DUP2 MSTORE PUSH1 0x40 SWAP1 KECCAK256 SLOAD PUSH1 0xFF AND DUP2 JUMP JUMPDEST PUSH1 0x11 PUSH1 0x20 MSTORE PUSH1 0x0 SWAP1 DUP2 MSTORE PUSH1 0x40 SWAP1 KECCAK256 DUP1 SLOAD PUSH1 0x1 DUP3 ADD SLOAD PUSH1 0x2 DUP4 ADD DUP1 SLOAD SWAP3 SWAP4 PUSH1 0x1 PUSH1 0x1 PUSH1 0xA0 SHL SUB SWAP1 SWAP3 AND SWAP3 PUSH2 0x965 SWAP1 PUSH2 0x2C30 JUMP JUMPDEST DUP1 PUSH1 0x1F ADD PUSH1 0x20 DUP1 SWAP2 DIV MUL PUSH1 0x20 ADD PUSH1 0x40 MLOAD SWAP1 DUP2 ADD PUSH1 0x40 MSTORE DUP1 SWAP3 SWAP2 SWAP1 DUP2 DUP2 MSTORE PUSH1 0x20 ADD DUP3 DUP1 SLOAD PUSH2 0x991 SWAP1 PUSH2 0x2C30 JUMP JUMPDEST DUP1 ISZERO PUSH2 0x9DE JUMPI DUP1 PUSH1 0x1F LT PUSH2 0x9B3 JUMPI PUSH2 0x100 DUP1 DUP4 SLOAD DIV MUL DUP4 MSTORE SWAP2 PUSH1 0x20 ADD SWAP2 PUSH2 0x9DE JUMP JUMPDEST DUP3 ADD SWAP2 SWAP1 PUSH1 0x0 MSTORE PUSH1 0x20 PUSH1 0x0 KECCAK256 SWAP1 JUMPDEST DUP2 SLOAD DUP2 MSTORE SWAP1 PUSH1 0x1 ADD SWAP1 PUSH1 0x20 ADD DUP1 DUP4 GT PUSH2 0x9C1 JUMPI DUP3 SWAP1 SUB PUSH1 0x1F AND DUP3 ADD SWAP2 JUMPDEST POP POP POP PUSH1 0x3 DUP5 ADD SLOAD PUSH1 0x4 DUP6 ADD SLOAD PUSH1 0x5 DUP7 ADD SLOAD PUSH1 0x6 DUP8 ADD SLOAD PUSH1 0x7 DUP9 ADD SLOAD PUSH1 0x8 DUP10 ADD DUP1 SLOAD SWAP9 SWAP10 SWAP6 SWAP9 SWAP5 SWAP8 POP SWAP3 SWAP6 POP SWAP1 SWAP4 PUSH1 0xFF DUP1 DUP4 AND SWAP5 PUSH2 0x100 SWAP1 SWAP4 DIV AND SWAP3 SWAP1 SWAP2 PUSH2 0xA25 SWAP1 PUSH2 0x2C30 JUMP JUMPDEST DUP1 PUSH1 0x1F ADD PUSH1 0x20 DUP1 SWAP2 DIV MUL PUSH1 0x20 ADD PUSH1 0x40 MLOAD SWAP1 DUP2 ADD PUSH1 0x40 MSTORE DUP1 SWAP3 SWAP2 SWAP1 DUP2 DUP2 MSTORE PUSH1 0x20 ADD DUP3 DUP1 SLOAD PUSH2 0xA51 SWAP1 PUSH2 0x2C30 JUMP JUMPDEST DUP1 ISZERO PUSH2 0xA9E JUMPI DUP1 PUSH1 0x1F LT PUSH2 0xA73 JUMPI PUSH2 0x100 DUP1 DUP4 SLOAD DIV MUL DUP4 MSTORE SWAP2 PUSH1 0x20 ADD SWAP2 PUSH2 0xA9E JUMP JUMPDEST DUP3 ADD SWAP2 SWAP1 PUSH1 0x0 MSTORE PUSH1 0x20 PUSH1 0x0 KECCAK256 SWAP1 JUMPDEST DUP2 SLOAD DUP2 MSTORE SWAP1 PUSH1 0x1 ADD SWAP1 PUSH1 0x20 ADD DUP1 DUP4 GT PUSH2 0xA81 JUMPI DUP3 SWAP1 SUB PUSH1 0x1F AND DUP3 ADD SWAP2 JUMPDEST POP POP POP POP POP SWAP1 POP DUP11 JUMP JUMPDEST PUSH1 0x60 PUSH1 0x3 DUP1 SLOAD PUSH2 0xAB7 SWAP1 PUSH2 0x2C30 JUMP JUMPDEST DUP1 PUSH1 0x1F ADD PUSH1 0x20 DUP1 SWAP2 DIV MUL PUSH1 0x20 ADD PUSH1 0x40 MLOAD SWAP1 DUP2 ADD PUSH1 0x40 MSTORE DUP1 SWAP3 SWAP2 SWAP1 DUP2 DUP2 MSTORE PUSH1 0x20 ADD DUP3 DUP1 SLOAD PUSH2 0xAE3 SWAP1 PUSH2 0x2C30 JUMP JUMPDEST DUP1 ISZERO PUSH2 0xB30 JUMPI DUP1 PUSH1 0x1F LT PUSH2 0xB05 JUMPI PUSH2 0x100 DUP1 DUP4 SLOAD DIV MUL DUP4 MSTORE SWAP2 PUSH1 0x20 ADD SWAP2 PUSH2 0xB30 JUMP JUMPDEST DUP3 ADD SWAP2 SWAP1 PUSH1 0x0 MSTORE PUSH1 0x20 PUSH1 0x0 KECCAK256 SWAP1 JUMPDEST DUP2 SLOAD DUP2 MSTORE SWAP1 PUSH1 0x1 ADD SWAP1 PUSH1 0x20 ADD DUP1 DUP4 GT PUSH2 0xB13 JUMPI DUP3 SWAP1 SUB PUSH1 0x1F AND DUP3 ADD SWAP2 JUMPDEST POP POP POP POP POP SWAP1 POP SWAP1 JUMP JUMPDEST PUSH1 0x0 CALLER PUSH2 0xB48 DUP2 DUP6 DUP6 PUSH2 0x1C6E JUMP JUMPDEST PUSH1 0x1 SWAP2 POP POP JUMPDEST SWAP3 SWAP2 POP POP JUMP JUMPDEST PUSH2 0xB5C PUSH2 0x1C80 JUMP JUMPDEST PUSH1 0xF DUP1 SLOAD PUSH1 0x1 PUSH1 0x1 PUSH1 0xA0 SHL SUB NOT AND PUSH1 0x1 PUSH1 0x1 PUSH1 0xA0 SHL SUB SWAP3 SWAP1 SWAP3 AND SWAP2 SWAP1 SWAP2 OR SWAP1 SSTORE JUMP JUMPDEST PUSH2 0xB86 PUSH2 0x1C80 JUMP JUMPDEST PUSH1 0xC8 DUP2 GT ISZERO PUSH2 0xBD2 JUMPI PUSH1 0x40 MLOAD PUSH3 0x461BCD PUSH1 0xE5 SHL DUP2 MSTORE PUSH1 0x20 PUSH1 0x4 DUP3 ADD MSTORE PUSH1 0x13 PUSH1 0x24 DUP3 ADD MSTORE PUSH19 0x4665652065786365656473206D6178696D756D PUSH1 0x68 SHL PUSH1 0x44 DUP3 ADD MSTORE PUSH1 0x64 ADD JUMPDEST PUSH1 0x40 MLOAD DUP1 SWAP2 SUB SWAP1 REVERT JUMPDEST PUSH3 0x15180 PUSH1 0xB SLOAD PUSH2 0xBE3 SWAP2 SWAP1 PUSH2 0x2C80 JUMP JUMPDEST TIMESTAMP LT ISZERO PUSH2 0xC32 JUMPI PUSH1 0x40 MLOAD PUSH3 0x461BCD PUSH1 0xE5 SHL DUP2 MSTORE PUSH1 0x20 PUSH1 0x4 DUP3 ADD MSTORE PUSH1 0x17 PUSH1 0x24 DUP3 ADD MSTORE PUSH32 0x466565206368616E676520746F6F206672657175656E74000000000000000000 PUSH1 0x44 DUP3 ADD MSTORE PUSH1 0x64 ADD PUSH2 0xBC9 JUMP JUMPDEST PUSH1 0x7 DUP1 SLOAD SWAP1 DUP3 SWAP1 SSTORE TIMESTAMP PUSH1 0xB SSTORE PUSH1 0x40 DUP1 MLOAD DUP3 DUP2 MSTORE PUSH1 0x20 DUP2 ADD DUP5 SWAP1 MSTORE PUSH32 0xCF4C3BA0667A6E28C2746A4EE8D23EFA18B2CA17591C2A22C36773A0232661D8 SWAP2 ADD PUSH1 0x40 MLOAD DUP1 SWAP2 SUB SWAP1 LOG1 POP POP JUMP JUMPDEST PUSH1 0x0 CALLER PUSH2 0xC89 DUP6 DUP3 DUP6 PUSH2 0x1CAD JUMP JUMPDEST PUSH2 0xC94 DUP6 DUP6 DUP6 PUSH2 0x1D2C JUMP JUMPDEST POP PUSH1 0x1 SWAP5 SWAP4 POP POP POP POP JUMP JUMPDEST PUSH2 0xCA9 CALLER DUP3 PUSH2 0x1D8B JUMP JUMPDEST DUP1 PUSH1 0x1F PUSH1 0x1 ADD PUSH1 0x0 DUP3 DUP3 SLOAD PUSH2 0xCBE SWAP2 SWAP1 PUSH2 0x2C80 JUMP JUMPDEST SWAP1 SWAP2 SSTORE POP POP POP JUMP JUMPDEST PUSH2 0xCCE PUSH2 0x1C80 JUMP JUMPDEST PUSH2 0xCD6 PUSH2 0x1DC5 JUMP JUMPDEST PUSH1 0x40 DUP1 MLOAD DUP2 DUP2 MSTORE PUSH1 0x7 SWAP2 DUP2 ADD SWAP2 SWAP1 SWAP2 MSTORE PUSH7 0x554E5041555345 PUSH1 0xC8 SHL PUSH1 0x60 DUP3 ADD MSTORE CALLER PUSH1 0x20 DUP3 ADD MSTORE PUSH32 0x2A09E26EC96218A3A144DF2E04DE096B7F0410106A4CAFF3CDFA5D667E604F2A SWAP1 PUSH1 0x80 ADD JUMPDEST PUSH1 0x40 MLOAD DUP1 SWAP2 SUB SWAP1 LOG1 JUMP JUMPDEST PUSH2 0xD34 PUSH2 0x1C80 JUMP JUMPDEST PUSH2 0xD3C PUSH2 0x1E15 JUMP JUMPDEST PUSH1 0x40 DUP1 MLOAD DUP2 DUP2 MSTORE PUSH1 0x5 SWAP2 DUP2 ADD SWAP2 SWAP1 SWAP2 MSTORE PUSH5 0x5041555345 PUSH1 0xD8 SHL PUSH1 0x60 DUP3 ADD MSTORE CALLER PUSH1 0x20 DUP3 ADD MSTORE PUSH32 0x2A09E26EC96218A3A144DF2E04DE096B7F0410106A4CAFF3CDFA5D667E604F2A SWAP1 PUSH1 0x80 ADD PUSH2 0xD22 JUMP JUMPDEST PUSH1 0x0 PUSH2 0xD94 PUSH2 0x1C80 JUMP JUMPDEST PUSH1 0x10 DUP1 SLOAD PUSH1 0x0 SWAP2 DUP3 PUSH2 0xDA5 DUP4 PUSH2 0x2C93 JUMP JUMPDEST SWAP2 SWAP1 POP SSTORE SWAP1 POP PUSH1 0x40 MLOAD DUP1 PUSH2 0x140 ADD PUSH1 0x40 MSTORE DUP1 DUP3 DUP2 MSTORE PUSH1 0x20 ADD DUP8 PUSH1 0x1 PUSH1 0x1 PUSH1 0xA0 SHL SUB AND DUP2 MSTORE PUSH1 0x20 ADD DUP7 DUP2 MSTORE PUSH1 0x20 ADD PUSH1 0x0 DUP2 MSTORE PUSH1 0x20 ADD PUSH1 0x0 DUP2 MSTORE PUSH1 0x20 ADD TIMESTAMP DUP2 MSTORE PUSH1 0x20 ADD PUSH3 0x93A80 TIMESTAMP PUSH2 0xDF5 SWAP2 SWAP1 PUSH2 0x2C80 JUMP JUMPDEST DUP2 MSTORE PUSH1 0x0 PUSH1 0x20 DUP3 ADD MSTORE PUSH1 0x40 ADD DUP6 PUSH1 0x3 DUP2 GT ISZERO PUSH2 0xE13 JUMPI PUSH2 0xE13 PUSH2 0x27F2 JUMP JUMPDEST DUP2 MSTORE PUSH1 0x20 SWAP1 DUP2 ADD DUP6 SWAP1 MSTORE PUSH1 0x0 DUP4 DUP2 MSTORE PUSH1 0x11 DUP3 MSTORE PUSH1 0x40 SWAP1 DUP2 SWAP1 KECCAK256 DUP4 MLOAD DUP2 SSTORE SWAP2 DUP4 ADD MLOAD PUSH1 0x1 DUP4 ADD DUP1 SLOAD PUSH1 0x1 PUSH1 0x1 PUSH1 0xA0 SHL SUB NOT AND PUSH1 0x1 PUSH1 0x1 PUSH1 0xA0 SHL SUB SWAP1 SWAP3 AND SWAP2 SWAP1 SWAP2 OR SWAP1 SSTORE DUP3 ADD MLOAD PUSH1 0x2 DUP3 ADD SWAP1 PUSH2 0xE67 SWAP1 DUP3 PUSH2 0x2CFA JUMP JUMPDEST POP PUSH1 0x60 DUP3 ADD MLOAD DUP2 PUSH1 0x3 ADD SSTORE PUSH1 0x80 DUP3 ADD MLOAD DUP2 PUSH1 0x4 ADD SSTORE PUSH1 0xA0 DUP3 ADD MLOAD DUP2 PUSH1 0x5 ADD SSTORE PUSH1 0xC0 DUP3 ADD MLOAD DUP2 PUSH1 0x6 ADD SSTORE PUSH1 0xE0 DUP3 ADD MLOAD DUP2 PUSH1 0x7 ADD PUSH1 0x0 PUSH2 0x100 EXP DUP2 SLOAD DUP2 PUSH1 0xFF MUL NOT AND SWAP1 DUP4 ISZERO ISZERO MUL OR SWAP1 SSTORE POP PUSH2 0x100 DUP3 ADD MLOAD DUP2 PUSH1 0x7 ADD PUSH1 0x1 PUSH2 0x100 EXP DUP2 SLOAD DUP2 PUSH1 0xFF MUL NOT AND SWAP1 DUP4 PUSH1 0x3 DUP2 GT ISZERO PUSH2 0xEDB JUMPI PUSH2 0xEDB PUSH2 0x27F2 JUMP JUMPDEST MUL OR SWAP1 SSTORE POP PUSH2 0x120 DUP3 ADD MLOAD PUSH1 0x8 DUP3 ADD SWAP1 PUSH2 0xEF5 SWAP1 DUP3 PUSH2 0x2CFA JUMP JUMPDEST POP SWAP1 POP POP DUP6 PUSH1 0x1 PUSH1 0x1 PUSH1 0xA0 SHL SUB AND DUP2 PUSH32 0x7585F467599D0F008985F231AF99293BE388626AC16CA59505C2F8F88969CD63 DUP8 PUSH1 0x40 MLOAD PUSH2 0xF33 SWAP2 SWAP1 PUSH2 0x289E JUMP JUMPDEST PUSH1 0x40 MLOAD DUP1 SWAP2 SUB SWAP1 LOG3 SWAP6 SWAP5 POP POP POP POP POP JUMP JUMPDEST PUSH1 0x1 PUSH1 0x1 PUSH1 0xA0 SHL SUB AND PUSH1 0x0 SWAP1 DUP2 MSTORE PUSH1 0x20 DUP2 SWAP1 MSTORE PUSH1 0x40 SWAP1 KECCAK256 SLOAD SWAP1 JUMP JUMPDEST PUSH2 0xF67 PUSH2 0x1C80 JUMP JUMPDEST PUSH2 0xF71 PUSH1 0x0 PUSH2 0x1E58 JUMP JUMPDEST JUMP JUMPDEST PUSH1 0x1B SLOAD PUSH1 0x0 SWAP1 DUP3 SWAP1 PUSH1 0xFF AND ISZERO PUSH2 0x1108 JUMPI CALLER PUSH1 0x0 SWAP1 DUP2 MSTORE PUSH1 0x1C PUSH1 0x20 MSTORE PUSH1 0x40 SWAP1 KECCAK256 SLOAD NUMBER GT PUSH2 0xFDA JUMPI PUSH1 0x40 MLOAD PUSH3 0x461BCD PUSH1 0xE5 SHL DUP2 MSTORE PUSH1 0x20 PUSH1 0x4 DUP3 ADD MSTORE PUSH1 0x16 PUSH1 0x24 DUP3 ADD MSTORE PUSH22 0x29B0B6B290313637B1B5903A3930B739B0B1BA34B7B7 PUSH1 0x51 SHL PUSH1 0x44 DUP3 ADD MSTORE PUSH1 0x64 ADD PUSH2 0xBC9 JUMP JUMPDEST PUSH1 0x40 DUP1 MLOAD CALLER PUSH1 0x20 DUP1 DUP4 ADD SWAP2 SWAP1 SWAP2 MSTORE DUP2 DUP4 ADD DUP5 SWAP1 MSTORE DUP3 MLOAD DUP1 DUP4 SUB DUP5 ADD DUP2 MSTORE PUSH1 0x60 SWAP1 SWAP3 ADD DUP4 MSTORE DUP2 MLOAD SWAP2 DUP2 ADD SWAP2 SWAP1 SWAP2 KECCAK256 PUSH1 0x0 SWAP1 DUP2 MSTORE PUSH1 0x1D SWAP1 SWAP2 MSTORE KECCAK256 SLOAD PUSH1 0xFF AND ISZERO PUSH2 0x1050 JUMPI PUSH1 0x40 MLOAD PUSH3 0x461BCD PUSH1 0xE5 SHL DUP2 MSTORE PUSH1 0x20 PUSH1 0x4 DUP3 ADD MSTORE PUSH1 0xA PUSH1 0x24 DUP3 ADD MSTORE PUSH10 0x139BDB98D9481D5CD959 PUSH1 0xB2 SHL PUSH1 0x44 DUP3 ADD MSTORE PUSH1 0x64 ADD PUSH2 0xBC9 JUMP JUMPDEST PUSH1 0x1A SLOAD CALLER PUSH1 0x0 SWAP1 DUP2 MSTORE PUSH1 0x1E PUSH1 0x20 MSTORE PUSH1 0x40 SWAP1 KECCAK256 SLOAD PUSH2 0x106D SWAP2 SWAP1 PUSH2 0x2C80 JUMP JUMPDEST TIMESTAMP LT ISZERO PUSH2 0x10AF JUMPI PUSH1 0x40 MLOAD PUSH3 0x461BCD PUSH1 0xE5 SHL DUP2 MSTORE PUSH1 0x20 PUSH1 0x4 DUP3 ADD MSTORE PUSH1 0x10 PUSH1 0x24 DUP3 ADD MSTORE PUSH16 0x10DBDBDB191BDDDB881B9BDD081B595D PUSH1 0x82 SHL PUSH1 0x44 DUP3 ADD MSTORE PUSH1 0x64 ADD PUSH2 0xBC9 JUMP JUMPDEST CALLER PUSH1 0x0 DUP2 DUP2 MSTORE PUSH1 0x1C PUSH1 0x20 SWAP1 DUP2 MSTORE PUSH1 0x40 DUP1 DUP4 KECCAK256 NUMBER SWAP1 SSTORE DUP1 MLOAD DUP1 DUP4 ADD DUP6 SWAP1 MSTORE DUP1 DUP3 ADD DUP7 SWAP1 MSTORE DUP2 MLOAD DUP1 DUP3 SUB DUP4 ADD DUP2 MSTORE PUSH1 0x60 SWAP1 SWAP2 ADD DUP3 MSTORE DUP1 MLOAD SWAP1 DUP4 ADD KECCAK256 DUP4 MSTORE PUSH1 0x1D DUP3 MSTORE DUP1 DUP4 KECCAK256 DUP1 SLOAD PUSH1 0xFF NOT AND PUSH1 0x1 OR SWAP1 SSTORE SWAP3 DUP3 MSTORE PUSH1 0x1E SWAP1 MSTORE KECCAK256 TIMESTAMP SWAP1 SSTORE JUMPDEST PUSH2 0x1111 DUP5 PUSH2 0x1EAA JUMP JUMPDEST PUSH2 0xC94 CALLER DUP7 DUP7 PUSH2 0x1D2C JUMP JUMPDEST PUSH2 0x1124 PUSH2 0x1C80 JUMP JUMPDEST PUSH1 0x1 PUSH1 0x1 PUSH1 0xA0 SHL SUB DUP3 AND PUSH1 0x0 DUP2 DUP2 MSTORE PUSH1 0xE PUSH1 0x20 SWAP1 DUP2 MSTORE PUSH1 0x40 SWAP2 DUP3 SWAP1 KECCAK256 DUP1 SLOAD PUSH1 0xFF NOT AND DUP6 ISZERO ISZERO SWAP1 DUP2 OR SWAP1 SWAP2 SSTORE SWAP2 MLOAD SWAP2 DUP3 MSTORE PUSH32 0x210F2A4A589E25D95B24CBDB060D26AE79BBE123A564D0F973503D48BADD00CA SWAP2 ADD PUSH1 0x40 MLOAD DUP1 SWAP2 SUB SWAP1 LOG2 POP POP JUMP JUMPDEST PUSH1 0x60 PUSH1 0x4 DUP1 SLOAD PUSH2 0xAB7 SWAP1 PUSH2 0x2C30 JUMP JUMPDEST PUSH2 0x119A PUSH2 0x1C80 JUMP JUMPDEST PUSH1 0xF DUP1 SLOAD PUSH1 0xFF PUSH1 0xA0 SHL NOT AND PUSH1 0x1 PUSH1 0xA0 SHL OR SWAP1 SSTORE PUSH2 0x11B7 DUP3 DUP3 PUSH2 0x1F23 JUMP JUMPDEST POP POP PUSH1 0xF DUP1 SLOAD PUSH1 0xFF PUSH1 0xA0 SHL NOT AND SWAP1 SSTORE JUMP JUMPDEST PUSH1 0x0 CALLER PUSH2 0xB48 DUP2 DUP6 DUP6 PUSH2 0x1D2C JUMP JUMPDEST PUSH1 0x0 PUSH10 0xD3C21BCECCEDA1000000 PUSH2 0x11EC CALLER PUSH2 0xF44 JUMP JUMPDEST LT ISZERO PUSH2 0x1244 JUMPI PUSH1 0x40 MLOAD PUSH3 0x461BCD PUSH1 0xE5 SHL DUP2 MSTORE PUSH1 0x20 PUSH1 0x4 DUP3 ADD MSTORE PUSH1 0x21 PUSH1 0x24 DUP3 ADD MSTORE PUSH32 0x496E73756666696369656E742062616C616E636520666F722070726F706F7361 PUSH1 0x44 DUP3 ADD MSTORE PUSH1 0x1B PUSH1 0xFA SHL PUSH1 0x64 DUP3 ADD MSTORE PUSH1 0x84 ADD PUSH2 0xBC9 JUMP JUMPDEST PUSH1 0x10 DUP1 SLOAD PUSH1 0x0 SWAP2 DUP3 PUSH2 0x1255 DUP4 PUSH2 0x2C93 JUMP JUMPDEST SWAP2 SWAP1 POP SSTORE SWAP1 POP PUSH1 0x40 MLOAD DUP1 PUSH2 0x140 ADD PUSH1 0x40 MSTORE DUP1 DUP3 DUP2 MSTORE PUSH1 0x20 ADD CALLER PUSH1 0x1 PUSH1 0x1 PUSH1 0xA0 SHL SUB AND DUP2 MSTORE PUSH1 0x20 ADD DUP7 DUP2 MSTORE PUSH1 0x20 ADD PUSH1 0x0 DUP2 MSTORE PUSH1 0x20 ADD PUSH1 0x0 DUP2 MSTORE PUSH1 0x20 ADD TIMESTAMP DUP2 MSTORE PUSH1 0x20 ADD PUSH3 0x93A80 TIMESTAMP PUSH2 0x12A5 SWAP2 SWAP1 PUSH2 0x2C80 JUMP JUMPDEST DUP2 MSTORE PUSH1 0x0 PUSH1 0x20 DUP3 ADD MSTORE PUSH1 0x40 ADD DUP6 PUSH1 0x3 DUP2 GT ISZERO PUSH2 0x12C3 JUMPI PUSH2 0x12C3 PUSH2 0x27F2 JUMP JUMPDEST DUP2 MSTORE PUSH1 0x20 SWAP1 DUP2 ADD DUP6 SWAP1 MSTORE PUSH1 0x0 DUP4 DUP2 MSTORE PUSH1 0x11 DUP3 MSTORE PUSH1 0x40 SWAP1 DUP2 SWAP1 KECCAK256 DUP4 MLOAD DUP2 SSTORE SWAP2 DUP4 ADD MLOAD PUSH1 0x1 DUP4 ADD DUP1 SLOAD PUSH1 0x1 PUSH1 0x1 PUSH1 0xA0 SHL SUB NOT AND PUSH1 0x1 PUSH1 0x1 PUSH1 0xA0 SHL SUB SWAP1 SWAP3 AND SWAP2 SWAP1 SWAP2 OR SWAP1 SSTORE DUP3 ADD MLOAD PUSH1 0x2 DUP3 ADD SWAP1 PUSH2 0x1317 SWAP1 DUP3 PUSH2 0x2CFA JUMP JUMPDEST POP PUSH1 0x60 DUP3 ADD MLOAD DUP2 PUSH1 0x3 ADD SSTORE PUSH1 0x80 DUP3 ADD MLOAD DUP2 PUSH1 0x4 ADD SSTORE PUSH1 0xA0 DUP3 ADD MLOAD DUP2 PUSH1 0x5 ADD SSTORE PUSH1 0xC0 DUP3 ADD MLOAD DUP2 PUSH1 0x6 ADD SSTORE PUSH1 0xE0 DUP3 ADD MLOAD DUP2 PUSH1 0x7 ADD PUSH1 0x0 PUSH2 0x100 EXP DUP2 SLOAD DUP2 PUSH1 0xFF MUL NOT AND SWAP1 DUP4 ISZERO ISZERO MUL OR SWAP1 SSTORE POP PUSH2 0x100 DUP3 ADD MLOAD DUP2 PUSH1 0x7 ADD PUSH1 0x1 PUSH2 0x100 EXP DUP2 SLOAD DUP2 PUSH1 0xFF MUL NOT AND SWAP1 DUP4 PUSH1 0x3 DUP2 GT ISZERO PUSH2 0x138B JUMPI PUSH2 0x138B PUSH2 0x27F2 JUMP JUMPDEST MUL OR SWAP1 SSTORE POP PUSH2 0x120 DUP3 ADD MLOAD PUSH1 0x8 DUP3 ADD SWAP1 PUSH2 0x13A5 SWAP1 DUP3 PUSH2 0x2CFA JUMP JUMPDEST POP SWAP1 POP POP CALLER PUSH1 0x1 PUSH1 0x1 PUSH1 0xA0 SHL SUB AND DUP2 PUSH32 0x7585F467599D0F008985F231AF99293BE388626AC16CA59505C2F8F88969CD63 DUP8 PUSH1 0x40 MLOAD PUSH2 0x13E3 SWAP2 SWAP1 PUSH2 0x289E JUMP JUMPDEST PUSH1 0x40 MLOAD DUP1 SWAP2 SUB SWAP1 LOG3 SWAP5 SWAP4 POP POP POP POP JUMP JUMPDEST PUSH1 0x14 PUSH1 0x20 MSTORE DUP2 PUSH1 0x0 MSTORE PUSH1 0x40 PUSH1 0x0 KECCAK256 DUP2 DUP2 SLOAD DUP2 LT PUSH2 0x140F JUMPI PUSH1 0x0 DUP1 REVERT JUMPDEST PUSH1 0x0 SWAP2 DUP3 MSTORE PUSH1 0x20 SWAP1 SWAP2 KECCAK256 PUSH1 0x5 SWAP1 SWAP2 MUL ADD DUP1 SLOAD PUSH1 0x1 DUP3 ADD SLOAD PUSH1 0x2 DUP4 ADD SLOAD PUSH1 0x3 DUP5 ADD SLOAD PUSH1 0x4 SWAP1 SWAP5 ADD SLOAD SWAP3 SWAP6 POP SWAP1 SWAP4 POP SWAP2 SWAP1 PUSH1 0xFF AND DUP6 JUMP JUMPDEST PUSH2 0x144C PUSH2 0x1C80 JUMP JUMPDEST DUP1 PUSH2 0x1456 CALLER PUSH2 0xF44 JUMP JUMPDEST LT ISZERO PUSH2 0x149B JUMPI PUSH1 0x40 MLOAD PUSH3 0x461BCD PUSH1 0xE5 SHL DUP2 MSTORE PUSH1 0x20 PUSH1 0x4 DUP3 ADD MSTORE PUSH1 0x14 PUSH1 0x24 DUP3 ADD MSTORE PUSH20 0x496E73756666696369656E742062616C616E6365 PUSH1 0x60 SHL PUSH1 0x44 DUP3 ADD MSTORE PUSH1 0x64 ADD PUSH2 0xBC9 JUMP JUMPDEST PUSH2 0x14A6 CALLER ADDRESS DUP4 PUSH2 0x1D2C JUMP JUMPDEST DUP1 PUSH1 0x16 PUSH1 0x0 DUP3 DUP3 SLOAD PUSH2 0xCBE SWAP2 SWAP1 PUSH2 0x2C80 JUMP JUMPDEST PUSH2 0x14C0 PUSH2 0x1C80 JUMP JUMPDEST PUSH1 0x7 SLOAD DUP2 PUSH2 0x14CE DUP5 DUP7 PUSH2 0x2C80 JUMP JUMPDEST PUSH2 0x14D8 SWAP2 SWAP1 PUSH2 0x2C80 JUMP JUMPDEST EQ PUSH2 0x152F JUMPI PUSH1 0x40 MLOAD PUSH3 0x461BCD PUSH1 0xE5 SHL DUP2 MSTORE PUSH1 0x20 PUSH1 0x4 DUP3 ADD MSTORE PUSH1 0x21 PUSH1 0x24 DUP3 ADD MSTORE PUSH32 0x446973747269627574696F6E206D75737420657175616C20746F74616C206665 PUSH1 0x44 DUP3 ADD MSTORE PUSH1 0x65 PUSH1 0xF8 SHL PUSH1 0x64 DUP3 ADD MSTORE PUSH1 0x84 ADD PUSH2 0xBC9 JUMP JUMPDEST PUSH1 0x8 DUP4 SWAP1 SSTORE PUSH1 0x9 DUP3 SWAP1 SSTORE PUSH1 0xA DUP2 SWAP1 SSTORE PUSH1 0x40 DUP1 MLOAD DUP5 DUP2 MSTORE PUSH1 0x20 DUP2 ADD DUP5 SWAP1 MSTORE SWAP1 DUP2 ADD DUP3 SWAP1 MSTORE PUSH32 0x69FC4C7BA13251E049284D74AF6F22B2804DB0152DEB918F6CF17451917FE97F SWAP1 PUSH1 0x60 ADD PUSH1 0x40 MLOAD DUP1 SWAP2 SUB SWAP1 LOG1 POP POP POP JUMP JUMPDEST PUSH1 0x0 PUSH2 0xB4E DUP3 PUSH2 0xF44 JUMP JUMPDEST PUSH1 0x10 SLOAD DUP3 LT PUSH2 0x15D6 JUMPI PUSH1 0x40 MLOAD PUSH3 0x461BCD PUSH1 0xE5 SHL DUP2 MSTORE PUSH1 0x20 PUSH1 0x4 DUP3 ADD MSTORE PUSH1 0x13 PUSH1 0x24 DUP3 ADD MSTORE PUSH19 0x125B9D985B1A59081C1C9BDC1BDCD85B081251 PUSH1 0x6A SHL PUSH1 0x44 DUP3 ADD MSTORE PUSH1 0x64 ADD PUSH2 0xBC9 JUMP JUMPDEST PUSH1 0x0 DUP3 DUP2 MSTORE PUSH1 0x12 PUSH1 0x20 SWAP1 DUP2 MSTORE PUSH1 0x40 DUP1 DUP4 KECCAK256 CALLER DUP5 MSTORE SWAP1 SWAP2 MSTORE SWAP1 KECCAK256 SLOAD PUSH1 0xFF AND ISZERO PUSH2 0x1630 JUMPI PUSH1 0x40 MLOAD PUSH3 0x461BCD PUSH1 0xE5 SHL DUP2 MSTORE PUSH1 0x20 PUSH1 0x4 DUP3 ADD MSTORE PUSH1 0xD PUSH1 0x24 DUP3 ADD MSTORE PUSH13 0x105B1C9958591E481D9BDD1959 PUSH1 0x9A SHL PUSH1 0x44 DUP3 ADD MSTORE PUSH1 0x64 ADD PUSH2 0xBC9 JUMP JUMPDEST PUSH1 0x0 DUP3 DUP2 MSTORE PUSH1 0x11 PUSH1 0x20 MSTORE PUSH1 0x40 SWAP1 KECCAK256 PUSH1 0x6 ADD SLOAD TIMESTAMP GT ISZERO PUSH2 0x1687 JUMPI PUSH1 0x40 MLOAD PUSH3 0x461BCD PUSH1 0xE5 SHL DUP2 MSTORE PUSH1 0x20 PUSH1 0x4 DUP3 ADD MSTORE PUSH1 0x13 PUSH1 0x24 DUP3 ADD MSTORE PUSH19 0x159BDD1A5B99C81C195C9A5BD908195B991959 PUSH1 0x6A SHL PUSH1 0x44 DUP3 ADD MSTORE PUSH1 0x64 ADD PUSH2 0xBC9 JUMP JUMPDEST PUSH1 0x0 PUSH2 0x1692 CALLER PUSH2 0xF44 JUMP JUMPDEST SWAP1 POP PUSH1 0x0 DUP2 GT PUSH2 0x16D6 JUMPI PUSH1 0x40 MLOAD PUSH3 0x461BCD PUSH1 0xE5 SHL DUP2 MSTORE PUSH1 0x20 PUSH1 0x4 DUP3 ADD MSTORE PUSH1 0xF PUSH1 0x24 DUP3 ADD MSTORE PUSH15 0x2737903B37BA34B733903837BBB2B9 PUSH1 0x89 SHL PUSH1 0x44 DUP3 ADD MSTORE PUSH1 0x64 ADD PUSH2 0xBC9 JUMP JUMPDEST PUSH1 0x0 DUP4 DUP2 MSTORE PUSH1 0x12 PUSH1 0x20 SWAP1 DUP2 MSTORE PUSH1 0x40 DUP1 DUP4 KECCAK256 CALLER DUP1 DUP6 MSTORE SWAP1 DUP4 MSTORE DUP2 DUP5 KECCAK256 DUP1 SLOAD PUSH1 0xFF NOT AND PUSH1 0x1 OR SWAP1 SSTORE DUP7 DUP5 MSTORE PUSH1 0x13 DUP4 MSTORE DUP2 DUP5 KECCAK256 SWAP1 DUP5 MSTORE SWAP1 SWAP2 MSTORE SWAP1 KECCAK256 DUP2 SWAP1 SSTORE DUP2 ISZERO PUSH2 0x1743 JUMPI PUSH1 0x0 DUP4 DUP2 MSTORE PUSH1 0x11 PUSH1 0x20 MSTORE PUSH1 0x40 DUP2 KECCAK256 PUSH1 0x3 ADD DUP1 SLOAD DUP4 SWAP3 SWAP1 PUSH2 0x1738 SWAP1 DUP5 SWAP1 PUSH2 0x2C80 JUMP JUMPDEST SWAP1 SWAP2 SSTORE POP PUSH2 0x176A SWAP1 POP JUMP JUMPDEST PUSH1 0x0 DUP4 DUP2 MSTORE PUSH1 0x11 PUSH1 0x20 MSTORE PUSH1 0x40 DUP2 KECCAK256 PUSH1 0x4 ADD DUP1 SLOAD DUP4 SWAP3 SWAP1 PUSH2 0x1764 SWAP1 DUP5 SWAP1 PUSH2 0x2C80 JUMP JUMPDEST SWAP1 SWAP2 SSTORE POP POP JUMPDEST PUSH1 0x40 DUP1 MLOAD DUP4 ISZERO ISZERO DUP2 MSTORE PUSH1 0x20 DUP2 ADD DUP4 SWAP1 MSTORE CALLER SWAP2 DUP6 SWAP2 PUSH32 0xCBDF6214089CBA887ECBF35A0B6A734589959C9763342C756BB2A80CA2BC9F6E SWAP2 ADD JUMPDEST PUSH1 0x40 MLOAD DUP1 SWAP2 SUB SWAP1 LOG3 POP POP POP JUMP JUMPDEST PUSH2 0x17B7 PUSH2 0x1C80 JUMP JUMPDEST PUSH1 0x1 PUSH1 0x1 PUSH1 0xA0 SHL SUB DUP2 AND PUSH2 0x17E1 JUMPI PUSH1 0x40 MLOAD PUSH4 0x1E4FBDF7 PUSH1 0xE0 SHL DUP2 MSTORE PUSH1 0x0 PUSH1 0x4 DUP3 ADD MSTORE PUSH1 0x24 ADD PUSH2 0xBC9 JUMP JUMPDEST PUSH2 0x17EA DUP2 PUSH2 0x1E58 JUMP JUMPDEST POP JUMP JUMPDEST PUSH1 0x10 SLOAD DUP2 LT PUSH2 0x1834 JUMPI PUSH1 0x40 MLOAD PUSH3 0x461BCD PUSH1 0xE5 SHL DUP2 MSTORE PUSH1 0x20 PUSH1 0x4 DUP3 ADD MSTORE PUSH1 0x13 PUSH1 0x24 DUP3 ADD MSTORE PUSH19 0x125B9D985B1A59081C1C9BDC1BDCD85B081251 PUSH1 0x6A SHL PUSH1 0x44 DUP3 ADD MSTORE PUSH1 0x64 ADD PUSH2 0xBC9 JUMP JUMPDEST PUSH1 0xF SLOAD PUSH1 0x1 PUSH1 0x1 PUSH1 0xA0 SHL SUB AND CALLER EQ DUP1 PUSH2 0x1857 JUMPI POP PUSH1 0x5 SLOAD PUSH1 0x1 PUSH1 0x1 PUSH1 0xA0 SHL SUB AND CALLER EQ JUMPDEST PUSH2 0x18A3 JUMPI PUSH1 0x40 MLOAD PUSH3 0x461BCD PUSH1 0xE5 SHL DUP2 MSTORE PUSH1 0x20 PUSH1 0x4 DUP3 ADD MSTORE PUSH1 0x19 PUSH1 0x24 DUP3 ADD MSTORE PUSH32 0x4E6F7420617574686F72697A656420746F206578656375746500000000000000 PUSH1 0x44 DUP3 ADD MSTORE PUSH1 0x64 ADD PUSH2 0xBC9 JUMP JUMPDEST PUSH1 0x0 DUP2 DUP2 MSTORE PUSH1 0x11 PUSH1 0x20 MSTORE PUSH1 0x40 SWAP1 KECCAK256 PUSH1 0x7 DUP2 ADD SLOAD PUSH1 0xFF AND ISZERO PUSH2 0x18F9 JUMPI PUSH1 0x40 MLOAD PUSH3 0x461BCD PUSH1 0xE5 SHL DUP2 MSTORE PUSH1 0x20 PUSH1 0x4 DUP3 ADD MSTORE PUSH1 0x10 PUSH1 0x24 DUP3 ADD MSTORE PUSH16 0x105B1C9958591E48195E1958DD5D1959 PUSH1 0x82 SHL PUSH1 0x44 DUP3 ADD MSTORE PUSH1 0x64 ADD PUSH2 0xBC9 JUMP JUMPDEST DUP1 PUSH1 0x6 ADD SLOAD TIMESTAMP GT PUSH2 0x1942 JUMPI PUSH1 0x40 MLOAD PUSH3 0x461BCD PUSH1 0xE5 SHL DUP2 MSTORE PUSH1 0x20 PUSH1 0x4 DUP3 ADD MSTORE PUSH1 0x13 PUSH1 0x24 DUP3 ADD MSTORE PUSH19 0x566F74696E67207374696C6C20616374697665 PUSH1 0x68 SHL PUSH1 0x44 DUP3 ADD MSTORE PUSH1 0x64 ADD PUSH2 0xBC9 JUMP JUMPDEST PUSH3 0x2A300 DUP2 PUSH1 0x6 ADD SLOAD PUSH2 0x1955 SWAP2 SWAP1 PUSH2 0x2C80 JUMP JUMPDEST TIMESTAMP GT PUSH2 0x19A3 JUMPI PUSH1 0x40 MLOAD PUSH3 0x461BCD PUSH1 0xE5 SHL DUP2 MSTORE PUSH1 0x20 PUSH1 0x4 DUP3 ADD MSTORE PUSH1 0x17 PUSH1 0x24 DUP3 ADD MSTORE PUSH32 0x457865637574696F6E2064656C6179206E6F74206D6574000000000000000000 PUSH1 0x44 DUP3 ADD MSTORE PUSH1 0x64 ADD PUSH2 0xBC9 JUMP JUMPDEST PUSH1 0x0 DUP2 PUSH1 0x4 ADD SLOAD DUP3 PUSH1 0x3 ADD SLOAD PUSH2 0x19B9 SWAP2 SWAP1 PUSH2 0x2C80 JUMP JUMPDEST SWAP1 POP PUSH1 0x0 PUSH1 0x64 PUSH1 0xA PUSH2 0x19CA PUSH1 0x2 SLOAD SWAP1 JUMP JUMPDEST PUSH2 0x19D4 SWAP2 SWAP1 PUSH2 0x2DBA JUMP JUMPDEST PUSH2 0x19DE SWAP2 SWAP1 PUSH2 0x2DD1 JUMP JUMPDEST SWAP1 POP DUP1 DUP3 LT ISZERO PUSH2 0x1A21 JUMPI PUSH1 0x40 MLOAD PUSH3 0x461BCD PUSH1 0xE5 SHL DUP2 MSTORE PUSH1 0x20 PUSH1 0x4 DUP3 ADD MSTORE PUSH1 0xE PUSH1 0x24 DUP3 ADD MSTORE PUSH14 0x145D5BDC9D5B481B9BDD081B595D PUSH1 0x92 SHL PUSH1 0x44 DUP3 ADD MSTORE PUSH1 0x64 ADD PUSH2 0xBC9 JUMP JUMPDEST DUP3 PUSH1 0x4 ADD SLOAD DUP4 PUSH1 0x3 ADD SLOAD GT PUSH2 0x1A6C JUMPI PUSH1 0x40 MLOAD PUSH3 0x461BCD PUSH1 0xE5 SHL DUP2 MSTORE PUSH1 0x20 PUSH1 0x4 DUP3 ADD MSTORE PUSH1 0x11 PUSH1 0x24 DUP3 ADD MSTORE PUSH17 0x141C9BDC1BDCD85B081C995A9958DD1959 PUSH1 0x7A SHL PUSH1 0x44 DUP3 ADD MSTORE PUSH1 0x64 ADD PUSH2 0xBC9 JUMP JUMPDEST PUSH1 0x7 DUP4 ADD DUP1 SLOAD PUSH1 0xFF NOT AND PUSH1 0x1 SWAP1 DUP2 OR SWAP1 SWAP2 SSTORE PUSH1 0x40 DUP1 MLOAD PUSH2 0x140 DUP2 ADD DUP3 MSTORE DUP6 SLOAD DUP2 MSTORE SWAP2 DUP6 ADD SLOAD PUSH1 0x1 PUSH1 0x1 PUSH1 0xA0 SHL SUB AND PUSH1 0x20 DUP4 ADD MSTORE PUSH1 0x2 DUP6 ADD DUP1 SLOAD PUSH2 0x1C3D SWAP4 SWAP3 DUP8 SWAP3 SWAP1 DUP5 ADD SWAP2 PUSH2 0x1AB9 SWAP1 PUSH2 0x2C30 JUMP JUMPDEST DUP1 PUSH1 0x1F ADD PUSH1 0x20 DUP1 SWAP2 DIV MUL PUSH1 0x20 ADD PUSH1 0x40 MLOAD SWAP1 DUP2 ADD PUSH1 0x40 MSTORE DUP1 SWAP3 SWAP2 SWAP1 DUP2 DUP2 MSTORE PUSH1 0x20 ADD DUP3 DUP1 SLOAD PUSH2 0x1AE5 SWAP1 PUSH2 0x2C30 JUMP JUMPDEST DUP1 ISZERO PUSH2 0x1B32 JUMPI DUP1 PUSH1 0x1F LT PUSH2 0x1B07 JUMPI PUSH2 0x100 DUP1 DUP4 SLOAD DIV MUL DUP4 MSTORE SWAP2 PUSH1 0x20 ADD SWAP2 PUSH2 0x1B32 JUMP JUMPDEST DUP3 ADD SWAP2 SWAP1 PUSH1 0x0 MSTORE PUSH1 0x20 PUSH1 0x0 KECCAK256 SWAP1 JUMPDEST DUP2 SLOAD DUP2 MSTORE SWAP1 PUSH1 0x1 ADD SWAP1 PUSH1 0x20 ADD DUP1 DUP4 GT PUSH2 0x1B15 JUMPI DUP3 SWAP1 SUB PUSH1 0x1F AND DUP3 ADD SWAP2 JUMPDEST POP POP POP SWAP2 DUP4 MSTORE POP POP PUSH1 0x3 DUP3 DUP2 ADD SLOAD PUSH1 0x20 DUP4 ADD MSTORE PUSH1 0x4 DUP4 ADD SLOAD PUSH1 0x40 DUP4 ADD MSTORE PUSH1 0x5 DUP4 ADD SLOAD PUSH1 0x60 DUP4 ADD MSTORE PUSH1 0x6 DUP4 ADD SLOAD PUSH1 0x80 DUP4 ADD MSTORE PUSH1 0x7 DUP4 ADD SLOAD PUSH1 0xFF DUP1 DUP3 AND ISZERO ISZERO PUSH1 0xA0 DUP6 ADD MSTORE PUSH1 0xC0 SWAP1 SWAP4 ADD SWAP3 PUSH2 0x100 SWAP1 SWAP2 DIV AND SWAP1 DUP2 GT ISZERO PUSH2 0x1B91 JUMPI PUSH2 0x1B91 PUSH2 0x27F2 JUMP JUMPDEST PUSH1 0x3 DUP2 GT ISZERO PUSH2 0x1BA2 JUMPI PUSH2 0x1BA2 PUSH2 0x27F2 JUMP JUMPDEST DUP2 MSTORE PUSH1 0x20 ADD PUSH1 0x8 DUP3 ADD DUP1 SLOAD PUSH2 0x1BB6 SWAP1 PUSH2 0x2C30 JUMP JUMPDEST DUP1 PUSH1 0x1F ADD PUSH1 0x20 DUP1 SWAP2 DIV MUL PUSH1 0x20 ADD PUSH1 0x40 MLOAD SWAP1 DUP2 ADD PUSH1 0x40 MSTORE DUP1 SWAP3 SWAP2 SWAP1 DUP2 DUP2 MSTORE PUSH1 0x20 ADD DUP3 DUP1 SLOAD PUSH2 0x1BE2 SWAP1 PUSH2 0x2C30 JUMP JUMPDEST DUP1 ISZERO PUSH2 0x1C2F JUMPI DUP1 PUSH1 0x1F LT PUSH2 0x1C04 JUMPI PUSH2 0x100 DUP1 DUP4 SLOAD DIV MUL DUP4 MSTORE SWAP2 PUSH1 0x20 ADD SWAP2 PUSH2 0x1C2F JUMP JUMPDEST DUP3 ADD SWAP2 SWAP1 PUSH1 0x0 MSTORE PUSH1 0x20 PUSH1 0x0 KECCAK256 SWAP1 JUMPDEST DUP2 SLOAD DUP2 MSTORE SWAP1 PUSH1 0x1 ADD SWAP1 PUSH1 0x20 ADD DUP1 DUP4 GT PUSH2 0x1C12 JUMPI DUP3 SWAP1 SUB PUSH1 0x1F AND DUP3 ADD SWAP2 JUMPDEST POP POP POP POP POP DUP2 MSTORE POP POP PUSH2 0x1F59 JUMP JUMPDEST PUSH1 0x40 MLOAD DUP5 SWAP1 PUSH32 0x712AE1383F79AC853F8D882153778E0260EF8F03B504E2866E0593E04D2B291F SWAP1 PUSH1 0x0 SWAP1 LOG2 POP POP POP POP JUMP JUMPDEST PUSH2 0x1C7B DUP4 DUP4 DUP4 PUSH1 0x1 PUSH2 0x209C JUMP JUMPDEST POP POP POP JUMP JUMPDEST PUSH1 0x5 SLOAD PUSH1 0x1 PUSH1 0x1 PUSH1 0xA0 SHL SUB AND CALLER EQ PUSH2 0xF71 JUMPI PUSH1 0x40 MLOAD PUSH4 0x118CDAA7 PUSH1 0xE0 SHL DUP2 MSTORE CALLER PUSH1 0x4 DUP3 ADD MSTORE PUSH1 0x24 ADD PUSH2 0xBC9 JUMP JUMPDEST PUSH1 0x1 PUSH1 0x1 PUSH1 0xA0 SHL SUB DUP4 DUP2 AND PUSH1 0x0 SWAP1 DUP2 MSTORE PUSH1 0x1 PUSH1 0x20 SWAP1 DUP2 MSTORE PUSH1 0x40 DUP1 DUP4 KECCAK256 SWAP4 DUP7 AND DUP4 MSTORE SWAP3 SWAP1 MSTORE KECCAK256 SLOAD PUSH1 0x0 NOT DUP2 LT ISZERO PUSH2 0x1D26 JUMPI DUP2 DUP2 LT ISZERO PUSH2 0x1D17 JUMPI PUSH1 0x40 MLOAD PUSH4 0x7DC7A0D9 PUSH1 0xE1 SHL DUP2 MSTORE PUSH1 0x1 PUSH1 0x1 PUSH1 0xA0 SHL SUB DUP5 AND PUSH1 0x4 DUP3 ADD MSTORE PUSH1 0x24 DUP2 ADD DUP3 SWAP1 MSTORE PUSH1 0x44 DUP2 ADD DUP4 SWAP1 MSTORE PUSH1 0x64 ADD PUSH2 0xBC9 JUMP JUMPDEST PUSH2 0x1D26 DUP5 DUP5 DUP5 DUP5 SUB PUSH1 0x0 PUSH2 0x209C JUMP JUMPDEST POP POP POP POP JUMP JUMPDEST PUSH1 0x1 PUSH1 0x1 PUSH1 0xA0 SHL SUB DUP4 AND PUSH2 0x1D56 JUMPI PUSH1 0x40 MLOAD PUSH4 0x4B637E8F PUSH1 0xE1 SHL DUP2 MSTORE PUSH1 0x0 PUSH1 0x4 DUP3 ADD MSTORE PUSH1 0x24 ADD PUSH2 0xBC9 JUMP JUMPDEST PUSH1 0x1 PUSH1 0x1 PUSH1 0xA0 SHL SUB DUP3 AND PUSH2 0x1D80 JUMPI PUSH1 0x40 MLOAD PUSH4 0xEC442F05 PUSH1 0xE0 SHL DUP2 MSTORE PUSH1 0x0 PUSH1 0x4 DUP3 ADD MSTORE PUSH1 0x24 ADD PUSH2 0xBC9 JUMP JUMPDEST PUSH2 0x1C7B DUP4 DUP4 DUP4 PUSH2 0x2171 JUMP JUMPDEST PUSH1 0x1 PUSH1 0x1 PUSH1 0xA0 SHL SUB DUP3 AND PUSH2 0x1DB5 JUMPI PUSH1 0x40 MLOAD PUSH4 0x4B637E8F PUSH1 0xE1 SHL DUP2 MSTORE PUSH1 0x0 PUSH1 0x4 DUP3 ADD MSTORE PUSH1 0x24 ADD PUSH2 0xBC9 JUMP JUMPDEST PUSH2 0x1DC1 DUP3 PUSH1 0x0 DUP4 PUSH2 0x2171 JUMP JUMPDEST POP POP JUMP JUMPDEST PUSH2 0x1DCD PUSH2 0x2580 JUMP JUMPDEST PUSH1 0x5 DUP1 SLOAD PUSH1 0xFF PUSH1 0xA0 SHL NOT AND SWAP1 SSTORE PUSH32 0x5DB9EE0A495BF2E6FF9C91A7834C1BA4FDD244A5E8AA4E537BD38AEAE4B073AA CALLER JUMPDEST PUSH1 0x40 MLOAD PUSH1 0x1 PUSH1 0x1 PUSH1 0xA0 SHL SUB SWAP1 SWAP2 AND DUP2 MSTORE PUSH1 0x20 ADD PUSH2 0xD22 JUMP JUMPDEST PUSH2 0x1E1D PUSH2 0x25AA JUMP JUMPDEST PUSH1 0x5 DUP1 SLOAD PUSH1 0xFF PUSH1 0xA0 SHL NOT AND PUSH1 0x1 PUSH1 0xA0 SHL OR SWAP1 SSTORE PUSH32 0x62E78CEA01BEE320CD4E420270B5EA74000D11B0C9F74754EBDBFC544B05A258 PUSH2 0x1DFD CALLER SWAP1 JUMP JUMPDEST PUSH1 0x5 DUP1 SLOAD PUSH1 0x1 PUSH1 0x1 PUSH1 0xA0 SHL SUB DUP4 DUP2 AND PUSH1 0x1 PUSH1 0x1 PUSH1 0xA0 SHL SUB NOT DUP4 AND DUP2 OR SWAP1 SWAP4 SSTORE PUSH1 0x40 MLOAD SWAP2 AND SWAP2 SWAP1 DUP3 SWAP1 PUSH32 0x8BE0079C531659141344CD1FD0A4F28419497F9722A3DAAFE3B4186F6B6457E0 SWAP1 PUSH1 0x0 SWAP1 LOG3 POP POP JUMP JUMPDEST PUSH1 0x1B SLOAD PUSH1 0xFF AND DUP1 ISZERO PUSH2 0x1ECC JUMPI POP CALLER PUSH1 0x0 SWAP1 DUP2 MSTORE PUSH1 0xE PUSH1 0x20 MSTORE PUSH1 0x40 SWAP1 KECCAK256 SLOAD PUSH1 0xFF AND ISZERO JUMPDEST ISZERO PUSH2 0x17EA JUMPI PUSH1 0x18 SLOAD DUP2 GT ISZERO PUSH2 0x17EA JUMPI PUSH1 0x40 MLOAD PUSH3 0x461BCD PUSH1 0xE5 SHL DUP2 MSTORE PUSH1 0x20 PUSH1 0x4 DUP3 ADD DUP2 SWAP1 MSTORE PUSH1 0x24 DUP3 ADD MSTORE PUSH32 0x5472616E73616374696F6E20616D6F756E742065786365656473206C696D6974 PUSH1 0x44 DUP3 ADD MSTORE PUSH1 0x64 ADD PUSH2 0xBC9 JUMP JUMPDEST PUSH1 0x1 PUSH1 0x1 PUSH1 0xA0 SHL SUB DUP3 AND PUSH2 0x1F4D JUMPI PUSH1 0x40 MLOAD PUSH4 0xEC442F05 PUSH1 0xE0 SHL DUP2 MSTORE PUSH1 0x0 PUSH1 0x4 DUP3 ADD MSTORE PUSH1 0x24 ADD PUSH2 0xBC9 JUMP JUMPDEST PUSH2 0x1DC1 PUSH1 0x0 DUP4 DUP4 PUSH2 0x2171 JUMP JUMPDEST PUSH1 0x0 DUP2 PUSH2 0x100 ADD MLOAD PUSH1 0x3 DUP2 GT ISZERO PUSH2 0x1F72 JUMPI PUSH2 0x1F72 PUSH2 0x27F2 JUMP JUMPDEST SUB PUSH2 0x1FE1 JUMPI PUSH1 0x0 DUP2 PUSH2 0x120 ADD MLOAD DUP1 PUSH1 0x20 ADD SWAP1 MLOAD DUP2 ADD SWAP1 PUSH2 0x1F92 SWAP2 SWAP1 PUSH2 0x2DF3 JUMP JUMPDEST SWAP1 POP PUSH1 0xC8 DUP2 GT ISZERO PUSH2 0x1FDB JUMPI PUSH1 0x40 MLOAD PUSH3 0x461BCD PUSH1 0xE5 SHL DUP2 MSTORE PUSH1 0x20 PUSH1 0x4 DUP3 ADD MSTORE PUSH1 0x13 PUSH1 0x24 DUP3 ADD MSTORE PUSH19 0x4665652065786365656473206D6178696D756D PUSH1 0x68 SHL PUSH1 0x44 DUP3 ADD MSTORE PUSH1 0x64 ADD PUSH2 0xBC9 JUMP JUMPDEST PUSH1 0x7 SSTORE POP JUMP JUMPDEST PUSH1 0x1 DUP2 PUSH2 0x100 ADD MLOAD PUSH1 0x3 DUP2 GT ISZERO PUSH2 0x1FFA JUMPI PUSH2 0x1FFA PUSH2 0x27F2 JUMP JUMPDEST SUB PUSH2 0x17EA JUMPI PUSH1 0x0 DUP1 DUP3 PUSH2 0x120 ADD MLOAD DUP1 PUSH1 0x20 ADD SWAP1 MLOAD DUP2 ADD SWAP1 PUSH2 0x201B SWAP2 SWAP1 PUSH2 0x2E0C JUMP JUMPDEST PUSH1 0xC SLOAD SWAP2 SWAP4 POP SWAP2 POP DUP2 SWAP1 PUSH2 0x2037 SWAP1 PUSH1 0x1 PUSH1 0x1 PUSH1 0xA0 SHL SUB AND PUSH2 0xF44 JUMP JUMPDEST LT ISZERO PUSH2 0x2085 JUMPI PUSH1 0x40 MLOAD PUSH3 0x461BCD PUSH1 0xE5 SHL DUP2 MSTORE PUSH1 0x20 PUSH1 0x4 DUP3 ADD MSTORE PUSH1 0x1D PUSH1 0x24 DUP3 ADD MSTORE PUSH32 0x496E73756666696369656E742074726561737572792062616C616E6365000000 PUSH1 0x44 DUP3 ADD MSTORE PUSH1 0x64 ADD PUSH2 0xBC9 JUMP JUMPDEST PUSH1 0xC SLOAD PUSH2 0x1C7B SWAP1 PUSH1 0x1 PUSH1 0x1 PUSH1 0xA0 SHL SUB AND DUP4 DUP4 PUSH2 0x1D2C JUMP JUMPDEST PUSH1 0x1 PUSH1 0x1 PUSH1 0xA0 SHL SUB DUP5 AND PUSH2 0x20C6 JUMPI PUSH1 0x40 MLOAD PUSH4 0xE602DF05 PUSH1 0xE0 SHL DUP2 MSTORE PUSH1 0x0 PUSH1 0x4 DUP3 ADD MSTORE PUSH1 0x24 ADD PUSH2 0xBC9 JUMP JUMPDEST PUSH1 0x1 PUSH1 0x1 PUSH1 0xA0 SHL SUB DUP4 AND PUSH2 0x20F0 JUMPI PUSH1 0x40 MLOAD PUSH4 0x4A1406B1 PUSH1 0xE1 SHL DUP2 MSTORE PUSH1 0x0 PUSH1 0x4 DUP3 ADD MSTORE PUSH1 0x24 ADD PUSH2 0xBC9 JUMP JUMPDEST PUSH1 0x1 PUSH1 0x1 PUSH1 0xA0 SHL SUB DUP1 DUP6 AND PUSH1 0x0 SWAP1 DUP2 MSTORE PUSH1 0x1 PUSH1 0x20 SWAP1 DUP2 MSTORE PUSH1 0x40 DUP1 DUP4 KECCAK256 SWAP4 DUP8 AND DUP4 MSTORE SWAP3 SWAP1 MSTORE KECCAK256 DUP3 SWAP1 SSTORE DUP1 ISZERO PUSH2 0x1D26 JUMPI DUP3 PUSH1 0x1 PUSH1 0x1 PUSH1 0xA0 SHL SUB AND DUP5 PUSH1 0x1 PUSH1 0x1 PUSH1 0xA0 SHL SUB AND PUSH32 0x8C5BE1E5EBEC7D5BD14F71427D1E84F3DD0314C0F7B2291E5B200AC8C7C3B925 DUP5 PUSH1 0x40 MLOAD PUSH2 0x2163 SWAP2 DUP2 MSTORE PUSH1 0x20 ADD SWAP1 JUMP JUMPDEST PUSH1 0x40 MLOAD DUP1 SWAP2 SUB SWAP1 LOG3 POP POP POP POP JUMP JUMPDEST PUSH2 0x2179 PUSH2 0x25AA JUMP JUMPDEST PUSH1 0xF SLOAD PUSH1 0x1 PUSH1 0xA0 SHL SWAP1 DIV PUSH1 0xFF AND ISZERO PUSH2 0x21EE JUMPI PUSH2 0x2196 DUP4 DUP4 DUP4 PUSH2 0x25D5 JUMP JUMPDEST PUSH1 0x1 PUSH1 0x1 PUSH1 0xA0 SHL SUB DUP4 AND ISZERO DUP1 ISZERO SWAP1 PUSH2 0x21B6 JUMPI POP PUSH1 0x1 PUSH1 0x1 PUSH1 0xA0 SHL SUB DUP3 AND ISZERO ISZERO JUMPDEST ISZERO PUSH2 0x1C7B JUMPI DUP2 PUSH1 0x1 PUSH1 0x1 PUSH1 0xA0 SHL SUB AND DUP4 PUSH1 0x1 PUSH1 0x1 PUSH1 0xA0 SHL SUB AND PUSH1 0x0 DUP1 MLOAD PUSH1 0x20 PUSH2 0x2E4E DUP4 CODECOPY DUP2 MLOAD SWAP2 MSTORE DUP4 PUSH1 0x40 MLOAD PUSH2 0x17A2 SWAP2 DUP2 MSTORE PUSH1 0x20 ADD SWAP1 JUMP JUMPDEST PUSH1 0x1 PUSH1 0x1 PUSH1 0xA0 SHL SUB DUP4 AND ISZERO DUP1 ISZERO SWAP1 PUSH2 0x220E JUMPI POP PUSH1 0x1 PUSH1 0x1 PUSH1 0xA0 SHL SUB DUP3 AND ISZERO ISZERO JUMPDEST ISZERO PUSH2 0x221E JUMPI PUSH2 0x221E DUP4 DUP4 DUP4 PUSH2 0x26F2 JUMP JUMPDEST PUSH1 0x1 PUSH1 0x1 PUSH1 0xA0 SHL SUB DUP4 AND PUSH2 0x2279 JUMPI PUSH2 0x2237 DUP4 DUP4 DUP4 PUSH2 0x25D5 JUMP JUMPDEST PUSH1 0x1 PUSH1 0x1 PUSH1 0xA0 SHL SUB DUP3 AND ISZERO PUSH2 0x1C7B JUMPI DUP2 PUSH1 0x1 PUSH1 0x1 PUSH1 0xA0 SHL SUB AND DUP4 PUSH1 0x1 PUSH1 0x1 PUSH1 0xA0 SHL SUB AND PUSH1 0x0 DUP1 MLOAD PUSH1 0x20 PUSH2 0x2E4E DUP4 CODECOPY DUP2 MLOAD SWAP2 MSTORE DUP4 PUSH1 0x40 MLOAD PUSH2 0x17A2 SWAP2 DUP2 MSTORE PUSH1 0x20 ADD SWAP1 JUMP JUMPDEST PUSH1 0x1 PUSH1 0x1 PUSH1 0xA0 SHL SUB DUP3 AND PUSH2 0x22B2 JUMPI PUSH2 0x2292 DUP4 DUP4 DUP4 PUSH2 0x25D5 JUMP JUMPDEST DUP1 PUSH1 0x1F PUSH1 0x1 ADD PUSH1 0x0 DUP3 DUP3 SLOAD PUSH2 0x22A7 SWAP2 SWAP1 PUSH2 0x2C80 JUMP JUMPDEST SWAP1 SWAP2 SSTORE POP PUSH2 0x1C7B SWAP1 POP JUMP JUMPDEST PUSH1 0x7 SLOAD ISZERO DUP1 PUSH2 0x22D9 JUMPI POP PUSH1 0x1 PUSH1 0x1 PUSH1 0xA0 SHL SUB DUP4 AND PUSH1 0x0 SWAP1 DUP2 MSTORE PUSH1 0xE PUSH1 0x20 MSTORE PUSH1 0x40 SWAP1 KECCAK256 SLOAD PUSH1 0xFF AND JUMPDEST DUP1 PUSH2 0x22FC JUMPI POP PUSH1 0x1 PUSH1 0x1 PUSH1 0xA0 SHL SUB DUP3 AND PUSH1 0x0 SWAP1 DUP2 MSTORE PUSH1 0xE PUSH1 0x20 MSTORE PUSH1 0x40 SWAP1 KECCAK256 SLOAD PUSH1 0xFF AND JUMPDEST ISZERO PUSH2 0x233F JUMPI PUSH2 0x230C DUP4 DUP4 DUP4 PUSH2 0x25D5 JUMP JUMPDEST DUP2 PUSH1 0x1 PUSH1 0x1 PUSH1 0xA0 SHL SUB AND DUP4 PUSH1 0x1 PUSH1 0x1 PUSH1 0xA0 SHL SUB AND PUSH1 0x0 DUP1 MLOAD PUSH1 0x20 PUSH2 0x2E4E DUP4 CODECOPY DUP2 MLOAD SWAP2 MSTORE DUP4 PUSH1 0x40 MLOAD PUSH2 0x17A2 SWAP2 DUP2 MSTORE PUSH1 0x20 ADD SWAP1 JUMP JUMPDEST PUSH1 0x1B SLOAD PUSH1 0xFF AND DUP1 ISZERO PUSH2 0x235A JUMPI POP PUSH1 0x1 PUSH1 0x1 PUSH1 0xA0 SHL SUB DUP4 AND ADDRESS EQ ISZERO JUMPDEST DUP1 ISZERO PUSH2 0x236F JUMPI POP PUSH1 0x1 PUSH1 0x1 PUSH1 0xA0 SHL SUB DUP3 AND ADDRESS EQ ISZERO JUMPDEST ISZERO PUSH2 0x23FA JUMPI PUSH2 0x237D DUP2 PUSH2 0x1EAA JUMP JUMPDEST PUSH1 0x19 SLOAD DUP2 PUSH2 0x238A DUP5 PUSH2 0xF44 JUMP JUMPDEST PUSH2 0x2394 SWAP2 SWAP1 PUSH2 0x2C80 JUMP JUMPDEST GT ISZERO PUSH2 0x23FA JUMPI PUSH1 0x1 PUSH1 0x1 PUSH1 0xA0 SHL SUB DUP3 AND PUSH1 0x0 SWAP1 DUP2 MSTORE PUSH1 0xE PUSH1 0x20 MSTORE PUSH1 0x40 SWAP1 KECCAK256 SLOAD PUSH1 0xFF AND PUSH2 0x23FA JUMPI PUSH1 0x40 MLOAD PUSH3 0x461BCD PUSH1 0xE5 SHL DUP2 MSTORE PUSH1 0x20 PUSH1 0x4 DUP3 ADD MSTORE PUSH1 0x15 PUSH1 0x24 DUP3 ADD MSTORE PUSH21 0x15D85B1B195D081B1A5B5A5D08195E18D959591959 PUSH1 0x5A SHL PUSH1 0x44 DUP3 ADD MSTORE PUSH1 0x64 ADD PUSH2 0xBC9 JUMP JUMPDEST PUSH1 0x0 PUSH2 0x2710 PUSH1 0x7 SLOAD DUP4 PUSH2 0x240D SWAP2 SWAP1 PUSH2 0x2DBA JUMP JUMPDEST PUSH2 0x2417 SWAP2 SWAP1 PUSH2 0x2DD1 JUMP JUMPDEST SWAP1 POP PUSH1 0x0 PUSH1 0x7 SLOAD PUSH1 0x8 SLOAD DUP4 PUSH2 0x242C SWAP2 SWAP1 PUSH2 0x2DBA JUMP JUMPDEST PUSH2 0x2436 SWAP2 SWAP1 PUSH2 0x2DD1 JUMP JUMPDEST SWAP1 POP PUSH1 0x0 PUSH1 0x7 SLOAD PUSH1 0x9 SLOAD DUP5 PUSH2 0x244B SWAP2 SWAP1 PUSH2 0x2DBA JUMP JUMPDEST PUSH2 0x2455 SWAP2 SWAP1 PUSH2 0x2DD1 JUMP JUMPDEST SWAP1 POP PUSH1 0x0 DUP2 PUSH2 0x2464 DUP5 DUP7 PUSH2 0x2E3A JUMP JUMPDEST PUSH2 0x246E SWAP2 SWAP1 PUSH2 0x2E3A JUMP JUMPDEST SWAP1 POP PUSH1 0x0 PUSH2 0x247C DUP6 DUP8 PUSH2 0x2E3A JUMP JUMPDEST SWAP1 POP DUP4 ISZERO PUSH2 0x249C JUMPI PUSH1 0xC SLOAD PUSH2 0x249C SWAP1 DUP10 SWAP1 PUSH1 0x1 PUSH1 0x1 PUSH1 0xA0 SHL SUB AND DUP7 PUSH2 0x25D5 JUMP JUMPDEST DUP3 ISZERO PUSH2 0x24BA JUMPI PUSH1 0xD SLOAD PUSH2 0x24BA SWAP1 DUP10 SWAP1 PUSH1 0x1 PUSH1 0x1 PUSH1 0xA0 SHL SUB AND DUP6 PUSH2 0x25D5 JUMP JUMPDEST DUP2 ISZERO PUSH2 0x24E7 JUMPI PUSH2 0x24CC DUP9 PUSH1 0x0 DUP5 PUSH2 0x25D5 JUMP JUMPDEST DUP2 PUSH1 0x1F PUSH1 0x1 ADD PUSH1 0x0 DUP3 DUP3 SLOAD PUSH2 0x24E1 SWAP2 SWAP1 PUSH2 0x2C80 JUMP JUMPDEST SWAP1 SWAP2 SSTORE POP POP JUMPDEST PUSH2 0x24F2 DUP9 DUP9 DUP4 PUSH2 0x25D5 JUMP JUMPDEST DUP5 PUSH1 0x1F PUSH1 0x0 ADD PUSH1 0x0 DUP3 DUP3 SLOAD PUSH2 0x2507 SWAP2 SWAP1 PUSH2 0x2C80 JUMP JUMPDEST SWAP1 SWAP2 SSTORE POP POP PUSH1 0x1 PUSH1 0x1 PUSH1 0xA0 SHL SUB DUP9 AND PUSH1 0x0 SWAP1 DUP2 MSTORE PUSH1 0x24 PUSH1 0x20 MSTORE PUSH1 0x40 DUP2 KECCAK256 DUP1 SLOAD DUP8 SWAP3 SWAP1 PUSH2 0x2534 SWAP1 DUP5 SWAP1 PUSH2 0x2C80 JUMP JUMPDEST SWAP3 POP POP DUP2 SWAP1 SSTORE POP DUP7 PUSH1 0x1 PUSH1 0x1 PUSH1 0xA0 SHL SUB AND DUP9 PUSH1 0x1 PUSH1 0x1 PUSH1 0xA0 SHL SUB AND PUSH1 0x0 DUP1 MLOAD PUSH1 0x20 PUSH2 0x2E4E DUP4 CODECOPY DUP2 MLOAD SWAP2 MSTORE DUP4 PUSH1 0x40 MLOAD PUSH2 0x256E SWAP2 DUP2 MSTORE PUSH1 0x20 ADD SWAP1 JUMP JUMPDEST PUSH1 0x40 MLOAD DUP1 SWAP2 SUB SWAP1 LOG3 POP POP POP POP POP POP POP POP JUMP JUMPDEST PUSH1 0x5 SLOAD PUSH1 0x1 PUSH1 0xA0 SHL SWAP1 DIV PUSH1 0xFF AND PUSH2 0xF71 JUMPI PUSH1 0x40 MLOAD PUSH4 0x8DFC202B PUSH1 0xE0 SHL DUP2 MSTORE PUSH1 0x4 ADD PUSH1 0x40 MLOAD DUP1 SWAP2 SUB SWAP1 REVERT JUMPDEST PUSH1 0x5 SLOAD PUSH1 0x1 PUSH1 0xA0 SHL SWAP1 DIV PUSH1 0xFF AND ISZERO PUSH2 0xF71 JUMPI PUSH1 0x40 MLOAD PUSH4 0xD93C0665 PUSH1 0xE0 SHL DUP2 MSTORE PUSH1 0x4 ADD PUSH1 0x40 MLOAD DUP1 SWAP2 SUB SWAP1 REVERT JUMPDEST PUSH1 0x1 PUSH1 0x1 PUSH1 0xA0 SHL SUB DUP4 AND PUSH2 0x2600 JUMPI DUP1 PUSH1 0x2 PUSH1 0x0 DUP3 DUP3 SLOAD PUSH2 0x25F5 SWAP2 SWAP1 PUSH2 0x2C80 JUMP JUMPDEST SWAP1 SWAP2 SSTORE POP PUSH2 0x2672 SWAP1 POP JUMP JUMPDEST PUSH1 0x1 PUSH1 0x1 PUSH1 0xA0 SHL SUB DUP4 AND PUSH1 0x0 SWAP1 DUP2 MSTORE PUSH1 0x20 DUP2 SWAP1 MSTORE PUSH1 0x40 SWAP1 KECCAK256 SLOAD DUP2 DUP2 LT ISZERO PUSH2 0x2653 JUMPI PUSH1 0x40 MLOAD PUSH4 0x391434E3 PUSH1 0xE2 SHL DUP2 MSTORE PUSH1 0x1 PUSH1 0x1 PUSH1 0xA0 SHL SUB DUP6 AND PUSH1 0x4 DUP3 ADD MSTORE PUSH1 0x24 DUP2 ADD DUP3 SWAP1 MSTORE PUSH1 0x44 DUP2 ADD DUP4 SWAP1 MSTORE PUSH1 0x64 ADD PUSH2 0xBC9 JUMP JUMPDEST PUSH1 0x1 PUSH1 0x1 PUSH1 0xA0 SHL SUB DUP5 AND PUSH1 0x0 SWAP1 DUP2 MSTORE PUSH1 0x20 DUP2 SWAP1 MSTORE PUSH1 0x40 SWAP1 KECCAK256 SWAP1 DUP3 SWAP1 SUB SWAP1 SSTORE JUMPDEST PUSH1 0x1 PUSH1 0x1 PUSH1 0xA0 SHL SUB DUP3 AND PUSH2 0x268E JUMPI PUSH1 0x2 DUP1 SLOAD DUP3 SWAP1 SUB SWAP1 SSTORE PUSH2 0x26AD JUMP JUMPDEST PUSH1 0x1 PUSH1 0x1 PUSH1 0xA0 SHL SUB DUP3 AND PUSH1 0x0 SWAP1 DUP2 MSTORE PUSH1 0x20 DUP2 SWAP1 MSTORE PUSH1 0x40 SWAP1 KECCAK256 DUP1 SLOAD DUP3 ADD SWAP1 SSTORE JUMPDEST DUP2 PUSH1 0x1 PUSH1 0x1 PUSH1 0xA0 SHL SUB AND DUP4 PUSH1 0x1 PUSH1 0x1 PUSH1 0xA0 SHL SUB AND PUSH32 0xDDF252AD1BE2C89B69C2B068FC378DAA952BA7F163C4A11628F55A4DF523B3EF DUP4 PUSH1 0x40 MLOAD PUSH2 0x17A2 SWAP2 DUP2 MSTORE PUSH1 0x20 ADD SWAP1 JUMP JUMPDEST PUSH1 0x23 DUP1 SLOAD SWAP1 PUSH1 0x0 PUSH2 0x2702 DUP4 PUSH2 0x2C93 JUMP JUMPDEST SWAP1 SWAP2 SSTORE POP POP PUSH1 0x1 PUSH1 0x1 PUSH1 0xA0 SHL SUB DUP4 AND PUSH1 0x0 SWAP1 DUP2 MSTORE PUSH1 0x24 PUSH1 0x20 MSTORE PUSH1 0x40 DUP2 KECCAK256 PUSH1 0x2 ADD DUP1 SLOAD SWAP2 PUSH2 0x272E DUP4 PUSH2 0x2C93 JUMP JUMPDEST SWAP1 SWAP2 SSTORE POP POP PUSH1 0x1 PUSH1 0x1 PUSH1 0xA0 SHL SUB DUP3 AND PUSH1 0x0 SWAP1 DUP2 MSTORE PUSH1 0x24 PUSH1 0x20 MSTORE PUSH1 0x40 DUP2 KECCAK256 PUSH1 0x3 ADD SLOAD SWAP1 SUB PUSH2 0x2788 JUMPI PUSH1 0x1 PUSH1 0x1 PUSH1 0xA0 SHL SUB DUP3 AND PUSH1 0x0 SWAP1 DUP2 MSTORE PUSH1 0x24 PUSH1 0x20 MSTORE PUSH1 0x40 DUP2 KECCAK256 TIMESTAMP PUSH1 0x3 SWAP1 SWAP2 ADD SSTORE PUSH1 0x22 DUP1 SLOAD SWAP2 PUSH2 0x2782 DUP4 PUSH2 0x2C93 JUMP JUMPDEST SWAP2 SWAP1 POP SSTORE POP JUMPDEST POP POP PUSH1 0x15 SLOAD PUSH1 0x21 SSTORE POP JUMP JUMPDEST PUSH1 0x0 PUSH1 0x20 DUP3 DUP5 SUB SLT ISZERO PUSH2 0x27A5 JUMPI PUSH1 0x0 DUP1 REVERT JUMPDEST POP CALLDATALOAD SWAP2 SWAP1 POP JUMP JUMPDEST PUSH1 0x0 DUP2 MLOAD DUP1 DUP5 MSTORE PUSH1 0x0 JUMPDEST DUP2 DUP2 LT ISZERO PUSH2 0x27D2 JUMPI PUSH1 0x20 DUP2 DUP6 ADD DUP2 ADD MLOAD DUP7 DUP4 ADD DUP3 ADD MSTORE ADD PUSH2 0x27B6 JUMP JUMPDEST POP PUSH1 0x0 PUSH1 0x20 DUP3 DUP7 ADD ADD MSTORE PUSH1 0x20 PUSH1 0x1F NOT PUSH1 0x1F DUP4 ADD AND DUP6 ADD ADD SWAP2 POP POP SWAP3 SWAP2 POP POP JUMP JUMPDEST PUSH4 0x4E487B71 PUSH1 0xE0 SHL PUSH1 0x0 MSTORE PUSH1 0x21 PUSH1 0x4 MSTORE PUSH1 0x24 PUSH1 0x0 REVERT JUMPDEST DUP11 DUP2 MSTORE PUSH1 0x1 PUSH1 0x1 PUSH1 0xA0 SHL SUB DUP11 AND PUSH1 0x20 DUP3 ADD MSTORE PUSH2 0x140 PUSH1 0x40 DUP3 ADD DUP2 SWAP1 MSTORE PUSH1 0x0 SWAP1 PUSH2 0x2833 DUP4 DUP3 ADD DUP13 PUSH2 0x27AC JUMP JUMPDEST SWAP1 POP DUP10 PUSH1 0x60 DUP5 ADD MSTORE DUP9 PUSH1 0x80 DUP5 ADD MSTORE DUP8 PUSH1 0xA0 DUP5 ADD MSTORE DUP7 PUSH1 0xC0 DUP5 ADD MSTORE DUP6 ISZERO ISZERO PUSH1 0xE0 DUP5 ADD MSTORE PUSH1 0x4 DUP6 LT PUSH2 0x2873 JUMPI PUSH4 0x4E487B71 PUSH1 0xE0 SHL PUSH1 0x0 MSTORE PUSH1 0x21 PUSH1 0x4 MSTORE PUSH1 0x24 PUSH1 0x0 REVERT JUMPDEST DUP5 PUSH2 0x100 DUP5 ADD MSTORE DUP3 DUP2 SUB PUSH2 0x120 DUP5 ADD MSTORE PUSH2 0x288D DUP2 DUP6 PUSH2 0x27AC JUMP JUMPDEST SWAP14 SWAP13 POP POP POP POP POP POP POP POP POP POP POP POP POP JUMP JUMPDEST PUSH1 0x20 DUP2 MSTORE PUSH1 0x0 PUSH2 0x28B1 PUSH1 0x20 DUP4 ADD DUP5 PUSH2 0x27AC JUMP JUMPDEST SWAP4 SWAP3 POP POP POP JUMP JUMPDEST PUSH1 0x1 PUSH1 0x1 PUSH1 0xA0 SHL SUB DUP2 AND DUP2 EQ PUSH2 0x17EA JUMPI PUSH1 0x0 DUP1 REVERT JUMPDEST PUSH1 0x0 DUP1 PUSH1 0x40 DUP4 DUP6 SUB SLT ISZERO PUSH2 0x28E0 JUMPI PUSH1 0x0 DUP1 REVERT JUMPDEST DUP3 CALLDATALOAD PUSH2 0x28EB DUP2 PUSH2 0x28B8 JUMP JUMPDEST SWAP5 PUSH1 0x20 SWAP4 SWAP1 SWAP4 ADD CALLDATALOAD SWAP4 POP POP POP JUMP JUMPDEST PUSH1 0x0 PUSH1 0x20 DUP3 DUP5 SUB SLT ISZERO PUSH2 0x290B JUMPI PUSH1 0x0 DUP1 REVERT JUMPDEST DUP2 CALLDATALOAD PUSH2 0x28B1 DUP2 PUSH2 0x28B8 JUMP JUMPDEST PUSH1 0x0 DUP1 PUSH1 0x0 PUSH1 0x60 DUP5 DUP7 SUB SLT ISZERO PUSH2 0x292B JUMPI PUSH1 0x0 DUP1 REVERT JUMPDEST DUP4 CALLDATALOAD PUSH2 0x2936 DUP2 PUSH2 0x28B8 JUMP JUMPDEST SWAP3 POP PUSH1 0x20 DUP5 ADD CALLDATALOAD PUSH2 0x2946 DUP2 PUSH2 0x28B8 JUMP JUMPDEST SWAP3 SWAP6 SWAP3 SWAP5 POP POP POP PUSH1 0x40 SWAP2 SWAP1 SWAP2 ADD CALLDATALOAD SWAP1 JUMP JUMPDEST PUSH1 0x0 DUP1 PUSH1 0x40 DUP4 DUP6 SUB SLT ISZERO PUSH2 0x296A JUMPI PUSH1 0x0 DUP1 REVERT JUMPDEST DUP3 CALLDATALOAD SWAP2 POP PUSH1 0x20 DUP4 ADD CALLDATALOAD PUSH2 0x297C DUP2 PUSH2 0x28B8 JUMP JUMPDEST DUP1 SWAP2 POP POP SWAP3 POP SWAP3 SWAP1 POP JUMP JUMPDEST PUSH4 0x4E487B71 PUSH1 0xE0 SHL PUSH1 0x0 MSTORE PUSH1 0x41 PUSH1 0x4 MSTORE PUSH1 0x24 PUSH1 0x0 REVERT JUMPDEST PUSH1 0x0 DUP3 PUSH1 0x1F DUP4 ADD SLT PUSH2 0x29AE JUMPI PUSH1 0x0 DUP1 REVERT JUMPDEST DUP2 CALLDATALOAD PUSH8 0xFFFFFFFFFFFFFFFF DUP1 DUP3 GT ISZERO PUSH2 0x29C9 JUMPI PUSH2 0x29C9 PUSH2 0x2987 JUMP JUMPDEST PUSH1 0x40 MLOAD PUSH1 0x1F DUP4 ADD PUSH1 0x1F NOT SWAP1 DUP2 AND PUSH1 0x3F ADD AND DUP2 ADD SWAP1 DUP3 DUP3 GT DUP2 DUP4 LT OR ISZERO PUSH2 0x29F1 JUMPI PUSH2 0x29F1 PUSH2 0x2987 JUMP JUMPDEST DUP2 PUSH1 0x40 MSTORE DUP4 DUP2 MSTORE DUP7 PUSH1 0x20 DUP6 DUP9 ADD ADD GT ISZERO PUSH2 0x2A0A JUMPI PUSH1 0x0 DUP1 REVERT JUMPDEST DUP4 PUSH1 0x20 DUP8 ADD PUSH1 0x20 DUP4 ADD CALLDATACOPY PUSH1 0x0 PUSH1 0x20 DUP6 DUP4 ADD ADD MSTORE DUP1 SWAP5 POP POP POP POP POP SWAP3 SWAP2 POP POP JUMP JUMPDEST DUP1 CALLDATALOAD PUSH1 0x4 DUP2 LT PUSH2 0x2A39 JUMPI PUSH1 0x0 DUP1 REVERT JUMPDEST SWAP2 SWAP1 POP JUMP JUMPDEST PUSH1 0x0 DUP1 PUSH1 0x0 DUP1 PUSH1 0x80 DUP6 DUP8 SUB SLT ISZERO PUSH2 0x2A54 JUMPI PUSH1 0x0 DUP1 REVERT JUMPDEST DUP5 CALLDATALOAD PUSH2 0x2A5F DUP2 PUSH2 0x28B8 JUMP JUMPDEST SWAP4 POP PUSH1 0x20 DUP6 ADD CALLDATALOAD PUSH8 0xFFFFFFFFFFFFFFFF DUP1 DUP3 GT ISZERO PUSH2 0x2A7C JUMPI PUSH1 0x0 DUP1 REVERT JUMPDEST PUSH2 0x2A88 DUP9 DUP4 DUP10 ADD PUSH2 0x299D JUMP JUMPDEST SWAP5 POP PUSH2 0x2A96 PUSH1 0x40 DUP9 ADD PUSH2 0x2A2A JUMP JUMPDEST SWAP4 POP PUSH1 0x60 DUP8 ADD CALLDATALOAD SWAP2 POP DUP1 DUP3 GT ISZERO PUSH2 0x2AAC JUMPI PUSH1 0x0 DUP1 REVERT JUMPDEST POP PUSH2 0x2AB9 DUP8 DUP3 DUP9 ADD PUSH2 0x299D JUMP JUMPDEST SWAP2 POP POP SWAP3 SWAP6 SWAP2 SWAP5 POP SWAP3 POP JUMP JUMPDEST PUSH1 0x0 DUP1 PUSH1 0x0 PUSH1 0x60 DUP5 DUP7 SUB SLT ISZERO PUSH2 0x2ADA JUMPI PUSH1 0x0 DUP1 REVERT JUMPDEST DUP4 CALLDATALOAD PUSH2 0x2AE5 DUP2 PUSH2 0x28B8 JUMP JUMPDEST SWAP6 PUSH1 0x20 DUP6 ADD CALLDATALOAD SWAP6 POP PUSH1 0x40 SWAP1 SWAP5 ADD CALLDATALOAD SWAP4 SWAP3 POP POP POP JUMP JUMPDEST DUP1 CALLDATALOAD DUP1 ISZERO ISZERO DUP2 EQ PUSH2 0x2A39 JUMPI PUSH1 0x0 DUP1 REVERT JUMPDEST PUSH1 0x0 DUP1 PUSH1 0x40 DUP4 DUP6 SUB SLT ISZERO PUSH2 0x2B1D JUMPI PUSH1 0x0 DUP1 REVERT JUMPDEST DUP3 CALLDATALOAD PUSH2 0x2B28 DUP2 PUSH2 0x28B8 JUMP JUMPDEST SWAP2 POP PUSH2 0x2B36 PUSH1 0x20 DUP5 ADD PUSH2 0x2AFA JUMP JUMPDEST SWAP1 POP SWAP3 POP SWAP3 SWAP1 POP JUMP JUMPDEST PUSH1 0x0 DUP1 PUSH1 0x0 PUSH1 0x60 DUP5 DUP7 SUB SLT ISZERO PUSH2 0x2B54 JUMPI PUSH1 0x0 DUP1 REVERT JUMPDEST DUP4 CALLDATALOAD PUSH8 0xFFFFFFFFFFFFFFFF DUP1 DUP3 GT ISZERO PUSH2 0x2B6C JUMPI PUSH1 0x0 DUP1 REVERT JUMPDEST PUSH2 0x2B78 DUP8 DUP4 DUP9 ADD PUSH2 0x299D JUMP JUMPDEST SWAP5 POP PUSH2 0x2B86 PUSH1 0x20 DUP8 ADD PUSH2 0x2A2A JUMP JUMPDEST SWAP4 POP PUSH1 0x40 DUP7 ADD CALLDATALOAD SWAP2 POP DUP1 DUP3 GT ISZERO PUSH2 0x2B9C JUMPI PUSH1 0x0 DUP1 REVERT JUMPDEST POP PUSH2 0x2BA9 DUP7 DUP3 DUP8 ADD PUSH2 0x299D JUMP JUMPDEST SWAP2 POP POP SWAP3 POP SWAP3 POP SWAP3 JUMP JUMPDEST PUSH1 0x0 DUP1 PUSH1 0x0 PUSH1 0x60 DUP5 DUP7 SUB SLT ISZERO PUSH2 0x2BC8 JUMPI PUSH1 0x0 DUP1 REVERT JUMPDEST POP POP DUP2 CALLDATALOAD SWAP4 PUSH1 0x20 DUP4 ADD CALLDATALOAD SWAP4 POP PUSH1 0x40 SWAP1 SWAP3 ADD CALLDATALOAD SWAP2 SWAP1 POP JUMP JUMPDEST PUSH1 0x0 DUP1 PUSH1 0x40 DUP4 DUP6 SUB SLT ISZERO PUSH2 0x2BF2 JUMPI PUSH1 0x0 DUP1 REVERT JUMPDEST DUP3 CALLDATALOAD SWAP2 POP PUSH2 0x2B36 PUSH1 0x20 DUP5 ADD PUSH2 0x2AFA JUMP JUMPDEST PUSH1 0x0 DUP1 PUSH1 0x40 DUP4 DUP6 SUB SLT ISZERO PUSH2 0x2C15 JUMPI PUSH1 0x0 DUP1 REVERT JUMPDEST DUP3 CALLDATALOAD PUSH2 0x2C20 DUP2 PUSH2 0x28B8 JUMP JUMPDEST SWAP2 POP PUSH1 0x20 DUP4 ADD CALLDATALOAD PUSH2 0x297C DUP2 PUSH2 0x28B8 JUMP JUMPDEST PUSH1 0x1 DUP2 DUP2 SHR SWAP1 DUP3 AND DUP1 PUSH2 0x2C44 JUMPI PUSH1 0x7F DUP3 AND SWAP2 POP JUMPDEST PUSH1 0x20 DUP3 LT DUP2 SUB PUSH2 0x2C64 JUMPI PUSH4 0x4E487B71 PUSH1 0xE0 SHL PUSH1 0x0 MSTORE PUSH1 0x22 PUSH1 0x4 MSTORE PUSH1 0x24 PUSH1 0x0 REVERT JUMPDEST POP SWAP2 SWAP1 POP JUMP JUMPDEST PUSH4 0x4E487B71 PUSH1 0xE0 SHL PUSH1 0x0 MSTORE PUSH1 0x11 PUSH1 0x4 MSTORE PUSH1 0x24 PUSH1 0x0 REVERT JUMPDEST DUP1 DUP3 ADD DUP1 DUP3 GT ISZERO PUSH2 0xB4E JUMPI PUSH2 0xB4E PUSH2 0x2C6A JUMP JUMPDEST PUSH1 0x0 PUSH1 0x1 DUP3 ADD PUSH2 0x2CA5 JUMPI PUSH2 0x2CA5 PUSH2 0x2C6A JUMP JUMPDEST POP PUSH1 0x1 ADD SWAP1 JUMP JUMPDEST PUSH1 0x1F DUP3 GT ISZERO PUSH2 0x1C7B JUMPI PUSH1 0x0 DUP2 DUP2 MSTORE PUSH1 0x20 DUP2 KECCAK256 PUSH1 0x1F DUP6 ADD PUSH1 0x5 SHR DUP2 ADD PUSH1 0x20 DUP7 LT ISZERO PUSH2 0x2CD3 JUMPI POP DUP1 JUMPDEST PUSH1 0x1F DUP6 ADD PUSH1 0x5 SHR DUP3 ADD SWAP2 POP JUMPDEST DUP2 DUP2 LT ISZERO PUSH2 0x2CF2 JUMPI DUP3 DUP2 SSTORE PUSH1 0x1 ADD PUSH2 0x2CDF JUMP JUMPDEST POP POP POP POP POP POP JUMP JUMPDEST DUP2 MLOAD PUSH8 0xFFFFFFFFFFFFFFFF DUP2 GT ISZERO PUSH2 0x2D14 JUMPI PUSH2 0x2D14 PUSH2 0x2987 JUMP JUMPDEST PUSH2 0x2D28 DUP2 PUSH2 0x2D22 DUP5 SLOAD PUSH2 0x2C30 JUMP JUMPDEST DUP5 PUSH2 0x2CAC JUMP JUMPDEST PUSH1 0x20 DUP1 PUSH1 0x1F DUP4 GT PUSH1 0x1 DUP2 EQ PUSH2 0x2D5D JUMPI PUSH1 0x0 DUP5 ISZERO PUSH2 0x2D45 JUMPI POP DUP6 DUP4 ADD MLOAD JUMPDEST PUSH1 0x0 NOT PUSH1 0x3 DUP7 SWAP1 SHL SHR NOT AND PUSH1 0x1 DUP6 SWAP1 SHL OR DUP6 SSTORE PUSH2 0x2CF2 JUMP JUMPDEST PUSH1 0x0 DUP6 DUP2 MSTORE PUSH1 0x20 DUP2 KECCAK256 PUSH1 0x1F NOT DUP7 AND SWAP2 JUMPDEST DUP3 DUP2 LT ISZERO PUSH2 0x2D8C JUMPI DUP9 DUP7 ADD MLOAD DUP3 SSTORE SWAP5 DUP5 ADD SWAP5 PUSH1 0x1 SWAP1 SWAP2 ADD SWAP1 DUP5 ADD PUSH2 0x2D6D JUMP JUMPDEST POP DUP6 DUP3 LT ISZERO PUSH2 0x2DAA JUMPI DUP8 DUP6 ADD MLOAD PUSH1 0x0 NOT PUSH1 0x3 DUP9 SWAP1 SHL PUSH1 0xF8 AND SHR NOT AND DUP2 SSTORE JUMPDEST POP POP POP POP POP PUSH1 0x1 SWAP1 DUP2 SHL ADD SWAP1 SSTORE POP JUMP JUMPDEST DUP1 DUP3 MUL DUP2 ISZERO DUP3 DUP3 DIV DUP5 EQ OR PUSH2 0xB4E JUMPI PUSH2 0xB4E PUSH2 0x2C6A JUMP JUMPDEST PUSH1 0x0 DUP3 PUSH2 0x2DEE JUMPI PUSH4 0x4E487B71 PUSH1 0xE0 SHL PUSH1 0x0 MSTORE PUSH1 0x12 PUSH1 0x4 MSTORE PUSH1 0x24 PUSH1 0x0 REVERT JUMPDEST POP DIV SWAP1 JUMP JUMPDEST PUSH1 0x0 PUSH1 0x20 DUP3 DUP5 SUB SLT ISZERO PUSH2 0x2E05 JUMPI PUSH1 0x0 DUP1 REVERT JUMPDEST POP MLOAD SWAP2 SWAP1 POP JUMP JUMPDEST PUSH1 0x0 DUP1 PUSH1 0x40 DUP4 DUP6 SUB SLT ISZERO PUSH2 0x2E1F JUMPI PUSH1 0x0 DUP1 REVERT JUMPDEST DUP3 MLOAD PUSH2 0x2E2A DUP2 PUSH2 0x28B8 JUMP JUMPDEST PUSH1 0x20 SWAP4 SWAP1 SWAP4 ADD MLOAD SWAP3 SWAP5 SWAP3 SWAP4 POP POP POP JUMP JUMPDEST DUP2 DUP2 SUB DUP2 DUP2 GT ISZERO PUSH2 0xB4E JUMPI PUSH2 0xB4E PUSH2 0x2C6A JUMP INVALID MSIZE 0xAB 0xB1 LOG2 BYTE 0xC9 0xC0 0x2D SWAP13 0x21 PUSH19 0x85768A906AF17496E4CADA7962F129B92F0AC9 BASEFEE 0xCF LOG2 PUSH5 0x6970667358 0x22 SLT KECCAK256 0xC5 0xAB 0xE 0xC9 0xF8 SWAP15 0xAC 0xBC COINBASE 0xE1 EXTCODESIZE 0x2B SWAP5 0x26 SHR ISZERO 0x23 GASPRICE JUMPI PUSH17 0xF74DAD0AD4321FAAD45D934C64736F6C63 NUMBER STOP ADDMOD EQ STOP CALLER MSIZE 0xAB 0xB1 LOG2 BYTE 0xC9 0xC0 0x2D SWAP13 0x21 PUSH19 0x85768A906AF17496E4CADA7962F129B92F0AC9 BASEFEE 0xCF "},"methodIdentifiers":{"EXECUTION_DELAY()":"37f135d7","FEE_CHANGE_DELAY()":"be8a361f","LOCK_180_DAYS()":"82865218","LOCK_30_DAYS()":"7c6e5db7","LOCK_365_DAYS()":"51383f98","LOCK_90_DAYS()":"e37c3a55","MAX_TOTAL_FEE_BP()":"7c4ccbea","PROPOSAL_THRESHOLD()":"a6c26603","QUORUM_PERCENTAGE()":"ee8a7c15","TOTAL_SUPPLY()":"902d55a5","VOTING_PERIOD()":"b1610d7e","addToRewardPool(uint256)":"b95ffbce","allowance(address,address)":"dd62ed3e","approve(address,uint256)":"095ea7b3","balanceOf(address)":"70a08231","burn(uint256)":"42966c68","decimals()":"313ce567","emergencyPause()":"51858e27","emergencyUnpause()":"4a4e3bd5","execute(uint256)":"fe0d94c1","executor()":"c34c08e5","feeToBurnBP()":"120a8151","feeToFounderBP()":"118725ce","feeToTreasuryBP()":"55ef9b5e","founderWallet()":"a23d3c35","getVotingPower(address)":"bb4d4436","hasVoted(uint256,address)":"43859632","isFeeExempt(address)":"3f4218e0","lastFeeChange()":"69505688","lastTxBlock(address)":"ceb88a16","lastTxTime(address)":"17d63605","name()":"06fdde03","owner()":"8da5cb5b","ownerCreateProposalForTests(address,string,uint8,bytes)":"5c1b1bac","ownerMintForTests(address,uint256)":"a41b1083","paused()":"5c975abb","proposalCount()":"da35c664","proposals(uint256)":"013cf08b","propose(string,uint8,bytes)":"ad1cecb2","protectedTransfer(address,uint256,uint256)":"8893002f","renounceOwnership()":"715018a6","rewardPool()":"66666aa9","setExecutor(address)":"1c3c0ea8","setFeeDistribution(uint256,uint256,uint256)":"ba8e568f","setFeeExempt(address,bool)":"8ebfc796","setTotalFeeBP(uint256)":"1f1f5bb3","stakingAPY(uint256)":"875bb4e2","symbol()":"95d89b41","tokenStats()":"b0dfd2e6","totalFeeBP()":"f6141345","totalStaked()":"817b1cd2","totalSupply()":"18160ddd","transfer(address,uint256)":"a9059cbb","transferFrom(address,address,uint256)":"23b872dd","transferOwnership(address)":"f2fde38b","treasury()":"61d027b3","txLimits()":"f270fde4","usedNonces(bytes32)":"feb61724","userStakes(address,uint256)":"b5d5b5fa","userStats(address)":"8a65d874","vote(uint256,bool)":"c9d27afe","votingPower(uint256,address)":"d90125a5"}}}}}