{"contracts/MockDEX.sol":{"MockDEX":{"abi":[{"anonymous":false,"inputs":[{"indexed":true,"internalType":"address","name":"provider","type":"address"},{"indexed":false,"internalType":"address","name":"tokenA","type":"address"},{"indexed":false,"internalType":"address","name":"tokenB","type":"address"},{"indexed":false,"internalType":"uint256","name":"amountA","type":"uint256"},{"indexed":false,"internalType":"uint256","name":"amountB","type":"uint256"},{"indexed":false,"internalType":"address","name":"lp","type":"address"}],"name":"LiquidityAdded","type":"event"},{"anonymous":false,"inputs":[{"indexed":true,"internalType":"address","name":"provider","type":"address"},{"indexed":false,"internalType":"address","name":"tokenA","type":"address"},{"indexed":false,"internalType":"address","name":"tokenB","type":"address"},{"indexed":false,"internalType":"uint256","name":"amountA","type":"uint256"},{"indexed":false,"internalType":"uint256","name":"amountB","type":"uint256"},{"indexed":false,"internalType":"address","name":"lp","type":"address"}],"name":"LiquidityRemoved","type":"event"},{"anonymous":false,"inputs":[{"indexed":true,"internalType":"address","name":"user","type":"address"},{"indexed":false,"internalType":"address","name":"fromToken","type":"address"},{"indexed":false,"internalType":"address","name":"toToken","type":"address"},{"indexed":false,"internalType":"uint256","name":"amountIn","type":"uint256"},{"indexed":false,"internalType":"uint256","name":"amountOut","type":"uint256"}],"name":"Swapped","type":"event"},{"inputs":[{"internalType":"address","name":"tokenA","type":"address"},{"internalType":"address","name":"tokenB","type":"address"},{"internalType":"uint256","name":"amountA","type":"uint256"},{"internalType":"uint256","name":"amountB","type":"uint256"}],"name":"addLiquidity","outputs":[{"internalType":"address","name":"","type":"address"}],"stateMutability":"nonpayable","type":"function"},{"inputs":[{"internalType":"bytes32","name":"","type":"bytes32"},{"internalType":"address","name":"","type":"address"}],"name":"lpHolderBalance","outputs":[{"internalType":"uint256","name":"","type":"uint256"}],"stateMutability":"view","type":"function"},{"inputs":[{"internalType":"address","name":"","type":"address"}],"name":"lpToPair","outputs":[{"internalType":"bytes32","name":"","type":"bytes32"}],"stateMutability":"view","type":"function"},{"inputs":[{"internalType":"address","name":"lpAddr","type":"address"},{"internalType":"address","name":"from","type":"address"},{"internalType":"address","name":"to","type":"address"},{"internalType":"uint256","name":"amount","type":"uint256"}],"name":"onLPTransfer","outputs":[],"stateMutability":"nonpayable","type":"function"},{"inputs":[{"internalType":"bytes32","name":"","type":"bytes32"}],"name":"pairs","outputs":[{"internalType":"address","name":"token0","type":"address"},{"internalType":"address","name":"token1","type":"address"},{"internalType":"address","name":"lp","type":"address"},{"internalType":"uint256","name":"reserve0","type":"uint256"},{"internalType":"uint256","name":"reserve1","type":"uint256"}],"stateMutability":"view","type":"function"},{"inputs":[{"internalType":"address","name":"tokenA","type":"address"},{"internalType":"address","name":"tokenB","type":"address"},{"internalType":"uint256","name":"lpAmount","type":"uint256"}],"name":"removeLiquidity","outputs":[{"internalType":"uint256","name":"amountA","type":"uint256"},{"internalType":"uint256","name":"amountB","type":"uint256"}],"stateMutability":"nonpayable","type":"function"},{"inputs":[{"internalType":"address","name":"fromToken","type":"address"},{"internalType":"address","name":"toToken","type":"address"},{"internalType":"uint256","name":"amountIn","type":"uint256"}],"name":"swap","outputs":[{"internalType":"uint256","name":"","type":"uint256"}],"stateMutability":"nonpayable","type":"function"}],"evm":{"bytecode":{"linkReferences":{},"object":"608060405234801561001057600080fd5b50612354806100206000396000f3fe60806040523480156200001157600080fd5b5060043610620000875760003560e01c8063cf6c62ea1162000062578063cf6c62ea1462000163578063d752fab21462000193578063df791e5014620001c0578063ffacfb2e14620001d757600080fd5b80631acf5960146200008c578063673e048114620000a5578063734440771462000131575b600080fd5b620000a36200009d366004620014eb565b62000205565b005b620000f3620000b63660046200153d565b600060208190529081526040902080546001820154600283015460038401546004909401546001600160a01b039384169492841693909116919085565b604080516001600160a01b039687168152948616602086015292909416918301919091526060820152608081019190915260a0015b60405180910390f35b620001546200014236600462001557565b60016020526000908152604090205481565b60405190815260200162000128565b6200017a620001743660046200157c565b620003a7565b6040516001600160a01b03909116815260200162000128565b620001aa620001a4366004620015c3565b62000a2c565b6040805192835260208301919091520162000128565b62000154620001d1366004620015c3565b62001035565b62000154620001e836600462001604565b600260209081526000928352604080842090915290825290205481565b6001600160a01b038416600090815260016020526040902054806200025e5760405162461bcd60e51b815260206004820152600a6024820152690556e6b6e6f776e204c560b41b60448201526064015b60405180910390fd5b6001600160a01b03841615620002ff576040516370a0823160e01b81526001600160a01b0385811660048301528616906370a0823190602401602060405180830381865afa158015620002b5573d6000803e3d6000fd5b505050506040513d601f19601f82011682018060405250810190620002db919062001633565b60008281526002602090815260408083206001600160a01b03891684529091529020555b6001600160a01b03831615620003a0576040516370a0823160e01b81526001600160a01b0384811660048301528616906370a0823190602401602060405180830381865afa15801562000356573d6000803e3d6000fd5b505050506040513d601f19601f820116820180604052508101906200037c919062001633565b60008281526002602090815260408083206001600160a01b03881684529091529020555b5050505050565b60008083118015620003b95750600082115b620003f95760405162461bcd60e51b815260206004820152600f60248201526e496e76616c696420616d6f756e747360881b604482015260640162000255565b6040516323b872dd60e01b8152336004820152306024820152604481018490526001600160a01b038616906323b872dd906064016020604051808303816000875af11580156200044d573d6000803e3d6000fd5b505050506040513d601f19601f820116820180604052508101906200047391906200164d565b506040516323b872dd60e01b8152336004820152306024820152604481018390526001600160a01b038516906323b872dd906064016020604051808303816000875af1158015620004c8573d6000803e3d6000fd5b505050506040513d601f19601f82011682018060405250810190620004ee91906200164d565b506000620004fd86866200139b565b6000818152602081905260409020909150868686866001600160a01b038085169084161015620005335750889250899150869050875b60028501546001600160a01b03166200073b5760006040518060400160405280600781526020016604d6f636b204c560cc1b815250905060006040518060400160405280600381526020016204d4c560ec1b8152509050600082826040516200059c90620014c5565b620005a9929190620016b9565b604051809103906000f080158015620005c6573d6000803e3d6000fd5b506002890180546001600160a01b038084166001600160a01b03199283168117909355600092835260016020819052604084208e90558c548c8316908416178d558c018054918b169190921617905560038a0187905560048a018690559091506200063c62000636868862001701565b62001447565b60028a01546040516340c10f1960e01b8152336004820152602481018390529192506001600160a01b0316906340c10f1990604401600060405180830381600087803b1580156200068c57600080fd5b505af1158015620006a1573d6000803e3d6000fd5b5050505060028901546040516370a0823160e01b81523360048201526001600160a01b03909116906370a0823190602401602060405180830381865afa158015620006f0573d6000803e3d6000fd5b505050506040513d601f19601f8201168201806040525081019062000716919062001633565b60008b815260026020908152604080832033845290915290205550620009b092505050565b6002850154604080516318160ddd60e01b815290516000926001600160a01b0316916318160ddd9160048083019260209291908290030181865afa15801562000788573d6000803e3d6000fd5b505050506040513d601f19601f82011682018060405250810190620007ae919062001633565b8654909150839083906001600160a01b03888116911614620007d05750829050835b6003880154600090620007e4858562001701565b620007f091906200171b565b905060008960040154858462000807919062001701565b6200081391906200171b565b9050600081831062000826578162000828565b825b60028c01546040516340c10f1960e01b8152336004820152602481018390529192506001600160a01b0316906340c10f1990604401600060405180830381600087803b1580156200087857600080fd5b505af11580156200088d573d6000803e3d6000fd5b5050505060028b01546040516370a0823160e01b81523360048201526001600160a01b03909116906370a0823190602401602060405180830381865afa158015620008dc573d6000803e3d6000fd5b505050506040513d601f19601f8201168201806040525081019062000902919062001633565b60008d81526002602090815260408083203384529091529020558a546001600160a01b038b81169116036200097057848b60030160008282546200094791906200173e565b92505081905550838b60040160008282546200096491906200173e565b90915550620009a99050565b838b60030160008282546200098691906200173e565b92505081905550848b6004016000828254620009a391906200173e565b90915550505b5050505050505b6002850154604080516001600160a01b03808f168252808e1660208301529181018c9052606081018b90529116608082015233907f470ea512b8fe1cb1899c39ed542cab1ab8911dcb88e3047dcb3d51de91375d839060a00160405180910390a250505050600201546001600160a01b03169695505050505050565b6000806000831162000a755760405162461bcd60e51b8152602060048201526011602482015270125b9d985b1a59081b1c08185b5bdd5b9d607a1b604482015260640162000255565b600062000a8386866200139b565b60008181526020819052604090206002810154919250906001600160a01b031662000ae25760405162461bcd60e51b815260206004820152600e60248201526d14185a5c881b9bdd08199bdd5b9960921b604482015260640162000255565b6002810154604080516318160ddd60e01b815290516001600160a01b039092169160009183916318160ddd916004808201926020929091908290030181865afa15801562000b34573d6000803e3d6000fd5b505050506040513d601f19601f8201168201806040525081019062000b5a919062001633565b90506000811162000b9d5760405162461bcd60e51b815260206004820152600c60248201526b4e6f206c697175696469747960a01b604482015260640162000255565b6040516370a0823160e01b81523360048201526000906001600160a01b038416906370a0823190602401602060405180830381865afa15801562000be5573d6000803e3d6000fd5b505050506040513d601f19601f8201168201806040525081019062000c0b919062001633565b90508781101562000c5f5760405162461bcd60e51b815260206004820152601760248201527f496e73756666696369656e74204c502062616c616e6365000000000000000000604482015260640162000255565b60008285600301548a62000c74919062001701565b62000c8091906200171b565b905060008386600401548b62000c97919062001701565b62000ca391906200171b565b604051632770a7eb60e21b8152336004820152602481018c90529091506001600160a01b03861690639dc29fac90604401600060405180830381600087803b15801562000cef57600080fd5b505af115801562000d04573d6000803e3d6000fd5b50506040516370a0823160e01b81523360048201526001600160a01b03881692506370a082319150602401602060405180830381865afa15801562000d4d573d6000803e3d6000fd5b505050506040513d601f19601f8201168201806040525081019062000d73919062001633565b600088815260026020908152604080832033845290915281209190915560038701805484929062000da690849062001754565b925050819055508086600401600082825462000dc3919062001754565b909155505085546001600160a01b03908116908d160362000ed45760405163a9059cbb60e01b8152336004820152602481018390526001600160a01b038d169063a9059cbb906044016020604051808303816000875af115801562000e2c573d6000803e3d6000fd5b505050506040513d601f19601f8201168201806040525081019062000e5291906200164d565b5060405163a9059cbb60e01b8152336004820152602481018290526001600160a01b038c169063a9059cbb906044016020604051808303816000875af115801562000ea1573d6000803e3d6000fd5b505050506040513d601f19601f8201168201806040525081019062000ec791906200164d565b5081985080975062000fc5565b60405163a9059cbb60e01b8152336004820152602481018290526001600160a01b038d169063a9059cbb906044016020604051808303816000875af115801562000f22573d6000803e3d6000fd5b505050506040513d601f19601f8201168201806040525081019062000f4891906200164d565b5060405163a9059cbb60e01b8152336004820152602481018390526001600160a01b038c169063a9059cbb906044016020604051808303816000875af115801562000f97573d6000803e3d6000fd5b505050506040513d601f19601f8201168201806040525081019062000fbd91906200164d565b508098508197505b6002860154604080516001600160a01b038f811682528e811660208301529181018c9052606081018b90529116608082015233907f6ba0a6e2cb7ed74e0f2728cfdacc07f0cdd839a6b49ac4e341d81d0d52a0f6da9060a00160405180910390a250505050505050935093915050565b6000808211620010795760405162461bcd60e51b815260206004820152600e60248201526d125b9d985b1a5908185b5bdd5b9d60921b604482015260640162000255565b60006200108785856200139b565b60008181526020819052604090206002810154919250906001600160a01b0316620010e65760405162461bcd60e51b815260206004820152600e60248201526d14185a5c881b9bdd08199bdd5b9960921b604482015260640162000255565b80546001600160a01b03878116911614600080826200110f57836004015484600301546200111a565b836003015484600401545b6040516323b872dd60e01b8152336004820152306024820152604481018a905291935091506001600160a01b038a16906323b872dd906064016020604051808303816000875af115801562001173573d6000803e3d6000fd5b505050506040513d601f19601f820116820180604052508101906200119991906200164d565b506000620011aa886103e562001701565b90506000620011ba838362001701565b9050600082620011cd866103e862001701565b620011d991906200173e565b90506000620011e982846200171b565b9050600081118015620011fc5750808510155b620012435760405162461bcd60e51b8152602060048201526016602482015275496e73756666696369656e74206c697175696469747960501b604482015260640162000255565b60405163a9059cbb60e01b8152336004820152602481018290526001600160a01b038d169063a9059cbb906044016020604051808303816000875af115801562001291573d6000803e3d6000fd5b505050506040513d601f19601f82011682018060405250810190620012b791906200164d565b508615620012fe578a886003016000828254620012d591906200173e565b9250508190555080886004016000828254620012f2919062001754565b90915550620013379050565b8a8860040160008282546200131491906200173e565b925050819055508088600301600082825462001331919062001754565b90915550505b604080516001600160a01b038f811682528e1660208201529081018c90526060810182905233907f6782190c91d4a7e8ad2a867deed6ec0a970cab8ff137ae2bd4abd92b3810f4d39060800160405180910390a29c9b505050505050505050505050565b6000816001600160a01b0316836001600160a01b03161015620013ff576040516bffffffffffffffffffffffff19606085811b8216602084015284901b16603482015260480160405160208183030381529060405280519060200120905062001441565b6040516bffffffffffffffffffffffff19606084811b8216602084015285901b1660348201526048016040516020818303038152906040528051906020012090505b92915050565b60006003821115620014b55750806000620014646002836200171b565b620014719060016200173e565b90505b81811015620014af579050806002816200148f81866200171b565b6200149b91906200173e565b620014a791906200171b565b905062001474565b50919050565b8115620014c0575060015b919050565b610bb4806200176b83390190565b80356001600160a01b0381168114620014c057600080fd5b600080600080608085870312156200150257600080fd5b6200150d85620014d3565b93506200151d60208601620014d3565b92506200152d60408601620014d3565b9396929550929360600135925050565b6000602082840312156200155057600080fd5b5035919050565b6000602082840312156200156a57600080fd5b6200157582620014d3565b9392505050565b600080600080608085870312156200159357600080fd5b6200159e85620014d3565b9350620015ae60208601620014d3565b93969395505050506040820135916060013590565b600080600060608486031215620015d957600080fd5b620015e484620014d3565b9250620015f460208501620014d3565b9150604084013590509250925092565b600080604083850312156200161857600080fd5b823591506200162a60208401620014d3565b90509250929050565b6000602082840312156200164657600080fd5b5051919050565b6000602082840312156200166057600080fd5b815180151581146200157557600080fd5b6000815180845260005b8181101562001699576020818501810151868301820152016200167b565b506000602082860101526020601f19601f83011685010191505092915050565b604081526000620016ce604083018562001671565b8281036020840152620016e2818562001671565b95945050505050565b634e487b7160e01b600052601160045260246000fd5b8082028115828204841417620014415762001441620016eb565b6000826200173957634e487b7160e01b600052601260045260246000fd5b500490565b80820180821115620014415762001441620016eb565b81810381811115620014415762001441620016eb56fe60806040523480156200001157600080fd5b5060405162000bb438038062000bb4833981016040819052620000349162000136565b818160036200004483826200022f565b5060046200005382826200022f565b5050600580546001600160a01b0319163317905550620002fb915050565b634e487b7160e01b600052604160045260246000fd5b600082601f8301126200009957600080fd5b81516001600160401b0380821115620000b657620000b662000071565b604051601f8301601f19908116603f01168101908282118183101715620000e157620000e162000071565b81604052838152602092508683858801011115620000fe57600080fd5b600091505b8382101562000122578582018301518183018401529082019062000103565b600093810190920192909252949350505050565b600080604083850312156200014a57600080fd5b82516001600160401b03808211156200016257600080fd5b620001708683870162000087565b935060208501519150808211156200018757600080fd5b50620001968582860162000087565b9150509250929050565b600181811c90821680620001b557607f821691505b602082108103620001d657634e487b7160e01b600052602260045260246000fd5b50919050565b601f8211156200022a57600081815260208120601f850160051c81016020861015620002055750805b601f850160051c820191505b81811015620002265782815560010162000211565b5050505b505050565b81516001600160401b038111156200024b576200024b62000071565b62000263816200025c8454620001a0565b84620001dc565b602080601f8311600181146200029b5760008415620002825750858301515b600019600386901b1c1916600185901b17855562000226565b600085815260208120601f198616915b82811015620002cc57888601518255948401946001909101908401620002ab565b5085821015620002eb5787850151600019600388901b60f8161c191681555b5050505050600190811b01905550565b6108a9806200030b6000396000f3fe608060405234801561001057600080fd5b50600436106100b45760003560e01c806340c10f191161007157806340c10f191461015957806370a082311461016e57806395d89b41146101975780639dc29fac1461019f578063a9059cbb146101b2578063dd62ed3e146101c557600080fd5b806306fdde03146100b957806307546172146100d7578063095ea7b31461010257806318160ddd1461012557806323b872dd14610137578063313ce5671461014a575b600080fd5b6100c16101fe565b6040516100ce91906106f3565b60405180910390f35b6005546100ea906001600160a01b031681565b6040516001600160a01b0390911681526020016100ce565b61011561011036600461075d565b610290565b60405190151581526020016100ce565b6002545b6040519081526020016100ce565b610115610145366004610787565b6102aa565b604051601281526020016100ce565b61016c61016736600461075d565b6102ce565b005b61012961017c3660046107c3565b6001600160a01b031660009081526020819052604090205490565b6100c1610329565b61016c6101ad36600461075d565b610338565b6101156101c036600461075d565b61038a565b6101296101d33660046107e5565b6001600160a01b03918216600090815260016020908152604080832093909416825291909152205490565b60606003805461020d90610818565b80601f016020809104026020016040519081016040528092919081815260200182805461023990610818565b80156102865780601f1061025b57610100808354040283529160200191610286565b820191906000526020600020905b81548152906001019060200180831161026957829003601f168201915b5050505050905090565b60003361029e818585610398565b60019150505b92915050565b6000336102b88582856103aa565b6102c3858585610429565b506001949350505050565b6005546001600160a01b0316331461031b5760405162461bcd60e51b815260206004820152600b60248201526a27b7363c9036b4b73a32b960a91b60448201526064015b60405180910390fd5b6103258282610488565b5050565b60606004805461020d90610818565b6005546001600160a01b031633146103805760405162461bcd60e51b815260206004820152600b60248201526a27b7363c9036b4b73a32b960a91b6044820152606401610312565b61032582826104be565b60003361029e818585610429565b6103a583838360016104f4565b505050565b6001600160a01b03838116600090815260016020908152604080832093861683529290522054600019811015610423578181101561041457604051637dc7a0d960e11b81526001600160a01b03841660048201526024810182905260448101839052606401610312565b610423848484840360006104f4565b50505050565b6001600160a01b03831661045357604051634b637e8f60e11b815260006004820152602401610312565b6001600160a01b03821661047d5760405163ec442f0560e01b815260006004820152602401610312565b6103a58383836105c9565b6001600160a01b0382166104b25760405163ec442f0560e01b815260006004820152602401610312565b610325600083836105c9565b6001600160a01b0382166104e857604051634b637e8f60e11b815260006004820152602401610312565b610325826000836105c9565b6001600160a01b03841661051e5760405163e602df0560e01b815260006004820152602401610312565b6001600160a01b03831661054857604051634a1406b160e11b815260006004820152602401610312565b6001600160a01b038085166000908152600160209081526040808320938716835292905220829055801561042357826001600160a01b0316846001600160a01b03167f8c5be1e5ebec7d5bd14f71427d1e84f3dd0314c0f7b2291e5b200ac8c7c3b925846040516105bb91815260200190565b60405180910390a350505050565b6001600160a01b0383166105f45780600260008282546105e99190610852565b909155506106669050565b6001600160a01b038316600090815260208190526040902054818110156106475760405163391434e360e21b81526001600160a01b03851660048201526024810182905260448101839052606401610312565b6001600160a01b03841660009081526020819052604090209082900390555b6001600160a01b038216610682576002805482900390556106a1565b6001600160a01b03821660009081526020819052604090208054820190555b816001600160a01b0316836001600160a01b03167fddf252ad1be2c89b69c2b068fc378daa952ba7f163c4a11628f55a4df523b3ef836040516106e691815260200190565b60405180910390a3505050565b600060208083528351808285015260005b8181101561072057858101830151858201604001528201610704565b506000604082860101526040601f19601f8301168501019250505092915050565b80356001600160a01b038116811461075857600080fd5b919050565b6000806040838503121561077057600080fd5b61077983610741565b946020939093013593505050565b60008060006060848603121561079c57600080fd5b6107a584610741565b92506107b360208501610741565b9150604084013590509250925092565b6000602082840312156107d557600080fd5b6107de82610741565b9392505050565b600080604083850312156107f857600080fd5b61080183610741565b915061080f60208401610741565b90509250929050565b600181811c9082168061082c57607f821691505b60208210810361084c57634e487b7160e01b600052602260045260246000fd5b50919050565b808201808211156102a457634e487b7160e01b600052601160045260246000fdfea2646970667358221220aae067c1b85014b88d181c96df086fa634f767365fa0e36ebea5c07a0d3b958e64736f6c63430008140033a26469706673582212202b486bd680bedc84cf5358cda59a6bb2a6b5e9d113a050a0e028c04cf962957464736f6c63430008140033","opcodes":"PUSH1 0x80 PUSH1 0x40 MSTORE CALLVALUE DUP1 ISZERO PUSH2 0x10 JUMPI PUSH1 0x0 DUP1 REVERT JUMPDEST POP PUSH2 0x2354 DUP1 PUSH2 0x20 PUSH1 0x0 CODECOPY PUSH1 0x0 RETURN INVALID PUSH1 0x80 PUSH1 0x40 MSTORE CALLVALUE DUP1 ISZERO PUSH3 0x11 JUMPI PUSH1 0x0 DUP1 REVERT JUMPDEST POP PUSH1 0x4 CALLDATASIZE LT PUSH3 0x87 JUMPI PUSH1 0x0 CALLDATALOAD PUSH1 0xE0 SHR DUP1 PUSH4 0xCF6C62EA GT PUSH3 0x62 JUMPI DUP1 PUSH4 0xCF6C62EA EQ PUSH3 0x163 JUMPI DUP1 PUSH4 0xD752FAB2 EQ PUSH3 0x193 JUMPI DUP1 PUSH4 0xDF791E50 EQ PUSH3 0x1C0 JUMPI DUP1 PUSH4 0xFFACFB2E EQ PUSH3 0x1D7 JUMPI PUSH1 0x0 DUP1 REVERT JUMPDEST DUP1 PUSH4 0x1ACF5960 EQ PUSH3 0x8C JUMPI DUP1 PUSH4 0x673E0481 EQ PUSH3 0xA5 JUMPI DUP1 PUSH4 0x73444077 EQ PUSH3 0x131 JUMPI JUMPDEST PUSH1 0x0 DUP1 REVERT JUMPDEST PUSH3 0xA3 PUSH3 0x9D CALLDATASIZE PUSH1 0x4 PUSH3 0x14EB JUMP JUMPDEST PUSH3 0x205 JUMP JUMPDEST STOP JUMPDEST PUSH3 0xF3 PUSH3 0xB6 CALLDATASIZE PUSH1 0x4 PUSH3 0x153D JUMP JUMPDEST PUSH1 0x0 PUSH1 0x20 DUP2 SWAP1 MSTORE SWAP1 DUP2 MSTORE PUSH1 0x40 SWAP1 KECCAK256 DUP1 SLOAD PUSH1 0x1 DUP3 ADD SLOAD PUSH1 0x2 DUP4 ADD SLOAD PUSH1 0x3 DUP5 ADD SLOAD PUSH1 0x4 SWAP1 SWAP5 ADD SLOAD PUSH1 0x1 PUSH1 0x1 PUSH1 0xA0 SHL SUB SWAP4 DUP5 AND SWAP5 SWAP3 DUP5 AND SWAP4 SWAP1 SWAP2 AND SWAP2 SWAP1 DUP6 JUMP JUMPDEST PUSH1 0x40 DUP1 MLOAD PUSH1 0x1 PUSH1 0x1 PUSH1 0xA0 SHL SUB SWAP7 DUP8 AND DUP2 MSTORE SWAP5 DUP7 AND PUSH1 0x20 DUP7 ADD MSTORE SWAP3 SWAP1 SWAP5 AND SWAP2 DUP4 ADD SWAP2 SWAP1 SWAP2 MSTORE PUSH1 0x60 DUP3 ADD MSTORE PUSH1 0x80 DUP2 ADD SWAP2 SWAP1 SWAP2 MSTORE PUSH1 0xA0 ADD JUMPDEST PUSH1 0x40 MLOAD DUP1 SWAP2 SUB SWAP1 RETURN JUMPDEST PUSH3 0x154 PUSH3 0x142 CALLDATASIZE PUSH1 0x4 PUSH3 0x1557 JUMP JUMPDEST PUSH1 0x1 PUSH1 0x20 MSTORE PUSH1 0x0 SWAP1 DUP2 MSTORE PUSH1 0x40 SWAP1 KECCAK256 SLOAD DUP2 JUMP JUMPDEST PUSH1 0x40 MLOAD SWAP1 DUP2 MSTORE PUSH1 0x20 ADD PUSH3 0x128 JUMP JUMPDEST PUSH3 0x17A PUSH3 0x174 CALLDATASIZE PUSH1 0x4 PUSH3 0x157C JUMP JUMPDEST PUSH3 0x3A7 JUMP JUMPDEST PUSH1 0x40 MLOAD PUSH1 0x1 PUSH1 0x1 PUSH1 0xA0 SHL SUB SWAP1 SWAP2 AND DUP2 MSTORE PUSH1 0x20 ADD PUSH3 0x128 JUMP JUMPDEST PUSH3 0x1AA PUSH3 0x1A4 CALLDATASIZE PUSH1 0x4 PUSH3 0x15C3 JUMP JUMPDEST PUSH3 0xA2C JUMP JUMPDEST PUSH1 0x40 DUP1 MLOAD SWAP3 DUP4 MSTORE PUSH1 0x20 DUP4 ADD SWAP2 SWAP1 SWAP2 MSTORE ADD PUSH3 0x128 JUMP JUMPDEST PUSH3 0x154 PUSH3 0x1D1 CALLDATASIZE PUSH1 0x4 PUSH3 0x15C3 JUMP JUMPDEST PUSH3 0x1035 JUMP JUMPDEST PUSH3 0x154 PUSH3 0x1E8 CALLDATASIZE PUSH1 0x4 PUSH3 0x1604 JUMP JUMPDEST PUSH1 0x2 PUSH1 0x20 SWAP1 DUP2 MSTORE PUSH1 0x0 SWAP3 DUP4 MSTORE PUSH1 0x40 DUP1 DUP5 KECCAK256 SWAP1 SWAP2 MSTORE SWAP1 DUP3 MSTORE SWAP1 KECCAK256 SLOAD DUP2 JUMP JUMPDEST PUSH1 0x1 PUSH1 0x1 PUSH1 0xA0 SHL SUB DUP5 AND PUSH1 0x0 SWAP1 DUP2 MSTORE PUSH1 0x1 PUSH1 0x20 MSTORE PUSH1 0x40 SWAP1 KECCAK256 SLOAD DUP1 PUSH3 0x25E JUMPI PUSH1 0x40 MLOAD PUSH3 0x461BCD PUSH1 0xE5 SHL DUP2 MSTORE PUSH1 0x20 PUSH1 0x4 DUP3 ADD MSTORE PUSH1 0xA PUSH1 0x24 DUP3 ADD MSTORE PUSH10 0x556E6B6E6F776E204C5 PUSH1 0xB4 SHL PUSH1 0x44 DUP3 ADD MSTORE PUSH1 0x64 ADD JUMPDEST PUSH1 0x40 MLOAD DUP1 SWAP2 SUB SWAP1 REVERT JUMPDEST PUSH1 0x1 PUSH1 0x1 PUSH1 0xA0 SHL SUB DUP5 AND ISZERO PUSH3 0x2FF JUMPI PUSH1 0x40 MLOAD PUSH4 0x70A08231 PUSH1 0xE0 SHL DUP2 MSTORE PUSH1 0x1 PUSH1 0x1 PUSH1 0xA0 SHL SUB DUP6 DUP2 AND PUSH1 0x4 DUP4 ADD MSTORE DUP7 AND SWAP1 PUSH4 0x70A08231 SWAP1 PUSH1 0x24 ADD PUSH1 0x20 PUSH1 0x40 MLOAD DUP1 DUP4 SUB DUP2 DUP7 GAS STATICCALL ISZERO DUP1 ISZERO PUSH3 0x2B5 JUMPI RETURNDATASIZE PUSH1 0x0 DUP1 RETURNDATACOPY RETURNDATASIZE PUSH1 0x0 REVERT JUMPDEST POP POP POP POP PUSH1 0x40 MLOAD RETURNDATASIZE PUSH1 0x1F NOT PUSH1 0x1F DUP3 ADD AND DUP3 ADD DUP1 PUSH1 0x40 MSTORE POP DUP2 ADD SWAP1 PUSH3 0x2DB SWAP2 SWAP1 PUSH3 0x1633 JUMP JUMPDEST PUSH1 0x0 DUP3 DUP2 MSTORE PUSH1 0x2 PUSH1 0x20 SWAP1 DUP2 MSTORE PUSH1 0x40 DUP1 DUP4 KECCAK256 PUSH1 0x1 PUSH1 0x1 PUSH1 0xA0 SHL SUB DUP10 AND DUP5 MSTORE SWAP1 SWAP2 MSTORE SWAP1 KECCAK256 SSTORE JUMPDEST PUSH1 0x1 PUSH1 0x1 PUSH1 0xA0 SHL SUB DUP4 AND ISZERO PUSH3 0x3A0 JUMPI PUSH1 0x40 MLOAD PUSH4 0x70A08231 PUSH1 0xE0 SHL DUP2 MSTORE PUSH1 0x1 PUSH1 0x1 PUSH1 0xA0 SHL SUB DUP5 DUP2 AND PUSH1 0x4 DUP4 ADD MSTORE DUP7 AND SWAP1 PUSH4 0x70A08231 SWAP1 PUSH1 0x24 ADD PUSH1 0x20 PUSH1 0x40 MLOAD DUP1 DUP4 SUB DUP2 DUP7 GAS STATICCALL ISZERO DUP1 ISZERO PUSH3 0x356 JUMPI RETURNDATASIZE PUSH1 0x0 DUP1 RETURNDATACOPY RETURNDATASIZE PUSH1 0x0 REVERT JUMPDEST POP POP POP POP PUSH1 0x40 MLOAD RETURNDATASIZE PUSH1 0x1F NOT PUSH1 0x1F DUP3 ADD AND DUP3 ADD DUP1 PUSH1 0x40 MSTORE POP DUP2 ADD SWAP1 PUSH3 0x37C SWAP2 SWAP1 PUSH3 0x1633 JUMP JUMPDEST PUSH1 0x0 DUP3 DUP2 MSTORE PUSH1 0x2 PUSH1 0x20 SWAP1 DUP2 MSTORE PUSH1 0x40 DUP1 DUP4 KECCAK256 PUSH1 0x1 PUSH1 0x1 PUSH1 0xA0 SHL SUB DUP9 AND DUP5 MSTORE SWAP1 SWAP2 MSTORE SWAP1 KECCAK256 SSTORE JUMPDEST POP POP POP POP POP JUMP JUMPDEST PUSH1 0x0 DUP1 DUP4 GT DUP1 ISZERO PUSH3 0x3B9 JUMPI POP PUSH1 0x0 DUP3 GT JUMPDEST PUSH3 0x3F9 JUMPI PUSH1 0x40 MLOAD PUSH3 0x461BCD PUSH1 0xE5 SHL DUP2 MSTORE PUSH1 0x20 PUSH1 0x4 DUP3 ADD MSTORE PUSH1 0xF PUSH1 0x24 DUP3 ADD MSTORE PUSH15 0x496E76616C696420616D6F756E7473 PUSH1 0x88 SHL PUSH1 0x44 DUP3 ADD MSTORE PUSH1 0x64 ADD PUSH3 0x255 JUMP JUMPDEST PUSH1 0x40 MLOAD PUSH4 0x23B872DD PUSH1 0xE0 SHL DUP2 MSTORE CALLER PUSH1 0x4 DUP3 ADD MSTORE ADDRESS PUSH1 0x24 DUP3 ADD MSTORE PUSH1 0x44 DUP2 ADD DUP5 SWAP1 MSTORE PUSH1 0x1 PUSH1 0x1 PUSH1 0xA0 SHL SUB DUP7 AND SWAP1 PUSH4 0x23B872DD SWAP1 PUSH1 0x64 ADD PUSH1 0x20 PUSH1 0x40 MLOAD DUP1 DUP4 SUB DUP2 PUSH1 0x0 DUP8 GAS CALL ISZERO DUP1 ISZERO PUSH3 0x44D JUMPI RETURNDATASIZE PUSH1 0x0 DUP1 RETURNDATACOPY RETURNDATASIZE PUSH1 0x0 REVERT JUMPDEST POP POP POP POP PUSH1 0x40 MLOAD RETURNDATASIZE PUSH1 0x1F NOT PUSH1 0x1F DUP3 ADD AND DUP3 ADD DUP1 PUSH1 0x40 MSTORE POP DUP2 ADD SWAP1 PUSH3 0x473 SWAP2 SWAP1 PUSH3 0x164D JUMP JUMPDEST POP PUSH1 0x40 MLOAD PUSH4 0x23B872DD PUSH1 0xE0 SHL DUP2 MSTORE CALLER PUSH1 0x4 DUP3 ADD MSTORE ADDRESS PUSH1 0x24 DUP3 ADD MSTORE PUSH1 0x44 DUP2 ADD DUP4 SWAP1 MSTORE PUSH1 0x1 PUSH1 0x1 PUSH1 0xA0 SHL SUB DUP6 AND SWAP1 PUSH4 0x23B872DD SWAP1 PUSH1 0x64 ADD PUSH1 0x20 PUSH1 0x40 MLOAD DUP1 DUP4 SUB DUP2 PUSH1 0x0 DUP8 GAS CALL ISZERO DUP1 ISZERO PUSH3 0x4C8 JUMPI RETURNDATASIZE PUSH1 0x0 DUP1 RETURNDATACOPY RETURNDATASIZE PUSH1 0x0 REVERT JUMPDEST POP POP POP POP PUSH1 0x40 MLOAD RETURNDATASIZE PUSH1 0x1F NOT PUSH1 0x1F DUP3 ADD AND DUP3 ADD DUP1 PUSH1 0x40 MSTORE POP DUP2 ADD SWAP1 PUSH3 0x4EE SWAP2 SWAP1 PUSH3 0x164D JUMP JUMPDEST POP PUSH1 0x0 PUSH3 0x4FD DUP7 DUP7 PUSH3 0x139B JUMP JUMPDEST PUSH1 0x0 DUP2 DUP2 MSTORE PUSH1 0x20 DUP2 SWAP1 MSTORE PUSH1 0x40 SWAP1 KECCAK256 SWAP1 SWAP2 POP DUP7 DUP7 DUP7 DUP7 PUSH1 0x1 PUSH1 0x1 PUSH1 0xA0 SHL SUB DUP1 DUP6 AND SWAP1 DUP5 AND LT ISZERO PUSH3 0x533 JUMPI POP DUP9 SWAP3 POP DUP10 SWAP2 POP DUP7 SWAP1 POP DUP8 JUMPDEST PUSH1 0x2 DUP6 ADD SLOAD PUSH1 0x1 PUSH1 0x1 PUSH1 0xA0 SHL SUB AND PUSH3 0x73B JUMPI PUSH1 0x0 PUSH1 0x40 MLOAD DUP1 PUSH1 0x40 ADD PUSH1 0x40 MSTORE DUP1 PUSH1 0x7 DUP2 MSTORE PUSH1 0x20 ADD PUSH7 0x4D6F636B204C5 PUSH1 0xCC SHL DUP2 MSTORE POP SWAP1 POP PUSH1 0x0 PUSH1 0x40 MLOAD DUP1 PUSH1 0x40 ADD PUSH1 0x40 MSTORE DUP1 PUSH1 0x3 DUP2 MSTORE PUSH1 0x20 ADD PUSH3 0x4D4C5 PUSH1 0xEC SHL DUP2 MSTORE POP SWAP1 POP PUSH1 0x0 DUP3 DUP3 PUSH1 0x40 MLOAD PUSH3 0x59C SWAP1 PUSH3 0x14C5 JUMP JUMPDEST PUSH3 0x5A9 SWAP3 SWAP2 SWAP1 PUSH3 0x16B9 JUMP JUMPDEST PUSH1 0x40 MLOAD DUP1 SWAP2 SUB SWAP1 PUSH1 0x0 CREATE DUP1 ISZERO DUP1 ISZERO PUSH3 0x5C6 JUMPI RETURNDATASIZE PUSH1 0x0 DUP1 RETURNDATACOPY RETURNDATASIZE PUSH1 0x0 REVERT JUMPDEST POP PUSH1 0x2 DUP10 ADD DUP1 SLOAD PUSH1 0x1 PUSH1 0x1 PUSH1 0xA0 SHL SUB DUP1 DUP5 AND PUSH1 0x1 PUSH1 0x1 PUSH1 0xA0 SHL SUB NOT SWAP3 DUP4 AND DUP2 OR SWAP1 SWAP4 SSTORE PUSH1 0x0 SWAP3 DUP4 MSTORE PUSH1 0x1 PUSH1 0x20 DUP2 SWAP1 MSTORE PUSH1 0x40 DUP5 KECCAK256 DUP15 SWAP1 SSTORE DUP13 SLOAD DUP13 DUP4 AND SWAP1 DUP5 AND OR DUP14 SSTORE DUP13 ADD DUP1 SLOAD SWAP2 DUP12 AND SWAP2 SWAP1 SWAP3 AND OR SWAP1 SSTORE PUSH1 0x3 DUP11 ADD DUP8 SWAP1 SSTORE PUSH1 0x4 DUP11 ADD DUP7 SWAP1 SSTORE SWAP1 SWAP2 POP PUSH3 0x63C PUSH3 0x636 DUP7 DUP9 PUSH3 0x1701 JUMP JUMPDEST PUSH3 0x1447 JUMP JUMPDEST PUSH1 0x2 DUP11 ADD SLOAD PUSH1 0x40 MLOAD PUSH4 0x40C10F19 PUSH1 0xE0 SHL DUP2 MSTORE CALLER PUSH1 0x4 DUP3 ADD MSTORE PUSH1 0x24 DUP2 ADD DUP4 SWAP1 MSTORE SWAP2 SWAP3 POP PUSH1 0x1 PUSH1 0x1 PUSH1 0xA0 SHL SUB AND SWAP1 PUSH4 0x40C10F19 SWAP1 PUSH1 0x44 ADD PUSH1 0x0 PUSH1 0x40 MLOAD DUP1 DUP4 SUB DUP2 PUSH1 0x0 DUP8 DUP1 EXTCODESIZE ISZERO DUP1 ISZERO PUSH3 0x68C JUMPI PUSH1 0x0 DUP1 REVERT JUMPDEST POP GAS CALL ISZERO DUP1 ISZERO PUSH3 0x6A1 JUMPI RETURNDATASIZE PUSH1 0x0 DUP1 RETURNDATACOPY RETURNDATASIZE PUSH1 0x0 REVERT JUMPDEST POP POP POP POP PUSH1 0x2 DUP10 ADD SLOAD PUSH1 0x40 MLOAD PUSH4 0x70A08231 PUSH1 0xE0 SHL DUP2 MSTORE CALLER PUSH1 0x4 DUP3 ADD MSTORE PUSH1 0x1 PUSH1 0x1 PUSH1 0xA0 SHL SUB SWAP1 SWAP2 AND SWAP1 PUSH4 0x70A08231 SWAP1 PUSH1 0x24 ADD PUSH1 0x20 PUSH1 0x40 MLOAD DUP1 DUP4 SUB DUP2 DUP7 GAS STATICCALL ISZERO DUP1 ISZERO PUSH3 0x6F0 JUMPI RETURNDATASIZE PUSH1 0x0 DUP1 RETURNDATACOPY RETURNDATASIZE PUSH1 0x0 REVERT JUMPDEST POP POP POP POP PUSH1 0x40 MLOAD RETURNDATASIZE PUSH1 0x1F NOT PUSH1 0x1F DUP3 ADD AND DUP3 ADD DUP1 PUSH1 0x40 MSTORE POP DUP2 ADD SWAP1 PUSH3 0x716 SWAP2 SWAP1 PUSH3 0x1633 JUMP JUMPDEST PUSH1 0x0 DUP12 DUP2 MSTORE PUSH1 0x2 PUSH1 0x20 SWAP1 DUP2 MSTORE PUSH1 0x40 DUP1 DUP4 KECCAK256 CALLER DUP5 MSTORE SWAP1 SWAP2 MSTORE SWAP1 KECCAK256 SSTORE POP PUSH3 0x9B0 SWAP3 POP POP POP JUMP JUMPDEST PUSH1 0x2 DUP6 ADD SLOAD PUSH1 0x40 DUP1 MLOAD PUSH4 0x18160DDD PUSH1 0xE0 SHL DUP2 MSTORE SWAP1 MLOAD PUSH1 0x0 SWAP3 PUSH1 0x1 PUSH1 0x1 PUSH1 0xA0 SHL SUB AND SWAP2 PUSH4 0x18160DDD SWAP2 PUSH1 0x4 DUP1 DUP4 ADD SWAP3 PUSH1 0x20 SWAP3 SWAP2 SWAP1 DUP3 SWAP1 SUB ADD DUP2 DUP7 GAS STATICCALL ISZERO DUP1 ISZERO PUSH3 0x788 JUMPI RETURNDATASIZE PUSH1 0x0 DUP1 RETURNDATACOPY RETURNDATASIZE PUSH1 0x0 REVERT JUMPDEST POP POP POP POP PUSH1 0x40 MLOAD RETURNDATASIZE PUSH1 0x1F NOT PUSH1 0x1F DUP3 ADD AND DUP3 ADD DUP1 PUSH1 0x40 MSTORE POP DUP2 ADD SWAP1 PUSH3 0x7AE SWAP2 SWAP1 PUSH3 0x1633 JUMP JUMPDEST DUP7 SLOAD SWAP1 SWAP2 POP DUP4 SWAP1 DUP4 SWAP1 PUSH1 0x1 PUSH1 0x1 PUSH1 0xA0 SHL SUB DUP9 DUP2 AND SWAP2 AND EQ PUSH3 0x7D0 JUMPI POP DUP3 SWAP1 POP DUP4 JUMPDEST PUSH1 0x3 DUP9 ADD SLOAD PUSH1 0x0 SWAP1 PUSH3 0x7E4 DUP6 DUP6 PUSH3 0x1701 JUMP JUMPDEST PUSH3 0x7F0 SWAP2 SWAP1 PUSH3 0x171B JUMP JUMPDEST SWAP1 POP PUSH1 0x0 DUP10 PUSH1 0x4 ADD SLOAD DUP6 DUP5 PUSH3 0x807 SWAP2 SWAP1 PUSH3 0x1701 JUMP JUMPDEST PUSH3 0x813 SWAP2 SWAP1 PUSH3 0x171B JUMP JUMPDEST SWAP1 POP PUSH1 0x0 DUP2 DUP4 LT PUSH3 0x826 JUMPI DUP2 PUSH3 0x828 JUMP JUMPDEST DUP3 JUMPDEST PUSH1 0x2 DUP13 ADD SLOAD PUSH1 0x40 MLOAD PUSH4 0x40C10F19 PUSH1 0xE0 SHL DUP2 MSTORE CALLER PUSH1 0x4 DUP3 ADD MSTORE PUSH1 0x24 DUP2 ADD DUP4 SWAP1 MSTORE SWAP2 SWAP3 POP PUSH1 0x1 PUSH1 0x1 PUSH1 0xA0 SHL SUB AND SWAP1 PUSH4 0x40C10F19 SWAP1 PUSH1 0x44 ADD PUSH1 0x0 PUSH1 0x40 MLOAD DUP1 DUP4 SUB DUP2 PUSH1 0x0 DUP8 DUP1 EXTCODESIZE ISZERO DUP1 ISZERO PUSH3 0x878 JUMPI PUSH1 0x0 DUP1 REVERT JUMPDEST POP GAS CALL ISZERO DUP1 ISZERO PUSH3 0x88D JUMPI RETURNDATASIZE PUSH1 0x0 DUP1 RETURNDATACOPY RETURNDATASIZE PUSH1 0x0 REVERT JUMPDEST POP POP POP POP PUSH1 0x2 DUP12 ADD SLOAD PUSH1 0x40 MLOAD PUSH4 0x70A08231 PUSH1 0xE0 SHL DUP2 MSTORE CALLER PUSH1 0x4 DUP3 ADD MSTORE PUSH1 0x1 PUSH1 0x1 PUSH1 0xA0 SHL SUB SWAP1 SWAP2 AND SWAP1 PUSH4 0x70A08231 SWAP1 PUSH1 0x24 ADD PUSH1 0x20 PUSH1 0x40 MLOAD DUP1 DUP4 SUB DUP2 DUP7 GAS STATICCALL ISZERO DUP1 ISZERO PUSH3 0x8DC JUMPI RETURNDATASIZE PUSH1 0x0 DUP1 RETURNDATACOPY RETURNDATASIZE PUSH1 0x0 REVERT JUMPDEST POP POP POP POP PUSH1 0x40 MLOAD RETURNDATASIZE PUSH1 0x1F NOT PUSH1 0x1F DUP3 ADD AND DUP3 ADD DUP1 PUSH1 0x40 MSTORE POP DUP2 ADD SWAP1 PUSH3 0x902 SWAP2 SWAP1 PUSH3 0x1633 JUMP JUMPDEST PUSH1 0x0 DUP14 DUP2 MSTORE PUSH1 0x2 PUSH1 0x20 SWAP1 DUP2 MSTORE PUSH1 0x40 DUP1 DUP4 KECCAK256 CALLER DUP5 MSTORE SWAP1 SWAP2 MSTORE SWAP1 KECCAK256 SSTORE DUP11 SLOAD PUSH1 0x1 PUSH1 0x1 PUSH1 0xA0 SHL SUB DUP12 DUP2 AND SWAP2 AND SUB PUSH3 0x970 JUMPI DUP5 DUP12 PUSH1 0x3 ADD PUSH1 0x0 DUP3 DUP3 SLOAD PUSH3 0x947 SWAP2 SWAP1 PUSH3 0x173E JUMP JUMPDEST SWAP3 POP POP DUP2 SWAP1 SSTORE POP DUP4 DUP12 PUSH1 0x4 ADD PUSH1 0x0 DUP3 DUP3 SLOAD PUSH3 0x964 SWAP2 SWAP1 PUSH3 0x173E JUMP JUMPDEST SWAP1 SWAP2 SSTORE POP PUSH3 0x9A9 SWAP1 POP JUMP JUMPDEST DUP4 DUP12 PUSH1 0x3 ADD PUSH1 0x0 DUP3 DUP3 SLOAD PUSH3 0x986 SWAP2 SWAP1 PUSH3 0x173E JUMP JUMPDEST SWAP3 POP POP DUP2 SWAP1 SSTORE POP DUP5 DUP12 PUSH1 0x4 ADD PUSH1 0x0 DUP3 DUP3 SLOAD PUSH3 0x9A3 SWAP2 SWAP1 PUSH3 0x173E JUMP JUMPDEST SWAP1 SWAP2 SSTORE POP POP JUMPDEST POP POP POP POP POP POP JUMPDEST PUSH1 0x2 DUP6 ADD SLOAD PUSH1 0x40 DUP1 MLOAD PUSH1 0x1 PUSH1 0x1 PUSH1 0xA0 SHL SUB DUP1 DUP16 AND DUP3 MSTORE DUP1 DUP15 AND PUSH1 0x20 DUP4 ADD MSTORE SWAP2 DUP2 ADD DUP13 SWAP1 MSTORE PUSH1 0x60 DUP2 ADD DUP12 SWAP1 MSTORE SWAP2 AND PUSH1 0x80 DUP3 ADD MSTORE CALLER SWAP1 PUSH32 0x470EA512B8FE1CB1899C39ED542CAB1AB8911DCB88E3047DCB3D51DE91375D83 SWAP1 PUSH1 0xA0 ADD PUSH1 0x40 MLOAD DUP1 SWAP2 SUB SWAP1 LOG2 POP POP POP POP PUSH1 0x2 ADD SLOAD PUSH1 0x1 PUSH1 0x1 PUSH1 0xA0 SHL SUB AND SWAP7 SWAP6 POP POP POP POP POP POP JUMP JUMPDEST PUSH1 0x0 DUP1 PUSH1 0x0 DUP4 GT PUSH3 0xA75 JUMPI PUSH1 0x40 MLOAD PUSH3 0x461BCD PUSH1 0xE5 SHL DUP2 MSTORE PUSH1 0x20 PUSH1 0x4 DUP3 ADD MSTORE PUSH1 0x11 PUSH1 0x24 DUP3 ADD MSTORE PUSH17 0x125B9D985B1A59081B1C08185B5BDD5B9D PUSH1 0x7A SHL PUSH1 0x44 DUP3 ADD MSTORE PUSH1 0x64 ADD PUSH3 0x255 JUMP JUMPDEST PUSH1 0x0 PUSH3 0xA83 DUP7 DUP7 PUSH3 0x139B JUMP JUMPDEST PUSH1 0x0 DUP2 DUP2 MSTORE PUSH1 0x20 DUP2 SWAP1 MSTORE PUSH1 0x40 SWAP1 KECCAK256 PUSH1 0x2 DUP2 ADD SLOAD SWAP2 SWAP3 POP SWAP1 PUSH1 0x1 PUSH1 0x1 PUSH1 0xA0 SHL SUB AND PUSH3 0xAE2 JUMPI PUSH1 0x40 MLOAD PUSH3 0x461BCD PUSH1 0xE5 SHL DUP2 MSTORE PUSH1 0x20 PUSH1 0x4 DUP3 ADD MSTORE PUSH1 0xE PUSH1 0x24 DUP3 ADD MSTORE PUSH14 0x14185A5C881B9BDD08199BDD5B99 PUSH1 0x92 SHL PUSH1 0x44 DUP3 ADD MSTORE PUSH1 0x64 ADD PUSH3 0x255 JUMP JUMPDEST PUSH1 0x2 DUP2 ADD SLOAD PUSH1 0x40 DUP1 MLOAD PUSH4 0x18160DDD PUSH1 0xE0 SHL DUP2 MSTORE SWAP1 MLOAD PUSH1 0x1 PUSH1 0x1 PUSH1 0xA0 SHL SUB SWAP1 SWAP3 AND SWAP2 PUSH1 0x0 SWAP2 DUP4 SWAP2 PUSH4 0x18160DDD SWAP2 PUSH1 0x4 DUP1 DUP3 ADD SWAP3 PUSH1 0x20 SWAP3 SWAP1 SWAP2 SWAP1 DUP3 SWAP1 SUB ADD DUP2 DUP7 GAS STATICCALL ISZERO DUP1 ISZERO PUSH3 0xB34 JUMPI RETURNDATASIZE PUSH1 0x0 DUP1 RETURNDATACOPY RETURNDATASIZE PUSH1 0x0 REVERT JUMPDEST POP POP POP POP PUSH1 0x40 MLOAD RETURNDATASIZE PUSH1 0x1F NOT PUSH1 0x1F DUP3 ADD AND DUP3 ADD DUP1 PUSH1 0x40 MSTORE POP DUP2 ADD SWAP1 PUSH3 0xB5A SWAP2 SWAP1 PUSH3 0x1633 JUMP JUMPDEST SWAP1 POP PUSH1 0x0 DUP2 GT PUSH3 0xB9D JUMPI PUSH1 0x40 MLOAD PUSH3 0x461BCD PUSH1 0xE5 SHL DUP2 MSTORE PUSH1 0x20 PUSH1 0x4 DUP3 ADD MSTORE PUSH1 0xC PUSH1 0x24 DUP3 ADD MSTORE PUSH12 0x4E6F206C6971756964697479 PUSH1 0xA0 SHL PUSH1 0x44 DUP3 ADD MSTORE PUSH1 0x64 ADD PUSH3 0x255 JUMP JUMPDEST PUSH1 0x40 MLOAD PUSH4 0x70A08231 PUSH1 0xE0 SHL DUP2 MSTORE CALLER PUSH1 0x4 DUP3 ADD MSTORE PUSH1 0x0 SWAP1 PUSH1 0x1 PUSH1 0x1 PUSH1 0xA0 SHL SUB DUP5 AND SWAP1 PUSH4 0x70A08231 SWAP1 PUSH1 0x24 ADD PUSH1 0x20 PUSH1 0x40 MLOAD DUP1 DUP4 SUB DUP2 DUP7 GAS STATICCALL ISZERO DUP1 ISZERO PUSH3 0xBE5 JUMPI RETURNDATASIZE PUSH1 0x0 DUP1 RETURNDATACOPY RETURNDATASIZE PUSH1 0x0 REVERT JUMPDEST POP POP POP POP PUSH1 0x40 MLOAD RETURNDATASIZE PUSH1 0x1F NOT PUSH1 0x1F DUP3 ADD AND DUP3 ADD DUP1 PUSH1 0x40 MSTORE POP DUP2 ADD SWAP1 PUSH3 0xC0B SWAP2 SWAP1 PUSH3 0x1633 JUMP JUMPDEST SWAP1 POP DUP8 DUP2 LT ISZERO PUSH3 0xC5F JUMPI PUSH1 0x40 MLOAD PUSH3 0x461BCD PUSH1 0xE5 SHL DUP2 MSTORE PUSH1 0x20 PUSH1 0x4 DUP3 ADD MSTORE PUSH1 0x17 PUSH1 0x24 DUP3 ADD MSTORE PUSH32 0x496E73756666696369656E74204C502062616C616E6365000000000000000000 PUSH1 0x44 DUP3 ADD MSTORE PUSH1 0x64 ADD PUSH3 0x255 JUMP JUMPDEST PUSH1 0x0 DUP3 DUP6 PUSH1 0x3 ADD SLOAD DUP11 PUSH3 0xC74 SWAP2 SWAP1 PUSH3 0x1701 JUMP JUMPDEST PUSH3 0xC80 SWAP2 SWAP1 PUSH3 0x171B JUMP JUMPDEST SWAP1 POP PUSH1 0x0 DUP4 DUP7 PUSH1 0x4 ADD SLOAD DUP12 PUSH3 0xC97 SWAP2 SWAP1 PUSH3 0x1701 JUMP JUMPDEST PUSH3 0xCA3 SWAP2 SWAP1 PUSH3 0x171B JUMP JUMPDEST PUSH1 0x40 MLOAD PUSH4 0x2770A7EB PUSH1 0xE2 SHL DUP2 MSTORE CALLER PUSH1 0x4 DUP3 ADD MSTORE PUSH1 0x24 DUP2 ADD DUP13 SWAP1 MSTORE SWAP1 SWAP2 POP PUSH1 0x1 PUSH1 0x1 PUSH1 0xA0 SHL SUB DUP7 AND SWAP1 PUSH4 0x9DC29FAC SWAP1 PUSH1 0x44 ADD PUSH1 0x0 PUSH1 0x40 MLOAD DUP1 DUP4 SUB DUP2 PUSH1 0x0 DUP8 DUP1 EXTCODESIZE ISZERO DUP1 ISZERO PUSH3 0xCEF JUMPI PUSH1 0x0 DUP1 REVERT JUMPDEST POP GAS CALL ISZERO DUP1 ISZERO PUSH3 0xD04 JUMPI RETURNDATASIZE PUSH1 0x0 DUP1 RETURNDATACOPY RETURNDATASIZE PUSH1 0x0 REVERT JUMPDEST POP POP PUSH1 0x40 MLOAD PUSH4 0x70A08231 PUSH1 0xE0 SHL DUP2 MSTORE CALLER PUSH1 0x4 DUP3 ADD MSTORE PUSH1 0x1 PUSH1 0x1 PUSH1 0xA0 SHL SUB DUP9 AND SWAP3 POP PUSH4 0x70A08231 SWAP2 POP PUSH1 0x24 ADD PUSH1 0x20 PUSH1 0x40 MLOAD DUP1 DUP4 SUB DUP2 DUP7 GAS STATICCALL ISZERO DUP1 ISZERO PUSH3 0xD4D JUMPI RETURNDATASIZE PUSH1 0x0 DUP1 RETURNDATACOPY RETURNDATASIZE PUSH1 0x0 REVERT JUMPDEST POP POP POP POP PUSH1 0x40 MLOAD RETURNDATASIZE PUSH1 0x1F NOT PUSH1 0x1F DUP3 ADD AND DUP3 ADD DUP1 PUSH1 0x40 MSTORE POP DUP2 ADD SWAP1 PUSH3 0xD73 SWAP2 SWAP1 PUSH3 0x1633 JUMP JUMPDEST PUSH1 0x0 DUP9 DUP2 MSTORE PUSH1 0x2 PUSH1 0x20 SWAP1 DUP2 MSTORE PUSH1 0x40 DUP1 DUP4 KECCAK256 CALLER DUP5 MSTORE SWAP1 SWAP2 MSTORE DUP2 KECCAK256 SWAP2 SWAP1 SWAP2 SSTORE PUSH1 0x3 DUP8 ADD DUP1 SLOAD DUP5 SWAP3 SWAP1 PUSH3 0xDA6 SWAP1 DUP5 SWAP1 PUSH3 0x1754 JUMP JUMPDEST SWAP3 POP POP DUP2 SWAP1 SSTORE POP DUP1 DUP7 PUSH1 0x4 ADD PUSH1 0x0 DUP3 DUP3 SLOAD PUSH3 0xDC3 SWAP2 SWAP1 PUSH3 0x1754 JUMP JUMPDEST SWAP1 SWAP2 SSTORE POP POP DUP6 SLOAD PUSH1 0x1 PUSH1 0x1 PUSH1 0xA0 SHL SUB SWAP1 DUP2 AND SWAP1 DUP14 AND SUB PUSH3 0xED4 JUMPI PUSH1 0x40 MLOAD PUSH4 0xA9059CBB PUSH1 0xE0 SHL DUP2 MSTORE CALLER PUSH1 0x4 DUP3 ADD MSTORE PUSH1 0x24 DUP2 ADD DUP4 SWAP1 MSTORE PUSH1 0x1 PUSH1 0x1 PUSH1 0xA0 SHL SUB DUP14 AND SWAP1 PUSH4 0xA9059CBB SWAP1 PUSH1 0x44 ADD PUSH1 0x20 PUSH1 0x40 MLOAD DUP1 DUP4 SUB DUP2 PUSH1 0x0 DUP8 GAS CALL ISZERO DUP1 ISZERO PUSH3 0xE2C JUMPI RETURNDATASIZE PUSH1 0x0 DUP1 RETURNDATACOPY RETURNDATASIZE PUSH1 0x0 REVERT JUMPDEST POP POP POP POP PUSH1 0x40 MLOAD RETURNDATASIZE PUSH1 0x1F NOT PUSH1 0x1F DUP3 ADD AND DUP3 ADD DUP1 PUSH1 0x40 MSTORE POP DUP2 ADD SWAP1 PUSH3 0xE52 SWAP2 SWAP1 PUSH3 0x164D JUMP JUMPDEST POP PUSH1 0x40 MLOAD PUSH4 0xA9059CBB PUSH1 0xE0 SHL DUP2 MSTORE CALLER PUSH1 0x4 DUP3 ADD MSTORE PUSH1 0x24 DUP2 ADD DUP3 SWAP1 MSTORE PUSH1 0x1 PUSH1 0x1 PUSH1 0xA0 SHL SUB DUP13 AND SWAP1 PUSH4 0xA9059CBB SWAP1 PUSH1 0x44 ADD PUSH1 0x20 PUSH1 0x40 MLOAD DUP1 DUP4 SUB DUP2 PUSH1 0x0 DUP8 GAS CALL ISZERO DUP1 ISZERO PUSH3 0xEA1 JUMPI RETURNDATASIZE PUSH1 0x0 DUP1 RETURNDATACOPY RETURNDATASIZE PUSH1 0x0 REVERT JUMPDEST POP POP POP POP PUSH1 0x40 MLOAD RETURNDATASIZE PUSH1 0x1F NOT PUSH1 0x1F DUP3 ADD AND DUP3 ADD DUP1 PUSH1 0x40 MSTORE POP DUP2 ADD SWAP1 PUSH3 0xEC7 SWAP2 SWAP1 PUSH3 0x164D JUMP JUMPDEST POP DUP2 SWAP9 POP DUP1 SWAP8 POP PUSH3 0xFC5 JUMP JUMPDEST PUSH1 0x40 MLOAD PUSH4 0xA9059CBB PUSH1 0xE0 SHL DUP2 MSTORE CALLER PUSH1 0x4 DUP3 ADD MSTORE PUSH1 0x24 DUP2 ADD DUP3 SWAP1 MSTORE PUSH1 0x1 PUSH1 0x1 PUSH1 0xA0 SHL SUB DUP14 AND SWAP1 PUSH4 0xA9059CBB SWAP1 PUSH1 0x44 ADD PUSH1 0x20 PUSH1 0x40 MLOAD DUP1 DUP4 SUB DUP2 PUSH1 0x0 DUP8 GAS CALL ISZERO DUP1 ISZERO PUSH3 0xF22 JUMPI RETURNDATASIZE PUSH1 0x0 DUP1 RETURNDATACOPY RETURNDATASIZE PUSH1 0x0 REVERT JUMPDEST POP POP POP POP PUSH1 0x40 MLOAD RETURNDATASIZE PUSH1 0x1F NOT PUSH1 0x1F DUP3 ADD AND DUP3 ADD DUP1 PUSH1 0x40 MSTORE POP DUP2 ADD SWAP1 PUSH3 0xF48 SWAP2 SWAP1 PUSH3 0x164D JUMP JUMPDEST POP PUSH1 0x40 MLOAD PUSH4 0xA9059CBB PUSH1 0xE0 SHL DUP2 MSTORE CALLER PUSH1 0x4 DUP3 ADD MSTORE PUSH1 0x24 DUP2 ADD DUP4 SWAP1 MSTORE PUSH1 0x1 PUSH1 0x1 PUSH1 0xA0 SHL SUB DUP13 AND SWAP1 PUSH4 0xA9059CBB SWAP1 PUSH1 0x44 ADD PUSH1 0x20 PUSH1 0x40 MLOAD DUP1 DUP4 SUB DUP2 PUSH1 0x0 DUP8 GAS CALL ISZERO DUP1 ISZERO PUSH3 0xF97 JUMPI RETURNDATASIZE PUSH1 0x0 DUP1 RETURNDATACOPY RETURNDATASIZE PUSH1 0x0 REVERT JUMPDEST POP POP POP POP PUSH1 0x40 MLOAD RETURNDATASIZE PUSH1 0x1F NOT PUSH1 0x1F DUP3 ADD AND DUP3 ADD DUP1 PUSH1 0x40 MSTORE POP DUP2 ADD SWAP1 PUSH3 0xFBD SWAP2 SWAP1 PUSH3 0x164D JUMP JUMPDEST POP DUP1 SWAP9 POP DUP2 SWAP8 POP JUMPDEST PUSH1 0x2 DUP7 ADD SLOAD PUSH1 0x40 DUP1 MLOAD PUSH1 0x1 PUSH1 0x1 PUSH1 0xA0 SHL SUB DUP16 DUP2 AND DUP3 MSTORE DUP15 DUP2 AND PUSH1 0x20 DUP4 ADD MSTORE SWAP2 DUP2 ADD DUP13 SWAP1 MSTORE PUSH1 0x60 DUP2 ADD DUP12 SWAP1 MSTORE SWAP2 AND PUSH1 0x80 DUP3 ADD MSTORE CALLER SWAP1 PUSH32 0x6BA0A6E2CB7ED74E0F2728CFDACC07F0CDD839A6B49AC4E341D81D0D52A0F6DA SWAP1 PUSH1 0xA0 ADD PUSH1 0x40 MLOAD DUP1 SWAP2 SUB SWAP1 LOG2 POP POP POP POP POP POP POP SWAP4 POP SWAP4 SWAP2 POP POP JUMP JUMPDEST PUSH1 0x0 DUP1 DUP3 GT PUSH3 0x1079 JUMPI PUSH1 0x40 MLOAD PUSH3 0x461BCD PUSH1 0xE5 SHL DUP2 MSTORE PUSH1 0x20 PUSH1 0x4 DUP3 ADD MSTORE PUSH1 0xE PUSH1 0x24 DUP3 ADD MSTORE PUSH14 0x125B9D985B1A5908185B5BDD5B9D PUSH1 0x92 SHL PUSH1 0x44 DUP3 ADD MSTORE PUSH1 0x64 ADD PUSH3 0x255 JUMP JUMPDEST PUSH1 0x0 PUSH3 0x1087 DUP6 DUP6 PUSH3 0x139B JUMP JUMPDEST PUSH1 0x0 DUP2 DUP2 MSTORE PUSH1 0x20 DUP2 SWAP1 MSTORE PUSH1 0x40 SWAP1 KECCAK256 PUSH1 0x2 DUP2 ADD SLOAD SWAP2 SWAP3 POP SWAP1 PUSH1 0x1 PUSH1 0x1 PUSH1 0xA0 SHL SUB AND PUSH3 0x10E6 JUMPI PUSH1 0x40 MLOAD PUSH3 0x461BCD PUSH1 0xE5 SHL DUP2 MSTORE PUSH1 0x20 PUSH1 0x4 DUP3 ADD MSTORE PUSH1 0xE PUSH1 0x24 DUP3 ADD MSTORE PUSH14 0x14185A5C881B9BDD08199BDD5B99 PUSH1 0x92 SHL PUSH1 0x44 DUP3 ADD MSTORE PUSH1 0x64 ADD PUSH3 0x255 JUMP JUMPDEST DUP1 SLOAD PUSH1 0x1 PUSH1 0x1 PUSH1 0xA0 SHL SUB DUP8 DUP2 AND SWAP2 AND EQ PUSH1 0x0 DUP1 DUP3 PUSH3 0x110F JUMPI DUP4 PUSH1 0x4 ADD SLOAD DUP5 PUSH1 0x3 ADD SLOAD PUSH3 0x111A JUMP JUMPDEST DUP4 PUSH1 0x3 ADD SLOAD DUP5 PUSH1 0x4 ADD SLOAD JUMPDEST PUSH1 0x40 MLOAD PUSH4 0x23B872DD PUSH1 0xE0 SHL DUP2 MSTORE CALLER PUSH1 0x4 DUP3 ADD MSTORE ADDRESS PUSH1 0x24 DUP3 ADD MSTORE PUSH1 0x44 DUP2 ADD DUP11 SWAP1 MSTORE SWAP2 SWAP4 POP SWAP2 POP PUSH1 0x1 PUSH1 0x1 PUSH1 0xA0 SHL SUB DUP11 AND SWAP1 PUSH4 0x23B872DD SWAP1 PUSH1 0x64 ADD PUSH1 0x20 PUSH1 0x40 MLOAD DUP1 DUP4 SUB DUP2 PUSH1 0x0 DUP8 GAS CALL ISZERO DUP1 ISZERO PUSH3 0x1173 JUMPI RETURNDATASIZE PUSH1 0x0 DUP1 RETURNDATACOPY RETURNDATASIZE PUSH1 0x0 REVERT JUMPDEST POP POP POP POP PUSH1 0x40 MLOAD RETURNDATASIZE PUSH1 0x1F NOT PUSH1 0x1F DUP3 ADD AND DUP3 ADD DUP1 PUSH1 0x40 MSTORE POP DUP2 ADD SWAP1 PUSH3 0x1199 SWAP2 SWAP1 PUSH3 0x164D JUMP JUMPDEST POP PUSH1 0x0 PUSH3 0x11AA DUP9 PUSH2 0x3E5 PUSH3 0x1701 JUMP JUMPDEST SWAP1 POP PUSH1 0x0 PUSH3 0x11BA DUP4 DUP4 PUSH3 0x1701 JUMP JUMPDEST SWAP1 POP PUSH1 0x0 DUP3 PUSH3 0x11CD DUP7 PUSH2 0x3E8 PUSH3 0x1701 JUMP JUMPDEST PUSH3 0x11D9 SWAP2 SWAP1 PUSH3 0x173E JUMP JUMPDEST SWAP1 POP PUSH1 0x0 PUSH3 0x11E9 DUP3 DUP5 PUSH3 0x171B JUMP JUMPDEST SWAP1 POP PUSH1 0x0 DUP2 GT DUP1 ISZERO PUSH3 0x11FC JUMPI POP DUP1 DUP6 LT ISZERO JUMPDEST PUSH3 0x1243 JUMPI PUSH1 0x40 MLOAD PUSH3 0x461BCD PUSH1 0xE5 SHL DUP2 MSTORE PUSH1 0x20 PUSH1 0x4 DUP3 ADD MSTORE PUSH1 0x16 PUSH1 0x24 DUP3 ADD MSTORE PUSH22 0x496E73756666696369656E74206C6971756964697479 PUSH1 0x50 SHL PUSH1 0x44 DUP3 ADD MSTORE PUSH1 0x64 ADD PUSH3 0x255 JUMP JUMPDEST PUSH1 0x40 MLOAD PUSH4 0xA9059CBB PUSH1 0xE0 SHL DUP2 MSTORE CALLER PUSH1 0x4 DUP3 ADD MSTORE PUSH1 0x24 DUP2 ADD DUP3 SWAP1 MSTORE PUSH1 0x1 PUSH1 0x1 PUSH1 0xA0 SHL SUB DUP14 AND SWAP1 PUSH4 0xA9059CBB SWAP1 PUSH1 0x44 ADD PUSH1 0x20 PUSH1 0x40 MLOAD DUP1 DUP4 SUB DUP2 PUSH1 0x0 DUP8 GAS CALL ISZERO DUP1 ISZERO PUSH3 0x1291 JUMPI RETURNDATASIZE PUSH1 0x0 DUP1 RETURNDATACOPY RETURNDATASIZE PUSH1 0x0 REVERT JUMPDEST POP POP POP POP PUSH1 0x40 MLOAD RETURNDATASIZE PUSH1 0x1F NOT PUSH1 0x1F DUP3 ADD AND DUP3 ADD DUP1 PUSH1 0x40 MSTORE POP DUP2 ADD SWAP1 PUSH3 0x12B7 SWAP2 SWAP1 PUSH3 0x164D JUMP JUMPDEST POP DUP7 ISZERO PUSH3 0x12FE JUMPI DUP11 DUP9 PUSH1 0x3 ADD PUSH1 0x0 DUP3 DUP3 SLOAD PUSH3 0x12D5 SWAP2 SWAP1 PUSH3 0x173E JUMP JUMPDEST SWAP3 POP POP DUP2 SWAP1 SSTORE POP DUP1 DUP9 PUSH1 0x4 ADD PUSH1 0x0 DUP3 DUP3 SLOAD PUSH3 0x12F2 SWAP2 SWAP1 PUSH3 0x1754 JUMP JUMPDEST SWAP1 SWAP2 SSTORE POP PUSH3 0x1337 SWAP1 POP JUMP JUMPDEST DUP11 DUP9 PUSH1 0x4 ADD PUSH1 0x0 DUP3 DUP3 SLOAD PUSH3 0x1314 SWAP2 SWAP1 PUSH3 0x173E JUMP JUMPDEST SWAP3 POP POP DUP2 SWAP1 SSTORE POP DUP1 DUP9 PUSH1 0x3 ADD PUSH1 0x0 DUP3 DUP3 SLOAD PUSH3 0x1331 SWAP2 SWAP1 PUSH3 0x1754 JUMP JUMPDEST SWAP1 SWAP2 SSTORE POP POP JUMPDEST PUSH1 0x40 DUP1 MLOAD PUSH1 0x1 PUSH1 0x1 PUSH1 0xA0 SHL SUB DUP16 DUP2 AND DUP3 MSTORE DUP15 AND PUSH1 0x20 DUP3 ADD MSTORE SWAP1 DUP2 ADD DUP13 SWAP1 MSTORE PUSH1 0x60 DUP2 ADD DUP3 SWAP1 MSTORE CALLER SWAP1 PUSH32 0x6782190C91D4A7E8AD2A867DEED6EC0A970CAB8FF137AE2BD4ABD92B3810F4D3 SWAP1 PUSH1 0x80 ADD PUSH1 0x40 MLOAD DUP1 SWAP2 SUB SWAP1 LOG2 SWAP13 SWAP12 POP POP POP POP POP POP POP POP POP POP POP POP JUMP JUMPDEST PUSH1 0x0 DUP2 PUSH1 0x1 PUSH1 0x1 PUSH1 0xA0 SHL SUB AND DUP4 PUSH1 0x1 PUSH1 0x1 PUSH1 0xA0 SHL SUB AND LT ISZERO PUSH3 0x13FF JUMPI PUSH1 0x40 MLOAD PUSH12 0xFFFFFFFFFFFFFFFFFFFFFFFF NOT PUSH1 0x60 DUP6 DUP2 SHL DUP3 AND PUSH1 0x20 DUP5 ADD MSTORE DUP5 SWAP1 SHL AND PUSH1 0x34 DUP3 ADD MSTORE PUSH1 0x48 ADD PUSH1 0x40 MLOAD PUSH1 0x20 DUP2 DUP4 SUB SUB DUP2 MSTORE SWAP1 PUSH1 0x40 MSTORE DUP1 MLOAD SWAP1 PUSH1 0x20 ADD KECCAK256 SWAP1 POP PUSH3 0x1441 JUMP JUMPDEST PUSH1 0x40 MLOAD PUSH12 0xFFFFFFFFFFFFFFFFFFFFFFFF NOT PUSH1 0x60 DUP5 DUP2 SHL DUP3 AND PUSH1 0x20 DUP5 ADD MSTORE DUP6 SWAP1 SHL AND PUSH1 0x34 DUP3 ADD MSTORE PUSH1 0x48 ADD PUSH1 0x40 MLOAD PUSH1 0x20 DUP2 DUP4 SUB SUB DUP2 MSTORE SWAP1 PUSH1 0x40 MSTORE DUP1 MLOAD SWAP1 PUSH1 0x20 ADD KECCAK256 SWAP1 POP JUMPDEST SWAP3 SWAP2 POP POP JUMP JUMPDEST PUSH1 0x0 PUSH1 0x3 DUP3 GT ISZERO PUSH3 0x14B5 JUMPI POP DUP1 PUSH1 0x0 PUSH3 0x1464 PUSH1 0x2 DUP4 PUSH3 0x171B JUMP JUMPDEST PUSH3 0x1471 SWAP1 PUSH1 0x1 PUSH3 0x173E JUMP JUMPDEST SWAP1 POP JUMPDEST DUP2 DUP2 LT ISZERO PUSH3 0x14AF JUMPI SWAP1 POP DUP1 PUSH1 0x2 DUP2 PUSH3 0x148F DUP2 DUP7 PUSH3 0x171B JUMP JUMPDEST PUSH3 0x149B SWAP2 SWAP1 PUSH3 0x173E JUMP JUMPDEST PUSH3 0x14A7 SWAP2 SWAP1 PUSH3 0x171B JUMP JUMPDEST SWAP1 POP PUSH3 0x1474 JUMP JUMPDEST POP SWAP2 SWAP1 POP JUMP JUMPDEST DUP2 ISZERO PUSH3 0x14C0 JUMPI POP PUSH1 0x1 JUMPDEST SWAP2 SWAP1 POP JUMP JUMPDEST PUSH2 0xBB4 DUP1 PUSH3 0x176B DUP4 CODECOPY ADD SWAP1 JUMP JUMPDEST DUP1 CALLDATALOAD PUSH1 0x1 PUSH1 0x1 PUSH1 0xA0 SHL SUB DUP2 AND DUP2 EQ PUSH3 0x14C0 JUMPI PUSH1 0x0 DUP1 REVERT JUMPDEST PUSH1 0x0 DUP1 PUSH1 0x0 DUP1 PUSH1 0x80 DUP6 DUP8 SUB SLT ISZERO PUSH3 0x1502 JUMPI PUSH1 0x0 DUP1 REVERT JUMPDEST PUSH3 0x150D DUP6 PUSH3 0x14D3 JUMP JUMPDEST SWAP4 POP PUSH3 0x151D PUSH1 0x20 DUP7 ADD PUSH3 0x14D3 JUMP JUMPDEST SWAP3 POP PUSH3 0x152D PUSH1 0x40 DUP7 ADD PUSH3 0x14D3 JUMP JUMPDEST SWAP4 SWAP7 SWAP3 SWAP6 POP SWAP3 SWAP4 PUSH1 0x60 ADD CALLDATALOAD SWAP3 POP POP JUMP JUMPDEST PUSH1 0x0 PUSH1 0x20 DUP3 DUP5 SUB SLT ISZERO PUSH3 0x1550 JUMPI PUSH1 0x0 DUP1 REVERT JUMPDEST POP CALLDATALOAD SWAP2 SWAP1 POP JUMP JUMPDEST PUSH1 0x0 PUSH1 0x20 DUP3 DUP5 SUB SLT ISZERO PUSH3 0x156A JUMPI PUSH1 0x0 DUP1 REVERT JUMPDEST PUSH3 0x1575 DUP3 PUSH3 0x14D3 JUMP JUMPDEST SWAP4 SWAP3 POP POP POP JUMP JUMPDEST PUSH1 0x0 DUP1 PUSH1 0x0 DUP1 PUSH1 0x80 DUP6 DUP8 SUB SLT ISZERO PUSH3 0x1593 JUMPI PUSH1 0x0 DUP1 REVERT JUMPDEST PUSH3 0x159E DUP6 PUSH3 0x14D3 JUMP JUMPDEST SWAP4 POP PUSH3 0x15AE PUSH1 0x20 DUP7 ADD PUSH3 0x14D3 JUMP JUMPDEST SWAP4 SWAP7 SWAP4 SWAP6 POP POP POP POP PUSH1 0x40 DUP3 ADD CALLDATALOAD SWAP2 PUSH1 0x60 ADD CALLDATALOAD SWAP1 JUMP JUMPDEST PUSH1 0x0 DUP1 PUSH1 0x0 PUSH1 0x60 DUP5 DUP7 SUB SLT ISZERO PUSH3 0x15D9 JUMPI PUSH1 0x0 DUP1 REVERT JUMPDEST PUSH3 0x15E4 DUP5 PUSH3 0x14D3 JUMP JUMPDEST SWAP3 POP PUSH3 0x15F4 PUSH1 0x20 DUP6 ADD PUSH3 0x14D3 JUMP JUMPDEST SWAP2 POP PUSH1 0x40 DUP5 ADD CALLDATALOAD SWAP1 POP SWAP3 POP SWAP3 POP SWAP3 JUMP JUMPDEST PUSH1 0x0 DUP1 PUSH1 0x40 DUP4 DUP6 SUB SLT ISZERO PUSH3 0x1618 JUMPI PUSH1 0x0 DUP1 REVERT JUMPDEST DUP3 CALLDATALOAD SWAP2 POP PUSH3 0x162A PUSH1 0x20 DUP5 ADD PUSH3 0x14D3 JUMP JUMPDEST SWAP1 POP SWAP3 POP SWAP3 SWAP1 POP JUMP JUMPDEST PUSH1 0x0 PUSH1 0x20 DUP3 DUP5 SUB SLT ISZERO PUSH3 0x1646 JUMPI PUSH1 0x0 DUP1 REVERT JUMPDEST POP MLOAD SWAP2 SWAP1 POP JUMP JUMPDEST PUSH1 0x0 PUSH1 0x20 DUP3 DUP5 SUB SLT ISZERO PUSH3 0x1660 JUMPI PUSH1 0x0 DUP1 REVERT JUMPDEST DUP2 MLOAD DUP1 ISZERO ISZERO DUP2 EQ PUSH3 0x1575 JUMPI PUSH1 0x0 DUP1 REVERT JUMPDEST PUSH1 0x0 DUP2 MLOAD DUP1 DUP5 MSTORE PUSH1 0x0 JUMPDEST DUP2 DUP2 LT ISZERO PUSH3 0x1699 JUMPI PUSH1 0x20 DUP2 DUP6 ADD DUP2 ADD MLOAD DUP7 DUP4 ADD DUP3 ADD MSTORE ADD PUSH3 0x167B JUMP JUMPDEST POP PUSH1 0x0 PUSH1 0x20 DUP3 DUP7 ADD ADD MSTORE PUSH1 0x20 PUSH1 0x1F NOT PUSH1 0x1F DUP4 ADD AND DUP6 ADD ADD SWAP2 POP POP SWAP3 SWAP2 POP POP JUMP JUMPDEST PUSH1 0x40 DUP2 MSTORE PUSH1 0x0 PUSH3 0x16CE PUSH1 0x40 DUP4 ADD DUP6 PUSH3 0x1671 JUMP JUMPDEST DUP3 DUP2 SUB PUSH1 0x20 DUP5 ADD MSTORE PUSH3 0x16E2 DUP2 DUP6 PUSH3 0x1671 JUMP JUMPDEST SWAP6 SWAP5 POP POP POP POP POP JUMP JUMPDEST PUSH4 0x4E487B71 PUSH1 0xE0 SHL PUSH1 0x0 MSTORE PUSH1 0x11 PUSH1 0x4 MSTORE PUSH1 0x24 PUSH1 0x0 REVERT JUMPDEST DUP1 DUP3 MUL DUP2 ISZERO DUP3 DUP3 DIV DUP5 EQ OR PUSH3 0x1441 JUMPI PUSH3 0x1441 PUSH3 0x16EB JUMP JUMPDEST PUSH1 0x0 DUP3 PUSH3 0x1739 JUMPI PUSH4 0x4E487B71 PUSH1 0xE0 SHL PUSH1 0x0 MSTORE PUSH1 0x12 PUSH1 0x4 MSTORE PUSH1 0x24 PUSH1 0x0 REVERT JUMPDEST POP DIV SWAP1 JUMP JUMPDEST DUP1 DUP3 ADD DUP1 DUP3 GT ISZERO PUSH3 0x1441 JUMPI PUSH3 0x1441 PUSH3 0x16EB JUMP JUMPDEST DUP2 DUP2 SUB DUP2 DUP2 GT ISZERO PUSH3 0x1441 JUMPI PUSH3 0x1441 PUSH3 0x16EB JUMP INVALID PUSH1 0x80 PUSH1 0x40 MSTORE CALLVALUE DUP1 ISZERO PUSH3 0x11 JUMPI PUSH1 0x0 DUP1 REVERT JUMPDEST POP PUSH1 0x40 MLOAD PUSH3 0xBB4 CODESIZE SUB DUP1 PUSH3 0xBB4 DUP4 CODECOPY DUP2 ADD PUSH1 0x40 DUP2 SWAP1 MSTORE PUSH3 0x34 SWAP2 PUSH3 0x136 JUMP JUMPDEST DUP2 DUP2 PUSH1 0x3 PUSH3 0x44 DUP4 DUP3 PUSH3 0x22F JUMP JUMPDEST POP PUSH1 0x4 PUSH3 0x53 DUP3 DUP3 PUSH3 0x22F JUMP JUMPDEST POP POP PUSH1 0x5 DUP1 SLOAD PUSH1 0x1 PUSH1 0x1 PUSH1 0xA0 SHL SUB NOT AND CALLER OR SWAP1 SSTORE POP PUSH3 0x2FB SWAP2 POP POP JUMP JUMPDEST PUSH4 0x4E487B71 PUSH1 0xE0 SHL PUSH1 0x0 MSTORE PUSH1 0x41 PUSH1 0x4 MSTORE PUSH1 0x24 PUSH1 0x0 REVERT JUMPDEST PUSH1 0x0 DUP3 PUSH1 0x1F DUP4 ADD SLT PUSH3 0x99 JUMPI PUSH1 0x0 DUP1 REVERT JUMPDEST DUP2 MLOAD PUSH1 0x1 PUSH1 0x1 PUSH1 0x40 SHL SUB DUP1 DUP3 GT ISZERO PUSH3 0xB6 JUMPI PUSH3 0xB6 PUSH3 0x71 JUMP JUMPDEST PUSH1 0x40 MLOAD PUSH1 0x1F DUP4 ADD PUSH1 0x1F NOT SWAP1 DUP2 AND PUSH1 0x3F ADD AND DUP2 ADD SWAP1 DUP3 DUP3 GT DUP2 DUP4 LT OR ISZERO PUSH3 0xE1 JUMPI PUSH3 0xE1 PUSH3 0x71 JUMP JUMPDEST DUP2 PUSH1 0x40 MSTORE DUP4 DUP2 MSTORE PUSH1 0x20 SWAP3 POP DUP7 DUP4 DUP6 DUP9 ADD ADD GT ISZERO PUSH3 0xFE JUMPI PUSH1 0x0 DUP1 REVERT JUMPDEST PUSH1 0x0 SWAP2 POP JUMPDEST DUP4 DUP3 LT ISZERO PUSH3 0x122 JUMPI DUP6 DUP3 ADD DUP4 ADD MLOAD DUP2 DUP4 ADD DUP5 ADD MSTORE SWAP1 DUP3 ADD SWAP1 PUSH3 0x103 JUMP JUMPDEST PUSH1 0x0 SWAP4 DUP2 ADD SWAP1 SWAP3 ADD SWAP3 SWAP1 SWAP3 MSTORE SWAP5 SWAP4 POP POP POP POP JUMP JUMPDEST PUSH1 0x0 DUP1 PUSH1 0x40 DUP4 DUP6 SUB SLT ISZERO PUSH3 0x14A JUMPI PUSH1 0x0 DUP1 REVERT JUMPDEST DUP3 MLOAD PUSH1 0x1 PUSH1 0x1 PUSH1 0x40 SHL SUB DUP1 DUP3 GT ISZERO PUSH3 0x162 JUMPI PUSH1 0x0 DUP1 REVERT JUMPDEST PUSH3 0x170 DUP7 DUP4 DUP8 ADD PUSH3 0x87 JUMP JUMPDEST SWAP4 POP PUSH1 0x20 DUP6 ADD MLOAD SWAP2 POP DUP1 DUP3 GT ISZERO PUSH3 0x187 JUMPI PUSH1 0x0 DUP1 REVERT JUMPDEST POP PUSH3 0x196 DUP6 DUP3 DUP7 ADD PUSH3 0x87 JUMP JUMPDEST SWAP2 POP POP SWAP3 POP SWAP3 SWAP1 POP JUMP JUMPDEST PUSH1 0x1 DUP2 DUP2 SHR SWAP1 DUP3 AND DUP1 PUSH3 0x1B5 JUMPI PUSH1 0x7F DUP3 AND SWAP2 POP JUMPDEST PUSH1 0x20 DUP3 LT DUP2 SUB PUSH3 0x1D6 JUMPI PUSH4 0x4E487B71 PUSH1 0xE0 SHL PUSH1 0x0 MSTORE PUSH1 0x22 PUSH1 0x4 MSTORE PUSH1 0x24 PUSH1 0x0 REVERT JUMPDEST POP SWAP2 SWAP1 POP JUMP JUMPDEST PUSH1 0x1F DUP3 GT ISZERO PUSH3 0x22A JUMPI PUSH1 0x0 DUP2 DUP2 MSTORE PUSH1 0x20 DUP2 KECCAK256 PUSH1 0x1F DUP6 ADD PUSH1 0x5 SHR DUP2 ADD PUSH1 0x20 DUP7 LT ISZERO PUSH3 0x205 JUMPI POP DUP1 JUMPDEST PUSH1 0x1F DUP6 ADD PUSH1 0x5 SHR DUP3 ADD SWAP2 POP JUMPDEST DUP2 DUP2 LT ISZERO PUSH3 0x226 JUMPI DUP3 DUP2 SSTORE PUSH1 0x1 ADD PUSH3 0x211 JUMP JUMPDEST POP POP POP JUMPDEST POP POP POP JUMP JUMPDEST DUP2 MLOAD PUSH1 0x1 PUSH1 0x1 PUSH1 0x40 SHL SUB DUP2 GT ISZERO PUSH3 0x24B JUMPI PUSH3 0x24B PUSH3 0x71 JUMP JUMPDEST PUSH3 0x263 DUP2 PUSH3 0x25C DUP5 SLOAD PUSH3 0x1A0 JUMP JUMPDEST DUP5 PUSH3 0x1DC JUMP JUMPDEST PUSH1 0x20 DUP1 PUSH1 0x1F DUP4 GT PUSH1 0x1 DUP2 EQ PUSH3 0x29B JUMPI PUSH1 0x0 DUP5 ISZERO PUSH3 0x282 JUMPI POP DUP6 DUP4 ADD MLOAD JUMPDEST PUSH1 0x0 NOT PUSH1 0x3 DUP7 SWAP1 SHL SHR NOT AND PUSH1 0x1 DUP6 SWAP1 SHL OR DUP6 SSTORE PUSH3 0x226 JUMP JUMPDEST PUSH1 0x0 DUP6 DUP2 MSTORE PUSH1 0x20 DUP2 KECCAK256 PUSH1 0x1F NOT DUP7 AND SWAP2 JUMPDEST DUP3 DUP2 LT ISZERO PUSH3 0x2CC JUMPI DUP9 DUP7 ADD MLOAD DUP3 SSTORE SWAP5 DUP5 ADD SWAP5 PUSH1 0x1 SWAP1 SWAP2 ADD SWAP1 DUP5 ADD PUSH3 0x2AB JUMP JUMPDEST POP DUP6 DUP3 LT ISZERO PUSH3 0x2EB JUMPI DUP8 DUP6 ADD MLOAD PUSH1 0x0 NOT PUSH1 0x3 DUP9 SWAP1 SHL PUSH1 0xF8 AND SHR NOT AND DUP2 SSTORE JUMPDEST POP POP POP POP POP PUSH1 0x1 SWAP1 DUP2 SHL ADD SWAP1 SSTORE POP JUMP JUMPDEST PUSH2 0x8A9 DUP1 PUSH3 0x30B PUSH1 0x0 CODECOPY PUSH1 0x0 RETURN INVALID PUSH1 0x80 PUSH1 0x40 MSTORE CALLVALUE DUP1 ISZERO PUSH2 0x10 JUMPI PUSH1 0x0 DUP1 REVERT JUMPDEST POP PUSH1 0x4 CALLDATASIZE LT PUSH2 0xB4 JUMPI PUSH1 0x0 CALLDATALOAD PUSH1 0xE0 SHR DUP1 PUSH4 0x40C10F19 GT PUSH2 0x71 JUMPI DUP1 PUSH4 0x40C10F19 EQ PUSH2 0x159 JUMPI DUP1 PUSH4 0x70A08231 EQ PUSH2 0x16E JUMPI DUP1 PUSH4 0x95D89B41 EQ PUSH2 0x197 JUMPI DUP1 PUSH4 0x9DC29FAC EQ PUSH2 0x19F JUMPI DUP1 PUSH4 0xA9059CBB EQ PUSH2 0x1B2 JUMPI DUP1 PUSH4 0xDD62ED3E EQ PUSH2 0x1C5 JUMPI PUSH1 0x0 DUP1 REVERT JUMPDEST DUP1 PUSH4 0x6FDDE03 EQ PUSH2 0xB9 JUMPI DUP1 PUSH4 0x7546172 EQ PUSH2 0xD7 JUMPI DUP1 PUSH4 0x95EA7B3 EQ PUSH2 0x102 JUMPI DUP1 PUSH4 0x18160DDD EQ PUSH2 0x125 JUMPI DUP1 PUSH4 0x23B872DD EQ PUSH2 0x137 JUMPI DUP1 PUSH4 0x313CE567 EQ PUSH2 0x14A JUMPI JUMPDEST PUSH1 0x0 DUP1 REVERT JUMPDEST PUSH2 0xC1 PUSH2 0x1FE JUMP JUMPDEST PUSH1 0x40 MLOAD PUSH2 0xCE SWAP2 SWAP1 PUSH2 0x6F3 JUMP JUMPDEST PUSH1 0x40 MLOAD DUP1 SWAP2 SUB SWAP1 RETURN JUMPDEST PUSH1 0x5 SLOAD PUSH2 0xEA SWAP1 PUSH1 0x1 PUSH1 0x1 PUSH1 0xA0 SHL SUB AND DUP2 JUMP JUMPDEST PUSH1 0x40 MLOAD PUSH1 0x1 PUSH1 0x1 PUSH1 0xA0 SHL SUB SWAP1 SWAP2 AND DUP2 MSTORE PUSH1 0x20 ADD PUSH2 0xCE JUMP JUMPDEST PUSH2 0x115 PUSH2 0x110 CALLDATASIZE PUSH1 0x4 PUSH2 0x75D JUMP JUMPDEST PUSH2 0x290 JUMP JUMPDEST PUSH1 0x40 MLOAD SWAP1 ISZERO ISZERO DUP2 MSTORE PUSH1 0x20 ADD PUSH2 0xCE JUMP JUMPDEST PUSH1 0x2 SLOAD JUMPDEST PUSH1 0x40 MLOAD SWAP1 DUP2 MSTORE PUSH1 0x20 ADD PUSH2 0xCE JUMP JUMPDEST PUSH2 0x115 PUSH2 0x145 CALLDATASIZE PUSH1 0x4 PUSH2 0x787 JUMP JUMPDEST PUSH2 0x2AA JUMP JUMPDEST PUSH1 0x40 MLOAD PUSH1 0x12 DUP2 MSTORE PUSH1 0x20 ADD PUSH2 0xCE JUMP JUMPDEST PUSH2 0x16C PUSH2 0x167 CALLDATASIZE PUSH1 0x4 PUSH2 0x75D JUMP JUMPDEST PUSH2 0x2CE JUMP JUMPDEST STOP JUMPDEST PUSH2 0x129 PUSH2 0x17C CALLDATASIZE PUSH1 0x4 PUSH2 0x7C3 JUMP JUMPDEST PUSH1 0x1 PUSH1 0x1 PUSH1 0xA0 SHL SUB AND PUSH1 0x0 SWAP1 DUP2 MSTORE PUSH1 0x20 DUP2 SWAP1 MSTORE PUSH1 0x40 SWAP1 KECCAK256 SLOAD SWAP1 JUMP JUMPDEST PUSH2 0xC1 PUSH2 0x329 JUMP JUMPDEST PUSH2 0x16C PUSH2 0x1AD CALLDATASIZE PUSH1 0x4 PUSH2 0x75D JUMP JUMPDEST PUSH2 0x338 JUMP JUMPDEST PUSH2 0x115 PUSH2 0x1C0 CALLDATASIZE PUSH1 0x4 PUSH2 0x75D JUMP JUMPDEST PUSH2 0x38A JUMP JUMPDEST PUSH2 0x129 PUSH2 0x1D3 CALLDATASIZE PUSH1 0x4 PUSH2 0x7E5 JUMP JUMPDEST PUSH1 0x1 PUSH1 0x1 PUSH1 0xA0 SHL SUB SWAP2 DUP3 AND PUSH1 0x0 SWAP1 DUP2 MSTORE PUSH1 0x1 PUSH1 0x20 SWAP1 DUP2 MSTORE PUSH1 0x40 DUP1 DUP4 KECCAK256 SWAP4 SWAP1 SWAP5 AND DUP3 MSTORE SWAP2 SWAP1 SWAP2 MSTORE KECCAK256 SLOAD SWAP1 JUMP JUMPDEST PUSH1 0x60 PUSH1 0x3 DUP1 SLOAD PUSH2 0x20D SWAP1 PUSH2 0x818 JUMP JUMPDEST DUP1 PUSH1 0x1F ADD PUSH1 0x20 DUP1 SWAP2 DIV MUL PUSH1 0x20 ADD PUSH1 0x40 MLOAD SWAP1 DUP2 ADD PUSH1 0x40 MSTORE DUP1 SWAP3 SWAP2 SWAP1 DUP2 DUP2 MSTORE PUSH1 0x20 ADD DUP3 DUP1 SLOAD PUSH2 0x239 SWAP1 PUSH2 0x818 JUMP JUMPDEST DUP1 ISZERO PUSH2 0x286 JUMPI DUP1 PUSH1 0x1F LT PUSH2 0x25B JUMPI PUSH2 0x100 DUP1 DUP4 SLOAD DIV MUL DUP4 MSTORE SWAP2 PUSH1 0x20 ADD SWAP2 PUSH2 0x286 JUMP JUMPDEST DUP3 ADD SWAP2 SWAP1 PUSH1 0x0 MSTORE PUSH1 0x20 PUSH1 0x0 KECCAK256 SWAP1 JUMPDEST DUP2 SLOAD DUP2 MSTORE SWAP1 PUSH1 0x1 ADD SWAP1 PUSH1 0x20 ADD DUP1 DUP4 GT PUSH2 0x269 JUMPI DUP3 SWAP1 SUB PUSH1 0x1F AND DUP3 ADD SWAP2 JUMPDEST POP POP POP POP POP SWAP1 POP SWAP1 JUMP JUMPDEST PUSH1 0x0 CALLER PUSH2 0x29E DUP2 DUP6 DUP6 PUSH2 0x398 JUMP JUMPDEST PUSH1 0x1 SWAP2 POP POP JUMPDEST SWAP3 SWAP2 POP POP JUMP JUMPDEST PUSH1 0x0 CALLER PUSH2 0x2B8 DUP6 DUP3 DUP6 PUSH2 0x3AA JUMP JUMPDEST PUSH2 0x2C3 DUP6 DUP6 DUP6 PUSH2 0x429 JUMP JUMPDEST POP PUSH1 0x1 SWAP5 SWAP4 POP POP POP POP JUMP JUMPDEST PUSH1 0x5 SLOAD PUSH1 0x1 PUSH1 0x1 PUSH1 0xA0 SHL SUB AND CALLER EQ PUSH2 0x31B JUMPI PUSH1 0x40 MLOAD PUSH3 0x461BCD PUSH1 0xE5 SHL DUP2 MSTORE PUSH1 0x20 PUSH1 0x4 DUP3 ADD MSTORE PUSH1 0xB PUSH1 0x24 DUP3 ADD MSTORE PUSH11 0x27B7363C9036B4B73A32B9 PUSH1 0xA9 SHL PUSH1 0x44 DUP3 ADD MSTORE PUSH1 0x64 ADD JUMPDEST PUSH1 0x40 MLOAD DUP1 SWAP2 SUB SWAP1 REVERT JUMPDEST PUSH2 0x325 DUP3 DUP3 PUSH2 0x488 JUMP JUMPDEST POP POP JUMP JUMPDEST PUSH1 0x60 PUSH1 0x4 DUP1 SLOAD PUSH2 0x20D SWAP1 PUSH2 0x818 JUMP JUMPDEST PUSH1 0x5 SLOAD PUSH1 0x1 PUSH1 0x1 PUSH1 0xA0 SHL SUB AND CALLER EQ PUSH2 0x380 JUMPI PUSH1 0x40 MLOAD PUSH3 0x461BCD PUSH1 0xE5 SHL DUP2 MSTORE PUSH1 0x20 PUSH1 0x4 DUP3 ADD MSTORE PUSH1 0xB PUSH1 0x24 DUP3 ADD MSTORE PUSH11 0x27B7363C9036B4B73A32B9 PUSH1 0xA9 SHL PUSH1 0x44 DUP3 ADD MSTORE PUSH1 0x64 ADD PUSH2 0x312 JUMP JUMPDEST PUSH2 0x325 DUP3 DUP3 PUSH2 0x4BE JUMP JUMPDEST PUSH1 0x0 CALLER PUSH2 0x29E DUP2 DUP6 DUP6 PUSH2 0x429 JUMP JUMPDEST PUSH2 0x3A5 DUP4 DUP4 DUP4 PUSH1 0x1 PUSH2 0x4F4 JUMP JUMPDEST POP POP POP JUMP JUMPDEST PUSH1 0x1 PUSH1 0x1 PUSH1 0xA0 SHL SUB DUP4 DUP2 AND PUSH1 0x0 SWAP1 DUP2 MSTORE PUSH1 0x1 PUSH1 0x20 SWAP1 DUP2 MSTORE PUSH1 0x40 DUP1 DUP4 KECCAK256 SWAP4 DUP7 AND DUP4 MSTORE SWAP3 SWAP1 MSTORE KECCAK256 SLOAD PUSH1 0x0 NOT DUP2 LT ISZERO PUSH2 0x423 JUMPI DUP2 DUP2 LT ISZERO PUSH2 0x414 JUMPI PUSH1 0x40 MLOAD PUSH4 0x7DC7A0D9 PUSH1 0xE1 SHL DUP2 MSTORE PUSH1 0x1 PUSH1 0x1 PUSH1 0xA0 SHL SUB DUP5 AND PUSH1 0x4 DUP3 ADD MSTORE PUSH1 0x24 DUP2 ADD DUP3 SWAP1 MSTORE PUSH1 0x44 DUP2 ADD DUP4 SWAP1 MSTORE PUSH1 0x64 ADD PUSH2 0x312 JUMP JUMPDEST PUSH2 0x423 DUP5 DUP5 DUP5 DUP5 SUB PUSH1 0x0 PUSH2 0x4F4 JUMP JUMPDEST POP POP POP POP JUMP JUMPDEST PUSH1 0x1 PUSH1 0x1 PUSH1 0xA0 SHL SUB DUP4 AND PUSH2 0x453 JUMPI PUSH1 0x40 MLOAD PUSH4 0x4B637E8F PUSH1 0xE1 SHL DUP2 MSTORE PUSH1 0x0 PUSH1 0x4 DUP3 ADD MSTORE PUSH1 0x24 ADD PUSH2 0x312 JUMP JUMPDEST PUSH1 0x1 PUSH1 0x1 PUSH1 0xA0 SHL SUB DUP3 AND PUSH2 0x47D JUMPI PUSH1 0x40 MLOAD PUSH4 0xEC442F05 PUSH1 0xE0 SHL DUP2 MSTORE PUSH1 0x0 PUSH1 0x4 DUP3 ADD MSTORE PUSH1 0x24 ADD PUSH2 0x312 JUMP JUMPDEST PUSH2 0x3A5 DUP4 DUP4 DUP4 PUSH2 0x5C9 JUMP JUMPDEST PUSH1 0x1 PUSH1 0x1 PUSH1 0xA0 SHL SUB DUP3 AND PUSH2 0x4B2 JUMPI PUSH1 0x40 MLOAD PUSH4 0xEC442F05 PUSH1 0xE0 SHL DUP2 MSTORE PUSH1 0x0 PUSH1 0x4 DUP3 ADD MSTORE PUSH1 0x24 ADD PUSH2 0x312 JUMP JUMPDEST PUSH2 0x325 PUSH1 0x0 DUP4 DUP4 PUSH2 0x5C9 JUMP JUMPDEST PUSH1 0x1 PUSH1 0x1 PUSH1 0xA0 SHL SUB DUP3 AND PUSH2 0x4E8 JUMPI PUSH1 0x40 MLOAD PUSH4 0x4B637E8F PUSH1 0xE1 SHL DUP2 MSTORE PUSH1 0x0 PUSH1 0x4 DUP3 ADD MSTORE PUSH1 0x24 ADD PUSH2 0x312 JUMP JUMPDEST PUSH2 0x325 DUP3 PUSH1 0x0 DUP4 PUSH2 0x5C9 JUMP JUMPDEST PUSH1 0x1 PUSH1 0x1 PUSH1 0xA0 SHL SUB DUP5 AND PUSH2 0x51E JUMPI PUSH1 0x40 MLOAD PUSH4 0xE602DF05 PUSH1 0xE0 SHL DUP2 MSTORE PUSH1 0x0 PUSH1 0x4 DUP3 ADD MSTORE PUSH1 0x24 ADD PUSH2 0x312 JUMP JUMPDEST PUSH1 0x1 PUSH1 0x1 PUSH1 0xA0 SHL SUB DUP4 AND PUSH2 0x548 JUMPI PUSH1 0x40 MLOAD PUSH4 0x4A1406B1 PUSH1 0xE1 SHL DUP2 MSTORE PUSH1 0x0 PUSH1 0x4 DUP3 ADD MSTORE PUSH1 0x24 ADD PUSH2 0x312 JUMP JUMPDEST PUSH1 0x1 PUSH1 0x1 PUSH1 0xA0 SHL SUB DUP1 DUP6 AND PUSH1 0x0 SWAP1 DUP2 MSTORE PUSH1 0x1 PUSH1 0x20 SWAP1 DUP2 MSTORE PUSH1 0x40 DUP1 DUP4 KECCAK256 SWAP4 DUP8 AND DUP4 MSTORE SWAP3 SWAP1 MSTORE KECCAK256 DUP3 SWAP1 SSTORE DUP1 ISZERO PUSH2 0x423 JUMPI DUP3 PUSH1 0x1 PUSH1 0x1 PUSH1 0xA0 SHL SUB AND DUP5 PUSH1 0x1 PUSH1 0x1 PUSH1 0xA0 SHL SUB AND PUSH32 0x8C5BE1E5EBEC7D5BD14F71427D1E84F3DD0314C0F7B2291E5B200AC8C7C3B925 DUP5 PUSH1 0x40 MLOAD PUSH2 0x5BB SWAP2 DUP2 MSTORE PUSH1 0x20 ADD SWAP1 JUMP JUMPDEST PUSH1 0x40 MLOAD DUP1 SWAP2 SUB SWAP1 LOG3 POP POP POP POP JUMP JUMPDEST PUSH1 0x1 PUSH1 0x1 PUSH1 0xA0 SHL SUB DUP4 AND PUSH2 0x5F4 JUMPI DUP1 PUSH1 0x2 PUSH1 0x0 DUP3 DUP3 SLOAD PUSH2 0x5E9 SWAP2 SWAP1 PUSH2 0x852 JUMP JUMPDEST SWAP1 SWAP2 SSTORE POP PUSH2 0x666 SWAP1 POP JUMP JUMPDEST PUSH1 0x1 PUSH1 0x1 PUSH1 0xA0 SHL SUB DUP4 AND PUSH1 0x0 SWAP1 DUP2 MSTORE PUSH1 0x20 DUP2 SWAP1 MSTORE PUSH1 0x40 SWAP1 KECCAK256 SLOAD DUP2 DUP2 LT ISZERO PUSH2 0x647 JUMPI PUSH1 0x40 MLOAD PUSH4 0x391434E3 PUSH1 0xE2 SHL DUP2 MSTORE PUSH1 0x1 PUSH1 0x1 PUSH1 0xA0 SHL SUB DUP6 AND PUSH1 0x4 DUP3 ADD MSTORE PUSH1 0x24 DUP2 ADD DUP3 SWAP1 MSTORE PUSH1 0x44 DUP2 ADD DUP4 SWAP1 MSTORE PUSH1 0x64 ADD PUSH2 0x312 JUMP JUMPDEST PUSH1 0x1 PUSH1 0x1 PUSH1 0xA0 SHL SUB DUP5 AND PUSH1 0x0 SWAP1 DUP2 MSTORE PUSH1 0x20 DUP2 SWAP1 MSTORE PUSH1 0x40 SWAP1 KECCAK256 SWAP1 DUP3 SWAP1 SUB SWAP1 SSTORE JUMPDEST PUSH1 0x1 PUSH1 0x1 PUSH1 0xA0 SHL SUB DUP3 AND PUSH2 0x682 JUMPI PUSH1 0x2 DUP1 SLOAD DUP3 SWAP1 SUB SWAP1 SSTORE PUSH2 0x6A1 JUMP JUMPDEST PUSH1 0x1 PUSH1 0x1 PUSH1 0xA0 SHL SUB DUP3 AND PUSH1 0x0 SWAP1 DUP2 MSTORE PUSH1 0x20 DUP2 SWAP1 MSTORE PUSH1 0x40 SWAP1 KECCAK256 DUP1 SLOAD DUP3 ADD SWAP1 SSTORE JUMPDEST DUP2 PUSH1 0x1 PUSH1 0x1 PUSH1 0xA0 SHL SUB AND DUP4 PUSH1 0x1 PUSH1 0x1 PUSH1 0xA0 SHL SUB AND PUSH32 0xDDF252AD1BE2C89B69C2B068FC378DAA952BA7F163C4A11628F55A4DF523B3EF DUP4 PUSH1 0x40 MLOAD PUSH2 0x6E6 SWAP2 DUP2 MSTORE PUSH1 0x20 ADD SWAP1 JUMP JUMPDEST PUSH1 0x40 MLOAD DUP1 SWAP2 SUB SWAP1 LOG3 POP POP POP JUMP JUMPDEST PUSH1 0x0 PUSH1 0x20 DUP1 DUP4 MSTORE DUP4 MLOAD DUP1 DUP3 DUP6 ADD MSTORE PUSH1 0x0 JUMPDEST DUP2 DUP2 LT ISZERO PUSH2 0x720 JUMPI DUP6 DUP2 ADD DUP4 ADD MLOAD DUP6 DUP3 ADD PUSH1 0x40 ADD MSTORE DUP3 ADD PUSH2 0x704 JUMP JUMPDEST POP PUSH1 0x0 PUSH1 0x40 DUP3 DUP7 ADD ADD MSTORE PUSH1 0x40 PUSH1 0x1F NOT PUSH1 0x1F DUP4 ADD AND DUP6 ADD ADD SWAP3 POP POP POP SWAP3 SWAP2 POP POP JUMP JUMPDEST DUP1 CALLDATALOAD PUSH1 0x1 PUSH1 0x1 PUSH1 0xA0 SHL SUB DUP2 AND DUP2 EQ PUSH2 0x758 JUMPI PUSH1 0x0 DUP1 REVERT JUMPDEST SWAP2 SWAP1 POP JUMP JUMPDEST PUSH1 0x0 DUP1 PUSH1 0x40 DUP4 DUP6 SUB SLT ISZERO PUSH2 0x770 JUMPI PUSH1 0x0 DUP1 REVERT JUMPDEST PUSH2 0x779 DUP4 PUSH2 0x741 JUMP JUMPDEST SWAP5 PUSH1 0x20 SWAP4 SWAP1 SWAP4 ADD CALLDATALOAD SWAP4 POP POP POP JUMP JUMPDEST PUSH1 0x0 DUP1 PUSH1 0x0 PUSH1 0x60 DUP5 DUP7 SUB SLT ISZERO PUSH2 0x79C JUMPI PUSH1 0x0 DUP1 REVERT JUMPDEST PUSH2 0x7A5 DUP5 PUSH2 0x741 JUMP JUMPDEST SWAP3 POP PUSH2 0x7B3 PUSH1 0x20 DUP6 ADD PUSH2 0x741 JUMP JUMPDEST SWAP2 POP PUSH1 0x40 DUP5 ADD CALLDATALOAD SWAP1 POP SWAP3 POP SWAP3 POP SWAP3 JUMP JUMPDEST PUSH1 0x0 PUSH1 0x20 DUP3 DUP5 SUB SLT ISZERO PUSH2 0x7D5 JUMPI PUSH1 0x0 DUP1 REVERT JUMPDEST PUSH2 0x7DE DUP3 PUSH2 0x741 JUMP JUMPDEST SWAP4 SWAP3 POP POP POP JUMP JUMPDEST PUSH1 0x0 DUP1 PUSH1 0x40 DUP4 DUP6 SUB SLT ISZERO PUSH2 0x7F8 JUMPI PUSH1 0x0 DUP1 REVERT JUMPDEST PUSH2 0x801 DUP4 PUSH2 0x741 JUMP JUMPDEST SWAP2 POP PUSH2 0x80F PUSH1 0x20 DUP5 ADD PUSH2 0x741 JUMP JUMPDEST SWAP1 POP SWAP3 POP SWAP3 SWAP1 POP JUMP JUMPDEST PUSH1 0x1 DUP2 DUP2 SHR SWAP1 DUP3 AND DUP1 PUSH2 0x82C JUMPI PUSH1 0x7F DUP3 AND SWAP2 POP JUMPDEST PUSH1 0x20 DUP3 LT DUP2 SUB PUSH2 0x84C JUMPI PUSH4 0x4E487B71 PUSH1 0xE0 SHL PUSH1 0x0 MSTORE PUSH1 0x22 PUSH1 0x4 MSTORE PUSH1 0x24 PUSH1 0x0 REVERT JUMPDEST POP SWAP2 SWAP1 POP JUMP JUMPDEST DUP1 DUP3 ADD DUP1 DUP3 GT ISZERO PUSH2 0x2A4 JUMPI PUSH4 0x4E487B71 PUSH1 0xE0 SHL PUSH1 0x0 MSTORE PUSH1 0x11 PUSH1 0x4 MSTORE PUSH1 0x24 PUSH1 0x0 REVERT INVALID LOG2 PUSH5 0x6970667358 0x22 SLT KECCAK256 0xAA 0xE0 PUSH8 0xC1B85014B88D181C SWAP7 0xDF ADDMOD PUSH16 0xA634F767365FA0E36EBEA5C07A0D3B95 DUP15 PUSH5 0x736F6C6343 STOP ADDMOD EQ STOP CALLER LOG2 PUSH5 0x6970667358 0x22 SLT KECCAK256 0x2B BASEFEE PUSH12 0xD680BEDC84CF5358CDA59A6B 0xB2 0xA6 0xB5 0xE9 0xD1 SGT LOG0 POP LOG0 0xE0 0x28 0xC0 0x4C 0xF9 PUSH3 0x957464 PUSH20 0x6F6C634300081400330000000000000000000000 "},"methodIdentifiers":{"addLiquidity(address,address,uint256,uint256)":"cf6c62ea","lpHolderBalance(bytes32,address)":"ffacfb2e","lpToPair(address)":"73444077","onLPTransfer(address,address,address,uint256)":"1acf5960","pairs(bytes32)":"673e0481","removeLiquidity(address,address,uint256)":"d752fab2","swap(address,address,uint256)":"df791e50"}}}}}