{"contracts/MockDEX.sol":{"MockLP":{"abi":[{"inputs":[{"internalType":"string","name":"name","type":"string"},{"internalType":"string","name":"symbol","type":"string"}],"stateMutability":"nonpayable","type":"constructor"},{"inputs":[{"internalType":"address","name":"spender","type":"address"},{"internalType":"uint256","name":"allowance","type":"uint256"},{"internalType":"uint256","name":"needed","type":"uint256"}],"name":"ERC20InsufficientAllowance","type":"error"},{"inputs":[{"internalType":"address","name":"sender","type":"address"},{"internalType":"uint256","name":"balance","type":"uint256"},{"internalType":"uint256","name":"needed","type":"uint256"}],"name":"ERC20InsufficientBalance","type":"error"},{"inputs":[{"internalType":"address","name":"approver","type":"address"}],"name":"ERC20InvalidApprover","type":"error"},{"inputs":[{"internalType":"address","name":"receiver","type":"address"}],"name":"ERC20InvalidReceiver","type":"error"},{"inputs":[{"internalType":"address","name":"sender","type":"address"}],"name":"ERC20InvalidSender","type":"error"},{"inputs":[{"internalType":"address","name":"spender","type":"address"}],"name":"ERC20InvalidSpender","type":"error"},{"anonymous":false,"inputs":[{"indexed":true,"internalType":"address","name":"owner","type":"address"},{"indexed":true,"internalType":"address","name":"spender","type":"address"},{"indexed":false,"internalType":"uint256","name":"value","type":"uint256"}],"name":"Approval","type":"event"},{"anonymous":false,"inputs":[{"indexed":true,"internalType":"address","name":"from","type":"address"},{"indexed":true,"internalType":"address","name":"to","type":"address"},{"indexed":false,"internalType":"uint256","name":"value","type":"uint256"}],"name":"Transfer","type":"event"},{"inputs":[{"internalType":"address","name":"owner","type":"address"},{"internalType":"address","name":"spender","type":"address"}],"name":"allowance","outputs":[{"internalType":"uint256","name":"","type":"uint256"}],"stateMutability":"view","type":"function"},{"inputs":[{"internalType":"address","name":"spender","type":"address"},{"internalType":"uint256","name":"value","type":"uint256"}],"name":"approve","outputs":[{"internalType":"bool","name":"","type":"bool"}],"stateMutability":"nonpayable","type":"function"},{"inputs":[{"internalType":"address","name":"account","type":"address"}],"name":"balanceOf","outputs":[{"internalType":"uint256","name":"","type":"uint256"}],"stateMutability":"view","type":"function"},{"inputs":[{"internalType":"address","name":"from","type":"address"},{"internalType":"uint256","name":"amount","type":"uint256"}],"name":"burn","outputs":[],"stateMutability":"nonpayable","type":"function"},{"inputs":[],"name":"decimals","outputs":[{"internalType":"uint8","name":"","type":"uint8"}],"stateMutability":"view","type":"function"},{"inputs":[{"internalType":"address","name":"to","type":"address"},{"internalType":"uint256","name":"amount","type":"uint256"}],"name":"mint","outputs":[],"stateMutability":"nonpayable","type":"function"},{"inputs":[],"name":"minter","outputs":[{"internalType":"address","name":"","type":"address"}],"stateMutability":"view","type":"function"},{"inputs":[],"name":"name","outputs":[{"internalType":"string","name":"","type":"string"}],"stateMutability":"view","type":"function"},{"inputs":[],"name":"symbol","outputs":[{"internalType":"string","name":"","type":"string"}],"stateMutability":"view","type":"function"},{"inputs":[],"name":"totalSupply","outputs":[{"internalType":"uint256","name":"","type":"uint256"}],"stateMutability":"view","type":"function"},{"inputs":[{"internalType":"address","name":"to","type":"address"},{"internalType":"uint256","name":"value","type":"uint256"}],"name":"transfer","outputs":[{"internalType":"bool","name":"","type":"bool"}],"stateMutability":"nonpayable","type":"function"},{"inputs":[{"internalType":"address","name":"from","type":"address"},{"internalType":"address","name":"to","type":"address"},{"internalType":"uint256","name":"value","type":"uint256"}],"name":"transferFrom","outputs":[{"internalType":"bool","name":"","type":"bool"}],"stateMutability":"nonpayable","type":"function"}],"evm":{"bytecode":{"linkReferences":{},"object":"60806040523480156200001157600080fd5b5060405162000bb438038062000bb4833981016040819052620000349162000136565b818160036200004483826200022f565b5060046200005382826200022f565b5050600580546001600160a01b0319163317905550620002fb915050565b634e487b7160e01b600052604160045260246000fd5b600082601f8301126200009957600080fd5b81516001600160401b0380821115620000b657620000b662000071565b604051601f8301601f19908116603f01168101908282118183101715620000e157620000e162000071565b81604052838152602092508683858801011115620000fe57600080fd5b600091505b8382101562000122578582018301518183018401529082019062000103565b600093810190920192909252949350505050565b600080604083850312156200014a57600080fd5b82516001600160401b03808211156200016257600080fd5b620001708683870162000087565b935060208501519150808211156200018757600080fd5b50620001968582860162000087565b9150509250929050565b600181811c90821680620001b557607f821691505b602082108103620001d657634e487b7160e01b600052602260045260246000fd5b50919050565b601f8211156200022a57600081815260208120601f850160051c81016020861015620002055750805b601f850160051c820191505b81811015620002265782815560010162000211565b5050505b505050565b81516001600160401b038111156200024b576200024b62000071565b62000263816200025c8454620001a0565b84620001dc565b602080601f8311600181146200029b5760008415620002825750858301515b600019600386901b1c1916600185901b17855562000226565b600085815260208120601f198616915b82811015620002cc57888601518255948401946001909101908401620002ab565b5085821015620002eb5787850151600019600388901b60f8161c191681555b5050505050600190811b01905550565b6108a9806200030b6000396000f3fe608060405234801561001057600080fd5b50600436106100b45760003560e01c806340c10f191161007157806340c10f191461015957806370a082311461016e57806395d89b41146101975780639dc29fac1461019f578063a9059cbb146101b2578063dd62ed3e146101c557600080fd5b806306fdde03146100b957806307546172146100d7578063095ea7b31461010257806318160ddd1461012557806323b872dd14610137578063313ce5671461014a575b600080fd5b6100c16101fe565b6040516100ce91906106f3565b60405180910390f35b6005546100ea906001600160a01b031681565b6040516001600160a01b0390911681526020016100ce565b61011561011036600461075d565b610290565b60405190151581526020016100ce565b6002545b6040519081526020016100ce565b610115610145366004610787565b6102aa565b604051601281526020016100ce565b61016c61016736600461075d565b6102ce565b005b61012961017c3660046107c3565b6001600160a01b031660009081526020819052604090205490565b6100c1610329565b61016c6101ad36600461075d565b610338565b6101156101c036600461075d565b61038a565b6101296101d33660046107e5565b6001600160a01b03918216600090815260016020908152604080832093909416825291909152205490565b60606003805461020d90610818565b80601f016020809104026020016040519081016040528092919081815260200182805461023990610818565b80156102865780601f1061025b57610100808354040283529160200191610286565b820191906000526020600020905b81548152906001019060200180831161026957829003601f168201915b5050505050905090565b60003361029e818585610398565b60019150505b92915050565b6000336102b88582856103aa565b6102c3858585610429565b506001949350505050565b6005546001600160a01b0316331461031b5760405162461bcd60e51b815260206004820152600b60248201526a27b7363c9036b4b73a32b960a91b60448201526064015b60405180910390fd5b6103258282610488565b5050565b60606004805461020d90610818565b6005546001600160a01b031633146103805760405162461bcd60e51b815260206004820152600b60248201526a27b7363c9036b4b73a32b960a91b6044820152606401610312565b61032582826104be565b60003361029e818585610429565b6103a583838360016104f4565b505050565b6001600160a01b03838116600090815260016020908152604080832093861683529290522054600019811015610423578181101561041457604051637dc7a0d960e11b81526001600160a01b03841660048201526024810182905260448101839052606401610312565b610423848484840360006104f4565b50505050565b6001600160a01b03831661045357604051634b637e8f60e11b815260006004820152602401610312565b6001600160a01b03821661047d5760405163ec442f0560e01b815260006004820152602401610312565b6103a58383836105c9565b6001600160a01b0382166104b25760405163ec442f0560e01b815260006004820152602401610312565b610325600083836105c9565b6001600160a01b0382166104e857604051634b637e8f60e11b815260006004820152602401610312565b610325826000836105c9565b6001600160a01b03841661051e5760405163e602df0560e01b815260006004820152602401610312565b6001600160a01b03831661054857604051634a1406b160e11b815260006004820152602401610312565b6001600160a01b038085166000908152600160209081526040808320938716835292905220829055801561042357826001600160a01b0316846001600160a01b03167f8c5be1e5ebec7d5bd14f71427d1e84f3dd0314c0f7b2291e5b200ac8c7c3b925846040516105bb91815260200190565b60405180910390a350505050565b6001600160a01b0383166105f45780600260008282546105e99190610852565b909155506106669050565b6001600160a01b038316600090815260208190526040902054818110156106475760405163391434e360e21b81526001600160a01b03851660048201526024810182905260448101839052606401610312565b6001600160a01b03841660009081526020819052604090209082900390555b6001600160a01b038216610682576002805482900390556106a1565b6001600160a01b03821660009081526020819052604090208054820190555b816001600160a01b0316836001600160a01b03167fddf252ad1be2c89b69c2b068fc378daa952ba7f163c4a11628f55a4df523b3ef836040516106e691815260200190565b60405180910390a3505050565b600060208083528351808285015260005b8181101561072057858101830151858201604001528201610704565b506000604082860101526040601f19601f8301168501019250505092915050565b80356001600160a01b038116811461075857600080fd5b919050565b6000806040838503121561077057600080fd5b61077983610741565b946020939093013593505050565b60008060006060848603121561079c57600080fd5b6107a584610741565b92506107b360208501610741565b9150604084013590509250925092565b6000602082840312156107d557600080fd5b6107de82610741565b9392505050565b600080604083850312156107f857600080fd5b61080183610741565b915061080f60208401610741565b90509250929050565b600181811c9082168061082c57607f821691505b60208210810361084c57634e487b7160e01b600052602260045260246000fd5b50919050565b808201808211156102a457634e487b7160e01b600052601160045260246000fdfea2646970667358221220aae067c1b85014b88d181c96df086fa634f767365fa0e36ebea5c07a0d3b958e64736f6c63430008140033","opcodes":"PUSH1 0x80 PUSH1 0x40 MSTORE CALLVALUE DUP1 ISZERO PUSH3 0x11 JUMPI PUSH1 0x0 DUP1 REVERT JUMPDEST POP PUSH1 0x40 MLOAD PUSH3 0xBB4 CODESIZE SUB DUP1 PUSH3 0xBB4 DUP4 CODECOPY DUP2 ADD PUSH1 0x40 DUP2 SWAP1 MSTORE PUSH3 0x34 SWAP2 PUSH3 0x136 JUMP JUMPDEST DUP2 DUP2 PUSH1 0x3 PUSH3 0x44 DUP4 DUP3 PUSH3 0x22F JUMP JUMPDEST POP PUSH1 0x4 PUSH3 0x53 DUP3 DUP3 PUSH3 0x22F JUMP JUMPDEST POP POP PUSH1 0x5 DUP1 SLOAD PUSH1 0x1 PUSH1 0x1 PUSH1 0xA0 SHL SUB NOT AND CALLER OR SWAP1 SSTORE POP PUSH3 0x2FB SWAP2 POP POP JUMP JUMPDEST PUSH4 0x4E487B71 PUSH1 0xE0 SHL PUSH1 0x0 MSTORE PUSH1 0x41 PUSH1 0x4 MSTORE PUSH1 0x24 PUSH1 0x0 REVERT JUMPDEST PUSH1 0x0 DUP3 PUSH1 0x1F DUP4 ADD SLT PUSH3 0x99 JUMPI PUSH1 0x0 DUP1 REVERT JUMPDEST DUP2 MLOAD PUSH1 0x1 PUSH1 0x1 PUSH1 0x40 SHL SUB DUP1 DUP3 GT ISZERO PUSH3 0xB6 JUMPI PUSH3 0xB6 PUSH3 0x71 JUMP JUMPDEST PUSH1 0x40 MLOAD PUSH1 0x1F DUP4 ADD PUSH1 0x1F NOT SWAP1 DUP2 AND PUSH1 0x3F ADD AND DUP2 ADD SWAP1 DUP3 DUP3 GT DUP2 DUP4 LT OR ISZERO PUSH3 0xE1 JUMPI PUSH3 0xE1 PUSH3 0x71 JUMP JUMPDEST DUP2 PUSH1 0x40 MSTORE DUP4 DUP2 MSTORE PUSH1 0x20 SWAP3 POP DUP7 DUP4 DUP6 DUP9 ADD ADD GT ISZERO PUSH3 0xFE JUMPI PUSH1 0x0 DUP1 REVERT JUMPDEST PUSH1 0x0 SWAP2 POP JUMPDEST DUP4 DUP3 LT ISZERO PUSH3 0x122 JUMPI DUP6 DUP3 ADD DUP4 ADD MLOAD DUP2 DUP4 ADD DUP5 ADD MSTORE SWAP1 DUP3 ADD SWAP1 PUSH3 0x103 JUMP JUMPDEST PUSH1 0x0 SWAP4 DUP2 ADD SWAP1 SWAP3 ADD SWAP3 SWAP1 SWAP3 MSTORE SWAP5 SWAP4 POP POP POP POP JUMP JUMPDEST PUSH1 0x0 DUP1 PUSH1 0x40 DUP4 DUP6 SUB SLT ISZERO PUSH3 0x14A JUMPI PUSH1 0x0 DUP1 REVERT JUMPDEST DUP3 MLOAD PUSH1 0x1 PUSH1 0x1 PUSH1 0x40 SHL SUB DUP1 DUP3 GT ISZERO PUSH3 0x162 JUMPI PUSH1 0x0 DUP1 REVERT JUMPDEST PUSH3 0x170 DUP7 DUP4 DUP8 ADD PUSH3 0x87 JUMP JUMPDEST SWAP4 POP PUSH1 0x20 DUP6 ADD MLOAD SWAP2 POP DUP1 DUP3 GT ISZERO PUSH3 0x187 JUMPI PUSH1 0x0 DUP1 REVERT JUMPDEST POP PUSH3 0x196 DUP6 DUP3 DUP7 ADD PUSH3 0x87 JUMP JUMPDEST SWAP2 POP POP SWAP3 POP SWAP3 SWAP1 POP JUMP JUMPDEST PUSH1 0x1 DUP2 DUP2 SHR SWAP1 DUP3 AND DUP1 PUSH3 0x1B5 JUMPI PUSH1 0x7F DUP3 AND SWAP2 POP JUMPDEST PUSH1 0x20 DUP3 LT DUP2 SUB PUSH3 0x1D6 JUMPI PUSH4 0x4E487B71 PUSH1 0xE0 SHL PUSH1 0x0 MSTORE PUSH1 0x22 PUSH1 0x4 MSTORE PUSH1 0x24 PUSH1 0x0 REVERT JUMPDEST POP SWAP2 SWAP1 POP JUMP JUMPDEST PUSH1 0x1F DUP3 GT ISZERO PUSH3 0x22A JUMPI PUSH1 0x0 DUP2 DUP2 MSTORE PUSH1 0x20 DUP2 KECCAK256 PUSH1 0x1F DUP6 ADD PUSH1 0x5 SHR DUP2 ADD PUSH1 0x20 DUP7 LT ISZERO PUSH3 0x205 JUMPI POP DUP1 JUMPDEST PUSH1 0x1F DUP6 ADD PUSH1 0x5 SHR DUP3 ADD SWAP2 POP JUMPDEST DUP2 DUP2 LT ISZERO PUSH3 0x226 JUMPI DUP3 DUP2 SSTORE PUSH1 0x1 ADD PUSH3 0x211 JUMP JUMPDEST POP POP POP JUMPDEST POP POP POP JUMP JUMPDEST DUP2 MLOAD PUSH1 0x1 PUSH1 0x1 PUSH1 0x40 SHL SUB DUP2 GT ISZERO PUSH3 0x24B JUMPI PUSH3 0x24B PUSH3 0x71 JUMP JUMPDEST PUSH3 0x263 DUP2 PUSH3 0x25C DUP5 SLOAD PUSH3 0x1A0 JUMP JUMPDEST DUP5 PUSH3 0x1DC JUMP JUMPDEST PUSH1 0x20 DUP1 PUSH1 0x1F DUP4 GT PUSH1 0x1 DUP2 EQ PUSH3 0x29B JUMPI PUSH1 0x0 DUP5 ISZERO PUSH3 0x282 JUMPI POP DUP6 DUP4 ADD MLOAD JUMPDEST PUSH1 0x0 NOT PUSH1 0x3 DUP7 SWAP1 SHL SHR NOT AND PUSH1 0x1 DUP6 SWAP1 SHL OR DUP6 SSTORE PUSH3 0x226 JUMP JUMPDEST PUSH1 0x0 DUP6 DUP2 MSTORE PUSH1 0x20 DUP2 KECCAK256 PUSH1 0x1F NOT DUP7 AND SWAP2 JUMPDEST DUP3 DUP2 LT ISZERO PUSH3 0x2CC JUMPI DUP9 DUP7 ADD MLOAD DUP3 SSTORE SWAP5 DUP5 ADD SWAP5 PUSH1 0x1 SWAP1 SWAP2 ADD SWAP1 DUP5 ADD PUSH3 0x2AB JUMP JUMPDEST POP DUP6 DUP3 LT ISZERO PUSH3 0x2EB JUMPI DUP8 DUP6 ADD MLOAD PUSH1 0x0 NOT PUSH1 0x3 DUP9 SWAP1 SHL PUSH1 0xF8 AND SHR NOT AND DUP2 SSTORE JUMPDEST POP POP POP POP POP PUSH1 0x1 SWAP1 DUP2 SHL ADD SWAP1 SSTORE POP JUMP JUMPDEST PUSH2 0x8A9 DUP1 PUSH3 0x30B PUSH1 0x0 CODECOPY PUSH1 0x0 RETURN INVALID PUSH1 0x80 PUSH1 0x40 MSTORE CALLVALUE DUP1 ISZERO PUSH2 0x10 JUMPI PUSH1 0x0 DUP1 REVERT JUMPDEST POP PUSH1 0x4 CALLDATASIZE LT PUSH2 0xB4 JUMPI PUSH1 0x0 CALLDATALOAD PUSH1 0xE0 SHR DUP1 PUSH4 0x40C10F19 GT PUSH2 0x71 JUMPI DUP1 PUSH4 0x40C10F19 EQ PUSH2 0x159 JUMPI DUP1 PUSH4 0x70A08231 EQ PUSH2 0x16E JUMPI DUP1 PUSH4 0x95D89B41 EQ PUSH2 0x197 JUMPI DUP1 PUSH4 0x9DC29FAC EQ PUSH2 0x19F JUMPI DUP1 PUSH4 0xA9059CBB EQ PUSH2 0x1B2 JUMPI DUP1 PUSH4 0xDD62ED3E EQ PUSH2 0x1C5 JUMPI PUSH1 0x0 DUP1 REVERT JUMPDEST DUP1 PUSH4 0x6FDDE03 EQ PUSH2 0xB9 JUMPI DUP1 PUSH4 0x7546172 EQ PUSH2 0xD7 JUMPI DUP1 PUSH4 0x95EA7B3 EQ PUSH2 0x102 JUMPI DUP1 PUSH4 0x18160DDD EQ PUSH2 0x125 JUMPI DUP1 PUSH4 0x23B872DD EQ PUSH2 0x137 JUMPI DUP1 PUSH4 0x313CE567 EQ PUSH2 0x14A JUMPI JUMPDEST PUSH1 0x0 DUP1 REVERT JUMPDEST PUSH2 0xC1 PUSH2 0x1FE JUMP JUMPDEST PUSH1 0x40 MLOAD PUSH2 0xCE SWAP2 SWAP1 PUSH2 0x6F3 JUMP JUMPDEST PUSH1 0x40 MLOAD DUP1 SWAP2 SUB SWAP1 RETURN JUMPDEST PUSH1 0x5 SLOAD PUSH2 0xEA SWAP1 PUSH1 0x1 PUSH1 0x1 PUSH1 0xA0 SHL SUB AND DUP2 JUMP JUMPDEST PUSH1 0x40 MLOAD PUSH1 0x1 PUSH1 0x1 PUSH1 0xA0 SHL SUB SWAP1 SWAP2 AND DUP2 MSTORE PUSH1 0x20 ADD PUSH2 0xCE JUMP JUMPDEST PUSH2 0x115 PUSH2 0x110 CALLDATASIZE PUSH1 0x4 PUSH2 0x75D JUMP JUMPDEST PUSH2 0x290 JUMP JUMPDEST PUSH1 0x40 MLOAD SWAP1 ISZERO ISZERO DUP2 MSTORE PUSH1 0x20 ADD PUSH2 0xCE JUMP JUMPDEST PUSH1 0x2 SLOAD JUMPDEST PUSH1 0x40 MLOAD SWAP1 DUP2 MSTORE PUSH1 0x20 ADD PUSH2 0xCE JUMP JUMPDEST PUSH2 0x115 PUSH2 0x145 CALLDATASIZE PUSH1 0x4 PUSH2 0x787 JUMP JUMPDEST PUSH2 0x2AA JUMP JUMPDEST PUSH1 0x40 MLOAD PUSH1 0x12 DUP2 MSTORE PUSH1 0x20 ADD PUSH2 0xCE JUMP JUMPDEST PUSH2 0x16C PUSH2 0x167 CALLDATASIZE PUSH1 0x4 PUSH2 0x75D JUMP JUMPDEST PUSH2 0x2CE JUMP JUMPDEST STOP JUMPDEST PUSH2 0x129 PUSH2 0x17C CALLDATASIZE PUSH1 0x4 PUSH2 0x7C3 JUMP JUMPDEST PUSH1 0x1 PUSH1 0x1 PUSH1 0xA0 SHL SUB AND PUSH1 0x0 SWAP1 DUP2 MSTORE PUSH1 0x20 DUP2 SWAP1 MSTORE PUSH1 0x40 SWAP1 KECCAK256 SLOAD SWAP1 JUMP JUMPDEST PUSH2 0xC1 PUSH2 0x329 JUMP JUMPDEST PUSH2 0x16C PUSH2 0x1AD CALLDATASIZE PUSH1 0x4 PUSH2 0x75D JUMP JUMPDEST PUSH2 0x338 JUMP JUMPDEST PUSH2 0x115 PUSH2 0x1C0 CALLDATASIZE PUSH1 0x4 PUSH2 0x75D JUMP JUMPDEST PUSH2 0x38A JUMP JUMPDEST PUSH2 0x129 PUSH2 0x1D3 CALLDATASIZE PUSH1 0x4 PUSH2 0x7E5 JUMP JUMPDEST PUSH1 0x1 PUSH1 0x1 PUSH1 0xA0 SHL SUB SWAP2 DUP3 AND PUSH1 0x0 SWAP1 DUP2 MSTORE PUSH1 0x1 PUSH1 0x20 SWAP1 DUP2 MSTORE PUSH1 0x40 DUP1 DUP4 KECCAK256 SWAP4 SWAP1 SWAP5 AND DUP3 MSTORE SWAP2 SWAP1 SWAP2 MSTORE KECCAK256 SLOAD SWAP1 JUMP JUMPDEST PUSH1 0x60 PUSH1 0x3 DUP1 SLOAD PUSH2 0x20D SWAP1 PUSH2 0x818 JUMP JUMPDEST DUP1 PUSH1 0x1F ADD PUSH1 0x20 DUP1 SWAP2 DIV MUL PUSH1 0x20 ADD PUSH1 0x40 MLOAD SWAP1 DUP2 ADD PUSH1 0x40 MSTORE DUP1 SWAP3 SWAP2 SWAP1 DUP2 DUP2 MSTORE PUSH1 0x20 ADD DUP3 DUP1 SLOAD PUSH2 0x239 SWAP1 PUSH2 0x818 JUMP JUMPDEST DUP1 ISZERO PUSH2 0x286 JUMPI DUP1 PUSH1 0x1F LT PUSH2 0x25B JUMPI PUSH2 0x100 DUP1 DUP4 SLOAD DIV MUL DUP4 MSTORE SWAP2 PUSH1 0x20 ADD SWAP2 PUSH2 0x286 JUMP JUMPDEST DUP3 ADD SWAP2 SWAP1 PUSH1 0x0 MSTORE PUSH1 0x20 PUSH1 0x0 KECCAK256 SWAP1 JUMPDEST DUP2 SLOAD DUP2 MSTORE SWAP1 PUSH1 0x1 ADD SWAP1 PUSH1 0x20 ADD DUP1 DUP4 GT PUSH2 0x269 JUMPI DUP3 SWAP1 SUB PUSH1 0x1F AND DUP3 ADD SWAP2 JUMPDEST POP POP POP POP POP SWAP1 POP SWAP1 JUMP JUMPDEST PUSH1 0x0 CALLER PUSH2 0x29E DUP2 DUP6 DUP6 PUSH2 0x398 JUMP JUMPDEST PUSH1 0x1 SWAP2 POP POP JUMPDEST SWAP3 SWAP2 POP POP JUMP JUMPDEST PUSH1 0x0 CALLER PUSH2 0x2B8 DUP6 DUP3 DUP6 PUSH2 0x3AA JUMP JUMPDEST PUSH2 0x2C3 DUP6 DUP6 DUP6 PUSH2 0x429 JUMP JUMPDEST POP PUSH1 0x1 SWAP5 SWAP4 POP POP POP POP JUMP JUMPDEST PUSH1 0x5 SLOAD PUSH1 0x1 PUSH1 0x1 PUSH1 0xA0 SHL SUB AND CALLER EQ PUSH2 0x31B JUMPI PUSH1 0x40 MLOAD PUSH3 0x461BCD PUSH1 0xE5 SHL DUP2 MSTORE PUSH1 0x20 PUSH1 0x4 DUP3 ADD MSTORE PUSH1 0xB PUSH1 0x24 DUP3 ADD MSTORE PUSH11 0x27B7363C9036B4B73A32B9 PUSH1 0xA9 SHL PUSH1 0x44 DUP3 ADD MSTORE PUSH1 0x64 ADD JUMPDEST PUSH1 0x40 MLOAD DUP1 SWAP2 SUB SWAP1 REVERT JUMPDEST PUSH2 0x325 DUP3 DUP3 PUSH2 0x488 JUMP JUMPDEST POP POP JUMP JUMPDEST PUSH1 0x60 PUSH1 0x4 DUP1 SLOAD PUSH2 0x20D SWAP1 PUSH2 0x818 JUMP JUMPDEST PUSH1 0x5 SLOAD PUSH1 0x1 PUSH1 0x1 PUSH1 0xA0 SHL SUB AND CALLER EQ PUSH2 0x380 JUMPI PUSH1 0x40 MLOAD PUSH3 0x461BCD PUSH1 0xE5 SHL DUP2 MSTORE PUSH1 0x20 PUSH1 0x4 DUP3 ADD MSTORE PUSH1 0xB PUSH1 0x24 DUP3 ADD MSTORE PUSH11 0x27B7363C9036B4B73A32B9 PUSH1 0xA9 SHL PUSH1 0x44 DUP3 ADD MSTORE PUSH1 0x64 ADD PUSH2 0x312 JUMP JUMPDEST PUSH2 0x325 DUP3 DUP3 PUSH2 0x4BE JUMP JUMPDEST PUSH1 0x0 CALLER PUSH2 0x29E DUP2 DUP6 DUP6 PUSH2 0x429 JUMP JUMPDEST PUSH2 0x3A5 DUP4 DUP4 DUP4 PUSH1 0x1 PUSH2 0x4F4 JUMP JUMPDEST POP POP POP JUMP JUMPDEST PUSH1 0x1 PUSH1 0x1 PUSH1 0xA0 SHL SUB DUP4 DUP2 AND PUSH1 0x0 SWAP1 DUP2 MSTORE PUSH1 0x1 PUSH1 0x20 SWAP1 DUP2 MSTORE PUSH1 0x40 DUP1 DUP4 KECCAK256 SWAP4 DUP7 AND DUP4 MSTORE SWAP3 SWAP1 MSTORE KECCAK256 SLOAD PUSH1 0x0 NOT DUP2 LT ISZERO PUSH2 0x423 JUMPI DUP2 DUP2 LT ISZERO PUSH2 0x414 JUMPI PUSH1 0x40 MLOAD PUSH4 0x7DC7A0D9 PUSH1 0xE1 SHL DUP2 MSTORE PUSH1 0x1 PUSH1 0x1 PUSH1 0xA0 SHL SUB DUP5 AND PUSH1 0x4 DUP3 ADD MSTORE PUSH1 0x24 DUP2 ADD DUP3 SWAP1 MSTORE PUSH1 0x44 DUP2 ADD DUP4 SWAP1 MSTORE PUSH1 0x64 ADD PUSH2 0x312 JUMP JUMPDEST PUSH2 0x423 DUP5 DUP5 DUP5 DUP5 SUB PUSH1 0x0 PUSH2 0x4F4 JUMP JUMPDEST POP POP POP POP JUMP JUMPDEST PUSH1 0x1 PUSH1 0x1 PUSH1 0xA0 SHL SUB DUP4 AND PUSH2 0x453 JUMPI PUSH1 0x40 MLOAD PUSH4 0x4B637E8F PUSH1 0xE1 SHL DUP2 MSTORE PUSH1 0x0 PUSH1 0x4 DUP3 ADD MSTORE PUSH1 0x24 ADD PUSH2 0x312 JUMP JUMPDEST PUSH1 0x1 PUSH1 0x1 PUSH1 0xA0 SHL SUB DUP3 AND PUSH2 0x47D JUMPI PUSH1 0x40 MLOAD PUSH4 0xEC442F05 PUSH1 0xE0 SHL DUP2 MSTORE PUSH1 0x0 PUSH1 0x4 DUP3 ADD MSTORE PUSH1 0x24 ADD PUSH2 0x312 JUMP JUMPDEST PUSH2 0x3A5 DUP4 DUP4 DUP4 PUSH2 0x5C9 JUMP JUMPDEST PUSH1 0x1 PUSH1 0x1 PUSH1 0xA0 SHL SUB DUP3 AND PUSH2 0x4B2 JUMPI PUSH1 0x40 MLOAD PUSH4 0xEC442F05 PUSH1 0xE0 SHL DUP2 MSTORE PUSH1 0x0 PUSH1 0x4 DUP3 ADD MSTORE PUSH1 0x24 ADD PUSH2 0x312 JUMP JUMPDEST PUSH2 0x325 PUSH1 0x0 DUP4 DUP4 PUSH2 0x5C9 JUMP JUMPDEST PUSH1 0x1 PUSH1 0x1 PUSH1 0xA0 SHL SUB DUP3 AND PUSH2 0x4E8 JUMPI PUSH1 0x40 MLOAD PUSH4 0x4B637E8F PUSH1 0xE1 SHL DUP2 MSTORE PUSH1 0x0 PUSH1 0x4 DUP3 ADD MSTORE PUSH1 0x24 ADD PUSH2 0x312 JUMP JUMPDEST PUSH2 0x325 DUP3 PUSH1 0x0 DUP4 PUSH2 0x5C9 JUMP JUMPDEST PUSH1 0x1 PUSH1 0x1 PUSH1 0xA0 SHL SUB DUP5 AND PUSH2 0x51E JUMPI PUSH1 0x40 MLOAD PUSH4 0xE602DF05 PUSH1 0xE0 SHL DUP2 MSTORE PUSH1 0x0 PUSH1 0x4 DUP3 ADD MSTORE PUSH1 0x24 ADD PUSH2 0x312 JUMP JUMPDEST PUSH1 0x1 PUSH1 0x1 PUSH1 0xA0 SHL SUB DUP4 AND PUSH2 0x548 JUMPI PUSH1 0x40 MLOAD PUSH4 0x4A1406B1 PUSH1 0xE1 SHL DUP2 MSTORE PUSH1 0x0 PUSH1 0x4 DUP3 ADD MSTORE PUSH1 0x24 ADD PUSH2 0x312 JUMP JUMPDEST PUSH1 0x1 PUSH1 0x1 PUSH1 0xA0 SHL SUB DUP1 DUP6 AND PUSH1 0x0 SWAP1 DUP2 MSTORE PUSH1 0x1 PUSH1 0x20 SWAP1 DUP2 MSTORE PUSH1 0x40 DUP1 DUP4 KECCAK256 SWAP4 DUP8 AND DUP4 MSTORE SWAP3 SWAP1 MSTORE KECCAK256 DUP3 SWAP1 SSTORE DUP1 ISZERO PUSH2 0x423 JUMPI DUP3 PUSH1 0x1 PUSH1 0x1 PUSH1 0xA0 SHL SUB AND DUP5 PUSH1 0x1 PUSH1 0x1 PUSH1 0xA0 SHL SUB AND PUSH32 0x8C5BE1E5EBEC7D5BD14F71427D1E84F3DD0314C0F7B2291E5B200AC8C7C3B925 DUP5 PUSH1 0x40 MLOAD PUSH2 0x5BB SWAP2 DUP2 MSTORE PUSH1 0x20 ADD SWAP1 JUMP JUMPDEST PUSH1 0x40 MLOAD DUP1 SWAP2 SUB SWAP1 LOG3 POP POP POP POP JUMP JUMPDEST PUSH1 0x1 PUSH1 0x1 PUSH1 0xA0 SHL SUB DUP4 AND PUSH2 0x5F4 JUMPI DUP1 PUSH1 0x2 PUSH1 0x0 DUP3 DUP3 SLOAD PUSH2 0x5E9 SWAP2 SWAP1 PUSH2 0x852 JUMP JUMPDEST SWAP1 SWAP2 SSTORE POP PUSH2 0x666 SWAP1 POP JUMP JUMPDEST PUSH1 0x1 PUSH1 0x1 PUSH1 0xA0 SHL SUB DUP4 AND PUSH1 0x0 SWAP1 DUP2 MSTORE PUSH1 0x20 DUP2 SWAP1 MSTORE PUSH1 0x40 SWAP1 KECCAK256 SLOAD DUP2 DUP2 LT ISZERO PUSH2 0x647 JUMPI PUSH1 0x40 MLOAD PUSH4 0x391434E3 PUSH1 0xE2 SHL DUP2 MSTORE PUSH1 0x1 PUSH1 0x1 PUSH1 0xA0 SHL SUB DUP6 AND PUSH1 0x4 DUP3 ADD MSTORE PUSH1 0x24 DUP2 ADD DUP3 SWAP1 MSTORE PUSH1 0x44 DUP2 ADD DUP4 SWAP1 MSTORE PUSH1 0x64 ADD PUSH2 0x312 JUMP JUMPDEST PUSH1 0x1 PUSH1 0x1 PUSH1 0xA0 SHL SUB DUP5 AND PUSH1 0x0 SWAP1 DUP2 MSTORE PUSH1 0x20 DUP2 SWAP1 MSTORE PUSH1 0x40 SWAP1 KECCAK256 SWAP1 DUP3 SWAP1 SUB SWAP1 SSTORE JUMPDEST PUSH1 0x1 PUSH1 0x1 PUSH1 0xA0 SHL SUB DUP3 AND PUSH2 0x682 JUMPI PUSH1 0x2 DUP1 SLOAD DUP3 SWAP1 SUB SWAP1 SSTORE PUSH2 0x6A1 JUMP JUMPDEST PUSH1 0x1 PUSH1 0x1 PUSH1 0xA0 SHL SUB DUP3 AND PUSH1 0x0 SWAP1 DUP2 MSTORE PUSH1 0x20 DUP2 SWAP1 MSTORE PUSH1 0x40 SWAP1 KECCAK256 DUP1 SLOAD DUP3 ADD SWAP1 SSTORE JUMPDEST DUP2 PUSH1 0x1 PUSH1 0x1 PUSH1 0xA0 SHL SUB AND DUP4 PUSH1 0x1 PUSH1 0x1 PUSH1 0xA0 SHL SUB AND PUSH32 0xDDF252AD1BE2C89B69C2B068FC378DAA952BA7F163C4A11628F55A4DF523B3EF DUP4 PUSH1 0x40 MLOAD PUSH2 0x6E6 SWAP2 DUP2 MSTORE PUSH1 0x20 ADD SWAP1 JUMP JUMPDEST PUSH1 0x40 MLOAD DUP1 SWAP2 SUB SWAP1 LOG3 POP POP POP JUMP JUMPDEST PUSH1 0x0 PUSH1 0x20 DUP1 DUP4 MSTORE DUP4 MLOAD DUP1 DUP3 DUP6 ADD MSTORE PUSH1 0x0 JUMPDEST DUP2 DUP2 LT ISZERO PUSH2 0x720 JUMPI DUP6 DUP2 ADD DUP4 ADD MLOAD DUP6 DUP3 ADD PUSH1 0x40 ADD MSTORE DUP3 ADD PUSH2 0x704 JUMP JUMPDEST POP PUSH1 0x0 PUSH1 0x40 DUP3 DUP7 ADD ADD MSTORE PUSH1 0x40 PUSH1 0x1F NOT PUSH1 0x1F DUP4 ADD AND DUP6 ADD ADD SWAP3 POP POP POP SWAP3 SWAP2 POP POP JUMP JUMPDEST DUP1 CALLDATALOAD PUSH1 0x1 PUSH1 0x1 PUSH1 0xA0 SHL SUB DUP2 AND DUP2 EQ PUSH2 0x758 JUMPI PUSH1 0x0 DUP1 REVERT JUMPDEST SWAP2 SWAP1 POP JUMP JUMPDEST PUSH1 0x0 DUP1 PUSH1 0x40 DUP4 DUP6 SUB SLT ISZERO PUSH2 0x770 JUMPI PUSH1 0x0 DUP1 REVERT JUMPDEST PUSH2 0x779 DUP4 PUSH2 0x741 JUMP JUMPDEST SWAP5 PUSH1 0x20 SWAP4 SWAP1 SWAP4 ADD CALLDATALOAD SWAP4 POP POP POP JUMP JUMPDEST PUSH1 0x0 DUP1 PUSH1 0x0 PUSH1 0x60 DUP5 DUP7 SUB SLT ISZERO PUSH2 0x79C JUMPI PUSH1 0x0 DUP1 REVERT JUMPDEST PUSH2 0x7A5 DUP5 PUSH2 0x741 JUMP JUMPDEST SWAP3 POP PUSH2 0x7B3 PUSH1 0x20 DUP6 ADD PUSH2 0x741 JUMP JUMPDEST SWAP2 POP PUSH1 0x40 DUP5 ADD CALLDATALOAD SWAP1 POP SWAP3 POP SWAP3 POP SWAP3 JUMP JUMPDEST PUSH1 0x0 PUSH1 0x20 DUP3 DUP5 SUB SLT ISZERO PUSH2 0x7D5 JUMPI PUSH1 0x0 DUP1 REVERT JUMPDEST PUSH2 0x7DE DUP3 PUSH2 0x741 JUMP JUMPDEST SWAP4 SWAP3 POP POP POP JUMP JUMPDEST PUSH1 0x0 DUP1 PUSH1 0x40 DUP4 DUP6 SUB SLT ISZERO PUSH2 0x7F8 JUMPI PUSH1 0x0 DUP1 REVERT JUMPDEST PUSH2 0x801 DUP4 PUSH2 0x741 JUMP JUMPDEST SWAP2 POP PUSH2 0x80F PUSH1 0x20 DUP5 ADD PUSH2 0x741 JUMP JUMPDEST SWAP1 POP SWAP3 POP SWAP3 SWAP1 POP JUMP JUMPDEST PUSH1 0x1 DUP2 DUP2 SHR SWAP1 DUP3 AND DUP1 PUSH2 0x82C JUMPI PUSH1 0x7F DUP3 AND SWAP2 POP JUMPDEST PUSH1 0x20 DUP3 LT DUP2 SUB PUSH2 0x84C JUMPI PUSH4 0x4E487B71 PUSH1 0xE0 SHL PUSH1 0x0 MSTORE PUSH1 0x22 PUSH1 0x4 MSTORE PUSH1 0x24 PUSH1 0x0 REVERT JUMPDEST POP SWAP2 SWAP1 POP JUMP JUMPDEST DUP1 DUP3 ADD DUP1 DUP3 GT ISZERO PUSH2 0x2A4 JUMPI PUSH4 0x4E487B71 PUSH1 0xE0 SHL PUSH1 0x0 MSTORE PUSH1 0x11 PUSH1 0x4 MSTORE PUSH1 0x24 PUSH1 0x0 REVERT INVALID LOG2 PUSH5 0x6970667358 0x22 SLT KECCAK256 0xAA 0xE0 PUSH8 0xC1B85014B88D181C SWAP7 0xDF ADDMOD PUSH16 0xA634F767365FA0E36EBEA5C07A0D3B95 DUP15 PUSH5 0x736F6C6343 STOP ADDMOD EQ STOP CALLER "},"methodIdentifiers":{"allowance(address,address)":"dd62ed3e","approve(address,uint256)":"095ea7b3","balanceOf(address)":"70a08231","burn(address,uint256)":"9dc29fac","decimals()":"313ce567","mint(address,uint256)":"40c10f19","minter()":"07546172","name()":"06fdde03","symbol()":"95d89b41","totalSupply()":"18160ddd","transfer(address,uint256)":"a9059cbb","transferFrom(address,address,uint256)":"23b872dd"}}}}}