{"contracts/FIACoinV5.sol":{"FIACoinV5":{"abi":[{"inputs":[{"internalType":"address","name":"_treasury","type":"address"},{"internalType":"address","name":"_founder","type":"address"}],"stateMutability":"nonpayable","type":"constructor"},{"inputs":[{"internalType":"address","name":"spender","type":"address"},{"internalType":"uint256","name":"allowance","type":"uint256"},{"internalType":"uint256","name":"needed","type":"uint256"}],"name":"ERC20InsufficientAllowance","type":"error"},{"inputs":[{"internalType":"address","name":"sender","type":"address"},{"internalType":"uint256","name":"balance","type":"uint256"},{"internalType":"uint256","name":"needed","type":"uint256"}],"name":"ERC20InsufficientBalance","type":"error"},{"inputs":[{"internalType":"address","name":"approver","type":"address"}],"name":"ERC20InvalidApprover","type":"error"},{"inputs":[{"internalType":"address","name":"receiver","type":"address"}],"name":"ERC20InvalidReceiver","type":"error"},{"inputs":[{"internalType":"address","name":"sender","type":"address"}],"name":"ERC20InvalidSender","type":"error"},{"inputs":[{"internalType":"address","name":"spender","type":"address"}],"name":"ERC20InvalidSpender","type":"error"},{"inputs":[],"name":"EnforcedPause","type":"error"},{"inputs":[],"name":"ExpectedPause","type":"error"},{"inputs":[{"internalType":"address","name":"owner","type":"address"}],"name":"OwnableInvalidOwner","type":"error"},{"inputs":[{"internalType":"address","name":"account","type":"address"}],"name":"OwnableUnauthorizedAccount","type":"error"},{"inputs":[],"name":"ReentrancyGuardReentrantCall","type":"error"},{"anonymous":false,"inputs":[{"indexed":true,"internalType":"address","name":"owner","type":"address"},{"indexed":true,"internalType":"address","name":"spender","type":"address"},{"indexed":false,"internalType":"uint256","name":"value","type":"uint256"}],"name":"Approval","type":"event"},{"anonymous":false,"inputs":[{"indexed":true,"internalType":"address","name":"user","type":"address"},{"indexed":false,"internalType":"uint256","name":"totalAmount","type":"uint256"},{"indexed":false,"internalType":"uint256","name":"stakeCount","type":"uint256"}],"name":"BatchStaking","type":"event"},{"anonymous":false,"inputs":[{"indexed":true,"internalType":"address","name":"from","type":"address"},{"indexed":false,"internalType":"uint256","name":"totalAmount","type":"uint256"},{"indexed":false,"internalType":"uint256","name":"recipientCount","type":"uint256"}],"name":"BatchTransfer","type":"event"},{"anonymous":false,"inputs":[{"indexed":false,"internalType":"string","name":"action","type":"string"},{"indexed":false,"internalType":"address","name":"actor","type":"address"}],"name":"EmergencyAction","type":"event"},{"anonymous":false,"inputs":[{"indexed":false,"internalType":"uint256","name":"oldFee","type":"uint256"},{"indexed":false,"internalType":"uint256","name":"newFee","type":"uint256"}],"name":"FeeConfigurationChanged","type":"event"},{"anonymous":false,"inputs":[{"indexed":false,"internalType":"uint256","name":"treasury","type":"uint256"},{"indexed":false,"internalType":"uint256","name":"founder","type":"uint256"},{"indexed":false,"internalType":"uint256","name":"burn","type":"uint256"}],"name":"FeeDistributionChanged","type":"event"},{"anonymous":false,"inputs":[{"indexed":true,"internalType":"address","name":"account","type":"address"},{"indexed":false,"internalType":"bool","name":"exempt","type":"bool"}],"name":"FeeExemptionSet","type":"event"},{"anonymous":false,"inputs":[{"indexed":true,"internalType":"address","name":"from","type":"address"},{"indexed":true,"internalType":"address","name":"to","type":"address"},{"indexed":false,"internalType":"uint256","name":"amount","type":"uint256"}],"name":"Fingered","type":"event"},{"anonymous":false,"inputs":[{"indexed":true,"internalType":"address","name":"previousOwner","type":"address"},{"indexed":true,"internalType":"address","name":"newOwner","type":"address"}],"name":"OwnershipTransferred","type":"event"},{"anonymous":false,"inputs":[{"indexed":false,"internalType":"address","name":"account","type":"address"}],"name":"Paused","type":"event"},{"anonymous":false,"inputs":[{"indexed":true,"internalType":"uint256","name":"proposalId","type":"uint256"},{"indexed":true,"internalType":"address","name":"proposer","type":"address"},{"indexed":false,"internalType":"string","name":"description","type":"string"}],"name":"ProposalCreated","type":"event"},{"anonymous":false,"inputs":[{"indexed":true,"internalType":"uint256","name":"proposalId","type":"uint256"}],"name":"ProposalExecuted","type":"event"},{"anonymous":false,"inputs":[{"indexed":true,"internalType":"address","name":"user","type":"address"},{"indexed":false,"internalType":"uint256","name":"reward","type":"uint256"},{"indexed":false,"internalType":"uint256","name":"stakeIndex","type":"uint256"}],"name":"RewardClaimed","type":"event"},{"anonymous":false,"inputs":[{"indexed":true,"internalType":"address","name":"user","type":"address"},{"indexed":false,"internalType":"uint256","name":"amount","type":"uint256"},{"indexed":false,"internalType":"uint256","name":"lockPeriod","type":"uint256"},{"indexed":false,"internalType":"uint256","name":"stakeIndex","type":"uint256"}],"name":"Staked","type":"event"},{"anonymous":false,"inputs":[{"indexed":true,"internalType":"address","name":"from","type":"address"},{"indexed":true,"internalType":"address","name":"to","type":"address"},{"indexed":false,"internalType":"uint256","name":"value","type":"uint256"}],"name":"Transfer","type":"event"},{"anonymous":false,"inputs":[{"indexed":false,"internalType":"address","name":"account","type":"address"}],"name":"Unpaused","type":"event"},{"anonymous":false,"inputs":[{"indexed":true,"internalType":"address","name":"user","type":"address"},{"indexed":false,"internalType":"uint256","name":"amount","type":"uint256"},{"indexed":false,"internalType":"uint256","name":"stakeIndex","type":"uint256"}],"name":"Unstaked","type":"event"},{"anonymous":false,"inputs":[{"indexed":true,"internalType":"uint256","name":"proposalId","type":"uint256"},{"indexed":true,"internalType":"address","name":"voter","type":"address"},{"indexed":false,"internalType":"bool","name":"support","type":"bool"},{"indexed":false,"internalType":"uint256","name":"votingPower","type":"uint256"}],"name":"VoteCast","type":"event"},{"inputs":[],"name":"EXECUTION_DELAY","outputs":[{"internalType":"uint256","name":"","type":"uint256"}],"stateMutability":"view","type":"function"},{"inputs":[],"name":"FEE_CHANGE_DELAY","outputs":[{"internalType":"uint256","name":"","type":"uint256"}],"stateMutability":"view","type":"function"},{"inputs":[],"name":"LOCK_180_DAYS","outputs":[{"internalType":"uint256","name":"","type":"uint256"}],"stateMutability":"view","type":"function"},{"inputs":[],"name":"LOCK_30_DAYS","outputs":[{"internalType":"uint256","name":"","type":"uint256"}],"stateMutability":"view","type":"function"},{"inputs":[],"name":"LOCK_365_DAYS","outputs":[{"internalType":"uint256","name":"","type":"uint256"}],"stateMutability":"view","type":"function"},{"inputs":[],"name":"LOCK_90_DAYS","outputs":[{"internalType":"uint256","name":"","type":"uint256"}],"stateMutability":"view","type":"function"},{"inputs":[],"name":"MAX_TOTAL_FEE_BP","outputs":[{"internalType":"uint256","name":"","type":"uint256"}],"stateMutability":"view","type":"function"},{"inputs":[],"name":"PROPOSAL_THRESHOLD","outputs":[{"internalType":"uint256","name":"","type":"uint256"}],"stateMutability":"view","type":"function"},{"inputs":[],"name":"QUORUM_PERCENTAGE","outputs":[{"internalType":"uint256","name":"","type":"uint256"}],"stateMutability":"view","type":"function"},{"inputs":[],"name":"TOTAL_SUPPLY","outputs":[{"internalType":"uint256","name":"","type":"uint256"}],"stateMutability":"view","type":"function"},{"inputs":[],"name":"VOTING_PERIOD","outputs":[{"internalType":"uint256","name":"","type":"uint256"}],"stateMutability":"view","type":"function"},{"inputs":[{"internalType":"uint256","name":"amount","type":"uint256"}],"name":"addToRewardPool","outputs":[],"stateMutability":"nonpayable","type":"function"},{"inputs":[{"internalType":"address","name":"owner","type":"address"},{"internalType":"address","name":"spender","type":"address"}],"name":"allowance","outputs":[{"internalType":"uint256","name":"","type":"uint256"}],"stateMutability":"view","type":"function"},{"inputs":[{"internalType":"address","name":"spender","type":"address"},{"internalType":"uint256","name":"value","type":"uint256"}],"name":"approve","outputs":[{"internalType":"bool","name":"","type":"bool"}],"stateMutability":"nonpayable","type":"function"},{"inputs":[{"internalType":"address","name":"account","type":"address"}],"name":"balanceOf","outputs":[{"internalType":"uint256","name":"","type":"uint256"}],"stateMutability":"view","type":"function"},{"inputs":[{"internalType":"address[]","name":"accounts","type":"address[]"},{"internalType":"bool","name":"exempt","type":"bool"}],"name":"batchSetFeeExempt","outputs":[],"stateMutability":"nonpayable","type":"function"},{"inputs":[{"internalType":"uint256[]","name":"amounts","type":"uint256[]"},{"internalType":"uint256[]","name":"lockPeriods","type":"uint256[]"}],"name":"batchStake","outputs":[],"stateMutability":"nonpayable","type":"function"},{"inputs":[{"internalType":"address[]","name":"recipients","type":"address[]"},{"internalType":"uint256[]","name":"amounts","type":"uint256[]"}],"name":"batchTransfer","outputs":[{"internalType":"bool","name":"","type":"bool"}],"stateMutability":"nonpayable","type":"function"},{"inputs":[{"internalType":"uint256","name":"collateralAmount","type":"uint256"}],"name":"borrowAgainstStake","outputs":[],"stateMutability":"nonpayable","type":"function"},{"inputs":[{"internalType":"uint256","name":"chainId","type":"uint256"},{"internalType":"address","name":"recipient","type":"address"},{"internalType":"uint256","name":"amount","type":"uint256"}],"name":"bridgeTokens","outputs":[],"stateMutability":"payable","type":"function"},{"inputs":[{"internalType":"uint256","name":"amount","type":"uint256"}],"name":"burn","outputs":[],"stateMutability":"nonpayable","type":"function"},{"inputs":[{"internalType":"uint256","name":"stakeIndex","type":"uint256"}],"name":"claimRewards","outputs":[],"stateMutability":"nonpayable","type":"function"},{"inputs":[],"name":"decimals","outputs":[{"internalType":"uint8","name":"","type":"uint8"}],"stateMutability":"view","type":"function"},{"inputs":[{"internalType":"address","name":"protocol","type":"address"},{"internalType":"uint256","name":"amount","type":"uint256"}],"name":"depositToYieldFarm","outputs":[],"stateMutability":"nonpayable","type":"function"},{"inputs":[],"name":"emergencyPause","outputs":[],"stateMutability":"nonpayable","type":"function"},{"inputs":[],"name":"emergencyUnpause","outputs":[],"stateMutability":"nonpayable","type":"function"},{"inputs":[{"internalType":"uint256","name":"proposalId","type":"uint256"}],"name":"execute","outputs":[],"stateMutability":"nonpayable","type":"function"},{"inputs":[],"name":"feeToBurnBP","outputs":[{"internalType":"uint256","name":"","type":"uint256"}],"stateMutability":"view","type":"function"},{"inputs":[],"name":"feeToFounderBP","outputs":[{"internalType":"uint256","name":"","type":"uint256"}],"stateMutability":"view","type":"function"},{"inputs":[],"name":"feeToTreasuryBP","outputs":[{"internalType":"uint256","name":"","type":"uint256"}],"stateMutability":"view","type":"function"},{"inputs":[{"internalType":"uint256","name":"amount","type":"uint256"},{"internalType":"bytes","name":"data","type":"bytes"}],"name":"flashLoan","outputs":[],"stateMutability":"nonpayable","type":"function"},{"inputs":[],"name":"founderWallet","outputs":[{"internalType":"address","name":"","type":"address"}],"stateMutability":"view","type":"function"},{"inputs":[{"internalType":"uint256","name":"count","type":"uint256"}],"name":"getStakingLeaderboard","outputs":[{"internalType":"address[]","name":"","type":"address[]"},{"internalType":"uint256[]","name":"","type":"uint256[]"}],"stateMutability":"view","type":"function"},{"inputs":[{"internalType":"address","name":"user","type":"address"}],"name":"getStakingRewards","outputs":[{"internalType":"uint256","name":"","type":"uint256"}],"stateMutability":"view","type":"function"},{"inputs":[],"name":"getTokenStats","outputs":[{"components":[{"internalType":"uint256","name":"totalFeeCollected","type":"uint256"},{"internalType":"uint256","name":"totalBurned","type":"uint256"},{"internalType":"uint256","name":"totalStaked","type":"uint256"},{"internalType":"uint256","name":"uniqueHolders","type":"uint256"},{"internalType":"uint256","name":"transactionCount","type":"uint256"}],"internalType":"struct FIACoinV5.TokenAnalytics","name":"","type":"tuple"}],"stateMutability":"view","type":"function"},{"inputs":[{"internalType":"uint256","name":"count","type":"uint256"}],"name":"getTopHolders","outputs":[{"internalType":"address[]","name":"","type":"address[]"},{"internalType":"uint256[]","name":"","type":"uint256[]"}],"stateMutability":"view","type":"function"},{"inputs":[{"internalType":"address","name":"user","type":"address"}],"name":"getUserStats","outputs":[{"components":[{"internalType":"uint256","name":"totalFeesPaid","type":"uint256"},{"internalType":"uint256","name":"totalStakingRewards","type":"uint256"},{"internalType":"uint256","name":"transactionCount","type":"uint256"},{"internalType":"uint256","name":"firstTransactionTime","type":"uint256"}],"internalType":"struct FIACoinV5.UserAnalytics","name":"","type":"tuple"}],"stateMutability":"view","type":"function"},{"inputs":[{"internalType":"address","name":"account","type":"address"}],"name":"getVotingPower","outputs":[{"internalType":"uint256","name":"","type":"uint256"}],"stateMutability":"view","type":"function"},{"inputs":[{"internalType":"uint256","name":"","type":"uint256"},{"internalType":"address","name":"","type":"address"}],"name":"hasVoted","outputs":[{"internalType":"bool","name":"","type":"bool"}],"stateMutability":"view","type":"function"},{"inputs":[{"internalType":"address","name":"","type":"address"}],"name":"isFeeExempt","outputs":[{"internalType":"bool","name":"","type":"bool"}],"stateMutability":"view","type":"function"},{"inputs":[],"name":"lastFeeChange","outputs":[{"internalType":"uint256","name":"","type":"uint256"}],"stateMutability":"view","type":"function"},{"inputs":[{"internalType":"address","name":"","type":"address"}],"name":"lastTxBlock","outputs":[{"internalType":"uint256","name":"","type":"uint256"}],"stateMutability":"view","type":"function"},{"inputs":[{"internalType":"address","name":"","type":"address"}],"name":"lastTxTime","outputs":[{"internalType":"uint256","name":"","type":"uint256"}],"stateMutability":"view","type":"function"},{"inputs":[],"name":"multiSig","outputs":[{"internalType":"uint256","name":"required","type":"uint256"}],"stateMutability":"view","type":"function"},{"inputs":[],"name":"name","outputs":[{"internalType":"string","name":"","type":"string"}],"stateMutability":"view","type":"function"},{"inputs":[],"name":"owner","outputs":[{"internalType":"address","name":"","type":"address"}],"stateMutability":"view","type":"function"},{"inputs":[],"name":"paused","outputs":[{"internalType":"bool","name":"","type":"bool"}],"stateMutability":"view","type":"function"},{"inputs":[],"name":"proposalCount","outputs":[{"internalType":"uint256","name":"","type":"uint256"}],"stateMutability":"view","type":"function"},{"inputs":[{"internalType":"uint256","name":"","type":"uint256"}],"name":"proposals","outputs":[{"internalType":"uint256","name":"id","type":"uint256"},{"internalType":"address","name":"proposer","type":"address"},{"internalType":"string","name":"description","type":"string"},{"internalType":"uint256","name":"forVotes","type":"uint256"},{"internalType":"uint256","name":"againstVotes","type":"uint256"},{"internalType":"uint256","name":"startTime","type":"uint256"},{"internalType":"uint256","name":"endTime","type":"uint256"},{"internalType":"bool","name":"executed","type":"bool"},{"internalType":"enum FIACoinV5.ProposalType","name":"proposalType","type":"uint8"},{"internalType":"bytes","name":"proposalData","type":"bytes"}],"stateMutability":"view","type":"function"},{"inputs":[{"internalType":"string","name":"description","type":"string"},{"internalType":"enum FIACoinV5.ProposalType","name":"pType","type":"uint8"},{"internalType":"bytes","name":"data","type":"bytes"}],"name":"propose","outputs":[{"internalType":"uint256","name":"","type":"uint256"}],"stateMutability":"nonpayable","type":"function"},{"inputs":[{"internalType":"address","name":"to","type":"address"},{"internalType":"uint256","name":"amount","type":"uint256"},{"internalType":"uint256","name":"nonce","type":"uint256"}],"name":"protectedTransfer","outputs":[{"internalType":"bool","name":"","type":"bool"}],"stateMutability":"nonpayable","type":"function"},{"inputs":[{"internalType":"address","name":"to","type":"address"},{"internalType":"uint256","name":"amount","type":"uint256"},{"internalType":"uint256","name":"interval","type":"uint256"},{"internalType":"uint256","name":"count","type":"uint256"}],"name":"recurringTransfer","outputs":[{"internalType":"bytes32","name":"","type":"bytes32"}],"stateMutability":"nonpayable","type":"function"},{"inputs":[],"name":"renounceOwnership","outputs":[],"stateMutability":"nonpayable","type":"function"},{"inputs":[],"name":"rewardPool","outputs":[{"internalType":"uint256","name":"","type":"uint256"}],"stateMutability":"view","type":"function"},{"inputs":[{"internalType":"address","name":"to","type":"address"},{"internalType":"uint256","name":"amount","type":"uint256"},{"internalType":"uint256","name":"executeTime","type":"uint256"}],"name":"scheduledTransfer","outputs":[{"internalType":"bytes32","name":"","type":"bytes32"}],"stateMutability":"nonpayable","type":"function"},{"inputs":[{"internalType":"uint256","name":"_treasury","type":"uint256"},{"internalType":"uint256","name":"_founder","type":"uint256"},{"internalType":"uint256","name":"_burn","type":"uint256"}],"name":"setFeeDistribution","outputs":[],"stateMutability":"nonpayable","type":"function"},{"inputs":[{"internalType":"address","name":"account","type":"address"},{"internalType":"bool","name":"exempt","type":"bool"}],"name":"setFeeExempt","outputs":[],"stateMutability":"nonpayable","type":"function"},{"inputs":[{"internalType":"uint256","name":"_totalFeeBP","type":"uint256"}],"name":"setTotalFeeBP","outputs":[],"stateMutability":"nonpayable","type":"function"},{"inputs":[{"internalType":"uint256","name":"maxTxAmount","type":"uint256"},{"internalType":"uint256","name":"maxWalletAmount","type":"uint256"},{"internalType":"uint256","name":"cooldown","type":"uint256"},{"internalType":"bool","name":"active","type":"bool"}],"name":"setTransactionLimits","outputs":[],"stateMutability":"nonpayable","type":"function"},{"inputs":[{"internalType":"uint256","name":"amount","type":"uint256"},{"internalType":"uint256","name":"lockPeriod","type":"uint256"},{"internalType":"bool","name":"autoCompound","type":"bool"}],"name":"stake","outputs":[],"stateMutability":"nonpayable","type":"function"},{"inputs":[{"internalType":"uint256","name":"","type":"uint256"}],"name":"stakingAPY","outputs":[{"internalType":"uint256","name":"","type":"uint256"}],"stateMutability":"view","type":"function"},{"inputs":[],"name":"symbol","outputs":[{"internalType":"string","name":"","type":"string"}],"stateMutability":"view","type":"function"},{"inputs":[],"name":"tokenStats","outputs":[{"internalType":"uint256","name":"totalFeeCollected","type":"uint256"},{"internalType":"uint256","name":"totalBurned","type":"uint256"},{"internalType":"uint256","name":"totalStaked","type":"uint256"},{"internalType":"uint256","name":"uniqueHolders","type":"uint256"},{"internalType":"uint256","name":"transactionCount","type":"uint256"}],"stateMutability":"view","type":"function"},{"inputs":[],"name":"totalFeeBP","outputs":[{"internalType":"uint256","name":"","type":"uint256"}],"stateMutability":"view","type":"function"},{"inputs":[],"name":"totalStaked","outputs":[{"internalType":"uint256","name":"","type":"uint256"}],"stateMutability":"view","type":"function"},{"inputs":[],"name":"totalSupply","outputs":[{"internalType":"uint256","name":"","type":"uint256"}],"stateMutability":"view","type":"function"},{"inputs":[{"internalType":"address","name":"to","type":"address"},{"internalType":"uint256","name":"value","type":"uint256"}],"name":"transfer","outputs":[{"internalType":"bool","name":"","type":"bool"}],"stateMutability":"nonpayable","type":"function"},{"inputs":[{"internalType":"address","name":"from","type":"address"},{"internalType":"address","name":"to","type":"address"},{"internalType":"uint256","name":"value","type":"uint256"}],"name":"transferFrom","outputs":[{"internalType":"bool","name":"","type":"bool"}],"stateMutability":"nonpayable","type":"function"},{"inputs":[{"internalType":"address","name":"newOwner","type":"address"}],"name":"transferOwnership","outputs":[],"stateMutability":"nonpayable","type":"function"},{"inputs":[{"internalType":"address","name":"to","type":"address"},{"internalType":"uint256","name":"amount","type":"uint256"},{"internalType":"bytes","name":"data","type":"bytes"}],"name":"transferWithData","outputs":[{"internalType":"bool","name":"","type":"bool"}],"stateMutability":"nonpayable","type":"function"},{"inputs":[],"name":"treasury","outputs":[{"internalType":"address","name":"","type":"address"}],"stateMutability":"view","type":"function"},{"inputs":[],"name":"txLimits","outputs":[{"internalType":"uint256","name":"maxTxAmount","type":"uint256"},{"internalType":"uint256","name":"maxWalletAmount","type":"uint256"},{"internalType":"uint256","name":"txCooldown","type":"uint256"},{"internalType":"bool","name":"limitsActive","type":"bool"}],"stateMutability":"view","type":"function"},{"inputs":[{"internalType":"uint256","name":"stakeIndex","type":"uint256"}],"name":"unstake","outputs":[],"stateMutability":"nonpayable","type":"function"},{"inputs":[{"internalType":"bytes32","name":"","type":"bytes32"}],"name":"usedNonces","outputs":[{"internalType":"bool","name":"","type":"bool"}],"stateMutability":"view","type":"function"},{"inputs":[{"internalType":"address","name":"","type":"address"},{"internalType":"uint256","name":"","type":"uint256"}],"name":"userStakes","outputs":[{"internalType":"uint256","name":"amount","type":"uint256"},{"internalType":"uint256","name":"stakingTime","type":"uint256"},{"internalType":"uint256","name":"lastRewardClaim","type":"uint256"},{"internalType":"uint256","name":"lockPeriod","type":"uint256"},{"internalType":"bool","name":"autoCompound","type":"bool"}],"stateMutability":"view","type":"function"},{"inputs":[{"internalType":"address","name":"","type":"address"}],"name":"userStats","outputs":[{"internalType":"uint256","name":"totalFeesPaid","type":"uint256"},{"internalType":"uint256","name":"totalStakingRewards","type":"uint256"},{"internalType":"uint256","name":"transactionCount","type":"uint256"},{"internalType":"uint256","name":"firstTransactionTime","type":"uint256"}],"stateMutability":"view","type":"function"},{"inputs":[{"internalType":"uint256","name":"proposalId","type":"uint256"},{"internalType":"bool","name":"support","type":"bool"}],"name":"vote","outputs":[],"stateMutability":"nonpayable","type":"function"},{"inputs":[{"internalType":"uint256","name":"","type":"uint256"},{"internalType":"address","name":"","type":"address"}],"name":"votingPower","outputs":[{"internalType":"uint256","name":"","type":"uint256"}],"stateMutability":"view","type":"function"}],"evm":{"bytecode":{"linkReferences":{},"object":"6080604052606460075560326008556014600955601e600a553480156200002557600080fd5b506040516200526238038062005262833981016040819052620000489162000ad8565b336040518060400160405280600a815260200169466961436f696e20763560b01b8152506040518060400160405280600381526020016246494160e81b815250816003908162000099919062000bb4565b506004620000a8828262000bb4565b5050506001600160a01b038116620000db57604051631e4fbdf760e01b8152600060048201526024015b60405180910390fd5b620000e681620003b4565b5060016006556001600160a01b038216158015906200010d57506001600160a01b03811615155b6200015b5760405162461bcd60e51b815260206004820152601860248201527f5a65726f2061646472657373206e6f7420616c6c6f77656400000000000000006044820152606401620000d2565b600c80546001600160a01b038085166001600160a01b031992831617909255600d80549284169290911691909117905542600b55600754600a54600954600854620001a7919062000c96565b620001b3919062000c96565b14620002025760405162461bcd60e51b815260206004820152601860248201527f496e76616c69642066656520646973747269627574696f6e00000000000000006044820152606401620000d2565b601960205261012c7faf1774a4f6312a67d03643fe08542e260cda7d8b905cbb7085846027ecaef158556101f47fbbdf772dd069bb77379687c1d3b4635bbda0a6d8016b1121af6b8da851cfb004556102bc7f0bcf299c23372fd87f20fb7625b0fb3ba9396d4e14305d49a2411c3c391f5d9e556301e133806000526103847f4c25271b32e1eb374138a133c5ca2eb142bf386419a3cbc5c3211087d6df5d3455604080516080810190915280620002cb6103e86d314dc6448d9338c15b0a0000000062000cb2565b8152602001620002eb60646d314dc6448d9338c15b0a0000000062000cb2565b8152603c602080830191909152600160409283018190528351601a5590830151601b5590820151601c55606090910151601d805460ff19169115159190911790556013805480830182556000919091527f66de8ffda797e3de9c05e8fc57b3bf0ec28a930d40b0d285d93c06501cf6a090018054336001600160a01b0319909116811790915560149190915562000391906d314dc6448d9338c15b0a0000000062000406565b505060016024553360009081526026602052604090204260039091015562000d21565b600580546001600160a01b038381166001600160a01b0319831681179093556040519116919082907f8be0079c531659141344cd1fd0a4f28419497f9722a3daafe3b4186f6b6457e090600090a35050565b6001600160a01b038216620004325760405163ec442f0560e01b815260006004820152602401620000d2565b620004406000838362000444565b5050565b6200044e620007fe565b6001600160a01b038316158015906200046f57506001600160a01b03821615155b1562000482576200048283838362000833565b6001600160a01b0383161580620004a057506001600160a01b038216155b80620004ac5750600754155b80620004d057506001600160a01b0383166000908152600e602052604090205460ff165b80620004f457506001600160a01b0382166000908152600e602052604090205460ff165b15620005715762000507838383620008db565b6001600160a01b038316158015906200052857506001600160a01b03821615155b156200056c57816001600160a01b0316836001600160a01b031660008051602062005242833981519152836040516200056391815260200190565b60405180910390a35b505050565b601d5460ff1680156200058d57506001600160a01b0383163014155b8015620005a357506001600160a01b0382163014155b156200065557620005b48162000a01565b601b5481620005d8846001600160a01b031660009081526020819052604090205490565b620005e4919062000c96565b111562000655576001600160a01b0382166000908152600e602052604090205460ff16620006555760405162461bcd60e51b815260206004820152601560248201527f57616c6c6574206c696d697420657863656564656400000000000000000000006044820152606401620000d2565b6000612710600754836200066a919062000cd5565b62000676919062000cb2565b90506000600754600854836200068d919062000cd5565b62000699919062000cb2565b9050600060075460095484620006b0919062000cd5565b620006bc919062000cb2565b9050600081620006cd848662000cef565b620006d9919062000cef565b90506000620006e9858762000cef565b905083156200070c57600c546200070c9089906001600160a01b031686620008db565b82156200072d57600d546200072d9089906001600160a01b031685620008db565b81156200075d5762000740888362000a81565b816021600101600082825462000757919062000c96565b90915550505b6200076a888883620008db565b846021600001600082825462000781919062000c96565b90915550506001600160a01b03881660009081526026602052604081208054879290620007b090849062000c96565b92505081905550866001600160a01b0316886001600160a01b03166000805160206200524283398151915283604051620007ec91815260200190565b60405180910390a35050505050505050565b62000812600554600160a01b900460ff1690565b15620008315760405163d93c066560e01b815260040160405180910390fd5b565b60258054906000620008458362000d05565b90915550506001600160a01b0383166000908152602660205260408120600201805491620008738362000d05565b90915550506001600160a01b0382166000908152602660205260408120600301549003620008d0576001600160a01b0382166000908152602660205260408120426003909101556024805491620008ca8362000d05565b91905055505b505060175460235550565b6001600160a01b0383166200090a578060026000828254620008fe919062000c96565b909155506200097e9050565b6001600160a01b038316600090815260208190526040902054818110156200095f5760405163391434e360e21b81526001600160a01b03851660048201526024810182905260448101839052606401620000d2565b6001600160a01b03841660009081526020819052604090209082900390555b6001600160a01b0382166200099c57600280548290039055620009bb565b6001600160a01b03821660009081526020819052604090208054820190555b816001600160a01b0316836001600160a01b03167fddf252ad1be2c89b69c2b068fc378daa952ba7f163c4a11628f55a4df523b3ef836040516200056391815260200190565b601d5460ff16801562000a245750336000908152600e602052604090205460ff16155b1562000a7e57601a5481111562000a7e5760405162461bcd60e51b815260206004820181905260248201527f5472616e73616374696f6e20616d6f756e742065786365656473206c696d69746044820152606401620000d2565b50565b6001600160a01b03821662000aad57604051634b637e8f60e11b815260006004820152602401620000d2565b620004408260008362000444565b80516001600160a01b038116811462000ad357600080fd5b919050565b6000806040838503121562000aec57600080fd5b62000af78362000abb565b915062000b076020840162000abb565b90509250929050565b634e487b7160e01b600052604160045260246000fd5b600181811c9082168062000b3b57607f821691505b60208210810362000b5c57634e487b7160e01b600052602260045260246000fd5b50919050565b601f8211156200056c57600081815260208120601f850160051c8101602086101562000b8b5750805b601f850160051c820191505b8181101562000bac5782815560010162000b97565b505050505050565b81516001600160401b0381111562000bd05762000bd062000b10565b62000be88162000be1845462000b26565b8462000b62565b602080601f83116001811462000c20576000841562000c075750858301515b600019600386901b1c1916600185901b17855562000bac565b600085815260208120601f198616915b8281101562000c515788860151825594840194600190910190840162000c30565b508582101562000c705787850151600019600388901b60f8161c191681555b5050505050600190811b01905550565b634e487b7160e01b600052601160045260246000fd5b8082018082111562000cac5762000cac62000c80565b92915050565b60008262000cd057634e487b7160e01b600052601260045260246000fd5b500490565b808202811582820484141762000cac5762000cac62000c80565b8181038181111562000cac5762000cac62000c80565b60006001820162000d1a5762000d1a62000c80565b5060010190565b6145118062000d316000396000f3fe60806040526004361061045d5760003560e01c80637c6e5db71161023f578063b1610d7e11610139578063d90125a5116100b6578063f270fde41161007a578063f270fde414610e6f578063f2fde38b14610eb7578063f614134514610ed7578063fe0d94c114610eed578063feb6172414610f0d57600080fd5b8063d90125a514610daf578063da35c66414610de7578063dd62ed3e14610dfd578063e37c3a5514610e43578063ee8a7c1514610e5a57600080fd5b8063bb4d4436116100fd578063bb4d443614610d0b578063be8a361f14610d2b578063c9d27afe14610d42578063ceb88a1614610d62578063d49fab8a14610d8f57600080fd5b8063b1610d7e14610c6a578063b5d5b5fa14610c81578063b6b80605146106c7578063b95ffbce14610ccb578063ba8e568f14610ceb57600080fd5b8063902d55a5116101c7578063a6c266031161018b578063a6c2660314610b9d578063a852afd314610bbb578063a9059cbb14610bdb578063ad1cecb214610bfb578063b0dfd2e614610c1b57600080fd5b8063902d55a514610b1357806395d89b4114610b355780639b22dd7a14610b4a5780639f3d5f4a14610b6a578063a23d3c3514610b7d57600080fd5b80638893002f1161020e5780638893002f14610a3357806388d695b214610a535780638a65d87414610a735780638da5cb5b14610ad55780638ebfc79614610af357600080fd5b80637c6e5db7146109c2578063817b1cd2146109d957806382865218146109ef578063875bb4e214610a0657600080fd5b806336e0004a1161035b5780635296a431116102d857806366666aa91161029c57806366666aa91461094c578063695056881461096257806370a0823114610978578063715018a6146109985780637c4ccbea146109ad57600080fd5b80635296a4311461089f57806355ef9b5e146108bf578063561b2463146108d55780635c975abb146108f557806361d027b31461091457600080fd5b80634a4e3bd51161031f5780634a4e3bd5146107ea5780634aa21c75146107ff5780634e43603a1461081f57806351383f981461087257806351858e271461088a57600080fd5b806336e0004a1461073157806337f135d7146107485780633f4218e01461075f57806342966c681461078f57806343859632146107af57600080fd5b806318160ddd116103e95780632535f762116103ad5780632535f7621461068757806328d4ca88146106a757806329d1f4d6146106c75780632e17de78146106f5578063313ce5671461071557600080fd5b806318160ddd146105f25780631f1f5bb314610607578063207b75511461062757806321efe2001461064757806323b872dd1461066757600080fd5b8063097cd9bf11610430578063097cd9bf146105155780630dbd61e41461056c578063118725ce1461058c578063120a8151146105b057806317d63605146105c657600080fd5b8063013cf08b1461046257806306fdde03146104a1578063095ea7b3146104c35780630962ef79146104f3575b600080fd5b34801561046e57600080fd5b5061048261047d366004613a57565b610f3d565b6040516104989a99989796959493929190613acc565b60405180910390f35b3480156104ad57600080fd5b506104b66110b2565b6040516104989190613b62565b3480156104cf57600080fd5b506104e36104de366004613b91565b611144565b6040519015158152602001610498565b3480156104ff57600080fd5b5061051361050e366004613a57565b61115e565b005b34801561052157600080fd5b5061052a61117c565b6040516104989190600060a082019050825182526020830151602083015260408301516040830152606083015160608301526080830151608083015292915050565b34801561057857600080fd5b50610513610587366004613cb1565b6111e3565b34801561059857600080fd5b506105a260095481565b604051908152602001610498565b3480156105bc57600080fd5b506105a2600a5481565b3480156105d257600080fd5b506105a26105e1366004613cff565b602080526000908152604090205481565b3480156105fe57600080fd5b506002546105a2565b34801561061357600080fd5b50610513610622366004613a57565b6112c2565b34801561063357600080fd5b50610513610642366004613d1c565b6113bf565b34801561065357600080fd5b506105a2610662366004613cff565b61140a565b34801561067357600080fd5b506104e3610682366004613d5b565b6114a1565b34801561069357600080fd5b506104e36106a2366004613e14565b6114c5565b3480156106b357600080fd5b506105a26106c2366004613e6d565b6114dc565b3480156106d357600080fd5b506106e76106e2366004613a57565b6115b7565b604051610498929190613ea2565b34801561070157600080fd5b50610513610710366004613a57565b611652565b34801561072157600080fd5b5060405160128152602001610498565b34801561073d57600080fd5b506014546105a29081565b34801561075457600080fd5b506105a26202a30081565b34801561076b57600080fd5b506104e361077a366004613cff565b600e6020526000908152604090205460ff1681565b34801561079b57600080fd5b506105136107aa366004613a57565b611813565b3480156107bb57600080fd5b506104e36107ca366004613f26565b601160209081526000928352604080842090915290825290205460ff1681565b3480156107f657600080fd5b5061051361183a565b34801561080b57600080fd5b5061051361081a366004613b91565b6118a0565b34801561082b57600080fd5b5061083f61083a366004613cff565b61190d565b60405161049891908151815260208083015190820152604080830151908201526060918201519181019190915260800190565b34801561087e57600080fd5b506105a26301e1338081565b34801561089657600080fd5b50610513611986565b3480156108ab57600080fd5b506105136108ba366004613f56565b6119e4565b3480156108cb57600080fd5b506105a260085481565b3480156108e157600080fd5b506105136108f0366004613f9d565b611a04565b34801561090157600080fd5b50600554600160a01b900460ff166104e3565b34801561092057600080fd5b50600c54610934906001600160a01b031681565b6040516001600160a01b039091168152602001610498565b34801561095857600080fd5b506105a260185481565b34801561096e57600080fd5b506105a2600b5481565b34801561098457600080fd5b506105a2610993366004613cff565b611c06565b3480156109a457600080fd5b50610513611c21565b3480156109b957600080fd5b506105a260c881565b3480156109ce57600080fd5b506105a262278d0081565b3480156109e557600080fd5b506105a260175481565b3480156109fb57600080fd5b506105a262ed4e0081565b348015610a1257600080fd5b506105a2610a21366004613a57565b60196020526000908152604090205481565b348015610a3f57600080fd5b506104e3610a4e366004613e6d565b611c35565b348015610a5f57600080fd5b506104e3610a6e36600461402d565b611ddb565b348015610a7f57600080fd5b50610ab5610a8e366004613cff565b60266020526000908152604090208054600182015460028301546003909301549192909184565b604080519485526020850193909352918301526060820152608001610498565b348015610ae157600080fd5b506005546001600160a01b0316610934565b348015610aff57600080fd5b50610513610b0e366004614087565b611f7e565b348015610b1f57600080fd5b506105a26d314dc6448d9338c15b0a0000000081565b348015610b4157600080fd5b506104b6611fe5565b348015610b5657600080fd5b506105a2610b653660046140b3565b611ff4565b610513610b783660046140ee565b6120e1565b348015610b8957600080fd5b50600d54610934906001600160a01b031681565b348015610ba957600080fd5b506105a269d3c21bcecceda100000081565b348015610bc757600080fd5b50610513610bd6366004613a57565b612187565b348015610be757600080fd5b506104e3610bf6366004613b91565b6121cc565b348015610c0757600080fd5b506105a2610c16366004614115565b6121da565b348015610c2757600080fd5b50602154602254602354602454602554610c42949392919085565b604080519586526020860194909452928401919091526060830152608082015260a001610498565b348015610c7657600080fd5b506105a262093a8081565b348015610c8d57600080fd5b50610ca1610c9c366004613b91565b6123f7565b6040805195865260208601949094529284019190915260608301521515608082015260a001610498565b348015610cd757600080fd5b50610513610ce6366004613a57565b612448565b348015610cf757600080fd5b50610513610d0636600461419e565b612495565b348015610d1757600080fd5b506105a2610d26366004613cff565b612561565b348015610d3757600080fd5b506105a26201518081565b348015610d4e57600080fd5b50610513610d5d3660046141ca565b61256c565b348015610d6e57600080fd5b506105a2610d7d366004613cff565b601e6020526000908152604090205481565b348015610d9b57600080fd5b50610513610daa3660046141ed565b61278c565b348015610dbb57600080fd5b506105a2610dca366004613f26565b601260209081526000928352604080842090915290825290205481565b348015610df357600080fd5b506105a2600f5481565b348015610e0957600080fd5b506105a2610e18366004614224565b6001600160a01b03918216600090815260016020908152604080832093909416825291909152205490565b348015610e4f57600080fd5b506105a26276a70081565b348015610e6657600080fd5b506105a2600a81565b348015610e7b57600080fd5b50601a54601b54601c54601d54610e959392919060ff1684565b6040805194855260208501939093529183015215156060820152608001610498565b348015610ec357600080fd5b50610513610ed2366004613cff565b6128e9565b348015610ee357600080fd5b506105a260075481565b348015610ef957600080fd5b50610513610f08366004613a57565b612924565b348015610f1957600080fd5b506104e3610f28366004613a57565b601f6020526000908152604090205460ff1681565b60106020526000908152604090208054600182015460028301805492936001600160a01b0390921692610f6f90614252565b80601f0160208091040260200160405190810160405280929190818152602001828054610f9b90614252565b8015610fe85780601f10610fbd57610100808354040283529160200191610fe8565b820191906000526020600020905b815481529060010190602001808311610fcb57829003601f168201915b5050506003840154600485015460058601546006870154600788015460088901805498999598949750929550909360ff808316946101009093041692909161102f90614252565b80601f016020809104026020016040519081016040528092919081815260200182805461105b90614252565b80156110a85780601f1061107d576101008083540402835291602001916110a8565b820191906000526020600020905b81548152906001019060200180831161108b57829003601f168201915b505050505090508a565b6060600380546110c190614252565b80601f01602080910402602001604051908101604052809291908181526020018280546110ed90614252565b801561113a5780601f1061110f5761010080835404028352916020019161113a565b820191906000526020600020905b81548152906001019060200180831161111d57829003601f168201915b5050505050905090565b600033611152818585612d36565b60019150505b92915050565b611166612d43565b61116f81612d6d565b6111796001600655565b50565b6111ae6040518060a0016040528060008152602001600081526020016000815260200160008152602001600081525090565b506040805160a08101825260215481526022546020820152602354918101919091526024546060820152602554608082015290565b6111eb612f2c565b60005b82518110156112bd5781600e600085848151811061120e5761120e61428c565b60200260200101516001600160a01b03166001600160a01b0316815260200190815260200160002060006101000a81548160ff02191690831515021790555082818151811061125f5761125f61428c565b60200260200101516001600160a01b03167f210f2a4a589e25d95b24cbdb060d26ae79bbe123a564d0f973503d48badd00ca836040516112a3911515815260200190565b60405180910390a2806112b5816142b8565b9150506111ee565b505050565b6112ca612f2c565b60c88111156113165760405162461bcd60e51b81526020600482015260136024820152724665652065786365656473206d6178696d756d60681b60448201526064015b60405180910390fd5b62015180600b5461132791906142d1565b4210156113765760405162461bcd60e51b815260206004820152601760248201527f466565206368616e676520746f6f206672657175656e74000000000000000000604482015260640161130d565b600780549082905542600b5560408051828152602081018490527fcf4c3ba0667a6e28c2746a4ee8d23efa18b2ca17591c2a22c36773a0232661d8910160405180910390a15050565b6113c7612f2c565b60408051608081018252858152602081018590529081018390529015156060909101819052601a93909355601b91909155601c55601d805460ff19169091179055565b600080805b6001600160a01b03841660009081526016602052604090205481101561149a576001600160a01b03841660009081526016602052604081208054839081106114595761145961428c565b90600052602060002090600502016000015411156114885761147b8482612f59565b61148590836142d1565b91505b80611492816142b8565b91505061140f565b5092915050565b6000336114af858285613049565b6114ba8585856130c8565b506001949350505050565b60006114d23385856130c8565b5060019392505050565b600042821161152d5760405162461bcd60e51b815260206004820152601e60248201527f457865637574652074696d65206d75737420626520696e206675747572650000604482015260640161130d565b8261153733611c06565b10156115555760405162461bcd60e51b815260040161130d906142e4565b6040516bffffffffffffffffffffffff1933606090811b8216602084015286901b166034820152604881018490526068810183905242608882015260009060a80160408051808303601f19018152919052805160209091012095945050505050565b60608060008367ffffffffffffffff8111156115d5576115d5613bbd565b6040519080825280602002602001820160405280156115fe578160200160208202803683370190505b50905060008467ffffffffffffffff81111561161c5761161c613bbd565b604051908082528060200260200182016040528015611645578160200160208202803683370190505b5091959194509092505050565b61165a612d43565b3360009081526016602052604090205481106116ae5760405162461bcd60e51b8152602060048201526013602482015272092dcecc2d8d2c840e6e8c2d6ca40d2dcc8caf606b1b604482015260640161130d565b3360009081526016602052604081208054839081106116cf576116cf61428c565b9060005260206000209060050201905060008160000154116117335760405162461bcd60e51b815260206004820152601760248201527f5374616b6520616c72656164792077697468647261776e000000000000000000604482015260640161130d565b60008160010154426117459190614312565b82546003840154919250908190831015611799576000606461176884600a614325565b611772919061433c565b905061177e8184614312565b9150806018600082825461179291906142d1565b9091555050505b6117a285612d6d565b6000808555601780548492906117b9908490614312565b909155506117ca90503033836130c8565b604080518281526020810187905233917f7fc4727e062e336010f2c282598ef5f14facb3de68cf8195c2f23e1454b2b74e910160405180910390a2505050506111796001600655565b61181d3382613127565b806021600101600082825461183291906142d1565b909155505050565b611842612f2c565b61184a61315d565b6040805181815260079181019190915266554e504155534560c81b60608201523360208201527f2a09e26ec96218a3a144df2e04de096b7f0410106a4caff3cdfa5d667e604f2a906080015b60405180910390a1565b6001600160a01b0382166118e95760405162461bcd60e51b815260206004820152601060248201526f125b9d985b1a59081c1c9bdd1bd8dbdb60821b604482015260640161130d565b600081116119095760405162461bcd60e51b815260040161130d9061435e565b5050565b6119386040518060800160405280600081526020016000815260200160008152602001600081525090565b506001600160a01b0316600090815260266020908152604091829020825160808101845281548152600182015492810192909252600281015492820192909252600390910154606082015290565b61198e612f2c565b6119966131ad565b6040805181815260059181019190915264504155534560d81b60608201523360208201527f2a09e26ec96218a3a144df2e04de096b7f0410106a4caff3cdfa5d667e604f2a90608001611896565b600082116119095760405162461bcd60e51b815260040161130d9061435e565b611a0c612d43565b60008311611a5c5760405162461bcd60e51b815260206004820152601760248201527f416d6f756e74206d75737420626520706f736974697665000000000000000000604482015260640161130d565b62278d00821480611a6f57506276a70082145b80611a7c575062ed4e0082145b80611a8a57506301e1338082145b611acc5760405162461bcd60e51b8152602060048201526013602482015272125b9d985b1a59081b1bd8dac81c195c9a5bd9606a1b604482015260640161130d565b82611ad633611c06565b1015611af45760405162461bcd60e51b815260040161130d906142e4565b611aff3330856130c8565b336000908152601660209081526040808320815160a081018352878152428185018181529382019081526060820188815287151560808401908152845460018082018755958952968820935160059097029093019586559351928501929092559051600284015590516003830155516004909101805460ff191691151591909117905560178054859290611b949084906142d1565b909155505033600090815260166020526040812054611bb590600190614312565b604080518681526020810186905290810182905290915033907fb4caaf29adda3eefee3ad552a8e85058589bf834c7466cae4ee58787f70589ed9060600160405180910390a2506112bd6001600655565b6001600160a01b031660009081526020819052604090205490565b611c29612f2c565b611c3360006131f0565b565b601d54600090829060ff1615611dc757336000908152601e60205260409020544311611c9c5760405162461bcd60e51b815260206004820152601660248201527529b0b6b290313637b1b5903a3930b739b0b1ba34b7b760511b604482015260640161130d565b6040805133602080830191909152818301849052825180830384018152606090920183528151918101919091206000908152601f909152205460ff1615611d125760405162461bcd60e51b815260206004820152600a602482015269139bdb98d9481d5cd95960b21b604482015260640161130d565b601c54336000908152602080526040902054611d2e91906142d1565b421015611d705760405162461bcd60e51b815260206004820152601060248201526f10dbdbdb191bdddb881b9bdd081b595d60821b604482015260640161130d565b336000818152601e602090815260408083204390558051808301859052808201869052815180820383018152606090910182528051908301208352601f8252808320805460ff191660011790559282528052204290555b611dd084613242565b6114ba3386866130c8565b60008151835114611e265760405162461bcd60e51b8152602060048201526015602482015274082e4e4c2f240d8cadccee8d040dad2e6dac2e8c6d605b1b604482015260640161130d565b6000835111611e665760405162461bcd60e51b815260206004820152600c60248201526b456d7074792061727261797360a01b604482015260640161130d565b6000805b8351811015611eac57838181518110611e8557611e8561428c565b602002602001015182611e9891906142d1565b915080611ea4816142b8565b915050611e6a565b5080611eb733611c06565b1015611ed55760405162461bcd60e51b815260040161130d906142e4565b60005b8451811015611f3057611f1e33868381518110611ef757611ef761428c565b6020026020010151868481518110611f1157611f1161428c565b60200260200101516130c8565b80611f28816142b8565b915050611ed8565b50835160405133917f762d9d59f4cdcadad8125dfd5b9228c3f3710c17cd800b7e446f4bacba81a69f91611f6c91858252602082015260400190565b60405180910390a25060019392505050565b611f86612f2c565b6001600160a01b0382166000818152600e6020908152604091829020805460ff191685151590811790915591519182527f210f2a4a589e25d95b24cbdb060d26ae79bbe123a564d0f973503d48badd00ca910160405180910390a25050565b6060600480546110c190614252565b600080831180156120055750600082115b6120465760405162461bcd60e51b8152602060048201526012602482015271496e76616c696420706172616d657465727360701b604482015260640161130d565b6120508285614325565b61205933611c06565b10156120775760405162461bcd60e51b815260040161130d906142e4565b6040516bffffffffffffffffffffffff1933606090811b8216602084015287901b1660348201526048810185905260688101849052608881018390524260a882015260009060c80160408051808303601f1901815291905280516020909101209695505050505050565b46830361211d5760405162461bcd60e51b815260206004820152600a60248201526929b0b6b29031b430b4b760b11b604482015260640161130d565b6001600160a01b0382166121675760405162461bcd60e51b8152602060048201526011602482015270125b9d985b1a59081c9958da5c1a595b9d607a1b604482015260640161130d565b600081116112bd5760405162461bcd60e51b815260040161130d9061435e565b600081116111795760405162461bcd60e51b8152602060048201526012602482015271125b9d985b1a590818dbdb1b185d195c985b60721b604482015260640161130d565b6000336111528185856130c8565b600069d3c21bcecceda10000006121f033611c06565b10156122485760405162461bcd60e51b815260206004820152602160248201527f496e73756666696369656e742062616c616e636520666f722070726f706f73616044820152601b60fa1b606482015260840161130d565b600f805460009182612259836142b8565b919050559050604051806101400160405280828152602001336001600160a01b03168152602001868152602001600081526020016000815260200142815260200162093a80426122a991906142d1565b8152600060208201526040018560038111156122c7576122c7613ab6565b8152602090810185905260008381526010825260409081902083518155918301516001830180546001600160a01b0319166001600160a01b03909216919091179055820151600282019061231b90826143d4565b50606082015181600301556080820151816004015560a0820151816005015560c0820151816006015560e08201518160070160006101000a81548160ff0219169083151502179055506101008201518160070160016101000a81548160ff0219169083600381111561238f5761238f613ab6565b021790555061012082015160088201906123a990826143d4565b50905050336001600160a01b0316817f7585f467599d0f008985f231af99293be388626ac16ca59505c2f8f88969cd63876040516123e79190613b62565b60405180910390a3949350505050565b6016602052816000526040600020818154811061241357600080fd5b600091825260209091206005909102018054600182015460028301546003840154600490940154929550909350919060ff1685565b612450612f2c565b8061245a33611c06565b10156124785760405162461bcd60e51b815260040161130d906142e4565b6124833330836130c8565b806018600082825461183291906142d1565b61249d612f2c565b600754816124ab84866142d1565b6124b591906142d1565b1461250c5760405162461bcd60e51b815260206004820152602160248201527f446973747269627574696f6e206d75737420657175616c20746f74616c2066656044820152606560f81b606482015260840161130d565b60088390556009829055600a81905560408051848152602081018490529081018290527f69fc4c7ba13251e049284d74af6f22b2804db0152deb918f6cf17451917fe97f9060600160405180910390a1505050565b600061115882611c06565b600f5482106125b35760405162461bcd60e51b8152602060048201526013602482015272125b9d985b1a59081c1c9bdc1bdcd85b081251606a1b604482015260640161130d565b600082815260116020908152604080832033845290915290205460ff161561260d5760405162461bcd60e51b815260206004820152600d60248201526c105b1c9958591e481d9bdd1959609a1b604482015260640161130d565b6000828152601060205260409020600601544211156126645760405162461bcd60e51b8152602060048201526013602482015272159bdd1a5b99c81c195c9a5bd908195b991959606a1b604482015260640161130d565b600061266f33611c06565b9050600081116126b35760405162461bcd60e51b815260206004820152600f60248201526e2737903b37ba34b733903837bbb2b960891b604482015260640161130d565b600083815260116020908152604080832033808552908352818420805460ff19166001179055868452601283528184209084529091529020819055811561272057600083815260106020526040812060030180548392906127159084906142d1565b909155506127479050565b600083815260106020526040812060040180548392906127419084906142d1565b90915550505b60408051831515815260208101839052339185917fcbdf6214089cba887ecbf35a0b6a734589959c9763342c756bb2a80ca2bc9f6e91015b60405180910390a3505050565b80518251146127d55760405162461bcd60e51b8152602060048201526015602482015274082e4e4c2f240d8cadccee8d040dad2e6dac2e8c6d605b1b604482015260640161130d565b6000805b835181101561281b578381815181106127f4576127f461428c565b60200260200101518261280791906142d1565b915080612813816142b8565b9150506127d9565b508061282633611c06565b10156128445760405162461bcd60e51b815260040161130d906142e4565b60005b83518110156128a05761288e8482815181106128655761286561428c565b602002602001015184838151811061287f5761287f61428c565b60200260200101516000611a04565b80612898816142b8565b915050612847565b50825160405133917f3ecff5ef3d4cd5a6ae5e312eb3120f011fbdec5c46a2c91b50b2524438e8fcee916128dc91858252602082015260400190565b60405180910390a2505050565b6128f1612f2c565b6001600160a01b03811661291b57604051631e4fbdf760e01b81526000600482015260240161130d565b611179816131f0565b600f54811061296b5760405162461bcd60e51b8152602060048201526013602482015272125b9d985b1a59081c1c9bdc1bdcd85b081251606a1b604482015260640161130d565b6000818152601060205260409020600781015460ff16156129c15760405162461bcd60e51b815260206004820152601060248201526f105b1c9958591e48195e1958dd5d195960821b604482015260640161130d565b80600601544211612a0a5760405162461bcd60e51b8152602060048201526013602482015272566f74696e67207374696c6c2061637469766560681b604482015260640161130d565b6202a3008160060154612a1d91906142d1565b4211612a6b5760405162461bcd60e51b815260206004820152601760248201527f457865637574696f6e2064656c6179206e6f74206d6574000000000000000000604482015260640161130d565b600081600401548260030154612a8191906142d1565b905060006064600a612a9260025490565b612a9c9190614325565b612aa6919061433c565b905080821015612ae95760405162461bcd60e51b815260206004820152600e60248201526d145d5bdc9d5b481b9bdd081b595d60921b604482015260640161130d565b8260040154836003015411612b345760405162461bcd60e51b8152602060048201526011602482015270141c9bdc1bdcd85b081c995a9958dd1959607a1b604482015260640161130d565b60078301805460ff19166001908117909155604080516101408101825285548152918501546001600160a01b03166020830152600285018054612d059392879290840191612b8190614252565b80601f0160208091040260200160405190810160405280929190818152602001828054612bad90614252565b8015612bfa5780601f10612bcf57610100808354040283529160200191612bfa565b820191906000526020600020905b815481529060010190602001808311612bdd57829003601f168201915b50505091835250506003828101546020830152600483015460408301526005830154606083015260068301546080830152600783015460ff808216151560a085015260c0909301926101009091041690811115612c5957612c59613ab6565b6003811115612c6a57612c6a613ab6565b8152602001600882018054612c7e90614252565b80601f0160208091040260200160405190810160405280929190818152602001828054612caa90614252565b8015612cf75780601f10612ccc57610100808354040283529160200191612cf7565b820191906000526020600020905b815481529060010190602001808311612cda57829003601f168201915b5050505050815250506132bb565b60405184907f712ae1383f79ac853f8d882153778e0260ef8f03b504e2866e0593e04d2b291f90600090a250505050565b6112bd83838360016133fe565b600260065403612d6657604051633ee5aeb560e01b815260040160405180910390fd5b6002600655565b336000908152601660205260409020548110612dc15760405162461bcd60e51b8152602060048201526013602482015272092dcecc2d8d2c840e6e8c2d6ca40d2dcc8caf606b1b604482015260640161130d565b336000908152601660205260408120805483908110612de257612de261428c565b906000526020600020906005020190506000816000015411612e385760405162461bcd60e51b815260206004820152600f60248201526e4e6f20616374697665207374616b6560881b604482015260640161130d565b6000612e443384612f59565b9050600081118015612e5857506018548111155b156112bd574282600201819055508060186000828254612e789190614312565b9091555050600482015460ff1615612ec25780826000016000828254612e9e91906142d1565b925050819055508060176000828254612eb791906142d1565b90915550612ecd9050565b612ecd3033836130c8565b3360009081526026602052604081206001018054839290612eef9084906142d1565b9091555050604080518281526020810185905233917ff01da32686223933d8a18a391060918c7f11a3648639edd87ae013e2e273174391016128dc565b6005546001600160a01b03163314611c335760405163118cdaa760e01b815233600482015260240161130d565b6001600160a01b0382166000908152601660205260408120805482919084908110612f8657612f8661428c565b600091825260208083206040805160a08101825260059094029091018054808552600182015493850193909352600281015491840191909152600381015460608401526004015460ff16151560808301529092509003612fea576000915050611158565b6000816040015142612ffc9190614312565b606083015160009081526019602052604081205484519293509164496cebb80090849061302a908590614325565b6130349190614325565b61303e919061433c565b979650505050505050565b6001600160a01b038381166000908152600160209081526040808320938616835292905220546000198110156130c257818110156130b357604051637dc7a0d960e11b81526001600160a01b0384166004820152602481018290526044810183905260640161130d565b6130c2848484840360006133fe565b50505050565b6001600160a01b0383166130f257604051634b637e8f60e11b81526000600482015260240161130d565b6001600160a01b03821661311c5760405163ec442f0560e01b81526000600482015260240161130d565b6112bd8383836134d3565b6001600160a01b03821661315157604051634b637e8f60e11b81526000600482015260240161130d565b611909826000836134d3565b613165613844565b6005805460ff60a01b191690557f5db9ee0a495bf2e6ff9c91a7834c1ba4fdd244a5e8aa4e537bd38aeae4b073aa335b6040516001600160a01b039091168152602001611896565b6131b561386e565b6005805460ff60a01b1916600160a01b1790557f62e78cea01bee320cd4e420270b5ea74000d11b0c9f74754ebdbfc544b05a2586131953390565b600580546001600160a01b038381166001600160a01b0319831681179093556040519116919082907f8be0079c531659141344cd1fd0a4f28419497f9722a3daafe3b4186f6b6457e090600090a35050565b601d5460ff1680156132645750336000908152600e602052604090205460ff16155b1561117957601a548111156111795760405162461bcd60e51b815260206004820181905260248201527f5472616e73616374696f6e20616d6f756e742065786365656473206c696d6974604482015260640161130d565b600081610100015160038111156132d4576132d4613ab6565b036133435760008161012001518060200190518101906132f49190614494565b905060c881111561333d5760405162461bcd60e51b81526020600482015260136024820152724665652065786365656473206d6178696d756d60681b604482015260640161130d565b60075550565b6001816101000151600381111561335c5761335c613ab6565b036111795760008082610120015180602001905181019061337d91906144ad565b600c5491935091508190613399906001600160a01b0316611c06565b10156133e75760405162461bcd60e51b815260206004820152601d60248201527f496e73756666696369656e742074726561737572792062616c616e6365000000604482015260640161130d565b600c546112bd906001600160a01b031683836130c8565b6001600160a01b0384166134285760405163e602df0560e01b81526000600482015260240161130d565b6001600160a01b03831661345257604051634a1406b160e11b81526000600482015260240161130d565b6001600160a01b03808516600090815260016020908152604080832093871683529290522082905580156130c257826001600160a01b0316846001600160a01b03167f8c5be1e5ebec7d5bd14f71427d1e84f3dd0314c0f7b2291e5b200ac8c7c3b925846040516134c591815260200190565b60405180910390a350505050565b6134db61386e565b6001600160a01b038316158015906134fb57506001600160a01b03821615155b1561350b5761350b838383613899565b6001600160a01b038316158061352857506001600160a01b038216155b806135335750600754155b8061355657506001600160a01b0383166000908152600e602052604090205460ff165b8061357957506001600160a01b0382166000908152600e602052604090205460ff165b156135f35761358983838361393a565b6001600160a01b038316158015906135a957506001600160a01b03821615155b156112bd57816001600160a01b0316836001600160a01b03167f59abb1a21ac9c02d9c217285768a906af17496e4cada7962f129b92f0ac948cf8360405161277f91815260200190565b601d5460ff16801561360e57506001600160a01b0383163014155b801561362357506001600160a01b0382163014155b156136ae5761363181613242565b601b548161363e84611c06565b61364891906142d1565b11156136ae576001600160a01b0382166000908152600e602052604090205460ff166136ae5760405162461bcd60e51b815260206004820152601560248201527415d85b1b195d081b1a5b5a5d08195e18d959591959605a1b604482015260640161130d565b6000612710600754836136c19190614325565b6136cb919061433c565b90506000600754600854836136e09190614325565b6136ea919061433c565b90506000600754600954846136ff9190614325565b613709919061433c565b90506000816137188486614312565b6137229190614312565b905060006137308587614312565b9050831561375057600c546137509089906001600160a01b03168661393a565b821561376e57600d5461376e9089906001600160a01b03168561393a565b81156137995761377e8883613127565b816021600101600082825461379391906142d1565b90915550505b6137a488888361393a565b84602160000160008282546137b991906142d1565b90915550506001600160a01b038816600090815260266020526040812080548792906137e69084906142d1565b92505081905550866001600160a01b0316886001600160a01b03167f59abb1a21ac9c02d9c217285768a906af17496e4cada7962f129b92f0ac948cf8360405161383291815260200190565b60405180910390a35050505050505050565b600554600160a01b900460ff16611c3357604051638dfc202b60e01b815260040160405180910390fd5b600554600160a01b900460ff1615611c335760405163d93c066560e01b815260040160405180910390fd5b602580549060006138a9836142b8565b90915550506001600160a01b03831660009081526026602052604081206002018054916138d5836142b8565b90915550506001600160a01b038216600090815260266020526040812060030154900361392f576001600160a01b0382166000908152602660205260408120426003909101556024805491613929836142b8565b91905055505b505060175460235550565b6001600160a01b03831661396557806002600082825461395a91906142d1565b909155506139d79050565b6001600160a01b038316600090815260208190526040902054818110156139b85760405163391434e360e21b81526001600160a01b0385166004820152602481018290526044810183905260640161130d565b6001600160a01b03841660009081526020819052604090209082900390555b6001600160a01b0382166139f357600280548290039055613a12565b6001600160a01b03821660009081526020819052604090208054820190555b816001600160a01b0316836001600160a01b03167fddf252ad1be2c89b69c2b068fc378daa952ba7f163c4a11628f55a4df523b3ef8360405161277f91815260200190565b600060208284031215613a6957600080fd5b5035919050565b6000815180845260005b81811015613a9657602081850181015186830182015201613a7a565b506000602082860101526020601f19601f83011685010191505092915050565b634e487b7160e01b600052602160045260246000fd5b8a81526001600160a01b038a16602082015261014060408201819052600090613af78382018c613a70565b90508960608401528860808401528760a08401528660c084015285151560e084015260048510613b3757634e487b7160e01b600052602160045260246000fd5b84610100840152828103610120840152613b518185613a70565b9d9c50505050505050505050505050565b602081526000613b756020830184613a70565b9392505050565b6001600160a01b038116811461117957600080fd5b60008060408385031215613ba457600080fd5b8235613baf81613b7c565b946020939093013593505050565b634e487b7160e01b600052604160045260246000fd5b604051601f8201601f1916810167ffffffffffffffff81118282101715613bfc57613bfc613bbd565b604052919050565b600067ffffffffffffffff821115613c1e57613c1e613bbd565b5060051b60200190565b600082601f830112613c3957600080fd5b81356020613c4e613c4983613c04565b613bd3565b82815260059290921b84018101918181019086841115613c6d57600080fd5b8286015b84811015613c91578035613c8481613b7c565b8352918301918301613c71565b509695505050505050565b80358015158114613cac57600080fd5b919050565b60008060408385031215613cc457600080fd5b823567ffffffffffffffff811115613cdb57600080fd5b613ce785828601613c28565b925050613cf660208401613c9c565b90509250929050565b600060208284031215613d1157600080fd5b8135613b7581613b7c565b60008060008060808587031215613d3257600080fd5b843593506020850135925060408501359150613d5060608601613c9c565b905092959194509250565b600080600060608486031215613d7057600080fd5b8335613d7b81613b7c565b92506020840135613d8b81613b7c565b929592945050506040919091013590565b600067ffffffffffffffff831115613db657613db6613bbd565b613dc9601f8401601f1916602001613bd3565b9050828152838383011115613ddd57600080fd5b828260208301376000602084830101529392505050565b600082601f830112613e0557600080fd5b613b7583833560208501613d9c565b600080600060608486031215613e2957600080fd5b8335613e3481613b7c565b925060208401359150604084013567ffffffffffffffff811115613e5757600080fd5b613e6386828701613df4565b9150509250925092565b600080600060608486031215613e8257600080fd5b8335613e8d81613b7c565b95602085013595506040909401359392505050565b604080825283519082018190526000906020906060840190828701845b82811015613ee45781516001600160a01b031684529284019290840190600101613ebf565b5050508381038285015284518082528583019183019060005b81811015613f1957835183529284019291840191600101613efd565b5090979650505050505050565b60008060408385031215613f3957600080fd5b823591506020830135613f4b81613b7c565b809150509250929050565b60008060408385031215613f6957600080fd5b82359150602083013567ffffffffffffffff811115613f8757600080fd5b613f9385828601613df4565b9150509250929050565b600080600060608486031215613fb257600080fd5b8335925060208401359150613fc960408501613c9c565b90509250925092565b600082601f830112613fe357600080fd5b81356020613ff3613c4983613c04565b82815260059290921b8401810191818101908684111561401257600080fd5b8286015b84811015613c915780358352918301918301614016565b6000806040838503121561404057600080fd5b823567ffffffffffffffff8082111561405857600080fd5b61406486838701613c28565b9350602085013591508082111561407a57600080fd5b50613f9385828601613fd2565b6000806040838503121561409a57600080fd5b82356140a581613b7c565b9150613cf660208401613c9c565b600080600080608085870312156140c957600080fd5b84356140d481613b7c565b966020860135965060408601359560600135945092505050565b60008060006060848603121561410357600080fd5b833592506020840135613d8b81613b7c565b60008060006060848603121561412a57600080fd5b833567ffffffffffffffff8082111561414257600080fd5b818601915086601f83011261415657600080fd5b61416587833560208501613d9c565b9450602086013591506004821061417b57600080fd5b9092506040850135908082111561419157600080fd5b50613e6386828701613df4565b6000806000606084860312156141b357600080fd5b505081359360208301359350604090920135919050565b600080604083850312156141dd57600080fd5b82359150613cf660208401613c9c565b6000806040838503121561420057600080fd5b823567ffffffffffffffff8082111561421857600080fd5b61406486838701613fd2565b6000806040838503121561423757600080fd5b823561424281613b7c565b91506020830135613f4b81613b7c565b600181811c9082168061426657607f821691505b60208210810361428657634e487b7160e01b600052602260045260246000fd5b50919050565b634e487b7160e01b600052603260045260246000fd5b634e487b7160e01b600052601160045260246000fd5b6000600182016142ca576142ca6142a2565b5060010190565b80820180821115611158576111586142a2565b602080825260149082015273496e73756666696369656e742062616c616e636560601b604082015260600190565b81810381811115611158576111586142a2565b8082028115828204841417611158576111586142a2565b60008261435957634e487b7160e01b600052601260045260246000fd5b500490565b6020808252600e908201526d125b9d985b1a5908185b5bdd5b9d60921b604082015260600190565b601f8211156112bd57600081815260208120601f850160051c810160208610156143ad5750805b601f850160051c820191505b818110156143cc578281556001016143b9565b505050505050565b815167ffffffffffffffff8111156143ee576143ee613bbd565b614402816143fc8454614252565b84614386565b602080601f831160018114614437576000841561441f5750858301515b600019600386901b1c1916600185901b1785556143cc565b600085815260208120601f198616915b8281101561446657888601518255948401946001909101908401614447565b50858210156144845787850151600019600388901b60f8161c191681555b5050505050600190811b01905550565b6000602082840312156144a657600080fd5b5051919050565b600080604083850312156144c057600080fd5b82516144cb81613b7c565b602093909301519294929350505056fea2646970667358221220c526bbb64f04b39f0c47929e2a0abdf5ee88172d6ec5e7fa8adae6198b6dcffc64736f6c6343000814003359abb1a21ac9c02d9c217285768a906af17496e4cada7962f129b92f0ac948cf","opcodes":"PUSH1 0x80 PUSH1 0x40 MSTORE PUSH1 0x64 PUSH1 0x7 SSTORE PUSH1 0x32 PUSH1 0x8 SSTORE PUSH1 0x14 PUSH1 0x9 SSTORE PUSH1 0x1E PUSH1 0xA SSTORE CALLVALUE DUP1 ISZERO PUSH3 0x25 JUMPI PUSH1 0x0 DUP1 REVERT JUMPDEST POP PUSH1 0x40 MLOAD PUSH3 0x5262 CODESIZE SUB DUP1 PUSH3 0x5262 DUP4 CODECOPY DUP2 ADD PUSH1 0x40 DUP2 SWAP1 MSTORE PUSH3 0x48 SWAP2 PUSH3 0xAD8 JUMP JUMPDEST CALLER PUSH1 0x40 MLOAD DUP1 PUSH1 0x40 ADD PUSH1 0x40 MSTORE DUP1 PUSH1 0xA DUP2 MSTORE PUSH1 0x20 ADD PUSH10 0x466961436F696E207635 PUSH1 0xB0 SHL DUP2 MSTORE POP PUSH1 0x40 MLOAD DUP1 PUSH1 0x40 ADD PUSH1 0x40 MSTORE DUP1 PUSH1 0x3 DUP2 MSTORE PUSH1 0x20 ADD PUSH3 0x464941 PUSH1 0xE8 SHL DUP2 MSTORE POP DUP2 PUSH1 0x3 SWAP1 DUP2 PUSH3 0x99 SWAP2 SWAP1 PUSH3 0xBB4 JUMP JUMPDEST POP PUSH1 0x4 PUSH3 0xA8 DUP3 DUP3 PUSH3 0xBB4 JUMP JUMPDEST POP POP POP PUSH1 0x1 PUSH1 0x1 PUSH1 0xA0 SHL SUB DUP2 AND PUSH3 0xDB JUMPI PUSH1 0x40 MLOAD PUSH4 0x1E4FBDF7 PUSH1 0xE0 SHL DUP2 MSTORE PUSH1 0x0 PUSH1 0x4 DUP3 ADD MSTORE PUSH1 0x24 ADD JUMPDEST PUSH1 0x40 MLOAD DUP1 SWAP2 SUB SWAP1 REVERT JUMPDEST PUSH3 0xE6 DUP2 PUSH3 0x3B4 JUMP JUMPDEST POP PUSH1 0x1 PUSH1 0x6 SSTORE PUSH1 0x1 PUSH1 0x1 PUSH1 0xA0 SHL SUB DUP3 AND ISZERO DUP1 ISZERO SWAP1 PUSH3 0x10D JUMPI POP PUSH1 0x1 PUSH1 0x1 PUSH1 0xA0 SHL SUB DUP2 AND ISZERO ISZERO JUMPDEST PUSH3 0x15B JUMPI PUSH1 0x40 MLOAD PUSH3 0x461BCD PUSH1 0xE5 SHL DUP2 MSTORE PUSH1 0x20 PUSH1 0x4 DUP3 ADD MSTORE PUSH1 0x18 PUSH1 0x24 DUP3 ADD MSTORE PUSH32 0x5A65726F2061646472657373206E6F7420616C6C6F7765640000000000000000 PUSH1 0x44 DUP3 ADD MSTORE PUSH1 0x64 ADD PUSH3 0xD2 JUMP JUMPDEST PUSH1 0xC DUP1 SLOAD PUSH1 0x1 PUSH1 0x1 PUSH1 0xA0 SHL SUB DUP1 DUP6 AND PUSH1 0x1 PUSH1 0x1 PUSH1 0xA0 SHL SUB NOT SWAP3 DUP4 AND OR SWAP1 SWAP3 SSTORE PUSH1 0xD DUP1 SLOAD SWAP3 DUP5 AND SWAP3 SWAP1 SWAP2 AND SWAP2 SWAP1 SWAP2 OR SWAP1 SSTORE TIMESTAMP PUSH1 0xB SSTORE PUSH1 0x7 SLOAD PUSH1 0xA SLOAD PUSH1 0x9 SLOAD PUSH1 0x8 SLOAD PUSH3 0x1A7 SWAP2 SWAP1 PUSH3 0xC96 JUMP JUMPDEST PUSH3 0x1B3 SWAP2 SWAP1 PUSH3 0xC96 JUMP JUMPDEST EQ PUSH3 0x202 JUMPI PUSH1 0x40 MLOAD PUSH3 0x461BCD PUSH1 0xE5 SHL DUP2 MSTORE PUSH1 0x20 PUSH1 0x4 DUP3 ADD MSTORE PUSH1 0x18 PUSH1 0x24 DUP3 ADD MSTORE PUSH32 0x496E76616C69642066656520646973747269627574696F6E0000000000000000 PUSH1 0x44 DUP3 ADD MSTORE PUSH1 0x64 ADD PUSH3 0xD2 JUMP JUMPDEST PUSH1 0x19 PUSH1 0x20 MSTORE PUSH2 0x12C PUSH32 0xAF1774A4F6312A67D03643FE08542E260CDA7D8B905CBB7085846027ECAEF158 SSTORE PUSH2 0x1F4 PUSH32 0xBBDF772DD069BB77379687C1D3B4635BBDA0A6D8016B1121AF6B8DA851CFB004 SSTORE PUSH2 0x2BC PUSH32 0xBCF299C23372FD87F20FB7625B0FB3BA9396D4E14305D49A2411C3C391F5D9E SSTORE PUSH4 0x1E13380 PUSH1 0x0 MSTORE PUSH2 0x384 PUSH32 0x4C25271B32E1EB374138A133C5CA2EB142BF386419A3CBC5C3211087D6DF5D34 SSTORE PUSH1 0x40 DUP1 MLOAD PUSH1 0x80 DUP2 ADD SWAP1 SWAP2 MSTORE DUP1 PUSH3 0x2CB PUSH2 0x3E8 PUSH14 0x314DC6448D9338C15B0A00000000 PUSH3 0xCB2 JUMP JUMPDEST DUP2 MSTORE PUSH1 0x20 ADD PUSH3 0x2EB PUSH1 0x64 PUSH14 0x314DC6448D9338C15B0A00000000 PUSH3 0xCB2 JUMP JUMPDEST DUP2 MSTORE PUSH1 0x3C PUSH1 0x20 DUP1 DUP4 ADD SWAP2 SWAP1 SWAP2 MSTORE PUSH1 0x1 PUSH1 0x40 SWAP3 DUP4 ADD DUP2 SWAP1 MSTORE DUP4 MLOAD PUSH1 0x1A SSTORE SWAP1 DUP4 ADD MLOAD PUSH1 0x1B SSTORE SWAP1 DUP3 ADD MLOAD PUSH1 0x1C SSTORE PUSH1 0x60 SWAP1 SWAP2 ADD MLOAD PUSH1 0x1D DUP1 SLOAD PUSH1 0xFF NOT AND SWAP2 ISZERO ISZERO SWAP2 SWAP1 SWAP2 OR SWAP1 SSTORE PUSH1 0x13 DUP1 SLOAD DUP1 DUP4 ADD DUP3 SSTORE PUSH1 0x0 SWAP2 SWAP1 SWAP2 MSTORE PUSH32 0x66DE8FFDA797E3DE9C05E8FC57B3BF0EC28A930D40B0D285D93C06501CF6A090 ADD DUP1 SLOAD CALLER PUSH1 0x1 PUSH1 0x1 PUSH1 0xA0 SHL SUB NOT SWAP1 SWAP2 AND DUP2 OR SWAP1 SWAP2 SSTORE PUSH1 0x14 SWAP2 SWAP1 SWAP2 SSTORE PUSH3 0x391 SWAP1 PUSH14 0x314DC6448D9338C15B0A00000000 PUSH3 0x406 JUMP JUMPDEST POP POP PUSH1 0x1 PUSH1 0x24 SSTORE CALLER PUSH1 0x0 SWAP1 DUP2 MSTORE PUSH1 0x26 PUSH1 0x20 MSTORE PUSH1 0x40 SWAP1 KECCAK256 TIMESTAMP PUSH1 0x3 SWAP1 SWAP2 ADD SSTORE PUSH3 0xD21 JUMP JUMPDEST PUSH1 0x5 DUP1 SLOAD PUSH1 0x1 PUSH1 0x1 PUSH1 0xA0 SHL SUB DUP4 DUP2 AND PUSH1 0x1 PUSH1 0x1 PUSH1 0xA0 SHL SUB NOT DUP4 AND DUP2 OR SWAP1 SWAP4 SSTORE PUSH1 0x40 MLOAD SWAP2 AND SWAP2 SWAP1 DUP3 SWAP1 PUSH32 0x8BE0079C531659141344CD1FD0A4F28419497F9722A3DAAFE3B4186F6B6457E0 SWAP1 PUSH1 0x0 SWAP1 LOG3 POP POP JUMP JUMPDEST PUSH1 0x1 PUSH1 0x1 PUSH1 0xA0 SHL SUB DUP3 AND PUSH3 0x432 JUMPI PUSH1 0x40 MLOAD PUSH4 0xEC442F05 PUSH1 0xE0 SHL DUP2 MSTORE PUSH1 0x0 PUSH1 0x4 DUP3 ADD MSTORE PUSH1 0x24 ADD PUSH3 0xD2 JUMP JUMPDEST PUSH3 0x440 PUSH1 0x0 DUP4 DUP4 PUSH3 0x444 JUMP JUMPDEST POP POP JUMP JUMPDEST PUSH3 0x44E PUSH3 0x7FE JUMP JUMPDEST PUSH1 0x1 PUSH1 0x1 PUSH1 0xA0 SHL SUB DUP4 AND ISZERO DUP1 ISZERO SWAP1 PUSH3 0x46F JUMPI POP PUSH1 0x1 PUSH1 0x1 PUSH1 0xA0 SHL SUB DUP3 AND ISZERO ISZERO JUMPDEST ISZERO PUSH3 0x482 JUMPI PUSH3 0x482 DUP4 DUP4 DUP4 PUSH3 0x833 JUMP JUMPDEST PUSH1 0x1 PUSH1 0x1 PUSH1 0xA0 SHL SUB DUP4 AND ISZERO DUP1 PUSH3 0x4A0 JUMPI POP PUSH1 0x1 PUSH1 0x1 PUSH1 0xA0 SHL SUB DUP3 AND ISZERO JUMPDEST DUP1 PUSH3 0x4AC JUMPI POP PUSH1 0x7 SLOAD ISZERO JUMPDEST DUP1 PUSH3 0x4D0 JUMPI POP PUSH1 0x1 PUSH1 0x1 PUSH1 0xA0 SHL SUB DUP4 AND PUSH1 0x0 SWAP1 DUP2 MSTORE PUSH1 0xE PUSH1 0x20 MSTORE PUSH1 0x40 SWAP1 KECCAK256 SLOAD PUSH1 0xFF AND JUMPDEST DUP1 PUSH3 0x4F4 JUMPI POP PUSH1 0x1 PUSH1 0x1 PUSH1 0xA0 SHL SUB DUP3 AND PUSH1 0x0 SWAP1 DUP2 MSTORE PUSH1 0xE PUSH1 0x20 MSTORE PUSH1 0x40 SWAP1 KECCAK256 SLOAD PUSH1 0xFF AND JUMPDEST ISZERO PUSH3 0x571 JUMPI PUSH3 0x507 DUP4 DUP4 DUP4 PUSH3 0x8DB JUMP JUMPDEST PUSH1 0x1 PUSH1 0x1 PUSH1 0xA0 SHL SUB DUP4 AND ISZERO DUP1 ISZERO SWAP1 PUSH3 0x528 JUMPI POP PUSH1 0x1 PUSH1 0x1 PUSH1 0xA0 SHL SUB DUP3 AND ISZERO ISZERO JUMPDEST ISZERO PUSH3 0x56C JUMPI DUP2 PUSH1 0x1 PUSH1 0x1 PUSH1 0xA0 SHL SUB AND DUP4 PUSH1 0x1 PUSH1 0x1 PUSH1 0xA0 SHL SUB AND PUSH1 0x0 DUP1 MLOAD PUSH1 0x20 PUSH3 0x5242 DUP4 CODECOPY DUP2 MLOAD SWAP2 MSTORE DUP4 PUSH1 0x40 MLOAD PUSH3 0x563 SWAP2 DUP2 MSTORE PUSH1 0x20 ADD SWAP1 JUMP JUMPDEST PUSH1 0x40 MLOAD DUP1 SWAP2 SUB SWAP1 LOG3 JUMPDEST POP POP POP JUMP JUMPDEST PUSH1 0x1D SLOAD PUSH1 0xFF AND DUP1 ISZERO PUSH3 0x58D JUMPI POP PUSH1 0x1 PUSH1 0x1 PUSH1 0xA0 SHL SUB DUP4 AND ADDRESS EQ ISZERO JUMPDEST DUP1 ISZERO PUSH3 0x5A3 JUMPI POP PUSH1 0x1 PUSH1 0x1 PUSH1 0xA0 SHL SUB DUP3 AND ADDRESS EQ ISZERO JUMPDEST ISZERO PUSH3 0x655 JUMPI PUSH3 0x5B4 DUP2 PUSH3 0xA01 JUMP JUMPDEST PUSH1 0x1B SLOAD DUP2 PUSH3 0x5D8 DUP5 PUSH1 0x1 PUSH1 0x1 PUSH1 0xA0 SHL SUB AND PUSH1 0x0 SWAP1 DUP2 MSTORE PUSH1 0x20 DUP2 SWAP1 MSTORE PUSH1 0x40 SWAP1 KECCAK256 SLOAD SWAP1 JUMP JUMPDEST PUSH3 0x5E4 SWAP2 SWAP1 PUSH3 0xC96 JUMP JUMPDEST GT ISZERO PUSH3 0x655 JUMPI PUSH1 0x1 PUSH1 0x1 PUSH1 0xA0 SHL SUB DUP3 AND PUSH1 0x0 SWAP1 DUP2 MSTORE PUSH1 0xE PUSH1 0x20 MSTORE PUSH1 0x40 SWAP1 KECCAK256 SLOAD PUSH1 0xFF AND PUSH3 0x655 JUMPI PUSH1 0x40 MLOAD PUSH3 0x461BCD PUSH1 0xE5 SHL DUP2 MSTORE PUSH1 0x20 PUSH1 0x4 DUP3 ADD MSTORE PUSH1 0x15 PUSH1 0x24 DUP3 ADD MSTORE PUSH32 0x57616C6C6574206C696D69742065786365656465640000000000000000000000 PUSH1 0x44 DUP3 ADD MSTORE PUSH1 0x64 ADD PUSH3 0xD2 JUMP JUMPDEST PUSH1 0x0 PUSH2 0x2710 PUSH1 0x7 SLOAD DUP4 PUSH3 0x66A SWAP2 SWAP1 PUSH3 0xCD5 JUMP JUMPDEST PUSH3 0x676 SWAP2 SWAP1 PUSH3 0xCB2 JUMP JUMPDEST SWAP1 POP PUSH1 0x0 PUSH1 0x7 SLOAD PUSH1 0x8 SLOAD DUP4 PUSH3 0x68D SWAP2 SWAP1 PUSH3 0xCD5 JUMP JUMPDEST PUSH3 0x699 SWAP2 SWAP1 PUSH3 0xCB2 JUMP JUMPDEST SWAP1 POP PUSH1 0x0 PUSH1 0x7 SLOAD PUSH1 0x9 SLOAD DUP5 PUSH3 0x6B0 SWAP2 SWAP1 PUSH3 0xCD5 JUMP JUMPDEST PUSH3 0x6BC SWAP2 SWAP1 PUSH3 0xCB2 JUMP JUMPDEST SWAP1 POP PUSH1 0x0 DUP2 PUSH3 0x6CD DUP5 DUP7 PUSH3 0xCEF JUMP JUMPDEST PUSH3 0x6D9 SWAP2 SWAP1 PUSH3 0xCEF JUMP JUMPDEST SWAP1 POP PUSH1 0x0 PUSH3 0x6E9 DUP6 DUP8 PUSH3 0xCEF JUMP JUMPDEST SWAP1 POP DUP4 ISZERO PUSH3 0x70C JUMPI PUSH1 0xC SLOAD PUSH3 0x70C SWAP1 DUP10 SWAP1 PUSH1 0x1 PUSH1 0x1 PUSH1 0xA0 SHL SUB AND DUP7 PUSH3 0x8DB JUMP JUMPDEST DUP3 ISZERO PUSH3 0x72D JUMPI PUSH1 0xD SLOAD PUSH3 0x72D SWAP1 DUP10 SWAP1 PUSH1 0x1 PUSH1 0x1 PUSH1 0xA0 SHL SUB AND DUP6 PUSH3 0x8DB JUMP JUMPDEST DUP2 ISZERO PUSH3 0x75D JUMPI PUSH3 0x740 DUP9 DUP4 PUSH3 0xA81 JUMP JUMPDEST DUP2 PUSH1 0x21 PUSH1 0x1 ADD PUSH1 0x0 DUP3 DUP3 SLOAD PUSH3 0x757 SWAP2 SWAP1 PUSH3 0xC96 JUMP JUMPDEST SWAP1 SWAP2 SSTORE POP POP JUMPDEST PUSH3 0x76A DUP9 DUP9 DUP4 PUSH3 0x8DB JUMP JUMPDEST DUP5 PUSH1 0x21 PUSH1 0x0 ADD PUSH1 0x0 DUP3 DUP3 SLOAD PUSH3 0x781 SWAP2 SWAP1 PUSH3 0xC96 JUMP JUMPDEST SWAP1 SWAP2 SSTORE POP POP PUSH1 0x1 PUSH1 0x1 PUSH1 0xA0 SHL SUB DUP9 AND PUSH1 0x0 SWAP1 DUP2 MSTORE PUSH1 0x26 PUSH1 0x20 MSTORE PUSH1 0x40 DUP2 KECCAK256 DUP1 SLOAD DUP8 SWAP3 SWAP1 PUSH3 0x7B0 SWAP1 DUP5 SWAP1 PUSH3 0xC96 JUMP JUMPDEST SWAP3 POP POP DUP2 SWAP1 SSTORE POP DUP7 PUSH1 0x1 PUSH1 0x1 PUSH1 0xA0 SHL SUB AND DUP9 PUSH1 0x1 PUSH1 0x1 PUSH1 0xA0 SHL SUB AND PUSH1 0x0 DUP1 MLOAD PUSH1 0x20 PUSH3 0x5242 DUP4 CODECOPY DUP2 MLOAD SWAP2 MSTORE DUP4 PUSH1 0x40 MLOAD PUSH3 0x7EC SWAP2 DUP2 MSTORE PUSH1 0x20 ADD SWAP1 JUMP JUMPDEST PUSH1 0x40 MLOAD DUP1 SWAP2 SUB SWAP1 LOG3 POP POP POP POP POP POP POP POP JUMP JUMPDEST PUSH3 0x812 PUSH1 0x5 SLOAD PUSH1 0x1 PUSH1 0xA0 SHL SWAP1 DIV PUSH1 0xFF AND SWAP1 JUMP JUMPDEST ISZERO PUSH3 0x831 JUMPI PUSH1 0x40 MLOAD PUSH4 0xD93C0665 PUSH1 0xE0 SHL DUP2 MSTORE PUSH1 0x4 ADD PUSH1 0x40 MLOAD DUP1 SWAP2 SUB SWAP1 REVERT JUMPDEST JUMP JUMPDEST PUSH1 0x25 DUP1 SLOAD SWAP1 PUSH1 0x0 PUSH3 0x845 DUP4 PUSH3 0xD05 JUMP JUMPDEST SWAP1 SWAP2 SSTORE POP POP PUSH1 0x1 PUSH1 0x1 PUSH1 0xA0 SHL SUB DUP4 AND PUSH1 0x0 SWAP1 DUP2 MSTORE PUSH1 0x26 PUSH1 0x20 MSTORE PUSH1 0x40 DUP2 KECCAK256 PUSH1 0x2 ADD DUP1 SLOAD SWAP2 PUSH3 0x873 DUP4 PUSH3 0xD05 JUMP JUMPDEST SWAP1 SWAP2 SSTORE POP POP PUSH1 0x1 PUSH1 0x1 PUSH1 0xA0 SHL SUB DUP3 AND PUSH1 0x0 SWAP1 DUP2 MSTORE PUSH1 0x26 PUSH1 0x20 MSTORE PUSH1 0x40 DUP2 KECCAK256 PUSH1 0x3 ADD SLOAD SWAP1 SUB PUSH3 0x8D0 JUMPI PUSH1 0x1 PUSH1 0x1 PUSH1 0xA0 SHL SUB DUP3 AND PUSH1 0x0 SWAP1 DUP2 MSTORE PUSH1 0x26 PUSH1 0x20 MSTORE PUSH1 0x40 DUP2 KECCAK256 TIMESTAMP PUSH1 0x3 SWAP1 SWAP2 ADD SSTORE PUSH1 0x24 DUP1 SLOAD SWAP2 PUSH3 0x8CA DUP4 PUSH3 0xD05 JUMP JUMPDEST SWAP2 SWAP1 POP SSTORE POP JUMPDEST POP POP PUSH1 0x17 SLOAD PUSH1 0x23 SSTORE POP JUMP JUMPDEST PUSH1 0x1 PUSH1 0x1 PUSH1 0xA0 SHL SUB DUP4 AND PUSH3 0x90A JUMPI DUP1 PUSH1 0x2 PUSH1 0x0 DUP3 DUP3 SLOAD PUSH3 0x8FE SWAP2 SWAP1 PUSH3 0xC96 JUMP JUMPDEST SWAP1 SWAP2 SSTORE POP PUSH3 0x97E SWAP1 POP JUMP JUMPDEST PUSH1 0x1 PUSH1 0x1 PUSH1 0xA0 SHL SUB DUP4 AND PUSH1 0x0 SWAP1 DUP2 MSTORE PUSH1 0x20 DUP2 SWAP1 MSTORE PUSH1 0x40 SWAP1 KECCAK256 SLOAD DUP2 DUP2 LT ISZERO PUSH3 0x95F JUMPI PUSH1 0x40 MLOAD PUSH4 0x391434E3 PUSH1 0xE2 SHL DUP2 MSTORE PUSH1 0x1 PUSH1 0x1 PUSH1 0xA0 SHL SUB DUP6 AND PUSH1 0x4 DUP3 ADD MSTORE PUSH1 0x24 DUP2 ADD DUP3 SWAP1 MSTORE PUSH1 0x44 DUP2 ADD DUP4 SWAP1 MSTORE PUSH1 0x64 ADD PUSH3 0xD2 JUMP JUMPDEST PUSH1 0x1 PUSH1 0x1 PUSH1 0xA0 SHL SUB DUP5 AND PUSH1 0x0 SWAP1 DUP2 MSTORE PUSH1 0x20 DUP2 SWAP1 MSTORE PUSH1 0x40 SWAP1 KECCAK256 SWAP1 DUP3 SWAP1 SUB SWAP1 SSTORE JUMPDEST PUSH1 0x1 PUSH1 0x1 PUSH1 0xA0 SHL SUB DUP3 AND PUSH3 0x99C JUMPI PUSH1 0x2 DUP1 SLOAD DUP3 SWAP1 SUB SWAP1 SSTORE PUSH3 0x9BB JUMP JUMPDEST PUSH1 0x1 PUSH1 0x1 PUSH1 0xA0 SHL SUB DUP3 AND PUSH1 0x0 SWAP1 DUP2 MSTORE PUSH1 0x20 DUP2 SWAP1 MSTORE PUSH1 0x40 SWAP1 KECCAK256 DUP1 SLOAD DUP3 ADD SWAP1 SSTORE JUMPDEST DUP2 PUSH1 0x1 PUSH1 0x1 PUSH1 0xA0 SHL SUB AND DUP4 PUSH1 0x1 PUSH1 0x1 PUSH1 0xA0 SHL SUB AND PUSH32 0xDDF252AD1BE2C89B69C2B068FC378DAA952BA7F163C4A11628F55A4DF523B3EF DUP4 PUSH1 0x40 MLOAD PUSH3 0x563 SWAP2 DUP2 MSTORE PUSH1 0x20 ADD SWAP1 JUMP JUMPDEST PUSH1 0x1D SLOAD PUSH1 0xFF AND DUP1 ISZERO PUSH3 0xA24 JUMPI POP CALLER PUSH1 0x0 SWAP1 DUP2 MSTORE PUSH1 0xE PUSH1 0x20 MSTORE PUSH1 0x40 SWAP1 KECCAK256 SLOAD PUSH1 0xFF AND ISZERO JUMPDEST ISZERO PUSH3 0xA7E JUMPI PUSH1 0x1A SLOAD DUP2 GT ISZERO PUSH3 0xA7E JUMPI PUSH1 0x40 MLOAD PUSH3 0x461BCD PUSH1 0xE5 SHL DUP2 MSTORE PUSH1 0x20 PUSH1 0x4 DUP3 ADD DUP2 SWAP1 MSTORE PUSH1 0x24 DUP3 ADD MSTORE PUSH32 0x5472616E73616374696F6E20616D6F756E742065786365656473206C696D6974 PUSH1 0x44 DUP3 ADD MSTORE PUSH1 0x64 ADD PUSH3 0xD2 JUMP JUMPDEST POP JUMP JUMPDEST PUSH1 0x1 PUSH1 0x1 PUSH1 0xA0 SHL SUB DUP3 AND PUSH3 0xAAD JUMPI PUSH1 0x40 MLOAD PUSH4 0x4B637E8F PUSH1 0xE1 SHL DUP2 MSTORE PUSH1 0x0 PUSH1 0x4 DUP3 ADD MSTORE PUSH1 0x24 ADD PUSH3 0xD2 JUMP JUMPDEST PUSH3 0x440 DUP3 PUSH1 0x0 DUP4 PUSH3 0x444 JUMP JUMPDEST DUP1 MLOAD PUSH1 0x1 PUSH1 0x1 PUSH1 0xA0 SHL SUB DUP2 AND DUP2 EQ PUSH3 0xAD3 JUMPI PUSH1 0x0 DUP1 REVERT JUMPDEST SWAP2 SWAP1 POP JUMP JUMPDEST PUSH1 0x0 DUP1 PUSH1 0x40 DUP4 DUP6 SUB SLT ISZERO PUSH3 0xAEC JUMPI PUSH1 0x0 DUP1 REVERT JUMPDEST PUSH3 0xAF7 DUP4 PUSH3 0xABB JUMP JUMPDEST SWAP2 POP PUSH3 0xB07 PUSH1 0x20 DUP5 ADD PUSH3 0xABB JUMP JUMPDEST SWAP1 POP SWAP3 POP SWAP3 SWAP1 POP JUMP JUMPDEST PUSH4 0x4E487B71 PUSH1 0xE0 SHL PUSH1 0x0 MSTORE PUSH1 0x41 PUSH1 0x4 MSTORE PUSH1 0x24 PUSH1 0x0 REVERT JUMPDEST PUSH1 0x1 DUP2 DUP2 SHR SWAP1 DUP3 AND DUP1 PUSH3 0xB3B JUMPI PUSH1 0x7F DUP3 AND SWAP2 POP JUMPDEST PUSH1 0x20 DUP3 LT DUP2 SUB PUSH3 0xB5C JUMPI PUSH4 0x4E487B71 PUSH1 0xE0 SHL PUSH1 0x0 MSTORE PUSH1 0x22 PUSH1 0x4 MSTORE PUSH1 0x24 PUSH1 0x0 REVERT JUMPDEST POP SWAP2 SWAP1 POP JUMP JUMPDEST PUSH1 0x1F DUP3 GT ISZERO PUSH3 0x56C JUMPI PUSH1 0x0 DUP2 DUP2 MSTORE PUSH1 0x20 DUP2 KECCAK256 PUSH1 0x1F DUP6 ADD PUSH1 0x5 SHR DUP2 ADD PUSH1 0x20 DUP7 LT ISZERO PUSH3 0xB8B JUMPI POP DUP1 JUMPDEST PUSH1 0x1F DUP6 ADD PUSH1 0x5 SHR DUP3 ADD SWAP2 POP JUMPDEST DUP2 DUP2 LT ISZERO PUSH3 0xBAC JUMPI DUP3 DUP2 SSTORE PUSH1 0x1 ADD PUSH3 0xB97 JUMP JUMPDEST POP POP POP POP POP POP JUMP JUMPDEST DUP2 MLOAD PUSH1 0x1 PUSH1 0x1 PUSH1 0x40 SHL SUB DUP2 GT ISZERO PUSH3 0xBD0 JUMPI PUSH3 0xBD0 PUSH3 0xB10 JUMP JUMPDEST PUSH3 0xBE8 DUP2 PUSH3 0xBE1 DUP5 SLOAD PUSH3 0xB26 JUMP JUMPDEST DUP5 PUSH3 0xB62 JUMP JUMPDEST PUSH1 0x20 DUP1 PUSH1 0x1F DUP4 GT PUSH1 0x1 DUP2 EQ PUSH3 0xC20 JUMPI PUSH1 0x0 DUP5 ISZERO PUSH3 0xC07 JUMPI POP DUP6 DUP4 ADD MLOAD JUMPDEST PUSH1 0x0 NOT PUSH1 0x3 DUP7 SWAP1 SHL SHR NOT AND PUSH1 0x1 DUP6 SWAP1 SHL OR DUP6 SSTORE PUSH3 0xBAC JUMP JUMPDEST PUSH1 0x0 DUP6 DUP2 MSTORE PUSH1 0x20 DUP2 KECCAK256 PUSH1 0x1F NOT DUP7 AND SWAP2 JUMPDEST DUP3 DUP2 LT ISZERO PUSH3 0xC51 JUMPI DUP9 DUP7 ADD MLOAD DUP3 SSTORE SWAP5 DUP5 ADD SWAP5 PUSH1 0x1 SWAP1 SWAP2 ADD SWAP1 DUP5 ADD PUSH3 0xC30 JUMP JUMPDEST POP DUP6 DUP3 LT ISZERO PUSH3 0xC70 JUMPI DUP8 DUP6 ADD MLOAD PUSH1 0x0 NOT PUSH1 0x3 DUP9 SWAP1 SHL PUSH1 0xF8 AND SHR NOT AND DUP2 SSTORE JUMPDEST POP POP POP POP POP PUSH1 0x1 SWAP1 DUP2 SHL ADD SWAP1 SSTORE POP JUMP JUMPDEST PUSH4 0x4E487B71 PUSH1 0xE0 SHL PUSH1 0x0 MSTORE PUSH1 0x11 PUSH1 0x4 MSTORE PUSH1 0x24 PUSH1 0x0 REVERT JUMPDEST DUP1 DUP3 ADD DUP1 DUP3 GT ISZERO PUSH3 0xCAC JUMPI PUSH3 0xCAC PUSH3 0xC80 JUMP JUMPDEST SWAP3 SWAP2 POP POP JUMP JUMPDEST PUSH1 0x0 DUP3 PUSH3 0xCD0 JUMPI PUSH4 0x4E487B71 PUSH1 0xE0 SHL PUSH1 0x0 MSTORE PUSH1 0x12 PUSH1 0x4 MSTORE PUSH1 0x24 PUSH1 0x0 REVERT JUMPDEST POP DIV SWAP1 JUMP JUMPDEST DUP1 DUP3 MUL DUP2 ISZERO DUP3 DUP3 DIV DUP5 EQ OR PUSH3 0xCAC JUMPI PUSH3 0xCAC PUSH3 0xC80 JUMP JUMPDEST DUP2 DUP2 SUB DUP2 DUP2 GT ISZERO PUSH3 0xCAC JUMPI PUSH3 0xCAC PUSH3 0xC80 JUMP JUMPDEST PUSH1 0x0 PUSH1 0x1 DUP3 ADD PUSH3 0xD1A JUMPI PUSH3 0xD1A PUSH3 0xC80 JUMP JUMPDEST POP PUSH1 0x1 ADD SWAP1 JUMP JUMPDEST PUSH2 0x4511 DUP1 PUSH3 0xD31 PUSH1 0x0 CODECOPY PUSH1 0x0 RETURN INVALID PUSH1 0x80 PUSH1 0x40 MSTORE PUSH1 0x4 CALLDATASIZE LT PUSH2 0x45D JUMPI PUSH1 0x0 CALLDATALOAD PUSH1 0xE0 SHR DUP1 PUSH4 0x7C6E5DB7 GT PUSH2 0x23F JUMPI DUP1 PUSH4 0xB1610D7E GT PUSH2 0x139 JUMPI DUP1 PUSH4 0xD90125A5 GT PUSH2 0xB6 JUMPI DUP1 PUSH4 0xF270FDE4 GT PUSH2 0x7A JUMPI DUP1 PUSH4 0xF270FDE4 EQ PUSH2 0xE6F JUMPI DUP1 PUSH4 0xF2FDE38B EQ PUSH2 0xEB7 JUMPI DUP1 PUSH4 0xF6141345 EQ PUSH2 0xED7 JUMPI DUP1 PUSH4 0xFE0D94C1 EQ PUSH2 0xEED JUMPI DUP1 PUSH4 0xFEB61724 EQ PUSH2 0xF0D JUMPI PUSH1 0x0 DUP1 REVERT JUMPDEST DUP1 PUSH4 0xD90125A5 EQ PUSH2 0xDAF JUMPI DUP1 PUSH4 0xDA35C664 EQ PUSH2 0xDE7 JUMPI DUP1 PUSH4 0xDD62ED3E EQ PUSH2 0xDFD JUMPI DUP1 PUSH4 0xE37C3A55 EQ PUSH2 0xE43 JUMPI DUP1 PUSH4 0xEE8A7C15 EQ PUSH2 0xE5A JUMPI PUSH1 0x0 DUP1 REVERT JUMPDEST DUP1 PUSH4 0xBB4D4436 GT PUSH2 0xFD JUMPI DUP1 PUSH4 0xBB4D4436 EQ PUSH2 0xD0B JUMPI DUP1 PUSH4 0xBE8A361F EQ PUSH2 0xD2B JUMPI DUP1 PUSH4 0xC9D27AFE EQ PUSH2 0xD42 JUMPI DUP1 PUSH4 0xCEB88A16 EQ PUSH2 0xD62 JUMPI DUP1 PUSH4 0xD49FAB8A EQ PUSH2 0xD8F JUMPI PUSH1 0x0 DUP1 REVERT JUMPDEST DUP1 PUSH4 0xB1610D7E EQ PUSH2 0xC6A JUMPI DUP1 PUSH4 0xB5D5B5FA EQ PUSH2 0xC81 JUMPI DUP1 PUSH4 0xB6B80605 EQ PUSH2 0x6C7 JUMPI DUP1 PUSH4 0xB95FFBCE EQ PUSH2 0xCCB JUMPI DUP1 PUSH4 0xBA8E568F EQ PUSH2 0xCEB JUMPI PUSH1 0x0 DUP1 REVERT JUMPDEST DUP1 PUSH4 0x902D55A5 GT PUSH2 0x1C7 JUMPI DUP1 PUSH4 0xA6C26603 GT PUSH2 0x18B JUMPI DUP1 PUSH4 0xA6C26603 EQ PUSH2 0xB9D JUMPI DUP1 PUSH4 0xA852AFD3 EQ PUSH2 0xBBB JUMPI DUP1 PUSH4 0xA9059CBB EQ PUSH2 0xBDB JUMPI DUP1 PUSH4 0xAD1CECB2 EQ PUSH2 0xBFB JUMPI DUP1 PUSH4 0xB0DFD2E6 EQ PUSH2 0xC1B JUMPI PUSH1 0x0 DUP1 REVERT JUMPDEST DUP1 PUSH4 0x902D55A5 EQ PUSH2 0xB13 JUMPI DUP1 PUSH4 0x95D89B41 EQ PUSH2 0xB35 JUMPI DUP1 PUSH4 0x9B22DD7A EQ PUSH2 0xB4A JUMPI DUP1 PUSH4 0x9F3D5F4A EQ PUSH2 0xB6A JUMPI DUP1 PUSH4 0xA23D3C35 EQ PUSH2 0xB7D JUMPI PUSH1 0x0 DUP1 REVERT JUMPDEST DUP1 PUSH4 0x8893002F GT PUSH2 0x20E JUMPI DUP1 PUSH4 0x8893002F EQ PUSH2 0xA33 JUMPI DUP1 PUSH4 0x88D695B2 EQ PUSH2 0xA53 JUMPI DUP1 PUSH4 0x8A65D874 EQ PUSH2 0xA73 JUMPI DUP1 PUSH4 0x8DA5CB5B EQ PUSH2 0xAD5 JUMPI DUP1 PUSH4 0x8EBFC796 EQ PUSH2 0xAF3 JUMPI PUSH1 0x0 DUP1 REVERT JUMPDEST DUP1 PUSH4 0x7C6E5DB7 EQ PUSH2 0x9C2 JUMPI DUP1 PUSH4 0x817B1CD2 EQ PUSH2 0x9D9 JUMPI DUP1 PUSH4 0x82865218 EQ PUSH2 0x9EF JUMPI DUP1 PUSH4 0x875BB4E2 EQ PUSH2 0xA06 JUMPI PUSH1 0x0 DUP1 REVERT JUMPDEST DUP1 PUSH4 0x36E0004A GT PUSH2 0x35B JUMPI DUP1 PUSH4 0x5296A431 GT PUSH2 0x2D8 JUMPI DUP1 PUSH4 0x66666AA9 GT PUSH2 0x29C JUMPI DUP1 PUSH4 0x66666AA9 EQ PUSH2 0x94C JUMPI DUP1 PUSH4 0x69505688 EQ PUSH2 0x962 JUMPI DUP1 PUSH4 0x70A08231 EQ PUSH2 0x978 JUMPI DUP1 PUSH4 0x715018A6 EQ PUSH2 0x998 JUMPI DUP1 PUSH4 0x7C4CCBEA EQ PUSH2 0x9AD JUMPI PUSH1 0x0 DUP1 REVERT JUMPDEST DUP1 PUSH4 0x5296A431 EQ PUSH2 0x89F JUMPI DUP1 PUSH4 0x55EF9B5E EQ PUSH2 0x8BF JUMPI DUP1 PUSH4 0x561B2463 EQ PUSH2 0x8D5 JUMPI DUP1 PUSH4 0x5C975ABB EQ PUSH2 0x8F5 JUMPI DUP1 PUSH4 0x61D027B3 EQ PUSH2 0x914 JUMPI PUSH1 0x0 DUP1 REVERT JUMPDEST DUP1 PUSH4 0x4A4E3BD5 GT PUSH2 0x31F JUMPI DUP1 PUSH4 0x4A4E3BD5 EQ PUSH2 0x7EA JUMPI DUP1 PUSH4 0x4AA21C75 EQ PUSH2 0x7FF JUMPI DUP1 PUSH4 0x4E43603A EQ PUSH2 0x81F JUMPI DUP1 PUSH4 0x51383F98 EQ PUSH2 0x872 JUMPI DUP1 PUSH4 0x51858E27 EQ PUSH2 0x88A JUMPI PUSH1 0x0 DUP1 REVERT JUMPDEST DUP1 PUSH4 0x36E0004A EQ PUSH2 0x731 JUMPI DUP1 PUSH4 0x37F135D7 EQ PUSH2 0x748 JUMPI DUP1 PUSH4 0x3F4218E0 EQ PUSH2 0x75F JUMPI DUP1 PUSH4 0x42966C68 EQ PUSH2 0x78F JUMPI DUP1 PUSH4 0x43859632 EQ PUSH2 0x7AF JUMPI PUSH1 0x0 DUP1 REVERT JUMPDEST DUP1 PUSH4 0x18160DDD GT PUSH2 0x3E9 JUMPI DUP1 PUSH4 0x2535F762 GT PUSH2 0x3AD JUMPI DUP1 PUSH4 0x2535F762 EQ PUSH2 0x687 JUMPI DUP1 PUSH4 0x28D4CA88 EQ PUSH2 0x6A7 JUMPI DUP1 PUSH4 0x29D1F4D6 EQ PUSH2 0x6C7 JUMPI DUP1 PUSH4 0x2E17DE78 EQ PUSH2 0x6F5 JUMPI DUP1 PUSH4 0x313CE567 EQ PUSH2 0x715 JUMPI PUSH1 0x0 DUP1 REVERT JUMPDEST DUP1 PUSH4 0x18160DDD EQ PUSH2 0x5F2 JUMPI DUP1 PUSH4 0x1F1F5BB3 EQ PUSH2 0x607 JUMPI DUP1 PUSH4 0x207B7551 EQ PUSH2 0x627 JUMPI DUP1 PUSH4 0x21EFE200 EQ PUSH2 0x647 JUMPI DUP1 PUSH4 0x23B872DD EQ PUSH2 0x667 JUMPI PUSH1 0x0 DUP1 REVERT JUMPDEST DUP1 PUSH4 0x97CD9BF GT PUSH2 0x430 JUMPI DUP1 PUSH4 0x97CD9BF EQ PUSH2 0x515 JUMPI DUP1 PUSH4 0xDBD61E4 EQ PUSH2 0x56C JUMPI DUP1 PUSH4 0x118725CE EQ PUSH2 0x58C JUMPI DUP1 PUSH4 0x120A8151 EQ PUSH2 0x5B0 JUMPI DUP1 PUSH4 0x17D63605 EQ PUSH2 0x5C6 JUMPI PUSH1 0x0 DUP1 REVERT JUMPDEST DUP1 PUSH4 0x13CF08B EQ PUSH2 0x462 JUMPI DUP1 PUSH4 0x6FDDE03 EQ PUSH2 0x4A1 JUMPI DUP1 PUSH4 0x95EA7B3 EQ PUSH2 0x4C3 JUMPI DUP1 PUSH4 0x962EF79 EQ PUSH2 0x4F3 JUMPI JUMPDEST PUSH1 0x0 DUP1 REVERT JUMPDEST CALLVALUE DUP1 ISZERO PUSH2 0x46E JUMPI PUSH1 0x0 DUP1 REVERT JUMPDEST POP PUSH2 0x482 PUSH2 0x47D CALLDATASIZE PUSH1 0x4 PUSH2 0x3A57 JUMP JUMPDEST PUSH2 0xF3D JUMP JUMPDEST PUSH1 0x40 MLOAD PUSH2 0x498 SWAP11 SWAP10 SWAP9 SWAP8 SWAP7 SWAP6 SWAP5 SWAP4 SWAP3 SWAP2 SWAP1 PUSH2 0x3ACC JUMP JUMPDEST PUSH1 0x40 MLOAD DUP1 SWAP2 SUB SWAP1 RETURN JUMPDEST CALLVALUE DUP1 ISZERO PUSH2 0x4AD JUMPI PUSH1 0x0 DUP1 REVERT JUMPDEST POP PUSH2 0x4B6 PUSH2 0x10B2 JUMP JUMPDEST PUSH1 0x40 MLOAD PUSH2 0x498 SWAP2 SWAP1 PUSH2 0x3B62 JUMP JUMPDEST CALLVALUE DUP1 ISZERO PUSH2 0x4CF JUMPI PUSH1 0x0 DUP1 REVERT JUMPDEST POP PUSH2 0x4E3 PUSH2 0x4DE CALLDATASIZE PUSH1 0x4 PUSH2 0x3B91 JUMP JUMPDEST PUSH2 0x1144 JUMP JUMPDEST PUSH1 0x40 MLOAD SWAP1 ISZERO ISZERO DUP2 MSTORE PUSH1 0x20 ADD PUSH2 0x498 JUMP JUMPDEST CALLVALUE DUP1 ISZERO PUSH2 0x4FF JUMPI PUSH1 0x0 DUP1 REVERT JUMPDEST POP PUSH2 0x513 PUSH2 0x50E CALLDATASIZE PUSH1 0x4 PUSH2 0x3A57 JUMP JUMPDEST PUSH2 0x115E JUMP JUMPDEST STOP JUMPDEST CALLVALUE DUP1 ISZERO PUSH2 0x521 JUMPI PUSH1 0x0 DUP1 REVERT JUMPDEST POP PUSH2 0x52A PUSH2 0x117C JUMP JUMPDEST PUSH1 0x40 MLOAD PUSH2 0x498 SWAP2 SWAP1 PUSH1 0x0 PUSH1 0xA0 DUP3 ADD SWAP1 POP DUP3 MLOAD DUP3 MSTORE PUSH1 0x20 DUP4 ADD MLOAD PUSH1 0x20 DUP4 ADD MSTORE PUSH1 0x40 DUP4 ADD MLOAD PUSH1 0x40 DUP4 ADD MSTORE PUSH1 0x60 DUP4 ADD MLOAD PUSH1 0x60 DUP4 ADD MSTORE PUSH1 0x80 DUP4 ADD MLOAD PUSH1 0x80 DUP4 ADD MSTORE SWAP3 SWAP2 POP POP JUMP JUMPDEST CALLVALUE DUP1 ISZERO PUSH2 0x578 JUMPI PUSH1 0x0 DUP1 REVERT JUMPDEST POP PUSH2 0x513 PUSH2 0x587 CALLDATASIZE PUSH1 0x4 PUSH2 0x3CB1 JUMP JUMPDEST PUSH2 0x11E3 JUMP JUMPDEST CALLVALUE DUP1 ISZERO PUSH2 0x598 JUMPI PUSH1 0x0 DUP1 REVERT JUMPDEST POP PUSH2 0x5A2 PUSH1 0x9 SLOAD DUP2 JUMP JUMPDEST PUSH1 0x40 MLOAD SWAP1 DUP2 MSTORE PUSH1 0x20 ADD PUSH2 0x498 JUMP JUMPDEST CALLVALUE DUP1 ISZERO PUSH2 0x5BC JUMPI PUSH1 0x0 DUP1 REVERT JUMPDEST POP PUSH2 0x5A2 PUSH1 0xA SLOAD DUP2 JUMP JUMPDEST CALLVALUE DUP1 ISZERO PUSH2 0x5D2 JUMPI PUSH1 0x0 DUP1 REVERT JUMPDEST POP PUSH2 0x5A2 PUSH2 0x5E1 CALLDATASIZE PUSH1 0x4 PUSH2 0x3CFF JUMP JUMPDEST PUSH1 0x20 DUP1 MSTORE PUSH1 0x0 SWAP1 DUP2 MSTORE PUSH1 0x40 SWAP1 KECCAK256 SLOAD DUP2 JUMP JUMPDEST CALLVALUE DUP1 ISZERO PUSH2 0x5FE JUMPI PUSH1 0x0 DUP1 REVERT JUMPDEST POP PUSH1 0x2 SLOAD PUSH2 0x5A2 JUMP JUMPDEST CALLVALUE DUP1 ISZERO PUSH2 0x613 JUMPI PUSH1 0x0 DUP1 REVERT JUMPDEST POP PUSH2 0x513 PUSH2 0x622 CALLDATASIZE PUSH1 0x4 PUSH2 0x3A57 JUMP JUMPDEST PUSH2 0x12C2 JUMP JUMPDEST CALLVALUE DUP1 ISZERO PUSH2 0x633 JUMPI PUSH1 0x0 DUP1 REVERT JUMPDEST POP PUSH2 0x513 PUSH2 0x642 CALLDATASIZE PUSH1 0x4 PUSH2 0x3D1C JUMP JUMPDEST PUSH2 0x13BF JUMP JUMPDEST CALLVALUE DUP1 ISZERO PUSH2 0x653 JUMPI PUSH1 0x0 DUP1 REVERT JUMPDEST POP PUSH2 0x5A2 PUSH2 0x662 CALLDATASIZE PUSH1 0x4 PUSH2 0x3CFF JUMP JUMPDEST PUSH2 0x140A JUMP JUMPDEST CALLVALUE DUP1 ISZERO PUSH2 0x673 JUMPI PUSH1 0x0 DUP1 REVERT JUMPDEST POP PUSH2 0x4E3 PUSH2 0x682 CALLDATASIZE PUSH1 0x4 PUSH2 0x3D5B JUMP JUMPDEST PUSH2 0x14A1 JUMP JUMPDEST CALLVALUE DUP1 ISZERO PUSH2 0x693 JUMPI PUSH1 0x0 DUP1 REVERT JUMPDEST POP PUSH2 0x4E3 PUSH2 0x6A2 CALLDATASIZE PUSH1 0x4 PUSH2 0x3E14 JUMP JUMPDEST PUSH2 0x14C5 JUMP JUMPDEST CALLVALUE DUP1 ISZERO PUSH2 0x6B3 JUMPI PUSH1 0x0 DUP1 REVERT JUMPDEST POP PUSH2 0x5A2 PUSH2 0x6C2 CALLDATASIZE PUSH1 0x4 PUSH2 0x3E6D JUMP JUMPDEST PUSH2 0x14DC JUMP JUMPDEST CALLVALUE DUP1 ISZERO PUSH2 0x6D3 JUMPI PUSH1 0x0 DUP1 REVERT JUMPDEST POP PUSH2 0x6E7 PUSH2 0x6E2 CALLDATASIZE PUSH1 0x4 PUSH2 0x3A57 JUMP JUMPDEST PUSH2 0x15B7 JUMP JUMPDEST PUSH1 0x40 MLOAD PUSH2 0x498 SWAP3 SWAP2 SWAP1 PUSH2 0x3EA2 JUMP JUMPDEST CALLVALUE DUP1 ISZERO PUSH2 0x701 JUMPI PUSH1 0x0 DUP1 REVERT JUMPDEST POP PUSH2 0x513 PUSH2 0x710 CALLDATASIZE PUSH1 0x4 PUSH2 0x3A57 JUMP JUMPDEST PUSH2 0x1652 JUMP JUMPDEST CALLVALUE DUP1 ISZERO PUSH2 0x721 JUMPI PUSH1 0x0 DUP1 REVERT JUMPDEST POP PUSH1 0x40 MLOAD PUSH1 0x12 DUP2 MSTORE PUSH1 0x20 ADD PUSH2 0x498 JUMP JUMPDEST CALLVALUE DUP1 ISZERO PUSH2 0x73D JUMPI PUSH1 0x0 DUP1 REVERT JUMPDEST POP PUSH1 0x14 SLOAD PUSH2 0x5A2 SWAP1 DUP2 JUMP JUMPDEST CALLVALUE DUP1 ISZERO PUSH2 0x754 JUMPI PUSH1 0x0 DUP1 REVERT JUMPDEST POP PUSH2 0x5A2 PUSH3 0x2A300 DUP2 JUMP JUMPDEST CALLVALUE DUP1 ISZERO PUSH2 0x76B JUMPI PUSH1 0x0 DUP1 REVERT JUMPDEST POP PUSH2 0x4E3 PUSH2 0x77A CALLDATASIZE PUSH1 0x4 PUSH2 0x3CFF JUMP JUMPDEST PUSH1 0xE PUSH1 0x20 MSTORE PUSH1 0x0 SWAP1 DUP2 MSTORE PUSH1 0x40 SWAP1 KECCAK256 SLOAD PUSH1 0xFF AND DUP2 JUMP JUMPDEST CALLVALUE DUP1 ISZERO PUSH2 0x79B JUMPI PUSH1 0x0 DUP1 REVERT JUMPDEST POP PUSH2 0x513 PUSH2 0x7AA CALLDATASIZE PUSH1 0x4 PUSH2 0x3A57 JUMP JUMPDEST PUSH2 0x1813 JUMP JUMPDEST CALLVALUE DUP1 ISZERO PUSH2 0x7BB JUMPI PUSH1 0x0 DUP1 REVERT JUMPDEST POP PUSH2 0x4E3 PUSH2 0x7CA CALLDATASIZE PUSH1 0x4 PUSH2 0x3F26 JUMP JUMPDEST PUSH1 0x11 PUSH1 0x20 SWAP1 DUP2 MSTORE PUSH1 0x0 SWAP3 DUP4 MSTORE PUSH1 0x40 DUP1 DUP5 KECCAK256 SWAP1 SWAP2 MSTORE SWAP1 DUP3 MSTORE SWAP1 KECCAK256 SLOAD PUSH1 0xFF AND DUP2 JUMP JUMPDEST CALLVALUE DUP1 ISZERO PUSH2 0x7F6 JUMPI PUSH1 0x0 DUP1 REVERT JUMPDEST POP PUSH2 0x513 PUSH2 0x183A JUMP JUMPDEST CALLVALUE DUP1 ISZERO PUSH2 0x80B JUMPI PUSH1 0x0 DUP1 REVERT JUMPDEST POP PUSH2 0x513 PUSH2 0x81A CALLDATASIZE PUSH1 0x4 PUSH2 0x3B91 JUMP JUMPDEST PUSH2 0x18A0 JUMP JUMPDEST CALLVALUE DUP1 ISZERO PUSH2 0x82B JUMPI PUSH1 0x0 DUP1 REVERT JUMPDEST POP PUSH2 0x83F PUSH2 0x83A CALLDATASIZE PUSH1 0x4 PUSH2 0x3CFF JUMP JUMPDEST PUSH2 0x190D JUMP JUMPDEST PUSH1 0x40 MLOAD PUSH2 0x498 SWAP2 SWAP1 DUP2 MLOAD DUP2 MSTORE PUSH1 0x20 DUP1 DUP4 ADD MLOAD SWAP1 DUP3 ADD MSTORE PUSH1 0x40 DUP1 DUP4 ADD MLOAD SWAP1 DUP3 ADD MSTORE PUSH1 0x60 SWAP2 DUP3 ADD MLOAD SWAP2 DUP2 ADD SWAP2 SWAP1 SWAP2 MSTORE PUSH1 0x80 ADD SWAP1 JUMP JUMPDEST CALLVALUE DUP1 ISZERO PUSH2 0x87E JUMPI PUSH1 0x0 DUP1 REVERT JUMPDEST POP PUSH2 0x5A2 PUSH4 0x1E13380 DUP2 JUMP JUMPDEST CALLVALUE DUP1 ISZERO PUSH2 0x896 JUMPI PUSH1 0x0 DUP1 REVERT JUMPDEST POP PUSH2 0x513 PUSH2 0x1986 JUMP JUMPDEST CALLVALUE DUP1 ISZERO PUSH2 0x8AB JUMPI PUSH1 0x0 DUP1 REVERT JUMPDEST POP PUSH2 0x513 PUSH2 0x8BA CALLDATASIZE PUSH1 0x4 PUSH2 0x3F56 JUMP JUMPDEST PUSH2 0x19E4 JUMP JUMPDEST CALLVALUE DUP1 ISZERO PUSH2 0x8CB JUMPI PUSH1 0x0 DUP1 REVERT JUMPDEST POP PUSH2 0x5A2 PUSH1 0x8 SLOAD DUP2 JUMP JUMPDEST CALLVALUE DUP1 ISZERO PUSH2 0x8E1 JUMPI PUSH1 0x0 DUP1 REVERT JUMPDEST POP PUSH2 0x513 PUSH2 0x8F0 CALLDATASIZE PUSH1 0x4 PUSH2 0x3F9D JUMP JUMPDEST PUSH2 0x1A04 JUMP JUMPDEST CALLVALUE DUP1 ISZERO PUSH2 0x901 JUMPI PUSH1 0x0 DUP1 REVERT JUMPDEST POP PUSH1 0x5 SLOAD PUSH1 0x1 PUSH1 0xA0 SHL SWAP1 DIV PUSH1 0xFF AND PUSH2 0x4E3 JUMP JUMPDEST CALLVALUE DUP1 ISZERO PUSH2 0x920 JUMPI PUSH1 0x0 DUP1 REVERT JUMPDEST POP PUSH1 0xC SLOAD PUSH2 0x934 SWAP1 PUSH1 0x1 PUSH1 0x1 PUSH1 0xA0 SHL SUB AND DUP2 JUMP JUMPDEST PUSH1 0x40 MLOAD PUSH1 0x1 PUSH1 0x1 PUSH1 0xA0 SHL SUB SWAP1 SWAP2 AND DUP2 MSTORE PUSH1 0x20 ADD PUSH2 0x498 JUMP JUMPDEST CALLVALUE DUP1 ISZERO PUSH2 0x958 JUMPI PUSH1 0x0 DUP1 REVERT JUMPDEST POP PUSH2 0x5A2 PUSH1 0x18 SLOAD DUP2 JUMP JUMPDEST CALLVALUE DUP1 ISZERO PUSH2 0x96E JUMPI PUSH1 0x0 DUP1 REVERT JUMPDEST POP PUSH2 0x5A2 PUSH1 0xB SLOAD DUP2 JUMP JUMPDEST CALLVALUE DUP1 ISZERO PUSH2 0x984 JUMPI PUSH1 0x0 DUP1 REVERT JUMPDEST POP PUSH2 0x5A2 PUSH2 0x993 CALLDATASIZE PUSH1 0x4 PUSH2 0x3CFF JUMP JUMPDEST PUSH2 0x1C06 JUMP JUMPDEST CALLVALUE DUP1 ISZERO PUSH2 0x9A4 JUMPI PUSH1 0x0 DUP1 REVERT JUMPDEST POP PUSH2 0x513 PUSH2 0x1C21 JUMP JUMPDEST CALLVALUE DUP1 ISZERO PUSH2 0x9B9 JUMPI PUSH1 0x0 DUP1 REVERT JUMPDEST POP PUSH2 0x5A2 PUSH1 0xC8 DUP2 JUMP JUMPDEST CALLVALUE DUP1 ISZERO PUSH2 0x9CE JUMPI PUSH1 0x0 DUP1 REVERT JUMPDEST POP PUSH2 0x5A2 PUSH3 0x278D00 DUP2 JUMP JUMPDEST CALLVALUE DUP1 ISZERO PUSH2 0x9E5 JUMPI PUSH1 0x0 DUP1 REVERT JUMPDEST POP PUSH2 0x5A2 PUSH1 0x17 SLOAD DUP2 JUMP JUMPDEST CALLVALUE DUP1 ISZERO PUSH2 0x9FB JUMPI PUSH1 0x0 DUP1 REVERT JUMPDEST POP PUSH2 0x5A2 PUSH3 0xED4E00 DUP2 JUMP JUMPDEST CALLVALUE DUP1 ISZERO PUSH2 0xA12 JUMPI PUSH1 0x0 DUP1 REVERT JUMPDEST POP PUSH2 0x5A2 PUSH2 0xA21 CALLDATASIZE PUSH1 0x4 PUSH2 0x3A57 JUMP JUMPDEST PUSH1 0x19 PUSH1 0x20 MSTORE PUSH1 0x0 SWAP1 DUP2 MSTORE PUSH1 0x40 SWAP1 KECCAK256 SLOAD DUP2 JUMP JUMPDEST CALLVALUE DUP1 ISZERO PUSH2 0xA3F JUMPI PUSH1 0x0 DUP1 REVERT JUMPDEST POP PUSH2 0x4E3 PUSH2 0xA4E CALLDATASIZE PUSH1 0x4 PUSH2 0x3E6D JUMP JUMPDEST PUSH2 0x1C35 JUMP JUMPDEST CALLVALUE DUP1 ISZERO PUSH2 0xA5F JUMPI PUSH1 0x0 DUP1 REVERT JUMPDEST POP PUSH2 0x4E3 PUSH2 0xA6E CALLDATASIZE PUSH1 0x4 PUSH2 0x402D JUMP JUMPDEST PUSH2 0x1DDB JUMP JUMPDEST CALLVALUE DUP1 ISZERO PUSH2 0xA7F JUMPI PUSH1 0x0 DUP1 REVERT JUMPDEST POP PUSH2 0xAB5 PUSH2 0xA8E CALLDATASIZE PUSH1 0x4 PUSH2 0x3CFF JUMP JUMPDEST PUSH1 0x26 PUSH1 0x20 MSTORE PUSH1 0x0 SWAP1 DUP2 MSTORE PUSH1 0x40 SWAP1 KECCAK256 DUP1 SLOAD PUSH1 0x1 DUP3 ADD SLOAD PUSH1 0x2 DUP4 ADD SLOAD PUSH1 0x3 SWAP1 SWAP4 ADD SLOAD SWAP2 SWAP3 SWAP1 SWAP2 DUP5 JUMP JUMPDEST PUSH1 0x40 DUP1 MLOAD SWAP5 DUP6 MSTORE PUSH1 0x20 DUP6 ADD SWAP4 SWAP1 SWAP4 MSTORE SWAP2 DUP4 ADD MSTORE PUSH1 0x60 DUP3 ADD MSTORE PUSH1 0x80 ADD PUSH2 0x498 JUMP JUMPDEST CALLVALUE DUP1 ISZERO PUSH2 0xAE1 JUMPI PUSH1 0x0 DUP1 REVERT JUMPDEST POP PUSH1 0x5 SLOAD PUSH1 0x1 PUSH1 0x1 PUSH1 0xA0 SHL SUB AND PUSH2 0x934 JUMP JUMPDEST CALLVALUE DUP1 ISZERO PUSH2 0xAFF JUMPI PUSH1 0x0 DUP1 REVERT JUMPDEST POP PUSH2 0x513 PUSH2 0xB0E CALLDATASIZE PUSH1 0x4 PUSH2 0x4087 JUMP JUMPDEST PUSH2 0x1F7E JUMP JUMPDEST CALLVALUE DUP1 ISZERO PUSH2 0xB1F JUMPI PUSH1 0x0 DUP1 REVERT JUMPDEST POP PUSH2 0x5A2 PUSH14 0x314DC6448D9338C15B0A00000000 DUP2 JUMP JUMPDEST CALLVALUE DUP1 ISZERO PUSH2 0xB41 JUMPI PUSH1 0x0 DUP1 REVERT JUMPDEST POP PUSH2 0x4B6 PUSH2 0x1FE5 JUMP JUMPDEST CALLVALUE DUP1 ISZERO PUSH2 0xB56 JUMPI PUSH1 0x0 DUP1 REVERT JUMPDEST POP PUSH2 0x5A2 PUSH2 0xB65 CALLDATASIZE PUSH1 0x4 PUSH2 0x40B3 JUMP JUMPDEST PUSH2 0x1FF4 JUMP JUMPDEST PUSH2 0x513 PUSH2 0xB78 CALLDATASIZE PUSH1 0x4 PUSH2 0x40EE JUMP JUMPDEST PUSH2 0x20E1 JUMP JUMPDEST CALLVALUE DUP1 ISZERO PUSH2 0xB89 JUMPI PUSH1 0x0 DUP1 REVERT JUMPDEST POP PUSH1 0xD SLOAD PUSH2 0x934 SWAP1 PUSH1 0x1 PUSH1 0x1 PUSH1 0xA0 SHL SUB AND DUP2 JUMP JUMPDEST CALLVALUE DUP1 ISZERO PUSH2 0xBA9 JUMPI PUSH1 0x0 DUP1 REVERT JUMPDEST POP PUSH2 0x5A2 PUSH10 0xD3C21BCECCEDA1000000 DUP2 JUMP JUMPDEST CALLVALUE DUP1 ISZERO PUSH2 0xBC7 JUMPI PUSH1 0x0 DUP1 REVERT JUMPDEST POP PUSH2 0x513 PUSH2 0xBD6 CALLDATASIZE PUSH1 0x4 PUSH2 0x3A57 JUMP JUMPDEST PUSH2 0x2187 JUMP JUMPDEST CALLVALUE DUP1 ISZERO PUSH2 0xBE7 JUMPI PUSH1 0x0 DUP1 REVERT JUMPDEST POP PUSH2 0x4E3 PUSH2 0xBF6 CALLDATASIZE PUSH1 0x4 PUSH2 0x3B91 JUMP JUMPDEST PUSH2 0x21CC JUMP JUMPDEST CALLVALUE DUP1 ISZERO PUSH2 0xC07 JUMPI PUSH1 0x0 DUP1 REVERT JUMPDEST POP PUSH2 0x5A2 PUSH2 0xC16 CALLDATASIZE PUSH1 0x4 PUSH2 0x4115 JUMP JUMPDEST PUSH2 0x21DA JUMP JUMPDEST CALLVALUE DUP1 ISZERO PUSH2 0xC27 JUMPI PUSH1 0x0 DUP1 REVERT JUMPDEST POP PUSH1 0x21 SLOAD PUSH1 0x22 SLOAD PUSH1 0x23 SLOAD PUSH1 0x24 SLOAD PUSH1 0x25 SLOAD PUSH2 0xC42 SWAP5 SWAP4 SWAP3 SWAP2 SWAP1 DUP6 JUMP JUMPDEST PUSH1 0x40 DUP1 MLOAD SWAP6 DUP7 MSTORE PUSH1 0x20 DUP7 ADD SWAP5 SWAP1 SWAP5 MSTORE SWAP3 DUP5 ADD SWAP2 SWAP1 SWAP2 MSTORE PUSH1 0x60 DUP4 ADD MSTORE PUSH1 0x80 DUP3 ADD MSTORE PUSH1 0xA0 ADD PUSH2 0x498 JUMP JUMPDEST CALLVALUE DUP1 ISZERO PUSH2 0xC76 JUMPI PUSH1 0x0 DUP1 REVERT JUMPDEST POP PUSH2 0x5A2 PUSH3 0x93A80 DUP2 JUMP JUMPDEST CALLVALUE DUP1 ISZERO PUSH2 0xC8D JUMPI PUSH1 0x0 DUP1 REVERT JUMPDEST POP PUSH2 0xCA1 PUSH2 0xC9C CALLDATASIZE PUSH1 0x4 PUSH2 0x3B91 JUMP JUMPDEST PUSH2 0x23F7 JUMP JUMPDEST PUSH1 0x40 DUP1 MLOAD SWAP6 DUP7 MSTORE PUSH1 0x20 DUP7 ADD SWAP5 SWAP1 SWAP5 MSTORE SWAP3 DUP5 ADD SWAP2 SWAP1 SWAP2 MSTORE PUSH1 0x60 DUP4 ADD MSTORE ISZERO ISZERO PUSH1 0x80 DUP3 ADD MSTORE PUSH1 0xA0 ADD PUSH2 0x498 JUMP JUMPDEST CALLVALUE DUP1 ISZERO PUSH2 0xCD7 JUMPI PUSH1 0x0 DUP1 REVERT JUMPDEST POP PUSH2 0x513 PUSH2 0xCE6 CALLDATASIZE PUSH1 0x4 PUSH2 0x3A57 JUMP JUMPDEST PUSH2 0x2448 JUMP JUMPDEST CALLVALUE DUP1 ISZERO PUSH2 0xCF7 JUMPI PUSH1 0x0 DUP1 REVERT JUMPDEST POP PUSH2 0x513 PUSH2 0xD06 CALLDATASIZE PUSH1 0x4 PUSH2 0x419E JUMP JUMPDEST PUSH2 0x2495 JUMP JUMPDEST CALLVALUE DUP1 ISZERO PUSH2 0xD17 JUMPI PUSH1 0x0 DUP1 REVERT JUMPDEST POP PUSH2 0x5A2 PUSH2 0xD26 CALLDATASIZE PUSH1 0x4 PUSH2 0x3CFF JUMP JUMPDEST PUSH2 0x2561 JUMP JUMPDEST CALLVALUE DUP1 ISZERO PUSH2 0xD37 JUMPI PUSH1 0x0 DUP1 REVERT JUMPDEST POP PUSH2 0x5A2 PUSH3 0x15180 DUP2 JUMP JUMPDEST CALLVALUE DUP1 ISZERO PUSH2 0xD4E JUMPI PUSH1 0x0 DUP1 REVERT JUMPDEST POP PUSH2 0x513 PUSH2 0xD5D CALLDATASIZE PUSH1 0x4 PUSH2 0x41CA JUMP JUMPDEST PUSH2 0x256C JUMP JUMPDEST CALLVALUE DUP1 ISZERO PUSH2 0xD6E JUMPI PUSH1 0x0 DUP1 REVERT JUMPDEST POP PUSH2 0x5A2 PUSH2 0xD7D CALLDATASIZE PUSH1 0x4 PUSH2 0x3CFF JUMP JUMPDEST PUSH1 0x1E PUSH1 0x20 MSTORE PUSH1 0x0 SWAP1 DUP2 MSTORE PUSH1 0x40 SWAP1 KECCAK256 SLOAD DUP2 JUMP JUMPDEST CALLVALUE DUP1 ISZERO PUSH2 0xD9B JUMPI PUSH1 0x0 DUP1 REVERT JUMPDEST POP PUSH2 0x513 PUSH2 0xDAA CALLDATASIZE PUSH1 0x4 PUSH2 0x41ED JUMP JUMPDEST PUSH2 0x278C JUMP JUMPDEST CALLVALUE DUP1 ISZERO PUSH2 0xDBB JUMPI PUSH1 0x0 DUP1 REVERT JUMPDEST POP PUSH2 0x5A2 PUSH2 0xDCA CALLDATASIZE PUSH1 0x4 PUSH2 0x3F26 JUMP JUMPDEST PUSH1 0x12 PUSH1 0x20 SWAP1 DUP2 MSTORE PUSH1 0x0 SWAP3 DUP4 MSTORE PUSH1 0x40 DUP1 DUP5 KECCAK256 SWAP1 SWAP2 MSTORE SWAP1 DUP3 MSTORE SWAP1 KECCAK256 SLOAD DUP2 JUMP JUMPDEST CALLVALUE DUP1 ISZERO PUSH2 0xDF3 JUMPI PUSH1 0x0 DUP1 REVERT JUMPDEST POP PUSH2 0x5A2 PUSH1 0xF SLOAD DUP2 JUMP JUMPDEST CALLVALUE DUP1 ISZERO PUSH2 0xE09 JUMPI PUSH1 0x0 DUP1 REVERT JUMPDEST POP PUSH2 0x5A2 PUSH2 0xE18 CALLDATASIZE PUSH1 0x4 PUSH2 0x4224 JUMP JUMPDEST PUSH1 0x1 PUSH1 0x1 PUSH1 0xA0 SHL SUB SWAP2 DUP3 AND PUSH1 0x0 SWAP1 DUP2 MSTORE PUSH1 0x1 PUSH1 0x20 SWAP1 DUP2 MSTORE PUSH1 0x40 DUP1 DUP4 KECCAK256 SWAP4 SWAP1 SWAP5 AND DUP3 MSTORE SWAP2 SWAP1 SWAP2 MSTORE KECCAK256 SLOAD SWAP1 JUMP JUMPDEST CALLVALUE DUP1 ISZERO PUSH2 0xE4F JUMPI PUSH1 0x0 DUP1 REVERT JUMPDEST POP PUSH2 0x5A2 PUSH3 0x76A700 DUP2 JUMP JUMPDEST CALLVALUE DUP1 ISZERO PUSH2 0xE66 JUMPI PUSH1 0x0 DUP1 REVERT JUMPDEST POP PUSH2 0x5A2 PUSH1 0xA DUP2 JUMP JUMPDEST CALLVALUE DUP1 ISZERO PUSH2 0xE7B JUMPI PUSH1 0x0 DUP1 REVERT JUMPDEST POP PUSH1 0x1A SLOAD PUSH1 0x1B SLOAD PUSH1 0x1C SLOAD PUSH1 0x1D SLOAD PUSH2 0xE95 SWAP4 SWAP3 SWAP2 SWAP1 PUSH1 0xFF AND DUP5 JUMP JUMPDEST PUSH1 0x40 DUP1 MLOAD SWAP5 DUP6 MSTORE PUSH1 0x20 DUP6 ADD SWAP4 SWAP1 SWAP4 MSTORE SWAP2 DUP4 ADD MSTORE ISZERO ISZERO PUSH1 0x60 DUP3 ADD MSTORE PUSH1 0x80 ADD PUSH2 0x498 JUMP JUMPDEST CALLVALUE DUP1 ISZERO PUSH2 0xEC3 JUMPI PUSH1 0x0 DUP1 REVERT JUMPDEST POP PUSH2 0x513 PUSH2 0xED2 CALLDATASIZE PUSH1 0x4 PUSH2 0x3CFF JUMP JUMPDEST PUSH2 0x28E9 JUMP JUMPDEST CALLVALUE DUP1 ISZERO PUSH2 0xEE3 JUMPI PUSH1 0x0 DUP1 REVERT JUMPDEST POP PUSH2 0x5A2 PUSH1 0x7 SLOAD DUP2 JUMP JUMPDEST CALLVALUE DUP1 ISZERO PUSH2 0xEF9 JUMPI PUSH1 0x0 DUP1 REVERT JUMPDEST POP PUSH2 0x513 PUSH2 0xF08 CALLDATASIZE PUSH1 0x4 PUSH2 0x3A57 JUMP JUMPDEST PUSH2 0x2924 JUMP JUMPDEST CALLVALUE DUP1 ISZERO PUSH2 0xF19 JUMPI PUSH1 0x0 DUP1 REVERT JUMPDEST POP PUSH2 0x4E3 PUSH2 0xF28 CALLDATASIZE PUSH1 0x4 PUSH2 0x3A57 JUMP JUMPDEST PUSH1 0x1F PUSH1 0x20 MSTORE PUSH1 0x0 SWAP1 DUP2 MSTORE PUSH1 0x40 SWAP1 KECCAK256 SLOAD PUSH1 0xFF AND DUP2 JUMP JUMPDEST PUSH1 0x10 PUSH1 0x20 MSTORE PUSH1 0x0 SWAP1 DUP2 MSTORE PUSH1 0x40 SWAP1 KECCAK256 DUP1 SLOAD PUSH1 0x1 DUP3 ADD SLOAD PUSH1 0x2 DUP4 ADD DUP1 SLOAD SWAP3 SWAP4 PUSH1 0x1 PUSH1 0x1 PUSH1 0xA0 SHL SUB SWAP1 SWAP3 AND SWAP3 PUSH2 0xF6F SWAP1 PUSH2 0x4252 JUMP JUMPDEST DUP1 PUSH1 0x1F ADD PUSH1 0x20 DUP1 SWAP2 DIV MUL PUSH1 0x20 ADD PUSH1 0x40 MLOAD SWAP1 DUP2 ADD PUSH1 0x40 MSTORE DUP1 SWAP3 SWAP2 SWAP1 DUP2 DUP2 MSTORE PUSH1 0x20 ADD DUP3 DUP1 SLOAD PUSH2 0xF9B SWAP1 PUSH2 0x4252 JUMP JUMPDEST DUP1 ISZERO PUSH2 0xFE8 JUMPI DUP1 PUSH1 0x1F LT PUSH2 0xFBD JUMPI PUSH2 0x100 DUP1 DUP4 SLOAD DIV MUL DUP4 MSTORE SWAP2 PUSH1 0x20 ADD SWAP2 PUSH2 0xFE8 JUMP JUMPDEST DUP3 ADD SWAP2 SWAP1 PUSH1 0x0 MSTORE PUSH1 0x20 PUSH1 0x0 KECCAK256 SWAP1 JUMPDEST DUP2 SLOAD DUP2 MSTORE SWAP1 PUSH1 0x1 ADD SWAP1 PUSH1 0x20 ADD DUP1 DUP4 GT PUSH2 0xFCB JUMPI DUP3 SWAP1 SUB PUSH1 0x1F AND DUP3 ADD SWAP2 JUMPDEST POP POP POP PUSH1 0x3 DUP5 ADD SLOAD PUSH1 0x4 DUP6 ADD SLOAD PUSH1 0x5 DUP7 ADD SLOAD PUSH1 0x6 DUP8 ADD SLOAD PUSH1 0x7 DUP9 ADD SLOAD PUSH1 0x8 DUP10 ADD DUP1 SLOAD SWAP9 SWAP10 SWAP6 SWAP9 SWAP5 SWAP8 POP SWAP3 SWAP6 POP SWAP1 SWAP4 PUSH1 0xFF DUP1 DUP4 AND SWAP5 PUSH2 0x100 SWAP1 SWAP4 DIV AND SWAP3 SWAP1 SWAP2 PUSH2 0x102F SWAP1 PUSH2 0x4252 JUMP JUMPDEST DUP1 PUSH1 0x1F ADD PUSH1 0x20 DUP1 SWAP2 DIV MUL PUSH1 0x20 ADD PUSH1 0x40 MLOAD SWAP1 DUP2 ADD PUSH1 0x40 MSTORE DUP1 SWAP3 SWAP2 SWAP1 DUP2 DUP2 MSTORE PUSH1 0x20 ADD DUP3 DUP1 SLOAD PUSH2 0x105B SWAP1 PUSH2 0x4252 JUMP JUMPDEST DUP1 ISZERO PUSH2 0x10A8 JUMPI DUP1 PUSH1 0x1F LT PUSH2 0x107D JUMPI PUSH2 0x100 DUP1 DUP4 SLOAD DIV MUL DUP4 MSTORE SWAP2 PUSH1 0x20 ADD SWAP2 PUSH2 0x10A8 JUMP JUMPDEST DUP3 ADD SWAP2 SWAP1 PUSH1 0x0 MSTORE PUSH1 0x20 PUSH1 0x0 KECCAK256 SWAP1 JUMPDEST DUP2 SLOAD DUP2 MSTORE SWAP1 PUSH1 0x1 ADD SWAP1 PUSH1 0x20 ADD DUP1 DUP4 GT PUSH2 0x108B JUMPI DUP3 SWAP1 SUB PUSH1 0x1F AND DUP3 ADD SWAP2 JUMPDEST POP POP POP POP POP SWAP1 POP DUP11 JUMP JUMPDEST PUSH1 0x60 PUSH1 0x3 DUP1 SLOAD PUSH2 0x10C1 SWAP1 PUSH2 0x4252 JUMP JUMPDEST DUP1 PUSH1 0x1F ADD PUSH1 0x20 DUP1 SWAP2 DIV MUL PUSH1 0x20 ADD PUSH1 0x40 MLOAD SWAP1 DUP2 ADD PUSH1 0x40 MSTORE DUP1 SWAP3 SWAP2 SWAP1 DUP2 DUP2 MSTORE PUSH1 0x20 ADD DUP3 DUP1 SLOAD PUSH2 0x10ED SWAP1 PUSH2 0x4252 JUMP JUMPDEST DUP1 ISZERO PUSH2 0x113A JUMPI DUP1 PUSH1 0x1F LT PUSH2 0x110F JUMPI PUSH2 0x100 DUP1 DUP4 SLOAD DIV MUL DUP4 MSTORE SWAP2 PUSH1 0x20 ADD SWAP2 PUSH2 0x113A JUMP JUMPDEST DUP3 ADD SWAP2 SWAP1 PUSH1 0x0 MSTORE PUSH1 0x20 PUSH1 0x0 KECCAK256 SWAP1 JUMPDEST DUP2 SLOAD DUP2 MSTORE SWAP1 PUSH1 0x1 ADD SWAP1 PUSH1 0x20 ADD DUP1 DUP4 GT PUSH2 0x111D JUMPI DUP3 SWAP1 SUB PUSH1 0x1F AND DUP3 ADD SWAP2 JUMPDEST POP POP POP POP POP SWAP1 POP SWAP1 JUMP JUMPDEST PUSH1 0x0 CALLER PUSH2 0x1152 DUP2 DUP6 DUP6 PUSH2 0x2D36 JUMP JUMPDEST PUSH1 0x1 SWAP2 POP POP JUMPDEST SWAP3 SWAP2 POP POP JUMP JUMPDEST PUSH2 0x1166 PUSH2 0x2D43 JUMP JUMPDEST PUSH2 0x116F DUP2 PUSH2 0x2D6D JUMP JUMPDEST PUSH2 0x1179 PUSH1 0x1 PUSH1 0x6 SSTORE JUMP JUMPDEST POP JUMP JUMPDEST PUSH2 0x11AE PUSH1 0x40 MLOAD DUP1 PUSH1 0xA0 ADD PUSH1 0x40 MSTORE DUP1 PUSH1 0x0 DUP2 MSTORE PUSH1 0x20 ADD PUSH1 0x0 DUP2 MSTORE PUSH1 0x20 ADD PUSH1 0x0 DUP2 MSTORE PUSH1 0x20 ADD PUSH1 0x0 DUP2 MSTORE PUSH1 0x20 ADD PUSH1 0x0 DUP2 MSTORE POP SWAP1 JUMP JUMPDEST POP PUSH1 0x40 DUP1 MLOAD PUSH1 0xA0 DUP2 ADD DUP3 MSTORE PUSH1 0x21 SLOAD DUP2 MSTORE PUSH1 0x22 SLOAD PUSH1 0x20 DUP3 ADD MSTORE PUSH1 0x23 SLOAD SWAP2 DUP2 ADD SWAP2 SWAP1 SWAP2 MSTORE PUSH1 0x24 SLOAD PUSH1 0x60 DUP3 ADD MSTORE PUSH1 0x25 SLOAD PUSH1 0x80 DUP3 ADD MSTORE SWAP1 JUMP JUMPDEST PUSH2 0x11EB PUSH2 0x2F2C JUMP JUMPDEST PUSH1 0x0 JUMPDEST DUP3 MLOAD DUP2 LT ISZERO PUSH2 0x12BD JUMPI DUP2 PUSH1 0xE PUSH1 0x0 DUP6 DUP5 DUP2 MLOAD DUP2 LT PUSH2 0x120E JUMPI PUSH2 0x120E PUSH2 0x428C JUMP JUMPDEST PUSH1 0x20 MUL PUSH1 0x20 ADD ADD MLOAD PUSH1 0x1 PUSH1 0x1 PUSH1 0xA0 SHL SUB AND PUSH1 0x1 PUSH1 0x1 PUSH1 0xA0 SHL SUB AND DUP2 MSTORE PUSH1 0x20 ADD SWAP1 DUP2 MSTORE PUSH1 0x20 ADD PUSH1 0x0 KECCAK256 PUSH1 0x0 PUSH2 0x100 EXP DUP2 SLOAD DUP2 PUSH1 0xFF MUL NOT AND SWAP1 DUP4 ISZERO ISZERO MUL OR SWAP1 SSTORE POP DUP3 DUP2 DUP2 MLOAD DUP2 LT PUSH2 0x125F JUMPI PUSH2 0x125F PUSH2 0x428C JUMP JUMPDEST PUSH1 0x20 MUL PUSH1 0x20 ADD ADD MLOAD PUSH1 0x1 PUSH1 0x1 PUSH1 0xA0 SHL SUB AND PUSH32 0x210F2A4A589E25D95B24CBDB060D26AE79BBE123A564D0F973503D48BADD00CA DUP4 PUSH1 0x40 MLOAD PUSH2 0x12A3 SWAP2 ISZERO ISZERO DUP2 MSTORE PUSH1 0x20 ADD SWAP1 JUMP JUMPDEST PUSH1 0x40 MLOAD DUP1 SWAP2 SUB SWAP1 LOG2 DUP1 PUSH2 0x12B5 DUP2 PUSH2 0x42B8 JUMP JUMPDEST SWAP2 POP POP PUSH2 0x11EE JUMP JUMPDEST POP POP POP JUMP JUMPDEST PUSH2 0x12CA PUSH2 0x2F2C JUMP JUMPDEST PUSH1 0xC8 DUP2 GT ISZERO PUSH2 0x1316 JUMPI PUSH1 0x40 MLOAD PUSH3 0x461BCD PUSH1 0xE5 SHL DUP2 MSTORE PUSH1 0x20 PUSH1 0x4 DUP3 ADD MSTORE PUSH1 0x13 PUSH1 0x24 DUP3 ADD MSTORE PUSH19 0x4665652065786365656473206D6178696D756D PUSH1 0x68 SHL PUSH1 0x44 DUP3 ADD MSTORE PUSH1 0x64 ADD JUMPDEST PUSH1 0x40 MLOAD DUP1 SWAP2 SUB SWAP1 REVERT JUMPDEST PUSH3 0x15180 PUSH1 0xB SLOAD PUSH2 0x1327 SWAP2 SWAP1 PUSH2 0x42D1 JUMP JUMPDEST TIMESTAMP LT ISZERO PUSH2 0x1376 JUMPI PUSH1 0x40 MLOAD PUSH3 0x461BCD PUSH1 0xE5 SHL DUP2 MSTORE PUSH1 0x20 PUSH1 0x4 DUP3 ADD MSTORE PUSH1 0x17 PUSH1 0x24 DUP3 ADD MSTORE PUSH32 0x466565206368616E676520746F6F206672657175656E74000000000000000000 PUSH1 0x44 DUP3 ADD MSTORE PUSH1 0x64 ADD PUSH2 0x130D JUMP JUMPDEST PUSH1 0x7 DUP1 SLOAD SWAP1 DUP3 SWAP1 SSTORE TIMESTAMP PUSH1 0xB SSTORE PUSH1 0x40 DUP1 MLOAD DUP3 DUP2 MSTORE PUSH1 0x20 DUP2 ADD DUP5 SWAP1 MSTORE PUSH32 0xCF4C3BA0667A6E28C2746A4EE8D23EFA18B2CA17591C2A22C36773A0232661D8 SWAP2 ADD PUSH1 0x40 MLOAD DUP1 SWAP2 SUB SWAP1 LOG1 POP POP JUMP JUMPDEST PUSH2 0x13C7 PUSH2 0x2F2C JUMP JUMPDEST PUSH1 0x40 DUP1 MLOAD PUSH1 0x80 DUP2 ADD DUP3 MSTORE DUP6 DUP2 MSTORE PUSH1 0x20 DUP2 ADD DUP6 SWAP1 MSTORE SWAP1 DUP2 ADD DUP4 SWAP1 MSTORE SWAP1 ISZERO ISZERO PUSH1 0x60 SWAP1 SWAP2 ADD DUP2 SWAP1 MSTORE PUSH1 0x1A SWAP4 SWAP1 SWAP4 SSTORE PUSH1 0x1B SWAP2 SWAP1 SWAP2 SSTORE PUSH1 0x1C SSTORE PUSH1 0x1D DUP1 SLOAD PUSH1 0xFF NOT AND SWAP1 SWAP2 OR SWAP1 SSTORE JUMP JUMPDEST PUSH1 0x0 DUP1 DUP1 JUMPDEST PUSH1 0x1 PUSH1 0x1 PUSH1 0xA0 SHL SUB DUP5 AND PUSH1 0x0 SWAP1 DUP2 MSTORE PUSH1 0x16 PUSH1 0x20 MSTORE PUSH1 0x40 SWAP1 KECCAK256 SLOAD DUP2 LT ISZERO PUSH2 0x149A JUMPI PUSH1 0x1 PUSH1 0x1 PUSH1 0xA0 SHL SUB DUP5 AND PUSH1 0x0 SWAP1 DUP2 MSTORE PUSH1 0x16 PUSH1 0x20 MSTORE PUSH1 0x40 DUP2 KECCAK256 DUP1 SLOAD DUP4 SWAP1 DUP2 LT PUSH2 0x1459 JUMPI PUSH2 0x1459 PUSH2 0x428C JUMP JUMPDEST SWAP1 PUSH1 0x0 MSTORE PUSH1 0x20 PUSH1 0x0 KECCAK256 SWAP1 PUSH1 0x5 MUL ADD PUSH1 0x0 ADD SLOAD GT ISZERO PUSH2 0x1488 JUMPI PUSH2 0x147B DUP5 DUP3 PUSH2 0x2F59 JUMP JUMPDEST PUSH2 0x1485 SWAP1 DUP4 PUSH2 0x42D1 JUMP JUMPDEST SWAP2 POP JUMPDEST DUP1 PUSH2 0x1492 DUP2 PUSH2 0x42B8 JUMP JUMPDEST SWAP2 POP POP PUSH2 0x140F JUMP JUMPDEST POP SWAP3 SWAP2 POP POP JUMP JUMPDEST PUSH1 0x0 CALLER PUSH2 0x14AF DUP6 DUP3 DUP6 PUSH2 0x3049 JUMP JUMPDEST PUSH2 0x14BA DUP6 DUP6 DUP6 PUSH2 0x30C8 JUMP JUMPDEST POP PUSH1 0x1 SWAP5 SWAP4 POP POP POP POP JUMP JUMPDEST PUSH1 0x0 PUSH2 0x14D2 CALLER DUP6 DUP6 PUSH2 0x30C8 JUMP JUMPDEST POP PUSH1 0x1 SWAP4 SWAP3 POP POP POP JUMP JUMPDEST PUSH1 0x0 TIMESTAMP DUP3 GT PUSH2 0x152D JUMPI PUSH1 0x40 MLOAD PUSH3 0x461BCD PUSH1 0xE5 SHL DUP2 MSTORE PUSH1 0x20 PUSH1 0x4 DUP3 ADD MSTORE PUSH1 0x1E PUSH1 0x24 DUP3 ADD MSTORE PUSH32 0x457865637574652074696D65206D75737420626520696E206675747572650000 PUSH1 0x44 DUP3 ADD MSTORE PUSH1 0x64 ADD PUSH2 0x130D JUMP JUMPDEST DUP3 PUSH2 0x1537 CALLER PUSH2 0x1C06 JUMP JUMPDEST LT ISZERO PUSH2 0x1555 JUMPI PUSH1 0x40 MLOAD PUSH3 0x461BCD PUSH1 0xE5 SHL DUP2 MSTORE PUSH1 0x4 ADD PUSH2 0x130D SWAP1 PUSH2 0x42E4 JUMP JUMPDEST PUSH1 0x40 MLOAD PUSH12 0xFFFFFFFFFFFFFFFFFFFFFFFF NOT CALLER PUSH1 0x60 SWAP1 DUP2 SHL DUP3 AND PUSH1 0x20 DUP5 ADD MSTORE DUP7 SWAP1 SHL AND PUSH1 0x34 DUP3 ADD MSTORE PUSH1 0x48 DUP2 ADD DUP5 SWAP1 MSTORE PUSH1 0x68 DUP2 ADD DUP4 SWAP1 MSTORE TIMESTAMP PUSH1 0x88 DUP3 ADD MSTORE PUSH1 0x0 SWAP1 PUSH1 0xA8 ADD PUSH1 0x40 DUP1 MLOAD DUP1 DUP4 SUB PUSH1 0x1F NOT ADD DUP2 MSTORE SWAP2 SWAP1 MSTORE DUP1 MLOAD PUSH1 0x20 SWAP1 SWAP2 ADD KECCAK256 SWAP6 SWAP5 POP POP POP POP POP JUMP JUMPDEST PUSH1 0x60 DUP1 PUSH1 0x0 DUP4 PUSH8 0xFFFFFFFFFFFFFFFF DUP2 GT ISZERO PUSH2 0x15D5 JUMPI PUSH2 0x15D5 PUSH2 0x3BBD JUMP JUMPDEST PUSH1 0x40 MLOAD SWAP1 DUP1 DUP3 MSTORE DUP1 PUSH1 0x20 MUL PUSH1 0x20 ADD DUP3 ADD PUSH1 0x40 MSTORE DUP1 ISZERO PUSH2 0x15FE JUMPI DUP2 PUSH1 0x20 ADD PUSH1 0x20 DUP3 MUL DUP1 CALLDATASIZE DUP4 CALLDATACOPY ADD SWAP1 POP JUMPDEST POP SWAP1 POP PUSH1 0x0 DUP5 PUSH8 0xFFFFFFFFFFFFFFFF DUP2 GT ISZERO PUSH2 0x161C JUMPI PUSH2 0x161C PUSH2 0x3BBD JUMP JUMPDEST PUSH1 0x40 MLOAD SWAP1 DUP1 DUP3 MSTORE DUP1 PUSH1 0x20 MUL PUSH1 0x20 ADD DUP3 ADD PUSH1 0x40 MSTORE DUP1 ISZERO PUSH2 0x1645 JUMPI DUP2 PUSH1 0x20 ADD PUSH1 0x20 DUP3 MUL DUP1 CALLDATASIZE DUP4 CALLDATACOPY ADD SWAP1 POP JUMPDEST POP SWAP2 SWAP6 SWAP2 SWAP5 POP SWAP1 SWAP3 POP POP POP JUMP JUMPDEST PUSH2 0x165A PUSH2 0x2D43 JUMP JUMPDEST CALLER PUSH1 0x0 SWAP1 DUP2 MSTORE PUSH1 0x16 PUSH1 0x20 MSTORE PUSH1 0x40 SWAP1 KECCAK256 SLOAD DUP2 LT PUSH2 0x16AE JUMPI PUSH1 0x40 MLOAD PUSH3 0x461BCD PUSH1 0xE5 SHL DUP2 MSTORE PUSH1 0x20 PUSH1 0x4 DUP3 ADD MSTORE PUSH1 0x13 PUSH1 0x24 DUP3 ADD MSTORE PUSH19 0x92DCECC2D8D2C840E6E8C2D6CA40D2DCC8CAF PUSH1 0x6B SHL PUSH1 0x44 DUP3 ADD MSTORE PUSH1 0x64 ADD PUSH2 0x130D JUMP JUMPDEST CALLER PUSH1 0x0 SWAP1 DUP2 MSTORE PUSH1 0x16 PUSH1 0x20 MSTORE PUSH1 0x40 DUP2 KECCAK256 DUP1 SLOAD DUP4 SWAP1 DUP2 LT PUSH2 0x16CF JUMPI PUSH2 0x16CF PUSH2 0x428C JUMP JUMPDEST SWAP1 PUSH1 0x0 MSTORE PUSH1 0x20 PUSH1 0x0 KECCAK256 SWAP1 PUSH1 0x5 MUL ADD SWAP1 POP PUSH1 0x0 DUP2 PUSH1 0x0 ADD SLOAD GT PUSH2 0x1733 JUMPI PUSH1 0x40 MLOAD PUSH3 0x461BCD PUSH1 0xE5 SHL DUP2 MSTORE PUSH1 0x20 PUSH1 0x4 DUP3 ADD MSTORE PUSH1 0x17 PUSH1 0x24 DUP3 ADD MSTORE PUSH32 0x5374616B6520616C72656164792077697468647261776E000000000000000000 PUSH1 0x44 DUP3 ADD MSTORE PUSH1 0x64 ADD PUSH2 0x130D JUMP JUMPDEST PUSH1 0x0 DUP2 PUSH1 0x1 ADD SLOAD TIMESTAMP PUSH2 0x1745 SWAP2 SWAP1 PUSH2 0x4312 JUMP JUMPDEST DUP3 SLOAD PUSH1 0x3 DUP5 ADD SLOAD SWAP2 SWAP3 POP SWAP1 DUP2 SWAP1 DUP4 LT ISZERO PUSH2 0x1799 JUMPI PUSH1 0x0 PUSH1 0x64 PUSH2 0x1768 DUP5 PUSH1 0xA PUSH2 0x4325 JUMP JUMPDEST PUSH2 0x1772 SWAP2 SWAP1 PUSH2 0x433C JUMP JUMPDEST SWAP1 POP PUSH2 0x177E DUP2 DUP5 PUSH2 0x4312 JUMP JUMPDEST SWAP2 POP DUP1 PUSH1 0x18 PUSH1 0x0 DUP3 DUP3 SLOAD PUSH2 0x1792 SWAP2 SWAP1 PUSH2 0x42D1 JUMP JUMPDEST SWAP1 SWAP2 SSTORE POP POP POP JUMPDEST PUSH2 0x17A2 DUP6 PUSH2 0x2D6D JUMP JUMPDEST PUSH1 0x0 DUP1 DUP6 SSTORE PUSH1 0x17 DUP1 SLOAD DUP5 SWAP3 SWAP1 PUSH2 0x17B9 SWAP1 DUP5 SWAP1 PUSH2 0x4312 JUMP JUMPDEST SWAP1 SWAP2 SSTORE POP PUSH2 0x17CA SWAP1 POP ADDRESS CALLER DUP4 PUSH2 0x30C8 JUMP JUMPDEST PUSH1 0x40 DUP1 MLOAD DUP3 DUP2 MSTORE PUSH1 0x20 DUP2 ADD DUP8 SWAP1 MSTORE CALLER SWAP2 PUSH32 0x7FC4727E062E336010F2C282598EF5F14FACB3DE68CF8195C2F23E1454B2B74E SWAP2 ADD PUSH1 0x40 MLOAD DUP1 SWAP2 SUB SWAP1 LOG2 POP POP POP POP PUSH2 0x1179 PUSH1 0x1 PUSH1 0x6 SSTORE JUMP JUMPDEST PUSH2 0x181D CALLER DUP3 PUSH2 0x3127 JUMP JUMPDEST DUP1 PUSH1 0x21 PUSH1 0x1 ADD PUSH1 0x0 DUP3 DUP3 SLOAD PUSH2 0x1832 SWAP2 SWAP1 PUSH2 0x42D1 JUMP JUMPDEST SWAP1 SWAP2 SSTORE POP POP POP JUMP JUMPDEST PUSH2 0x1842 PUSH2 0x2F2C JUMP JUMPDEST PUSH2 0x184A PUSH2 0x315D JUMP JUMPDEST PUSH1 0x40 DUP1 MLOAD DUP2 DUP2 MSTORE PUSH1 0x7 SWAP2 DUP2 ADD SWAP2 SWAP1 SWAP2 MSTORE PUSH7 0x554E5041555345 PUSH1 0xC8 SHL PUSH1 0x60 DUP3 ADD MSTORE CALLER PUSH1 0x20 DUP3 ADD MSTORE PUSH32 0x2A09E26EC96218A3A144DF2E04DE096B7F0410106A4CAFF3CDFA5D667E604F2A SWAP1 PUSH1 0x80 ADD JUMPDEST PUSH1 0x40 MLOAD DUP1 SWAP2 SUB SWAP1 LOG1 JUMP JUMPDEST PUSH1 0x1 PUSH1 0x1 PUSH1 0xA0 SHL SUB DUP3 AND PUSH2 0x18E9 JUMPI PUSH1 0x40 MLOAD PUSH3 0x461BCD PUSH1 0xE5 SHL DUP2 MSTORE PUSH1 0x20 PUSH1 0x4 DUP3 ADD MSTORE PUSH1 0x10 PUSH1 0x24 DUP3 ADD MSTORE PUSH16 0x125B9D985B1A59081C1C9BDD1BD8DBDB PUSH1 0x82 SHL PUSH1 0x44 DUP3 ADD MSTORE PUSH1 0x64 ADD PUSH2 0x130D JUMP JUMPDEST PUSH1 0x0 DUP2 GT PUSH2 0x1909 JUMPI PUSH1 0x40 MLOAD PUSH3 0x461BCD PUSH1 0xE5 SHL DUP2 MSTORE PUSH1 0x4 ADD PUSH2 0x130D SWAP1 PUSH2 0x435E JUMP JUMPDEST POP POP JUMP JUMPDEST PUSH2 0x1938 PUSH1 0x40 MLOAD DUP1 PUSH1 0x80 ADD PUSH1 0x40 MSTORE DUP1 PUSH1 0x0 DUP2 MSTORE PUSH1 0x20 ADD PUSH1 0x0 DUP2 MSTORE PUSH1 0x20 ADD PUSH1 0x0 DUP2 MSTORE PUSH1 0x20 ADD PUSH1 0x0 DUP2 MSTORE POP SWAP1 JUMP JUMPDEST POP PUSH1 0x1 PUSH1 0x1 PUSH1 0xA0 SHL SUB AND PUSH1 0x0 SWAP1 DUP2 MSTORE PUSH1 0x26 PUSH1 0x20 SWAP1 DUP2 MSTORE PUSH1 0x40 SWAP2 DUP3 SWAP1 KECCAK256 DUP3 MLOAD PUSH1 0x80 DUP2 ADD DUP5 MSTORE DUP2 SLOAD DUP2 MSTORE PUSH1 0x1 DUP3 ADD SLOAD SWAP3 DUP2 ADD SWAP3 SWAP1 SWAP3 MSTORE PUSH1 0x2 DUP2 ADD SLOAD SWAP3 DUP3 ADD SWAP3 SWAP1 SWAP3 MSTORE PUSH1 0x3 SWAP1 SWAP2 ADD SLOAD PUSH1 0x60 DUP3 ADD MSTORE SWAP1 JUMP JUMPDEST PUSH2 0x198E PUSH2 0x2F2C JUMP JUMPDEST PUSH2 0x1996 PUSH2 0x31AD JUMP JUMPDEST PUSH1 0x40 DUP1 MLOAD DUP2 DUP2 MSTORE PUSH1 0x5 SWAP2 DUP2 ADD SWAP2 SWAP1 SWAP2 MSTORE PUSH5 0x5041555345 PUSH1 0xD8 SHL PUSH1 0x60 DUP3 ADD MSTORE CALLER PUSH1 0x20 DUP3 ADD MSTORE PUSH32 0x2A09E26EC96218A3A144DF2E04DE096B7F0410106A4CAFF3CDFA5D667E604F2A SWAP1 PUSH1 0x80 ADD PUSH2 0x1896 JUMP JUMPDEST PUSH1 0x0 DUP3 GT PUSH2 0x1909 JUMPI PUSH1 0x40 MLOAD PUSH3 0x461BCD PUSH1 0xE5 SHL DUP2 MSTORE PUSH1 0x4 ADD PUSH2 0x130D SWAP1 PUSH2 0x435E JUMP JUMPDEST PUSH2 0x1A0C PUSH2 0x2D43 JUMP JUMPDEST PUSH1 0x0 DUP4 GT PUSH2 0x1A5C JUMPI PUSH1 0x40 MLOAD PUSH3 0x461BCD PUSH1 0xE5 SHL DUP2 MSTORE PUSH1 0x20 PUSH1 0x4 DUP3 ADD MSTORE PUSH1 0x17 PUSH1 0x24 DUP3 ADD MSTORE PUSH32 0x416D6F756E74206D75737420626520706F736974697665000000000000000000 PUSH1 0x44 DUP3 ADD MSTORE PUSH1 0x64 ADD PUSH2 0x130D JUMP JUMPDEST PUSH3 0x278D00 DUP3 EQ DUP1 PUSH2 0x1A6F JUMPI POP PUSH3 0x76A700 DUP3 EQ JUMPDEST DUP1 PUSH2 0x1A7C JUMPI POP PUSH3 0xED4E00 DUP3 EQ JUMPDEST DUP1 PUSH2 0x1A8A JUMPI POP PUSH4 0x1E13380 DUP3 EQ JUMPDEST PUSH2 0x1ACC JUMPI PUSH1 0x40 MLOAD PUSH3 0x461BCD PUSH1 0xE5 SHL DUP2 MSTORE PUSH1 0x20 PUSH1 0x4 DUP3 ADD MSTORE PUSH1 0x13 PUSH1 0x24 DUP3 ADD MSTORE PUSH19 0x125B9D985B1A59081B1BD8DAC81C195C9A5BD9 PUSH1 0x6A SHL PUSH1 0x44 DUP3 ADD MSTORE PUSH1 0x64 ADD PUSH2 0x130D JUMP JUMPDEST DUP3 PUSH2 0x1AD6 CALLER PUSH2 0x1C06 JUMP JUMPDEST LT ISZERO PUSH2 0x1AF4 JUMPI PUSH1 0x40 MLOAD PUSH3 0x461BCD PUSH1 0xE5 SHL DUP2 MSTORE PUSH1 0x4 ADD PUSH2 0x130D SWAP1 PUSH2 0x42E4 JUMP JUMPDEST PUSH2 0x1AFF CALLER ADDRESS DUP6 PUSH2 0x30C8 JUMP JUMPDEST CALLER PUSH1 0x0 SWAP1 DUP2 MSTORE PUSH1 0x16 PUSH1 0x20 SWAP1 DUP2 MSTORE PUSH1 0x40 DUP1 DUP4 KECCAK256 DUP2 MLOAD PUSH1 0xA0 DUP2 ADD DUP4 MSTORE DUP8 DUP2 MSTORE TIMESTAMP DUP2 DUP6 ADD DUP2 DUP2 MSTORE SWAP4 DUP3 ADD SWAP1 DUP2 MSTORE PUSH1 0x60 DUP3 ADD DUP9 DUP2 MSTORE DUP8 ISZERO ISZERO PUSH1 0x80 DUP5 ADD SWAP1 DUP2 MSTORE DUP5 SLOAD PUSH1 0x1 DUP1 DUP3 ADD DUP8 SSTORE SWAP6 DUP10 MSTORE SWAP7 DUP9 KECCAK256 SWAP4 MLOAD PUSH1 0x5 SWAP1 SWAP8 MUL SWAP1 SWAP4 ADD SWAP6 DUP7 SSTORE SWAP4 MLOAD SWAP3 DUP6 ADD SWAP3 SWAP1 SWAP3 SSTORE SWAP1 MLOAD PUSH1 0x2 DUP5 ADD SSTORE SWAP1 MLOAD PUSH1 0x3 DUP4 ADD SSTORE MLOAD PUSH1 0x4 SWAP1 SWAP2 ADD DUP1 SLOAD PUSH1 0xFF NOT AND SWAP2 ISZERO ISZERO SWAP2 SWAP1 SWAP2 OR SWAP1 SSTORE PUSH1 0x17 DUP1 SLOAD DUP6 SWAP3 SWAP1 PUSH2 0x1B94 SWAP1 DUP5 SWAP1 PUSH2 0x42D1 JUMP JUMPDEST SWAP1 SWAP2 SSTORE POP POP CALLER PUSH1 0x0 SWAP1 DUP2 MSTORE PUSH1 0x16 PUSH1 0x20 MSTORE PUSH1 0x40 DUP2 KECCAK256 SLOAD PUSH2 0x1BB5 SWAP1 PUSH1 0x1 SWAP1 PUSH2 0x4312 JUMP JUMPDEST PUSH1 0x40 DUP1 MLOAD DUP7 DUP2 MSTORE PUSH1 0x20 DUP2 ADD DUP7 SWAP1 MSTORE SWAP1 DUP2 ADD DUP3 SWAP1 MSTORE SWAP1 SWAP2 POP CALLER SWAP1 PUSH32 0xB4CAAF29ADDA3EEFEE3AD552A8E85058589BF834C7466CAE4EE58787F70589ED SWAP1 PUSH1 0x60 ADD PUSH1 0x40 MLOAD DUP1 SWAP2 SUB SWAP1 LOG2 POP PUSH2 0x12BD PUSH1 0x1 PUSH1 0x6 SSTORE JUMP JUMPDEST PUSH1 0x1 PUSH1 0x1 PUSH1 0xA0 SHL SUB AND PUSH1 0x0 SWAP1 DUP2 MSTORE PUSH1 0x20 DUP2 SWAP1 MSTORE PUSH1 0x40 SWAP1 KECCAK256 SLOAD SWAP1 JUMP JUMPDEST PUSH2 0x1C29 PUSH2 0x2F2C JUMP JUMPDEST PUSH2 0x1C33 PUSH1 0x0 PUSH2 0x31F0 JUMP JUMPDEST JUMP JUMPDEST PUSH1 0x1D SLOAD PUSH1 0x0 SWAP1 DUP3 SWAP1 PUSH1 0xFF AND ISZERO PUSH2 0x1DC7 JUMPI CALLER PUSH1 0x0 SWAP1 DUP2 MSTORE PUSH1 0x1E PUSH1 0x20 MSTORE PUSH1 0x40 SWAP1 KECCAK256 SLOAD NUMBER GT PUSH2 0x1C9C JUMPI PUSH1 0x40 MLOAD PUSH3 0x461BCD PUSH1 0xE5 SHL DUP2 MSTORE PUSH1 0x20 PUSH1 0x4 DUP3 ADD MSTORE PUSH1 0x16 PUSH1 0x24 DUP3 ADD MSTORE PUSH22 0x29B0B6B290313637B1B5903A3930B739B0B1BA34B7B7 PUSH1 0x51 SHL PUSH1 0x44 DUP3 ADD MSTORE PUSH1 0x64 ADD PUSH2 0x130D JUMP JUMPDEST PUSH1 0x40 DUP1 MLOAD CALLER PUSH1 0x20 DUP1 DUP4 ADD SWAP2 SWAP1 SWAP2 MSTORE DUP2 DUP4 ADD DUP5 SWAP1 MSTORE DUP3 MLOAD DUP1 DUP4 SUB DUP5 ADD DUP2 MSTORE PUSH1 0x60 SWAP1 SWAP3 ADD DUP4 MSTORE DUP2 MLOAD SWAP2 DUP2 ADD SWAP2 SWAP1 SWAP2 KECCAK256 PUSH1 0x0 SWAP1 DUP2 MSTORE PUSH1 0x1F SWAP1 SWAP2 MSTORE KECCAK256 SLOAD PUSH1 0xFF AND ISZERO PUSH2 0x1D12 JUMPI PUSH1 0x40 MLOAD PUSH3 0x461BCD PUSH1 0xE5 SHL DUP2 MSTORE PUSH1 0x20 PUSH1 0x4 DUP3 ADD MSTORE PUSH1 0xA PUSH1 0x24 DUP3 ADD MSTORE PUSH10 0x139BDB98D9481D5CD959 PUSH1 0xB2 SHL PUSH1 0x44 DUP3 ADD MSTORE PUSH1 0x64 ADD PUSH2 0x130D JUMP JUMPDEST PUSH1 0x1C SLOAD CALLER PUSH1 0x0 SWAP1 DUP2 MSTORE PUSH1 0x20 DUP1 MSTORE PUSH1 0x40 SWAP1 KECCAK256 SLOAD PUSH2 0x1D2E SWAP2 SWAP1 PUSH2 0x42D1 JUMP JUMPDEST TIMESTAMP LT ISZERO PUSH2 0x1D70 JUMPI PUSH1 0x40 MLOAD PUSH3 0x461BCD PUSH1 0xE5 SHL DUP2 MSTORE PUSH1 0x20 PUSH1 0x4 DUP3 ADD MSTORE PUSH1 0x10 PUSH1 0x24 DUP3 ADD MSTORE PUSH16 0x10DBDBDB191BDDDB881B9BDD081B595D PUSH1 0x82 SHL PUSH1 0x44 DUP3 ADD MSTORE PUSH1 0x64 ADD PUSH2 0x130D JUMP JUMPDEST CALLER PUSH1 0x0 DUP2 DUP2 MSTORE PUSH1 0x1E PUSH1 0x20 SWAP1 DUP2 MSTORE PUSH1 0x40 DUP1 DUP4 KECCAK256 NUMBER SWAP1 SSTORE DUP1 MLOAD DUP1 DUP4 ADD DUP6 SWAP1 MSTORE DUP1 DUP3 ADD DUP7 SWAP1 MSTORE DUP2 MLOAD DUP1 DUP3 SUB DUP4 ADD DUP2 MSTORE PUSH1 0x60 SWAP1 SWAP2 ADD DUP3 MSTORE DUP1 MLOAD SWAP1 DUP4 ADD KECCAK256 DUP4 MSTORE PUSH1 0x1F DUP3 MSTORE DUP1 DUP4 KECCAK256 DUP1 SLOAD PUSH1 0xFF NOT AND PUSH1 0x1 OR SWAP1 SSTORE SWAP3 DUP3 MSTORE DUP1 MSTORE KECCAK256 TIMESTAMP SWAP1 SSTORE JUMPDEST PUSH2 0x1DD0 DUP5 PUSH2 0x3242 JUMP JUMPDEST PUSH2 0x14BA CALLER DUP7 DUP7 PUSH2 0x30C8 JUMP JUMPDEST PUSH1 0x0 DUP2 MLOAD DUP4 MLOAD EQ PUSH2 0x1E26 JUMPI PUSH1 0x40 MLOAD PUSH3 0x461BCD PUSH1 0xE5 SHL DUP2 MSTORE PUSH1 0x20 PUSH1 0x4 DUP3 ADD MSTORE PUSH1 0x15 PUSH1 0x24 DUP3 ADD MSTORE PUSH21 0x82E4E4C2F240D8CADCCEE8D040DAD2E6DAC2E8C6D PUSH1 0x5B SHL PUSH1 0x44 DUP3 ADD MSTORE PUSH1 0x64 ADD PUSH2 0x130D JUMP JUMPDEST PUSH1 0x0 DUP4 MLOAD GT PUSH2 0x1E66 JUMPI PUSH1 0x40 MLOAD PUSH3 0x461BCD PUSH1 0xE5 SHL DUP2 MSTORE PUSH1 0x20 PUSH1 0x4 DUP3 ADD MSTORE PUSH1 0xC PUSH1 0x24 DUP3 ADD MSTORE PUSH12 0x456D70747920617272617973 PUSH1 0xA0 SHL PUSH1 0x44 DUP3 ADD MSTORE PUSH1 0x64 ADD PUSH2 0x130D JUMP JUMPDEST PUSH1 0x0 DUP1 JUMPDEST DUP4 MLOAD DUP2 LT ISZERO PUSH2 0x1EAC JUMPI DUP4 DUP2 DUP2 MLOAD DUP2 LT PUSH2 0x1E85 JUMPI PUSH2 0x1E85 PUSH2 0x428C JUMP JUMPDEST PUSH1 0x20 MUL PUSH1 0x20 ADD ADD MLOAD DUP3 PUSH2 0x1E98 SWAP2 SWAP1 PUSH2 0x42D1 JUMP JUMPDEST SWAP2 POP DUP1 PUSH2 0x1EA4 DUP2 PUSH2 0x42B8 JUMP JUMPDEST SWAP2 POP POP PUSH2 0x1E6A JUMP JUMPDEST POP DUP1 PUSH2 0x1EB7 CALLER PUSH2 0x1C06 JUMP JUMPDEST LT ISZERO PUSH2 0x1ED5 JUMPI PUSH1 0x40 MLOAD PUSH3 0x461BCD PUSH1 0xE5 SHL DUP2 MSTORE PUSH1 0x4 ADD PUSH2 0x130D SWAP1 PUSH2 0x42E4 JUMP JUMPDEST PUSH1 0x0 JUMPDEST DUP5 MLOAD DUP2 LT ISZERO PUSH2 0x1F30 JUMPI PUSH2 0x1F1E CALLER DUP7 DUP4 DUP2 MLOAD DUP2 LT PUSH2 0x1EF7 JUMPI PUSH2 0x1EF7 PUSH2 0x428C JUMP JUMPDEST PUSH1 0x20 MUL PUSH1 0x20 ADD ADD MLOAD DUP7 DUP5 DUP2 MLOAD DUP2 LT PUSH2 0x1F11 JUMPI PUSH2 0x1F11 PUSH2 0x428C JUMP JUMPDEST PUSH1 0x20 MUL PUSH1 0x20 ADD ADD MLOAD PUSH2 0x30C8 JUMP JUMPDEST DUP1 PUSH2 0x1F28 DUP2 PUSH2 0x42B8 JUMP JUMPDEST SWAP2 POP POP PUSH2 0x1ED8 JUMP JUMPDEST POP DUP4 MLOAD PUSH1 0x40 MLOAD CALLER SWAP2 PUSH32 0x762D9D59F4CDCADAD8125DFD5B9228C3F3710C17CD800B7E446F4BACBA81A69F SWAP2 PUSH2 0x1F6C SWAP2 DUP6 DUP3 MSTORE PUSH1 0x20 DUP3 ADD MSTORE PUSH1 0x40 ADD SWAP1 JUMP JUMPDEST PUSH1 0x40 MLOAD DUP1 SWAP2 SUB SWAP1 LOG2 POP PUSH1 0x1 SWAP4 SWAP3 POP POP POP JUMP JUMPDEST PUSH2 0x1F86 PUSH2 0x2F2C JUMP JUMPDEST PUSH1 0x1 PUSH1 0x1 PUSH1 0xA0 SHL SUB DUP3 AND PUSH1 0x0 DUP2 DUP2 MSTORE PUSH1 0xE PUSH1 0x20 SWAP1 DUP2 MSTORE PUSH1 0x40 SWAP2 DUP3 SWAP1 KECCAK256 DUP1 SLOAD PUSH1 0xFF NOT AND DUP6 ISZERO ISZERO SWAP1 DUP2 OR SWAP1 SWAP2 SSTORE SWAP2 MLOAD SWAP2 DUP3 MSTORE PUSH32 0x210F2A4A589E25D95B24CBDB060D26AE79BBE123A564D0F973503D48BADD00CA SWAP2 ADD PUSH1 0x40 MLOAD DUP1 SWAP2 SUB SWAP1 LOG2 POP POP JUMP JUMPDEST PUSH1 0x60 PUSH1 0x4 DUP1 SLOAD PUSH2 0x10C1 SWAP1 PUSH2 0x4252 JUMP JUMPDEST PUSH1 0x0 DUP1 DUP4 GT DUP1 ISZERO PUSH2 0x2005 JUMPI POP PUSH1 0x0 DUP3 GT JUMPDEST PUSH2 0x2046 JUMPI PUSH1 0x40 MLOAD PUSH3 0x461BCD PUSH1 0xE5 SHL DUP2 MSTORE PUSH1 0x20 PUSH1 0x4 DUP3 ADD MSTORE PUSH1 0x12 PUSH1 0x24 DUP3 ADD MSTORE PUSH18 0x496E76616C696420706172616D6574657273 PUSH1 0x70 SHL PUSH1 0x44 DUP3 ADD MSTORE PUSH1 0x64 ADD PUSH2 0x130D JUMP JUMPDEST PUSH2 0x2050 DUP3 DUP6 PUSH2 0x4325 JUMP JUMPDEST PUSH2 0x2059 CALLER PUSH2 0x1C06 JUMP JUMPDEST LT ISZERO PUSH2 0x2077 JUMPI PUSH1 0x40 MLOAD PUSH3 0x461BCD PUSH1 0xE5 SHL DUP2 MSTORE PUSH1 0x4 ADD PUSH2 0x130D SWAP1 PUSH2 0x42E4 JUMP JUMPDEST PUSH1 0x40 MLOAD PUSH12 0xFFFFFFFFFFFFFFFFFFFFFFFF NOT CALLER PUSH1 0x60 SWAP1 DUP2 SHL DUP3 AND PUSH1 0x20 DUP5 ADD MSTORE DUP8 SWAP1 SHL AND PUSH1 0x34 DUP3 ADD MSTORE PUSH1 0x48 DUP2 ADD DUP6 SWAP1 MSTORE PUSH1 0x68 DUP2 ADD DUP5 SWAP1 MSTORE PUSH1 0x88 DUP2 ADD DUP4 SWAP1 MSTORE TIMESTAMP PUSH1 0xA8 DUP3 ADD MSTORE PUSH1 0x0 SWAP1 PUSH1 0xC8 ADD PUSH1 0x40 DUP1 MLOAD DUP1 DUP4 SUB PUSH1 0x1F NOT ADD DUP2 MSTORE SWAP2 SWAP1 MSTORE DUP1 MLOAD PUSH1 0x20 SWAP1 SWAP2 ADD KECCAK256 SWAP7 SWAP6 POP POP POP POP POP POP JUMP JUMPDEST CHAINID DUP4 SUB PUSH2 0x211D JUMPI PUSH1 0x40 MLOAD PUSH3 0x461BCD PUSH1 0xE5 SHL DUP2 MSTORE PUSH1 0x20 PUSH1 0x4 DUP3 ADD MSTORE PUSH1 0xA PUSH1 0x24 DUP3 ADD MSTORE PUSH10 0x29B0B6B29031B430B4B7 PUSH1 0xB1 SHL PUSH1 0x44 DUP3 ADD MSTORE PUSH1 0x64 ADD PUSH2 0x130D JUMP JUMPDEST PUSH1 0x1 PUSH1 0x1 PUSH1 0xA0 SHL SUB DUP3 AND PUSH2 0x2167 JUMPI PUSH1 0x40 MLOAD PUSH3 0x461BCD PUSH1 0xE5 SHL DUP2 MSTORE PUSH1 0x20 PUSH1 0x4 DUP3 ADD MSTORE PUSH1 0x11 PUSH1 0x24 DUP3 ADD MSTORE PUSH17 0x125B9D985B1A59081C9958DA5C1A595B9D PUSH1 0x7A SHL PUSH1 0x44 DUP3 ADD MSTORE PUSH1 0x64 ADD PUSH2 0x130D JUMP JUMPDEST PUSH1 0x0 DUP2 GT PUSH2 0x12BD JUMPI PUSH1 0x40 MLOAD PUSH3 0x461BCD PUSH1 0xE5 SHL DUP2 MSTORE PUSH1 0x4 ADD PUSH2 0x130D SWAP1 PUSH2 0x435E JUMP JUMPDEST PUSH1 0x0 DUP2 GT PUSH2 0x1179 JUMPI PUSH1 0x40 MLOAD PUSH3 0x461BCD PUSH1 0xE5 SHL DUP2 MSTORE PUSH1 0x20 PUSH1 0x4 DUP3 ADD MSTORE PUSH1 0x12 PUSH1 0x24 DUP3 ADD MSTORE PUSH18 0x125B9D985B1A590818DBDB1B185D195C985B PUSH1 0x72 SHL PUSH1 0x44 DUP3 ADD MSTORE PUSH1 0x64 ADD PUSH2 0x130D JUMP JUMPDEST PUSH1 0x0 CALLER PUSH2 0x1152 DUP2 DUP6 DUP6 PUSH2 0x30C8 JUMP JUMPDEST PUSH1 0x0 PUSH10 0xD3C21BCECCEDA1000000 PUSH2 0x21F0 CALLER PUSH2 0x1C06 JUMP JUMPDEST LT ISZERO PUSH2 0x2248 JUMPI PUSH1 0x40 MLOAD PUSH3 0x461BCD PUSH1 0xE5 SHL DUP2 MSTORE PUSH1 0x20 PUSH1 0x4 DUP3 ADD MSTORE PUSH1 0x21 PUSH1 0x24 DUP3 ADD MSTORE PUSH32 0x496E73756666696369656E742062616C616E636520666F722070726F706F7361 PUSH1 0x44 DUP3 ADD MSTORE PUSH1 0x1B PUSH1 0xFA SHL PUSH1 0x64 DUP3 ADD MSTORE PUSH1 0x84 ADD PUSH2 0x130D JUMP JUMPDEST PUSH1 0xF DUP1 SLOAD PUSH1 0x0 SWAP2 DUP3 PUSH2 0x2259 DUP4 PUSH2 0x42B8 JUMP JUMPDEST SWAP2 SWAP1 POP SSTORE SWAP1 POP PUSH1 0x40 MLOAD DUP1 PUSH2 0x140 ADD PUSH1 0x40 MSTORE DUP1 DUP3 DUP2 MSTORE PUSH1 0x20 ADD CALLER PUSH1 0x1 PUSH1 0x1 PUSH1 0xA0 SHL SUB AND DUP2 MSTORE PUSH1 0x20 ADD DUP7 DUP2 MSTORE PUSH1 0x20 ADD PUSH1 0x0 DUP2 MSTORE PUSH1 0x20 ADD PUSH1 0x0 DUP2 MSTORE PUSH1 0x20 ADD TIMESTAMP DUP2 MSTORE PUSH1 0x20 ADD PUSH3 0x93A80 TIMESTAMP PUSH2 0x22A9 SWAP2 SWAP1 PUSH2 0x42D1 JUMP JUMPDEST DUP2 MSTORE PUSH1 0x0 PUSH1 0x20 DUP3 ADD MSTORE PUSH1 0x40 ADD DUP6 PUSH1 0x3 DUP2 GT ISZERO PUSH2 0x22C7 JUMPI PUSH2 0x22C7 PUSH2 0x3AB6 JUMP JUMPDEST DUP2 MSTORE PUSH1 0x20 SWAP1 DUP2 ADD DUP6 SWAP1 MSTORE PUSH1 0x0 DUP4 DUP2 MSTORE PUSH1 0x10 DUP3 MSTORE PUSH1 0x40 SWAP1 DUP2 SWAP1 KECCAK256 DUP4 MLOAD DUP2 SSTORE SWAP2 DUP4 ADD MLOAD PUSH1 0x1 DUP4 ADD DUP1 SLOAD PUSH1 0x1 PUSH1 0x1 PUSH1 0xA0 SHL SUB NOT AND PUSH1 0x1 PUSH1 0x1 PUSH1 0xA0 SHL SUB SWAP1 SWAP3 AND SWAP2 SWAP1 SWAP2 OR SWAP1 SSTORE DUP3 ADD MLOAD PUSH1 0x2 DUP3 ADD SWAP1 PUSH2 0x231B SWAP1 DUP3 PUSH2 0x43D4 JUMP JUMPDEST POP PUSH1 0x60 DUP3 ADD MLOAD DUP2 PUSH1 0x3 ADD SSTORE PUSH1 0x80 DUP3 ADD MLOAD DUP2 PUSH1 0x4 ADD SSTORE PUSH1 0xA0 DUP3 ADD MLOAD DUP2 PUSH1 0x5 ADD SSTORE PUSH1 0xC0 DUP3 ADD MLOAD DUP2 PUSH1 0x6 ADD SSTORE PUSH1 0xE0 DUP3 ADD MLOAD DUP2 PUSH1 0x7 ADD PUSH1 0x0 PUSH2 0x100 EXP DUP2 SLOAD DUP2 PUSH1 0xFF MUL NOT AND SWAP1 DUP4 ISZERO ISZERO MUL OR SWAP1 SSTORE POP PUSH2 0x100 DUP3 ADD MLOAD DUP2 PUSH1 0x7 ADD PUSH1 0x1 PUSH2 0x100 EXP DUP2 SLOAD DUP2 PUSH1 0xFF MUL NOT AND SWAP1 DUP4 PUSH1 0x3 DUP2 GT ISZERO PUSH2 0x238F JUMPI PUSH2 0x238F PUSH2 0x3AB6 JUMP JUMPDEST MUL OR SWAP1 SSTORE POP PUSH2 0x120 DUP3 ADD MLOAD PUSH1 0x8 DUP3 ADD SWAP1 PUSH2 0x23A9 SWAP1 DUP3 PUSH2 0x43D4 JUMP JUMPDEST POP SWAP1 POP POP CALLER PUSH1 0x1 PUSH1 0x1 PUSH1 0xA0 SHL SUB AND DUP2 PUSH32 0x7585F467599D0F008985F231AF99293BE388626AC16CA59505C2F8F88969CD63 DUP8 PUSH1 0x40 MLOAD PUSH2 0x23E7 SWAP2 SWAP1 PUSH2 0x3B62 JUMP JUMPDEST PUSH1 0x40 MLOAD DUP1 SWAP2 SUB SWAP1 LOG3 SWAP5 SWAP4 POP POP POP POP JUMP JUMPDEST PUSH1 0x16 PUSH1 0x20 MSTORE DUP2 PUSH1 0x0 MSTORE PUSH1 0x40 PUSH1 0x0 KECCAK256 DUP2 DUP2 SLOAD DUP2 LT PUSH2 0x2413 JUMPI PUSH1 0x0 DUP1 REVERT JUMPDEST PUSH1 0x0 SWAP2 DUP3 MSTORE PUSH1 0x20 SWAP1 SWAP2 KECCAK256 PUSH1 0x5 SWAP1 SWAP2 MUL ADD DUP1 SLOAD PUSH1 0x1 DUP3 ADD SLOAD PUSH1 0x2 DUP4 ADD SLOAD PUSH1 0x3 DUP5 ADD SLOAD PUSH1 0x4 SWAP1 SWAP5 ADD SLOAD SWAP3 SWAP6 POP SWAP1 SWAP4 POP SWAP2 SWAP1 PUSH1 0xFF AND DUP6 JUMP JUMPDEST PUSH2 0x2450 PUSH2 0x2F2C JUMP JUMPDEST DUP1 PUSH2 0x245A CALLER PUSH2 0x1C06 JUMP JUMPDEST LT ISZERO PUSH2 0x2478 JUMPI PUSH1 0x40 MLOAD PUSH3 0x461BCD PUSH1 0xE5 SHL DUP2 MSTORE PUSH1 0x4 ADD PUSH2 0x130D SWAP1 PUSH2 0x42E4 JUMP JUMPDEST PUSH2 0x2483 CALLER ADDRESS DUP4 PUSH2 0x30C8 JUMP JUMPDEST DUP1 PUSH1 0x18 PUSH1 0x0 DUP3 DUP3 SLOAD PUSH2 0x1832 SWAP2 SWAP1 PUSH2 0x42D1 JUMP JUMPDEST PUSH2 0x249D PUSH2 0x2F2C JUMP JUMPDEST PUSH1 0x7 SLOAD DUP2 PUSH2 0x24AB DUP5 DUP7 PUSH2 0x42D1 JUMP JUMPDEST PUSH2 0x24B5 SWAP2 SWAP1 PUSH2 0x42D1 JUMP JUMPDEST EQ PUSH2 0x250C JUMPI PUSH1 0x40 MLOAD PUSH3 0x461BCD PUSH1 0xE5 SHL DUP2 MSTORE PUSH1 0x20 PUSH1 0x4 DUP3 ADD MSTORE PUSH1 0x21 PUSH1 0x24 DUP3 ADD MSTORE PUSH32 0x446973747269627574696F6E206D75737420657175616C20746F74616C206665 PUSH1 0x44 DUP3 ADD MSTORE PUSH1 0x65 PUSH1 0xF8 SHL PUSH1 0x64 DUP3 ADD MSTORE PUSH1 0x84 ADD PUSH2 0x130D JUMP JUMPDEST PUSH1 0x8 DUP4 SWAP1 SSTORE PUSH1 0x9 DUP3 SWAP1 SSTORE PUSH1 0xA DUP2 SWAP1 SSTORE PUSH1 0x40 DUP1 MLOAD DUP5 DUP2 MSTORE PUSH1 0x20 DUP2 ADD DUP5 SWAP1 MSTORE SWAP1 DUP2 ADD DUP3 SWAP1 MSTORE PUSH32 0x69FC4C7BA13251E049284D74AF6F22B2804DB0152DEB918F6CF17451917FE97F SWAP1 PUSH1 0x60 ADD PUSH1 0x40 MLOAD DUP1 SWAP2 SUB SWAP1 LOG1 POP POP POP JUMP JUMPDEST PUSH1 0x0 PUSH2 0x1158 DUP3 PUSH2 0x1C06 JUMP JUMPDEST PUSH1 0xF SLOAD DUP3 LT PUSH2 0x25B3 JUMPI PUSH1 0x40 MLOAD PUSH3 0x461BCD PUSH1 0xE5 SHL DUP2 MSTORE PUSH1 0x20 PUSH1 0x4 DUP3 ADD MSTORE PUSH1 0x13 PUSH1 0x24 DUP3 ADD MSTORE PUSH19 0x125B9D985B1A59081C1C9BDC1BDCD85B081251 PUSH1 0x6A SHL PUSH1 0x44 DUP3 ADD MSTORE PUSH1 0x64 ADD PUSH2 0x130D JUMP JUMPDEST PUSH1 0x0 DUP3 DUP2 MSTORE PUSH1 0x11 PUSH1 0x20 SWAP1 DUP2 MSTORE PUSH1 0x40 DUP1 DUP4 KECCAK256 CALLER DUP5 MSTORE SWAP1 SWAP2 MSTORE SWAP1 KECCAK256 SLOAD PUSH1 0xFF AND ISZERO PUSH2 0x260D JUMPI PUSH1 0x40 MLOAD PUSH3 0x461BCD PUSH1 0xE5 SHL DUP2 MSTORE PUSH1 0x20 PUSH1 0x4 DUP3 ADD MSTORE PUSH1 0xD PUSH1 0x24 DUP3 ADD MSTORE PUSH13 0x105B1C9958591E481D9BDD1959 PUSH1 0x9A SHL PUSH1 0x44 DUP3 ADD MSTORE PUSH1 0x64 ADD PUSH2 0x130D JUMP JUMPDEST PUSH1 0x0 DUP3 DUP2 MSTORE PUSH1 0x10 PUSH1 0x20 MSTORE PUSH1 0x40 SWAP1 KECCAK256 PUSH1 0x6 ADD SLOAD TIMESTAMP GT ISZERO PUSH2 0x2664 JUMPI PUSH1 0x40 MLOAD PUSH3 0x461BCD PUSH1 0xE5 SHL DUP2 MSTORE PUSH1 0x20 PUSH1 0x4 DUP3 ADD MSTORE PUSH1 0x13 PUSH1 0x24 DUP3 ADD MSTORE PUSH19 0x159BDD1A5B99C81C195C9A5BD908195B991959 PUSH1 0x6A SHL PUSH1 0x44 DUP3 ADD MSTORE PUSH1 0x64 ADD PUSH2 0x130D JUMP JUMPDEST PUSH1 0x0 PUSH2 0x266F CALLER PUSH2 0x1C06 JUMP JUMPDEST SWAP1 POP PUSH1 0x0 DUP2 GT PUSH2 0x26B3 JUMPI PUSH1 0x40 MLOAD PUSH3 0x461BCD PUSH1 0xE5 SHL DUP2 MSTORE PUSH1 0x20 PUSH1 0x4 DUP3 ADD MSTORE PUSH1 0xF PUSH1 0x24 DUP3 ADD MSTORE PUSH15 0x2737903B37BA34B733903837BBB2B9 PUSH1 0x89 SHL PUSH1 0x44 DUP3 ADD MSTORE PUSH1 0x64 ADD PUSH2 0x130D JUMP JUMPDEST PUSH1 0x0 DUP4 DUP2 MSTORE PUSH1 0x11 PUSH1 0x20 SWAP1 DUP2 MSTORE PUSH1 0x40 DUP1 DUP4 KECCAK256 CALLER DUP1 DUP6 MSTORE SWAP1 DUP4 MSTORE DUP2 DUP5 KECCAK256 DUP1 SLOAD PUSH1 0xFF NOT AND PUSH1 0x1 OR SWAP1 SSTORE DUP7 DUP5 MSTORE PUSH1 0x12 DUP4 MSTORE DUP2 DUP5 KECCAK256 SWAP1 DUP5 MSTORE SWAP1 SWAP2 MSTORE SWAP1 KECCAK256 DUP2 SWAP1 SSTORE DUP2 ISZERO PUSH2 0x2720 JUMPI PUSH1 0x0 DUP4 DUP2 MSTORE PUSH1 0x10 PUSH1 0x20 MSTORE PUSH1 0x40 DUP2 KECCAK256 PUSH1 0x3 ADD DUP1 SLOAD DUP4 SWAP3 SWAP1 PUSH2 0x2715 SWAP1 DUP5 SWAP1 PUSH2 0x42D1 JUMP JUMPDEST SWAP1 SWAP2 SSTORE POP PUSH2 0x2747 SWAP1 POP JUMP JUMPDEST PUSH1 0x0 DUP4 DUP2 MSTORE PUSH1 0x10 PUSH1 0x20 MSTORE PUSH1 0x40 DUP2 KECCAK256 PUSH1 0x4 ADD DUP1 SLOAD DUP4 SWAP3 SWAP1 PUSH2 0x2741 SWAP1 DUP5 SWAP1 PUSH2 0x42D1 JUMP JUMPDEST SWAP1 SWAP2 SSTORE POP POP JUMPDEST PUSH1 0x40 DUP1 MLOAD DUP4 ISZERO ISZERO DUP2 MSTORE PUSH1 0x20 DUP2 ADD DUP4 SWAP1 MSTORE CALLER SWAP2 DUP6 SWAP2 PUSH32 0xCBDF6214089CBA887ECBF35A0B6A734589959C9763342C756BB2A80CA2BC9F6E SWAP2 ADD JUMPDEST PUSH1 0x40 MLOAD DUP1 SWAP2 SUB SWAP1 LOG3 POP POP POP JUMP JUMPDEST DUP1 MLOAD DUP3 MLOAD EQ PUSH2 0x27D5 JUMPI PUSH1 0x40 MLOAD PUSH3 0x461BCD PUSH1 0xE5 SHL DUP2 MSTORE PUSH1 0x20 PUSH1 0x4 DUP3 ADD MSTORE PUSH1 0x15 PUSH1 0x24 DUP3 ADD MSTORE PUSH21 0x82E4E4C2F240D8CADCCEE8D040DAD2E6DAC2E8C6D PUSH1 0x5B SHL PUSH1 0x44 DUP3 ADD MSTORE PUSH1 0x64 ADD PUSH2 0x130D JUMP JUMPDEST PUSH1 0x0 DUP1 JUMPDEST DUP4 MLOAD DUP2 LT ISZERO PUSH2 0x281B JUMPI DUP4 DUP2 DUP2 MLOAD DUP2 LT PUSH2 0x27F4 JUMPI PUSH2 0x27F4 PUSH2 0x428C JUMP JUMPDEST PUSH1 0x20 MUL PUSH1 0x20 ADD ADD MLOAD DUP3 PUSH2 0x2807 SWAP2 SWAP1 PUSH2 0x42D1 JUMP JUMPDEST SWAP2 POP DUP1 PUSH2 0x2813 DUP2 PUSH2 0x42B8 JUMP JUMPDEST SWAP2 POP POP PUSH2 0x27D9 JUMP JUMPDEST POP DUP1 PUSH2 0x2826 CALLER PUSH2 0x1C06 JUMP JUMPDEST LT ISZERO PUSH2 0x2844 JUMPI PUSH1 0x40 MLOAD PUSH3 0x461BCD PUSH1 0xE5 SHL DUP2 MSTORE PUSH1 0x4 ADD PUSH2 0x130D SWAP1 PUSH2 0x42E4 JUMP JUMPDEST PUSH1 0x0 JUMPDEST DUP4 MLOAD DUP2 LT ISZERO PUSH2 0x28A0 JUMPI PUSH2 0x288E DUP5 DUP3 DUP2 MLOAD DUP2 LT PUSH2 0x2865 JUMPI PUSH2 0x2865 PUSH2 0x428C JUMP JUMPDEST PUSH1 0x20 MUL PUSH1 0x20 ADD ADD MLOAD DUP5 DUP4 DUP2 MLOAD DUP2 LT PUSH2 0x287F JUMPI PUSH2 0x287F PUSH2 0x428C JUMP JUMPDEST PUSH1 0x20 MUL PUSH1 0x20 ADD ADD MLOAD PUSH1 0x0 PUSH2 0x1A04 JUMP JUMPDEST DUP1 PUSH2 0x2898 DUP2 PUSH2 0x42B8 JUMP JUMPDEST SWAP2 POP POP PUSH2 0x2847 JUMP JUMPDEST POP DUP3 MLOAD PUSH1 0x40 MLOAD CALLER SWAP2 PUSH32 0x3ECFF5EF3D4CD5A6AE5E312EB3120F011FBDEC5C46A2C91B50B2524438E8FCEE SWAP2 PUSH2 0x28DC SWAP2 DUP6 DUP3 MSTORE PUSH1 0x20 DUP3 ADD MSTORE PUSH1 0x40 ADD SWAP1 JUMP JUMPDEST PUSH1 0x40 MLOAD DUP1 SWAP2 SUB SWAP1 LOG2 POP POP POP JUMP JUMPDEST PUSH2 0x28F1 PUSH2 0x2F2C JUMP JUMPDEST PUSH1 0x1 PUSH1 0x1 PUSH1 0xA0 SHL SUB DUP2 AND PUSH2 0x291B JUMPI PUSH1 0x40 MLOAD PUSH4 0x1E4FBDF7 PUSH1 0xE0 SHL DUP2 MSTORE PUSH1 0x0 PUSH1 0x4 DUP3 ADD MSTORE PUSH1 0x24 ADD PUSH2 0x130D JUMP JUMPDEST PUSH2 0x1179 DUP2 PUSH2 0x31F0 JUMP JUMPDEST PUSH1 0xF SLOAD DUP2 LT PUSH2 0x296B JUMPI PUSH1 0x40 MLOAD PUSH3 0x461BCD PUSH1 0xE5 SHL DUP2 MSTORE PUSH1 0x20 PUSH1 0x4 DUP3 ADD MSTORE PUSH1 0x13 PUSH1 0x24 DUP3 ADD MSTORE PUSH19 0x125B9D985B1A59081C1C9BDC1BDCD85B081251 PUSH1 0x6A SHL PUSH1 0x44 DUP3 ADD MSTORE PUSH1 0x64 ADD PUSH2 0x130D JUMP JUMPDEST PUSH1 0x0 DUP2 DUP2 MSTORE PUSH1 0x10 PUSH1 0x20 MSTORE PUSH1 0x40 SWAP1 KECCAK256 PUSH1 0x7 DUP2 ADD SLOAD PUSH1 0xFF AND ISZERO PUSH2 0x29C1 JUMPI PUSH1 0x40 MLOAD PUSH3 0x461BCD PUSH1 0xE5 SHL DUP2 MSTORE PUSH1 0x20 PUSH1 0x4 DUP3 ADD MSTORE PUSH1 0x10 PUSH1 0x24 DUP3 ADD MSTORE PUSH16 0x105B1C9958591E48195E1958DD5D1959 PUSH1 0x82 SHL PUSH1 0x44 DUP3 ADD MSTORE PUSH1 0x64 ADD PUSH2 0x130D JUMP JUMPDEST DUP1 PUSH1 0x6 ADD SLOAD TIMESTAMP GT PUSH2 0x2A0A JUMPI PUSH1 0x40 MLOAD PUSH3 0x461BCD PUSH1 0xE5 SHL DUP2 MSTORE PUSH1 0x20 PUSH1 0x4 DUP3 ADD MSTORE PUSH1 0x13 PUSH1 0x24 DUP3 ADD MSTORE PUSH19 0x566F74696E67207374696C6C20616374697665 PUSH1 0x68 SHL PUSH1 0x44 DUP3 ADD MSTORE PUSH1 0x64 ADD PUSH2 0x130D JUMP JUMPDEST PUSH3 0x2A300 DUP2 PUSH1 0x6 ADD SLOAD PUSH2 0x2A1D SWAP2 SWAP1 PUSH2 0x42D1 JUMP JUMPDEST TIMESTAMP GT PUSH2 0x2A6B JUMPI PUSH1 0x40 MLOAD PUSH3 0x461BCD PUSH1 0xE5 SHL DUP2 MSTORE PUSH1 0x20 PUSH1 0x4 DUP3 ADD MSTORE PUSH1 0x17 PUSH1 0x24 DUP3 ADD MSTORE PUSH32 0x457865637574696F6E2064656C6179206E6F74206D6574000000000000000000 PUSH1 0x44 DUP3 ADD MSTORE PUSH1 0x64 ADD PUSH2 0x130D JUMP JUMPDEST PUSH1 0x0 DUP2 PUSH1 0x4 ADD SLOAD DUP3 PUSH1 0x3 ADD SLOAD PUSH2 0x2A81 SWAP2 SWAP1 PUSH2 0x42D1 JUMP JUMPDEST SWAP1 POP PUSH1 0x0 PUSH1 0x64 PUSH1 0xA PUSH2 0x2A92 PUSH1 0x2 SLOAD SWAP1 JUMP JUMPDEST PUSH2 0x2A9C SWAP2 SWAP1 PUSH2 0x4325 JUMP JUMPDEST PUSH2 0x2AA6 SWAP2 SWAP1 PUSH2 0x433C JUMP JUMPDEST SWAP1 POP DUP1 DUP3 LT ISZERO PUSH2 0x2AE9 JUMPI PUSH1 0x40 MLOAD PUSH3 0x461BCD PUSH1 0xE5 SHL DUP2 MSTORE PUSH1 0x20 PUSH1 0x4 DUP3 ADD MSTORE PUSH1 0xE PUSH1 0x24 DUP3 ADD MSTORE PUSH14 0x145D5BDC9D5B481B9BDD081B595D PUSH1 0x92 SHL PUSH1 0x44 DUP3 ADD MSTORE PUSH1 0x64 ADD PUSH2 0x130D JUMP JUMPDEST DUP3 PUSH1 0x4 ADD SLOAD DUP4 PUSH1 0x3 ADD SLOAD GT PUSH2 0x2B34 JUMPI PUSH1 0x40 MLOAD PUSH3 0x461BCD PUSH1 0xE5 SHL DUP2 MSTORE PUSH1 0x20 PUSH1 0x4 DUP3 ADD MSTORE PUSH1 0x11 PUSH1 0x24 DUP3 ADD MSTORE PUSH17 0x141C9BDC1BDCD85B081C995A9958DD1959 PUSH1 0x7A SHL PUSH1 0x44 DUP3 ADD MSTORE PUSH1 0x64 ADD PUSH2 0x130D JUMP JUMPDEST PUSH1 0x7 DUP4 ADD DUP1 SLOAD PUSH1 0xFF NOT AND PUSH1 0x1 SWAP1 DUP2 OR SWAP1 SWAP2 SSTORE PUSH1 0x40 DUP1 MLOAD PUSH2 0x140 DUP2 ADD DUP3 MSTORE DUP6 SLOAD DUP2 MSTORE SWAP2 DUP6 ADD SLOAD PUSH1 0x1 PUSH1 0x1 PUSH1 0xA0 SHL SUB AND PUSH1 0x20 DUP4 ADD MSTORE PUSH1 0x2 DUP6 ADD DUP1 SLOAD PUSH2 0x2D05 SWAP4 SWAP3 DUP8 SWAP3 SWAP1 DUP5 ADD SWAP2 PUSH2 0x2B81 SWAP1 PUSH2 0x4252 JUMP JUMPDEST DUP1 PUSH1 0x1F ADD PUSH1 0x20 DUP1 SWAP2 DIV MUL PUSH1 0x20 ADD PUSH1 0x40 MLOAD SWAP1 DUP2 ADD PUSH1 0x40 MSTORE DUP1 SWAP3 SWAP2 SWAP1 DUP2 DUP2 MSTORE PUSH1 0x20 ADD DUP3 DUP1 SLOAD PUSH2 0x2BAD SWAP1 PUSH2 0x4252 JUMP JUMPDEST DUP1 ISZERO PUSH2 0x2BFA JUMPI DUP1 PUSH1 0x1F LT PUSH2 0x2BCF JUMPI PUSH2 0x100 DUP1 DUP4 SLOAD DIV MUL DUP4 MSTORE SWAP2 PUSH1 0x20 ADD SWAP2 PUSH2 0x2BFA JUMP JUMPDEST DUP3 ADD SWAP2 SWAP1 PUSH1 0x0 MSTORE PUSH1 0x20 PUSH1 0x0 KECCAK256 SWAP1 JUMPDEST DUP2 SLOAD DUP2 MSTORE SWAP1 PUSH1 0x1 ADD SWAP1 PUSH1 0x20 ADD DUP1 DUP4 GT PUSH2 0x2BDD JUMPI DUP3 SWAP1 SUB PUSH1 0x1F AND DUP3 ADD SWAP2 JUMPDEST POP POP POP SWAP2 DUP4 MSTORE POP POP PUSH1 0x3 DUP3 DUP2 ADD SLOAD PUSH1 0x20 DUP4 ADD MSTORE PUSH1 0x4 DUP4 ADD SLOAD PUSH1 0x40 DUP4 ADD MSTORE PUSH1 0x5 DUP4 ADD SLOAD PUSH1 0x60 DUP4 ADD MSTORE PUSH1 0x6 DUP4 ADD SLOAD PUSH1 0x80 DUP4 ADD MSTORE PUSH1 0x7 DUP4 ADD SLOAD PUSH1 0xFF DUP1 DUP3 AND ISZERO ISZERO PUSH1 0xA0 DUP6 ADD MSTORE PUSH1 0xC0 SWAP1 SWAP4 ADD SWAP3 PUSH2 0x100 SWAP1 SWAP2 DIV AND SWAP1 DUP2 GT ISZERO PUSH2 0x2C59 JUMPI PUSH2 0x2C59 PUSH2 0x3AB6 JUMP JUMPDEST PUSH1 0x3 DUP2 GT ISZERO PUSH2 0x2C6A JUMPI PUSH2 0x2C6A PUSH2 0x3AB6 JUMP JUMPDEST DUP2 MSTORE PUSH1 0x20 ADD PUSH1 0x8 DUP3 ADD DUP1 SLOAD PUSH2 0x2C7E SWAP1 PUSH2 0x4252 JUMP JUMPDEST DUP1 PUSH1 0x1F ADD PUSH1 0x20 DUP1 SWAP2 DIV MUL PUSH1 0x20 ADD PUSH1 0x40 MLOAD SWAP1 DUP2 ADD PUSH1 0x40 MSTORE DUP1 SWAP3 SWAP2 SWAP1 DUP2 DUP2 MSTORE PUSH1 0x20 ADD DUP3 DUP1 SLOAD PUSH2 0x2CAA SWAP1 PUSH2 0x4252 JUMP JUMPDEST DUP1 ISZERO PUSH2 0x2CF7 JUMPI DUP1 PUSH1 0x1F LT PUSH2 0x2CCC JUMPI PUSH2 0x100 DUP1 DUP4 SLOAD DIV MUL DUP4 MSTORE SWAP2 PUSH1 0x20 ADD SWAP2 PUSH2 0x2CF7 JUMP JUMPDEST DUP3 ADD SWAP2 SWAP1 PUSH1 0x0 MSTORE PUSH1 0x20 PUSH1 0x0 KECCAK256 SWAP1 JUMPDEST DUP2 SLOAD DUP2 MSTORE SWAP1 PUSH1 0x1 ADD SWAP1 PUSH1 0x20 ADD DUP1 DUP4 GT PUSH2 0x2CDA JUMPI DUP3 SWAP1 SUB PUSH1 0x1F AND DUP3 ADD SWAP2 JUMPDEST POP POP POP POP POP DUP2 MSTORE POP POP PUSH2 0x32BB JUMP JUMPDEST PUSH1 0x40 MLOAD DUP5 SWAP1 PUSH32 0x712AE1383F79AC853F8D882153778E0260EF8F03B504E2866E0593E04D2B291F SWAP1 PUSH1 0x0 SWAP1 LOG2 POP POP POP POP JUMP JUMPDEST PUSH2 0x12BD DUP4 DUP4 DUP4 PUSH1 0x1 PUSH2 0x33FE JUMP JUMPDEST PUSH1 0x2 PUSH1 0x6 SLOAD SUB PUSH2 0x2D66 JUMPI PUSH1 0x40 MLOAD PUSH4 0x3EE5AEB5 PUSH1 0xE0 SHL DUP2 MSTORE PUSH1 0x4 ADD PUSH1 0x40 MLOAD DUP1 SWAP2 SUB SWAP1 REVERT JUMPDEST PUSH1 0x2 PUSH1 0x6 SSTORE JUMP JUMPDEST CALLER PUSH1 0x0 SWAP1 DUP2 MSTORE PUSH1 0x16 PUSH1 0x20 MSTORE PUSH1 0x40 SWAP1 KECCAK256 SLOAD DUP2 LT PUSH2 0x2DC1 JUMPI PUSH1 0x40 MLOAD PUSH3 0x461BCD PUSH1 0xE5 SHL DUP2 MSTORE PUSH1 0x20 PUSH1 0x4 DUP3 ADD MSTORE PUSH1 0x13 PUSH1 0x24 DUP3 ADD MSTORE PUSH19 0x92DCECC2D8D2C840E6E8C2D6CA40D2DCC8CAF PUSH1 0x6B SHL PUSH1 0x44 DUP3 ADD MSTORE PUSH1 0x64 ADD PUSH2 0x130D JUMP JUMPDEST CALLER PUSH1 0x0 SWAP1 DUP2 MSTORE PUSH1 0x16 PUSH1 0x20 MSTORE PUSH1 0x40 DUP2 KECCAK256 DUP1 SLOAD DUP4 SWAP1 DUP2 LT PUSH2 0x2DE2 JUMPI PUSH2 0x2DE2 PUSH2 0x428C JUMP JUMPDEST SWAP1 PUSH1 0x0 MSTORE PUSH1 0x20 PUSH1 0x0 KECCAK256 SWAP1 PUSH1 0x5 MUL ADD SWAP1 POP PUSH1 0x0 DUP2 PUSH1 0x0 ADD SLOAD GT PUSH2 0x2E38 JUMPI PUSH1 0x40 MLOAD PUSH3 0x461BCD PUSH1 0xE5 SHL DUP2 MSTORE PUSH1 0x20 PUSH1 0x4 DUP3 ADD MSTORE PUSH1 0xF PUSH1 0x24 DUP3 ADD MSTORE PUSH15 0x4E6F20616374697665207374616B65 PUSH1 0x88 SHL PUSH1 0x44 DUP3 ADD MSTORE PUSH1 0x64 ADD PUSH2 0x130D JUMP JUMPDEST PUSH1 0x0 PUSH2 0x2E44 CALLER DUP5 PUSH2 0x2F59 JUMP JUMPDEST SWAP1 POP PUSH1 0x0 DUP2 GT DUP1 ISZERO PUSH2 0x2E58 JUMPI POP PUSH1 0x18 SLOAD DUP2 GT ISZERO JUMPDEST ISZERO PUSH2 0x12BD JUMPI TIMESTAMP DUP3 PUSH1 0x2 ADD DUP2 SWAP1 SSTORE POP DUP1 PUSH1 0x18 PUSH1 0x0 DUP3 DUP3 SLOAD PUSH2 0x2E78 SWAP2 SWAP1 PUSH2 0x4312 JUMP JUMPDEST SWAP1 SWAP2 SSTORE POP POP PUSH1 0x4 DUP3 ADD SLOAD PUSH1 0xFF AND ISZERO PUSH2 0x2EC2 JUMPI DUP1 DUP3 PUSH1 0x0 ADD PUSH1 0x0 DUP3 DUP3 SLOAD PUSH2 0x2E9E SWAP2 SWAP1 PUSH2 0x42D1 JUMP JUMPDEST SWAP3 POP POP DUP2 SWAP1 SSTORE POP DUP1 PUSH1 0x17 PUSH1 0x0 DUP3 DUP3 SLOAD PUSH2 0x2EB7 SWAP2 SWAP1 PUSH2 0x42D1 JUMP JUMPDEST SWAP1 SWAP2 SSTORE POP PUSH2 0x2ECD SWAP1 POP JUMP JUMPDEST PUSH2 0x2ECD ADDRESS CALLER DUP4 PUSH2 0x30C8 JUMP JUMPDEST CALLER PUSH1 0x0 SWAP1 DUP2 MSTORE PUSH1 0x26 PUSH1 0x20 MSTORE PUSH1 0x40 DUP2 KECCAK256 PUSH1 0x1 ADD DUP1 SLOAD DUP4 SWAP3 SWAP1 PUSH2 0x2EEF SWAP1 DUP5 SWAP1 PUSH2 0x42D1 JUMP JUMPDEST SWAP1 SWAP2 SSTORE POP POP PUSH1 0x40 DUP1 MLOAD DUP3 DUP2 MSTORE PUSH1 0x20 DUP2 ADD DUP6 SWAP1 MSTORE CALLER SWAP2 PUSH32 0xF01DA32686223933D8A18A391060918C7F11A3648639EDD87AE013E2E2731743 SWAP2 ADD PUSH2 0x28DC JUMP JUMPDEST PUSH1 0x5 SLOAD PUSH1 0x1 PUSH1 0x1 PUSH1 0xA0 SHL SUB AND CALLER EQ PUSH2 0x1C33 JUMPI PUSH1 0x40 MLOAD PUSH4 0x118CDAA7 PUSH1 0xE0 SHL DUP2 MSTORE CALLER PUSH1 0x4 DUP3 ADD MSTORE PUSH1 0x24 ADD PUSH2 0x130D JUMP JUMPDEST PUSH1 0x1 PUSH1 0x1 PUSH1 0xA0 SHL SUB DUP3 AND PUSH1 0x0 SWAP1 DUP2 MSTORE PUSH1 0x16 PUSH1 0x20 MSTORE PUSH1 0x40 DUP2 KECCAK256 DUP1 SLOAD DUP3 SWAP2 SWAP1 DUP5 SWAP1 DUP2 LT PUSH2 0x2F86 JUMPI PUSH2 0x2F86 PUSH2 0x428C JUMP JUMPDEST PUSH1 0x0 SWAP2 DUP3 MSTORE PUSH1 0x20 DUP1 DUP4 KECCAK256 PUSH1 0x40 DUP1 MLOAD PUSH1 0xA0 DUP2 ADD DUP3 MSTORE PUSH1 0x5 SWAP1 SWAP5 MUL SWAP1 SWAP2 ADD DUP1 SLOAD DUP1 DUP6 MSTORE PUSH1 0x1 DUP3 ADD SLOAD SWAP4 DUP6 ADD SWAP4 SWAP1 SWAP4 MSTORE PUSH1 0x2 DUP2 ADD SLOAD SWAP2 DUP5 ADD SWAP2 SWAP1 SWAP2 MSTORE PUSH1 0x3 DUP2 ADD SLOAD PUSH1 0x60 DUP5 ADD MSTORE PUSH1 0x4 ADD SLOAD PUSH1 0xFF AND ISZERO ISZERO PUSH1 0x80 DUP4 ADD MSTORE SWAP1 SWAP3 POP SWAP1 SUB PUSH2 0x2FEA JUMPI PUSH1 0x0 SWAP2 POP POP PUSH2 0x1158 JUMP JUMPDEST PUSH1 0x0 DUP2 PUSH1 0x40 ADD MLOAD TIMESTAMP PUSH2 0x2FFC SWAP2 SWAP1 PUSH2 0x4312 JUMP JUMPDEST PUSH1 0x60 DUP4 ADD MLOAD PUSH1 0x0 SWAP1 DUP2 MSTORE PUSH1 0x19 PUSH1 0x20 MSTORE PUSH1 0x40 DUP2 KECCAK256 SLOAD DUP5 MLOAD SWAP3 SWAP4 POP SWAP2 PUSH5 0x496CEBB800 SWAP1 DUP5 SWAP1 PUSH2 0x302A SWAP1 DUP6 SWAP1 PUSH2 0x4325 JUMP JUMPDEST PUSH2 0x3034 SWAP2 SWAP1 PUSH2 0x4325 JUMP JUMPDEST PUSH2 0x303E SWAP2 SWAP1 PUSH2 0x433C JUMP JUMPDEST SWAP8 SWAP7 POP POP POP POP POP POP POP JUMP JUMPDEST PUSH1 0x1 PUSH1 0x1 PUSH1 0xA0 SHL SUB DUP4 DUP2 AND PUSH1 0x0 SWAP1 DUP2 MSTORE PUSH1 0x1 PUSH1 0x20 SWAP1 DUP2 MSTORE PUSH1 0x40 DUP1 DUP4 KECCAK256 SWAP4 DUP7 AND DUP4 MSTORE SWAP3 SWAP1 MSTORE KECCAK256 SLOAD PUSH1 0x0 NOT DUP2 LT ISZERO PUSH2 0x30C2 JUMPI DUP2 DUP2 LT ISZERO PUSH2 0x30B3 JUMPI PUSH1 0x40 MLOAD PUSH4 0x7DC7A0D9 PUSH1 0xE1 SHL DUP2 MSTORE PUSH1 0x1 PUSH1 0x1 PUSH1 0xA0 SHL SUB DUP5 AND PUSH1 0x4 DUP3 ADD MSTORE PUSH1 0x24 DUP2 ADD DUP3 SWAP1 MSTORE PUSH1 0x44 DUP2 ADD DUP4 SWAP1 MSTORE PUSH1 0x64 ADD PUSH2 0x130D JUMP JUMPDEST PUSH2 0x30C2 DUP5 DUP5 DUP5 DUP5 SUB PUSH1 0x0 PUSH2 0x33FE JUMP JUMPDEST POP POP POP POP JUMP JUMPDEST PUSH1 0x1 PUSH1 0x1 PUSH1 0xA0 SHL SUB DUP4 AND PUSH2 0x30F2 JUMPI PUSH1 0x40 MLOAD PUSH4 0x4B637E8F PUSH1 0xE1 SHL DUP2 MSTORE PUSH1 0x0 PUSH1 0x4 DUP3 ADD MSTORE PUSH1 0x24 ADD PUSH2 0x130D JUMP JUMPDEST PUSH1 0x1 PUSH1 0x1 PUSH1 0xA0 SHL SUB DUP3 AND PUSH2 0x311C JUMPI PUSH1 0x40 MLOAD PUSH4 0xEC442F05 PUSH1 0xE0 SHL DUP2 MSTORE PUSH1 0x0 PUSH1 0x4 DUP3 ADD MSTORE PUSH1 0x24 ADD PUSH2 0x130D JUMP JUMPDEST PUSH2 0x12BD DUP4 DUP4 DUP4 PUSH2 0x34D3 JUMP JUMPDEST PUSH1 0x1 PUSH1 0x1 PUSH1 0xA0 SHL SUB DUP3 AND PUSH2 0x3151 JUMPI PUSH1 0x40 MLOAD PUSH4 0x4B637E8F PUSH1 0xE1 SHL DUP2 MSTORE PUSH1 0x0 PUSH1 0x4 DUP3 ADD MSTORE PUSH1 0x24 ADD PUSH2 0x130D JUMP JUMPDEST PUSH2 0x1909 DUP3 PUSH1 0x0 DUP4 PUSH2 0x34D3 JUMP JUMPDEST PUSH2 0x3165 PUSH2 0x3844 JUMP JUMPDEST PUSH1 0x5 DUP1 SLOAD PUSH1 0xFF PUSH1 0xA0 SHL NOT AND SWAP1 SSTORE PUSH32 0x5DB9EE0A495BF2E6FF9C91A7834C1BA4FDD244A5E8AA4E537BD38AEAE4B073AA CALLER JUMPDEST PUSH1 0x40 MLOAD PUSH1 0x1 PUSH1 0x1 PUSH1 0xA0 SHL SUB SWAP1 SWAP2 AND DUP2 MSTORE PUSH1 0x20 ADD PUSH2 0x1896 JUMP JUMPDEST PUSH2 0x31B5 PUSH2 0x386E JUMP JUMPDEST PUSH1 0x5 DUP1 SLOAD PUSH1 0xFF PUSH1 0xA0 SHL NOT AND PUSH1 0x1 PUSH1 0xA0 SHL OR SWAP1 SSTORE PUSH32 0x62E78CEA01BEE320CD4E420270B5EA74000D11B0C9F74754EBDBFC544B05A258 PUSH2 0x3195 CALLER SWAP1 JUMP JUMPDEST PUSH1 0x5 DUP1 SLOAD PUSH1 0x1 PUSH1 0x1 PUSH1 0xA0 SHL SUB DUP4 DUP2 AND PUSH1 0x1 PUSH1 0x1 PUSH1 0xA0 SHL SUB NOT DUP4 AND DUP2 OR SWAP1 SWAP4 SSTORE PUSH1 0x40 MLOAD SWAP2 AND SWAP2 SWAP1 DUP3 SWAP1 PUSH32 0x8BE0079C531659141344CD1FD0A4F28419497F9722A3DAAFE3B4186F6B6457E0 SWAP1 PUSH1 0x0 SWAP1 LOG3 POP POP JUMP JUMPDEST PUSH1 0x1D SLOAD PUSH1 0xFF AND DUP1 ISZERO PUSH2 0x3264 JUMPI POP CALLER PUSH1 0x0 SWAP1 DUP2 MSTORE PUSH1 0xE PUSH1 0x20 MSTORE PUSH1 0x40 SWAP1 KECCAK256 SLOAD PUSH1 0xFF AND ISZERO JUMPDEST ISZERO PUSH2 0x1179 JUMPI PUSH1 0x1A SLOAD DUP2 GT ISZERO PUSH2 0x1179 JUMPI PUSH1 0x40 MLOAD PUSH3 0x461BCD PUSH1 0xE5 SHL DUP2 MSTORE PUSH1 0x20 PUSH1 0x4 DUP3 ADD DUP2 SWAP1 MSTORE PUSH1 0x24 DUP3 ADD MSTORE PUSH32 0x5472616E73616374696F6E20616D6F756E742065786365656473206C696D6974 PUSH1 0x44 DUP3 ADD MSTORE PUSH1 0x64 ADD PUSH2 0x130D JUMP JUMPDEST PUSH1 0x0 DUP2 PUSH2 0x100 ADD MLOAD PUSH1 0x3 DUP2 GT ISZERO PUSH2 0x32D4 JUMPI PUSH2 0x32D4 PUSH2 0x3AB6 JUMP JUMPDEST SUB PUSH2 0x3343 JUMPI PUSH1 0x0 DUP2 PUSH2 0x120 ADD MLOAD DUP1 PUSH1 0x20 ADD SWAP1 MLOAD DUP2 ADD SWAP1 PUSH2 0x32F4 SWAP2 SWAP1 PUSH2 0x4494 JUMP JUMPDEST SWAP1 POP PUSH1 0xC8 DUP2 GT ISZERO PUSH2 0x333D JUMPI PUSH1 0x40 MLOAD PUSH3 0x461BCD PUSH1 0xE5 SHL DUP2 MSTORE PUSH1 0x20 PUSH1 0x4 DUP3 ADD MSTORE PUSH1 0x13 PUSH1 0x24 DUP3 ADD MSTORE PUSH19 0x4665652065786365656473206D6178696D756D PUSH1 0x68 SHL PUSH1 0x44 DUP3 ADD MSTORE PUSH1 0x64 ADD PUSH2 0x130D JUMP JUMPDEST PUSH1 0x7 SSTORE POP JUMP JUMPDEST PUSH1 0x1 DUP2 PUSH2 0x100 ADD MLOAD PUSH1 0x3 DUP2 GT ISZERO PUSH2 0x335C JUMPI PUSH2 0x335C PUSH2 0x3AB6 JUMP JUMPDEST SUB PUSH2 0x1179 JUMPI PUSH1 0x0 DUP1 DUP3 PUSH2 0x120 ADD MLOAD DUP1 PUSH1 0x20 ADD SWAP1 MLOAD DUP2 ADD SWAP1 PUSH2 0x337D SWAP2 SWAP1 PUSH2 0x44AD JUMP JUMPDEST PUSH1 0xC SLOAD SWAP2 SWAP4 POP SWAP2 POP DUP2 SWAP1 PUSH2 0x3399 SWAP1 PUSH1 0x1 PUSH1 0x1 PUSH1 0xA0 SHL SUB AND PUSH2 0x1C06 JUMP JUMPDEST LT ISZERO PUSH2 0x33E7 JUMPI PUSH1 0x40 MLOAD PUSH3 0x461BCD PUSH1 0xE5 SHL DUP2 MSTORE PUSH1 0x20 PUSH1 0x4 DUP3 ADD MSTORE PUSH1 0x1D PUSH1 0x24 DUP3 ADD MSTORE PUSH32 0x496E73756666696369656E742074726561737572792062616C616E6365000000 PUSH1 0x44 DUP3 ADD MSTORE PUSH1 0x64 ADD PUSH2 0x130D JUMP JUMPDEST PUSH1 0xC SLOAD PUSH2 0x12BD SWAP1 PUSH1 0x1 PUSH1 0x1 PUSH1 0xA0 SHL SUB AND DUP4 DUP4 PUSH2 0x30C8 JUMP JUMPDEST PUSH1 0x1 PUSH1 0x1 PUSH1 0xA0 SHL SUB DUP5 AND PUSH2 0x3428 JUMPI PUSH1 0x40 MLOAD PUSH4 0xE602DF05 PUSH1 0xE0 SHL DUP2 MSTORE PUSH1 0x0 PUSH1 0x4 DUP3 ADD MSTORE PUSH1 0x24 ADD PUSH2 0x130D JUMP JUMPDEST PUSH1 0x1 PUSH1 0x1 PUSH1 0xA0 SHL SUB DUP4 AND PUSH2 0x3452 JUMPI PUSH1 0x40 MLOAD PUSH4 0x4A1406B1 PUSH1 0xE1 SHL DUP2 MSTORE PUSH1 0x0 PUSH1 0x4 DUP3 ADD MSTORE PUSH1 0x24 ADD PUSH2 0x130D JUMP JUMPDEST PUSH1 0x1 PUSH1 0x1 PUSH1 0xA0 SHL SUB DUP1 DUP6 AND PUSH1 0x0 SWAP1 DUP2 MSTORE PUSH1 0x1 PUSH1 0x20 SWAP1 DUP2 MSTORE PUSH1 0x40 DUP1 DUP4 KECCAK256 SWAP4 DUP8 AND DUP4 MSTORE SWAP3 SWAP1 MSTORE KECCAK256 DUP3 SWAP1 SSTORE DUP1 ISZERO PUSH2 0x30C2 JUMPI DUP3 PUSH1 0x1 PUSH1 0x1 PUSH1 0xA0 SHL SUB AND DUP5 PUSH1 0x1 PUSH1 0x1 PUSH1 0xA0 SHL SUB AND PUSH32 0x8C5BE1E5EBEC7D5BD14F71427D1E84F3DD0314C0F7B2291E5B200AC8C7C3B925 DUP5 PUSH1 0x40 MLOAD PUSH2 0x34C5 SWAP2 DUP2 MSTORE PUSH1 0x20 ADD SWAP1 JUMP JUMPDEST PUSH1 0x40 MLOAD DUP1 SWAP2 SUB SWAP1 LOG3 POP POP POP POP JUMP JUMPDEST PUSH2 0x34DB PUSH2 0x386E JUMP JUMPDEST PUSH1 0x1 PUSH1 0x1 PUSH1 0xA0 SHL SUB DUP4 AND ISZERO DUP1 ISZERO SWAP1 PUSH2 0x34FB JUMPI POP PUSH1 0x1 PUSH1 0x1 PUSH1 0xA0 SHL SUB DUP3 AND ISZERO ISZERO JUMPDEST ISZERO PUSH2 0x350B JUMPI PUSH2 0x350B DUP4 DUP4 DUP4 PUSH2 0x3899 JUMP JUMPDEST PUSH1 0x1 PUSH1 0x1 PUSH1 0xA0 SHL SUB DUP4 AND ISZERO DUP1 PUSH2 0x3528 JUMPI POP PUSH1 0x1 PUSH1 0x1 PUSH1 0xA0 SHL SUB DUP3 AND ISZERO JUMPDEST DUP1 PUSH2 0x3533 JUMPI POP PUSH1 0x7 SLOAD ISZERO JUMPDEST DUP1 PUSH2 0x3556 JUMPI POP PUSH1 0x1 PUSH1 0x1 PUSH1 0xA0 SHL SUB DUP4 AND PUSH1 0x0 SWAP1 DUP2 MSTORE PUSH1 0xE PUSH1 0x20 MSTORE PUSH1 0x40 SWAP1 KECCAK256 SLOAD PUSH1 0xFF AND JUMPDEST DUP1 PUSH2 0x3579 JUMPI POP PUSH1 0x1 PUSH1 0x1 PUSH1 0xA0 SHL SUB DUP3 AND PUSH1 0x0 SWAP1 DUP2 MSTORE PUSH1 0xE PUSH1 0x20 MSTORE PUSH1 0x40 SWAP1 KECCAK256 SLOAD PUSH1 0xFF AND JUMPDEST ISZERO PUSH2 0x35F3 JUMPI PUSH2 0x3589 DUP4 DUP4 DUP4 PUSH2 0x393A JUMP JUMPDEST PUSH1 0x1 PUSH1 0x1 PUSH1 0xA0 SHL SUB DUP4 AND ISZERO DUP1 ISZERO SWAP1 PUSH2 0x35A9 JUMPI POP PUSH1 0x1 PUSH1 0x1 PUSH1 0xA0 SHL SUB DUP3 AND ISZERO ISZERO JUMPDEST ISZERO PUSH2 0x12BD JUMPI DUP2 PUSH1 0x1 PUSH1 0x1 PUSH1 0xA0 SHL SUB AND DUP4 PUSH1 0x1 PUSH1 0x1 PUSH1 0xA0 SHL SUB AND PUSH32 0x59ABB1A21AC9C02D9C217285768A906AF17496E4CADA7962F129B92F0AC948CF DUP4 PUSH1 0x40 MLOAD PUSH2 0x277F SWAP2 DUP2 MSTORE PUSH1 0x20 ADD SWAP1 JUMP JUMPDEST PUSH1 0x1D SLOAD PUSH1 0xFF AND DUP1 ISZERO PUSH2 0x360E JUMPI POP PUSH1 0x1 PUSH1 0x1 PUSH1 0xA0 SHL SUB DUP4 AND ADDRESS EQ ISZERO JUMPDEST DUP1 ISZERO PUSH2 0x3623 JUMPI POP PUSH1 0x1 PUSH1 0x1 PUSH1 0xA0 SHL SUB DUP3 AND ADDRESS EQ ISZERO JUMPDEST ISZERO PUSH2 0x36AE JUMPI PUSH2 0x3631 DUP2 PUSH2 0x3242 JUMP JUMPDEST PUSH1 0x1B SLOAD DUP2 PUSH2 0x363E DUP5 PUSH2 0x1C06 JUMP JUMPDEST PUSH2 0x3648 SWAP2 SWAP1 PUSH2 0x42D1 JUMP JUMPDEST GT ISZERO PUSH2 0x36AE JUMPI PUSH1 0x1 PUSH1 0x1 PUSH1 0xA0 SHL SUB DUP3 AND PUSH1 0x0 SWAP1 DUP2 MSTORE PUSH1 0xE PUSH1 0x20 MSTORE PUSH1 0x40 SWAP1 KECCAK256 SLOAD PUSH1 0xFF AND PUSH2 0x36AE JUMPI PUSH1 0x40 MLOAD PUSH3 0x461BCD PUSH1 0xE5 SHL DUP2 MSTORE PUSH1 0x20 PUSH1 0x4 DUP3 ADD MSTORE PUSH1 0x15 PUSH1 0x24 DUP3 ADD MSTORE PUSH21 0x15D85B1B195D081B1A5B5A5D08195E18D959591959 PUSH1 0x5A SHL PUSH1 0x44 DUP3 ADD MSTORE PUSH1 0x64 ADD PUSH2 0x130D JUMP JUMPDEST PUSH1 0x0 PUSH2 0x2710 PUSH1 0x7 SLOAD DUP4 PUSH2 0x36C1 SWAP2 SWAP1 PUSH2 0x4325 JUMP JUMPDEST PUSH2 0x36CB SWAP2 SWAP1 PUSH2 0x433C JUMP JUMPDEST SWAP1 POP PUSH1 0x0 PUSH1 0x7 SLOAD PUSH1 0x8 SLOAD DUP4 PUSH2 0x36E0 SWAP2 SWAP1 PUSH2 0x4325 JUMP JUMPDEST PUSH2 0x36EA SWAP2 SWAP1 PUSH2 0x433C JUMP JUMPDEST SWAP1 POP PUSH1 0x0 PUSH1 0x7 SLOAD PUSH1 0x9 SLOAD DUP5 PUSH2 0x36FF SWAP2 SWAP1 PUSH2 0x4325 JUMP JUMPDEST PUSH2 0x3709 SWAP2 SWAP1 PUSH2 0x433C JUMP JUMPDEST SWAP1 POP PUSH1 0x0 DUP2 PUSH2 0x3718 DUP5 DUP7 PUSH2 0x4312 JUMP JUMPDEST PUSH2 0x3722 SWAP2 SWAP1 PUSH2 0x4312 JUMP JUMPDEST SWAP1 POP PUSH1 0x0 PUSH2 0x3730 DUP6 DUP8 PUSH2 0x4312 JUMP JUMPDEST SWAP1 POP DUP4 ISZERO PUSH2 0x3750 JUMPI PUSH1 0xC SLOAD PUSH2 0x3750 SWAP1 DUP10 SWAP1 PUSH1 0x1 PUSH1 0x1 PUSH1 0xA0 SHL SUB AND DUP7 PUSH2 0x393A JUMP JUMPDEST DUP3 ISZERO PUSH2 0x376E JUMPI PUSH1 0xD SLOAD PUSH2 0x376E SWAP1 DUP10 SWAP1 PUSH1 0x1 PUSH1 0x1 PUSH1 0xA0 SHL SUB AND DUP6 PUSH2 0x393A JUMP JUMPDEST DUP2 ISZERO PUSH2 0x3799 JUMPI PUSH2 0x377E DUP9 DUP4 PUSH2 0x3127 JUMP JUMPDEST DUP2 PUSH1 0x21 PUSH1 0x1 ADD PUSH1 0x0 DUP3 DUP3 SLOAD PUSH2 0x3793 SWAP2 SWAP1 PUSH2 0x42D1 JUMP JUMPDEST SWAP1 SWAP2 SSTORE POP POP JUMPDEST PUSH2 0x37A4 DUP9 DUP9 DUP4 PUSH2 0x393A JUMP JUMPDEST DUP5 PUSH1 0x21 PUSH1 0x0 ADD PUSH1 0x0 DUP3 DUP3 SLOAD PUSH2 0x37B9 SWAP2 SWAP1 PUSH2 0x42D1 JUMP JUMPDEST SWAP1 SWAP2 SSTORE POP POP PUSH1 0x1 PUSH1 0x1 PUSH1 0xA0 SHL SUB DUP9 AND PUSH1 0x0 SWAP1 DUP2 MSTORE PUSH1 0x26 PUSH1 0x20 MSTORE PUSH1 0x40 DUP2 KECCAK256 DUP1 SLOAD DUP8 SWAP3 SWAP1 PUSH2 0x37E6 SWAP1 DUP5 SWAP1 PUSH2 0x42D1 JUMP JUMPDEST SWAP3 POP POP DUP2 SWAP1 SSTORE POP DUP7 PUSH1 0x1 PUSH1 0x1 PUSH1 0xA0 SHL SUB AND DUP9 PUSH1 0x1 PUSH1 0x1 PUSH1 0xA0 SHL SUB AND PUSH32 0x59ABB1A21AC9C02D9C217285768A906AF17496E4CADA7962F129B92F0AC948CF DUP4 PUSH1 0x40 MLOAD PUSH2 0x3832 SWAP2 DUP2 MSTORE PUSH1 0x20 ADD SWAP1 JUMP JUMPDEST PUSH1 0x40 MLOAD DUP1 SWAP2 SUB SWAP1 LOG3 POP POP POP POP POP POP POP POP JUMP JUMPDEST PUSH1 0x5 SLOAD PUSH1 0x1 PUSH1 0xA0 SHL SWAP1 DIV PUSH1 0xFF AND PUSH2 0x1C33 JUMPI PUSH1 0x40 MLOAD PUSH4 0x8DFC202B PUSH1 0xE0 SHL DUP2 MSTORE PUSH1 0x4 ADD PUSH1 0x40 MLOAD DUP1 SWAP2 SUB SWAP1 REVERT JUMPDEST PUSH1 0x5 SLOAD PUSH1 0x1 PUSH1 0xA0 SHL SWAP1 DIV PUSH1 0xFF AND ISZERO PUSH2 0x1C33 JUMPI PUSH1 0x40 MLOAD PUSH4 0xD93C0665 PUSH1 0xE0 SHL DUP2 MSTORE PUSH1 0x4 ADD PUSH1 0x40 MLOAD DUP1 SWAP2 SUB SWAP1 REVERT JUMPDEST PUSH1 0x25 DUP1 SLOAD SWAP1 PUSH1 0x0 PUSH2 0x38A9 DUP4 PUSH2 0x42B8 JUMP JUMPDEST SWAP1 SWAP2 SSTORE POP POP PUSH1 0x1 PUSH1 0x1 PUSH1 0xA0 SHL SUB DUP4 AND PUSH1 0x0 SWAP1 DUP2 MSTORE PUSH1 0x26 PUSH1 0x20 MSTORE PUSH1 0x40 DUP2 KECCAK256 PUSH1 0x2 ADD DUP1 SLOAD SWAP2 PUSH2 0x38D5 DUP4 PUSH2 0x42B8 JUMP JUMPDEST SWAP1 SWAP2 SSTORE POP POP PUSH1 0x1 PUSH1 0x1 PUSH1 0xA0 SHL SUB DUP3 AND PUSH1 0x0 SWAP1 DUP2 MSTORE PUSH1 0x26 PUSH1 0x20 MSTORE PUSH1 0x40 DUP2 KECCAK256 PUSH1 0x3 ADD SLOAD SWAP1 SUB PUSH2 0x392F JUMPI PUSH1 0x1 PUSH1 0x1 PUSH1 0xA0 SHL SUB DUP3 AND PUSH1 0x0 SWAP1 DUP2 MSTORE PUSH1 0x26 PUSH1 0x20 MSTORE PUSH1 0x40 DUP2 KECCAK256 TIMESTAMP PUSH1 0x3 SWAP1 SWAP2 ADD SSTORE PUSH1 0x24 DUP1 SLOAD SWAP2 PUSH2 0x3929 DUP4 PUSH2 0x42B8 JUMP JUMPDEST SWAP2 SWAP1 POP SSTORE POP JUMPDEST POP POP PUSH1 0x17 SLOAD PUSH1 0x23 SSTORE POP JUMP JUMPDEST PUSH1 0x1 PUSH1 0x1 PUSH1 0xA0 SHL SUB DUP4 AND PUSH2 0x3965 JUMPI DUP1 PUSH1 0x2 PUSH1 0x0 DUP3 DUP3 SLOAD PUSH2 0x395A SWAP2 SWAP1 PUSH2 0x42D1 JUMP JUMPDEST SWAP1 SWAP2 SSTORE POP PUSH2 0x39D7 SWAP1 POP JUMP JUMPDEST PUSH1 0x1 PUSH1 0x1 PUSH1 0xA0 SHL SUB DUP4 AND PUSH1 0x0 SWAP1 DUP2 MSTORE PUSH1 0x20 DUP2 SWAP1 MSTORE PUSH1 0x40 SWAP1 KECCAK256 SLOAD DUP2 DUP2 LT ISZERO PUSH2 0x39B8 JUMPI PUSH1 0x40 MLOAD PUSH4 0x391434E3 PUSH1 0xE2 SHL DUP2 MSTORE PUSH1 0x1 PUSH1 0x1 PUSH1 0xA0 SHL SUB DUP6 AND PUSH1 0x4 DUP3 ADD MSTORE PUSH1 0x24 DUP2 ADD DUP3 SWAP1 MSTORE PUSH1 0x44 DUP2 ADD DUP4 SWAP1 MSTORE PUSH1 0x64 ADD PUSH2 0x130D JUMP JUMPDEST PUSH1 0x1 PUSH1 0x1 PUSH1 0xA0 SHL SUB DUP5 AND PUSH1 0x0 SWAP1 DUP2 MSTORE PUSH1 0x20 DUP2 SWAP1 MSTORE PUSH1 0x40 SWAP1 KECCAK256 SWAP1 DUP3 SWAP1 SUB SWAP1 SSTORE JUMPDEST PUSH1 0x1 PUSH1 0x1 PUSH1 0xA0 SHL SUB DUP3 AND PUSH2 0x39F3 JUMPI PUSH1 0x2 DUP1 SLOAD DUP3 SWAP1 SUB SWAP1 SSTORE PUSH2 0x3A12 JUMP JUMPDEST PUSH1 0x1 PUSH1 0x1 PUSH1 0xA0 SHL SUB DUP3 AND PUSH1 0x0 SWAP1 DUP2 MSTORE PUSH1 0x20 DUP2 SWAP1 MSTORE PUSH1 0x40 SWAP1 KECCAK256 DUP1 SLOAD DUP3 ADD SWAP1 SSTORE JUMPDEST DUP2 PUSH1 0x1 PUSH1 0x1 PUSH1 0xA0 SHL SUB AND DUP4 PUSH1 0x1 PUSH1 0x1 PUSH1 0xA0 SHL SUB AND PUSH32 0xDDF252AD1BE2C89B69C2B068FC378DAA952BA7F163C4A11628F55A4DF523B3EF DUP4 PUSH1 0x40 MLOAD PUSH2 0x277F SWAP2 DUP2 MSTORE PUSH1 0x20 ADD SWAP1 JUMP JUMPDEST PUSH1 0x0 PUSH1 0x20 DUP3 DUP5 SUB SLT ISZERO PUSH2 0x3A69 JUMPI PUSH1 0x0 DUP1 REVERT JUMPDEST POP CALLDATALOAD SWAP2 SWAP1 POP JUMP JUMPDEST PUSH1 0x0 DUP2 MLOAD DUP1 DUP5 MSTORE PUSH1 0x0 JUMPDEST DUP2 DUP2 LT ISZERO PUSH2 0x3A96 JUMPI PUSH1 0x20 DUP2 DUP6 ADD DUP2 ADD MLOAD DUP7 DUP4 ADD DUP3 ADD MSTORE ADD PUSH2 0x3A7A JUMP JUMPDEST POP PUSH1 0x0 PUSH1 0x20 DUP3 DUP7 ADD ADD MSTORE PUSH1 0x20 PUSH1 0x1F NOT PUSH1 0x1F DUP4 ADD AND DUP6 ADD ADD SWAP2 POP POP SWAP3 SWAP2 POP POP JUMP JUMPDEST PUSH4 0x4E487B71 PUSH1 0xE0 SHL PUSH1 0x0 MSTORE PUSH1 0x21 PUSH1 0x4 MSTORE PUSH1 0x24 PUSH1 0x0 REVERT JUMPDEST DUP11 DUP2 MSTORE PUSH1 0x1 PUSH1 0x1 PUSH1 0xA0 SHL SUB DUP11 AND PUSH1 0x20 DUP3 ADD MSTORE PUSH2 0x140 PUSH1 0x40 DUP3 ADD DUP2 SWAP1 MSTORE PUSH1 0x0 SWAP1 PUSH2 0x3AF7 DUP4 DUP3 ADD DUP13 PUSH2 0x3A70 JUMP JUMPDEST SWAP1 POP DUP10 PUSH1 0x60 DUP5 ADD MSTORE DUP9 PUSH1 0x80 DUP5 ADD MSTORE DUP8 PUSH1 0xA0 DUP5 ADD MSTORE DUP7 PUSH1 0xC0 DUP5 ADD MSTORE DUP6 ISZERO ISZERO PUSH1 0xE0 DUP5 ADD MSTORE PUSH1 0x4 DUP6 LT PUSH2 0x3B37 JUMPI PUSH4 0x4E487B71 PUSH1 0xE0 SHL PUSH1 0x0 MSTORE PUSH1 0x21 PUSH1 0x4 MSTORE PUSH1 0x24 PUSH1 0x0 REVERT JUMPDEST DUP5 PUSH2 0x100 DUP5 ADD MSTORE DUP3 DUP2 SUB PUSH2 0x120 DUP5 ADD MSTORE PUSH2 0x3B51 DUP2 DUP6 PUSH2 0x3A70 JUMP JUMPDEST SWAP14 SWAP13 POP POP POP POP POP POP POP POP POP POP POP POP POP JUMP JUMPDEST PUSH1 0x20 DUP2 MSTORE PUSH1 0x0 PUSH2 0x3B75 PUSH1 0x20 DUP4 ADD DUP5 PUSH2 0x3A70 JUMP JUMPDEST SWAP4 SWAP3 POP POP POP JUMP JUMPDEST PUSH1 0x1 PUSH1 0x1 PUSH1 0xA0 SHL SUB DUP2 AND DUP2 EQ PUSH2 0x1179 JUMPI PUSH1 0x0 DUP1 REVERT JUMPDEST PUSH1 0x0 DUP1 PUSH1 0x40 DUP4 DUP6 SUB SLT ISZERO PUSH2 0x3BA4 JUMPI PUSH1 0x0 DUP1 REVERT JUMPDEST DUP3 CALLDATALOAD PUSH2 0x3BAF DUP2 PUSH2 0x3B7C JUMP JUMPDEST SWAP5 PUSH1 0x20 SWAP4 SWAP1 SWAP4 ADD CALLDATALOAD SWAP4 POP POP POP JUMP JUMPDEST PUSH4 0x4E487B71 PUSH1 0xE0 SHL PUSH1 0x0 MSTORE PUSH1 0x41 PUSH1 0x4 MSTORE PUSH1 0x24 PUSH1 0x0 REVERT JUMPDEST PUSH1 0x40 MLOAD PUSH1 0x1F DUP3 ADD PUSH1 0x1F NOT AND DUP2 ADD PUSH8 0xFFFFFFFFFFFFFFFF DUP2 GT DUP3 DUP3 LT OR ISZERO PUSH2 0x3BFC JUMPI PUSH2 0x3BFC PUSH2 0x3BBD JUMP JUMPDEST PUSH1 0x40 MSTORE SWAP2 SWAP1 POP JUMP JUMPDEST PUSH1 0x0 PUSH8 0xFFFFFFFFFFFFFFFF DUP3 GT ISZERO PUSH2 0x3C1E JUMPI PUSH2 0x3C1E PUSH2 0x3BBD JUMP JUMPDEST POP PUSH1 0x5 SHL PUSH1 0x20 ADD SWAP1 JUMP JUMPDEST PUSH1 0x0 DUP3 PUSH1 0x1F DUP4 ADD SLT PUSH2 0x3C39 JUMPI PUSH1 0x0 DUP1 REVERT JUMPDEST DUP2 CALLDATALOAD PUSH1 0x20 PUSH2 0x3C4E PUSH2 0x3C49 DUP4 PUSH2 0x3C04 JUMP JUMPDEST PUSH2 0x3BD3 JUMP JUMPDEST DUP3 DUP2 MSTORE PUSH1 0x5 SWAP3 SWAP1 SWAP3 SHL DUP5 ADD DUP2 ADD SWAP2 DUP2 DUP2 ADD SWAP1 DUP7 DUP5 GT ISZERO PUSH2 0x3C6D JUMPI PUSH1 0x0 DUP1 REVERT JUMPDEST DUP3 DUP7 ADD JUMPDEST DUP5 DUP2 LT ISZERO PUSH2 0x3C91 JUMPI DUP1 CALLDATALOAD PUSH2 0x3C84 DUP2 PUSH2 0x3B7C JUMP JUMPDEST DUP4 MSTORE SWAP2 DUP4 ADD SWAP2 DUP4 ADD PUSH2 0x3C71 JUMP JUMPDEST POP SWAP7 SWAP6 POP POP POP POP POP POP JUMP JUMPDEST DUP1 CALLDATALOAD DUP1 ISZERO ISZERO DUP2 EQ PUSH2 0x3CAC JUMPI PUSH1 0x0 DUP1 REVERT JUMPDEST SWAP2 SWAP1 POP JUMP JUMPDEST PUSH1 0x0 DUP1 PUSH1 0x40 DUP4 DUP6 SUB SLT ISZERO PUSH2 0x3CC4 JUMPI PUSH1 0x0 DUP1 REVERT JUMPDEST DUP3 CALLDATALOAD PUSH8 0xFFFFFFFFFFFFFFFF DUP2 GT ISZERO PUSH2 0x3CDB JUMPI PUSH1 0x0 DUP1 REVERT JUMPDEST PUSH2 0x3CE7 DUP6 DUP3 DUP7 ADD PUSH2 0x3C28 JUMP JUMPDEST SWAP3 POP POP PUSH2 0x3CF6 PUSH1 0x20 DUP5 ADD PUSH2 0x3C9C JUMP JUMPDEST SWAP1 POP SWAP3 POP SWAP3 SWAP1 POP JUMP JUMPDEST PUSH1 0x0 PUSH1 0x20 DUP3 DUP5 SUB SLT ISZERO PUSH2 0x3D11 JUMPI PUSH1 0x0 DUP1 REVERT JUMPDEST DUP2 CALLDATALOAD PUSH2 0x3B75 DUP2 PUSH2 0x3B7C JUMP JUMPDEST PUSH1 0x0 DUP1 PUSH1 0x0 DUP1 PUSH1 0x80 DUP6 DUP8 SUB SLT ISZERO PUSH2 0x3D32 JUMPI PUSH1 0x0 DUP1 REVERT JUMPDEST DUP5 CALLDATALOAD SWAP4 POP PUSH1 0x20 DUP6 ADD CALLDATALOAD SWAP3 POP PUSH1 0x40 DUP6 ADD CALLDATALOAD SWAP2 POP PUSH2 0x3D50 PUSH1 0x60 DUP7 ADD PUSH2 0x3C9C JUMP JUMPDEST SWAP1 POP SWAP3 SWAP6 SWAP2 SWAP5 POP SWAP3 POP JUMP JUMPDEST PUSH1 0x0 DUP1 PUSH1 0x0 PUSH1 0x60 DUP5 DUP7 SUB SLT ISZERO PUSH2 0x3D70 JUMPI PUSH1 0x0 DUP1 REVERT JUMPDEST DUP4 CALLDATALOAD PUSH2 0x3D7B DUP2 PUSH2 0x3B7C JUMP JUMPDEST SWAP3 POP PUSH1 0x20 DUP5 ADD CALLDATALOAD PUSH2 0x3D8B DUP2 PUSH2 0x3B7C JUMP JUMPDEST SWAP3 SWAP6 SWAP3 SWAP5 POP POP POP PUSH1 0x40 SWAP2 SWAP1 SWAP2 ADD CALLDATALOAD SWAP1 JUMP JUMPDEST PUSH1 0x0 PUSH8 0xFFFFFFFFFFFFFFFF DUP4 GT ISZERO PUSH2 0x3DB6 JUMPI PUSH2 0x3DB6 PUSH2 0x3BBD JUMP JUMPDEST PUSH2 0x3DC9 PUSH1 0x1F DUP5 ADD PUSH1 0x1F NOT AND PUSH1 0x20 ADD PUSH2 0x3BD3 JUMP JUMPDEST SWAP1 POP DUP3 DUP2 MSTORE DUP4 DUP4 DUP4 ADD GT ISZERO PUSH2 0x3DDD JUMPI PUSH1 0x0 DUP1 REVERT JUMPDEST DUP3 DUP3 PUSH1 0x20 DUP4 ADD CALLDATACOPY PUSH1 0x0 PUSH1 0x20 DUP5 DUP4 ADD ADD MSTORE SWAP4 SWAP3 POP POP POP JUMP JUMPDEST PUSH1 0x0 DUP3 PUSH1 0x1F DUP4 ADD SLT PUSH2 0x3E05 JUMPI PUSH1 0x0 DUP1 REVERT JUMPDEST PUSH2 0x3B75 DUP4 DUP4 CALLDATALOAD PUSH1 0x20 DUP6 ADD PUSH2 0x3D9C JUMP JUMPDEST PUSH1 0x0 DUP1 PUSH1 0x0 PUSH1 0x60 DUP5 DUP7 SUB SLT ISZERO PUSH2 0x3E29 JUMPI PUSH1 0x0 DUP1 REVERT JUMPDEST DUP4 CALLDATALOAD PUSH2 0x3E34 DUP2 PUSH2 0x3B7C JUMP JUMPDEST SWAP3 POP PUSH1 0x20 DUP5 ADD CALLDATALOAD SWAP2 POP PUSH1 0x40 DUP5 ADD CALLDATALOAD PUSH8 0xFFFFFFFFFFFFFFFF DUP2 GT ISZERO PUSH2 0x3E57 JUMPI PUSH1 0x0 DUP1 REVERT JUMPDEST PUSH2 0x3E63 DUP7 DUP3 DUP8 ADD PUSH2 0x3DF4 JUMP JUMPDEST SWAP2 POP POP SWAP3 POP SWAP3 POP SWAP3 JUMP JUMPDEST PUSH1 0x0 DUP1 PUSH1 0x0 PUSH1 0x60 DUP5 DUP7 SUB SLT ISZERO PUSH2 0x3E82 JUMPI PUSH1 0x0 DUP1 REVERT JUMPDEST DUP4 CALLDATALOAD PUSH2 0x3E8D DUP2 PUSH2 0x3B7C JUMP JUMPDEST SWAP6 PUSH1 0x20 DUP6 ADD CALLDATALOAD SWAP6 POP PUSH1 0x40 SWAP1 SWAP5 ADD CALLDATALOAD SWAP4 SWAP3 POP POP POP JUMP JUMPDEST PUSH1 0x40 DUP1 DUP3 MSTORE DUP4 MLOAD SWAP1 DUP3 ADD DUP2 SWAP1 MSTORE PUSH1 0x0 SWAP1 PUSH1 0x20 SWAP1 PUSH1 0x60 DUP5 ADD SWAP1 DUP3 DUP8 ADD DUP5 JUMPDEST DUP3 DUP2 LT ISZERO PUSH2 0x3EE4 JUMPI DUP2 MLOAD PUSH1 0x1 PUSH1 0x1 PUSH1 0xA0 SHL SUB AND DUP5 MSTORE SWAP3 DUP5 ADD SWAP3 SWAP1 DUP5 ADD SWAP1 PUSH1 0x1 ADD PUSH2 0x3EBF JUMP JUMPDEST POP POP POP DUP4 DUP2 SUB DUP3 DUP6 ADD MSTORE DUP5 MLOAD DUP1 DUP3 MSTORE DUP6 DUP4 ADD SWAP2 DUP4 ADD SWAP1 PUSH1 0x0 JUMPDEST DUP2 DUP2 LT ISZERO PUSH2 0x3F19 JUMPI DUP4 MLOAD DUP4 MSTORE SWAP3 DUP5 ADD SWAP3 SWAP2 DUP5 ADD SWAP2 PUSH1 0x1 ADD PUSH2 0x3EFD JUMP JUMPDEST POP SWAP1 SWAP8 SWAP7 POP POP POP POP POP POP POP JUMP JUMPDEST PUSH1 0x0 DUP1 PUSH1 0x40 DUP4 DUP6 SUB SLT ISZERO PUSH2 0x3F39 JUMPI PUSH1 0x0 DUP1 REVERT JUMPDEST DUP3 CALLDATALOAD SWAP2 POP PUSH1 0x20 DUP4 ADD CALLDATALOAD PUSH2 0x3F4B DUP2 PUSH2 0x3B7C JUMP JUMPDEST DUP1 SWAP2 POP POP SWAP3 POP SWAP3 SWAP1 POP JUMP JUMPDEST PUSH1 0x0 DUP1 PUSH1 0x40 DUP4 DUP6 SUB SLT ISZERO PUSH2 0x3F69 JUMPI PUSH1 0x0 DUP1 REVERT JUMPDEST DUP3 CALLDATALOAD SWAP2 POP PUSH1 0x20 DUP4 ADD CALLDATALOAD PUSH8 0xFFFFFFFFFFFFFFFF DUP2 GT ISZERO PUSH2 0x3F87 JUMPI PUSH1 0x0 DUP1 REVERT JUMPDEST PUSH2 0x3F93 DUP6 DUP3 DUP7 ADD PUSH2 0x3DF4 JUMP JUMPDEST SWAP2 POP POP SWAP3 POP SWAP3 SWAP1 POP JUMP JUMPDEST PUSH1 0x0 DUP1 PUSH1 0x0 PUSH1 0x60 DUP5 DUP7 SUB SLT ISZERO PUSH2 0x3FB2 JUMPI PUSH1 0x0 DUP1 REVERT JUMPDEST DUP4 CALLDATALOAD SWAP3 POP PUSH1 0x20 DUP5 ADD CALLDATALOAD SWAP2 POP PUSH2 0x3FC9 PUSH1 0x40 DUP6 ADD PUSH2 0x3C9C JUMP JUMPDEST SWAP1 POP SWAP3 POP SWAP3 POP SWAP3 JUMP JUMPDEST PUSH1 0x0 DUP3 PUSH1 0x1F DUP4 ADD SLT PUSH2 0x3FE3 JUMPI PUSH1 0x0 DUP1 REVERT JUMPDEST DUP2 CALLDATALOAD PUSH1 0x20 PUSH2 0x3FF3 PUSH2 0x3C49 DUP4 PUSH2 0x3C04 JUMP JUMPDEST DUP3 DUP2 MSTORE PUSH1 0x5 SWAP3 SWAP1 SWAP3 SHL DUP5 ADD DUP2 ADD SWAP2 DUP2 DUP2 ADD SWAP1 DUP7 DUP5 GT ISZERO PUSH2 0x4012 JUMPI PUSH1 0x0 DUP1 REVERT JUMPDEST DUP3 DUP7 ADD JUMPDEST DUP5 DUP2 LT ISZERO PUSH2 0x3C91 JUMPI DUP1 CALLDATALOAD DUP4 MSTORE SWAP2 DUP4 ADD SWAP2 DUP4 ADD PUSH2 0x4016 JUMP JUMPDEST PUSH1 0x0 DUP1 PUSH1 0x40 DUP4 DUP6 SUB SLT ISZERO PUSH2 0x4040 JUMPI PUSH1 0x0 DUP1 REVERT JUMPDEST DUP3 CALLDATALOAD PUSH8 0xFFFFFFFFFFFFFFFF DUP1 DUP3 GT ISZERO PUSH2 0x4058 JUMPI PUSH1 0x0 DUP1 REVERT JUMPDEST PUSH2 0x4064 DUP7 DUP4 DUP8 ADD PUSH2 0x3C28 JUMP JUMPDEST SWAP4 POP PUSH1 0x20 DUP6 ADD CALLDATALOAD SWAP2 POP DUP1 DUP3 GT ISZERO PUSH2 0x407A JUMPI PUSH1 0x0 DUP1 REVERT JUMPDEST POP PUSH2 0x3F93 DUP6 DUP3 DUP7 ADD PUSH2 0x3FD2 JUMP JUMPDEST PUSH1 0x0 DUP1 PUSH1 0x40 DUP4 DUP6 SUB SLT ISZERO PUSH2 0x409A JUMPI PUSH1 0x0 DUP1 REVERT JUMPDEST DUP3 CALLDATALOAD PUSH2 0x40A5 DUP2 PUSH2 0x3B7C JUMP JUMPDEST SWAP2 POP PUSH2 0x3CF6 PUSH1 0x20 DUP5 ADD PUSH2 0x3C9C JUMP JUMPDEST PUSH1 0x0 DUP1 PUSH1 0x0 DUP1 PUSH1 0x80 DUP6 DUP8 SUB SLT ISZERO PUSH2 0x40C9 JUMPI PUSH1 0x0 DUP1 REVERT JUMPDEST DUP5 CALLDATALOAD PUSH2 0x40D4 DUP2 PUSH2 0x3B7C JUMP JUMPDEST SWAP7 PUSH1 0x20 DUP7 ADD CALLDATALOAD SWAP7 POP PUSH1 0x40 DUP7 ADD CALLDATALOAD SWAP6 PUSH1 0x60 ADD CALLDATALOAD SWAP5 POP SWAP3 POP POP POP JUMP JUMPDEST PUSH1 0x0 DUP1 PUSH1 0x0 PUSH1 0x60 DUP5 DUP7 SUB SLT ISZERO PUSH2 0x4103 JUMPI PUSH1 0x0 DUP1 REVERT JUMPDEST DUP4 CALLDATALOAD SWAP3 POP PUSH1 0x20 DUP5 ADD CALLDATALOAD PUSH2 0x3D8B DUP2 PUSH2 0x3B7C JUMP JUMPDEST PUSH1 0x0 DUP1 PUSH1 0x0 PUSH1 0x60 DUP5 DUP7 SUB SLT ISZERO PUSH2 0x412A JUMPI PUSH1 0x0 DUP1 REVERT JUMPDEST DUP4 CALLDATALOAD PUSH8 0xFFFFFFFFFFFFFFFF DUP1 DUP3 GT ISZERO PUSH2 0x4142 JUMPI PUSH1 0x0 DUP1 REVERT JUMPDEST DUP2 DUP7 ADD SWAP2 POP DUP7 PUSH1 0x1F DUP4 ADD SLT PUSH2 0x4156 JUMPI PUSH1 0x0 DUP1 REVERT JUMPDEST PUSH2 0x4165 DUP8 DUP4 CALLDATALOAD PUSH1 0x20 DUP6 ADD PUSH2 0x3D9C JUMP JUMPDEST SWAP5 POP PUSH1 0x20 DUP7 ADD CALLDATALOAD SWAP2 POP PUSH1 0x4 DUP3 LT PUSH2 0x417B JUMPI PUSH1 0x0 DUP1 REVERT JUMPDEST SWAP1 SWAP3 POP PUSH1 0x40 DUP6 ADD CALLDATALOAD SWAP1 DUP1 DUP3 GT ISZERO PUSH2 0x4191 JUMPI PUSH1 0x0 DUP1 REVERT JUMPDEST POP PUSH2 0x3E63 DUP7 DUP3 DUP8 ADD PUSH2 0x3DF4 JUMP JUMPDEST PUSH1 0x0 DUP1 PUSH1 0x0 PUSH1 0x60 DUP5 DUP7 SUB SLT ISZERO PUSH2 0x41B3 JUMPI PUSH1 0x0 DUP1 REVERT JUMPDEST POP POP DUP2 CALLDATALOAD SWAP4 PUSH1 0x20 DUP4 ADD CALLDATALOAD SWAP4 POP PUSH1 0x40 SWAP1 SWAP3 ADD CALLDATALOAD SWAP2 SWAP1 POP JUMP JUMPDEST PUSH1 0x0 DUP1 PUSH1 0x40 DUP4 DUP6 SUB SLT ISZERO PUSH2 0x41DD JUMPI PUSH1 0x0 DUP1 REVERT JUMPDEST DUP3 CALLDATALOAD SWAP2 POP PUSH2 0x3CF6 PUSH1 0x20 DUP5 ADD PUSH2 0x3C9C JUMP JUMPDEST PUSH1 0x0 DUP1 PUSH1 0x40 DUP4 DUP6 SUB SLT ISZERO PUSH2 0x4200 JUMPI PUSH1 0x0 DUP1 REVERT JUMPDEST DUP3 CALLDATALOAD PUSH8 0xFFFFFFFFFFFFFFFF DUP1 DUP3 GT ISZERO PUSH2 0x4218 JUMPI PUSH1 0x0 DUP1 REVERT JUMPDEST PUSH2 0x4064 DUP7 DUP4 DUP8 ADD PUSH2 0x3FD2 JUMP JUMPDEST PUSH1 0x0 DUP1 PUSH1 0x40 DUP4 DUP6 SUB SLT ISZERO PUSH2 0x4237 JUMPI PUSH1 0x0 DUP1 REVERT JUMPDEST DUP3 CALLDATALOAD PUSH2 0x4242 DUP2 PUSH2 0x3B7C JUMP JUMPDEST SWAP2 POP PUSH1 0x20 DUP4 ADD CALLDATALOAD PUSH2 0x3F4B DUP2 PUSH2 0x3B7C JUMP JUMPDEST PUSH1 0x1 DUP2 DUP2 SHR SWAP1 DUP3 AND DUP1 PUSH2 0x4266 JUMPI PUSH1 0x7F DUP3 AND SWAP2 POP JUMPDEST PUSH1 0x20 DUP3 LT DUP2 SUB PUSH2 0x4286 JUMPI PUSH4 0x4E487B71 PUSH1 0xE0 SHL PUSH1 0x0 MSTORE PUSH1 0x22 PUSH1 0x4 MSTORE PUSH1 0x24 PUSH1 0x0 REVERT JUMPDEST POP SWAP2 SWAP1 POP JUMP JUMPDEST PUSH4 0x4E487B71 PUSH1 0xE0 SHL PUSH1 0x0 MSTORE PUSH1 0x32 PUSH1 0x4 MSTORE PUSH1 0x24 PUSH1 0x0 REVERT JUMPDEST PUSH4 0x4E487B71 PUSH1 0xE0 SHL PUSH1 0x0 MSTORE PUSH1 0x11 PUSH1 0x4 MSTORE PUSH1 0x24 PUSH1 0x0 REVERT JUMPDEST PUSH1 0x0 PUSH1 0x1 DUP3 ADD PUSH2 0x42CA JUMPI PUSH2 0x42CA PUSH2 0x42A2 JUMP JUMPDEST POP PUSH1 0x1 ADD SWAP1 JUMP JUMPDEST DUP1 DUP3 ADD DUP1 DUP3 GT ISZERO PUSH2 0x1158 JUMPI PUSH2 0x1158 PUSH2 0x42A2 JUMP JUMPDEST PUSH1 0x20 DUP1 DUP3 MSTORE PUSH1 0x14 SWAP1 DUP3 ADD MSTORE PUSH20 0x496E73756666696369656E742062616C616E6365 PUSH1 0x60 SHL PUSH1 0x40 DUP3 ADD MSTORE PUSH1 0x60 ADD SWAP1 JUMP JUMPDEST DUP2 DUP2 SUB DUP2 DUP2 GT ISZERO PUSH2 0x1158 JUMPI PUSH2 0x1158 PUSH2 0x42A2 JUMP JUMPDEST DUP1 DUP3 MUL DUP2 ISZERO DUP3 DUP3 DIV DUP5 EQ OR PUSH2 0x1158 JUMPI PUSH2 0x1158 PUSH2 0x42A2 JUMP JUMPDEST PUSH1 0x0 DUP3 PUSH2 0x4359 JUMPI PUSH4 0x4E487B71 PUSH1 0xE0 SHL PUSH1 0x0 MSTORE PUSH1 0x12 PUSH1 0x4 MSTORE PUSH1 0x24 PUSH1 0x0 REVERT JUMPDEST POP DIV SWAP1 JUMP JUMPDEST PUSH1 0x20 DUP1 DUP3 MSTORE PUSH1 0xE SWAP1 DUP3 ADD MSTORE PUSH14 0x125B9D985B1A5908185B5BDD5B9D PUSH1 0x92 SHL PUSH1 0x40 DUP3 ADD MSTORE PUSH1 0x60 ADD SWAP1 JUMP JUMPDEST PUSH1 0x1F DUP3 GT ISZERO PUSH2 0x12BD JUMPI PUSH1 0x0 DUP2 DUP2 MSTORE PUSH1 0x20 DUP2 KECCAK256 PUSH1 0x1F DUP6 ADD PUSH1 0x5 SHR DUP2 ADD PUSH1 0x20 DUP7 LT ISZERO PUSH2 0x43AD JUMPI POP DUP1 JUMPDEST PUSH1 0x1F DUP6 ADD PUSH1 0x5 SHR DUP3 ADD SWAP2 POP JUMPDEST DUP2 DUP2 LT ISZERO PUSH2 0x43CC JUMPI DUP3 DUP2 SSTORE PUSH1 0x1 ADD PUSH2 0x43B9 JUMP JUMPDEST POP POP POP POP POP POP JUMP JUMPDEST DUP2 MLOAD PUSH8 0xFFFFFFFFFFFFFFFF DUP2 GT ISZERO PUSH2 0x43EE JUMPI PUSH2 0x43EE PUSH2 0x3BBD JUMP JUMPDEST PUSH2 0x4402 DUP2 PUSH2 0x43FC DUP5 SLOAD PUSH2 0x4252 JUMP JUMPDEST DUP5 PUSH2 0x4386 JUMP JUMPDEST PUSH1 0x20 DUP1 PUSH1 0x1F DUP4 GT PUSH1 0x1 DUP2 EQ PUSH2 0x4437 JUMPI PUSH1 0x0 DUP5 ISZERO PUSH2 0x441F JUMPI POP DUP6 DUP4 ADD MLOAD JUMPDEST PUSH1 0x0 NOT PUSH1 0x3 DUP7 SWAP1 SHL SHR NOT AND PUSH1 0x1 DUP6 SWAP1 SHL OR DUP6 SSTORE PUSH2 0x43CC JUMP JUMPDEST PUSH1 0x0 DUP6 DUP2 MSTORE PUSH1 0x20 DUP2 KECCAK256 PUSH1 0x1F NOT DUP7 AND SWAP2 JUMPDEST DUP3 DUP2 LT ISZERO PUSH2 0x4466 JUMPI DUP9 DUP7 ADD MLOAD DUP3 SSTORE SWAP5 DUP5 ADD SWAP5 PUSH1 0x1 SWAP1 SWAP2 ADD SWAP1 DUP5 ADD PUSH2 0x4447 JUMP JUMPDEST POP DUP6 DUP3 LT ISZERO PUSH2 0x4484 JUMPI DUP8 DUP6 ADD MLOAD PUSH1 0x0 NOT PUSH1 0x3 DUP9 SWAP1 SHL PUSH1 0xF8 AND SHR NOT AND DUP2 SSTORE JUMPDEST POP POP POP POP POP PUSH1 0x1 SWAP1 DUP2 SHL ADD SWAP1 SSTORE POP JUMP JUMPDEST PUSH1 0x0 PUSH1 0x20 DUP3 DUP5 SUB SLT ISZERO PUSH2 0x44A6 JUMPI PUSH1 0x0 DUP1 REVERT JUMPDEST POP MLOAD SWAP2 SWAP1 POP JUMP JUMPDEST PUSH1 0x0 DUP1 PUSH1 0x40 DUP4 DUP6 SUB SLT ISZERO PUSH2 0x44C0 JUMPI PUSH1 0x0 DUP1 REVERT JUMPDEST DUP3 MLOAD PUSH2 0x44CB DUP2 PUSH2 0x3B7C JUMP JUMPDEST PUSH1 0x20 SWAP4 SWAP1 SWAP4 ADD MLOAD SWAP3 SWAP5 SWAP3 SWAP4 POP POP POP JUMP INVALID LOG2 PUSH5 0x6970667358 0x22 SLT KECCAK256 0xC5 0x26 0xBB 0xB6 0x4F DIV 0xB3 SWAP16 0xC SELFBALANCE SWAP3 SWAP15 0x2A EXP 0xBD CREATE2 0xEE DUP9 OR 0x2D PUSH15 0xC5E7FA8ADAE6198B6DCFFC64736F6C PUSH4 0x43000814 STOP CALLER MSIZE 0xAB 0xB1 LOG2 BYTE 0xC9 0xC0 0x2D SWAP13 0x21 PUSH19 0x85768A906AF17496E4CADA7962F129B92F0AC9 BASEFEE 0xCF "},"methodIdentifiers":{"EXECUTION_DELAY()":"37f135d7","FEE_CHANGE_DELAY()":"be8a361f","LOCK_180_DAYS()":"82865218","LOCK_30_DAYS()":"7c6e5db7","LOCK_365_DAYS()":"51383f98","LOCK_90_DAYS()":"e37c3a55","MAX_TOTAL_FEE_BP()":"7c4ccbea","PROPOSAL_THRESHOLD()":"a6c26603","QUORUM_PERCENTAGE()":"ee8a7c15","TOTAL_SUPPLY()":"902d55a5","VOTING_PERIOD()":"b1610d7e","addToRewardPool(uint256)":"b95ffbce","allowance(address,address)":"dd62ed3e","approve(address,uint256)":"095ea7b3","balanceOf(address)":"70a08231","batchSetFeeExempt(address[],bool)":"0dbd61e4","batchStake(uint256[],uint256[])":"d49fab8a","batchTransfer(address[],uint256[])":"88d695b2","borrowAgainstStake(uint256)":"a852afd3","bridgeTokens(uint256,address,uint256)":"9f3d5f4a","burn(uint256)":"42966c68","claimRewards(uint256)":"0962ef79","decimals()":"313ce567","depositToYieldFarm(address,uint256)":"4aa21c75","emergencyPause()":"51858e27","emergencyUnpause()":"4a4e3bd5","execute(uint256)":"fe0d94c1","feeToBurnBP()":"120a8151","feeToFounderBP()":"118725ce","feeToTreasuryBP()":"55ef9b5e","flashLoan(uint256,bytes)":"5296a431","founderWallet()":"a23d3c35","getStakingLeaderboard(uint256)":"29d1f4d6","getStakingRewards(address)":"21efe200","getTokenStats()":"097cd9bf","getTopHolders(uint256)":"b6b80605","getUserStats(address)":"4e43603a","getVotingPower(address)":"bb4d4436","hasVoted(uint256,address)":"43859632","isFeeExempt(address)":"3f4218e0","lastFeeChange()":"69505688","lastTxBlock(address)":"ceb88a16","lastTxTime(address)":"17d63605","multiSig()":"36e0004a","name()":"06fdde03","owner()":"8da5cb5b","paused()":"5c975abb","proposalCount()":"da35c664","proposals(uint256)":"013cf08b","propose(string,uint8,bytes)":"ad1cecb2","protectedTransfer(address,uint256,uint256)":"8893002f","recurringTransfer(address,uint256,uint256,uint256)":"9b22dd7a","renounceOwnership()":"715018a6","rewardPool()":"66666aa9","scheduledTransfer(address,uint256,uint256)":"28d4ca88","setFeeDistribution(uint256,uint256,uint256)":"ba8e568f","setFeeExempt(address,bool)":"8ebfc796","setTotalFeeBP(uint256)":"1f1f5bb3","setTransactionLimits(uint256,uint256,uint256,bool)":"207b7551","stake(uint256,uint256,bool)":"561b2463","stakingAPY(uint256)":"875bb4e2","symbol()":"95d89b41","tokenStats()":"b0dfd2e6","totalFeeBP()":"f6141345","totalStaked()":"817b1cd2","totalSupply()":"18160ddd","transfer(address,uint256)":"a9059cbb","transferFrom(address,address,uint256)":"23b872dd","transferOwnership(address)":"f2fde38b","transferWithData(address,uint256,bytes)":"2535f762","treasury()":"61d027b3","txLimits()":"f270fde4","unstake(uint256)":"2e17de78","usedNonces(bytes32)":"feb61724","userStakes(address,uint256)":"b5d5b5fa","userStats(address)":"8a65d874","vote(uint256,bool)":"c9d27afe","votingPower(uint256,address)":"d90125a5"}}}}}