{"contracts/MockDEX.sol":{"MockDEX":{"abi":[{"anonymous":false,"inputs":[{"indexed":true,"internalType":"address","name":"provider","type":"address"},{"indexed":false,"internalType":"address","name":"tokenA","type":"address"},{"indexed":false,"internalType":"address","name":"tokenB","type":"address"},{"indexed":false,"internalType":"uint256","name":"amountA","type":"uint256"},{"indexed":false,"internalType":"uint256","name":"amountB","type":"uint256"},{"indexed":false,"internalType":"address","name":"lp","type":"address"}],"name":"LiquidityAdded","type":"event"},{"anonymous":false,"inputs":[{"indexed":true,"internalType":"address","name":"user","type":"address"},{"indexed":false,"internalType":"address","name":"fromToken","type":"address"},{"indexed":false,"internalType":"address","name":"toToken","type":"address"},{"indexed":false,"internalType":"uint256","name":"amountIn","type":"uint256"},{"indexed":false,"internalType":"uint256","name":"amountOut","type":"uint256"}],"name":"Swapped","type":"event"},{"inputs":[{"internalType":"address","name":"tokenA","type":"address"},{"internalType":"address","name":"tokenB","type":"address"},{"internalType":"uint256","name":"amountA","type":"uint256"},{"internalType":"uint256","name":"amountB","type":"uint256"}],"name":"addLiquidity","outputs":[{"internalType":"address","name":"","type":"address"}],"stateMutability":"nonpayable","type":"function"},{"inputs":[{"internalType":"bytes32","name":"","type":"bytes32"}],"name":"pairs","outputs":[{"internalType":"address","name":"token0","type":"address"},{"internalType":"address","name":"token1","type":"address"},{"internalType":"address","name":"lp","type":"address"},{"internalType":"uint256","name":"reserve0","type":"uint256"},{"internalType":"uint256","name":"reserve1","type":"uint256"}],"stateMutability":"view","type":"function"},{"inputs":[{"internalType":"address","name":"fromToken","type":"address"},{"internalType":"address","name":"toToken","type":"address"},{"internalType":"uint256","name":"amountIn","type":"uint256"}],"name":"swap","outputs":[{"internalType":"uint256","name":"","type":"uint256"}],"stateMutability":"nonpayable","type":"function"}],"evm":{"bytecode":{"linkReferences":{},"object":"608060405234801561001057600080fd5b5061186d806100206000396000f3fe60806040523480156200001157600080fd5b5060043610620000465760003560e01c8063673e0481146200004b578063cf6c62ea14620000d7578063df791e501462000107575b600080fd5b620000996200005c36600462000b31565b600060208190529081526040902080546001820154600283015460038401546004909401546001600160a01b039384169492841693909116919085565b604080516001600160a01b039687168152948616602086015292909416918301919091526060820152608081019190915260a0015b60405180910390f35b620000ee620000e836600462000b63565b6200012d565b6040516001600160a01b039091168152602001620000ce565b6200011e6200011836600462000baa565b62000693565b604051908152602001620000ce565b600080831180156200013f5750600082115b620001835760405162461bcd60e51b815260206004820152600f60248201526e496e76616c696420616d6f756e747360881b60448201526064015b60405180910390fd5b6040516323b872dd60e01b8152336004820152306024820152604481018490526001600160a01b038616906323b872dd906064016020604051808303816000875af1158015620001d7573d6000803e3d6000fd5b505050506040513d601f19601f82011682018060405250810190620001fd919062000beb565b506040516323b872dd60e01b8152336004820152306024820152604481018390526001600160a01b038516906323b872dd906064016020604051808303816000875af115801562000252573d6000803e3d6000fd5b505050506040513d601f19601f8201168201806040525081019062000278919062000beb565b506000620002878686620009f9565b6000818152602081905260409020909150868686866001600160a01b038085169084161015620002bd5750889250899150869050875b60028501546001600160a01b03166200042b5760006040518060400160405280600781526020016604d6f636b204c560cc1b815250905060006040518060400160405280600381526020016204d4c560ec1b815250905060008282604051620003269062000b23565b6200033392919062000c5e565b604051809103906000f08015801562000350573d6000803e3d6000fd5b506002890180546001600160a01b038084166001600160a01b0319928316179092558a548a8316908216178b5560018b018054928a1692909116919091179055600389018690556004890185905590506000620003b8620003b2868862000ca6565b62000aa5565b60028a01546040516340c10f1960e01b8152336004820152602481018390529192506001600160a01b0316906340c10f1990604401600060405180830381600087803b1580156200040857600080fd5b505af11580156200041d573d6000803e3d6000fd5b505050505050505062000617565b6002850154604080516318160ddd60e01b815290516000926001600160a01b0316916318160ddd9160048083019260209291908290030181865afa15801562000478573d6000803e3d6000fd5b505050506040513d601f19601f820116820180604052508101906200049e919062000cc0565b8654909150839083906001600160a01b03888116911614620004c05750829050835b6003880154600090620004d4858562000ca6565b620004e0919062000cda565b9050600089600401548584620004f7919062000ca6565b62000503919062000cda565b9050600081831062000516578162000518565b825b60028c01546040516340c10f1960e01b8152336004820152602481018390529192506001600160a01b0316906340c10f1990604401600060405180830381600087803b1580156200056857600080fd5b505af11580156200057d573d6000803e3d6000fd5b50508c546001600160a01b03808e169116039150620005d7905057848b6003016000828254620005ae919062000cfd565b92505081905550838b6004016000828254620005cb919062000cfd565b90915550620006109050565b838b6003016000828254620005ed919062000cfd565b92505081905550848b60040160008282546200060a919062000cfd565b90915550505b5050505050505b6002850154604080516001600160a01b03808f168252808e1660208301529181018c9052606081018b90529116608082015233907f470ea512b8fe1cb1899c39ed542cab1ab8911dcb88e3047dcb3d51de91375d839060a00160405180910390a250505050600201546001600160a01b03169695505050505050565b6000808211620006d75760405162461bcd60e51b815260206004820152600e60248201526d125b9d985b1a5908185b5bdd5b9d60921b60448201526064016200017a565b6000620006e58585620009f9565b60008181526020819052604090206002810154919250906001600160a01b0316620007445760405162461bcd60e51b815260206004820152600e60248201526d14185a5c881b9bdd08199bdd5b9960921b60448201526064016200017a565b80546001600160a01b03878116911614600080826200076d578360040154846003015462000778565b836003015484600401545b6040516323b872dd60e01b8152336004820152306024820152604481018a905291935091506001600160a01b038a16906323b872dd906064016020604051808303816000875af1158015620007d1573d6000803e3d6000fd5b505050506040513d601f19601f82011682018060405250810190620007f7919062000beb565b50600062000808886103e562000ca6565b9050600062000818838362000ca6565b90506000826200082b866103e862000ca6565b62000837919062000cfd565b9050600062000847828462000cda565b90506000811180156200085a5750808510155b620008a15760405162461bcd60e51b8152602060048201526016602482015275496e73756666696369656e74206c697175696469747960501b60448201526064016200017a565b60405163a9059cbb60e01b8152336004820152602481018290526001600160a01b038d169063a9059cbb906044016020604051808303816000875af1158015620008ef573d6000803e3d6000fd5b505050506040513d601f19601f8201168201806040525081019062000915919062000beb565b5086156200095c578a88600301600082825462000933919062000cfd565b925050819055508088600401600082825462000950919062000d13565b90915550620009959050565b8a88600401600082825462000972919062000cfd565b92505081905550808860030160008282546200098f919062000d13565b90915550505b604080516001600160a01b038f811682528e1660208201529081018c90526060810182905233907f6782190c91d4a7e8ad2a867deed6ec0a970cab8ff137ae2bd4abd92b3810f4d39060800160405180910390a29c9b505050505050505050505050565b6000816001600160a01b0316836001600160a01b0316101562000a5d576040516bffffffffffffffffffffffff19606085811b8216602084015284901b16603482015260480160405160208183030381529060405280519060200120905062000a9f565b6040516bffffffffffffffffffffffff19606084811b8216602084015285901b1660348201526048016040516020818303038152906040528051906020012090505b92915050565b6000600382111562000b13575080600062000ac260028362000cda565b62000acf90600162000cfd565b90505b8181101562000b0d5790508060028162000aed818662000cda565b62000af9919062000cfd565b62000b05919062000cda565b905062000ad2565b50919050565b811562000b1e575060015b919050565b610b0e8062000d2a83390190565b60006020828403121562000b4457600080fd5b5035919050565b80356001600160a01b038116811462000b1e57600080fd5b6000806000806080858703121562000b7a57600080fd5b62000b858562000b4b565b935062000b956020860162000b4b565b93969395505050506040820135916060013590565b60008060006060848603121562000bc057600080fd5b62000bcb8462000b4b565b925062000bdb6020850162000b4b565b9150604084013590509250925092565b60006020828403121562000bfe57600080fd5b8151801515811462000c0f57600080fd5b9392505050565b6000815180845260005b8181101562000c3e5760208185018101518683018201520162000c20565b506000602082860101526020601f19601f83011685010191505092915050565b60408152600062000c73604083018562000c16565b828103602084015262000c87818562000c16565b95945050505050565b634e487b7160e01b600052601160045260246000fd5b808202811582820484141762000a9f5762000a9f62000c90565b60006020828403121562000cd357600080fd5b5051919050565b60008262000cf857634e487b7160e01b600052601260045260246000fd5b500490565b8082018082111562000a9f5762000a9f62000c90565b8181038181111562000a9f5762000a9f62000c9056fe60806040523480156200001157600080fd5b5060405162000b0e38038062000b0e833981016040819052620000349162000136565b818160036200004483826200022f565b5060046200005382826200022f565b5050600580546001600160a01b0319163317905550620002fb915050565b634e487b7160e01b600052604160045260246000fd5b600082601f8301126200009957600080fd5b81516001600160401b0380821115620000b657620000b662000071565b604051601f8301601f19908116603f01168101908282118183101715620000e157620000e162000071565b81604052838152602092508683858801011115620000fe57600080fd5b600091505b8382101562000122578582018301518183018401529082019062000103565b600093810190920192909252949350505050565b600080604083850312156200014a57600080fd5b82516001600160401b03808211156200016257600080fd5b620001708683870162000087565b935060208501519150808211156200018757600080fd5b50620001968582860162000087565b9150509250929050565b600181811c90821680620001b557607f821691505b602082108103620001d657634e487b7160e01b600052602260045260246000fd5b50919050565b601f8211156200022a57600081815260208120601f850160051c81016020861015620002055750805b601f850160051c820191505b81811015620002265782815560010162000211565b5050505b505050565b81516001600160401b038111156200024b576200024b62000071565b62000263816200025c8454620001a0565b84620001dc565b602080601f8311600181146200029b5760008415620002825750858301515b600019600386901b1c1916600185901b17855562000226565b600085815260208120601f198616915b82811015620002cc57888601518255948401946001909101908401620002ab565b5085821015620002eb5787850151600019600388901b60f8161c191681555b5050505050600190811b01905550565b610803806200030b6000396000f3fe608060405234801561001057600080fd5b50600436106100a95760003560e01c8063313ce56711610071578063313ce5671461013f57806340c10f191461014e57806370a082311461016357806395d89b411461018c578063a9059cbb14610194578063dd62ed3e146101a757600080fd5b806306fdde03146100ae57806307546172146100cc578063095ea7b3146100f757806318160ddd1461011a57806323b872dd1461012c575b600080fd5b6100b66101e0565b6040516100c3919061064d565b60405180910390f35b6005546100df906001600160a01b031681565b6040516001600160a01b0390911681526020016100c3565b61010a6101053660046106b7565b610272565b60405190151581526020016100c3565b6002545b6040519081526020016100c3565b61010a61013a3660046106e1565b61028c565b604051601281526020016100c3565b61016161015c3660046106b7565b6102b0565b005b61011e61017136600461071d565b6001600160a01b031660009081526020819052604090205490565b6100b661030b565b61010a6101a23660046106b7565b61031a565b61011e6101b536600461073f565b6001600160a01b03918216600090815260016020908152604080832093909416825291909152205490565b6060600380546101ef90610772565b80601f016020809104026020016040519081016040528092919081815260200182805461021b90610772565b80156102685780601f1061023d57610100808354040283529160200191610268565b820191906000526020600020905b81548152906001019060200180831161024b57829003601f168201915b5050505050905090565b600033610280818585610328565b60019150505b92915050565b60003361029a85828561033a565b6102a58585856103b9565b506001949350505050565b6005546001600160a01b031633146102fd5760405162461bcd60e51b815260206004820152600b60248201526a27b7363c9036b4b73a32b960a91b60448201526064015b60405180910390fd5b6103078282610418565b5050565b6060600480546101ef90610772565b6000336102808185856103b9565b610335838383600161044e565b505050565b6001600160a01b038381166000908152600160209081526040808320938616835292905220546000198110156103b357818110156103a457604051637dc7a0d960e11b81526001600160a01b038416600482015260248101829052604481018390526064016102f4565b6103b38484848403600061044e565b50505050565b6001600160a01b0383166103e357604051634b637e8f60e11b8152600060048201526024016102f4565b6001600160a01b03821661040d5760405163ec442f0560e01b8152600060048201526024016102f4565b610335838383610523565b6001600160a01b0382166104425760405163ec442f0560e01b8152600060048201526024016102f4565b61030760008383610523565b6001600160a01b0384166104785760405163e602df0560e01b8152600060048201526024016102f4565b6001600160a01b0383166104a257604051634a1406b160e11b8152600060048201526024016102f4565b6001600160a01b03808516600090815260016020908152604080832093871683529290522082905580156103b357826001600160a01b0316846001600160a01b03167f8c5be1e5ebec7d5bd14f71427d1e84f3dd0314c0f7b2291e5b200ac8c7c3b9258460405161051591815260200190565b60405180910390a350505050565b6001600160a01b03831661054e57806002600082825461054391906107ac565b909155506105c09050565b6001600160a01b038316600090815260208190526040902054818110156105a15760405163391434e360e21b81526001600160a01b038516600482015260248101829052604481018390526064016102f4565b6001600160a01b03841660009081526020819052604090209082900390555b6001600160a01b0382166105dc576002805482900390556105fb565b6001600160a01b03821660009081526020819052604090208054820190555b816001600160a01b0316836001600160a01b03167fddf252ad1be2c89b69c2b068fc378daa952ba7f163c4a11628f55a4df523b3ef8360405161064091815260200190565b60405180910390a3505050565b600060208083528351808285015260005b8181101561067a5785810183015185820160400152820161065e565b506000604082860101526040601f19601f8301168501019250505092915050565b80356001600160a01b03811681146106b257600080fd5b919050565b600080604083850312156106ca57600080fd5b6106d38361069b565b946020939093013593505050565b6000806000606084860312156106f657600080fd5b6106ff8461069b565b925061070d6020850161069b565b9150604084013590509250925092565b60006020828403121561072f57600080fd5b6107388261069b565b9392505050565b6000806040838503121561075257600080fd5b61075b8361069b565b91506107696020840161069b565b90509250929050565b600181811c9082168061078657607f821691505b6020821081036107a657634e487b7160e01b600052602260045260246000fd5b50919050565b8082018082111561028657634e487b7160e01b600052601160045260246000fdfea26469706673582212206af35dc020475acf0c64ec9fc95c13a07f0b948bb652b0385c0d497282e8dc1a64736f6c63430008140033a2646970667358221220a7200e6e34ae0978a0b6a202cb7a852462cf71ac027b4c8fbe867aa98be7e67b64736f6c63430008140033","opcodes":"PUSH1 0x80 PUSH1 0x40 MSTORE CALLVALUE DUP1 ISZERO PUSH2 0x10 JUMPI PUSH1 0x0 DUP1 REVERT JUMPDEST POP PUSH2 0x186D DUP1 PUSH2 0x20 PUSH1 0x0 CODECOPY PUSH1 0x0 RETURN INVALID PUSH1 0x80 PUSH1 0x40 MSTORE CALLVALUE DUP1 ISZERO PUSH3 0x11 JUMPI PUSH1 0x0 DUP1 REVERT JUMPDEST POP PUSH1 0x4 CALLDATASIZE LT PUSH3 0x46 JUMPI PUSH1 0x0 CALLDATALOAD PUSH1 0xE0 SHR DUP1 PUSH4 0x673E0481 EQ PUSH3 0x4B JUMPI DUP1 PUSH4 0xCF6C62EA EQ PUSH3 0xD7 JUMPI DUP1 PUSH4 0xDF791E50 EQ PUSH3 0x107 JUMPI JUMPDEST PUSH1 0x0 DUP1 REVERT JUMPDEST PUSH3 0x99 PUSH3 0x5C CALLDATASIZE PUSH1 0x4 PUSH3 0xB31 JUMP JUMPDEST PUSH1 0x0 PUSH1 0x20 DUP2 SWAP1 MSTORE SWAP1 DUP2 MSTORE PUSH1 0x40 SWAP1 KECCAK256 DUP1 SLOAD PUSH1 0x1 DUP3 ADD SLOAD PUSH1 0x2 DUP4 ADD SLOAD PUSH1 0x3 DUP5 ADD SLOAD PUSH1 0x4 SWAP1 SWAP5 ADD SLOAD PUSH1 0x1 PUSH1 0x1 PUSH1 0xA0 SHL SUB SWAP4 DUP5 AND SWAP5 SWAP3 DUP5 AND SWAP4 SWAP1 SWAP2 AND SWAP2 SWAP1 DUP6 JUMP JUMPDEST PUSH1 0x40 DUP1 MLOAD PUSH1 0x1 PUSH1 0x1 PUSH1 0xA0 SHL SUB SWAP7 DUP8 AND DUP2 MSTORE SWAP5 DUP7 AND PUSH1 0x20 DUP7 ADD MSTORE SWAP3 SWAP1 SWAP5 AND SWAP2 DUP4 ADD SWAP2 SWAP1 SWAP2 MSTORE PUSH1 0x60 DUP3 ADD MSTORE PUSH1 0x80 DUP2 ADD SWAP2 SWAP1 SWAP2 MSTORE PUSH1 0xA0 ADD JUMPDEST PUSH1 0x40 MLOAD DUP1 SWAP2 SUB SWAP1 RETURN JUMPDEST PUSH3 0xEE PUSH3 0xE8 CALLDATASIZE PUSH1 0x4 PUSH3 0xB63 JUMP JUMPDEST PUSH3 0x12D JUMP JUMPDEST PUSH1 0x40 MLOAD PUSH1 0x1 PUSH1 0x1 PUSH1 0xA0 SHL SUB SWAP1 SWAP2 AND DUP2 MSTORE PUSH1 0x20 ADD PUSH3 0xCE JUMP JUMPDEST PUSH3 0x11E PUSH3 0x118 CALLDATASIZE PUSH1 0x4 PUSH3 0xBAA JUMP JUMPDEST PUSH3 0x693 JUMP JUMPDEST PUSH1 0x40 MLOAD SWAP1 DUP2 MSTORE PUSH1 0x20 ADD PUSH3 0xCE JUMP JUMPDEST PUSH1 0x0 DUP1 DUP4 GT DUP1 ISZERO PUSH3 0x13F JUMPI POP PUSH1 0x0 DUP3 GT JUMPDEST PUSH3 0x183 JUMPI PUSH1 0x40 MLOAD PUSH3 0x461BCD PUSH1 0xE5 SHL DUP2 MSTORE PUSH1 0x20 PUSH1 0x4 DUP3 ADD MSTORE PUSH1 0xF PUSH1 0x24 DUP3 ADD MSTORE PUSH15 0x496E76616C696420616D6F756E7473 PUSH1 0x88 SHL PUSH1 0x44 DUP3 ADD MSTORE PUSH1 0x64 ADD JUMPDEST PUSH1 0x40 MLOAD DUP1 SWAP2 SUB SWAP1 REVERT JUMPDEST PUSH1 0x40 MLOAD PUSH4 0x23B872DD PUSH1 0xE0 SHL DUP2 MSTORE CALLER PUSH1 0x4 DUP3 ADD MSTORE ADDRESS PUSH1 0x24 DUP3 ADD MSTORE PUSH1 0x44 DUP2 ADD DUP5 SWAP1 MSTORE PUSH1 0x1 PUSH1 0x1 PUSH1 0xA0 SHL SUB DUP7 AND SWAP1 PUSH4 0x23B872DD SWAP1 PUSH1 0x64 ADD PUSH1 0x20 PUSH1 0x40 MLOAD DUP1 DUP4 SUB DUP2 PUSH1 0x0 DUP8 GAS CALL ISZERO DUP1 ISZERO PUSH3 0x1D7 JUMPI RETURNDATASIZE PUSH1 0x0 DUP1 RETURNDATACOPY RETURNDATASIZE PUSH1 0x0 REVERT JUMPDEST POP POP POP POP PUSH1 0x40 MLOAD RETURNDATASIZE PUSH1 0x1F NOT PUSH1 0x1F DUP3 ADD AND DUP3 ADD DUP1 PUSH1 0x40 MSTORE POP DUP2 ADD SWAP1 PUSH3 0x1FD SWAP2 SWAP1 PUSH3 0xBEB JUMP JUMPDEST POP PUSH1 0x40 MLOAD PUSH4 0x23B872DD PUSH1 0xE0 SHL DUP2 MSTORE CALLER PUSH1 0x4 DUP3 ADD MSTORE ADDRESS PUSH1 0x24 DUP3 ADD MSTORE PUSH1 0x44 DUP2 ADD DUP4 SWAP1 MSTORE PUSH1 0x1 PUSH1 0x1 PUSH1 0xA0 SHL SUB DUP6 AND SWAP1 PUSH4 0x23B872DD SWAP1 PUSH1 0x64 ADD PUSH1 0x20 PUSH1 0x40 MLOAD DUP1 DUP4 SUB DUP2 PUSH1 0x0 DUP8 GAS CALL ISZERO DUP1 ISZERO PUSH3 0x252 JUMPI RETURNDATASIZE PUSH1 0x0 DUP1 RETURNDATACOPY RETURNDATASIZE PUSH1 0x0 REVERT JUMPDEST POP POP POP POP PUSH1 0x40 MLOAD RETURNDATASIZE PUSH1 0x1F NOT PUSH1 0x1F DUP3 ADD AND DUP3 ADD DUP1 PUSH1 0x40 MSTORE POP DUP2 ADD SWAP1 PUSH3 0x278 SWAP2 SWAP1 PUSH3 0xBEB JUMP JUMPDEST POP PUSH1 0x0 PUSH3 0x287 DUP7 DUP7 PUSH3 0x9F9 JUMP JUMPDEST PUSH1 0x0 DUP2 DUP2 MSTORE PUSH1 0x20 DUP2 SWAP1 MSTORE PUSH1 0x40 SWAP1 KECCAK256 SWAP1 SWAP2 POP DUP7 DUP7 DUP7 DUP7 PUSH1 0x1 PUSH1 0x1 PUSH1 0xA0 SHL SUB DUP1 DUP6 AND SWAP1 DUP5 AND LT ISZERO PUSH3 0x2BD JUMPI POP DUP9 SWAP3 POP DUP10 SWAP2 POP DUP7 SWAP1 POP DUP8 JUMPDEST PUSH1 0x2 DUP6 ADD SLOAD PUSH1 0x1 PUSH1 0x1 PUSH1 0xA0 SHL SUB AND PUSH3 0x42B JUMPI PUSH1 0x0 PUSH1 0x40 MLOAD DUP1 PUSH1 0x40 ADD PUSH1 0x40 MSTORE DUP1 PUSH1 0x7 DUP2 MSTORE PUSH1 0x20 ADD PUSH7 0x4D6F636B204C5 PUSH1 0xCC SHL DUP2 MSTORE POP SWAP1 POP PUSH1 0x0 PUSH1 0x40 MLOAD DUP1 PUSH1 0x40 ADD PUSH1 0x40 MSTORE DUP1 PUSH1 0x3 DUP2 MSTORE PUSH1 0x20 ADD PUSH3 0x4D4C5 PUSH1 0xEC SHL DUP2 MSTORE POP SWAP1 POP PUSH1 0x0 DUP3 DUP3 PUSH1 0x40 MLOAD PUSH3 0x326 SWAP1 PUSH3 0xB23 JUMP JUMPDEST PUSH3 0x333 SWAP3 SWAP2 SWAP1 PUSH3 0xC5E JUMP JUMPDEST PUSH1 0x40 MLOAD DUP1 SWAP2 SUB SWAP1 PUSH1 0x0 CREATE DUP1 ISZERO DUP1 ISZERO PUSH3 0x350 JUMPI RETURNDATASIZE PUSH1 0x0 DUP1 RETURNDATACOPY RETURNDATASIZE PUSH1 0x0 REVERT JUMPDEST POP PUSH1 0x2 DUP10 ADD DUP1 SLOAD PUSH1 0x1 PUSH1 0x1 PUSH1 0xA0 SHL SUB DUP1 DUP5 AND PUSH1 0x1 PUSH1 0x1 PUSH1 0xA0 SHL SUB NOT SWAP3 DUP4 AND OR SWAP1 SWAP3 SSTORE DUP11 SLOAD DUP11 DUP4 AND SWAP1 DUP3 AND OR DUP12 SSTORE PUSH1 0x1 DUP12 ADD DUP1 SLOAD SWAP3 DUP11 AND SWAP3 SWAP1 SWAP2 AND SWAP2 SWAP1 SWAP2 OR SWAP1 SSTORE PUSH1 0x3 DUP10 ADD DUP7 SWAP1 SSTORE PUSH1 0x4 DUP10 ADD DUP6 SWAP1 SSTORE SWAP1 POP PUSH1 0x0 PUSH3 0x3B8 PUSH3 0x3B2 DUP7 DUP9 PUSH3 0xCA6 JUMP JUMPDEST PUSH3 0xAA5 JUMP JUMPDEST PUSH1 0x2 DUP11 ADD SLOAD PUSH1 0x40 MLOAD PUSH4 0x40C10F19 PUSH1 0xE0 SHL DUP2 MSTORE CALLER PUSH1 0x4 DUP3 ADD MSTORE PUSH1 0x24 DUP2 ADD DUP4 SWAP1 MSTORE SWAP2 SWAP3 POP PUSH1 0x1 PUSH1 0x1 PUSH1 0xA0 SHL SUB AND SWAP1 PUSH4 0x40C10F19 SWAP1 PUSH1 0x44 ADD PUSH1 0x0 PUSH1 0x40 MLOAD DUP1 DUP4 SUB DUP2 PUSH1 0x0 DUP8 DUP1 EXTCODESIZE ISZERO DUP1 ISZERO PUSH3 0x408 JUMPI PUSH1 0x0 DUP1 REVERT JUMPDEST POP GAS CALL ISZERO DUP1 ISZERO PUSH3 0x41D JUMPI RETURNDATASIZE PUSH1 0x0 DUP1 RETURNDATACOPY RETURNDATASIZE PUSH1 0x0 REVERT JUMPDEST POP POP POP POP POP POP POP POP PUSH3 0x617 JUMP JUMPDEST PUSH1 0x2 DUP6 ADD SLOAD PUSH1 0x40 DUP1 MLOAD PUSH4 0x18160DDD PUSH1 0xE0 SHL DUP2 MSTORE SWAP1 MLOAD PUSH1 0x0 SWAP3 PUSH1 0x1 PUSH1 0x1 PUSH1 0xA0 SHL SUB AND SWAP2 PUSH4 0x18160DDD SWAP2 PUSH1 0x4 DUP1 DUP4 ADD SWAP3 PUSH1 0x20 SWAP3 SWAP2 SWAP1 DUP3 SWAP1 SUB ADD DUP2 DUP7 GAS STATICCALL ISZERO DUP1 ISZERO PUSH3 0x478 JUMPI RETURNDATASIZE PUSH1 0x0 DUP1 RETURNDATACOPY RETURNDATASIZE PUSH1 0x0 REVERT JUMPDEST POP POP POP POP PUSH1 0x40 MLOAD RETURNDATASIZE PUSH1 0x1F NOT PUSH1 0x1F DUP3 ADD AND DUP3 ADD DUP1 PUSH1 0x40 MSTORE POP DUP2 ADD SWAP1 PUSH3 0x49E SWAP2 SWAP1 PUSH3 0xCC0 JUMP JUMPDEST DUP7 SLOAD SWAP1 SWAP2 POP DUP4 SWAP1 DUP4 SWAP1 PUSH1 0x1 PUSH1 0x1 PUSH1 0xA0 SHL SUB DUP9 DUP2 AND SWAP2 AND EQ PUSH3 0x4C0 JUMPI POP DUP3 SWAP1 POP DUP4 JUMPDEST PUSH1 0x3 DUP9 ADD SLOAD PUSH1 0x0 SWAP1 PUSH3 0x4D4 DUP6 DUP6 PUSH3 0xCA6 JUMP JUMPDEST PUSH3 0x4E0 SWAP2 SWAP1 PUSH3 0xCDA JUMP JUMPDEST SWAP1 POP PUSH1 0x0 DUP10 PUSH1 0x4 ADD SLOAD DUP6 DUP5 PUSH3 0x4F7 SWAP2 SWAP1 PUSH3 0xCA6 JUMP JUMPDEST PUSH3 0x503 SWAP2 SWAP1 PUSH3 0xCDA JUMP JUMPDEST SWAP1 POP PUSH1 0x0 DUP2 DUP4 LT PUSH3 0x516 JUMPI DUP2 PUSH3 0x518 JUMP JUMPDEST DUP3 JUMPDEST PUSH1 0x2 DUP13 ADD SLOAD PUSH1 0x40 MLOAD PUSH4 0x40C10F19 PUSH1 0xE0 SHL DUP2 MSTORE CALLER PUSH1 0x4 DUP3 ADD MSTORE PUSH1 0x24 DUP2 ADD DUP4 SWAP1 MSTORE SWAP2 SWAP3 POP PUSH1 0x1 PUSH1 0x1 PUSH1 0xA0 SHL SUB AND SWAP1 PUSH4 0x40C10F19 SWAP1 PUSH1 0x44 ADD PUSH1 0x0 PUSH1 0x40 MLOAD DUP1 DUP4 SUB DUP2 PUSH1 0x0 DUP8 DUP1 EXTCODESIZE ISZERO DUP1 ISZERO PUSH3 0x568 JUMPI PUSH1 0x0 DUP1 REVERT JUMPDEST POP GAS CALL ISZERO DUP1 ISZERO PUSH3 0x57D JUMPI RETURNDATASIZE PUSH1 0x0 DUP1 RETURNDATACOPY RETURNDATASIZE PUSH1 0x0 REVERT JUMPDEST POP POP DUP13 SLOAD PUSH1 0x1 PUSH1 0x1 PUSH1 0xA0 SHL SUB DUP1 DUP15 AND SWAP2 AND SUB SWAP2 POP PUSH3 0x5D7 SWAP1 POP JUMPI DUP5 DUP12 PUSH1 0x3 ADD PUSH1 0x0 DUP3 DUP3 SLOAD PUSH3 0x5AE SWAP2 SWAP1 PUSH3 0xCFD JUMP JUMPDEST SWAP3 POP POP DUP2 SWAP1 SSTORE POP DUP4 DUP12 PUSH1 0x4 ADD PUSH1 0x0 DUP3 DUP3 SLOAD PUSH3 0x5CB SWAP2 SWAP1 PUSH3 0xCFD JUMP JUMPDEST SWAP1 SWAP2 SSTORE POP PUSH3 0x610 SWAP1 POP JUMP JUMPDEST DUP4 DUP12 PUSH1 0x3 ADD PUSH1 0x0 DUP3 DUP3 SLOAD PUSH3 0x5ED SWAP2 SWAP1 PUSH3 0xCFD JUMP JUMPDEST SWAP3 POP POP DUP2 SWAP1 SSTORE POP DUP5 DUP12 PUSH1 0x4 ADD PUSH1 0x0 DUP3 DUP3 SLOAD PUSH3 0x60A SWAP2 SWAP1 PUSH3 0xCFD JUMP JUMPDEST SWAP1 SWAP2 SSTORE POP POP JUMPDEST POP POP POP POP POP POP JUMPDEST PUSH1 0x2 DUP6 ADD SLOAD PUSH1 0x40 DUP1 MLOAD PUSH1 0x1 PUSH1 0x1 PUSH1 0xA0 SHL SUB DUP1 DUP16 AND DUP3 MSTORE DUP1 DUP15 AND PUSH1 0x20 DUP4 ADD MSTORE SWAP2 DUP2 ADD DUP13 SWAP1 MSTORE PUSH1 0x60 DUP2 ADD DUP12 SWAP1 MSTORE SWAP2 AND PUSH1 0x80 DUP3 ADD MSTORE CALLER SWAP1 PUSH32 0x470EA512B8FE1CB1899C39ED542CAB1AB8911DCB88E3047DCB3D51DE91375D83 SWAP1 PUSH1 0xA0 ADD PUSH1 0x40 MLOAD DUP1 SWAP2 SUB SWAP1 LOG2 POP POP POP POP PUSH1 0x2 ADD SLOAD PUSH1 0x1 PUSH1 0x1 PUSH1 0xA0 SHL SUB AND SWAP7 SWAP6 POP POP POP POP POP POP JUMP JUMPDEST PUSH1 0x0 DUP1 DUP3 GT PUSH3 0x6D7 JUMPI PUSH1 0x40 MLOAD PUSH3 0x461BCD PUSH1 0xE5 SHL DUP2 MSTORE PUSH1 0x20 PUSH1 0x4 DUP3 ADD MSTORE PUSH1 0xE PUSH1 0x24 DUP3 ADD MSTORE PUSH14 0x125B9D985B1A5908185B5BDD5B9D PUSH1 0x92 SHL PUSH1 0x44 DUP3 ADD MSTORE PUSH1 0x64 ADD PUSH3 0x17A JUMP JUMPDEST PUSH1 0x0 PUSH3 0x6E5 DUP6 DUP6 PUSH3 0x9F9 JUMP JUMPDEST PUSH1 0x0 DUP2 DUP2 MSTORE PUSH1 0x20 DUP2 SWAP1 MSTORE PUSH1 0x40 SWAP1 KECCAK256 PUSH1 0x2 DUP2 ADD SLOAD SWAP2 SWAP3 POP SWAP1 PUSH1 0x1 PUSH1 0x1 PUSH1 0xA0 SHL SUB AND PUSH3 0x744 JUMPI PUSH1 0x40 MLOAD PUSH3 0x461BCD PUSH1 0xE5 SHL DUP2 MSTORE PUSH1 0x20 PUSH1 0x4 DUP3 ADD MSTORE PUSH1 0xE PUSH1 0x24 DUP3 ADD MSTORE PUSH14 0x14185A5C881B9BDD08199BDD5B99 PUSH1 0x92 SHL PUSH1 0x44 DUP3 ADD MSTORE PUSH1 0x64 ADD PUSH3 0x17A JUMP JUMPDEST DUP1 SLOAD PUSH1 0x1 PUSH1 0x1 PUSH1 0xA0 SHL SUB DUP8 DUP2 AND SWAP2 AND EQ PUSH1 0x0 DUP1 DUP3 PUSH3 0x76D JUMPI DUP4 PUSH1 0x4 ADD SLOAD DUP5 PUSH1 0x3 ADD SLOAD PUSH3 0x778 JUMP JUMPDEST DUP4 PUSH1 0x3 ADD SLOAD DUP5 PUSH1 0x4 ADD SLOAD JUMPDEST PUSH1 0x40 MLOAD PUSH4 0x23B872DD PUSH1 0xE0 SHL DUP2 MSTORE CALLER PUSH1 0x4 DUP3 ADD MSTORE ADDRESS PUSH1 0x24 DUP3 ADD MSTORE PUSH1 0x44 DUP2 ADD DUP11 SWAP1 MSTORE SWAP2 SWAP4 POP SWAP2 POP PUSH1 0x1 PUSH1 0x1 PUSH1 0xA0 SHL SUB DUP11 AND SWAP1 PUSH4 0x23B872DD SWAP1 PUSH1 0x64 ADD PUSH1 0x20 PUSH1 0x40 MLOAD DUP1 DUP4 SUB DUP2 PUSH1 0x0 DUP8 GAS CALL ISZERO DUP1 ISZERO PUSH3 0x7D1 JUMPI RETURNDATASIZE PUSH1 0x0 DUP1 RETURNDATACOPY RETURNDATASIZE PUSH1 0x0 REVERT JUMPDEST POP POP POP POP PUSH1 0x40 MLOAD RETURNDATASIZE PUSH1 0x1F NOT PUSH1 0x1F DUP3 ADD AND DUP3 ADD DUP1 PUSH1 0x40 MSTORE POP DUP2 ADD SWAP1 PUSH3 0x7F7 SWAP2 SWAP1 PUSH3 0xBEB JUMP JUMPDEST POP PUSH1 0x0 PUSH3 0x808 DUP9 PUSH2 0x3E5 PUSH3 0xCA6 JUMP JUMPDEST SWAP1 POP PUSH1 0x0 PUSH3 0x818 DUP4 DUP4 PUSH3 0xCA6 JUMP JUMPDEST SWAP1 POP PUSH1 0x0 DUP3 PUSH3 0x82B DUP7 PUSH2 0x3E8 PUSH3 0xCA6 JUMP JUMPDEST PUSH3 0x837 SWAP2 SWAP1 PUSH3 0xCFD JUMP JUMPDEST SWAP1 POP PUSH1 0x0 PUSH3 0x847 DUP3 DUP5 PUSH3 0xCDA JUMP JUMPDEST SWAP1 POP PUSH1 0x0 DUP2 GT DUP1 ISZERO PUSH3 0x85A JUMPI POP DUP1 DUP6 LT ISZERO JUMPDEST PUSH3 0x8A1 JUMPI PUSH1 0x40 MLOAD PUSH3 0x461BCD PUSH1 0xE5 SHL DUP2 MSTORE PUSH1 0x20 PUSH1 0x4 DUP3 ADD MSTORE PUSH1 0x16 PUSH1 0x24 DUP3 ADD MSTORE PUSH22 0x496E73756666696369656E74206C6971756964697479 PUSH1 0x50 SHL PUSH1 0x44 DUP3 ADD MSTORE PUSH1 0x64 ADD PUSH3 0x17A JUMP JUMPDEST PUSH1 0x40 MLOAD PUSH4 0xA9059CBB PUSH1 0xE0 SHL DUP2 MSTORE CALLER PUSH1 0x4 DUP3 ADD MSTORE PUSH1 0x24 DUP2 ADD DUP3 SWAP1 MSTORE PUSH1 0x1 PUSH1 0x1 PUSH1 0xA0 SHL SUB DUP14 AND SWAP1 PUSH4 0xA9059CBB SWAP1 PUSH1 0x44 ADD PUSH1 0x20 PUSH1 0x40 MLOAD DUP1 DUP4 SUB DUP2 PUSH1 0x0 DUP8 GAS CALL ISZERO DUP1 ISZERO PUSH3 0x8EF JUMPI RETURNDATASIZE PUSH1 0x0 DUP1 RETURNDATACOPY RETURNDATASIZE PUSH1 0x0 REVERT JUMPDEST POP POP POP POP PUSH1 0x40 MLOAD RETURNDATASIZE PUSH1 0x1F NOT PUSH1 0x1F DUP3 ADD AND DUP3 ADD DUP1 PUSH1 0x40 MSTORE POP DUP2 ADD SWAP1 PUSH3 0x915 SWAP2 SWAP1 PUSH3 0xBEB JUMP JUMPDEST POP DUP7 ISZERO PUSH3 0x95C JUMPI DUP11 DUP9 PUSH1 0x3 ADD PUSH1 0x0 DUP3 DUP3 SLOAD PUSH3 0x933 SWAP2 SWAP1 PUSH3 0xCFD JUMP JUMPDEST SWAP3 POP POP DUP2 SWAP1 SSTORE POP DUP1 DUP9 PUSH1 0x4 ADD PUSH1 0x0 DUP3 DUP3 SLOAD PUSH3 0x950 SWAP2 SWAP1 PUSH3 0xD13 JUMP JUMPDEST SWAP1 SWAP2 SSTORE POP PUSH3 0x995 SWAP1 POP JUMP JUMPDEST DUP11 DUP9 PUSH1 0x4 ADD PUSH1 0x0 DUP3 DUP3 SLOAD PUSH3 0x972 SWAP2 SWAP1 PUSH3 0xCFD JUMP JUMPDEST SWAP3 POP POP DUP2 SWAP1 SSTORE POP DUP1 DUP9 PUSH1 0x3 ADD PUSH1 0x0 DUP3 DUP3 SLOAD PUSH3 0x98F SWAP2 SWAP1 PUSH3 0xD13 JUMP JUMPDEST SWAP1 SWAP2 SSTORE POP POP JUMPDEST PUSH1 0x40 DUP1 MLOAD PUSH1 0x1 PUSH1 0x1 PUSH1 0xA0 SHL SUB DUP16 DUP2 AND DUP3 MSTORE DUP15 AND PUSH1 0x20 DUP3 ADD MSTORE SWAP1 DUP2 ADD DUP13 SWAP1 MSTORE PUSH1 0x60 DUP2 ADD DUP3 SWAP1 MSTORE CALLER SWAP1 PUSH32 0x6782190C91D4A7E8AD2A867DEED6EC0A970CAB8FF137AE2BD4ABD92B3810F4D3 SWAP1 PUSH1 0x80 ADD PUSH1 0x40 MLOAD DUP1 SWAP2 SUB SWAP1 LOG2 SWAP13 SWAP12 POP POP POP POP POP POP POP POP POP POP POP POP JUMP JUMPDEST PUSH1 0x0 DUP2 PUSH1 0x1 PUSH1 0x1 PUSH1 0xA0 SHL SUB AND DUP4 PUSH1 0x1 PUSH1 0x1 PUSH1 0xA0 SHL SUB AND LT ISZERO PUSH3 0xA5D JUMPI PUSH1 0x40 MLOAD PUSH12 0xFFFFFFFFFFFFFFFFFFFFFFFF NOT PUSH1 0x60 DUP6 DUP2 SHL DUP3 AND PUSH1 0x20 DUP5 ADD MSTORE DUP5 SWAP1 SHL AND PUSH1 0x34 DUP3 ADD MSTORE PUSH1 0x48 ADD PUSH1 0x40 MLOAD PUSH1 0x20 DUP2 DUP4 SUB SUB DUP2 MSTORE SWAP1 PUSH1 0x40 MSTORE DUP1 MLOAD SWAP1 PUSH1 0x20 ADD KECCAK256 SWAP1 POP PUSH3 0xA9F JUMP JUMPDEST PUSH1 0x40 MLOAD PUSH12 0xFFFFFFFFFFFFFFFFFFFFFFFF NOT PUSH1 0x60 DUP5 DUP2 SHL DUP3 AND PUSH1 0x20 DUP5 ADD MSTORE DUP6 SWAP1 SHL AND PUSH1 0x34 DUP3 ADD MSTORE PUSH1 0x48 ADD PUSH1 0x40 MLOAD PUSH1 0x20 DUP2 DUP4 SUB SUB DUP2 MSTORE SWAP1 PUSH1 0x40 MSTORE DUP1 MLOAD SWAP1 PUSH1 0x20 ADD KECCAK256 SWAP1 POP JUMPDEST SWAP3 SWAP2 POP POP JUMP JUMPDEST PUSH1 0x0 PUSH1 0x3 DUP3 GT ISZERO PUSH3 0xB13 JUMPI POP DUP1 PUSH1 0x0 PUSH3 0xAC2 PUSH1 0x2 DUP4 PUSH3 0xCDA JUMP JUMPDEST PUSH3 0xACF SWAP1 PUSH1 0x1 PUSH3 0xCFD JUMP JUMPDEST SWAP1 POP JUMPDEST DUP2 DUP2 LT ISZERO PUSH3 0xB0D JUMPI SWAP1 POP DUP1 PUSH1 0x2 DUP2 PUSH3 0xAED DUP2 DUP7 PUSH3 0xCDA JUMP JUMPDEST PUSH3 0xAF9 SWAP2 SWAP1 PUSH3 0xCFD JUMP JUMPDEST PUSH3 0xB05 SWAP2 SWAP1 PUSH3 0xCDA JUMP JUMPDEST SWAP1 POP PUSH3 0xAD2 JUMP JUMPDEST POP SWAP2 SWAP1 POP JUMP JUMPDEST DUP2 ISZERO PUSH3 0xB1E JUMPI POP PUSH1 0x1 JUMPDEST SWAP2 SWAP1 POP JUMP JUMPDEST PUSH2 0xB0E DUP1 PUSH3 0xD2A DUP4 CODECOPY ADD SWAP1 JUMP JUMPDEST PUSH1 0x0 PUSH1 0x20 DUP3 DUP5 SUB SLT ISZERO PUSH3 0xB44 JUMPI PUSH1 0x0 DUP1 REVERT JUMPDEST POP CALLDATALOAD SWAP2 SWAP1 POP JUMP JUMPDEST DUP1 CALLDATALOAD PUSH1 0x1 PUSH1 0x1 PUSH1 0xA0 SHL SUB DUP2 AND DUP2 EQ PUSH3 0xB1E JUMPI PUSH1 0x0 DUP1 REVERT JUMPDEST PUSH1 0x0 DUP1 PUSH1 0x0 DUP1 PUSH1 0x80 DUP6 DUP8 SUB SLT ISZERO PUSH3 0xB7A JUMPI PUSH1 0x0 DUP1 REVERT JUMPDEST PUSH3 0xB85 DUP6 PUSH3 0xB4B JUMP JUMPDEST SWAP4 POP PUSH3 0xB95 PUSH1 0x20 DUP7 ADD PUSH3 0xB4B JUMP JUMPDEST SWAP4 SWAP7 SWAP4 SWAP6 POP POP POP POP PUSH1 0x40 DUP3 ADD CALLDATALOAD SWAP2 PUSH1 0x60 ADD CALLDATALOAD SWAP1 JUMP JUMPDEST PUSH1 0x0 DUP1 PUSH1 0x0 PUSH1 0x60 DUP5 DUP7 SUB SLT ISZERO PUSH3 0xBC0 JUMPI PUSH1 0x0 DUP1 REVERT JUMPDEST PUSH3 0xBCB DUP5 PUSH3 0xB4B JUMP JUMPDEST SWAP3 POP PUSH3 0xBDB PUSH1 0x20 DUP6 ADD PUSH3 0xB4B JUMP JUMPDEST SWAP2 POP PUSH1 0x40 DUP5 ADD CALLDATALOAD SWAP1 POP SWAP3 POP SWAP3 POP SWAP3 JUMP JUMPDEST PUSH1 0x0 PUSH1 0x20 DUP3 DUP5 SUB SLT ISZERO PUSH3 0xBFE JUMPI PUSH1 0x0 DUP1 REVERT JUMPDEST DUP2 MLOAD DUP1 ISZERO ISZERO DUP2 EQ PUSH3 0xC0F JUMPI PUSH1 0x0 DUP1 REVERT JUMPDEST SWAP4 SWAP3 POP POP POP JUMP JUMPDEST PUSH1 0x0 DUP2 MLOAD DUP1 DUP5 MSTORE PUSH1 0x0 JUMPDEST DUP2 DUP2 LT ISZERO PUSH3 0xC3E JUMPI PUSH1 0x20 DUP2 DUP6 ADD DUP2 ADD MLOAD DUP7 DUP4 ADD DUP3 ADD MSTORE ADD PUSH3 0xC20 JUMP JUMPDEST POP PUSH1 0x0 PUSH1 0x20 DUP3 DUP7 ADD ADD MSTORE PUSH1 0x20 PUSH1 0x1F NOT PUSH1 0x1F DUP4 ADD AND DUP6 ADD ADD SWAP2 POP POP SWAP3 SWAP2 POP POP JUMP JUMPDEST PUSH1 0x40 DUP2 MSTORE PUSH1 0x0 PUSH3 0xC73 PUSH1 0x40 DUP4 ADD DUP6 PUSH3 0xC16 JUMP JUMPDEST DUP3 DUP2 SUB PUSH1 0x20 DUP5 ADD MSTORE PUSH3 0xC87 DUP2 DUP6 PUSH3 0xC16 JUMP JUMPDEST SWAP6 SWAP5 POP POP POP POP POP JUMP JUMPDEST PUSH4 0x4E487B71 PUSH1 0xE0 SHL PUSH1 0x0 MSTORE PUSH1 0x11 PUSH1 0x4 MSTORE PUSH1 0x24 PUSH1 0x0 REVERT JUMPDEST DUP1 DUP3 MUL DUP2 ISZERO DUP3 DUP3 DIV DUP5 EQ OR PUSH3 0xA9F JUMPI PUSH3 0xA9F PUSH3 0xC90 JUMP JUMPDEST PUSH1 0x0 PUSH1 0x20 DUP3 DUP5 SUB SLT ISZERO PUSH3 0xCD3 JUMPI PUSH1 0x0 DUP1 REVERT JUMPDEST POP MLOAD SWAP2 SWAP1 POP JUMP JUMPDEST PUSH1 0x0 DUP3 PUSH3 0xCF8 JUMPI PUSH4 0x4E487B71 PUSH1 0xE0 SHL PUSH1 0x0 MSTORE PUSH1 0x12 PUSH1 0x4 MSTORE PUSH1 0x24 PUSH1 0x0 REVERT JUMPDEST POP DIV SWAP1 JUMP JUMPDEST DUP1 DUP3 ADD DUP1 DUP3 GT ISZERO PUSH3 0xA9F JUMPI PUSH3 0xA9F PUSH3 0xC90 JUMP JUMPDEST DUP2 DUP2 SUB DUP2 DUP2 GT ISZERO PUSH3 0xA9F JUMPI PUSH3 0xA9F PUSH3 0xC90 JUMP INVALID PUSH1 0x80 PUSH1 0x40 MSTORE CALLVALUE DUP1 ISZERO PUSH3 0x11 JUMPI PUSH1 0x0 DUP1 REVERT JUMPDEST POP PUSH1 0x40 MLOAD PUSH3 0xB0E CODESIZE SUB DUP1 PUSH3 0xB0E DUP4 CODECOPY DUP2 ADD PUSH1 0x40 DUP2 SWAP1 MSTORE PUSH3 0x34 SWAP2 PUSH3 0x136 JUMP JUMPDEST DUP2 DUP2 PUSH1 0x3 PUSH3 0x44 DUP4 DUP3 PUSH3 0x22F JUMP JUMPDEST POP PUSH1 0x4 PUSH3 0x53 DUP3 DUP3 PUSH3 0x22F JUMP JUMPDEST POP POP PUSH1 0x5 DUP1 SLOAD PUSH1 0x1 PUSH1 0x1 PUSH1 0xA0 SHL SUB NOT AND CALLER OR SWAP1 SSTORE POP PUSH3 0x2FB SWAP2 POP POP JUMP JUMPDEST PUSH4 0x4E487B71 PUSH1 0xE0 SHL PUSH1 0x0 MSTORE PUSH1 0x41 PUSH1 0x4 MSTORE PUSH1 0x24 PUSH1 0x0 REVERT JUMPDEST PUSH1 0x0 DUP3 PUSH1 0x1F DUP4 ADD SLT PUSH3 0x99 JUMPI PUSH1 0x0 DUP1 REVERT JUMPDEST DUP2 MLOAD PUSH1 0x1 PUSH1 0x1 PUSH1 0x40 SHL SUB DUP1 DUP3 GT ISZERO PUSH3 0xB6 JUMPI PUSH3 0xB6 PUSH3 0x71 JUMP JUMPDEST PUSH1 0x40 MLOAD PUSH1 0x1F DUP4 ADD PUSH1 0x1F NOT SWAP1 DUP2 AND PUSH1 0x3F ADD AND DUP2 ADD SWAP1 DUP3 DUP3 GT DUP2 DUP4 LT OR ISZERO PUSH3 0xE1 JUMPI PUSH3 0xE1 PUSH3 0x71 JUMP JUMPDEST DUP2 PUSH1 0x40 MSTORE DUP4 DUP2 MSTORE PUSH1 0x20 SWAP3 POP DUP7 DUP4 DUP6 DUP9 ADD ADD GT ISZERO PUSH3 0xFE JUMPI PUSH1 0x0 DUP1 REVERT JUMPDEST PUSH1 0x0 SWAP2 POP JUMPDEST DUP4 DUP3 LT ISZERO PUSH3 0x122 JUMPI DUP6 DUP3 ADD DUP4 ADD MLOAD DUP2 DUP4 ADD DUP5 ADD MSTORE SWAP1 DUP3 ADD SWAP1 PUSH3 0x103 JUMP JUMPDEST PUSH1 0x0 SWAP4 DUP2 ADD SWAP1 SWAP3 ADD SWAP3 SWAP1 SWAP3 MSTORE SWAP5 SWAP4 POP POP POP POP JUMP JUMPDEST PUSH1 0x0 DUP1 PUSH1 0x40 DUP4 DUP6 SUB SLT ISZERO PUSH3 0x14A JUMPI PUSH1 0x0 DUP1 REVERT JUMPDEST DUP3 MLOAD PUSH1 0x1 PUSH1 0x1 PUSH1 0x40 SHL SUB DUP1 DUP3 GT ISZERO PUSH3 0x162 JUMPI PUSH1 0x0 DUP1 REVERT JUMPDEST PUSH3 0x170 DUP7 DUP4 DUP8 ADD PUSH3 0x87 JUMP JUMPDEST SWAP4 POP PUSH1 0x20 DUP6 ADD MLOAD SWAP2 POP DUP1 DUP3 GT ISZERO PUSH3 0x187 JUMPI PUSH1 0x0 DUP1 REVERT JUMPDEST POP PUSH3 0x196 DUP6 DUP3 DUP7 ADD PUSH3 0x87 JUMP JUMPDEST SWAP2 POP POP SWAP3 POP SWAP3 SWAP1 POP JUMP JUMPDEST PUSH1 0x1 DUP2 DUP2 SHR SWAP1 DUP3 AND DUP1 PUSH3 0x1B5 JUMPI PUSH1 0x7F DUP3 AND SWAP2 POP JUMPDEST PUSH1 0x20 DUP3 LT DUP2 SUB PUSH3 0x1D6 JUMPI PUSH4 0x4E487B71 PUSH1 0xE0 SHL PUSH1 0x0 MSTORE PUSH1 0x22 PUSH1 0x4 MSTORE PUSH1 0x24 PUSH1 0x0 REVERT JUMPDEST POP SWAP2 SWAP1 POP JUMP JUMPDEST PUSH1 0x1F DUP3 GT ISZERO PUSH3 0x22A JUMPI PUSH1 0x0 DUP2 DUP2 MSTORE PUSH1 0x20 DUP2 KECCAK256 PUSH1 0x1F DUP6 ADD PUSH1 0x5 SHR DUP2 ADD PUSH1 0x20 DUP7 LT ISZERO PUSH3 0x205 JUMPI POP DUP1 JUMPDEST PUSH1 0x1F DUP6 ADD PUSH1 0x5 SHR DUP3 ADD SWAP2 POP JUMPDEST DUP2 DUP2 LT ISZERO PUSH3 0x226 JUMPI DUP3 DUP2 SSTORE PUSH1 0x1 ADD PUSH3 0x211 JUMP JUMPDEST POP POP POP JUMPDEST POP POP POP JUMP JUMPDEST DUP2 MLOAD PUSH1 0x1 PUSH1 0x1 PUSH1 0x40 SHL SUB DUP2 GT ISZERO PUSH3 0x24B JUMPI PUSH3 0x24B PUSH3 0x71 JUMP JUMPDEST PUSH3 0x263 DUP2 PUSH3 0x25C DUP5 SLOAD PUSH3 0x1A0 JUMP JUMPDEST DUP5 PUSH3 0x1DC JUMP JUMPDEST PUSH1 0x20 DUP1 PUSH1 0x1F DUP4 GT PUSH1 0x1 DUP2 EQ PUSH3 0x29B JUMPI PUSH1 0x0 DUP5 ISZERO PUSH3 0x282 JUMPI POP DUP6 DUP4 ADD MLOAD JUMPDEST PUSH1 0x0 NOT PUSH1 0x3 DUP7 SWAP1 SHL SHR NOT AND PUSH1 0x1 DUP6 SWAP1 SHL OR DUP6 SSTORE PUSH3 0x226 JUMP JUMPDEST PUSH1 0x0 DUP6 DUP2 MSTORE PUSH1 0x20 DUP2 KECCAK256 PUSH1 0x1F NOT DUP7 AND SWAP2 JUMPDEST DUP3 DUP2 LT ISZERO PUSH3 0x2CC JUMPI DUP9 DUP7 ADD MLOAD DUP3 SSTORE SWAP5 DUP5 ADD SWAP5 PUSH1 0x1 SWAP1 SWAP2 ADD SWAP1 DUP5 ADD PUSH3 0x2AB JUMP JUMPDEST POP DUP6 DUP3 LT ISZERO PUSH3 0x2EB JUMPI DUP8 DUP6 ADD MLOAD PUSH1 0x0 NOT PUSH1 0x3 DUP9 SWAP1 SHL PUSH1 0xF8 AND SHR NOT AND DUP2 SSTORE JUMPDEST POP POP POP POP POP PUSH1 0x1 SWAP1 DUP2 SHL ADD SWAP1 SSTORE POP JUMP JUMPDEST PUSH2 0x803 DUP1 PUSH3 0x30B PUSH1 0x0 CODECOPY PUSH1 0x0 RETURN INVALID PUSH1 0x80 PUSH1 0x40 MSTORE CALLVALUE DUP1 ISZERO PUSH2 0x10 JUMPI PUSH1 0x0 DUP1 REVERT JUMPDEST POP PUSH1 0x4 CALLDATASIZE LT PUSH2 0xA9 JUMPI PUSH1 0x0 CALLDATALOAD PUSH1 0xE0 SHR DUP1 PUSH4 0x313CE567 GT PUSH2 0x71 JUMPI DUP1 PUSH4 0x313CE567 EQ PUSH2 0x13F JUMPI DUP1 PUSH4 0x40C10F19 EQ PUSH2 0x14E JUMPI DUP1 PUSH4 0x70A08231 EQ PUSH2 0x163 JUMPI DUP1 PUSH4 0x95D89B41 EQ PUSH2 0x18C JUMPI DUP1 PUSH4 0xA9059CBB EQ PUSH2 0x194 JUMPI DUP1 PUSH4 0xDD62ED3E EQ PUSH2 0x1A7 JUMPI PUSH1 0x0 DUP1 REVERT JUMPDEST DUP1 PUSH4 0x6FDDE03 EQ PUSH2 0xAE JUMPI DUP1 PUSH4 0x7546172 EQ PUSH2 0xCC JUMPI DUP1 PUSH4 0x95EA7B3 EQ PUSH2 0xF7 JUMPI DUP1 PUSH4 0x18160DDD EQ PUSH2 0x11A JUMPI DUP1 PUSH4 0x23B872DD EQ PUSH2 0x12C JUMPI JUMPDEST PUSH1 0x0 DUP1 REVERT JUMPDEST PUSH2 0xB6 PUSH2 0x1E0 JUMP JUMPDEST PUSH1 0x40 MLOAD PUSH2 0xC3 SWAP2 SWAP1 PUSH2 0x64D JUMP JUMPDEST PUSH1 0x40 MLOAD DUP1 SWAP2 SUB SWAP1 RETURN JUMPDEST PUSH1 0x5 SLOAD PUSH2 0xDF SWAP1 PUSH1 0x1 PUSH1 0x1 PUSH1 0xA0 SHL SUB AND DUP2 JUMP JUMPDEST PUSH1 0x40 MLOAD PUSH1 0x1 PUSH1 0x1 PUSH1 0xA0 SHL SUB SWAP1 SWAP2 AND DUP2 MSTORE PUSH1 0x20 ADD PUSH2 0xC3 JUMP JUMPDEST PUSH2 0x10A PUSH2 0x105 CALLDATASIZE PUSH1 0x4 PUSH2 0x6B7 JUMP JUMPDEST PUSH2 0x272 JUMP JUMPDEST PUSH1 0x40 MLOAD SWAP1 ISZERO ISZERO DUP2 MSTORE PUSH1 0x20 ADD PUSH2 0xC3 JUMP JUMPDEST PUSH1 0x2 SLOAD JUMPDEST PUSH1 0x40 MLOAD SWAP1 DUP2 MSTORE PUSH1 0x20 ADD PUSH2 0xC3 JUMP JUMPDEST PUSH2 0x10A PUSH2 0x13A CALLDATASIZE PUSH1 0x4 PUSH2 0x6E1 JUMP JUMPDEST PUSH2 0x28C JUMP JUMPDEST PUSH1 0x40 MLOAD PUSH1 0x12 DUP2 MSTORE PUSH1 0x20 ADD PUSH2 0xC3 JUMP JUMPDEST PUSH2 0x161 PUSH2 0x15C CALLDATASIZE PUSH1 0x4 PUSH2 0x6B7 JUMP JUMPDEST PUSH2 0x2B0 JUMP JUMPDEST STOP JUMPDEST PUSH2 0x11E PUSH2 0x171 CALLDATASIZE PUSH1 0x4 PUSH2 0x71D JUMP JUMPDEST PUSH1 0x1 PUSH1 0x1 PUSH1 0xA0 SHL SUB AND PUSH1 0x0 SWAP1 DUP2 MSTORE PUSH1 0x20 DUP2 SWAP1 MSTORE PUSH1 0x40 SWAP1 KECCAK256 SLOAD SWAP1 JUMP JUMPDEST PUSH2 0xB6 PUSH2 0x30B JUMP JUMPDEST PUSH2 0x10A PUSH2 0x1A2 CALLDATASIZE PUSH1 0x4 PUSH2 0x6B7 JUMP JUMPDEST PUSH2 0x31A JUMP JUMPDEST PUSH2 0x11E PUSH2 0x1B5 CALLDATASIZE PUSH1 0x4 PUSH2 0x73F JUMP JUMPDEST PUSH1 0x1 PUSH1 0x1 PUSH1 0xA0 SHL SUB SWAP2 DUP3 AND PUSH1 0x0 SWAP1 DUP2 MSTORE PUSH1 0x1 PUSH1 0x20 SWAP1 DUP2 MSTORE PUSH1 0x40 DUP1 DUP4 KECCAK256 SWAP4 SWAP1 SWAP5 AND DUP3 MSTORE SWAP2 SWAP1 SWAP2 MSTORE KECCAK256 SLOAD SWAP1 JUMP JUMPDEST PUSH1 0x60 PUSH1 0x3 DUP1 SLOAD PUSH2 0x1EF SWAP1 PUSH2 0x772 JUMP JUMPDEST DUP1 PUSH1 0x1F ADD PUSH1 0x20 DUP1 SWAP2 DIV MUL PUSH1 0x20 ADD PUSH1 0x40 MLOAD SWAP1 DUP2 ADD PUSH1 0x40 MSTORE DUP1 SWAP3 SWAP2 SWAP1 DUP2 DUP2 MSTORE PUSH1 0x20 ADD DUP3 DUP1 SLOAD PUSH2 0x21B SWAP1 PUSH2 0x772 JUMP JUMPDEST DUP1 ISZERO PUSH2 0x268 JUMPI DUP1 PUSH1 0x1F LT PUSH2 0x23D JUMPI PUSH2 0x100 DUP1 DUP4 SLOAD DIV MUL DUP4 MSTORE SWAP2 PUSH1 0x20 ADD SWAP2 PUSH2 0x268 JUMP JUMPDEST DUP3 ADD SWAP2 SWAP1 PUSH1 0x0 MSTORE PUSH1 0x20 PUSH1 0x0 KECCAK256 SWAP1 JUMPDEST DUP2 SLOAD DUP2 MSTORE SWAP1 PUSH1 0x1 ADD SWAP1 PUSH1 0x20 ADD DUP1 DUP4 GT PUSH2 0x24B JUMPI DUP3 SWAP1 SUB PUSH1 0x1F AND DUP3 ADD SWAP2 JUMPDEST POP POP POP POP POP SWAP1 POP SWAP1 JUMP JUMPDEST PUSH1 0x0 CALLER PUSH2 0x280 DUP2 DUP6 DUP6 PUSH2 0x328 JUMP JUMPDEST PUSH1 0x1 SWAP2 POP POP JUMPDEST SWAP3 SWAP2 POP POP JUMP JUMPDEST PUSH1 0x0 CALLER PUSH2 0x29A DUP6 DUP3 DUP6 PUSH2 0x33A JUMP JUMPDEST PUSH2 0x2A5 DUP6 DUP6 DUP6 PUSH2 0x3B9 JUMP JUMPDEST POP PUSH1 0x1 SWAP5 SWAP4 POP POP POP POP JUMP JUMPDEST PUSH1 0x5 SLOAD PUSH1 0x1 PUSH1 0x1 PUSH1 0xA0 SHL SUB AND CALLER EQ PUSH2 0x2FD JUMPI PUSH1 0x40 MLOAD PUSH3 0x461BCD PUSH1 0xE5 SHL DUP2 MSTORE PUSH1 0x20 PUSH1 0x4 DUP3 ADD MSTORE PUSH1 0xB PUSH1 0x24 DUP3 ADD MSTORE PUSH11 0x27B7363C9036B4B73A32B9 PUSH1 0xA9 SHL PUSH1 0x44 DUP3 ADD MSTORE PUSH1 0x64 ADD JUMPDEST PUSH1 0x40 MLOAD DUP1 SWAP2 SUB SWAP1 REVERT JUMPDEST PUSH2 0x307 DUP3 DUP3 PUSH2 0x418 JUMP JUMPDEST POP POP JUMP JUMPDEST PUSH1 0x60 PUSH1 0x4 DUP1 SLOAD PUSH2 0x1EF SWAP1 PUSH2 0x772 JUMP JUMPDEST PUSH1 0x0 CALLER PUSH2 0x280 DUP2 DUP6 DUP6 PUSH2 0x3B9 JUMP JUMPDEST PUSH2 0x335 DUP4 DUP4 DUP4 PUSH1 0x1 PUSH2 0x44E JUMP JUMPDEST POP POP POP JUMP JUMPDEST PUSH1 0x1 PUSH1 0x1 PUSH1 0xA0 SHL SUB DUP4 DUP2 AND PUSH1 0x0 SWAP1 DUP2 MSTORE PUSH1 0x1 PUSH1 0x20 SWAP1 DUP2 MSTORE PUSH1 0x40 DUP1 DUP4 KECCAK256 SWAP4 DUP7 AND DUP4 MSTORE SWAP3 SWAP1 MSTORE KECCAK256 SLOAD PUSH1 0x0 NOT DUP2 LT ISZERO PUSH2 0x3B3 JUMPI DUP2 DUP2 LT ISZERO PUSH2 0x3A4 JUMPI PUSH1 0x40 MLOAD PUSH4 0x7DC7A0D9 PUSH1 0xE1 SHL DUP2 MSTORE PUSH1 0x1 PUSH1 0x1 PUSH1 0xA0 SHL SUB DUP5 AND PUSH1 0x4 DUP3 ADD MSTORE PUSH1 0x24 DUP2 ADD DUP3 SWAP1 MSTORE PUSH1 0x44 DUP2 ADD DUP4 SWAP1 MSTORE PUSH1 0x64 ADD PUSH2 0x2F4 JUMP JUMPDEST PUSH2 0x3B3 DUP5 DUP5 DUP5 DUP5 SUB PUSH1 0x0 PUSH2 0x44E JUMP JUMPDEST POP POP POP POP JUMP JUMPDEST PUSH1 0x1 PUSH1 0x1 PUSH1 0xA0 SHL SUB DUP4 AND PUSH2 0x3E3 JUMPI PUSH1 0x40 MLOAD PUSH4 0x4B637E8F PUSH1 0xE1 SHL DUP2 MSTORE PUSH1 0x0 PUSH1 0x4 DUP3 ADD MSTORE PUSH1 0x24 ADD PUSH2 0x2F4 JUMP JUMPDEST PUSH1 0x1 PUSH1 0x1 PUSH1 0xA0 SHL SUB DUP3 AND PUSH2 0x40D JUMPI PUSH1 0x40 MLOAD PUSH4 0xEC442F05 PUSH1 0xE0 SHL DUP2 MSTORE PUSH1 0x0 PUSH1 0x4 DUP3 ADD MSTORE PUSH1 0x24 ADD PUSH2 0x2F4 JUMP JUMPDEST PUSH2 0x335 DUP4 DUP4 DUP4 PUSH2 0x523 JUMP JUMPDEST PUSH1 0x1 PUSH1 0x1 PUSH1 0xA0 SHL SUB DUP3 AND PUSH2 0x442 JUMPI PUSH1 0x40 MLOAD PUSH4 0xEC442F05 PUSH1 0xE0 SHL DUP2 MSTORE PUSH1 0x0 PUSH1 0x4 DUP3 ADD MSTORE PUSH1 0x24 ADD PUSH2 0x2F4 JUMP JUMPDEST PUSH2 0x307 PUSH1 0x0 DUP4 DUP4 PUSH2 0x523 JUMP JUMPDEST PUSH1 0x1 PUSH1 0x1 PUSH1 0xA0 SHL SUB DUP5 AND PUSH2 0x478 JUMPI PUSH1 0x40 MLOAD PUSH4 0xE602DF05 PUSH1 0xE0 SHL DUP2 MSTORE PUSH1 0x0 PUSH1 0x4 DUP3 ADD MSTORE PUSH1 0x24 ADD PUSH2 0x2F4 JUMP JUMPDEST PUSH1 0x1 PUSH1 0x1 PUSH1 0xA0 SHL SUB DUP4 AND PUSH2 0x4A2 JUMPI PUSH1 0x40 MLOAD PUSH4 0x4A1406B1 PUSH1 0xE1 SHL DUP2 MSTORE PUSH1 0x0 PUSH1 0x4 DUP3 ADD MSTORE PUSH1 0x24 ADD PUSH2 0x2F4 JUMP JUMPDEST PUSH1 0x1 PUSH1 0x1 PUSH1 0xA0 SHL SUB DUP1 DUP6 AND PUSH1 0x0 SWAP1 DUP2 MSTORE PUSH1 0x1 PUSH1 0x20 SWAP1 DUP2 MSTORE PUSH1 0x40 DUP1 DUP4 KECCAK256 SWAP4 DUP8 AND DUP4 MSTORE SWAP3 SWAP1 MSTORE KECCAK256 DUP3 SWAP1 SSTORE DUP1 ISZERO PUSH2 0x3B3 JUMPI DUP3 PUSH1 0x1 PUSH1 0x1 PUSH1 0xA0 SHL SUB AND DUP5 PUSH1 0x1 PUSH1 0x1 PUSH1 0xA0 SHL SUB AND PUSH32 0x8C5BE1E5EBEC7D5BD14F71427D1E84F3DD0314C0F7B2291E5B200AC8C7C3B925 DUP5 PUSH1 0x40 MLOAD PUSH2 0x515 SWAP2 DUP2 MSTORE PUSH1 0x20 ADD SWAP1 JUMP JUMPDEST PUSH1 0x40 MLOAD DUP1 SWAP2 SUB SWAP1 LOG3 POP POP POP POP JUMP JUMPDEST PUSH1 0x1 PUSH1 0x1 PUSH1 0xA0 SHL SUB DUP4 AND PUSH2 0x54E JUMPI DUP1 PUSH1 0x2 PUSH1 0x0 DUP3 DUP3 SLOAD PUSH2 0x543 SWAP2 SWAP1 PUSH2 0x7AC JUMP JUMPDEST SWAP1 SWAP2 SSTORE POP PUSH2 0x5C0 SWAP1 POP JUMP JUMPDEST PUSH1 0x1 PUSH1 0x1 PUSH1 0xA0 SHL SUB DUP4 AND PUSH1 0x0 SWAP1 DUP2 MSTORE PUSH1 0x20 DUP2 SWAP1 MSTORE PUSH1 0x40 SWAP1 KECCAK256 SLOAD DUP2 DUP2 LT ISZERO PUSH2 0x5A1 JUMPI PUSH1 0x40 MLOAD PUSH4 0x391434E3 PUSH1 0xE2 SHL DUP2 MSTORE PUSH1 0x1 PUSH1 0x1 PUSH1 0xA0 SHL SUB DUP6 AND PUSH1 0x4 DUP3 ADD MSTORE PUSH1 0x24 DUP2 ADD DUP3 SWAP1 MSTORE PUSH1 0x44 DUP2 ADD DUP4 SWAP1 MSTORE PUSH1 0x64 ADD PUSH2 0x2F4 JUMP JUMPDEST PUSH1 0x1 PUSH1 0x1 PUSH1 0xA0 SHL SUB DUP5 AND PUSH1 0x0 SWAP1 DUP2 MSTORE PUSH1 0x20 DUP2 SWAP1 MSTORE PUSH1 0x40 SWAP1 KECCAK256 SWAP1 DUP3 SWAP1 SUB SWAP1 SSTORE JUMPDEST PUSH1 0x1 PUSH1 0x1 PUSH1 0xA0 SHL SUB DUP3 AND PUSH2 0x5DC JUMPI PUSH1 0x2 DUP1 SLOAD DUP3 SWAP1 SUB SWAP1 SSTORE PUSH2 0x5FB JUMP JUMPDEST PUSH1 0x1 PUSH1 0x1 PUSH1 0xA0 SHL SUB DUP3 AND PUSH1 0x0 SWAP1 DUP2 MSTORE PUSH1 0x20 DUP2 SWAP1 MSTORE PUSH1 0x40 SWAP1 KECCAK256 DUP1 SLOAD DUP3 ADD SWAP1 SSTORE JUMPDEST DUP2 PUSH1 0x1 PUSH1 0x1 PUSH1 0xA0 SHL SUB AND DUP4 PUSH1 0x1 PUSH1 0x1 PUSH1 0xA0 SHL SUB AND PUSH32 0xDDF252AD1BE2C89B69C2B068FC378DAA952BA7F163C4A11628F55A4DF523B3EF DUP4 PUSH1 0x40 MLOAD PUSH2 0x640 SWAP2 DUP2 MSTORE PUSH1 0x20 ADD SWAP1 JUMP JUMPDEST PUSH1 0x40 MLOAD DUP1 SWAP2 SUB SWAP1 LOG3 POP POP POP JUMP JUMPDEST PUSH1 0x0 PUSH1 0x20 DUP1 DUP4 MSTORE DUP4 MLOAD DUP1 DUP3 DUP6 ADD MSTORE PUSH1 0x0 JUMPDEST DUP2 DUP2 LT ISZERO PUSH2 0x67A JUMPI DUP6 DUP2 ADD DUP4 ADD MLOAD DUP6 DUP3 ADD PUSH1 0x40 ADD MSTORE DUP3 ADD PUSH2 0x65E JUMP JUMPDEST POP PUSH1 0x0 PUSH1 0x40 DUP3 DUP7 ADD ADD MSTORE PUSH1 0x40 PUSH1 0x1F NOT PUSH1 0x1F DUP4 ADD AND DUP6 ADD ADD SWAP3 POP POP POP SWAP3 SWAP2 POP POP JUMP JUMPDEST DUP1 CALLDATALOAD PUSH1 0x1 PUSH1 0x1 PUSH1 0xA0 SHL SUB DUP2 AND DUP2 EQ PUSH2 0x6B2 JUMPI PUSH1 0x0 DUP1 REVERT JUMPDEST SWAP2 SWAP1 POP JUMP JUMPDEST PUSH1 0x0 DUP1 PUSH1 0x40 DUP4 DUP6 SUB SLT ISZERO PUSH2 0x6CA JUMPI PUSH1 0x0 DUP1 REVERT JUMPDEST PUSH2 0x6D3 DUP4 PUSH2 0x69B JUMP JUMPDEST SWAP5 PUSH1 0x20 SWAP4 SWAP1 SWAP4 ADD CALLDATALOAD SWAP4 POP POP POP JUMP JUMPDEST PUSH1 0x0 DUP1 PUSH1 0x0 PUSH1 0x60 DUP5 DUP7 SUB SLT ISZERO PUSH2 0x6F6 JUMPI PUSH1 0x0 DUP1 REVERT JUMPDEST PUSH2 0x6FF DUP5 PUSH2 0x69B JUMP JUMPDEST SWAP3 POP PUSH2 0x70D PUSH1 0x20 DUP6 ADD PUSH2 0x69B JUMP JUMPDEST SWAP2 POP PUSH1 0x40 DUP5 ADD CALLDATALOAD SWAP1 POP SWAP3 POP SWAP3 POP SWAP3 JUMP JUMPDEST PUSH1 0x0 PUSH1 0x20 DUP3 DUP5 SUB SLT ISZERO PUSH2 0x72F JUMPI PUSH1 0x0 DUP1 REVERT JUMPDEST PUSH2 0x738 DUP3 PUSH2 0x69B JUMP JUMPDEST SWAP4 SWAP3 POP POP POP JUMP JUMPDEST PUSH1 0x0 DUP1 PUSH1 0x40 DUP4 DUP6 SUB SLT ISZERO PUSH2 0x752 JUMPI PUSH1 0x0 DUP1 REVERT JUMPDEST PUSH2 0x75B DUP4 PUSH2 0x69B JUMP JUMPDEST SWAP2 POP PUSH2 0x769 PUSH1 0x20 DUP5 ADD PUSH2 0x69B JUMP JUMPDEST SWAP1 POP SWAP3 POP SWAP3 SWAP1 POP JUMP JUMPDEST PUSH1 0x1 DUP2 DUP2 SHR SWAP1 DUP3 AND DUP1 PUSH2 0x786 JUMPI PUSH1 0x7F DUP3 AND SWAP2 POP JUMPDEST PUSH1 0x20 DUP3 LT DUP2 SUB PUSH2 0x7A6 JUMPI PUSH4 0x4E487B71 PUSH1 0xE0 SHL PUSH1 0x0 MSTORE PUSH1 0x22 PUSH1 0x4 MSTORE PUSH1 0x24 PUSH1 0x0 REVERT JUMPDEST POP SWAP2 SWAP1 POP JUMP JUMPDEST DUP1 DUP3 ADD DUP1 DUP3 GT ISZERO PUSH2 0x286 JUMPI PUSH4 0x4E487B71 PUSH1 0xE0 SHL PUSH1 0x0 MSTORE PUSH1 0x11 PUSH1 0x4 MSTORE PUSH1 0x24 PUSH1 0x0 REVERT INVALID LOG2 PUSH5 0x6970667358 0x22 SLT KECCAK256 PUSH11 0xF35DC020475ACF0C64EC9F 0xC9 0x5C SGT LOG0 PUSH32 0xB948BB652B0385C0D497282E8DC1A64736F6C63430008140033A26469706673 PC 0x22 SLT KECCAK256 0xA7 KECCAK256 0xE PUSH15 0x34AE0978A0B6A202CB7A852462CF71 0xAC MUL PUSH28 0x4C8FBE867AA98BE7E67B64736F6C6343000814003300000000000000 "},"methodIdentifiers":{"addLiquidity(address,address,uint256,uint256)":"cf6c62ea","pairs(bytes32)":"673e0481","swap(address,address,uint256)":"df791e50"}}}}}