{"contracts/FailingTarget.sol":{"FailingTarget":{"abi":[{"inputs":[],"name":"called","outputs":[{"internalType":"bool","name":"","type":"bool"}],"stateMutability":"view","type":"function"},{"inputs":[],"name":"doSomething","outputs":[],"stateMutability":"payable","type":"function"},{"inputs":[],"name":"willRevert","outputs":[],"stateMutability":"nonpayable","type":"function"}],"evm":{"bytecode":{"linkReferences":{},"object":"608060405234801561001057600080fd5b5060f88061001f6000396000f3fe60806040526004361060305760003560e01c806350f9b6cd14603557806373ee93b314606157806382692679146075575b600080fd5b348015604057600080fd5b50600054604d9060ff1681565b604051901515815260200160405180910390f35b348015606c57600080fd5b5060736086565b005b60736000805460ff19166001179055565b60405162461bcd60e51b815260206004820152600d60248201526c1d185c99d95d081c995d995c9d609a1b604482015260640160405180910390fdfea2646970667358221220e256342ec7872754214e16076fa30b270b080731076d3de91f93cea3ede45af064736f6c63430008140033","opcodes":"PUSH1 0x80 PUSH1 0x40 MSTORE CALLVALUE DUP1 ISZERO PUSH2 0x10 JUMPI PUSH1 0x0 DUP1 REVERT JUMPDEST POP PUSH1 0xF8 DUP1 PUSH2 0x1F PUSH1 0x0 CODECOPY PUSH1 0x0 RETURN INVALID PUSH1 0x80 PUSH1 0x40 MSTORE PUSH1 0x4 CALLDATASIZE LT PUSH1 0x30 JUMPI PUSH1 0x0 CALLDATALOAD PUSH1 0xE0 SHR DUP1 PUSH4 0x50F9B6CD EQ PUSH1 0x35 JUMPI DUP1 PUSH4 0x73EE93B3 EQ PUSH1 0x61 JUMPI DUP1 PUSH4 0x82692679 EQ PUSH1 0x75 JUMPI JUMPDEST PUSH1 0x0 DUP1 REVERT JUMPDEST CALLVALUE DUP1 ISZERO PUSH1 0x40 JUMPI PUSH1 0x0 DUP1 REVERT JUMPDEST POP PUSH1 0x0 SLOAD PUSH1 0x4D SWAP1 PUSH1 0xFF AND DUP2 JUMP JUMPDEST PUSH1 0x40 MLOAD SWAP1 ISZERO ISZERO DUP2 MSTORE PUSH1 0x20 ADD PUSH1 0x40 MLOAD DUP1 SWAP2 SUB SWAP1 RETURN JUMPDEST CALLVALUE DUP1 ISZERO PUSH1 0x6C JUMPI PUSH1 0x0 DUP1 REVERT JUMPDEST POP PUSH1 0x73 PUSH1 0x86 JUMP JUMPDEST STOP JUMPDEST PUSH1 0x73 PUSH1 0x0 DUP1 SLOAD PUSH1 0xFF NOT AND PUSH1 0x1 OR SWAP1 SSTORE JUMP JUMPDEST PUSH1 0x40 MLOAD PUSH3 0x461BCD PUSH1 0xE5 SHL DUP2 MSTORE PUSH1 0x20 PUSH1 0x4 DUP3 ADD MSTORE PUSH1 0xD PUSH1 0x24 DUP3 ADD MSTORE PUSH13 0x1D185C99D95D081C995D995C9D PUSH1 0x9A SHL PUSH1 0x44 DUP3 ADD MSTORE PUSH1 0x64 ADD PUSH1 0x40 MLOAD DUP1 SWAP2 SUB SWAP1 REVERT INVALID LOG2 PUSH5 0x6970667358 0x22 SLT KECCAK256 0xE2 JUMP CALLVALUE 0x2E 0xC7 DUP8 0x27 SLOAD 0x21 0x4E AND SMOD PUSH16 0xA30B270B080731076D3DE91F93CEA3ED 0xE4 GAS CREATE PUSH5 0x736F6C6343 STOP ADDMOD EQ STOP CALLER "},"methodIdentifiers":{"called()":"50f9b6cd","doSomething()":"82692679","willRevert()":"73ee93b3"}}}}}