{
  "_format": "hh-sol-artifact-1",
  "contractName": "FIACoin",
  "sourceName": "contracts/FIACoin.sol",
  "abi": [
    {
      "inputs": [
        {
          "internalType": "address",
          "name": "_treasury",
          "type": "address"
        },
        {
          "internalType": "address",
          "name": "_founder",
          "type": "address"
        }
      ],
      "stateMutability": "nonpayable",
      "type": "constructor"
    },
    {
      "inputs": [
        {
          "internalType": "address",
          "name": "spender",
          "type": "address"
        },
        {
          "internalType": "uint256",
          "name": "allowance",
          "type": "uint256"
        },
        {
          "internalType": "uint256",
          "name": "needed",
          "type": "uint256"
        }
      ],
      "name": "ERC20InsufficientAllowance",
      "type": "error"
    },
    {
      "inputs": [
        {
          "internalType": "address",
          "name": "sender",
          "type": "address"
        },
        {
          "internalType": "uint256",
          "name": "balance",
          "type": "uint256"
        },
        {
          "internalType": "uint256",
          "name": "needed",
          "type": "uint256"
        }
      ],
      "name": "ERC20InsufficientBalance",
      "type": "error"
    },
    {
      "inputs": [
        {
          "internalType": "address",
          "name": "approver",
          "type": "address"
        }
      ],
      "name": "ERC20InvalidApprover",
      "type": "error"
    },
    {
      "inputs": [
        {
          "internalType": "address",
          "name": "receiver",
          "type": "address"
        }
      ],
      "name": "ERC20InvalidReceiver",
      "type": "error"
    },
    {
      "inputs": [
        {
          "internalType": "address",
          "name": "sender",
          "type": "address"
        }
      ],
      "name": "ERC20InvalidSender",
      "type": "error"
    },
    {
      "inputs": [
        {
          "internalType": "address",
          "name": "spender",
          "type": "address"
        }
      ],
      "name": "ERC20InvalidSpender",
      "type": "error"
    },
    {
      "inputs": [
        {
          "internalType": "address",
          "name": "owner",
          "type": "address"
        }
      ],
      "name": "OwnableInvalidOwner",
      "type": "error"
    },
    {
      "inputs": [
        {
          "internalType": "address",
          "name": "account",
          "type": "address"
        }
      ],
      "name": "OwnableUnauthorizedAccount",
      "type": "error"
    },
    {
      "anonymous": false,
      "inputs": [
        {
          "indexed": true,
          "internalType": "address",
          "name": "owner",
          "type": "address"
        },
        {
          "indexed": true,
          "internalType": "address",
          "name": "spender",
          "type": "address"
        },
        {
          "indexed": false,
          "internalType": "uint256",
          "name": "value",
          "type": "uint256"
        }
      ],
      "name": "Approval",
      "type": "event"
    },
    {
      "anonymous": false,
      "inputs": [
        {
          "indexed": false,
          "internalType": "uint256",
          "name": "oldFee",
          "type": "uint256"
        },
        {
          "indexed": false,
          "internalType": "uint256",
          "name": "newFee",
          "type": "uint256"
        }
      ],
      "name": "FeeConfigurationChanged",
      "type": "event"
    },
    {
      "anonymous": false,
      "inputs": [
        {
          "indexed": true,
          "internalType": "address",
          "name": "account",
          "type": "address"
        },
        {
          "indexed": false,
          "internalType": "bool",
          "name": "exempt",
          "type": "bool"
        }
      ],
      "name": "FeeExemptionSet",
      "type": "event"
    },
    {
      "anonymous": false,
      "inputs": [
        {
          "indexed": true,
          "internalType": "address",
          "name": "from",
          "type": "address"
        },
        {
          "indexed": true,
          "internalType": "address",
          "name": "to",
          "type": "address"
        },
        {
          "indexed": false,
          "internalType": "uint256",
          "name": "amount",
          "type": "uint256"
        }
      ],
      "name": "Fingered",
      "type": "event"
    },
    {
      "anonymous": false,
      "inputs": [
        {
          "indexed": true,
          "internalType": "address",
          "name": "previousOwner",
          "type": "address"
        },
        {
          "indexed": true,
          "internalType": "address",
          "name": "newOwner",
          "type": "address"
        }
      ],
      "name": "OwnershipTransferred",
      "type": "event"
    },
    {
      "anonymous": false,
      "inputs": [
        {
          "indexed": true,
          "internalType": "address",
          "name": "from",
          "type": "address"
        },
        {
          "indexed": true,
          "internalType": "address",
          "name": "to",
          "type": "address"
        },
        {
          "indexed": false,
          "internalType": "uint256",
          "name": "value",
          "type": "uint256"
        }
      ],
      "name": "Transfer",
      "type": "event"
    },
    {
      "inputs": [],
      "name": "MAX_TOTAL_FEE_BP",
      "outputs": [
        {
          "internalType": "uint256",
          "name": "",
          "type": "uint256"
        }
      ],
      "stateMutability": "view",
      "type": "function"
    },
    {
      "inputs": [
        {
          "internalType": "address",
          "name": "owner",
          "type": "address"
        },
        {
          "internalType": "address",
          "name": "spender",
          "type": "address"
        }
      ],
      "name": "allowance",
      "outputs": [
        {
          "internalType": "uint256",
          "name": "",
          "type": "uint256"
        }
      ],
      "stateMutability": "view",
      "type": "function"
    },
    {
      "inputs": [
        {
          "internalType": "address",
          "name": "spender",
          "type": "address"
        },
        {
          "internalType": "uint256",
          "name": "value",
          "type": "uint256"
        }
      ],
      "name": "approve",
      "outputs": [
        {
          "internalType": "bool",
          "name": "",
          "type": "bool"
        }
      ],
      "stateMutability": "nonpayable",
      "type": "function"
    },
    {
      "inputs": [
        {
          "internalType": "address",
          "name": "account",
          "type": "address"
        }
      ],
      "name": "balanceOf",
      "outputs": [
        {
          "internalType": "uint256",
          "name": "",
          "type": "uint256"
        }
      ],
      "stateMutability": "view",
      "type": "function"
    },
    {
      "inputs": [
        {
          "internalType": "uint256",
          "name": "amount",
          "type": "uint256"
        }
      ],
      "name": "burn",
      "outputs": [],
      "stateMutability": "nonpayable",
      "type": "function"
    },
    {
      "inputs": [],
      "name": "decimals",
      "outputs": [
        {
          "internalType": "uint8",
          "name": "",
          "type": "uint8"
        }
      ],
      "stateMutability": "view",
      "type": "function"
    },
    {
      "inputs": [],
      "name": "feeToBurnBP",
      "outputs": [
        {
          "internalType": "uint256",
          "name": "",
          "type": "uint256"
        }
      ],
      "stateMutability": "view",
      "type": "function"
    },
    {
      "inputs": [],
      "name": "feeToFounderBP",
      "outputs": [
        {
          "internalType": "uint256",
          "name": "",
          "type": "uint256"
        }
      ],
      "stateMutability": "view",
      "type": "function"
    },
    {
      "inputs": [],
      "name": "feeToTreasuryBP",
      "outputs": [
        {
          "internalType": "uint256",
          "name": "",
          "type": "uint256"
        }
      ],
      "stateMutability": "view",
      "type": "function"
    },
    {
      "inputs": [],
      "name": "founderWallet",
      "outputs": [
        {
          "internalType": "address",
          "name": "",
          "type": "address"
        }
      ],
      "stateMutability": "view",
      "type": "function"
    },
    {
      "inputs": [
        {
          "internalType": "address",
          "name": "",
          "type": "address"
        }
      ],
      "name": "isFeeExempt",
      "outputs": [
        {
          "internalType": "bool",
          "name": "",
          "type": "bool"
        }
      ],
      "stateMutability": "view",
      "type": "function"
    },
    {
      "inputs": [],
      "name": "name",
      "outputs": [
        {
          "internalType": "string",
          "name": "",
          "type": "string"
        }
      ],
      "stateMutability": "view",
      "type": "function"
    },
    {
      "inputs": [],
      "name": "owner",
      "outputs": [
        {
          "internalType": "address",
          "name": "",
          "type": "address"
        }
      ],
      "stateMutability": "view",
      "type": "function"
    },
    {
      "inputs": [],
      "name": "renounceOwnership",
      "outputs": [],
      "stateMutability": "nonpayable",
      "type": "function"
    },
    {
      "inputs": [
        {
          "internalType": "address",
          "name": "account",
          "type": "address"
        },
        {
          "internalType": "bool",
          "name": "exempt",
          "type": "bool"
        }
      ],
      "name": "setFeeExempt",
      "outputs": [],
      "stateMutability": "nonpayable",
      "type": "function"
    },
    {
      "inputs": [
        {
          "internalType": "uint256",
          "name": "_totalFeeBP",
          "type": "uint256"
        }
      ],
      "name": "setTotalFeeBP",
      "outputs": [],
      "stateMutability": "nonpayable",
      "type": "function"
    },
    {
      "inputs": [],
      "name": "symbol",
      "outputs": [
        {
          "internalType": "string",
          "name": "",
          "type": "string"
        }
      ],
      "stateMutability": "view",
      "type": "function"
    },
    {
      "inputs": [],
      "name": "totalFeeBP",
      "outputs": [
        {
          "internalType": "uint256",
          "name": "",
          "type": "uint256"
        }
      ],
      "stateMutability": "view",
      "type": "function"
    },
    {
      "inputs": [],
      "name": "totalSupply",
      "outputs": [
        {
          "internalType": "uint256",
          "name": "",
          "type": "uint256"
        }
      ],
      "stateMutability": "view",
      "type": "function"
    },
    {
      "inputs": [
        {
          "internalType": "address",
          "name": "to",
          "type": "address"
        },
        {
          "internalType": "uint256",
          "name": "value",
          "type": "uint256"
        }
      ],
      "name": "transfer",
      "outputs": [
        {
          "internalType": "bool",
          "name": "",
          "type": "bool"
        }
      ],
      "stateMutability": "nonpayable",
      "type": "function"
    },
    {
      "inputs": [
        {
          "internalType": "address",
          "name": "from",
          "type": "address"
        },
        {
          "internalType": "address",
          "name": "to",
          "type": "address"
        },
        {
          "internalType": "uint256",
          "name": "value",
          "type": "uint256"
        }
      ],
      "name": "transferFrom",
      "outputs": [
        {
          "internalType": "bool",
          "name": "",
          "type": "bool"
        }
      ],
      "stateMutability": "nonpayable",
      "type": "function"
    },
    {
      "inputs": [
        {
          "internalType": "address",
          "name": "newOwner",
          "type": "address"
        }
      ],
      "name": "transferOwnership",
      "outputs": [],
      "stateMutability": "nonpayable",
      "type": "function"
    },
    {
      "inputs": [],
      "name": "treasury",
      "outputs": [
        {
          "internalType": "address",
          "name": "",
          "type": "address"
        }
      ],
      "stateMutability": "view",
      "type": "function"
    }
  ],
  "bytecode": "0x6080604052606460065560326007556014600855601e6009553480156200002557600080fd5b506040516200179c3803806200179c833981016040819052620000489162000633565b336040518060400160405280600a815260200169466961436f696e20763360b01b8152506040518060400160405280600381526020016246494160e81b81525081600390816200009991906200070f565b506004620000a882826200070f565b5050506001600160a01b038116620000db57604051631e4fbdf760e01b8152600060048201526024015b60405180910390fd5b620000e681620001f2565b506001600160a01b038216158015906200010857506001600160a01b03811615155b620001425760405162461bcd60e51b81526020600482015260096024820152683d32b9379030b2323960b91b6044820152606401620000d2565b600a80546001600160a01b038085166001600160a01b031992831617909255600b805492841692909116919091179055620001a33362000180601290565b6200018d90600a620008f0565b6200019d90633b9aca0062000908565b62000244565b336000908152600c60205260408082208054600160ff1991821681179092556001600160a01b039586168452828420805482168317905593909416825290208054909116909117905562000971565b600580546001600160a01b038381166001600160a01b0319831681179093556040519116919082907f8be0079c531659141344cd1fd0a4f28419497f9722a3daafe3b4186f6b6457e090600090a35050565b6001600160a01b038216620002705760405163ec442f0560e01b815260006004820152602401620000d2565b6200027e6000838362000282565b5050565b6001600160a01b0383161580620002a057506001600160a01b038216155b80620002ac5750600654155b80620002d057506001600160a01b0383166000908152600c602052604090205460ff165b80620002f457506001600160a01b0382166000908152600c602052604090205460ff165b15620003715762000307838383620004b6565b6001600160a01b038316158015906200032857506001600160a01b03821615155b156200036c57816001600160a01b0316836001600160a01b03166000805160206200177c833981519152836040516200036391815260200190565b60405180910390a35b505050565b60006127106006548362000386919062000908565b62000392919062000922565b9050600060065460075483620003a9919062000908565b620003b5919062000922565b9050600060065460085484620003cc919062000908565b620003d8919062000922565b9050600060065460095485620003ef919062000908565b620003fb919062000922565b905060006200040b858762000945565b90506200041a888883620004b6565b83156200043b57600a546200043b9089906001600160a01b031686620004b6565b82156200045c57600b546200045c9089906001600160a01b031685620004b6565b81156200046f576200046f8883620005dc565b866001600160a01b0316886001600160a01b03166000805160206200177c83398151915288604051620004a491815260200190565b60405180910390a35050505050505050565b6001600160a01b038316620004e5578060026000828254620004d991906200095b565b90915550620005599050565b6001600160a01b038316600090815260208190526040902054818110156200053a5760405163391434e360e21b81526001600160a01b03851660048201526024810182905260448101839052606401620000d2565b6001600160a01b03841660009081526020819052604090209082900390555b6001600160a01b038216620005775760028054829003905562000596565b6001600160a01b03821660009081526020819052604090208054820190555b816001600160a01b0316836001600160a01b03167fddf252ad1be2c89b69c2b068fc378daa952ba7f163c4a11628f55a4df523b3ef836040516200036391815260200190565b6001600160a01b0382166200060857604051634b637e8f60e11b815260006004820152602401620000d2565b6200027e8260008362000282565b80516001600160a01b03811681146200062e57600080fd5b919050565b600080604083850312156200064757600080fd5b620006528362000616565b9150620006626020840162000616565b90509250929050565b634e487b7160e01b600052604160045260246000fd5b600181811c908216806200069657607f821691505b602082108103620006b757634e487b7160e01b600052602260045260246000fd5b50919050565b601f8211156200036c57600081815260208120601f850160051c81016020861015620006e65750805b601f850160051c820191505b818110156200070757828155600101620006f2565b505050505050565b81516001600160401b038111156200072b576200072b6200066b565b62000743816200073c845462000681565b84620006bd565b602080601f8311600181146200077b5760008415620007625750858301515b600019600386901b1c1916600185901b17855562000707565b600085815260208120601f198616915b82811015620007ac578886015182559484019460019091019084016200078b565b5085821015620007cb5787850151600019600388901b60f8161c191681555b5050505050600190811b01905550565b634e487b7160e01b600052601160045260246000fd5b600181815b8085111562000832578160001904821115620008165762000816620007db565b808516156200082457918102915b93841c9390800290620007f6565b509250929050565b6000826200084b57506001620008ea565b816200085a57506000620008ea565b81600181146200087357600281146200087e576200089e565b6001915050620008ea565b60ff841115620008925762000892620007db565b50506001821b620008ea565b5060208310610133831016604e8410600b8410161715620008c3575081810a620008ea565b620008cf8383620007f1565b8060001904821115620008e657620008e6620007db565b0290505b92915050565b60006200090160ff8416836200083a565b9392505050565b8082028115828204841417620008ea57620008ea620007db565b6000826200094057634e487b7160e01b600052601260045260246000fd5b500490565b81810381811115620008ea57620008ea620007db565b80820180821115620008ea57620008ea620007db565b610dfb80620009816000396000f3fe608060405234801561001057600080fd5b506004361061014d5760003560e01c806361d027b3116100c357806395d89b411161007c57806395d89b41146102b9578063a23d3c35146102c1578063a9059cbb146102d4578063dd62ed3e146102e7578063f2fde38b14610320578063f61413451461033357600080fd5b806361d027b31461023157806370a082311461025c578063715018a6146102855780637c4ccbea1461028d5780638da5cb5b146102955780638ebfc796146102a657600080fd5b80631f1f5bb3116101155780631f1f5bb3146101bb57806323b872dd146101d0578063313ce567146101e35780633f4218e0146101f257806342966c681461021557806355ef9b5e1461022857600080fd5b806306fdde0314610152578063095ea7b314610170578063118725ce14610193578063120a8151146101aa57806318160ddd146101b3575b600080fd5b61015a61033c565b6040516101679190610b9c565b60405180910390f35b61018361017e366004610c06565b6103ce565b6040519015158152602001610167565b61019c60085481565b604051908152602001610167565b61019c60095481565b60025461019c565b6101ce6101c9366004610c30565b6103e8565b005b6101836101de366004610c49565b61047a565b60405160128152602001610167565b610183610200366004610c85565b600c6020526000908152604090205460ff1681565b6101ce610223366004610c30565b61049e565b61019c60075481565b600a54610244906001600160a01b031681565b6040516001600160a01b039091168152602001610167565b61019c61026a366004610c85565b6001600160a01b031660009081526020819052604090205490565b6101ce6104ab565b61019c60c881565b6005546001600160a01b0316610244565b6101ce6102b4366004610ca7565b6104bf565b61015a61057c565b600b54610244906001600160a01b031681565b6101836102e2366004610c06565b61058b565b61019c6102f5366004610ce3565b6001600160a01b03918216600090815260016020908152604080832093909416825291909152205490565b6101ce61032e366004610c85565b610599565b61019c60065481565b60606003805461034b90610d16565b80601f016020809104026020016040519081016040528092919081815260200182805461037790610d16565b80156103c45780601f10610399576101008083540402835291602001916103c4565b820191906000526020600020905b8154815290600101906020018083116103a757829003601f168201915b5050505050905090565b6000336103dc8185856105d4565b60019150505b92915050565b6103f06105e6565b60c88111156104355760405162461bcd60e51b815260206004820152600c60248201526b08ccaca40e8dede40d0d2ced60a31b60448201526064015b60405180910390fd5b600680549082905560408051828152602081018490527fcf4c3ba0667a6e28c2746a4ee8d23efa18b2ca17591c2a22c36773a0232661d8910160405180910390a15050565b600033610488858285610613565b610493858585610692565b506001949350505050565b6104a833826106f1565b50565b6104b36105e6565b6104bd600061072b565b565b6104c76105e6565b6001600160a01b03821661051d5760405162461bcd60e51b815260206004820152601a60248201527f43616e6e6f74206578656d7074207a65726f2061646472657373000000000000604482015260640161042c565b6001600160a01b0382166000818152600c6020908152604091829020805460ff191685151590811790915591519182527f210f2a4a589e25d95b24cbdb060d26ae79bbe123a564d0f973503d48badd00ca910160405180910390a25050565b60606004805461034b90610d16565b6000336103dc818585610692565b6105a16105e6565b6001600160a01b0381166105cb57604051631e4fbdf760e01b81526000600482015260240161042c565b6104a88161072b565b6105e1838383600161077d565b505050565b6005546001600160a01b031633146104bd5760405163118cdaa760e01b815233600482015260240161042c565b6001600160a01b0383811660009081526001602090815260408083209386168352929052205460001981101561068c578181101561067d57604051637dc7a0d960e11b81526001600160a01b0384166004820152602481018290526044810183905260640161042c565b61068c8484848403600061077d565b50505050565b6001600160a01b0383166106bc57604051634b637e8f60e11b81526000600482015260240161042c565b6001600160a01b0382166106e65760405163ec442f0560e01b81526000600482015260240161042c565b6105e1838383610852565b6001600160a01b03821661071b57604051634b637e8f60e11b81526000600482015260240161042c565b61072782600083610852565b5050565b600580546001600160a01b038381166001600160a01b0319831681179093556040519116919082907f8be0079c531659141344cd1fd0a4f28419497f9722a3daafe3b4186f6b6457e090600090a35050565b6001600160a01b0384166107a75760405163e602df0560e01b81526000600482015260240161042c565b6001600160a01b0383166107d157604051634a1406b160e11b81526000600482015260240161042c565b6001600160a01b038085166000908152600160209081526040808320938716835292905220829055801561068c57826001600160a01b0316846001600160a01b03167f8c5be1e5ebec7d5bd14f71427d1e84f3dd0314c0f7b2291e5b200ac8c7c3b9258460405161084491815260200190565b60405180910390a350505050565b6001600160a01b038316158061086f57506001600160a01b038216155b8061087a5750600654155b8061089d57506001600160a01b0383166000908152600c602052604090205460ff165b806108c057506001600160a01b0382166000908152600c602052604090205460ff165b15610947576108d0838383610a7f565b6001600160a01b038316158015906108f057506001600160a01b03821615155b156105e157816001600160a01b0316836001600160a01b03167f59abb1a21ac9c02d9c217285768a906af17496e4cada7962f129b92f0ac948cf8360405161093a91815260200190565b60405180910390a3505050565b60006127106006548361095a9190610d66565b6109649190610d7d565b90506000600654600754836109799190610d66565b6109839190610d7d565b90506000600654600854846109989190610d66565b6109a29190610d7d565b90506000600654600954856109b79190610d66565b6109c19190610d7d565b905060006109cf8587610d9f565b90506109dc888883610a7f565b83156109fa57600a546109fa9089906001600160a01b031686610a7f565b8215610a1857600b54610a189089906001600160a01b031685610a7f565b8115610a2857610a2888836106f1565b866001600160a01b0316886001600160a01b03167f59abb1a21ac9c02d9c217285768a906af17496e4cada7962f129b92f0ac948cf88604051610a6d91815260200190565b60405180910390a35050505050505050565b6001600160a01b038316610aaa578060026000828254610a9f9190610db2565b90915550610b1c9050565b6001600160a01b03831660009081526020819052604090205481811015610afd5760405163391434e360e21b81526001600160a01b0385166004820152602481018290526044810183905260640161042c565b6001600160a01b03841660009081526020819052604090209082900390555b6001600160a01b038216610b3857600280548290039055610b57565b6001600160a01b03821660009081526020819052604090208054820190555b816001600160a01b0316836001600160a01b03167fddf252ad1be2c89b69c2b068fc378daa952ba7f163c4a11628f55a4df523b3ef8360405161093a91815260200190565b600060208083528351808285015260005b81811015610bc957858101830151858201604001528201610bad565b506000604082860101526040601f19601f8301168501019250505092915050565b80356001600160a01b0381168114610c0157600080fd5b919050565b60008060408385031215610c1957600080fd5b610c2283610bea565b946020939093013593505050565b600060208284031215610c4257600080fd5b5035919050565b600080600060608486031215610c5e57600080fd5b610c6784610bea565b9250610c7560208501610bea565b9150604084013590509250925092565b600060208284031215610c9757600080fd5b610ca082610bea565b9392505050565b60008060408385031215610cba57600080fd5b610cc383610bea565b915060208301358015158114610cd857600080fd5b809150509250929050565b60008060408385031215610cf657600080fd5b610cff83610bea565b9150610d0d60208401610bea565b90509250929050565b600181811c90821680610d2a57607f821691505b602082108103610d4a57634e487b7160e01b600052602260045260246000fd5b50919050565b634e487b7160e01b600052601160045260246000fd5b80820281158282048414176103e2576103e2610d50565b600082610d9a57634e487b7160e01b600052601260045260246000fd5b500490565b818103818111156103e2576103e2610d50565b808201808211156103e2576103e2610d5056fea2646970667358221220774f8b940d09d2e8e4ca0dbda48b5db37b4b0f2050c00a7425be838457da2e1964736f6c6343000814003359abb1a21ac9c02d9c217285768a906af17496e4cada7962f129b92f0ac948cf",
  "linkReferences": {},
  "deployedLinkReferences": {}
}