{
  "_format": "hh-sol-artifact-1",
  "contractName": "FailingTarget",
  "sourceName": "contracts/FailingTarget.sol",
  "abi": [
    {
      "inputs": [],
      "name": "called",
      "outputs": [
        {
          "internalType": "bool",
          "name": "",
          "type": "bool"
        }
      ],
      "stateMutability": "view",
      "type": "function"
    },
    {
      "inputs": [],
      "name": "doSomething",
      "outputs": [],
      "stateMutability": "payable",
      "type": "function"
    },
    {
      "inputs": [],
      "name": "willRevert",
      "outputs": [],
      "stateMutability": "nonpayable",
      "type": "function"
    }
  ],
  "bytecode": "0x608060405234801561001057600080fd5b5060f88061001f6000396000f3fe60806040526004361060305760003560e01c806350f9b6cd14603557806373ee93b314606157806382692679146075575b600080fd5b348015604057600080fd5b50600054604d9060ff1681565b604051901515815260200160405180910390f35b348015606c57600080fd5b5060736086565b005b60736000805460ff19166001179055565b60405162461bcd60e51b815260206004820152600d60248201526c1d185c99d95d081c995d995c9d609a1b604482015260640160405180910390fdfea2646970667358221220e256342ec7872754214e16076fa30b270b080731076d3de91f93cea3ede45af064736f6c63430008140033",
  "linkReferences": {},
  "deployedLinkReferences": {}
}