{
  "_format": "hh-sol-artifact-1",
  "contractName": "MockDEX",
  "sourceName": "contracts/MockDEX.sol",
  "abi": [
    {
      "anonymous": false,
      "inputs": [
        {
          "indexed": true,
          "internalType": "address",
          "name": "provider",
          "type": "address"
        },
        {
          "indexed": false,
          "internalType": "address",
          "name": "tokenA",
          "type": "address"
        },
        {
          "indexed": false,
          "internalType": "address",
          "name": "tokenB",
          "type": "address"
        },
        {
          "indexed": false,
          "internalType": "uint256",
          "name": "amountA",
          "type": "uint256"
        },
        {
          "indexed": false,
          "internalType": "uint256",
          "name": "amountB",
          "type": "uint256"
        },
        {
          "indexed": false,
          "internalType": "address",
          "name": "lp",
          "type": "address"
        }
      ],
      "name": "LiquidityAdded",
      "type": "event"
    },
    {
      "anonymous": false,
      "inputs": [
        {
          "indexed": true,
          "internalType": "address",
          "name": "provider",
          "type": "address"
        },
        {
          "indexed": false,
          "internalType": "address",
          "name": "tokenA",
          "type": "address"
        },
        {
          "indexed": false,
          "internalType": "address",
          "name": "tokenB",
          "type": "address"
        },
        {
          "indexed": false,
          "internalType": "uint256",
          "name": "amountA",
          "type": "uint256"
        },
        {
          "indexed": false,
          "internalType": "uint256",
          "name": "amountB",
          "type": "uint256"
        },
        {
          "indexed": false,
          "internalType": "address",
          "name": "lp",
          "type": "address"
        }
      ],
      "name": "LiquidityRemoved",
      "type": "event"
    },
    {
      "anonymous": false,
      "inputs": [
        {
          "indexed": true,
          "internalType": "address",
          "name": "user",
          "type": "address"
        },
        {
          "indexed": false,
          "internalType": "address",
          "name": "fromToken",
          "type": "address"
        },
        {
          "indexed": false,
          "internalType": "address",
          "name": "toToken",
          "type": "address"
        },
        {
          "indexed": false,
          "internalType": "uint256",
          "name": "amountIn",
          "type": "uint256"
        },
        {
          "indexed": false,
          "internalType": "uint256",
          "name": "amountOut",
          "type": "uint256"
        }
      ],
      "name": "Swapped",
      "type": "event"
    },
    {
      "inputs": [
        {
          "internalType": "address",
          "name": "tokenA",
          "type": "address"
        },
        {
          "internalType": "address",
          "name": "tokenB",
          "type": "address"
        },
        {
          "internalType": "uint256",
          "name": "amountA",
          "type": "uint256"
        },
        {
          "internalType": "uint256",
          "name": "amountB",
          "type": "uint256"
        }
      ],
      "name": "addLiquidity",
      "outputs": [
        {
          "internalType": "address",
          "name": "",
          "type": "address"
        }
      ],
      "stateMutability": "nonpayable",
      "type": "function"
    },
    {
      "inputs": [
        {
          "internalType": "bytes32",
          "name": "",
          "type": "bytes32"
        },
        {
          "internalType": "address",
          "name": "",
          "type": "address"
        }
      ],
      "name": "lpHolderBalance",
      "outputs": [
        {
          "internalType": "uint256",
          "name": "",
          "type": "uint256"
        }
      ],
      "stateMutability": "view",
      "type": "function"
    },
    {
      "inputs": [
        {
          "internalType": "address",
          "name": "",
          "type": "address"
        }
      ],
      "name": "lpToPair",
      "outputs": [
        {
          "internalType": "bytes32",
          "name": "",
          "type": "bytes32"
        }
      ],
      "stateMutability": "view",
      "type": "function"
    },
    {
      "inputs": [
        {
          "internalType": "address",
          "name": "lpAddr",
          "type": "address"
        },
        {
          "internalType": "address",
          "name": "from",
          "type": "address"
        },
        {
          "internalType": "address",
          "name": "to",
          "type": "address"
        },
        {
          "internalType": "uint256",
          "name": "",
          "type": "uint256"
        }
      ],
      "name": "onLPTransfer",
      "outputs": [],
      "stateMutability": "nonpayable",
      "type": "function"
    },
    {
      "inputs": [
        {
          "internalType": "bytes32",
          "name": "",
          "type": "bytes32"
        }
      ],
      "name": "pairs",
      "outputs": [
        {
          "internalType": "address",
          "name": "token0",
          "type": "address"
        },
        {
          "internalType": "address",
          "name": "token1",
          "type": "address"
        },
        {
          "internalType": "address",
          "name": "lp",
          "type": "address"
        },
        {
          "internalType": "uint256",
          "name": "reserve0",
          "type": "uint256"
        },
        {
          "internalType": "uint256",
          "name": "reserve1",
          "type": "uint256"
        }
      ],
      "stateMutability": "view",
      "type": "function"
    },
    {
      "inputs": [
        {
          "internalType": "address",
          "name": "tokenA",
          "type": "address"
        },
        {
          "internalType": "address",
          "name": "tokenB",
          "type": "address"
        },
        {
          "internalType": "uint256",
          "name": "lpAmount",
          "type": "uint256"
        }
      ],
      "name": "removeLiquidity",
      "outputs": [
        {
          "internalType": "uint256",
          "name": "amountA",
          "type": "uint256"
        },
        {
          "internalType": "uint256",
          "name": "amountB",
          "type": "uint256"
        }
      ],
      "stateMutability": "nonpayable",
      "type": "function"
    },
    {
      "inputs": [
        {
          "internalType": "address",
          "name": "fromToken",
          "type": "address"
        },
        {
          "internalType": "address",
          "name": "toToken",
          "type": "address"
        },
        {
          "internalType": "uint256",
          "name": "amountIn",
          "type": "uint256"
        }
      ],
      "name": "swap",
      "outputs": [
        {
          "internalType": "uint256",
          "name": "",
          "type": "uint256"
        }
      ],
      "stateMutability": "nonpayable",
      "type": "function"
    }
  ],
  "bytecode": "0x608060405234801561001057600080fd5b506155c3806100206000396000f3fe60806040523480156200001157600080fd5b5060043610620000885760003560e01c8063cf6c62ea1162000063578063cf6c62ea146200011d578063d752fab21462000153578063df791e50146200018a578063ffacfb2e14620001c05762000088565b80631acf5960146200008d578063673e048114620000ad5780637344407714620000e7575b600080fd5b620000ab6004803603810190620000a5919062003154565b620001f6565b005b620000cb6004803603810190620000c5919062003201565b6200061d565b604051620000de95949392919062003255565b60405180910390f35b620001056004803603810190620000ff9190620032b2565b620006b3565b604051620001149190620032f5565b60405180910390f35b6200013b600480360381019062000135919062003312565b620006cb565b6040516200014a919062003384565b60405180910390f35b6200017160048036038101906200016b9190620033a1565b62001888565b60405162000181929190620033fd565b60405180910390f35b620001a86004803603810190620001a29190620033a1565b620024d5565b604051620001b791906200342a565b60405180910390f35b620001de6004803603810190620001d8919062003447565b62002d14565b604051620001ed91906200342a565b60405180910390f35b6200020c678723591bdd35fc3f60c01b62002d39565b62000222671f0f0c6de067c65360c01b62002d39565b6200023867d3518c552b9f5f8760c01b62002d39565b6000600160008673ffffffffffffffffffffffffffffffffffffffff1673ffffffffffffffffffffffffffffffffffffffff168152602001908152602001600020549050620002926766716aa3f7142c5960c01b62002d39565b620002a867cdb4a77b8cf753e260c01b62002d39565b620002be67d8e2765ef242c95260c01b62002d39565b6000801b810362000306576040517f08c379a0000000000000000000000000000000000000000000000000000000008152600401620002fd90620034ef565b60405180910390fd5b6200031c678e4d89a4171f354760c01b62002d39565b62000332672e46aa016904865260c01b62002d39565b6200034867ed0a0ac68fde718d60c01b62002d39565b600073ffffffffffffffffffffffffffffffffffffffff168473ffffffffffffffffffffffffffffffffffffffff16146200048257620003936760b74cbf53a138fc60c01b62002d39565b620003a967b723bcf42d05924660c01b62002d39565b8473ffffffffffffffffffffffffffffffffffffffff166370a08231856040518263ffffffff1660e01b8152600401620003e4919062003384565b602060405180830381865afa15801562000402573d6000803e3d6000fd5b505050506040513d601f19601f8201168201806040525081019062000428919062003528565b6002600083815260200190815260200160002060008673ffffffffffffffffffffffffffffffffffffffff1673ffffffffffffffffffffffffffffffffffffffff1681526020019081526020016000208190555062000499565b62000498679086f7096e53af4860c01b62002d39565b5b620004af6719ba2889f240b2a460c01b62002d39565b620004c567e53bd7b948ae5e3960c01b62002d39565b600073ffffffffffffffffffffffffffffffffffffffff168373ffffffffffffffffffffffffffffffffffffffff1614620005ff57620005106779da88122f3ddae360c01b62002d39565b620005266740c8f1bd4b29b70e60c01b62002d39565b8473ffffffffffffffffffffffffffffffffffffffff166370a08231846040518263ffffffff1660e01b815260040162000561919062003384565b602060405180830381865afa1580156200057f573d6000803e3d6000fd5b505050506040513d601f19601f82011682018060405250810190620005a5919062003528565b6002600083815260200190815260200160002060008573ffffffffffffffffffffffffffffffffffffffff1673ffffffffffffffffffffffffffffffffffffffff1681526020019081526020016000208190555062000616565b62000615675e60b419173017cd60c01b62002d39565b5b5050505050565b60006020528060005260406000206000915090508060000160009054906101000a900473ffffffffffffffffffffffffffffffffffffffff16908060010160009054906101000a900473ffffffffffffffffffffffffffffffffffffffff16908060020160009054906101000a900473ffffffffffffffffffffffffffffffffffffffff16908060030154908060040154905085565b60016020528060005260406000206000915090505481565b6000620006e367c2ca8255cb2b0dca60c01b62002d39565b620006f967663944703713881460c01b62002d39565b6200070f6732042699a6139a7560c01b62002d39565b62000725679087b6b852aa945e60c01b62002d39565b600083118015620007365750600082115b62000778576040517f08c379a00000000000000000000000000000000000000000000000000000000081526004016200076f90620035aa565b60405180910390fd5b6200078e6760fc5a208a5f2d8d60c01b62002d39565b620007a467fe9c2437a730723860c01b62002d39565b620007ba67b473c5c4beb4e23d60c01b62002d39565b8473ffffffffffffffffffffffffffffffffffffffff166323b872dd3330866040518463ffffffff1660e01b8152600401620007f993929190620035cc565b6020604051808303816000875af115801562000819573d6000803e3d6000fd5b505050506040513d601f19601f820116820180604052508101906200083f919062003646565b5062000856672df75753f02c676c60c01b62002d39565b6200086c676600ab570827328260c01b62002d39565b8373ffffffffffffffffffffffffffffffffffffffff166323b872dd3330856040518463ffffffff1660e01b8152600401620008ab93929190620035cc565b6020604051808303816000875af1158015620008cb573d6000803e3d6000fd5b505050506040513d601f19601f82011682018060405250810190620008f1919062003646565b506200090867081b674619645c7560c01b62002d39565b6200091e67a675fade06eb7a1560c01b62002d39565b60006200092c868662002d3c565b905062000944677ec087a2c187a2f260c01b62002d39565b6200095a67ea34535097c994bf60c01b62002d39565b600080600083815260200190815260200160002090506200098667310707b4c50ea43360c01b62002d39565b6200099c67b238d0911d776ec460c01b62002d39565b6000879050620009b76765798597d62dc58760c01b62002d39565b620009cd678c805bf98e74fd6160c01b62002d39565b6000879050620009e867ab6aab33088b959660c01b62002d39565b620009fe67fc3bfd8af1f86d0560c01b62002d39565b600087905062000a196757f46fd0d90a6fac60c01b62002d39565b62000a2f67605e8f8b4858a2bf60c01b62002d39565b600087905062000a4a67e0903779cc1e6dc360c01b62002d39565b62000a6067d42eebd38316a14d60c01b62002d39565b8373ffffffffffffffffffffffffffffffffffffffff168373ffffffffffffffffffffffffffffffffffffffff16101562000b155762000aab67e666f8bcd4063b7d60c01b62002d39565b62000ac167f3050fc4a0d7dee960c01b62002d39565b89935062000ada67d3c935c2dfc0df6660c01b62002d39565b8a925062000af367a2b30fe9b81718c560c01b62002d39565b87915062000b0c6785f28b48a7300c6a60c01b62002d39565b88905062000b2c565b62000b2b670be5c9d5cc65b9b860c01b62002d39565b5b62000b42677e31de0ee1983b3060c01b62002d39565b62000b5867ef620ac659494fe060c01b62002d39565b600073ffffffffffffffffffffffffffffffffffffffff168560020160009054906101000a900473ffffffffffffffffffffffffffffffffffffffff1673ffffffffffffffffffffffffffffffffffffffff1603620010e45762000bc767546d3e912d74c0b960c01b62002d39565b62000bdd673fffa6c1a817c44c60c01b62002d39565b62000bf3670b7ee74dd0a9772d60c01b62002d39565b60006040518060400160405280600781526020017f4d6f636b204c5000000000000000000000000000000000000000000000000000815250905062000c4367753ed07543b1d8b260c01b62002d39565b62000c59677fc2c7d4d491633060c01b62002d39565b60006040518060400160405280600381526020017f4d4c500000000000000000000000000000000000000000000000000000000000815250905062000ca967989b107aa2080aa460c01b62002d39565b62000cbf6745cd6e4ed03a808e60c01b62002d39565b6000828260405162000cd190620030a1565b62000cde92919062003701565b604051809103906000f08015801562000cfb573d6000803e3d6000fd5b50905062000d1467308791ab1d5fa22460c01b62002d39565b808860020160006101000a81548173ffffffffffffffffffffffffffffffffffffffff021916908373ffffffffffffffffffffffffffffffffffffffff16021790555062000d6d67894bd36ff5458dc960c01b62002d39565b88600160008a60020160009054906101000a900473ffffffffffffffffffffffffffffffffffffffff1673ffffffffffffffffffffffffffffffffffffffff1673ffffffffffffffffffffffffffffffffffffffff1681526020019081526020016000208190555062000deb67361935df731ddb0860c01b62002d39565b868860000160006101000a81548173ffffffffffffffffffffffffffffffffffffffff021916908373ffffffffffffffffffffffffffffffffffffffff16021790555062000e4467085a34b87eb5cff160c01b62002d39565b858860010160006101000a81548173ffffffffffffffffffffffffffffffffffffffff021916908373ffffffffffffffffffffffffffffffffffffffff16021790555062000e9c6648fe0ef59c9d9d60c01b62002d39565b84886003018190555062000ebb67448d023df39f4b0660c01b62002d39565b83886004018190555062000eda676d02fba7deaf5b2760c01b62002d39565b62000ef067ac2e341c800d6ffa60c01b62002d39565b600062000f0a858762000f0491906200376b565b62002ea0565b905062000f22673a54c8ff9b72860160c01b62002d39565b62000f3867a060d69d8b75e4ad60c01b62002d39565b8860020160009054906101000a900473ffffffffffffffffffffffffffffffffffffffff1673ffffffffffffffffffffffffffffffffffffffff166340c10f1933836040518363ffffffff1660e01b815260040162000f99929190620037b6565b600060405180830381600087803b15801562000fb457600080fd5b505af115801562000fc9573d6000803e3d6000fd5b5050505062000fe36757a5460faebcb84160c01b62002d39565b8860020160009054906101000a900473ffffffffffffffffffffffffffffffffffffffff1673ffffffffffffffffffffffffffffffffffffffff166370a08231336040518263ffffffff1660e01b815260040162001042919062003384565b602060405180830381865afa15801562001060573d6000803e3d6000fd5b505050506040513d601f19601f8201168201806040525081019062001086919062003528565b600260008c815260200190815260200160002060003373ffffffffffffffffffffffffffffffffffffffff1673ffffffffffffffffffffffffffffffffffffffff16815260200190815260200160002081905550505050506200177f565b620010fa67b004a25b98c0a22e60c01b62002d39565b62001110678c1cf7d56889274a60c01b62002d39565b62001126676a8d61ab9c32312760c01b62002d39565b60008560020160009054906101000a900473ffffffffffffffffffffffffffffffffffffffff1673ffffffffffffffffffffffffffffffffffffffff166318160ddd6040518163ffffffff1660e01b8152600401602060405180830381865afa15801562001198573d6000803e3d6000fd5b505050506040513d601f19601f82011682018060405250810190620011be919062003528565b9050620011d667d4495a9284430bb460c01b62002d39565b620011ec6792aaf48dea216bf660c01b62002d39565b6000839050620012076730481cf9554c3ee760c01b62002d39565b6200121d676456126c10c36ec460c01b62002d39565b600083905062001238678d7f8c1974ea111860c01b62002d39565b6200124e67ac38e3365dbf423e60c01b62002d39565b8673ffffffffffffffffffffffffffffffffffffffff168860000160009054906101000a900473ffffffffffffffffffffffffffffffffffffffff1673ffffffffffffffffffffffffffffffffffffffff1614620012f457620012bc6717d74a0c83043c7460c01b62002d39565b620012d2673618bf53b6f4eb6160c01b62002d39565b839150620012eb67826273b17c4652d260c01b62002d39565b8490506200130b565b6200130a674b9334902f30a13a60c01b62002d39565b5b620013216727826621c4b83e8860c01b62002d39565b6200133767c2670cc7ed22bf1560c01b62002d39565b6000886003015484846200134c91906200376b565b62001358919062003812565b9050620013706761cce32f608b1a5760c01b62002d39565b6200138667303ee0758b8a22af60c01b62002d39565b6000896004015485846200139b91906200376b565b620013a7919062003812565b9050620013bf673b4e835e52c31edc60c01b62002d39565b620013d567823e3e0f5bf5eec460c01b62002d39565b600081831080620013f85750620013f76734fe80e205b9790560c01b6200308f565b5b801562001417575062001416677dd3d882c0d56bc060c01b62003096565b5b62001423578162001425565b825b90506200143d67aac1b86740f5846660c01b62002d39565b6200145367a8286844533eacdc60c01b62002d39565b8a60020160009054906101000a900473ffffffffffffffffffffffffffffffffffffffff1673ffffffffffffffffffffffffffffffffffffffff166340c10f1933836040518363ffffffff1660e01b8152600401620014b4929190620037b6565b600060405180830381600087803b158015620014cf57600080fd5b505af1158015620014e4573d6000803e3d6000fd5b50505050620014fe679e6fa230c575977760c01b62002d39565b8a60020160009054906101000a900473ffffffffffffffffffffffffffffffffffffffff1673ffffffffffffffffffffffffffffffffffffffff166370a08231336040518263ffffffff1660e01b81526004016200155d919062003384565b602060405180830381865afa1580156200157b573d6000803e3d6000fd5b505050506040513d601f19601f82011682018060405250810190620015a1919062003528565b600260008e815260200190815260200160002060003373ffffffffffffffffffffffffffffffffffffffff1673ffffffffffffffffffffffffffffffffffffffff168152602001908152602001600020819055506200160b674861de458c14508e60c01b62002d39565b6200162167ea33acf78340420860c01b62002d39565b8973ffffffffffffffffffffffffffffffffffffffff168b60000160009054906101000a900473ffffffffffffffffffffffffffffffffffffffff1673ffffffffffffffffffffffffffffffffffffffff1603620016fb576200168f674f4e0e92398d122660c01b62002d39565b620016a56780528fdabef74a6660c01b62002d39565b848b6003016000828254620016bb91906200384a565b92505081905550620016d867647ce7e16f47f45b60c01b62002d39565b838b6004016000828254620016ee91906200384a565b9250508190555062001778565b62001711674d6f678eb632e15760c01b62002d39565b620017276710d4855631ebf4f860c01b62002d39565b838b60030160008282546200173d91906200384a565b925050819055506200175a679925878ad361849260c01b62002d39565b848b60040160008282546200177091906200384a565b925050819055505b5050505050505b6200179567ffb990d744b6bf6460c01b62002d39565b620017ab67d3d603e21d378fd160c01b62002d39565b3373ffffffffffffffffffffffffffffffffffffffff167f470ea512b8fe1cb1899c39ed542cab1ab8911dcb88e3047dcb3d51de91375d838c8c8c8c8a60020160009054906101000a900473ffffffffffffffffffffffffffffffffffffffff166040516200181f95949392919062003885565b60405180910390a26200183d676464cc777316d33460c01b62002d39565b62001853670752f194c6fe5c4860c01b62002d39565b8460020160009054906101000a900473ffffffffffffffffffffffffffffffffffffffff169650505050505050949350505050565b600080620018a167fe7a0fb6f6ac961160c01b62002d39565b620018b76706f646a09fc5393c60c01b62002d39565b620018cd679cdf5a5012a8150b60c01b62002d39565b620018e36757fa90fdc4228d2360c01b62002d39565b6000831162001929576040517f08c379a0000000000000000000000000000000000000000000000000000000008152600401620019209062003932565b60405180910390fd5b6200193f670507cc66733639ef60c01b62002d39565b6200195567e9a1761772d836ff60c01b62002d39565b6200196b67df7702539e98b97860c01b62002d39565b600062001979868662002d3c565b905062001991670bb8b0470799ec0660c01b62002d39565b620019a76732a4601261f6d78460c01b62002d39565b60008060008381526020019081526020016000209050620019d3670d4d59a82fea13e860c01b62002d39565b620019e967d05fd2cf1bfa7e6360c01b62002d39565b620019ff673a05ee0bf2a9cb9f60c01b62002d39565b600073ffffffffffffffffffffffffffffffffffffffff168160020160009054906101000a900473ffffffffffffffffffffffffffffffffffffffff1673ffffffffffffffffffffffffffffffffffffffff160362001a95576040517f08c379a000000000000000000000000000000000000000000000000000000000815260040162001a8c90620039a4565b60405180910390fd5b62001aab67efc3f95715802f4060c01b62002d39565b62001ac1673a3169696bc4f64d60c01b62002d39565b62001ad767f4e9604f3100613360c01b62002d39565b60008160020160009054906101000a900473ffffffffffffffffffffffffffffffffffffffff16905062001b1667dcf9b54d4a26ce0e60c01b62002d39565b62001b2c675b1045095ce1e3e460c01b62002d39565b60008173ffffffffffffffffffffffffffffffffffffffff166318160ddd6040518163ffffffff1660e01b8152600401602060405180830381865afa15801562001b7a573d6000803e3d6000fd5b505050506040513d601f19601f8201168201806040525081019062001ba0919062003528565b905062001bb867b43367239112530b60c01b62002d39565b62001bce67675c9d632be2e77c60c01b62002d39565b62001be467028ebdab9d27fb3460c01b62002d39565b6000811162001c2a576040517f08c379a000000000000000000000000000000000000000000000000000000000815260040162001c219062003a16565b60405180910390fd5b62001c40675081460231845aee60c01b62002d39565b62001c5667b3eccc7bdfed2ae360c01b62002d39565b62001c6c67fba8b6f42203b0d060c01b62002d39565b60008273ffffffffffffffffffffffffffffffffffffffff166370a08231336040518263ffffffff1660e01b815260040162001ca9919062003384565b602060405180830381865afa15801562001cc7573d6000803e3d6000fd5b505050506040513d601f19601f8201168201806040525081019062001ced919062003528565b905062001d05674849449510d3ad5a60c01b62002d39565b62001d1b67f57cdad56e8bf6a960c01b62002d39565b62001d31674c931fc0b6bbcc5c60c01b62002d39565b8781101562001d77576040517f08c379a000000000000000000000000000000000000000000000000000000000815260040162001d6e9062003a88565b60405180910390fd5b62001d8d67dabd26f02d8a8e9860c01b62002d39565b62001da3672da63a433409d93660c01b62002d39565b62001db967d48df224ca6e479960c01b62002d39565b60008285600301548a62001dce91906200376b565b62001dda919062003812565b905062001df26798197a405039e4d960c01b62002d39565b62001e08678cc41f1066692cf760c01b62002d39565b60008386600401548b62001e1d91906200376b565b62001e29919062003812565b905062001e4167d124272ea884de0a60c01b62002d39565b62001e57671479a5e83c10a0c360c01b62002d39565b8473ffffffffffffffffffffffffffffffffffffffff16639dc29fac338c6040518363ffffffff1660e01b815260040162001e94929190620037b6565b600060405180830381600087803b15801562001eaf57600080fd5b505af115801562001ec4573d6000803e3d6000fd5b5050505062001ede675e36a0903ec536da60c01b62002d39565b8473ffffffffffffffffffffffffffffffffffffffff166370a08231336040518263ffffffff1660e01b815260040162001f19919062003384565b602060405180830381865afa15801562001f37573d6000803e3d6000fd5b505050506040513d601f19601f8201168201806040525081019062001f5d919062003528565b6002600089815260200190815260200160002060003373ffffffffffffffffffffffffffffffffffffffff1673ffffffffffffffffffffffffffffffffffffffff1681526020019081526020016000208190555062001fc767cf5c2c4f56aa283a60c01b62002d39565b8186600301600082825462001fdd919062003aaa565b9250508190555062001ffa67b8c3a42ae93a514160c01b62002d39565b8086600401600082825462002010919062003aaa565b925050819055506200202d67b31a6315baa8c77e60c01b62002d39565b6200204367128dc14999a4202760c01b62002d39565b8560000160009054906101000a900473ffffffffffffffffffffffffffffffffffffffff1673ffffffffffffffffffffffffffffffffffffffff168c73ffffffffffffffffffffffffffffffffffffffff16036200224957620020b167c0790321fb6510ac60c01b62002d39565b620020c76758be8f4f130ca6bd60c01b62002d39565b620020dd67b0e6644d55031bd860c01b62002d39565b8b73ffffffffffffffffffffffffffffffffffffffff1663a9059cbb33846040518363ffffffff1660e01b81526004016200211a929190620037b6565b6020604051808303816000875af11580156200213a573d6000803e3d6000fd5b505050506040513d601f19601f8201168201806040525081019062002160919062003646565b5062002177674838815651a0fc2660c01b62002d39565b6200218d6730c2fac78cbd686760c01b62002d39565b8a73ffffffffffffffffffffffffffffffffffffffff1663a9059cbb33836040518363ffffffff1660e01b8152600401620021ca929190620037b6565b6020604051808303816000875af1158015620021ea573d6000803e3d6000fd5b505050506040513d601f19601f8201168201806040525081019062002210919062003646565b506200222767882c4a0457e6ca6860c01b62002d39565b819850620022406784b612f4960c2a6f60c01b62002d39565b809750620023f2565b6200225f6758d5e185d5faa87460c01b62002d39565b62002275670f24c205652b45db60c01b62002d39565b6200228b67a61629e313a3c54b60c01b62002d39565b8b73ffffffffffffffffffffffffffffffffffffffff1663a9059cbb33836040518363ffffffff1660e01b8152600401620022c8929190620037b6565b6020604051808303816000875af1158015620022e8573d6000803e3d6000fd5b505050506040513d601f19601f820116820180604052508101906200230e919062003646565b5062002325679020ed8f28d89b1360c01b62002d39565b6200233b678bf3412ef1c43e3b60c01b62002d39565b8a73ffffffffffffffffffffffffffffffffffffffff1663a9059cbb33846040518363ffffffff1660e01b815260040162002378929190620037b6565b6020604051808303816000875af115801562002398573d6000803e3d6000fd5b505050506040513d601f19601f82011682018060405250810190620023be919062003646565b50620023d567e663bb247656b12460c01b62002d39565b809850620023ee6736c7d72036495eca60c01b62002d39565b8197505b6200240867b6e2c62b13adffcf60c01b62002d39565b6200241e672c9450430846827960c01b62002d39565b3373ffffffffffffffffffffffffffffffffffffffff167f6ba0a6e2cb7ed74e0f2728cfdacc07f0cdd839a6b49ac4e341d81d0d52a0f6da8d8d8c8c8b60020160009054906101000a900473ffffffffffffffffffffffffffffffffffffffff166040516200249295949392919062003885565b60405180910390a2620024b067755b53abdf2d318a60c01b62002d39565b620024c667a61717ac464e8f3660c01b62002d39565b50505050505050935093915050565b6000620024ed67139e5eb6857dfb4260c01b62002d39565b6200250367f09b4c9dce71ec9860c01b62002d39565b62002519672b5b1b991e40e80360c01b62002d39565b6200252f674ee3b9fd2740556560c01b62002d39565b6000821162002575576040517f08c379a00000000000000000000000000000000000000000000000000000000081526004016200256c9062003b35565b60405180910390fd5b6200258b675a603d51052891ed60c01b62002d39565b620025a1673c4a627e1e7256dc60c01b62002d39565b620025b767602a097be038625060c01b62002d39565b6000620025c5858562002d3c565b9050620025dd67136390acdb33ced260c01b62002d39565b620025f367ca1627115440fd5d60c01b62002d39565b600080600083815260200190815260200160002090506200261f675cee2853c18d0cfd60c01b62002d39565b6200263567ad606629c12b323960c01b62002d39565b6200264b67c13706022380103a60c01b62002d39565b600073ffffffffffffffffffffffffffffffffffffffff168160020160009054906101000a900473ffffffffffffffffffffffffffffffffffffffff1673ffffffffffffffffffffffffffffffffffffffff1603620026e1576040517f08c379a0000000000000000000000000000000000000000000000000000000008152600401620026d890620039a4565b60405180910390fd5b620026f767baa2440aa061974860c01b62002d39565b6200270d67a29ab1f5d5d7de0760c01b62002d39565b6200272367a38227c7a463a94f60c01b62002d39565b60008160000160009054906101000a900473ffffffffffffffffffffffffffffffffffffffff1673ffffffffffffffffffffffffffffffffffffffff168773ffffffffffffffffffffffffffffffffffffffff16149050620027906787780fbcde89e2a560c01b62002d39565b620027a667688bbe829083692160c01b62002d39565b6000808280620027c85750620027c767e8ad5ad2474d855b60c01b6200308f565b5b8015620027e75750620027e667667b91e0119f51ce60c01b62003096565b5b620027fc578360040154846003015462002807565b836003015484600401545b915091506200282167e7ae9488fad5601860c01b62002d39565b6200283767b06ddc464d9e46a860c01b62002d39565b8873ffffffffffffffffffffffffffffffffffffffff166323b872dd33308a6040518463ffffffff1660e01b81526004016200287693929190620035cc565b6020604051808303816000875af115801562002896573d6000803e3d6000fd5b505050506040513d601f19601f82011682018060405250810190620028bc919062003646565b50620028d367aad0be6f79e74b0a60c01b62002d39565b620028e967621e3047f09e236e60c01b62002d39565b60006103e588620028fb91906200376b565b90506200291367a81a9e7387574cfa60c01b62002d39565b6200292967eaf90f71f952cdc760c01b62002d39565b600082826200293991906200376b565b9050620029516735974f00b89a019d60c01b62002d39565b6200296767bb119856d34d3da360c01b62002d39565b6000826103e8866200297a91906200376b565b6200298691906200384a565b90506200299e676812491750d99fc960c01b62002d39565b620029b467c11988268d0f24d560c01b62002d39565b60008183620029c4919062003812565b9050620029dc67be7ba6be550a281760c01b62002d39565b620029f267f99cc85485b1673260c01b62002d39565b62002a0867506d70a8a4dd5d8f60c01b62002d39565b60008111801562002a195750808510155b62002a5b576040517f08c379a000000000000000000000000000000000000000000000000000000000815260040162002a529062003ba7565b60405180910390fd5b62002a7167fd9a7b70e7a2bbcd60c01b62002d39565b62002a87672a0f4bbb3d10792560c01b62002d39565b62002a9d67732d56f5d5a6303f60c01b62002d39565b8b73ffffffffffffffffffffffffffffffffffffffff1663a9059cbb33836040518363ffffffff1660e01b815260040162002ada929190620037b6565b6020604051808303816000875af115801562002afa573d6000803e3d6000fd5b505050506040513d601f19601f8201168201806040525081019062002b20919062003646565b5062002b3767bd9a4b8fee09d99460c01b62002d39565b62002b4d67b5ae5bba49af513460c01b62002d39565b861562002bd65762002b6a67789171879d987cec60c01b62002d39565b62002b8067369d5ac957e0fc3760c01b62002d39565b8a88600301600082825462002b9691906200384a565b9250508190555062002bb367d0f4d71b1a2c345160c01b62002d39565b8088600401600082825462002bc9919062003aaa565b9250508190555062002c53565b62002bec67051a5e144c252ea860c01b62002d39565b62002c0267bf4f039e7772ab0760c01b62002d39565b8a88600401600082825462002c1891906200384a565b9250508190555062002c3567cd85bf233e21355860c01b62002d39565b8088600301600082825462002c4b919062003aaa565b925050819055505b62002c696728555c5921591d9a60c01b62002d39565b62002c7f673c14cf0f6fca979c60c01b62002d39565b3373ffffffffffffffffffffffffffffffffffffffff167f6782190c91d4a7e8ad2a867deed6ec0a970cab8ff137ae2bd4abd92b3810f4d38e8e8e8560405162002ccd949392919062003bc9565b60405180910390a262002ceb674314271f1cf8c1e060c01b62002d39565b62002d016790adb73a6d2fa14d60c01b62002d39565b8099505050505050505050509392505050565b6002602052816000526040600020602052806000526040600020600091509150505481565b50565b600062002d546718cf9e3319473a9b60c01b62002d39565b62002d6a67b8cd244d083bf8ea60c01b62002d39565b62002d8067702f23e5e0bb97f160c01b62002d39565b8173ffffffffffffffffffffffffffffffffffffffff168373ffffffffffffffffffffffffffffffffffffffff16101562002e2a5762002dcb67901e602c002f71e260c01b62002d39565b62002de167e04ae8ea54c18ee760c01b62002d39565b62002df767454348f265c3586160c01b62002d39565b828260405160200162002e0c92919062003c66565b60405160208183030381529060405280519060200120905062002e9a565b62002e40675110bf9b5eb5741a60c01b62002d39565b62002e5667ed1795a7be8c923060c01b62002d39565b62002e6c67c5ef2a7810ca39fb60c01b62002d39565b818360405160200162002e8192919062003c66565b6040516020818303038152906040528051906020012090505b92915050565b600062002eb867a53508dec8d4da2d60c01b62002d39565b62002ece6777056bd1026acdee60c01b62002d39565b62002ee46740f826d6dfea436260c01b62002d39565b6003821115620030075762002f0467b975e3f6039db2e160c01b62002d39565b62002f1a67650572bbaefc249560c01b62002d39565b81905062002f3367c9361f342f971e1a60c01b62002d39565b62002f496770587300e0977b4a60c01b62002d39565b6000600160028462002f5c919062003812565b62002f6891906200384a565b905062002f8067f89fcf7d2d075cf260c01b62002d39565b62002f966735c42916cb1cf98060c01b62002d39565b5b81811015620030005762002fb6670f38ee34e667390460c01b62002d39565b80915062002fcf67b1cb334ceb17c12260c01b62002d39565b600281828562002fe0919062003812565b62002fec91906200384a565b62002ff8919062003812565b905062002f97565b506200308a565b6200301d67af2ab09d3c662ebc60c01b62002d39565b6200303367d9936e2dda23cec660c01b62002d39565b6000821462003072576200305267a855bb3dcb68d41160c01b62002d39565b6200306867c20b4dc32a959dcc60c01b62002d39565b6001905062003089565b6200308867c7e21a521c1537a160c01b62002d39565b5b5b919050565b6000919050565b600060019050919050565b6118f78062003c9783390190565b600080fd5b600073ffffffffffffffffffffffffffffffffffffffff82169050919050565b6000620030e182620030b4565b9050919050565b620030f381620030d4565b8114620030ff57600080fd5b50565b6000813590506200311381620030e8565b92915050565b6000819050919050565b6200312e8162003119565b81146200313a57600080fd5b50565b6000813590506200314e8162003123565b92915050565b60008060008060808587031215620031715762003170620030af565b5b6000620031818782880162003102565b9450506020620031948782880162003102565b9350506040620031a78782880162003102565b9250506060620031ba878288016200313d565b91505092959194509250565b6000819050919050565b620031db81620031c6565b8114620031e757600080fd5b50565b600081359050620031fb81620031d0565b92915050565b6000602082840312156200321a5762003219620030af565b5b60006200322a84828501620031ea565b91505092915050565b6200323e81620030d4565b82525050565b6200324f8162003119565b82525050565b600060a0820190506200326c600083018862003233565b6200327b602083018762003233565b6200328a604083018662003233565b62003299606083018562003244565b620032a8608083018462003244565b9695505050505050565b600060208284031215620032cb57620032ca620030af565b5b6000620032db8482850162003102565b91505092915050565b620032ef81620031c6565b82525050565b60006020820190506200330c6000830184620032e4565b92915050565b600080600080608085870312156200332f576200332e620030af565b5b60006200333f8782880162003102565b9450506020620033528782880162003102565b935050604062003365878288016200313d565b925050606062003378878288016200313d565b91505092959194509250565b60006020820190506200339b600083018462003233565b92915050565b600080600060608486031215620033bd57620033bc620030af565b5b6000620033cd8682870162003102565b9350506020620033e08682870162003102565b9250506040620033f3868287016200313d565b9150509250925092565b600060408201905062003414600083018562003244565b62003423602083018462003244565b9392505050565b600060208201905062003441600083018462003244565b92915050565b60008060408385031215620034615762003460620030af565b5b60006200347185828601620031ea565b9250506020620034848582860162003102565b9150509250929050565b600082825260208201905092915050565b7f556e6b6e6f776e204c5000000000000000000000000000000000000000000000600082015250565b6000620034d7600a836200348e565b9150620034e4826200349f565b602082019050919050565b600060208201905081810360008301526200350a81620034c8565b9050919050565b600081519050620035228162003123565b92915050565b600060208284031215620035415762003540620030af565b5b6000620035518482850162003511565b91505092915050565b7f496e76616c696420616d6f756e74730000000000000000000000000000000000600082015250565b600062003592600f836200348e565b91506200359f826200355a565b602082019050919050565b60006020820190508181036000830152620035c58162003583565b9050919050565b6000606082019050620035e3600083018662003233565b620035f2602083018562003233565b62003601604083018462003244565b949350505050565b60008115159050919050565b620036208162003609565b81146200362c57600080fd5b50565b600081519050620036408162003615565b92915050565b6000602082840312156200365f576200365e620030af565b5b60006200366f848285016200362f565b91505092915050565b600081519050919050565b60005b83811015620036a357808201518184015260208101905062003686565b60008484015250505050565b6000601f19601f8301169050919050565b6000620036cd8262003678565b620036d981856200348e565b9350620036eb81856020860162003683565b620036f681620036af565b840191505092915050565b600060408201905081810360008301526200371d8185620036c0565b90508181036020830152620037338184620036c0565b90509392505050565b7f4e487b7100000000000000000000000000000000000000000000000000000000600052601160045260246000fd5b6000620037788262003119565b9150620037858362003119565b9250828202620037958162003119565b91508282048414831517620037af57620037ae6200373c565b5b5092915050565b6000604082019050620037cd600083018562003233565b620037dc602083018462003244565b9392505050565b7f4e487b7100000000000000000000000000000000000000000000000000000000600052601260045260246000fd5b60006200381f8262003119565b91506200382c8362003119565b9250826200383f576200383e620037e3565b5b828204905092915050565b6000620038578262003119565b9150620038648362003119565b92508282019050808211156200387f576200387e6200373c565b5b92915050565b600060a0820190506200389c600083018862003233565b620038ab602083018762003233565b620038ba604083018662003244565b620038c9606083018562003244565b620038d8608083018462003233565b9695505050505050565b7f496e76616c6964206c7020616d6f756e74000000000000000000000000000000600082015250565b60006200391a6011836200348e565b91506200392782620038e2565b602082019050919050565b600060208201905081810360008301526200394d816200390b565b9050919050565b7f50616972206e6f7420666f756e64000000000000000000000000000000000000600082015250565b60006200398c600e836200348e565b9150620039998262003954565b602082019050919050565b60006020820190508181036000830152620039bf816200397d565b9050919050565b7f4e6f206c69717569646974790000000000000000000000000000000000000000600082015250565b6000620039fe600c836200348e565b915062003a0b82620039c6565b602082019050919050565b6000602082019050818103600083015262003a3181620039ef565b9050919050565b7f496e73756666696369656e74204c502062616c616e6365000000000000000000600082015250565b600062003a706017836200348e565b915062003a7d8262003a38565b602082019050919050565b6000602082019050818103600083015262003aa38162003a61565b9050919050565b600062003ab78262003119565b915062003ac48362003119565b925082820390508181111562003adf5762003ade6200373c565b5b92915050565b7f496e76616c696420616d6f756e74000000000000000000000000000000000000600082015250565b600062003b1d600e836200348e565b915062003b2a8262003ae5565b602082019050919050565b6000602082019050818103600083015262003b508162003b0e565b9050919050565b7f496e73756666696369656e74206c697175696469747900000000000000000000600082015250565b600062003b8f6016836200348e565b915062003b9c8262003b57565b602082019050919050565b6000602082019050818103600083015262003bc28162003b80565b9050919050565b600060808201905062003be0600083018762003233565b62003bef602083018662003233565b62003bfe604083018562003244565b62003c0d606083018462003244565b95945050505050565b60008160601b9050919050565b600062003c308262003c16565b9050919050565b600062003c448262003c23565b9050919050565b62003c6062003c5a82620030d4565b62003c37565b82525050565b600062003c74828562003c4b565b60148201915062003c86828462003c4b565b601482019150819050939250505056fe60806040523480156200001157600080fd5b50604051620018f7380380620018f7833981810160405281019062000037919062000276565b818181600390816200004a919062000546565b5080600490816200005c919062000546565b5050506200007b678a9915bec14059ed60c01b620000e060201b60201c565b6200009767c6ed6582a8b8511560c01b620000e060201b60201c565b33600560006101000a81548173ffffffffffffffffffffffffffffffffffffffff021916908373ffffffffffffffffffffffffffffffffffffffff16021790555050506200062d565b50565b6000604051905090565b600080fd5b600080fd5b600080fd5b600080fd5b6000601f19601f8301169050919050565b7f4e487b7100000000000000000000000000000000000000000000000000000000600052604160045260246000fd5b6200014c8262000101565b810181811067ffffffffffffffff821117156200016e576200016d62000112565b5b80604052505050565b600062000183620000e3565b905062000191828262000141565b919050565b600067ffffffffffffffff821115620001b457620001b362000112565b5b620001bf8262000101565b9050602081019050919050565b60005b83811015620001ec578082015181840152602081019050620001cf565b60008484015250505050565b60006200020f620002098462000196565b62000177565b9050828152602081018484840111156200022e576200022d620000fc565b5b6200023b848285620001cc565b509392505050565b600082601f8301126200025b576200025a620000f7565b5b81516200026d848260208601620001f8565b91505092915050565b6000806040838503121562000290576200028f620000ed565b5b600083015167ffffffffffffffff811115620002b157620002b0620000f2565b5b620002bf8582860162000243565b925050602083015167ffffffffffffffff811115620002e357620002e2620000f2565b5b620002f18582860162000243565b9150509250929050565b600081519050919050565b7f4e487b7100000000000000000000000000000000000000000000000000000000600052602260045260246000fd5b600060028204905060018216806200034e57607f821691505b60208210810362000364576200036362000306565b5b50919050565b60008190508160005260206000209050919050565b60006020601f8301049050919050565b600082821b905092915050565b600060088302620003ce7fffffffffffffffffffffffffffffffffffffffffffffffffffffffffffffffff826200038f565b620003da86836200038f565b95508019841693508086168417925050509392505050565b6000819050919050565b6000819050919050565b600062000427620004216200041b84620003f2565b620003fc565b620003f2565b9050919050565b6000819050919050565b620004438362000406565b6200045b62000452826200042e565b8484546200039c565b825550505050565b600090565b6200047262000463565b6200047f81848462000438565b505050565b5b81811015620004a7576200049b60008262000468565b60018101905062000485565b5050565b601f821115620004f657620004c0816200036a565b620004cb846200037f565b81016020851015620004db578190505b620004f3620004ea856200037f565b83018262000484565b50505b505050565b600082821c905092915050565b60006200051b60001984600802620004fb565b1980831691505092915050565b600062000536838362000508565b9150826002028217905092915050565b6200055182620002fb565b67ffffffffffffffff8111156200056d576200056c62000112565b5b62000579825462000335565b62000586828285620004ab565b600060209050601f831160018114620005be5760008415620005a9578287015190505b620005b5858262000528565b86555062000625565b601f198416620005ce866200036a565b60005b82811015620005f857848901518255600182019150602085019450602081019050620005d1565b8683101562000618578489015162000614601f89168262000508565b8355505b6001600288020188555050505b505050505050565b6112ba806200063d6000396000f3fe608060405234801561001057600080fd5b50600436106100b45760003560e01c806340c10f191161007157806340c10f191461019157806370a08231146101ad57806395d89b41146101dd5780639dc29fac146101fb578063a9059cbb14610217578063dd62ed3e14610247576100b4565b806306fdde03146100b957806307546172146100d7578063095ea7b3146100f557806318160ddd1461012557806323b872dd14610143578063313ce56714610173575b600080fd5b6100c1610277565b6040516100ce9190610ea2565b60405180910390f35b6100df610309565b6040516100ec9190610f05565b60405180910390f35b61010f600480360381019061010a9190610f87565b61032f565b60405161011c9190610fe2565b60405180910390f35b61012d610352565b60405161013a919061100c565b60405180910390f35b61015d60048036038101906101589190611027565b61035c565b60405161016a9190610fe2565b60405180910390f35b61017b61038b565b6040516101889190611096565b60405180910390f35b6101ab60048036038101906101a69190610f87565b610394565b005b6101c760048036038101906101c291906110b1565b6104be565b6040516101d4919061100c565b60405180910390f35b6101e5610506565b6040516101f29190610ea2565b60405180910390f35b61021560048036038101906102109190610f87565b610598565b005b610231600480360381019061022c9190610f87565b6106c2565b60405161023e9190610fe2565b60405180910390f35b610261600480360381019061025c91906110de565b6106e5565b60405161026e919061100c565b60405180910390f35b6060600380546102869061114d565b80601f01602080910402602001604051908101604052809291908181526020018280546102b29061114d565b80156102ff5780601f106102d4576101008083540402835291602001916102ff565b820191906000526020600020905b8154815290600101906020018083116102e257829003601f168201915b5050505050905090565b600560009054906101000a900473ffffffffffffffffffffffffffffffffffffffff1681565b60008061033a61076c565b9050610347818585610774565b600191505092915050565b6000600254905090565b60008061036761076c565b9050610374858285610786565b61037f85858561081b565b60019150509392505050565b60006012905090565b6103a8678e70a697e8cda2a160c01b61090f565b6103bc672fdca7e49b9e1f2860c01b61090f565b6103d0676b614b5eeda7cc5960c01b61090f565b6103e4671e28fa058b38bcc360c01b61090f565b600560009054906101000a900473ffffffffffffffffffffffffffffffffffffffff1673ffffffffffffffffffffffffffffffffffffffff163373ffffffffffffffffffffffffffffffffffffffff1614610474576040517f08c379a000000000000000000000000000000000000000000000000000000000815260040161046b906111ca565b60405180910390fd5b61048867b3f39f79b7b1a7bf60c01b61090f565b61049c67d72af7772207223260c01b61090f565b6104b0673b0402a2d710d01460c01b61090f565b6104ba8282610912565b5050565b60008060008373ffffffffffffffffffffffffffffffffffffffff1673ffffffffffffffffffffffffffffffffffffffff168152602001908152602001600020549050919050565b6060600480546105159061114d565b80601f01602080910402602001604051908101604052809291908181526020018280546105419061114d565b801561058e5780601f106105635761010080835404028352916020019161058e565b820191906000526020600020905b81548152906001019060200180831161057157829003601f168201915b5050505050905090565b6105ac67606d4f674d04b58160c01b61090f565b6105c067ca4265cf274a412060c01b61090f565b6105d46766b8be69ec37cb4460c01b61090f565b6105e867301213f86e89b87d60c01b61090f565b600560009054906101000a900473ffffffffffffffffffffffffffffffffffffffff1673ffffffffffffffffffffffffffffffffffffffff163373ffffffffffffffffffffffffffffffffffffffff1614610678576040517f08c379a000000000000000000000000000000000000000000000000000000000815260040161066f906111ca565b60405180910390fd5b61068c67d6a4af24f8da3d2360c01b61090f565b6106a0677149882d030e08b460c01b61090f565b6106b46706e52405d7bb4cf360c01b61090f565b6106be8282610994565b5050565b6000806106cd61076c565b90506106da81858561081b565b600191505092915050565b6000600160008473ffffffffffffffffffffffffffffffffffffffff1673ffffffffffffffffffffffffffffffffffffffff16815260200190815260200160002060008373ffffffffffffffffffffffffffffffffffffffff1673ffffffffffffffffffffffffffffffffffffffff16815260200190815260200160002054905092915050565b600033905090565b6107818383836001610a16565b505050565b600061079284846106e5565b90507fffffffffffffffffffffffffffffffffffffffffffffffffffffffffffffffff8110156108155781811015610805578281836040517ffb8f41b20000000000000000000000000000000000000000000000000000000081526004016107fc939291906111ea565b60405180910390fd5b61081484848484036000610a16565b5b50505050565b600073ffffffffffffffffffffffffffffffffffffffff168373ffffffffffffffffffffffffffffffffffffffff160361088d5760006040517f96c6fd1e0000000000000000000000000000000000000000000000000000000081526004016108849190610f05565b60405180910390fd5b600073ffffffffffffffffffffffffffffffffffffffff168273ffffffffffffffffffffffffffffffffffffffff16036108ff5760006040517fec442f050000000000000000000000000000000000000000000000000000000081526004016108f69190610f05565b60405180910390fd5b61090a838383610bed565b505050565b50565b600073ffffffffffffffffffffffffffffffffffffffff168273ffffffffffffffffffffffffffffffffffffffff16036109845760006040517fec442f0500000000000000000000000000000000000000000000000000000000815260040161097b9190610f05565b60405180910390fd5b61099060008383610bed565b5050565b600073ffffffffffffffffffffffffffffffffffffffff168273ffffffffffffffffffffffffffffffffffffffff1603610a065760006040517f96c6fd1e0000000000000000000000000000000000000000000000000000000081526004016109fd9190610f05565b60405180910390fd5b610a1282600083610bed565b5050565b600073ffffffffffffffffffffffffffffffffffffffff168473ffffffffffffffffffffffffffffffffffffffff1603610a885760006040517fe602df05000000000000000000000000000000000000000000000000000000008152600401610a7f9190610f05565b60405180910390fd5b600073ffffffffffffffffffffffffffffffffffffffff168373ffffffffffffffffffffffffffffffffffffffff1603610afa5760006040517f94280d62000000000000000000000000000000000000000000000000000000008152600401610af19190610f05565b60405180910390fd5b81600160008673ffffffffffffffffffffffffffffffffffffffff1673ffffffffffffffffffffffffffffffffffffffff16815260200190815260200160002060008573ffffffffffffffffffffffffffffffffffffffff1673ffffffffffffffffffffffffffffffffffffffff168152602001908152602001600020819055508015610be7578273ffffffffffffffffffffffffffffffffffffffff168473ffffffffffffffffffffffffffffffffffffffff167f8c5be1e5ebec7d5bd14f71427d1e84f3dd0314c0f7b2291e5b200ac8c7c3b92584604051610bde919061100c565b60405180910390a35b50505050565b600073ffffffffffffffffffffffffffffffffffffffff168373ffffffffffffffffffffffffffffffffffffffff1603610c3f578060026000828254610c339190611250565b92505081905550610d12565b60008060008573ffffffffffffffffffffffffffffffffffffffff1673ffffffffffffffffffffffffffffffffffffffff16815260200190815260200160002054905081811015610ccb578381836040517fe450d38c000000000000000000000000000000000000000000000000000000008152600401610cc2939291906111ea565b60405180910390fd5b8181036000808673ffffffffffffffffffffffffffffffffffffffff1673ffffffffffffffffffffffffffffffffffffffff16815260200190815260200160002081905550505b600073ffffffffffffffffffffffffffffffffffffffff168273ffffffffffffffffffffffffffffffffffffffff1603610d5b5780600260008282540392505081905550610da8565b806000808473ffffffffffffffffffffffffffffffffffffffff1673ffffffffffffffffffffffffffffffffffffffff168152602001908152602001600020600082825401925050819055505b8173ffffffffffffffffffffffffffffffffffffffff168373ffffffffffffffffffffffffffffffffffffffff167fddf252ad1be2c89b69c2b068fc378daa952ba7f163c4a11628f55a4df523b3ef83604051610e05919061100c565b60405180910390a3505050565b600081519050919050565b600082825260208201905092915050565b60005b83811015610e4c578082015181840152602081019050610e31565b60008484015250505050565b6000601f19601f8301169050919050565b6000610e7482610e12565b610e7e8185610e1d565b9350610e8e818560208601610e2e565b610e9781610e58565b840191505092915050565b60006020820190508181036000830152610ebc8184610e69565b905092915050565b600073ffffffffffffffffffffffffffffffffffffffff82169050919050565b6000610eef82610ec4565b9050919050565b610eff81610ee4565b82525050565b6000602082019050610f1a6000830184610ef6565b92915050565b600080fd5b610f2e81610ee4565b8114610f3957600080fd5b50565b600081359050610f4b81610f25565b92915050565b6000819050919050565b610f6481610f51565b8114610f6f57600080fd5b50565b600081359050610f8181610f5b565b92915050565b60008060408385031215610f9e57610f9d610f20565b5b6000610fac85828601610f3c565b9250506020610fbd85828601610f72565b9150509250929050565b60008115159050919050565b610fdc81610fc7565b82525050565b6000602082019050610ff76000830184610fd3565b92915050565b61100681610f51565b82525050565b60006020820190506110216000830184610ffd565b92915050565b6000806000606084860312156110405761103f610f20565b5b600061104e86828701610f3c565b935050602061105f86828701610f3c565b925050604061107086828701610f72565b9150509250925092565b600060ff82169050919050565b6110908161107a565b82525050565b60006020820190506110ab6000830184611087565b92915050565b6000602082840312156110c7576110c6610f20565b5b60006110d584828501610f3c565b91505092915050565b600080604083850312156110f5576110f4610f20565b5b600061110385828601610f3c565b925050602061111485828601610f3c565b9150509250929050565b7f4e487b7100000000000000000000000000000000000000000000000000000000600052602260045260246000fd5b6000600282049050600182168061116557607f821691505b6020821081036111785761117761111e565b5b50919050565b7f4f6e6c79206d696e746572000000000000000000000000000000000000000000600082015250565b60006111b4600b83610e1d565b91506111bf8261117e565b602082019050919050565b600060208201905081810360008301526111e3816111a7565b9050919050565b60006060820190506111ff6000830186610ef6565b61120c6020830185610ffd565b6112196040830184610ffd565b949350505050565b7f4e487b7100000000000000000000000000000000000000000000000000000000600052601160045260246000fd5b600061125b82610f51565b915061126683610f51565b925082820190508082111561127e5761127d611221565b5b9291505056fea2646970667358221220d037f4c8112bb00e29efb5d5e8e5cd145e84b45c2fab1f83b8d5e5847aacb3e064736f6c63430008160033a26469706673582212201c978c4974a6f22e778f22218467443529a0841f6bfc83cecb4727c5eaa4f30764736f6c63430008160033",
  "linkReferences": {},
  "deployedLinkReferences": {}
}