{
  "_format": "hh-sol-artifact-1",
  "contractName": "FIACoinV5",
  "sourceName": "contracts/FIACoinV5.sol",
  "abi": [
    {
      "inputs": [
        {
          "internalType": "address",
          "name": "_treasury",
          "type": "address"
        },
        {
          "internalType": "address",
          "name": "_founder",
          "type": "address"
        }
      ],
      "stateMutability": "nonpayable",
      "type": "constructor"
    },
    {
      "inputs": [
        {
          "internalType": "address",
          "name": "spender",
          "type": "address"
        },
        {
          "internalType": "uint256",
          "name": "allowance",
          "type": "uint256"
        },
        {
          "internalType": "uint256",
          "name": "needed",
          "type": "uint256"
        }
      ],
      "name": "ERC20InsufficientAllowance",
      "type": "error"
    },
    {
      "inputs": [
        {
          "internalType": "address",
          "name": "sender",
          "type": "address"
        },
        {
          "internalType": "uint256",
          "name": "balance",
          "type": "uint256"
        },
        {
          "internalType": "uint256",
          "name": "needed",
          "type": "uint256"
        }
      ],
      "name": "ERC20InsufficientBalance",
      "type": "error"
    },
    {
      "inputs": [
        {
          "internalType": "address",
          "name": "approver",
          "type": "address"
        }
      ],
      "name": "ERC20InvalidApprover",
      "type": "error"
    },
    {
      "inputs": [
        {
          "internalType": "address",
          "name": "receiver",
          "type": "address"
        }
      ],
      "name": "ERC20InvalidReceiver",
      "type": "error"
    },
    {
      "inputs": [
        {
          "internalType": "address",
          "name": "sender",
          "type": "address"
        }
      ],
      "name": "ERC20InvalidSender",
      "type": "error"
    },
    {
      "inputs": [
        {
          "internalType": "address",
          "name": "spender",
          "type": "address"
        }
      ],
      "name": "ERC20InvalidSpender",
      "type": "error"
    },
    {
      "inputs": [],
      "name": "EnforcedPause",
      "type": "error"
    },
    {
      "inputs": [],
      "name": "ExpectedPause",
      "type": "error"
    },
    {
      "inputs": [
        {
          "internalType": "address",
          "name": "owner",
          "type": "address"
        }
      ],
      "name": "OwnableInvalidOwner",
      "type": "error"
    },
    {
      "inputs": [
        {
          "internalType": "address",
          "name": "account",
          "type": "address"
        }
      ],
      "name": "OwnableUnauthorizedAccount",
      "type": "error"
    },
    {
      "inputs": [],
      "name": "ReentrancyGuardReentrantCall",
      "type": "error"
    },
    {
      "anonymous": false,
      "inputs": [
        {
          "indexed": true,
          "internalType": "address",
          "name": "owner",
          "type": "address"
        },
        {
          "indexed": true,
          "internalType": "address",
          "name": "spender",
          "type": "address"
        },
        {
          "indexed": false,
          "internalType": "uint256",
          "name": "value",
          "type": "uint256"
        }
      ],
      "name": "Approval",
      "type": "event"
    },
    {
      "anonymous": false,
      "inputs": [
        {
          "indexed": true,
          "internalType": "address",
          "name": "user",
          "type": "address"
        },
        {
          "indexed": false,
          "internalType": "uint256",
          "name": "totalAmount",
          "type": "uint256"
        },
        {
          "indexed": false,
          "internalType": "uint256",
          "name": "stakeCount",
          "type": "uint256"
        }
      ],
      "name": "BatchStaking",
      "type": "event"
    },
    {
      "anonymous": false,
      "inputs": [
        {
          "indexed": true,
          "internalType": "address",
          "name": "from",
          "type": "address"
        },
        {
          "indexed": false,
          "internalType": "uint256",
          "name": "totalAmount",
          "type": "uint256"
        },
        {
          "indexed": false,
          "internalType": "uint256",
          "name": "recipientCount",
          "type": "uint256"
        }
      ],
      "name": "BatchTransfer",
      "type": "event"
    },
    {
      "anonymous": false,
      "inputs": [
        {
          "indexed": false,
          "internalType": "string",
          "name": "action",
          "type": "string"
        },
        {
          "indexed": false,
          "internalType": "address",
          "name": "actor",
          "type": "address"
        }
      ],
      "name": "EmergencyAction",
      "type": "event"
    },
    {
      "anonymous": false,
      "inputs": [
        {
          "indexed": false,
          "internalType": "uint256",
          "name": "oldFee",
          "type": "uint256"
        },
        {
          "indexed": false,
          "internalType": "uint256",
          "name": "newFee",
          "type": "uint256"
        }
      ],
      "name": "FeeConfigurationChanged",
      "type": "event"
    },
    {
      "anonymous": false,
      "inputs": [
        {
          "indexed": false,
          "internalType": "uint256",
          "name": "treasury",
          "type": "uint256"
        },
        {
          "indexed": false,
          "internalType": "uint256",
          "name": "founder",
          "type": "uint256"
        },
        {
          "indexed": false,
          "internalType": "uint256",
          "name": "burn",
          "type": "uint256"
        }
      ],
      "name": "FeeDistributionChanged",
      "type": "event"
    },
    {
      "anonymous": false,
      "inputs": [
        {
          "indexed": true,
          "internalType": "address",
          "name": "account",
          "type": "address"
        },
        {
          "indexed": false,
          "internalType": "bool",
          "name": "exempt",
          "type": "bool"
        }
      ],
      "name": "FeeExemptionSet",
      "type": "event"
    },
    {
      "anonymous": false,
      "inputs": [
        {
          "indexed": true,
          "internalType": "address",
          "name": "from",
          "type": "address"
        },
        {
          "indexed": true,
          "internalType": "address",
          "name": "to",
          "type": "address"
        },
        {
          "indexed": false,
          "internalType": "uint256",
          "name": "amount",
          "type": "uint256"
        }
      ],
      "name": "Fingered",
      "type": "event"
    },
    {
      "anonymous": false,
      "inputs": [
        {
          "indexed": true,
          "internalType": "address",
          "name": "previousOwner",
          "type": "address"
        },
        {
          "indexed": true,
          "internalType": "address",
          "name": "newOwner",
          "type": "address"
        }
      ],
      "name": "OwnershipTransferred",
      "type": "event"
    },
    {
      "anonymous": false,
      "inputs": [
        {
          "indexed": false,
          "internalType": "address",
          "name": "account",
          "type": "address"
        }
      ],
      "name": "Paused",
      "type": "event"
    },
    {
      "anonymous": false,
      "inputs": [
        {
          "indexed": true,
          "internalType": "uint256",
          "name": "proposalId",
          "type": "uint256"
        },
        {
          "indexed": true,
          "internalType": "address",
          "name": "proposer",
          "type": "address"
        },
        {
          "indexed": false,
          "internalType": "string",
          "name": "description",
          "type": "string"
        }
      ],
      "name": "ProposalCreated",
      "type": "event"
    },
    {
      "anonymous": false,
      "inputs": [
        {
          "indexed": true,
          "internalType": "uint256",
          "name": "proposalId",
          "type": "uint256"
        }
      ],
      "name": "ProposalExecuted",
      "type": "event"
    },
    {
      "anonymous": false,
      "inputs": [
        {
          "indexed": true,
          "internalType": "address",
          "name": "user",
          "type": "address"
        },
        {
          "indexed": false,
          "internalType": "uint256",
          "name": "reward",
          "type": "uint256"
        },
        {
          "indexed": false,
          "internalType": "uint256",
          "name": "stakeIndex",
          "type": "uint256"
        }
      ],
      "name": "RewardClaimed",
      "type": "event"
    },
    {
      "anonymous": false,
      "inputs": [
        {
          "indexed": true,
          "internalType": "address",
          "name": "user",
          "type": "address"
        },
        {
          "indexed": false,
          "internalType": "uint256",
          "name": "amount",
          "type": "uint256"
        },
        {
          "indexed": false,
          "internalType": "uint256",
          "name": "lockPeriod",
          "type": "uint256"
        },
        {
          "indexed": false,
          "internalType": "uint256",
          "name": "stakeIndex",
          "type": "uint256"
        }
      ],
      "name": "Staked",
      "type": "event"
    },
    {
      "anonymous": false,
      "inputs": [
        {
          "indexed": true,
          "internalType": "address",
          "name": "from",
          "type": "address"
        },
        {
          "indexed": true,
          "internalType": "address",
          "name": "to",
          "type": "address"
        },
        {
          "indexed": false,
          "internalType": "uint256",
          "name": "value",
          "type": "uint256"
        }
      ],
      "name": "Transfer",
      "type": "event"
    },
    {
      "anonymous": false,
      "inputs": [
        {
          "indexed": false,
          "internalType": "address",
          "name": "account",
          "type": "address"
        }
      ],
      "name": "Unpaused",
      "type": "event"
    },
    {
      "anonymous": false,
      "inputs": [
        {
          "indexed": true,
          "internalType": "address",
          "name": "user",
          "type": "address"
        },
        {
          "indexed": false,
          "internalType": "uint256",
          "name": "amount",
          "type": "uint256"
        },
        {
          "indexed": false,
          "internalType": "uint256",
          "name": "stakeIndex",
          "type": "uint256"
        }
      ],
      "name": "Unstaked",
      "type": "event"
    },
    {
      "anonymous": false,
      "inputs": [
        {
          "indexed": true,
          "internalType": "uint256",
          "name": "proposalId",
          "type": "uint256"
        },
        {
          "indexed": true,
          "internalType": "address",
          "name": "voter",
          "type": "address"
        },
        {
          "indexed": false,
          "internalType": "bool",
          "name": "support",
          "type": "bool"
        },
        {
          "indexed": false,
          "internalType": "uint256",
          "name": "votingPower",
          "type": "uint256"
        }
      ],
      "name": "VoteCast",
      "type": "event"
    },
    {
      "inputs": [],
      "name": "EXECUTION_DELAY",
      "outputs": [
        {
          "internalType": "uint256",
          "name": "",
          "type": "uint256"
        }
      ],
      "stateMutability": "view",
      "type": "function"
    },
    {
      "inputs": [],
      "name": "FEE_CHANGE_DELAY",
      "outputs": [
        {
          "internalType": "uint256",
          "name": "",
          "type": "uint256"
        }
      ],
      "stateMutability": "view",
      "type": "function"
    },
    {
      "inputs": [],
      "name": "LOCK_180_DAYS",
      "outputs": [
        {
          "internalType": "uint256",
          "name": "",
          "type": "uint256"
        }
      ],
      "stateMutability": "view",
      "type": "function"
    },
    {
      "inputs": [],
      "name": "LOCK_30_DAYS",
      "outputs": [
        {
          "internalType": "uint256",
          "name": "",
          "type": "uint256"
        }
      ],
      "stateMutability": "view",
      "type": "function"
    },
    {
      "inputs": [],
      "name": "LOCK_365_DAYS",
      "outputs": [
        {
          "internalType": "uint256",
          "name": "",
          "type": "uint256"
        }
      ],
      "stateMutability": "view",
      "type": "function"
    },
    {
      "inputs": [],
      "name": "LOCK_90_DAYS",
      "outputs": [
        {
          "internalType": "uint256",
          "name": "",
          "type": "uint256"
        }
      ],
      "stateMutability": "view",
      "type": "function"
    },
    {
      "inputs": [],
      "name": "MAX_TOTAL_FEE_BP",
      "outputs": [
        {
          "internalType": "uint256",
          "name": "",
          "type": "uint256"
        }
      ],
      "stateMutability": "view",
      "type": "function"
    },
    {
      "inputs": [],
      "name": "PROPOSAL_THRESHOLD",
      "outputs": [
        {
          "internalType": "uint256",
          "name": "",
          "type": "uint256"
        }
      ],
      "stateMutability": "view",
      "type": "function"
    },
    {
      "inputs": [],
      "name": "QUORUM_PERCENTAGE",
      "outputs": [
        {
          "internalType": "uint256",
          "name": "",
          "type": "uint256"
        }
      ],
      "stateMutability": "view",
      "type": "function"
    },
    {
      "inputs": [],
      "name": "TOTAL_SUPPLY",
      "outputs": [
        {
          "internalType": "uint256",
          "name": "",
          "type": "uint256"
        }
      ],
      "stateMutability": "view",
      "type": "function"
    },
    {
      "inputs": [],
      "name": "VOTING_PERIOD",
      "outputs": [
        {
          "internalType": "uint256",
          "name": "",
          "type": "uint256"
        }
      ],
      "stateMutability": "view",
      "type": "function"
    },
    {
      "inputs": [
        {
          "internalType": "uint256",
          "name": "amount",
          "type": "uint256"
        }
      ],
      "name": "addToRewardPool",
      "outputs": [],
      "stateMutability": "nonpayable",
      "type": "function"
    },
    {
      "inputs": [
        {
          "internalType": "address",
          "name": "owner",
          "type": "address"
        },
        {
          "internalType": "address",
          "name": "spender",
          "type": "address"
        }
      ],
      "name": "allowance",
      "outputs": [
        {
          "internalType": "uint256",
          "name": "",
          "type": "uint256"
        }
      ],
      "stateMutability": "view",
      "type": "function"
    },
    {
      "inputs": [
        {
          "internalType": "address",
          "name": "spender",
          "type": "address"
        },
        {
          "internalType": "uint256",
          "name": "value",
          "type": "uint256"
        }
      ],
      "name": "approve",
      "outputs": [
        {
          "internalType": "bool",
          "name": "",
          "type": "bool"
        }
      ],
      "stateMutability": "nonpayable",
      "type": "function"
    },
    {
      "inputs": [
        {
          "internalType": "address",
          "name": "account",
          "type": "address"
        }
      ],
      "name": "balanceOf",
      "outputs": [
        {
          "internalType": "uint256",
          "name": "",
          "type": "uint256"
        }
      ],
      "stateMutability": "view",
      "type": "function"
    },
    {
      "inputs": [
        {
          "internalType": "address[]",
          "name": "accounts",
          "type": "address[]"
        },
        {
          "internalType": "bool",
          "name": "exempt",
          "type": "bool"
        }
      ],
      "name": "batchSetFeeExempt",
      "outputs": [],
      "stateMutability": "nonpayable",
      "type": "function"
    },
    {
      "inputs": [
        {
          "internalType": "uint256[]",
          "name": "amounts",
          "type": "uint256[]"
        },
        {
          "internalType": "uint256[]",
          "name": "lockPeriods",
          "type": "uint256[]"
        }
      ],
      "name": "batchStake",
      "outputs": [],
      "stateMutability": "nonpayable",
      "type": "function"
    },
    {
      "inputs": [
        {
          "internalType": "address[]",
          "name": "recipients",
          "type": "address[]"
        },
        {
          "internalType": "uint256[]",
          "name": "amounts",
          "type": "uint256[]"
        }
      ],
      "name": "batchTransfer",
      "outputs": [
        {
          "internalType": "bool",
          "name": "",
          "type": "bool"
        }
      ],
      "stateMutability": "nonpayable",
      "type": "function"
    },
    {
      "inputs": [
        {
          "internalType": "uint256",
          "name": "collateralAmount",
          "type": "uint256"
        }
      ],
      "name": "borrowAgainstStake",
      "outputs": [],
      "stateMutability": "pure",
      "type": "function"
    },
    {
      "inputs": [
        {
          "internalType": "uint256",
          "name": "chainId",
          "type": "uint256"
        },
        {
          "internalType": "address",
          "name": "recipient",
          "type": "address"
        },
        {
          "internalType": "uint256",
          "name": "amount",
          "type": "uint256"
        }
      ],
      "name": "bridgeTokens",
      "outputs": [],
      "stateMutability": "payable",
      "type": "function"
    },
    {
      "inputs": [
        {
          "internalType": "uint256",
          "name": "amount",
          "type": "uint256"
        }
      ],
      "name": "burn",
      "outputs": [],
      "stateMutability": "nonpayable",
      "type": "function"
    },
    {
      "inputs": [
        {
          "internalType": "uint256",
          "name": "stakeIndex",
          "type": "uint256"
        }
      ],
      "name": "claimRewards",
      "outputs": [],
      "stateMutability": "nonpayable",
      "type": "function"
    },
    {
      "inputs": [],
      "name": "decimals",
      "outputs": [
        {
          "internalType": "uint8",
          "name": "",
          "type": "uint8"
        }
      ],
      "stateMutability": "view",
      "type": "function"
    },
    {
      "inputs": [
        {
          "internalType": "address",
          "name": "protocol",
          "type": "address"
        },
        {
          "internalType": "uint256",
          "name": "amount",
          "type": "uint256"
        }
      ],
      "name": "depositToYieldFarm",
      "outputs": [],
      "stateMutability": "pure",
      "type": "function"
    },
    {
      "inputs": [],
      "name": "emergencyPause",
      "outputs": [],
      "stateMutability": "nonpayable",
      "type": "function"
    },
    {
      "inputs": [],
      "name": "emergencyUnpause",
      "outputs": [],
      "stateMutability": "nonpayable",
      "type": "function"
    },
    {
      "inputs": [
        {
          "internalType": "uint256",
          "name": "proposalId",
          "type": "uint256"
        }
      ],
      "name": "execute",
      "outputs": [],
      "stateMutability": "nonpayable",
      "type": "function"
    },
    {
      "inputs": [],
      "name": "feeToBurnBP",
      "outputs": [
        {
          "internalType": "uint256",
          "name": "",
          "type": "uint256"
        }
      ],
      "stateMutability": "view",
      "type": "function"
    },
    {
      "inputs": [],
      "name": "feeToFounderBP",
      "outputs": [
        {
          "internalType": "uint256",
          "name": "",
          "type": "uint256"
        }
      ],
      "stateMutability": "view",
      "type": "function"
    },
    {
      "inputs": [],
      "name": "feeToTreasuryBP",
      "outputs": [
        {
          "internalType": "uint256",
          "name": "",
          "type": "uint256"
        }
      ],
      "stateMutability": "view",
      "type": "function"
    },
    {
      "inputs": [
        {
          "internalType": "uint256",
          "name": "amount",
          "type": "uint256"
        },
        {
          "internalType": "bytes",
          "name": "data",
          "type": "bytes"
        }
      ],
      "name": "flashLoan",
      "outputs": [],
      "stateMutability": "pure",
      "type": "function"
    },
    {
      "inputs": [],
      "name": "founderWallet",
      "outputs": [
        {
          "internalType": "address",
          "name": "",
          "type": "address"
        }
      ],
      "stateMutability": "view",
      "type": "function"
    },
    {
      "inputs": [
        {
          "internalType": "uint256",
          "name": "count",
          "type": "uint256"
        }
      ],
      "name": "getStakingLeaderboard",
      "outputs": [
        {
          "internalType": "address[]",
          "name": "",
          "type": "address[]"
        },
        {
          "internalType": "uint256[]",
          "name": "",
          "type": "uint256[]"
        }
      ],
      "stateMutability": "pure",
      "type": "function"
    },
    {
      "inputs": [
        {
          "internalType": "address",
          "name": "user",
          "type": "address"
        }
      ],
      "name": "getStakingRewards",
      "outputs": [
        {
          "internalType": "uint256",
          "name": "",
          "type": "uint256"
        }
      ],
      "stateMutability": "view",
      "type": "function"
    },
    {
      "inputs": [],
      "name": "getTokenStats",
      "outputs": [
        {
          "components": [
            {
              "internalType": "uint256",
              "name": "totalFeeCollected",
              "type": "uint256"
            },
            {
              "internalType": "uint256",
              "name": "totalBurned",
              "type": "uint256"
            },
            {
              "internalType": "uint256",
              "name": "totalStaked",
              "type": "uint256"
            },
            {
              "internalType": "uint256",
              "name": "uniqueHolders",
              "type": "uint256"
            },
            {
              "internalType": "uint256",
              "name": "transactionCount",
              "type": "uint256"
            }
          ],
          "internalType": "struct FIACoinV5.TokenAnalytics",
          "name": "",
          "type": "tuple"
        }
      ],
      "stateMutability": "view",
      "type": "function"
    },
    {
      "inputs": [
        {
          "internalType": "uint256",
          "name": "count",
          "type": "uint256"
        }
      ],
      "name": "getTopHolders",
      "outputs": [
        {
          "internalType": "address[]",
          "name": "",
          "type": "address[]"
        },
        {
          "internalType": "uint256[]",
          "name": "",
          "type": "uint256[]"
        }
      ],
      "stateMutability": "pure",
      "type": "function"
    },
    {
      "inputs": [
        {
          "internalType": "address",
          "name": "user",
          "type": "address"
        }
      ],
      "name": "getUserStats",
      "outputs": [
        {
          "components": [
            {
              "internalType": "uint256",
              "name": "totalFeesPaid",
              "type": "uint256"
            },
            {
              "internalType": "uint256",
              "name": "totalStakingRewards",
              "type": "uint256"
            },
            {
              "internalType": "uint256",
              "name": "transactionCount",
              "type": "uint256"
            },
            {
              "internalType": "uint256",
              "name": "firstTransactionTime",
              "type": "uint256"
            }
          ],
          "internalType": "struct FIACoinV5.UserAnalytics",
          "name": "",
          "type": "tuple"
        }
      ],
      "stateMutability": "view",
      "type": "function"
    },
    {
      "inputs": [
        {
          "internalType": "address",
          "name": "account",
          "type": "address"
        }
      ],
      "name": "getVotingPower",
      "outputs": [
        {
          "internalType": "uint256",
          "name": "",
          "type": "uint256"
        }
      ],
      "stateMutability": "view",
      "type": "function"
    },
    {
      "inputs": [
        {
          "internalType": "uint256",
          "name": "",
          "type": "uint256"
        },
        {
          "internalType": "address",
          "name": "",
          "type": "address"
        }
      ],
      "name": "hasVoted",
      "outputs": [
        {
          "internalType": "bool",
          "name": "",
          "type": "bool"
        }
      ],
      "stateMutability": "view",
      "type": "function"
    },
    {
      "inputs": [
        {
          "internalType": "address",
          "name": "",
          "type": "address"
        }
      ],
      "name": "isFeeExempt",
      "outputs": [
        {
          "internalType": "bool",
          "name": "",
          "type": "bool"
        }
      ],
      "stateMutability": "view",
      "type": "function"
    },
    {
      "inputs": [],
      "name": "lastFeeChange",
      "outputs": [
        {
          "internalType": "uint256",
          "name": "",
          "type": "uint256"
        }
      ],
      "stateMutability": "view",
      "type": "function"
    },
    {
      "inputs": [
        {
          "internalType": "address",
          "name": "",
          "type": "address"
        }
      ],
      "name": "lastTxBlock",
      "outputs": [
        {
          "internalType": "uint256",
          "name": "",
          "type": "uint256"
        }
      ],
      "stateMutability": "view",
      "type": "function"
    },
    {
      "inputs": [
        {
          "internalType": "address",
          "name": "",
          "type": "address"
        }
      ],
      "name": "lastTxTime",
      "outputs": [
        {
          "internalType": "uint256",
          "name": "",
          "type": "uint256"
        }
      ],
      "stateMutability": "view",
      "type": "function"
    },
    {
      "inputs": [],
      "name": "name",
      "outputs": [
        {
          "internalType": "string",
          "name": "",
          "type": "string"
        }
      ],
      "stateMutability": "view",
      "type": "function"
    },
    {
      "inputs": [],
      "name": "owner",
      "outputs": [
        {
          "internalType": "address",
          "name": "",
          "type": "address"
        }
      ],
      "stateMutability": "view",
      "type": "function"
    },
    {
      "inputs": [],
      "name": "paused",
      "outputs": [
        {
          "internalType": "bool",
          "name": "",
          "type": "bool"
        }
      ],
      "stateMutability": "view",
      "type": "function"
    },
    {
      "inputs": [],
      "name": "proposalCount",
      "outputs": [
        {
          "internalType": "uint256",
          "name": "",
          "type": "uint256"
        }
      ],
      "stateMutability": "view",
      "type": "function"
    },
    {
      "inputs": [
        {
          "internalType": "uint256",
          "name": "",
          "type": "uint256"
        }
      ],
      "name": "proposals",
      "outputs": [
        {
          "internalType": "uint256",
          "name": "id",
          "type": "uint256"
        },
        {
          "internalType": "address",
          "name": "proposer",
          "type": "address"
        },
        {
          "internalType": "string",
          "name": "description",
          "type": "string"
        },
        {
          "internalType": "uint256",
          "name": "forVotes",
          "type": "uint256"
        },
        {
          "internalType": "uint256",
          "name": "againstVotes",
          "type": "uint256"
        },
        {
          "internalType": "uint256",
          "name": "startTime",
          "type": "uint256"
        },
        {
          "internalType": "uint256",
          "name": "endTime",
          "type": "uint256"
        },
        {
          "internalType": "bool",
          "name": "executed",
          "type": "bool"
        },
        {
          "internalType": "enum FIACoinV5.ProposalType",
          "name": "proposalType",
          "type": "uint8"
        },
        {
          "internalType": "bytes",
          "name": "proposalData",
          "type": "bytes"
        }
      ],
      "stateMutability": "view",
      "type": "function"
    },
    {
      "inputs": [
        {
          "internalType": "string",
          "name": "description",
          "type": "string"
        },
        {
          "internalType": "enum FIACoinV5.ProposalType",
          "name": "pType",
          "type": "uint8"
        },
        {
          "internalType": "bytes",
          "name": "data",
          "type": "bytes"
        }
      ],
      "name": "propose",
      "outputs": [
        {
          "internalType": "uint256",
          "name": "",
          "type": "uint256"
        }
      ],
      "stateMutability": "nonpayable",
      "type": "function"
    },
    {
      "inputs": [
        {
          "internalType": "address",
          "name": "to",
          "type": "address"
        },
        {
          "internalType": "uint256",
          "name": "amount",
          "type": "uint256"
        },
        {
          "internalType": "uint256",
          "name": "nonce",
          "type": "uint256"
        }
      ],
      "name": "protectedTransfer",
      "outputs": [
        {
          "internalType": "bool",
          "name": "",
          "type": "bool"
        }
      ],
      "stateMutability": "nonpayable",
      "type": "function"
    },
    {
      "inputs": [
        {
          "internalType": "address",
          "name": "to",
          "type": "address"
        },
        {
          "internalType": "uint256",
          "name": "amount",
          "type": "uint256"
        },
        {
          "internalType": "uint256",
          "name": "interval",
          "type": "uint256"
        },
        {
          "internalType": "uint256",
          "name": "count",
          "type": "uint256"
        }
      ],
      "name": "recurringTransfer",
      "outputs": [
        {
          "internalType": "bytes32",
          "name": "",
          "type": "bytes32"
        }
      ],
      "stateMutability": "nonpayable",
      "type": "function"
    },
    {
      "inputs": [],
      "name": "renounceOwnership",
      "outputs": [],
      "stateMutability": "nonpayable",
      "type": "function"
    },
    {
      "inputs": [],
      "name": "rewardPool",
      "outputs": [
        {
          "internalType": "uint256",
          "name": "",
          "type": "uint256"
        }
      ],
      "stateMutability": "view",
      "type": "function"
    },
    {
      "inputs": [
        {
          "internalType": "address",
          "name": "to",
          "type": "address"
        },
        {
          "internalType": "uint256",
          "name": "amount",
          "type": "uint256"
        },
        {
          "internalType": "uint256",
          "name": "executeTime",
          "type": "uint256"
        }
      ],
      "name": "scheduledTransfer",
      "outputs": [
        {
          "internalType": "bytes32",
          "name": "",
          "type": "bytes32"
        }
      ],
      "stateMutability": "nonpayable",
      "type": "function"
    },
    {
      "inputs": [
        {
          "internalType": "uint256",
          "name": "_treasury",
          "type": "uint256"
        },
        {
          "internalType": "uint256",
          "name": "_founder",
          "type": "uint256"
        },
        {
          "internalType": "uint256",
          "name": "_burn",
          "type": "uint256"
        }
      ],
      "name": "setFeeDistribution",
      "outputs": [],
      "stateMutability": "nonpayable",
      "type": "function"
    },
    {
      "inputs": [
        {
          "internalType": "address",
          "name": "account",
          "type": "address"
        },
        {
          "internalType": "bool",
          "name": "exempt",
          "type": "bool"
        }
      ],
      "name": "setFeeExempt",
      "outputs": [],
      "stateMutability": "nonpayable",
      "type": "function"
    },
    {
      "inputs": [
        {
          "internalType": "uint256",
          "name": "_totalFeeBP",
          "type": "uint256"
        }
      ],
      "name": "setTotalFeeBP",
      "outputs": [],
      "stateMutability": "nonpayable",
      "type": "function"
    },
    {
      "inputs": [
        {
          "internalType": "uint256",
          "name": "maxTxAmount",
          "type": "uint256"
        },
        {
          "internalType": "uint256",
          "name": "maxWalletAmount",
          "type": "uint256"
        },
        {
          "internalType": "uint256",
          "name": "cooldown",
          "type": "uint256"
        },
        {
          "internalType": "bool",
          "name": "active",
          "type": "bool"
        }
      ],
      "name": "setTransactionLimits",
      "outputs": [],
      "stateMutability": "nonpayable",
      "type": "function"
    },
    {
      "inputs": [
        {
          "internalType": "uint256",
          "name": "amount",
          "type": "uint256"
        },
        {
          "internalType": "uint256",
          "name": "lockPeriod",
          "type": "uint256"
        },
        {
          "internalType": "bool",
          "name": "autoCompound",
          "type": "bool"
        }
      ],
      "name": "stake",
      "outputs": [],
      "stateMutability": "nonpayable",
      "type": "function"
    },
    {
      "inputs": [
        {
          "internalType": "uint256",
          "name": "",
          "type": "uint256"
        }
      ],
      "name": "stakingAPY",
      "outputs": [
        {
          "internalType": "uint256",
          "name": "",
          "type": "uint256"
        }
      ],
      "stateMutability": "view",
      "type": "function"
    },
    {
      "inputs": [],
      "name": "symbol",
      "outputs": [
        {
          "internalType": "string",
          "name": "",
          "type": "string"
        }
      ],
      "stateMutability": "view",
      "type": "function"
    },
    {
      "inputs": [],
      "name": "tokenStats",
      "outputs": [
        {
          "internalType": "uint256",
          "name": "totalFeeCollected",
          "type": "uint256"
        },
        {
          "internalType": "uint256",
          "name": "totalBurned",
          "type": "uint256"
        },
        {
          "internalType": "uint256",
          "name": "totalStaked",
          "type": "uint256"
        },
        {
          "internalType": "uint256",
          "name": "uniqueHolders",
          "type": "uint256"
        },
        {
          "internalType": "uint256",
          "name": "transactionCount",
          "type": "uint256"
        }
      ],
      "stateMutability": "view",
      "type": "function"
    },
    {
      "inputs": [],
      "name": "totalFeeBP",
      "outputs": [
        {
          "internalType": "uint256",
          "name": "",
          "type": "uint256"
        }
      ],
      "stateMutability": "view",
      "type": "function"
    },
    {
      "inputs": [],
      "name": "totalStaked",
      "outputs": [
        {
          "internalType": "uint256",
          "name": "",
          "type": "uint256"
        }
      ],
      "stateMutability": "view",
      "type": "function"
    },
    {
      "inputs": [],
      "name": "totalSupply",
      "outputs": [
        {
          "internalType": "uint256",
          "name": "",
          "type": "uint256"
        }
      ],
      "stateMutability": "view",
      "type": "function"
    },
    {
      "inputs": [
        {
          "internalType": "address",
          "name": "to",
          "type": "address"
        },
        {
          "internalType": "uint256",
          "name": "value",
          "type": "uint256"
        }
      ],
      "name": "transfer",
      "outputs": [
        {
          "internalType": "bool",
          "name": "",
          "type": "bool"
        }
      ],
      "stateMutability": "nonpayable",
      "type": "function"
    },
    {
      "inputs": [
        {
          "internalType": "address",
          "name": "from",
          "type": "address"
        },
        {
          "internalType": "address",
          "name": "to",
          "type": "address"
        },
        {
          "internalType": "uint256",
          "name": "value",
          "type": "uint256"
        }
      ],
      "name": "transferFrom",
      "outputs": [
        {
          "internalType": "bool",
          "name": "",
          "type": "bool"
        }
      ],
      "stateMutability": "nonpayable",
      "type": "function"
    },
    {
      "inputs": [
        {
          "internalType": "address",
          "name": "newOwner",
          "type": "address"
        }
      ],
      "name": "transferOwnership",
      "outputs": [],
      "stateMutability": "nonpayable",
      "type": "function"
    },
    {
      "inputs": [
        {
          "internalType": "address",
          "name": "to",
          "type": "address"
        },
        {
          "internalType": "uint256",
          "name": "amount",
          "type": "uint256"
        },
        {
          "internalType": "bytes",
          "name": "data",
          "type": "bytes"
        }
      ],
      "name": "transferWithData",
      "outputs": [
        {
          "internalType": "bool",
          "name": "",
          "type": "bool"
        }
      ],
      "stateMutability": "nonpayable",
      "type": "function"
    },
    {
      "inputs": [],
      "name": "treasury",
      "outputs": [
        {
          "internalType": "address",
          "name": "",
          "type": "address"
        }
      ],
      "stateMutability": "view",
      "type": "function"
    },
    {
      "inputs": [],
      "name": "txLimits",
      "outputs": [
        {
          "internalType": "uint256",
          "name": "maxTxAmount",
          "type": "uint256"
        },
        {
          "internalType": "uint256",
          "name": "maxWalletAmount",
          "type": "uint256"
        },
        {
          "internalType": "uint256",
          "name": "txCooldown",
          "type": "uint256"
        },
        {
          "internalType": "bool",
          "name": "limitsActive",
          "type": "bool"
        }
      ],
      "stateMutability": "view",
      "type": "function"
    },
    {
      "inputs": [
        {
          "internalType": "uint256",
          "name": "stakeIndex",
          "type": "uint256"
        }
      ],
      "name": "unstake",
      "outputs": [],
      "stateMutability": "nonpayable",
      "type": "function"
    },
    {
      "inputs": [
        {
          "internalType": "bytes32",
          "name": "",
          "type": "bytes32"
        }
      ],
      "name": "usedNonces",
      "outputs": [
        {
          "internalType": "bool",
          "name": "",
          "type": "bool"
        }
      ],
      "stateMutability": "view",
      "type": "function"
    },
    {
      "inputs": [
        {
          "internalType": "address",
          "name": "",
          "type": "address"
        },
        {
          "internalType": "uint256",
          "name": "",
          "type": "uint256"
        }
      ],
      "name": "userStakes",
      "outputs": [
        {
          "internalType": "uint256",
          "name": "amount",
          "type": "uint256"
        },
        {
          "internalType": "uint256",
          "name": "stakingTime",
          "type": "uint256"
        },
        {
          "internalType": "uint256",
          "name": "lastRewardClaim",
          "type": "uint256"
        },
        {
          "internalType": "uint256",
          "name": "lockPeriod",
          "type": "uint256"
        },
        {
          "internalType": "bool",
          "name": "autoCompound",
          "type": "bool"
        }
      ],
      "stateMutability": "view",
      "type": "function"
    },
    {
      "inputs": [
        {
          "internalType": "address",
          "name": "",
          "type": "address"
        }
      ],
      "name": "userStats",
      "outputs": [
        {
          "internalType": "uint256",
          "name": "totalFeesPaid",
          "type": "uint256"
        },
        {
          "internalType": "uint256",
          "name": "totalStakingRewards",
          "type": "uint256"
        },
        {
          "internalType": "uint256",
          "name": "transactionCount",
          "type": "uint256"
        },
        {
          "internalType": "uint256",
          "name": "firstTransactionTime",
          "type": "uint256"
        }
      ],
      "stateMutability": "view",
      "type": "function"
    },
    {
      "inputs": [
        {
          "internalType": "uint256",
          "name": "proposalId",
          "type": "uint256"
        },
        {
          "internalType": "bool",
          "name": "support",
          "type": "bool"
        }
      ],
      "name": "vote",
      "outputs": [],
      "stateMutability": "nonpayable",
      "type": "function"
    },
    {
      "inputs": [
        {
          "internalType": "uint256",
          "name": "",
          "type": "uint256"
        },
        {
          "internalType": "address",
          "name": "",
          "type": "address"
        }
      ],
      "name": "votingPower",
      "outputs": [
        {
          "internalType": "uint256",
          "name": "",
          "type": "uint256"
        }
      ],
      "stateMutability": "view",
      "type": "function"
    }
  ],
  "bytecode": "0x6080604052606460075560326008556014600955601e600a553480156200002557600080fd5b50604051620051f5380380620051f5833981016040819052620000489162000a87565b336040518060400160405280600a815260200169466961436f696e20763560b01b8152506040518060400160405280600381526020016246494160e81b815250816003908162000099919062000b63565b506004620000a8828262000b63565b5050506001600160a01b038116620000db57604051631e4fbdf760e01b8152600060048201526024015b60405180910390fd5b620000e68162000363565b5060016006556001600160a01b038216158015906200010d57506001600160a01b03811615155b6200015b5760405162461bcd60e51b815260206004820152601860248201527f5a65726f2061646472657373206e6f7420616c6c6f77656400000000000000006044820152606401620000d2565b600c80546001600160a01b038085166001600160a01b031992831617909255600d80549284169290911691909117905542600b55600754600a54600954600854620001a7919062000c45565b620001b3919062000c45565b14620002025760405162461bcd60e51b815260206004820152601860248201527f496e76616c69642066656520646973747269627574696f6e00000000000000006044820152606401620000d2565b601660205261012c7f012c095d9cfb6eb5a0b0ea935ebeeac1ecfd66be17bd770339e4c9979ce5b127556101f47f924e7ee3b11082ca149671fd87a9194c3e904c312604f961f0dc374fc49b35be556102bc7f2e1261ccd701e1d80b60038cccc2941427ac02c6e0c41706fa03303eb9cbecc0556301e133806000526103847fadf673246e2b9aa3e39d392da41f5f88c1b1ebbc24904b230cc0e133b76a4b6355604080516080810190915280620002cb6103e86d314dc6448d9338c15b0a0000000062000c61565b8152602001620002eb60646d314dc6448d9338c15b0a0000000062000c61565b8152603c6020808301919091526001604092830152825160175582015160185581015160195560600151601a805460ff191691151591909117905562000340336d314dc6448d9338c15b0a00000000620003b5565b505060016021553360009081526023602052604090204260039091015562000cd0565b600580546001600160a01b038381166001600160a01b0319831681179093556040519116919082907f8be0079c531659141344cd1fd0a4f28419497f9722a3daafe3b4186f6b6457e090600090a35050565b6001600160a01b038216620003e15760405163ec442f0560e01b815260006004820152602401620000d2565b620003ef60008383620003f3565b5050565b620003fd620007ad565b6001600160a01b038316158015906200041e57506001600160a01b03821615155b15620004315762000431838383620007e2565b6001600160a01b03831615806200044f57506001600160a01b038216155b806200045b5750600754155b806200047f57506001600160a01b0383166000908152600e602052604090205460ff165b80620004a357506001600160a01b0382166000908152600e602052604090205460ff165b156200052057620004b68383836200088a565b6001600160a01b03831615801590620004d757506001600160a01b03821615155b156200051b57816001600160a01b0316836001600160a01b0316600080516020620051d5833981519152836040516200051291815260200190565b60405180910390a35b505050565b601a5460ff1680156200053c57506001600160a01b0383163014155b80156200055257506001600160a01b0382163014155b1562000604576200056381620009b0565b6018548162000587846001600160a01b031660009081526020819052604090205490565b62000593919062000c45565b111562000604576001600160a01b0382166000908152600e602052604090205460ff16620006045760405162461bcd60e51b815260206004820152601560248201527f57616c6c6574206c696d697420657863656564656400000000000000000000006044820152606401620000d2565b60006127106007548362000619919062000c84565b62000625919062000c61565b90506000600754600854836200063c919062000c84565b62000648919062000c61565b90506000600754600954846200065f919062000c84565b6200066b919062000c61565b90506000816200067c848662000c9e565b62000688919062000c9e565b9050600062000698858762000c9e565b90508315620006bb57600c54620006bb9089906001600160a01b0316866200088a565b8215620006dc57600d54620006dc9089906001600160a01b0316856200088a565b81156200070c57620006ef888362000a30565b81601e600101600082825462000706919062000c45565b90915550505b620007198888836200088a565b84601e600001600082825462000730919062000c45565b90915550506001600160a01b038816600090815260236020526040812080548792906200075f90849062000c45565b92505081905550866001600160a01b0316886001600160a01b0316600080516020620051d5833981519152836040516200079b91815260200190565b60405180910390a35050505050505050565b620007c1600554600160a01b900460ff1690565b15620007e05760405163d93c066560e01b815260040160405180910390fd5b565b60228054906000620007f48362000cb4565b90915550506001600160a01b0383166000908152602360205260408120600201805491620008228362000cb4565b90915550506001600160a01b03821660009081526023602052604081206003015490036200087f576001600160a01b0382166000908152602360205260408120426003909101556021805491620008798362000cb4565b91905055505b505060145460205550565b6001600160a01b038316620008b9578060026000828254620008ad919062000c45565b909155506200092d9050565b6001600160a01b038316600090815260208190526040902054818110156200090e5760405163391434e360e21b81526001600160a01b03851660048201526024810182905260448101839052606401620000d2565b6001600160a01b03841660009081526020819052604090209082900390555b6001600160a01b0382166200094b576002805482900390556200096a565b6001600160a01b03821660009081526020819052604090208054820190555b816001600160a01b0316836001600160a01b03167fddf252ad1be2c89b69c2b068fc378daa952ba7f163c4a11628f55a4df523b3ef836040516200051291815260200190565b601a5460ff168015620009d35750336000908152600e602052604090205460ff16155b1562000a2d5760175481111562000a2d5760405162461bcd60e51b815260206004820181905260248201527f5472616e73616374696f6e20616d6f756e742065786365656473206c696d69746044820152606401620000d2565b50565b6001600160a01b03821662000a5c57604051634b637e8f60e11b815260006004820152602401620000d2565b620003ef82600083620003f3565b80516001600160a01b038116811462000a8257600080fd5b919050565b6000806040838503121562000a9b57600080fd5b62000aa68362000a6a565b915062000ab66020840162000a6a565b90509250929050565b634e487b7160e01b600052604160045260246000fd5b600181811c9082168062000aea57607f821691505b60208210810362000b0b57634e487b7160e01b600052602260045260246000fd5b50919050565b601f8211156200051b57600081815260208120601f850160051c8101602086101562000b3a5750805b601f850160051c820191505b8181101562000b5b5782815560010162000b46565b505050505050565b81516001600160401b0381111562000b7f5762000b7f62000abf565b62000b978162000b90845462000ad5565b8462000b11565b602080601f83116001811462000bcf576000841562000bb65750858301515b600019600386901b1c1916600185901b17855562000b5b565b600085815260208120601f198616915b8281101562000c005788860151825594840194600190910190840162000bdf565b508582101562000c1f5787850151600019600388901b60f8161c191681555b5050505050600190811b01905550565b634e487b7160e01b600052601160045260246000fd5b8082018082111562000c5b5762000c5b62000c2f565b92915050565b60008262000c7f57634e487b7160e01b600052601260045260246000fd5b500490565b808202811582820484141762000c5b5762000c5b62000c2f565b8181038181111562000c5b5762000c5b62000c2f565b60006001820162000cc95762000cc962000c2f565b5060010190565b6144f58062000ce06000396000f3fe6080604052600436106104525760003560e01c80637c6e5db71161023f578063b1610d7e11610139578063d90125a5116100b6578063f270fde41161007a578063f270fde414610e4e578063f2fde38b14610e96578063f614134514610eb6578063fe0d94c114610ecc578063feb6172414610eec57600080fd5b8063d90125a514610d8e578063da35c66414610dc6578063dd62ed3e14610ddc578063e37c3a5514610e22578063ee8a7c1514610e3957600080fd5b8063bb4d4436116100fd578063bb4d443614610cea578063be8a361f14610d0a578063c9d27afe14610d21578063ceb88a1614610d41578063d49fab8a14610d6e57600080fd5b8063b1610d7e14610c49578063b5d5b5fa14610c60578063b6b80605146106bd578063b95ffbce14610caa578063ba8e568f14610cca57600080fd5b8063902d55a5116101c7578063a6c266031161018b578063a6c2660314610b7c578063a852afd314610b9a578063a9059cbb14610bba578063ad1cecb214610bda578063b0dfd2e614610bfa57600080fd5b8063902d55a514610af257806395d89b4114610b145780639b22dd7a14610b295780639f3d5f4a14610b49578063a23d3c3514610b5c57600080fd5b80638893002f1161020e5780638893002f14610a1257806388d695b214610a325780638a65d87414610a525780638da5cb5b14610ab45780638ebfc79614610ad257600080fd5b80637c6e5db7146109a1578063817b1cd2146109b857806382865218146109ce578063875bb4e2146109e557600080fd5b806337f135d7116103505780635296a431116102d857806366666aa91161029c57806366666aa91461092b578063695056881461094157806370a0823114610957578063715018a6146109775780637c4ccbea1461098c57600080fd5b80635296a4311461087e57806355ef9b5e1461089e578063561b2463146108b45780635c975abb146108d457806361d027b3146108f357600080fd5b80634a4e3bd51161031f5780634a4e3bd5146107c95780634aa21c75146107de5780634e43603a146107fe57806351383f981461085157806351858e271461086957600080fd5b806337f135d7146107275780633f4218e01461073e57806342966c681461076e578063438596321461078e57600080fd5b806318160ddd116103de5780632535f762116103a25780632535f7621461067d57806328d4ca881461069d57806329d1f4d6146106bd5780632e17de78146106eb578063313ce5671461070b57600080fd5b806318160ddd146105e85780631f1f5bb3146105fd578063207b75511461061d57806321efe2001461063d57806323b872dd1461065d57600080fd5b8063097cd9bf11610425578063097cd9bf1461050a5780630dbd61e414610561578063118725ce14610581578063120a8151146105a557806317d63605146105bb57600080fd5b8063013cf08b1461045757806306fdde0314610496578063095ea7b3146104b85780630962ef79146104e8575b600080fd5b34801561046357600080fd5b50610477610472366004613a3b565b610f1c565b60405161048d9a99989796959493929190613ab0565b60405180910390f35b3480156104a257600080fd5b506104ab611091565b60405161048d9190613b46565b3480156104c457600080fd5b506104d86104d3366004613b75565b611123565b604051901515815260200161048d565b3480156104f457600080fd5b50610508610503366004613a3b565b61113d565b005b34801561051657600080fd5b5061051f61115b565b60405161048d9190600060a082019050825182526020830151602083015260408301516040830152606083015160608301526080830151608083015292915050565b34801561056d57600080fd5b5061050861057c366004613c95565b6111c4565b34801561058d57600080fd5b5061059760095481565b60405190815260200161048d565b3480156105b157600080fd5b50610597600a5481565b3480156105c757600080fd5b506105976105d6366004613ce3565b601d6020526000908152604090205481565b3480156105f457600080fd5b50600254610597565b34801561060957600080fd5b50610508610618366004613a3b565b6112a3565b34801561062957600080fd5b50610508610638366004613d00565b6113a0565b34801561064957600080fd5b50610597610658366004613ce3565b6113eb565b34801561066957600080fd5b506104d8610678366004613d3f565b611482565b34801561068957600080fd5b506104d8610698366004613df8565b6114a6565b3480156106a957600080fd5b506105976106b8366004613e51565b6114bd565b3480156106c957600080fd5b506106dd6106d8366004613a3b565b611598565b60405161048d929190613e86565b3480156106f757600080fd5b50610508610706366004613a3b565b611633565b34801561071757600080fd5b506040516012815260200161048d565b34801561073357600080fd5b506105976202a30081565b34801561074a57600080fd5b506104d8610759366004613ce3565b600e6020526000908152604090205460ff1681565b34801561077a57600080fd5b50610508610789366004613a3b565b6117f4565b34801561079a57600080fd5b506104d86107a9366004613f0a565b601160209081526000928352604080842090915290825290205460ff1681565b3480156107d557600080fd5b5061050861181b565b3480156107ea57600080fd5b506105086107f9366004613b75565b611881565b34801561080a57600080fd5b5061081e610819366004613ce3565b6118ee565b60405161048d91908151815260208083015190820152604080830151908201526060918201519181019190915260800190565b34801561085d57600080fd5b506105976301e1338081565b34801561087557600080fd5b50610508611967565b34801561088a57600080fd5b50610508610899366004613f3a565b6119c5565b3480156108aa57600080fd5b5061059760085481565b3480156108c057600080fd5b506105086108cf366004613f81565b6119e5565b3480156108e057600080fd5b50600554600160a01b900460ff166104d8565b3480156108ff57600080fd5b50600c54610913906001600160a01b031681565b6040516001600160a01b03909116815260200161048d565b34801561093757600080fd5b5061059760155481565b34801561094d57600080fd5b50610597600b5481565b34801561096357600080fd5b50610597610972366004613ce3565b611be7565b34801561098357600080fd5b50610508611c02565b34801561099857600080fd5b5061059760c881565b3480156109ad57600080fd5b5061059762278d0081565b3480156109c457600080fd5b5061059760145481565b3480156109da57600080fd5b5061059762ed4e0081565b3480156109f157600080fd5b50610597610a00366004613a3b565b60166020526000908152604090205481565b348015610a1e57600080fd5b506104d8610a2d366004613e51565b611c16565b348015610a3e57600080fd5b506104d8610a4d366004614011565b611dbf565b348015610a5e57600080fd5b50610a94610a6d366004613ce3565b60236020526000908152604090208054600182015460028301546003909301549192909184565b60408051948552602085019390935291830152606082015260800161048d565b348015610ac057600080fd5b506005546001600160a01b0316610913565b348015610ade57600080fd5b50610508610aed36600461406b565b611f62565b348015610afe57600080fd5b506105976d314dc6448d9338c15b0a0000000081565b348015610b2057600080fd5b506104ab611fc9565b348015610b3557600080fd5b50610597610b44366004614097565b611fd8565b610508610b573660046140d2565b6120c5565b348015610b6857600080fd5b50600d54610913906001600160a01b031681565b348015610b8857600080fd5b5061059769d3c21bcecceda100000081565b348015610ba657600080fd5b50610508610bb5366004613a3b565b61216b565b348015610bc657600080fd5b506104d8610bd5366004613b75565b6121b0565b348015610be657600080fd5b50610597610bf53660046140f9565b6121be565b348015610c0657600080fd5b50601e54601f54602054602154602254610c21949392919085565b604080519586526020860194909452928401919091526060830152608082015260a00161048d565b348015610c5557600080fd5b5061059762093a8081565b348015610c6c57600080fd5b50610c80610c7b366004613b75565b6123db565b6040805195865260208601949094529284019190915260608301521515608082015260a00161048d565b348015610cb657600080fd5b50610508610cc5366004613a3b565b61242c565b348015610cd657600080fd5b50610508610ce5366004614182565b612479565b348015610cf657600080fd5b50610597610d05366004613ce3565b612545565b348015610d1657600080fd5b506105976201518081565b348015610d2d57600080fd5b50610508610d3c3660046141ae565b612550565b348015610d4d57600080fd5b50610597610d5c366004613ce3565b601b6020526000908152604090205481565b348015610d7a57600080fd5b50610508610d893660046141d1565b612770565b348015610d9a57600080fd5b50610597610da9366004613f0a565b601260209081526000928352604080842090915290825290205481565b348015610dd257600080fd5b50610597600f5481565b348015610de857600080fd5b50610597610df7366004614208565b6001600160a01b03918216600090815260016020908152604080832093909416825291909152205490565b348015610e2e57600080fd5b506105976276a70081565b348015610e4557600080fd5b50610597600a81565b348015610e5a57600080fd5b50601754601854601954601a54610e749392919060ff1684565b604080519485526020850193909352918301521515606082015260800161048d565b348015610ea257600080fd5b50610508610eb1366004613ce3565b6128cd565b348015610ec257600080fd5b5061059760075481565b348015610ed857600080fd5b50610508610ee7366004613a3b565b612908565b348015610ef857600080fd5b506104d8610f07366004613a3b565b601c6020526000908152604090205460ff1681565b60106020526000908152604090208054600182015460028301805492936001600160a01b0390921692610f4e90614236565b80601f0160208091040260200160405190810160405280929190818152602001828054610f7a90614236565b8015610fc75780601f10610f9c57610100808354040283529160200191610fc7565b820191906000526020600020905b815481529060010190602001808311610faa57829003601f168201915b5050506003840154600485015460058601546006870154600788015460088901805498999598949750929550909360ff808316946101009093041692909161100e90614236565b80601f016020809104026020016040519081016040528092919081815260200182805461103a90614236565b80156110875780601f1061105c57610100808354040283529160200191611087565b820191906000526020600020905b81548152906001019060200180831161106a57829003601f168201915b505050505090508a565b6060600380546110a090614236565b80601f01602080910402602001604051908101604052809291908181526020018280546110cc90614236565b80156111195780601f106110ee57610100808354040283529160200191611119565b820191906000526020600020905b8154815290600101906020018083116110fc57829003601f168201915b5050505050905090565b600033611131818585612d1a565b60019150505b92915050565b611145612d27565b61114e81612d51565b6111586001600655565b50565b61118d6040518060a0016040528060008152602001600081526020016000815260200160008152602001600081525090565b506040805160a081018252601e548152601f5460208083019190915254918101919091526021546060820152602254608082015290565b6111cc612f10565b60005b825181101561129e5781600e60008584815181106111ef576111ef614270565b60200260200101516001600160a01b03166001600160a01b0316815260200190815260200160002060006101000a81548160ff02191690831515021790555082818151811061124057611240614270565b60200260200101516001600160a01b03167f210f2a4a589e25d95b24cbdb060d26ae79bbe123a564d0f973503d48badd00ca83604051611284911515815260200190565b60405180910390a2806112968161429c565b9150506111cf565b505050565b6112ab612f10565b60c88111156112f75760405162461bcd60e51b81526020600482015260136024820152724665652065786365656473206d6178696d756d60681b60448201526064015b60405180910390fd5b62015180600b5461130891906142b5565b4210156113575760405162461bcd60e51b815260206004820152601760248201527f466565206368616e676520746f6f206672657175656e7400000000000000000060448201526064016112ee565b600780549082905542600b5560408051828152602081018490527fcf4c3ba0667a6e28c2746a4ee8d23efa18b2ca17591c2a22c36773a0232661d8910160405180910390a15050565b6113a8612f10565b60408051608081018252858152602081018590529081018390529015156060909101819052601793909355601891909155601955601a805460ff19169091179055565b600080805b6001600160a01b03841660009081526013602052604090205481101561147b576001600160a01b038416600090815260136020526040812080548390811061143a5761143a614270565b90600052602060002090600502016000015411156114695761145c8482612f3d565b61146690836142b5565b91505b806114738161429c565b9150506113f0565b5092915050565b60003361149085828561302d565b61149b8585856130ac565b506001949350505050565b60006114b33385856130ac565b5060019392505050565b600042821161150e5760405162461bcd60e51b815260206004820152601e60248201527f457865637574652074696d65206d75737420626520696e20667574757265000060448201526064016112ee565b8261151833611be7565b10156115365760405162461bcd60e51b81526004016112ee906142c8565b6040516bffffffffffffffffffffffff1933606090811b8216602084015286901b166034820152604881018490526068810183905242608882015260009060a80160408051808303601f19018152919052805160209091012095945050505050565b60608060008367ffffffffffffffff8111156115b6576115b6613ba1565b6040519080825280602002602001820160405280156115df578160200160208202803683370190505b50905060008467ffffffffffffffff8111156115fd576115fd613ba1565b604051908082528060200260200182016040528015611626578160200160208202803683370190505b5091959194509092505050565b61163b612d27565b33600090815260136020526040902054811061168f5760405162461bcd60e51b8152602060048201526013602482015272092dcecc2d8d2c840e6e8c2d6ca40d2dcc8caf606b1b60448201526064016112ee565b3360009081526013602052604081208054839081106116b0576116b0614270565b9060005260206000209060050201905060008160000154116117145760405162461bcd60e51b815260206004820152601760248201527f5374616b6520616c72656164792077697468647261776e00000000000000000060448201526064016112ee565b600081600101544261172691906142f6565b8254600384015491925090819083101561177a576000606461174984600a614309565b6117539190614320565b905061175f81846142f6565b9150806015600082825461177391906142b5565b9091555050505b61178385612d51565b60008085556014805484929061179a9084906142f6565b909155506117ab90503033836130ac565b604080518281526020810187905233917f7fc4727e062e336010f2c282598ef5f14facb3de68cf8195c2f23e1454b2b74e910160405180910390a2505050506111586001600655565b6117fe338261310b565b80601e600101600082825461181391906142b5565b909155505050565b611823612f10565b61182b613141565b6040805181815260079181019190915266554e504155534560c81b60608201523360208201527f2a09e26ec96218a3a144df2e04de096b7f0410106a4caff3cdfa5d667e604f2a906080015b60405180910390a1565b6001600160a01b0382166118ca5760405162461bcd60e51b815260206004820152601060248201526f125b9d985b1a59081c1c9bdd1bd8dbdb60821b60448201526064016112ee565b600081116118ea5760405162461bcd60e51b81526004016112ee90614342565b5050565b6119196040518060800160405280600081526020016000815260200160008152602001600081525090565b506001600160a01b0316600090815260236020908152604091829020825160808101845281548152600182015492810192909252600281015492820192909252600390910154606082015290565b61196f612f10565b611977613191565b6040805181815260059181019190915264504155534560d81b60608201523360208201527f2a09e26ec96218a3a144df2e04de096b7f0410106a4caff3cdfa5d667e604f2a90608001611877565b600082116118ea5760405162461bcd60e51b81526004016112ee90614342565b6119ed612d27565b60008311611a3d5760405162461bcd60e51b815260206004820152601760248201527f416d6f756e74206d75737420626520706f73697469766500000000000000000060448201526064016112ee565b62278d00821480611a5057506276a70082145b80611a5d575062ed4e0082145b80611a6b57506301e1338082145b611aad5760405162461bcd60e51b8152602060048201526013602482015272125b9d985b1a59081b1bd8dac81c195c9a5bd9606a1b60448201526064016112ee565b82611ab733611be7565b1015611ad55760405162461bcd60e51b81526004016112ee906142c8565b611ae03330856130ac565b336000908152601360209081526040808320815160a081018352878152428185018181529382019081526060820188815287151560808401908152845460018082018755958952968820935160059097029093019586559351928501929092559051600284015590516003830155516004909101805460ff191691151591909117905560148054859290611b759084906142b5565b909155505033600090815260136020526040812054611b96906001906142f6565b604080518681526020810186905290810182905290915033907fb4caaf29adda3eefee3ad552a8e85058589bf834c7466cae4ee58787f70589ed9060600160405180910390a25061129e6001600655565b6001600160a01b031660009081526020819052604090205490565b611c0a612f10565b611c1460006131d4565b565b601a54600090829060ff1615611dab57336000908152601b60205260409020544311611c7d5760405162461bcd60e51b815260206004820152601660248201527529b0b6b290313637b1b5903a3930b739b0b1ba34b7b760511b60448201526064016112ee565b6040805133602080830191909152818301849052825180830384018152606090920183528151918101919091206000908152601c909152205460ff1615611cf35760405162461bcd60e51b815260206004820152600a602482015269139bdb98d9481d5cd95960b21b60448201526064016112ee565b601954336000908152601d6020526040902054611d1091906142b5565b421015611d525760405162461bcd60e51b815260206004820152601060248201526f10dbdbdb191bdddb881b9bdd081b595d60821b60448201526064016112ee565b336000818152601b602090815260408083204390558051808301859052808201869052815180820383018152606090910182528051908301208352601c8252808320805460ff19166001179055928252601d9052204290555b611db484613226565b61149b3386866130ac565b60008151835114611e0a5760405162461bcd60e51b8152602060048201526015602482015274082e4e4c2f240d8cadccee8d040dad2e6dac2e8c6d605b1b60448201526064016112ee565b6000835111611e4a5760405162461bcd60e51b815260206004820152600c60248201526b456d7074792061727261797360a01b60448201526064016112ee565b6000805b8351811015611e9057838181518110611e6957611e69614270565b602002602001015182611e7c91906142b5565b915080611e888161429c565b915050611e4e565b5080611e9b33611be7565b1015611eb95760405162461bcd60e51b81526004016112ee906142c8565b60005b8451811015611f1457611f0233868381518110611edb57611edb614270565b6020026020010151868481518110611ef557611ef5614270565b60200260200101516130ac565b80611f0c8161429c565b915050611ebc565b50835160405133917f762d9d59f4cdcadad8125dfd5b9228c3f3710c17cd800b7e446f4bacba81a69f91611f5091858252602082015260400190565b60405180910390a25060019392505050565b611f6a612f10565b6001600160a01b0382166000818152600e6020908152604091829020805460ff191685151590811790915591519182527f210f2a4a589e25d95b24cbdb060d26ae79bbe123a564d0f973503d48badd00ca910160405180910390a25050565b6060600480546110a090614236565b60008083118015611fe95750600082115b61202a5760405162461bcd60e51b8152602060048201526012602482015271496e76616c696420706172616d657465727360701b60448201526064016112ee565b6120348285614309565b61203d33611be7565b101561205b5760405162461bcd60e51b81526004016112ee906142c8565b6040516bffffffffffffffffffffffff1933606090811b8216602084015287901b1660348201526048810185905260688101849052608881018390524260a882015260009060c80160408051808303601f1901815291905280516020909101209695505050505050565b4683036121015760405162461bcd60e51b815260206004820152600a60248201526929b0b6b29031b430b4b760b11b60448201526064016112ee565b6001600160a01b03821661214b5760405162461bcd60e51b8152602060048201526011602482015270125b9d985b1a59081c9958da5c1a595b9d607a1b60448201526064016112ee565b6000811161129e5760405162461bcd60e51b81526004016112ee90614342565b600081116111585760405162461bcd60e51b8152602060048201526012602482015271125b9d985b1a590818dbdb1b185d195c985b60721b60448201526064016112ee565b6000336111318185856130ac565b600069d3c21bcecceda10000006121d433611be7565b101561222c5760405162461bcd60e51b815260206004820152602160248201527f496e73756666696369656e742062616c616e636520666f722070726f706f73616044820152601b60fa1b60648201526084016112ee565b600f80546000918261223d8361429c565b919050559050604051806101400160405280828152602001336001600160a01b03168152602001868152602001600081526020016000815260200142815260200162093a804261228d91906142b5565b8152600060208201526040018560038111156122ab576122ab613a9a565b8152602090810185905260008381526010825260409081902083518155918301516001830180546001600160a01b0319166001600160a01b0390921691909117905582015160028201906122ff90826143b8565b50606082015181600301556080820151816004015560a0820151816005015560c0820151816006015560e08201518160070160006101000a81548160ff0219169083151502179055506101008201518160070160016101000a81548160ff0219169083600381111561237357612373613a9a565b0217905550610120820151600882019061238d90826143b8565b50905050336001600160a01b0316817f7585f467599d0f008985f231af99293be388626ac16ca59505c2f8f88969cd63876040516123cb9190613b46565b60405180910390a3949350505050565b601360205281600052604060002081815481106123f757600080fd5b600091825260209091206005909102018054600182015460028301546003840154600490940154929550909350919060ff1685565b612434612f10565b8061243e33611be7565b101561245c5760405162461bcd60e51b81526004016112ee906142c8565b6124673330836130ac565b806015600082825461181391906142b5565b612481612f10565b6007548161248f84866142b5565b61249991906142b5565b146124f05760405162461bcd60e51b815260206004820152602160248201527f446973747269627574696f6e206d75737420657175616c20746f74616c2066656044820152606560f81b60648201526084016112ee565b60088390556009829055600a81905560408051848152602081018490529081018290527f69fc4c7ba13251e049284d74af6f22b2804db0152deb918f6cf17451917fe97f9060600160405180910390a1505050565b600061113782611be7565b600f5482106125975760405162461bcd60e51b8152602060048201526013602482015272125b9d985b1a59081c1c9bdc1bdcd85b081251606a1b60448201526064016112ee565b600082815260116020908152604080832033845290915290205460ff16156125f15760405162461bcd60e51b815260206004820152600d60248201526c105b1c9958591e481d9bdd1959609a1b60448201526064016112ee565b6000828152601060205260409020600601544211156126485760405162461bcd60e51b8152602060048201526013602482015272159bdd1a5b99c81c195c9a5bd908195b991959606a1b60448201526064016112ee565b600061265333611be7565b9050600081116126975760405162461bcd60e51b815260206004820152600f60248201526e2737903b37ba34b733903837bbb2b960891b60448201526064016112ee565b600083815260116020908152604080832033808552908352818420805460ff19166001179055868452601283528184209084529091529020819055811561270457600083815260106020526040812060030180548392906126f99084906142b5565b9091555061272b9050565b600083815260106020526040812060040180548392906127259084906142b5565b90915550505b60408051831515815260208101839052339185917fcbdf6214089cba887ecbf35a0b6a734589959c9763342c756bb2a80ca2bc9f6e91015b60405180910390a3505050565b80518251146127b95760405162461bcd60e51b8152602060048201526015602482015274082e4e4c2f240d8cadccee8d040dad2e6dac2e8c6d605b1b60448201526064016112ee565b6000805b83518110156127ff578381815181106127d8576127d8614270565b6020026020010151826127eb91906142b5565b9150806127f78161429c565b9150506127bd565b508061280a33611be7565b10156128285760405162461bcd60e51b81526004016112ee906142c8565b60005b83518110156128845761287284828151811061284957612849614270565b602002602001015184838151811061286357612863614270565b602002602001015160006119e5565b8061287c8161429c565b91505061282b565b50825160405133917f3ecff5ef3d4cd5a6ae5e312eb3120f011fbdec5c46a2c91b50b2524438e8fcee916128c091858252602082015260400190565b60405180910390a2505050565b6128d5612f10565b6001600160a01b0381166128ff57604051631e4fbdf760e01b8152600060048201526024016112ee565b611158816131d4565b600f54811061294f5760405162461bcd60e51b8152602060048201526013602482015272125b9d985b1a59081c1c9bdc1bdcd85b081251606a1b60448201526064016112ee565b6000818152601060205260409020600781015460ff16156129a55760405162461bcd60e51b815260206004820152601060248201526f105b1c9958591e48195e1958dd5d195960821b60448201526064016112ee565b806006015442116129ee5760405162461bcd60e51b8152602060048201526013602482015272566f74696e67207374696c6c2061637469766560681b60448201526064016112ee565b6202a3008160060154612a0191906142b5565b4211612a4f5760405162461bcd60e51b815260206004820152601760248201527f457865637574696f6e2064656c6179206e6f74206d657400000000000000000060448201526064016112ee565b600081600401548260030154612a6591906142b5565b905060006064600a612a7660025490565b612a809190614309565b612a8a9190614320565b905080821015612acd5760405162461bcd60e51b815260206004820152600e60248201526d145d5bdc9d5b481b9bdd081b595d60921b60448201526064016112ee565b8260040154836003015411612b185760405162461bcd60e51b8152602060048201526011602482015270141c9bdc1bdcd85b081c995a9958dd1959607a1b60448201526064016112ee565b60078301805460ff19166001908117909155604080516101408101825285548152918501546001600160a01b03166020830152600285018054612ce99392879290840191612b6590614236565b80601f0160208091040260200160405190810160405280929190818152602001828054612b9190614236565b8015612bde5780601f10612bb357610100808354040283529160200191612bde565b820191906000526020600020905b815481529060010190602001808311612bc157829003601f168201915b50505091835250506003828101546020830152600483015460408301526005830154606083015260068301546080830152600783015460ff808216151560a085015260c0909301926101009091041690811115612c3d57612c3d613a9a565b6003811115612c4e57612c4e613a9a565b8152602001600882018054612c6290614236565b80601f0160208091040260200160405190810160405280929190818152602001828054612c8e90614236565b8015612cdb5780601f10612cb057610100808354040283529160200191612cdb565b820191906000526020600020905b815481529060010190602001808311612cbe57829003601f168201915b50505050508152505061329f565b60405184907f712ae1383f79ac853f8d882153778e0260ef8f03b504e2866e0593e04d2b291f90600090a250505050565b61129e83838360016133e2565b600260065403612d4a57604051633ee5aeb560e01b815260040160405180910390fd5b6002600655565b336000908152601360205260409020548110612da55760405162461bcd60e51b8152602060048201526013602482015272092dcecc2d8d2c840e6e8c2d6ca40d2dcc8caf606b1b60448201526064016112ee565b336000908152601360205260408120805483908110612dc657612dc6614270565b906000526020600020906005020190506000816000015411612e1c5760405162461bcd60e51b815260206004820152600f60248201526e4e6f20616374697665207374616b6560881b60448201526064016112ee565b6000612e283384612f3d565b9050600081118015612e3c57506015548111155b1561129e574282600201819055508060156000828254612e5c91906142f6565b9091555050600482015460ff1615612ea65780826000016000828254612e8291906142b5565b925050819055508060146000828254612e9b91906142b5565b90915550612eb19050565b612eb13033836130ac565b3360009081526023602052604081206001018054839290612ed39084906142b5565b9091555050604080518281526020810185905233917ff01da32686223933d8a18a391060918c7f11a3648639edd87ae013e2e273174391016128c0565b6005546001600160a01b03163314611c145760405163118cdaa760e01b81523360048201526024016112ee565b6001600160a01b0382166000908152601360205260408120805482919084908110612f6a57612f6a614270565b600091825260208083206040805160a08101825260059094029091018054808552600182015493850193909352600281015491840191909152600381015460608401526004015460ff16151560808301529092509003612fce576000915050611137565b6000816040015142612fe091906142f6565b606083015160009081526016602052604081205484519293509164496cebb80090849061300e908590614309565b6130189190614309565b6130229190614320565b979650505050505050565b6001600160a01b038381166000908152600160209081526040808320938616835292905220546000198110156130a6578181101561309757604051637dc7a0d960e11b81526001600160a01b038416600482015260248101829052604481018390526064016112ee565b6130a6848484840360006133e2565b50505050565b6001600160a01b0383166130d657604051634b637e8f60e11b8152600060048201526024016112ee565b6001600160a01b0382166131005760405163ec442f0560e01b8152600060048201526024016112ee565b61129e8383836134b7565b6001600160a01b03821661313557604051634b637e8f60e11b8152600060048201526024016112ee565b6118ea826000836134b7565b613149613828565b6005805460ff60a01b191690557f5db9ee0a495bf2e6ff9c91a7834c1ba4fdd244a5e8aa4e537bd38aeae4b073aa335b6040516001600160a01b039091168152602001611877565b613199613852565b6005805460ff60a01b1916600160a01b1790557f62e78cea01bee320cd4e420270b5ea74000d11b0c9f74754ebdbfc544b05a2586131793390565b600580546001600160a01b038381166001600160a01b0319831681179093556040519116919082907f8be0079c531659141344cd1fd0a4f28419497f9722a3daafe3b4186f6b6457e090600090a35050565b601a5460ff1680156132485750336000908152600e602052604090205460ff16155b15611158576017548111156111585760405162461bcd60e51b815260206004820181905260248201527f5472616e73616374696f6e20616d6f756e742065786365656473206c696d697460448201526064016112ee565b600081610100015160038111156132b8576132b8613a9a565b036133275760008161012001518060200190518101906132d89190614478565b905060c88111156133215760405162461bcd60e51b81526020600482015260136024820152724665652065786365656473206d6178696d756d60681b60448201526064016112ee565b60075550565b6001816101000151600381111561334057613340613a9a565b03611158576000808261012001518060200190518101906133619190614491565b600c549193509150819061337d906001600160a01b0316611be7565b10156133cb5760405162461bcd60e51b815260206004820152601d60248201527f496e73756666696369656e742074726561737572792062616c616e636500000060448201526064016112ee565b600c5461129e906001600160a01b031683836130ac565b6001600160a01b03841661340c5760405163e602df0560e01b8152600060048201526024016112ee565b6001600160a01b03831661343657604051634a1406b160e11b8152600060048201526024016112ee565b6001600160a01b03808516600090815260016020908152604080832093871683529290522082905580156130a657826001600160a01b0316846001600160a01b03167f8c5be1e5ebec7d5bd14f71427d1e84f3dd0314c0f7b2291e5b200ac8c7c3b925846040516134a991815260200190565b60405180910390a350505050565b6134bf613852565b6001600160a01b038316158015906134df57506001600160a01b03821615155b156134ef576134ef83838361387d565b6001600160a01b038316158061350c57506001600160a01b038216155b806135175750600754155b8061353a57506001600160a01b0383166000908152600e602052604090205460ff165b8061355d57506001600160a01b0382166000908152600e602052604090205460ff165b156135d75761356d83838361391e565b6001600160a01b0383161580159061358d57506001600160a01b03821615155b1561129e57816001600160a01b0316836001600160a01b03167f59abb1a21ac9c02d9c217285768a906af17496e4cada7962f129b92f0ac948cf8360405161276391815260200190565b601a5460ff1680156135f257506001600160a01b0383163014155b801561360757506001600160a01b0382163014155b156136925761361581613226565b6018548161362284611be7565b61362c91906142b5565b1115613692576001600160a01b0382166000908152600e602052604090205460ff166136925760405162461bcd60e51b815260206004820152601560248201527415d85b1b195d081b1a5b5a5d08195e18d959591959605a1b60448201526064016112ee565b6000612710600754836136a59190614309565b6136af9190614320565b90506000600754600854836136c49190614309565b6136ce9190614320565b90506000600754600954846136e39190614309565b6136ed9190614320565b90506000816136fc84866142f6565b61370691906142f6565b9050600061371485876142f6565b9050831561373457600c546137349089906001600160a01b03168661391e565b821561375257600d546137529089906001600160a01b03168561391e565b811561377d57613762888361310b565b81601e600101600082825461377791906142b5565b90915550505b61378888888361391e565b84601e600001600082825461379d91906142b5565b90915550506001600160a01b038816600090815260236020526040812080548792906137ca9084906142b5565b92505081905550866001600160a01b0316886001600160a01b03167f59abb1a21ac9c02d9c217285768a906af17496e4cada7962f129b92f0ac948cf8360405161381691815260200190565b60405180910390a35050505050505050565b600554600160a01b900460ff16611c1457604051638dfc202b60e01b815260040160405180910390fd5b600554600160a01b900460ff1615611c145760405163d93c066560e01b815260040160405180910390fd5b6022805490600061388d8361429c565b90915550506001600160a01b03831660009081526023602052604081206002018054916138b98361429c565b90915550506001600160a01b0382166000908152602360205260408120600301549003613913576001600160a01b038216600090815260236020526040812042600390910155602180549161390d8361429c565b91905055505b505060145460205550565b6001600160a01b03831661394957806002600082825461393e91906142b5565b909155506139bb9050565b6001600160a01b0383166000908152602081905260409020548181101561399c5760405163391434e360e21b81526001600160a01b038516600482015260248101829052604481018390526064016112ee565b6001600160a01b03841660009081526020819052604090209082900390555b6001600160a01b0382166139d7576002805482900390556139f6565b6001600160a01b03821660009081526020819052604090208054820190555b816001600160a01b0316836001600160a01b03167fddf252ad1be2c89b69c2b068fc378daa952ba7f163c4a11628f55a4df523b3ef8360405161276391815260200190565b600060208284031215613a4d57600080fd5b5035919050565b6000815180845260005b81811015613a7a57602081850181015186830182015201613a5e565b506000602082860101526020601f19601f83011685010191505092915050565b634e487b7160e01b600052602160045260246000fd5b8a81526001600160a01b038a16602082015261014060408201819052600090613adb8382018c613a54565b90508960608401528860808401528760a08401528660c084015285151560e084015260048510613b1b57634e487b7160e01b600052602160045260246000fd5b84610100840152828103610120840152613b358185613a54565b9d9c50505050505050505050505050565b602081526000613b596020830184613a54565b9392505050565b6001600160a01b038116811461115857600080fd5b60008060408385031215613b8857600080fd5b8235613b9381613b60565b946020939093013593505050565b634e487b7160e01b600052604160045260246000fd5b604051601f8201601f1916810167ffffffffffffffff81118282101715613be057613be0613ba1565b604052919050565b600067ffffffffffffffff821115613c0257613c02613ba1565b5060051b60200190565b600082601f830112613c1d57600080fd5b81356020613c32613c2d83613be8565b613bb7565b82815260059290921b84018101918181019086841115613c5157600080fd5b8286015b84811015613c75578035613c6881613b60565b8352918301918301613c55565b509695505050505050565b80358015158114613c9057600080fd5b919050565b60008060408385031215613ca857600080fd5b823567ffffffffffffffff811115613cbf57600080fd5b613ccb85828601613c0c565b925050613cda60208401613c80565b90509250929050565b600060208284031215613cf557600080fd5b8135613b5981613b60565b60008060008060808587031215613d1657600080fd5b843593506020850135925060408501359150613d3460608601613c80565b905092959194509250565b600080600060608486031215613d5457600080fd5b8335613d5f81613b60565b92506020840135613d6f81613b60565b929592945050506040919091013590565b600067ffffffffffffffff831115613d9a57613d9a613ba1565b613dad601f8401601f1916602001613bb7565b9050828152838383011115613dc157600080fd5b828260208301376000602084830101529392505050565b600082601f830112613de957600080fd5b613b5983833560208501613d80565b600080600060608486031215613e0d57600080fd5b8335613e1881613b60565b925060208401359150604084013567ffffffffffffffff811115613e3b57600080fd5b613e4786828701613dd8565b9150509250925092565b600080600060608486031215613e6657600080fd5b8335613e7181613b60565b95602085013595506040909401359392505050565b604080825283519082018190526000906020906060840190828701845b82811015613ec85781516001600160a01b031684529284019290840190600101613ea3565b5050508381038285015284518082528583019183019060005b81811015613efd57835183529284019291840191600101613ee1565b5090979650505050505050565b60008060408385031215613f1d57600080fd5b823591506020830135613f2f81613b60565b809150509250929050565b60008060408385031215613f4d57600080fd5b82359150602083013567ffffffffffffffff811115613f6b57600080fd5b613f7785828601613dd8565b9150509250929050565b600080600060608486031215613f9657600080fd5b8335925060208401359150613fad60408501613c80565b90509250925092565b600082601f830112613fc757600080fd5b81356020613fd7613c2d83613be8565b82815260059290921b84018101918181019086841115613ff657600080fd5b8286015b84811015613c755780358352918301918301613ffa565b6000806040838503121561402457600080fd5b823567ffffffffffffffff8082111561403c57600080fd5b61404886838701613c0c565b9350602085013591508082111561405e57600080fd5b50613f7785828601613fb6565b6000806040838503121561407e57600080fd5b823561408981613b60565b9150613cda60208401613c80565b600080600080608085870312156140ad57600080fd5b84356140b881613b60565b966020860135965060408601359560600135945092505050565b6000806000606084860312156140e757600080fd5b833592506020840135613d6f81613b60565b60008060006060848603121561410e57600080fd5b833567ffffffffffffffff8082111561412657600080fd5b818601915086601f83011261413a57600080fd5b61414987833560208501613d80565b9450602086013591506004821061415f57600080fd5b9092506040850135908082111561417557600080fd5b50613e4786828701613dd8565b60008060006060848603121561419757600080fd5b505081359360208301359350604090920135919050565b600080604083850312156141c157600080fd5b82359150613cda60208401613c80565b600080604083850312156141e457600080fd5b823567ffffffffffffffff808211156141fc57600080fd5b61404886838701613fb6565b6000806040838503121561421b57600080fd5b823561422681613b60565b91506020830135613f2f81613b60565b600181811c9082168061424a57607f821691505b60208210810361426a57634e487b7160e01b600052602260045260246000fd5b50919050565b634e487b7160e01b600052603260045260246000fd5b634e487b7160e01b600052601160045260246000fd5b6000600182016142ae576142ae614286565b5060010190565b8082018082111561113757611137614286565b602080825260149082015273496e73756666696369656e742062616c616e636560601b604082015260600190565b8181038181111561113757611137614286565b808202811582820484141761113757611137614286565b60008261433d57634e487b7160e01b600052601260045260246000fd5b500490565b6020808252600e908201526d125b9d985b1a5908185b5bdd5b9d60921b604082015260600190565b601f82111561129e57600081815260208120601f850160051c810160208610156143915750805b601f850160051c820191505b818110156143b05782815560010161439d565b505050505050565b815167ffffffffffffffff8111156143d2576143d2613ba1565b6143e6816143e08454614236565b8461436a565b602080601f83116001811461441b57600084156144035750858301515b600019600386901b1c1916600185901b1785556143b0565b600085815260208120601f198616915b8281101561444a5788860151825594840194600190910190840161442b565b50858210156144685787850151600019600388901b60f8161c191681555b5050505050600190811b01905550565b60006020828403121561448a57600080fd5b5051919050565b600080604083850312156144a457600080fd5b82516144af81613b60565b602093909301519294929350505056fea2646970667358221220f9d4e7157833c66f288ada295255d3d1809001e827c11c85519e10722c2b79df64736f6c6343000814003359abb1a21ac9c02d9c217285768a906af17496e4cada7962f129b92f0ac948cf",
  "linkReferences": {},
  "deployedLinkReferences": {}
}