{
  "_format": "hh-sol-artifact-1",
  "contractName": "FIACoinV5",
  "sourceName": "contracts/FIACoinV5.sol",
  "abi": [
    {
      "inputs": [
        {
          "internalType": "address",
          "name": "_treasury",
          "type": "address"
        },
        {
          "internalType": "address",
          "name": "_founder",
          "type": "address"
        }
      ],
      "stateMutability": "nonpayable",
      "type": "constructor"
    },
    {
      "inputs": [
        {
          "internalType": "address",
          "name": "spender",
          "type": "address"
        },
        {
          "internalType": "uint256",
          "name": "allowance",
          "type": "uint256"
        },
        {
          "internalType": "uint256",
          "name": "needed",
          "type": "uint256"
        }
      ],
      "name": "ERC20InsufficientAllowance",
      "type": "error"
    },
    {
      "inputs": [
        {
          "internalType": "address",
          "name": "sender",
          "type": "address"
        },
        {
          "internalType": "uint256",
          "name": "balance",
          "type": "uint256"
        },
        {
          "internalType": "uint256",
          "name": "needed",
          "type": "uint256"
        }
      ],
      "name": "ERC20InsufficientBalance",
      "type": "error"
    },
    {
      "inputs": [
        {
          "internalType": "address",
          "name": "approver",
          "type": "address"
        }
      ],
      "name": "ERC20InvalidApprover",
      "type": "error"
    },
    {
      "inputs": [
        {
          "internalType": "address",
          "name": "receiver",
          "type": "address"
        }
      ],
      "name": "ERC20InvalidReceiver",
      "type": "error"
    },
    {
      "inputs": [
        {
          "internalType": "address",
          "name": "sender",
          "type": "address"
        }
      ],
      "name": "ERC20InvalidSender",
      "type": "error"
    },
    {
      "inputs": [
        {
          "internalType": "address",
          "name": "spender",
          "type": "address"
        }
      ],
      "name": "ERC20InvalidSpender",
      "type": "error"
    },
    {
      "inputs": [],
      "name": "EnforcedPause",
      "type": "error"
    },
    {
      "inputs": [],
      "name": "ExpectedPause",
      "type": "error"
    },
    {
      "inputs": [
        {
          "internalType": "address",
          "name": "owner",
          "type": "address"
        }
      ],
      "name": "OwnableInvalidOwner",
      "type": "error"
    },
    {
      "inputs": [
        {
          "internalType": "address",
          "name": "account",
          "type": "address"
        }
      ],
      "name": "OwnableUnauthorizedAccount",
      "type": "error"
    },
    {
      "inputs": [],
      "name": "ReentrancyGuardReentrantCall",
      "type": "error"
    },
    {
      "anonymous": false,
      "inputs": [
        {
          "indexed": true,
          "internalType": "address",
          "name": "owner",
          "type": "address"
        },
        {
          "indexed": true,
          "internalType": "address",
          "name": "spender",
          "type": "address"
        },
        {
          "indexed": false,
          "internalType": "uint256",
          "name": "value",
          "type": "uint256"
        }
      ],
      "name": "Approval",
      "type": "event"
    },
    {
      "anonymous": false,
      "inputs": [
        {
          "indexed": true,
          "internalType": "address",
          "name": "user",
          "type": "address"
        },
        {
          "indexed": false,
          "internalType": "uint256",
          "name": "totalAmount",
          "type": "uint256"
        },
        {
          "indexed": false,
          "internalType": "uint256",
          "name": "stakeCount",
          "type": "uint256"
        }
      ],
      "name": "BatchStaking",
      "type": "event"
    },
    {
      "anonymous": false,
      "inputs": [
        {
          "indexed": true,
          "internalType": "address",
          "name": "from",
          "type": "address"
        },
        {
          "indexed": false,
          "internalType": "uint256",
          "name": "totalAmount",
          "type": "uint256"
        },
        {
          "indexed": false,
          "internalType": "uint256",
          "name": "recipientCount",
          "type": "uint256"
        }
      ],
      "name": "BatchTransfer",
      "type": "event"
    },
    {
      "anonymous": false,
      "inputs": [
        {
          "indexed": false,
          "internalType": "string",
          "name": "action",
          "type": "string"
        },
        {
          "indexed": false,
          "internalType": "address",
          "name": "actor",
          "type": "address"
        }
      ],
      "name": "EmergencyAction",
      "type": "event"
    },
    {
      "anonymous": false,
      "inputs": [
        {
          "indexed": false,
          "internalType": "uint256",
          "name": "oldFee",
          "type": "uint256"
        },
        {
          "indexed": false,
          "internalType": "uint256",
          "name": "newFee",
          "type": "uint256"
        }
      ],
      "name": "FeeConfigurationChanged",
      "type": "event"
    },
    {
      "anonymous": false,
      "inputs": [
        {
          "indexed": false,
          "internalType": "uint256",
          "name": "treasury",
          "type": "uint256"
        },
        {
          "indexed": false,
          "internalType": "uint256",
          "name": "founder",
          "type": "uint256"
        },
        {
          "indexed": false,
          "internalType": "uint256",
          "name": "burn",
          "type": "uint256"
        }
      ],
      "name": "FeeDistributionChanged",
      "type": "event"
    },
    {
      "anonymous": false,
      "inputs": [
        {
          "indexed": true,
          "internalType": "address",
          "name": "account",
          "type": "address"
        },
        {
          "indexed": false,
          "internalType": "bool",
          "name": "exempt",
          "type": "bool"
        }
      ],
      "name": "FeeExemptionSet",
      "type": "event"
    },
    {
      "anonymous": false,
      "inputs": [
        {
          "indexed": true,
          "internalType": "address",
          "name": "from",
          "type": "address"
        },
        {
          "indexed": true,
          "internalType": "address",
          "name": "to",
          "type": "address"
        },
        {
          "indexed": false,
          "internalType": "uint256",
          "name": "amount",
          "type": "uint256"
        }
      ],
      "name": "Fingered",
      "type": "event"
    },
    {
      "anonymous": false,
      "inputs": [
        {
          "indexed": true,
          "internalType": "address",
          "name": "previousOwner",
          "type": "address"
        },
        {
          "indexed": true,
          "internalType": "address",
          "name": "newOwner",
          "type": "address"
        }
      ],
      "name": "OwnershipTransferred",
      "type": "event"
    },
    {
      "anonymous": false,
      "inputs": [
        {
          "indexed": false,
          "internalType": "address",
          "name": "account",
          "type": "address"
        }
      ],
      "name": "Paused",
      "type": "event"
    },
    {
      "anonymous": false,
      "inputs": [
        {
          "indexed": true,
          "internalType": "uint256",
          "name": "proposalId",
          "type": "uint256"
        },
        {
          "indexed": true,
          "internalType": "address",
          "name": "proposer",
          "type": "address"
        },
        {
          "indexed": false,
          "internalType": "string",
          "name": "description",
          "type": "string"
        }
      ],
      "name": "ProposalCreated",
      "type": "event"
    },
    {
      "anonymous": false,
      "inputs": [
        {
          "indexed": true,
          "internalType": "uint256",
          "name": "proposalId",
          "type": "uint256"
        }
      ],
      "name": "ProposalExecuted",
      "type": "event"
    },
    {
      "anonymous": false,
      "inputs": [
        {
          "indexed": true,
          "internalType": "address",
          "name": "user",
          "type": "address"
        },
        {
          "indexed": false,
          "internalType": "uint256",
          "name": "reward",
          "type": "uint256"
        },
        {
          "indexed": false,
          "internalType": "uint256",
          "name": "stakeIndex",
          "type": "uint256"
        }
      ],
      "name": "RewardClaimed",
      "type": "event"
    },
    {
      "anonymous": false,
      "inputs": [
        {
          "indexed": true,
          "internalType": "address",
          "name": "user",
          "type": "address"
        },
        {
          "indexed": false,
          "internalType": "uint256",
          "name": "amount",
          "type": "uint256"
        },
        {
          "indexed": false,
          "internalType": "uint256",
          "name": "lockPeriod",
          "type": "uint256"
        },
        {
          "indexed": false,
          "internalType": "uint256",
          "name": "stakeIndex",
          "type": "uint256"
        }
      ],
      "name": "Staked",
      "type": "event"
    },
    {
      "anonymous": false,
      "inputs": [
        {
          "indexed": true,
          "internalType": "address",
          "name": "from",
          "type": "address"
        },
        {
          "indexed": true,
          "internalType": "address",
          "name": "to",
          "type": "address"
        },
        {
          "indexed": false,
          "internalType": "uint256",
          "name": "value",
          "type": "uint256"
        }
      ],
      "name": "Transfer",
      "type": "event"
    },
    {
      "anonymous": false,
      "inputs": [
        {
          "indexed": false,
          "internalType": "address",
          "name": "account",
          "type": "address"
        }
      ],
      "name": "Unpaused",
      "type": "event"
    },
    {
      "anonymous": false,
      "inputs": [
        {
          "indexed": true,
          "internalType": "address",
          "name": "user",
          "type": "address"
        },
        {
          "indexed": false,
          "internalType": "uint256",
          "name": "amount",
          "type": "uint256"
        },
        {
          "indexed": false,
          "internalType": "uint256",
          "name": "stakeIndex",
          "type": "uint256"
        }
      ],
      "name": "Unstaked",
      "type": "event"
    },
    {
      "anonymous": false,
      "inputs": [
        {
          "indexed": true,
          "internalType": "uint256",
          "name": "proposalId",
          "type": "uint256"
        },
        {
          "indexed": true,
          "internalType": "address",
          "name": "voter",
          "type": "address"
        },
        {
          "indexed": false,
          "internalType": "bool",
          "name": "support",
          "type": "bool"
        },
        {
          "indexed": false,
          "internalType": "uint256",
          "name": "votingPower",
          "type": "uint256"
        }
      ],
      "name": "VoteCast",
      "type": "event"
    },
    {
      "inputs": [],
      "name": "EXECUTION_DELAY",
      "outputs": [
        {
          "internalType": "uint256",
          "name": "",
          "type": "uint256"
        }
      ],
      "stateMutability": "view",
      "type": "function"
    },
    {
      "inputs": [],
      "name": "FEE_CHANGE_DELAY",
      "outputs": [
        {
          "internalType": "uint256",
          "name": "",
          "type": "uint256"
        }
      ],
      "stateMutability": "view",
      "type": "function"
    },
    {
      "inputs": [],
      "name": "LOCK_180_DAYS",
      "outputs": [
        {
          "internalType": "uint256",
          "name": "",
          "type": "uint256"
        }
      ],
      "stateMutability": "view",
      "type": "function"
    },
    {
      "inputs": [],
      "name": "LOCK_30_DAYS",
      "outputs": [
        {
          "internalType": "uint256",
          "name": "",
          "type": "uint256"
        }
      ],
      "stateMutability": "view",
      "type": "function"
    },
    {
      "inputs": [],
      "name": "LOCK_365_DAYS",
      "outputs": [
        {
          "internalType": "uint256",
          "name": "",
          "type": "uint256"
        }
      ],
      "stateMutability": "view",
      "type": "function"
    },
    {
      "inputs": [],
      "name": "LOCK_90_DAYS",
      "outputs": [
        {
          "internalType": "uint256",
          "name": "",
          "type": "uint256"
        }
      ],
      "stateMutability": "view",
      "type": "function"
    },
    {
      "inputs": [],
      "name": "MAX_TOTAL_FEE_BP",
      "outputs": [
        {
          "internalType": "uint256",
          "name": "",
          "type": "uint256"
        }
      ],
      "stateMutability": "view",
      "type": "function"
    },
    {
      "inputs": [],
      "name": "PROPOSAL_THRESHOLD",
      "outputs": [
        {
          "internalType": "uint256",
          "name": "",
          "type": "uint256"
        }
      ],
      "stateMutability": "view",
      "type": "function"
    },
    {
      "inputs": [],
      "name": "QUORUM_PERCENTAGE",
      "outputs": [
        {
          "internalType": "uint256",
          "name": "",
          "type": "uint256"
        }
      ],
      "stateMutability": "view",
      "type": "function"
    },
    {
      "inputs": [],
      "name": "TOTAL_SUPPLY",
      "outputs": [
        {
          "internalType": "uint256",
          "name": "",
          "type": "uint256"
        }
      ],
      "stateMutability": "view",
      "type": "function"
    },
    {
      "inputs": [],
      "name": "VOTING_PERIOD",
      "outputs": [
        {
          "internalType": "uint256",
          "name": "",
          "type": "uint256"
        }
      ],
      "stateMutability": "view",
      "type": "function"
    },
    {
      "inputs": [
        {
          "internalType": "uint256",
          "name": "amount",
          "type": "uint256"
        }
      ],
      "name": "addToRewardPool",
      "outputs": [],
      "stateMutability": "nonpayable",
      "type": "function"
    },
    {
      "inputs": [
        {
          "internalType": "address",
          "name": "owner",
          "type": "address"
        },
        {
          "internalType": "address",
          "name": "spender",
          "type": "address"
        }
      ],
      "name": "allowance",
      "outputs": [
        {
          "internalType": "uint256",
          "name": "",
          "type": "uint256"
        }
      ],
      "stateMutability": "view",
      "type": "function"
    },
    {
      "inputs": [
        {
          "internalType": "address",
          "name": "spender",
          "type": "address"
        },
        {
          "internalType": "uint256",
          "name": "value",
          "type": "uint256"
        }
      ],
      "name": "approve",
      "outputs": [
        {
          "internalType": "bool",
          "name": "",
          "type": "bool"
        }
      ],
      "stateMutability": "nonpayable",
      "type": "function"
    },
    {
      "inputs": [
        {
          "internalType": "address",
          "name": "account",
          "type": "address"
        }
      ],
      "name": "balanceOf",
      "outputs": [
        {
          "internalType": "uint256",
          "name": "",
          "type": "uint256"
        }
      ],
      "stateMutability": "view",
      "type": "function"
    },
    {
      "inputs": [
        {
          "internalType": "address[]",
          "name": "accounts",
          "type": "address[]"
        },
        {
          "internalType": "bool",
          "name": "exempt",
          "type": "bool"
        }
      ],
      "name": "batchSetFeeExempt",
      "outputs": [],
      "stateMutability": "nonpayable",
      "type": "function"
    },
    {
      "inputs": [
        {
          "internalType": "uint256[]",
          "name": "amounts",
          "type": "uint256[]"
        },
        {
          "internalType": "uint256[]",
          "name": "lockPeriods",
          "type": "uint256[]"
        }
      ],
      "name": "batchStake",
      "outputs": [],
      "stateMutability": "nonpayable",
      "type": "function"
    },
    {
      "inputs": [
        {
          "internalType": "address[]",
          "name": "recipients",
          "type": "address[]"
        },
        {
          "internalType": "uint256[]",
          "name": "amounts",
          "type": "uint256[]"
        }
      ],
      "name": "batchTransfer",
      "outputs": [
        {
          "internalType": "bool",
          "name": "",
          "type": "bool"
        }
      ],
      "stateMutability": "nonpayable",
      "type": "function"
    },
    {
      "inputs": [
        {
          "internalType": "uint256",
          "name": "collateralAmount",
          "type": "uint256"
        }
      ],
      "name": "borrowAgainstStake",
      "outputs": [],
      "stateMutability": "nonpayable",
      "type": "function"
    },
    {
      "inputs": [
        {
          "internalType": "uint256",
          "name": "chainId",
          "type": "uint256"
        },
        {
          "internalType": "address",
          "name": "recipient",
          "type": "address"
        },
        {
          "internalType": "uint256",
          "name": "amount",
          "type": "uint256"
        }
      ],
      "name": "bridgeTokens",
      "outputs": [],
      "stateMutability": "payable",
      "type": "function"
    },
    {
      "inputs": [
        {
          "internalType": "uint256",
          "name": "amount",
          "type": "uint256"
        }
      ],
      "name": "burn",
      "outputs": [],
      "stateMutability": "nonpayable",
      "type": "function"
    },
    {
      "inputs": [
        {
          "internalType": "uint256",
          "name": "stakeIndex",
          "type": "uint256"
        }
      ],
      "name": "claimRewards",
      "outputs": [],
      "stateMutability": "nonpayable",
      "type": "function"
    },
    {
      "inputs": [],
      "name": "decimals",
      "outputs": [
        {
          "internalType": "uint8",
          "name": "",
          "type": "uint8"
        }
      ],
      "stateMutability": "view",
      "type": "function"
    },
    {
      "inputs": [
        {
          "internalType": "address",
          "name": "protocol",
          "type": "address"
        },
        {
          "internalType": "uint256",
          "name": "amount",
          "type": "uint256"
        }
      ],
      "name": "depositToYieldFarm",
      "outputs": [],
      "stateMutability": "nonpayable",
      "type": "function"
    },
    {
      "inputs": [],
      "name": "emergencyPause",
      "outputs": [],
      "stateMutability": "nonpayable",
      "type": "function"
    },
    {
      "inputs": [],
      "name": "emergencyUnpause",
      "outputs": [],
      "stateMutability": "nonpayable",
      "type": "function"
    },
    {
      "inputs": [
        {
          "internalType": "uint256",
          "name": "proposalId",
          "type": "uint256"
        }
      ],
      "name": "execute",
      "outputs": [],
      "stateMutability": "nonpayable",
      "type": "function"
    },
    {
      "inputs": [],
      "name": "feeToBurnBP",
      "outputs": [
        {
          "internalType": "uint256",
          "name": "",
          "type": "uint256"
        }
      ],
      "stateMutability": "view",
      "type": "function"
    },
    {
      "inputs": [],
      "name": "feeToFounderBP",
      "outputs": [
        {
          "internalType": "uint256",
          "name": "",
          "type": "uint256"
        }
      ],
      "stateMutability": "view",
      "type": "function"
    },
    {
      "inputs": [],
      "name": "feeToTreasuryBP",
      "outputs": [
        {
          "internalType": "uint256",
          "name": "",
          "type": "uint256"
        }
      ],
      "stateMutability": "view",
      "type": "function"
    },
    {
      "inputs": [
        {
          "internalType": "uint256",
          "name": "amount",
          "type": "uint256"
        },
        {
          "internalType": "bytes",
          "name": "data",
          "type": "bytes"
        }
      ],
      "name": "flashLoan",
      "outputs": [],
      "stateMutability": "nonpayable",
      "type": "function"
    },
    {
      "inputs": [],
      "name": "founderWallet",
      "outputs": [
        {
          "internalType": "address",
          "name": "",
          "type": "address"
        }
      ],
      "stateMutability": "view",
      "type": "function"
    },
    {
      "inputs": [
        {
          "internalType": "uint256",
          "name": "count",
          "type": "uint256"
        }
      ],
      "name": "getStakingLeaderboard",
      "outputs": [
        {
          "internalType": "address[]",
          "name": "",
          "type": "address[]"
        },
        {
          "internalType": "uint256[]",
          "name": "",
          "type": "uint256[]"
        }
      ],
      "stateMutability": "view",
      "type": "function"
    },
    {
      "inputs": [
        {
          "internalType": "address",
          "name": "user",
          "type": "address"
        }
      ],
      "name": "getStakingRewards",
      "outputs": [
        {
          "internalType": "uint256",
          "name": "",
          "type": "uint256"
        }
      ],
      "stateMutability": "view",
      "type": "function"
    },
    {
      "inputs": [],
      "name": "getTokenStats",
      "outputs": [
        {
          "components": [
            {
              "internalType": "uint256",
              "name": "totalFeeCollected",
              "type": "uint256"
            },
            {
              "internalType": "uint256",
              "name": "totalBurned",
              "type": "uint256"
            },
            {
              "internalType": "uint256",
              "name": "totalStaked",
              "type": "uint256"
            },
            {
              "internalType": "uint256",
              "name": "uniqueHolders",
              "type": "uint256"
            },
            {
              "internalType": "uint256",
              "name": "transactionCount",
              "type": "uint256"
            }
          ],
          "internalType": "struct FIACoinV5.TokenAnalytics",
          "name": "",
          "type": "tuple"
        }
      ],
      "stateMutability": "view",
      "type": "function"
    },
    {
      "inputs": [
        {
          "internalType": "uint256",
          "name": "count",
          "type": "uint256"
        }
      ],
      "name": "getTopHolders",
      "outputs": [
        {
          "internalType": "address[]",
          "name": "",
          "type": "address[]"
        },
        {
          "internalType": "uint256[]",
          "name": "",
          "type": "uint256[]"
        }
      ],
      "stateMutability": "view",
      "type": "function"
    },
    {
      "inputs": [
        {
          "internalType": "address",
          "name": "user",
          "type": "address"
        }
      ],
      "name": "getUserStats",
      "outputs": [
        {
          "components": [
            {
              "internalType": "uint256",
              "name": "totalFeesPaid",
              "type": "uint256"
            },
            {
              "internalType": "uint256",
              "name": "totalStakingRewards",
              "type": "uint256"
            },
            {
              "internalType": "uint256",
              "name": "transactionCount",
              "type": "uint256"
            },
            {
              "internalType": "uint256",
              "name": "firstTransactionTime",
              "type": "uint256"
            }
          ],
          "internalType": "struct FIACoinV5.UserAnalytics",
          "name": "",
          "type": "tuple"
        }
      ],
      "stateMutability": "view",
      "type": "function"
    },
    {
      "inputs": [
        {
          "internalType": "address",
          "name": "account",
          "type": "address"
        }
      ],
      "name": "getVotingPower",
      "outputs": [
        {
          "internalType": "uint256",
          "name": "",
          "type": "uint256"
        }
      ],
      "stateMutability": "view",
      "type": "function"
    },
    {
      "inputs": [
        {
          "internalType": "uint256",
          "name": "",
          "type": "uint256"
        },
        {
          "internalType": "address",
          "name": "",
          "type": "address"
        }
      ],
      "name": "hasVoted",
      "outputs": [
        {
          "internalType": "bool",
          "name": "",
          "type": "bool"
        }
      ],
      "stateMutability": "view",
      "type": "function"
    },
    {
      "inputs": [
        {
          "internalType": "address",
          "name": "",
          "type": "address"
        }
      ],
      "name": "isFeeExempt",
      "outputs": [
        {
          "internalType": "bool",
          "name": "",
          "type": "bool"
        }
      ],
      "stateMutability": "view",
      "type": "function"
    },
    {
      "inputs": [],
      "name": "lastFeeChange",
      "outputs": [
        {
          "internalType": "uint256",
          "name": "",
          "type": "uint256"
        }
      ],
      "stateMutability": "view",
      "type": "function"
    },
    {
      "inputs": [
        {
          "internalType": "address",
          "name": "",
          "type": "address"
        }
      ],
      "name": "lastTxBlock",
      "outputs": [
        {
          "internalType": "uint256",
          "name": "",
          "type": "uint256"
        }
      ],
      "stateMutability": "view",
      "type": "function"
    },
    {
      "inputs": [
        {
          "internalType": "address",
          "name": "",
          "type": "address"
        }
      ],
      "name": "lastTxTime",
      "outputs": [
        {
          "internalType": "uint256",
          "name": "",
          "type": "uint256"
        }
      ],
      "stateMutability": "view",
      "type": "function"
    },
    {
      "inputs": [],
      "name": "multiSig",
      "outputs": [
        {
          "internalType": "uint256",
          "name": "required",
          "type": "uint256"
        }
      ],
      "stateMutability": "view",
      "type": "function"
    },
    {
      "inputs": [],
      "name": "name",
      "outputs": [
        {
          "internalType": "string",
          "name": "",
          "type": "string"
        }
      ],
      "stateMutability": "view",
      "type": "function"
    },
    {
      "inputs": [],
      "name": "owner",
      "outputs": [
        {
          "internalType": "address",
          "name": "",
          "type": "address"
        }
      ],
      "stateMutability": "view",
      "type": "function"
    },
    {
      "inputs": [],
      "name": "paused",
      "outputs": [
        {
          "internalType": "bool",
          "name": "",
          "type": "bool"
        }
      ],
      "stateMutability": "view",
      "type": "function"
    },
    {
      "inputs": [],
      "name": "proposalCount",
      "outputs": [
        {
          "internalType": "uint256",
          "name": "",
          "type": "uint256"
        }
      ],
      "stateMutability": "view",
      "type": "function"
    },
    {
      "inputs": [
        {
          "internalType": "uint256",
          "name": "",
          "type": "uint256"
        }
      ],
      "name": "proposals",
      "outputs": [
        {
          "internalType": "uint256",
          "name": "id",
          "type": "uint256"
        },
        {
          "internalType": "address",
          "name": "proposer",
          "type": "address"
        },
        {
          "internalType": "string",
          "name": "description",
          "type": "string"
        },
        {
          "internalType": "uint256",
          "name": "forVotes",
          "type": "uint256"
        },
        {
          "internalType": "uint256",
          "name": "againstVotes",
          "type": "uint256"
        },
        {
          "internalType": "uint256",
          "name": "startTime",
          "type": "uint256"
        },
        {
          "internalType": "uint256",
          "name": "endTime",
          "type": "uint256"
        },
        {
          "internalType": "bool",
          "name": "executed",
          "type": "bool"
        },
        {
          "internalType": "enum FIACoinV5.ProposalType",
          "name": "proposalType",
          "type": "uint8"
        },
        {
          "internalType": "bytes",
          "name": "proposalData",
          "type": "bytes"
        }
      ],
      "stateMutability": "view",
      "type": "function"
    },
    {
      "inputs": [
        {
          "internalType": "string",
          "name": "description",
          "type": "string"
        },
        {
          "internalType": "enum FIACoinV5.ProposalType",
          "name": "pType",
          "type": "uint8"
        },
        {
          "internalType": "bytes",
          "name": "data",
          "type": "bytes"
        }
      ],
      "name": "propose",
      "outputs": [
        {
          "internalType": "uint256",
          "name": "",
          "type": "uint256"
        }
      ],
      "stateMutability": "nonpayable",
      "type": "function"
    },
    {
      "inputs": [
        {
          "internalType": "address",
          "name": "to",
          "type": "address"
        },
        {
          "internalType": "uint256",
          "name": "amount",
          "type": "uint256"
        },
        {
          "internalType": "uint256",
          "name": "nonce",
          "type": "uint256"
        }
      ],
      "name": "protectedTransfer",
      "outputs": [
        {
          "internalType": "bool",
          "name": "",
          "type": "bool"
        }
      ],
      "stateMutability": "nonpayable",
      "type": "function"
    },
    {
      "inputs": [
        {
          "internalType": "address",
          "name": "to",
          "type": "address"
        },
        {
          "internalType": "uint256",
          "name": "amount",
          "type": "uint256"
        },
        {
          "internalType": "uint256",
          "name": "interval",
          "type": "uint256"
        },
        {
          "internalType": "uint256",
          "name": "count",
          "type": "uint256"
        }
      ],
      "name": "recurringTransfer",
      "outputs": [
        {
          "internalType": "bytes32",
          "name": "",
          "type": "bytes32"
        }
      ],
      "stateMutability": "nonpayable",
      "type": "function"
    },
    {
      "inputs": [],
      "name": "renounceOwnership",
      "outputs": [],
      "stateMutability": "nonpayable",
      "type": "function"
    },
    {
      "inputs": [],
      "name": "rewardPool",
      "outputs": [
        {
          "internalType": "uint256",
          "name": "",
          "type": "uint256"
        }
      ],
      "stateMutability": "view",
      "type": "function"
    },
    {
      "inputs": [
        {
          "internalType": "address",
          "name": "to",
          "type": "address"
        },
        {
          "internalType": "uint256",
          "name": "amount",
          "type": "uint256"
        },
        {
          "internalType": "uint256",
          "name": "executeTime",
          "type": "uint256"
        }
      ],
      "name": "scheduledTransfer",
      "outputs": [
        {
          "internalType": "bytes32",
          "name": "",
          "type": "bytes32"
        }
      ],
      "stateMutability": "nonpayable",
      "type": "function"
    },
    {
      "inputs": [
        {
          "internalType": "uint256",
          "name": "_treasury",
          "type": "uint256"
        },
        {
          "internalType": "uint256",
          "name": "_founder",
          "type": "uint256"
        },
        {
          "internalType": "uint256",
          "name": "_burn",
          "type": "uint256"
        }
      ],
      "name": "setFeeDistribution",
      "outputs": [],
      "stateMutability": "nonpayable",
      "type": "function"
    },
    {
      "inputs": [
        {
          "internalType": "address",
          "name": "account",
          "type": "address"
        },
        {
          "internalType": "bool",
          "name": "exempt",
          "type": "bool"
        }
      ],
      "name": "setFeeExempt",
      "outputs": [],
      "stateMutability": "nonpayable",
      "type": "function"
    },
    {
      "inputs": [
        {
          "internalType": "uint256",
          "name": "_totalFeeBP",
          "type": "uint256"
        }
      ],
      "name": "setTotalFeeBP",
      "outputs": [],
      "stateMutability": "nonpayable",
      "type": "function"
    },
    {
      "inputs": [
        {
          "internalType": "uint256",
          "name": "maxTxAmount",
          "type": "uint256"
        },
        {
          "internalType": "uint256",
          "name": "maxWalletAmount",
          "type": "uint256"
        },
        {
          "internalType": "uint256",
          "name": "cooldown",
          "type": "uint256"
        },
        {
          "internalType": "bool",
          "name": "active",
          "type": "bool"
        }
      ],
      "name": "setTransactionLimits",
      "outputs": [],
      "stateMutability": "nonpayable",
      "type": "function"
    },
    {
      "inputs": [
        {
          "internalType": "uint256",
          "name": "amount",
          "type": "uint256"
        },
        {
          "internalType": "uint256",
          "name": "lockPeriod",
          "type": "uint256"
        },
        {
          "internalType": "bool",
          "name": "autoCompound",
          "type": "bool"
        }
      ],
      "name": "stake",
      "outputs": [],
      "stateMutability": "nonpayable",
      "type": "function"
    },
    {
      "inputs": [
        {
          "internalType": "uint256",
          "name": "",
          "type": "uint256"
        }
      ],
      "name": "stakingAPY",
      "outputs": [
        {
          "internalType": "uint256",
          "name": "",
          "type": "uint256"
        }
      ],
      "stateMutability": "view",
      "type": "function"
    },
    {
      "inputs": [],
      "name": "symbol",
      "outputs": [
        {
          "internalType": "string",
          "name": "",
          "type": "string"
        }
      ],
      "stateMutability": "view",
      "type": "function"
    },
    {
      "inputs": [],
      "name": "tokenStats",
      "outputs": [
        {
          "internalType": "uint256",
          "name": "totalFeeCollected",
          "type": "uint256"
        },
        {
          "internalType": "uint256",
          "name": "totalBurned",
          "type": "uint256"
        },
        {
          "internalType": "uint256",
          "name": "totalStaked",
          "type": "uint256"
        },
        {
          "internalType": "uint256",
          "name": "uniqueHolders",
          "type": "uint256"
        },
        {
          "internalType": "uint256",
          "name": "transactionCount",
          "type": "uint256"
        }
      ],
      "stateMutability": "view",
      "type": "function"
    },
    {
      "inputs": [],
      "name": "totalFeeBP",
      "outputs": [
        {
          "internalType": "uint256",
          "name": "",
          "type": "uint256"
        }
      ],
      "stateMutability": "view",
      "type": "function"
    },
    {
      "inputs": [],
      "name": "totalStaked",
      "outputs": [
        {
          "internalType": "uint256",
          "name": "",
          "type": "uint256"
        }
      ],
      "stateMutability": "view",
      "type": "function"
    },
    {
      "inputs": [],
      "name": "totalSupply",
      "outputs": [
        {
          "internalType": "uint256",
          "name": "",
          "type": "uint256"
        }
      ],
      "stateMutability": "view",
      "type": "function"
    },
    {
      "inputs": [
        {
          "internalType": "address",
          "name": "to",
          "type": "address"
        },
        {
          "internalType": "uint256",
          "name": "value",
          "type": "uint256"
        }
      ],
      "name": "transfer",
      "outputs": [
        {
          "internalType": "bool",
          "name": "",
          "type": "bool"
        }
      ],
      "stateMutability": "nonpayable",
      "type": "function"
    },
    {
      "inputs": [
        {
          "internalType": "address",
          "name": "from",
          "type": "address"
        },
        {
          "internalType": "address",
          "name": "to",
          "type": "address"
        },
        {
          "internalType": "uint256",
          "name": "value",
          "type": "uint256"
        }
      ],
      "name": "transferFrom",
      "outputs": [
        {
          "internalType": "bool",
          "name": "",
          "type": "bool"
        }
      ],
      "stateMutability": "nonpayable",
      "type": "function"
    },
    {
      "inputs": [
        {
          "internalType": "address",
          "name": "newOwner",
          "type": "address"
        }
      ],
      "name": "transferOwnership",
      "outputs": [],
      "stateMutability": "nonpayable",
      "type": "function"
    },
    {
      "inputs": [
        {
          "internalType": "address",
          "name": "to",
          "type": "address"
        },
        {
          "internalType": "uint256",
          "name": "amount",
          "type": "uint256"
        },
        {
          "internalType": "bytes",
          "name": "data",
          "type": "bytes"
        }
      ],
      "name": "transferWithData",
      "outputs": [
        {
          "internalType": "bool",
          "name": "",
          "type": "bool"
        }
      ],
      "stateMutability": "nonpayable",
      "type": "function"
    },
    {
      "inputs": [],
      "name": "treasury",
      "outputs": [
        {
          "internalType": "address",
          "name": "",
          "type": "address"
        }
      ],
      "stateMutability": "view",
      "type": "function"
    },
    {
      "inputs": [],
      "name": "txLimits",
      "outputs": [
        {
          "internalType": "uint256",
          "name": "maxTxAmount",
          "type": "uint256"
        },
        {
          "internalType": "uint256",
          "name": "maxWalletAmount",
          "type": "uint256"
        },
        {
          "internalType": "uint256",
          "name": "txCooldown",
          "type": "uint256"
        },
        {
          "internalType": "bool",
          "name": "limitsActive",
          "type": "bool"
        }
      ],
      "stateMutability": "view",
      "type": "function"
    },
    {
      "inputs": [
        {
          "internalType": "uint256",
          "name": "stakeIndex",
          "type": "uint256"
        }
      ],
      "name": "unstake",
      "outputs": [],
      "stateMutability": "nonpayable",
      "type": "function"
    },
    {
      "inputs": [
        {
          "internalType": "bytes32",
          "name": "",
          "type": "bytes32"
        }
      ],
      "name": "usedNonces",
      "outputs": [
        {
          "internalType": "bool",
          "name": "",
          "type": "bool"
        }
      ],
      "stateMutability": "view",
      "type": "function"
    },
    {
      "inputs": [
        {
          "internalType": "address",
          "name": "",
          "type": "address"
        },
        {
          "internalType": "uint256",
          "name": "",
          "type": "uint256"
        }
      ],
      "name": "userStakes",
      "outputs": [
        {
          "internalType": "uint256",
          "name": "amount",
          "type": "uint256"
        },
        {
          "internalType": "uint256",
          "name": "stakingTime",
          "type": "uint256"
        },
        {
          "internalType": "uint256",
          "name": "lastRewardClaim",
          "type": "uint256"
        },
        {
          "internalType": "uint256",
          "name": "lockPeriod",
          "type": "uint256"
        },
        {
          "internalType": "bool",
          "name": "autoCompound",
          "type": "bool"
        }
      ],
      "stateMutability": "view",
      "type": "function"
    },
    {
      "inputs": [
        {
          "internalType": "address",
          "name": "",
          "type": "address"
        }
      ],
      "name": "userStats",
      "outputs": [
        {
          "internalType": "uint256",
          "name": "totalFeesPaid",
          "type": "uint256"
        },
        {
          "internalType": "uint256",
          "name": "totalStakingRewards",
          "type": "uint256"
        },
        {
          "internalType": "uint256",
          "name": "transactionCount",
          "type": "uint256"
        },
        {
          "internalType": "uint256",
          "name": "firstTransactionTime",
          "type": "uint256"
        }
      ],
      "stateMutability": "view",
      "type": "function"
    },
    {
      "inputs": [
        {
          "internalType": "uint256",
          "name": "proposalId",
          "type": "uint256"
        },
        {
          "internalType": "bool",
          "name": "support",
          "type": "bool"
        }
      ],
      "name": "vote",
      "outputs": [],
      "stateMutability": "nonpayable",
      "type": "function"
    },
    {
      "inputs": [
        {
          "internalType": "uint256",
          "name": "",
          "type": "uint256"
        },
        {
          "internalType": "address",
          "name": "",
          "type": "address"
        }
      ],
      "name": "votingPower",
      "outputs": [
        {
          "internalType": "uint256",
          "name": "",
          "type": "uint256"
        }
      ],
      "stateMutability": "view",
      "type": "function"
    }
  ],
  "bytecode": "0x6080604052606460075560326008556014600955601e600a553480156200002557600080fd5b506040516200526238038062005262833981016040819052620000489162000ad8565b336040518060400160405280600a815260200169466961436f696e20763560b01b8152506040518060400160405280600381526020016246494160e81b815250816003908162000099919062000bb4565b506004620000a8828262000bb4565b5050506001600160a01b038116620000db57604051631e4fbdf760e01b8152600060048201526024015b60405180910390fd5b620000e681620003b4565b5060016006556001600160a01b038216158015906200010d57506001600160a01b03811615155b6200015b5760405162461bcd60e51b815260206004820152601860248201527f5a65726f2061646472657373206e6f7420616c6c6f77656400000000000000006044820152606401620000d2565b600c80546001600160a01b038085166001600160a01b031992831617909255600d80549284169290911691909117905542600b55600754600a54600954600854620001a7919062000c96565b620001b3919062000c96565b14620002025760405162461bcd60e51b815260206004820152601860248201527f496e76616c69642066656520646973747269627574696f6e00000000000000006044820152606401620000d2565b601960205261012c7faf1774a4f6312a67d03643fe08542e260cda7d8b905cbb7085846027ecaef158556101f47fbbdf772dd069bb77379687c1d3b4635bbda0a6d8016b1121af6b8da851cfb004556102bc7f0bcf299c23372fd87f20fb7625b0fb3ba9396d4e14305d49a2411c3c391f5d9e556301e133806000526103847f4c25271b32e1eb374138a133c5ca2eb142bf386419a3cbc5c3211087d6df5d3455604080516080810190915280620002cb6103e86d314dc6448d9338c15b0a0000000062000cb2565b8152602001620002eb60646d314dc6448d9338c15b0a0000000062000cb2565b8152603c602080830191909152600160409283018190528351601a5590830151601b5590820151601c55606090910151601d805460ff19169115159190911790556013805480830182556000919091527f66de8ffda797e3de9c05e8fc57b3bf0ec28a930d40b0d285d93c06501cf6a090018054336001600160a01b0319909116811790915560149190915562000391906d314dc6448d9338c15b0a0000000062000406565b505060016024553360009081526026602052604090204260039091015562000d21565b600580546001600160a01b038381166001600160a01b0319831681179093556040519116919082907f8be0079c531659141344cd1fd0a4f28419497f9722a3daafe3b4186f6b6457e090600090a35050565b6001600160a01b038216620004325760405163ec442f0560e01b815260006004820152602401620000d2565b620004406000838362000444565b5050565b6200044e620007fe565b6001600160a01b038316158015906200046f57506001600160a01b03821615155b1562000482576200048283838362000833565b6001600160a01b0383161580620004a057506001600160a01b038216155b80620004ac5750600754155b80620004d057506001600160a01b0383166000908152600e602052604090205460ff165b80620004f457506001600160a01b0382166000908152600e602052604090205460ff165b15620005715762000507838383620008db565b6001600160a01b038316158015906200052857506001600160a01b03821615155b156200056c57816001600160a01b0316836001600160a01b031660008051602062005242833981519152836040516200056391815260200190565b60405180910390a35b505050565b601d5460ff1680156200058d57506001600160a01b0383163014155b8015620005a357506001600160a01b0382163014155b156200065557620005b48162000a01565b601b5481620005d8846001600160a01b031660009081526020819052604090205490565b620005e4919062000c96565b111562000655576001600160a01b0382166000908152600e602052604090205460ff16620006555760405162461bcd60e51b815260206004820152601560248201527f57616c6c6574206c696d697420657863656564656400000000000000000000006044820152606401620000d2565b6000612710600754836200066a919062000cd5565b62000676919062000cb2565b90506000600754600854836200068d919062000cd5565b62000699919062000cb2565b9050600060075460095484620006b0919062000cd5565b620006bc919062000cb2565b9050600081620006cd848662000cef565b620006d9919062000cef565b90506000620006e9858762000cef565b905083156200070c57600c546200070c9089906001600160a01b031686620008db565b82156200072d57600d546200072d9089906001600160a01b031685620008db565b81156200075d5762000740888362000a81565b816021600101600082825462000757919062000c96565b90915550505b6200076a888883620008db565b846021600001600082825462000781919062000c96565b90915550506001600160a01b03881660009081526026602052604081208054879290620007b090849062000c96565b92505081905550866001600160a01b0316886001600160a01b03166000805160206200524283398151915283604051620007ec91815260200190565b60405180910390a35050505050505050565b62000812600554600160a01b900460ff1690565b15620008315760405163d93c066560e01b815260040160405180910390fd5b565b60258054906000620008458362000d05565b90915550506001600160a01b0383166000908152602660205260408120600201805491620008738362000d05565b90915550506001600160a01b0382166000908152602660205260408120600301549003620008d0576001600160a01b0382166000908152602660205260408120426003909101556024805491620008ca8362000d05565b91905055505b505060175460235550565b6001600160a01b0383166200090a578060026000828254620008fe919062000c96565b909155506200097e9050565b6001600160a01b038316600090815260208190526040902054818110156200095f5760405163391434e360e21b81526001600160a01b03851660048201526024810182905260448101839052606401620000d2565b6001600160a01b03841660009081526020819052604090209082900390555b6001600160a01b0382166200099c57600280548290039055620009bb565b6001600160a01b03821660009081526020819052604090208054820190555b816001600160a01b0316836001600160a01b03167fddf252ad1be2c89b69c2b068fc378daa952ba7f163c4a11628f55a4df523b3ef836040516200056391815260200190565b601d5460ff16801562000a245750336000908152600e602052604090205460ff16155b1562000a7e57601a5481111562000a7e5760405162461bcd60e51b815260206004820181905260248201527f5472616e73616374696f6e20616d6f756e742065786365656473206c696d69746044820152606401620000d2565b50565b6001600160a01b03821662000aad57604051634b637e8f60e11b815260006004820152602401620000d2565b620004408260008362000444565b80516001600160a01b038116811462000ad357600080fd5b919050565b6000806040838503121562000aec57600080fd5b62000af78362000abb565b915062000b076020840162000abb565b90509250929050565b634e487b7160e01b600052604160045260246000fd5b600181811c9082168062000b3b57607f821691505b60208210810362000b5c57634e487b7160e01b600052602260045260246000fd5b50919050565b601f8211156200056c57600081815260208120601f850160051c8101602086101562000b8b5750805b601f850160051c820191505b8181101562000bac5782815560010162000b97565b505050505050565b81516001600160401b0381111562000bd05762000bd062000b10565b62000be88162000be1845462000b26565b8462000b62565b602080601f83116001811462000c20576000841562000c075750858301515b600019600386901b1c1916600185901b17855562000bac565b600085815260208120601f198616915b8281101562000c515788860151825594840194600190910190840162000c30565b508582101562000c705787850151600019600388901b60f8161c191681555b5050505050600190811b01905550565b634e487b7160e01b600052601160045260246000fd5b8082018082111562000cac5762000cac62000c80565b92915050565b60008262000cd057634e487b7160e01b600052601260045260246000fd5b500490565b808202811582820484141762000cac5762000cac62000c80565b8181038181111562000cac5762000cac62000c80565b60006001820162000d1a5762000d1a62000c80565b5060010190565b6145118062000d316000396000f3fe60806040526004361061045d5760003560e01c80637c6e5db71161023f578063b1610d7e11610139578063d90125a5116100b6578063f270fde41161007a578063f270fde414610e6f578063f2fde38b14610eb7578063f614134514610ed7578063fe0d94c114610eed578063feb6172414610f0d57600080fd5b8063d90125a514610daf578063da35c66414610de7578063dd62ed3e14610dfd578063e37c3a5514610e43578063ee8a7c1514610e5a57600080fd5b8063bb4d4436116100fd578063bb4d443614610d0b578063be8a361f14610d2b578063c9d27afe14610d42578063ceb88a1614610d62578063d49fab8a14610d8f57600080fd5b8063b1610d7e14610c6a578063b5d5b5fa14610c81578063b6b80605146106c7578063b95ffbce14610ccb578063ba8e568f14610ceb57600080fd5b8063902d55a5116101c7578063a6c266031161018b578063a6c2660314610b9d578063a852afd314610bbb578063a9059cbb14610bdb578063ad1cecb214610bfb578063b0dfd2e614610c1b57600080fd5b8063902d55a514610b1357806395d89b4114610b355780639b22dd7a14610b4a5780639f3d5f4a14610b6a578063a23d3c3514610b7d57600080fd5b80638893002f1161020e5780638893002f14610a3357806388d695b214610a535780638a65d87414610a735780638da5cb5b14610ad55780638ebfc79614610af357600080fd5b80637c6e5db7146109c2578063817b1cd2146109d957806382865218146109ef578063875bb4e214610a0657600080fd5b806336e0004a1161035b5780635296a431116102d857806366666aa91161029c57806366666aa91461094c578063695056881461096257806370a0823114610978578063715018a6146109985780637c4ccbea146109ad57600080fd5b80635296a4311461089f57806355ef9b5e146108bf578063561b2463146108d55780635c975abb146108f557806361d027b31461091457600080fd5b80634a4e3bd51161031f5780634a4e3bd5146107ea5780634aa21c75146107ff5780634e43603a1461081f57806351383f981461087257806351858e271461088a57600080fd5b806336e0004a1461073157806337f135d7146107485780633f4218e01461075f57806342966c681461078f57806343859632146107af57600080fd5b806318160ddd116103e95780632535f762116103ad5780632535f7621461068757806328d4ca88146106a757806329d1f4d6146106c75780632e17de78146106f5578063313ce5671461071557600080fd5b806318160ddd146105f25780631f1f5bb314610607578063207b75511461062757806321efe2001461064757806323b872dd1461066757600080fd5b8063097cd9bf11610430578063097cd9bf146105155780630dbd61e41461056c578063118725ce1461058c578063120a8151146105b057806317d63605146105c657600080fd5b8063013cf08b1461046257806306fdde03146104a1578063095ea7b3146104c35780630962ef79146104f3575b600080fd5b34801561046e57600080fd5b5061048261047d366004613a57565b610f3d565b6040516104989a99989796959493929190613acc565b60405180910390f35b3480156104ad57600080fd5b506104b66110b2565b6040516104989190613b62565b3480156104cf57600080fd5b506104e36104de366004613b91565b611144565b6040519015158152602001610498565b3480156104ff57600080fd5b5061051361050e366004613a57565b61115e565b005b34801561052157600080fd5b5061052a61117c565b6040516104989190600060a082019050825182526020830151602083015260408301516040830152606083015160608301526080830151608083015292915050565b34801561057857600080fd5b50610513610587366004613cb1565b6111e3565b34801561059857600080fd5b506105a260095481565b604051908152602001610498565b3480156105bc57600080fd5b506105a2600a5481565b3480156105d257600080fd5b506105a26105e1366004613cff565b602080526000908152604090205481565b3480156105fe57600080fd5b506002546105a2565b34801561061357600080fd5b50610513610622366004613a57565b6112c2565b34801561063357600080fd5b50610513610642366004613d1c565b6113bf565b34801561065357600080fd5b506105a2610662366004613cff565b61140a565b34801561067357600080fd5b506104e3610682366004613d5b565b6114a1565b34801561069357600080fd5b506104e36106a2366004613e14565b6114c5565b3480156106b357600080fd5b506105a26106c2366004613e6d565b6114dc565b3480156106d357600080fd5b506106e76106e2366004613a57565b6115b7565b604051610498929190613ea2565b34801561070157600080fd5b50610513610710366004613a57565b611652565b34801561072157600080fd5b5060405160128152602001610498565b34801561073d57600080fd5b506014546105a29081565b34801561075457600080fd5b506105a26202a30081565b34801561076b57600080fd5b506104e361077a366004613cff565b600e6020526000908152604090205460ff1681565b34801561079b57600080fd5b506105136107aa366004613a57565b611813565b3480156107bb57600080fd5b506104e36107ca366004613f26565b601160209081526000928352604080842090915290825290205460ff1681565b3480156107f657600080fd5b5061051361183a565b34801561080b57600080fd5b5061051361081a366004613b91565b6118a0565b34801561082b57600080fd5b5061083f61083a366004613cff565b61190d565b60405161049891908151815260208083015190820152604080830151908201526060918201519181019190915260800190565b34801561087e57600080fd5b506105a26301e1338081565b34801561089657600080fd5b50610513611986565b3480156108ab57600080fd5b506105136108ba366004613f56565b6119e4565b3480156108cb57600080fd5b506105a260085481565b3480156108e157600080fd5b506105136108f0366004613f9d565b611a04565b34801561090157600080fd5b50600554600160a01b900460ff166104e3565b34801561092057600080fd5b50600c54610934906001600160a01b031681565b6040516001600160a01b039091168152602001610498565b34801561095857600080fd5b506105a260185481565b34801561096e57600080fd5b506105a2600b5481565b34801561098457600080fd5b506105a2610993366004613cff565b611c06565b3480156109a457600080fd5b50610513611c21565b3480156109b957600080fd5b506105a260c881565b3480156109ce57600080fd5b506105a262278d0081565b3480156109e557600080fd5b506105a260175481565b3480156109fb57600080fd5b506105a262ed4e0081565b348015610a1257600080fd5b506105a2610a21366004613a57565b60196020526000908152604090205481565b348015610a3f57600080fd5b506104e3610a4e366004613e6d565b611c35565b348015610a5f57600080fd5b506104e3610a6e36600461402d565b611ddb565b348015610a7f57600080fd5b50610ab5610a8e366004613cff565b60266020526000908152604090208054600182015460028301546003909301549192909184565b604080519485526020850193909352918301526060820152608001610498565b348015610ae157600080fd5b506005546001600160a01b0316610934565b348015610aff57600080fd5b50610513610b0e366004614087565b611f7e565b348015610b1f57600080fd5b506105a26d314dc6448d9338c15b0a0000000081565b348015610b4157600080fd5b506104b6611fe5565b348015610b5657600080fd5b506105a2610b653660046140b3565b611ff4565b610513610b783660046140ee565b6120e1565b348015610b8957600080fd5b50600d54610934906001600160a01b031681565b348015610ba957600080fd5b506105a269d3c21bcecceda100000081565b348015610bc757600080fd5b50610513610bd6366004613a57565b612187565b348015610be757600080fd5b506104e3610bf6366004613b91565b6121cc565b348015610c0757600080fd5b506105a2610c16366004614115565b6121da565b348015610c2757600080fd5b50602154602254602354602454602554610c42949392919085565b604080519586526020860194909452928401919091526060830152608082015260a001610498565b348015610c7657600080fd5b506105a262093a8081565b348015610c8d57600080fd5b50610ca1610c9c366004613b91565b6123f7565b6040805195865260208601949094529284019190915260608301521515608082015260a001610498565b348015610cd757600080fd5b50610513610ce6366004613a57565b612448565b348015610cf757600080fd5b50610513610d0636600461419e565b612495565b348015610d1757600080fd5b506105a2610d26366004613cff565b612561565b348015610d3757600080fd5b506105a26201518081565b348015610d4e57600080fd5b50610513610d5d3660046141ca565b61256c565b348015610d6e57600080fd5b506105a2610d7d366004613cff565b601e6020526000908152604090205481565b348015610d9b57600080fd5b50610513610daa3660046141ed565b61278c565b348015610dbb57600080fd5b506105a2610dca366004613f26565b601260209081526000928352604080842090915290825290205481565b348015610df357600080fd5b506105a2600f5481565b348015610e0957600080fd5b506105a2610e18366004614224565b6001600160a01b03918216600090815260016020908152604080832093909416825291909152205490565b348015610e4f57600080fd5b506105a26276a70081565b348015610e6657600080fd5b506105a2600a81565b348015610e7b57600080fd5b50601a54601b54601c54601d54610e959392919060ff1684565b6040805194855260208501939093529183015215156060820152608001610498565b348015610ec357600080fd5b50610513610ed2366004613cff565b6128e9565b348015610ee357600080fd5b506105a260075481565b348015610ef957600080fd5b50610513610f08366004613a57565b612924565b348015610f1957600080fd5b506104e3610f28366004613a57565b601f6020526000908152604090205460ff1681565b60106020526000908152604090208054600182015460028301805492936001600160a01b0390921692610f6f90614252565b80601f0160208091040260200160405190810160405280929190818152602001828054610f9b90614252565b8015610fe85780601f10610fbd57610100808354040283529160200191610fe8565b820191906000526020600020905b815481529060010190602001808311610fcb57829003601f168201915b5050506003840154600485015460058601546006870154600788015460088901805498999598949750929550909360ff808316946101009093041692909161102f90614252565b80601f016020809104026020016040519081016040528092919081815260200182805461105b90614252565b80156110a85780601f1061107d576101008083540402835291602001916110a8565b820191906000526020600020905b81548152906001019060200180831161108b57829003601f168201915b505050505090508a565b6060600380546110c190614252565b80601f01602080910402602001604051908101604052809291908181526020018280546110ed90614252565b801561113a5780601f1061110f5761010080835404028352916020019161113a565b820191906000526020600020905b81548152906001019060200180831161111d57829003601f168201915b5050505050905090565b600033611152818585612d36565b60019150505b92915050565b611166612d43565b61116f81612d6d565b6111796001600655565b50565b6111ae6040518060a0016040528060008152602001600081526020016000815260200160008152602001600081525090565b506040805160a08101825260215481526022546020820152602354918101919091526024546060820152602554608082015290565b6111eb612f2c565b60005b82518110156112bd5781600e600085848151811061120e5761120e61428c565b60200260200101516001600160a01b03166001600160a01b0316815260200190815260200160002060006101000a81548160ff02191690831515021790555082818151811061125f5761125f61428c565b60200260200101516001600160a01b03167f210f2a4a589e25d95b24cbdb060d26ae79bbe123a564d0f973503d48badd00ca836040516112a3911515815260200190565b60405180910390a2806112b5816142b8565b9150506111ee565b505050565b6112ca612f2c565b60c88111156113165760405162461bcd60e51b81526020600482015260136024820152724665652065786365656473206d6178696d756d60681b60448201526064015b60405180910390fd5b62015180600b5461132791906142d1565b4210156113765760405162461bcd60e51b815260206004820152601760248201527f466565206368616e676520746f6f206672657175656e74000000000000000000604482015260640161130d565b600780549082905542600b5560408051828152602081018490527fcf4c3ba0667a6e28c2746a4ee8d23efa18b2ca17591c2a22c36773a0232661d8910160405180910390a15050565b6113c7612f2c565b60408051608081018252858152602081018590529081018390529015156060909101819052601a93909355601b91909155601c55601d805460ff19169091179055565b600080805b6001600160a01b03841660009081526016602052604090205481101561149a576001600160a01b03841660009081526016602052604081208054839081106114595761145961428c565b90600052602060002090600502016000015411156114885761147b8482612f59565b61148590836142d1565b91505b80611492816142b8565b91505061140f565b5092915050565b6000336114af858285613049565b6114ba8585856130c8565b506001949350505050565b60006114d23385856130c8565b5060019392505050565b600042821161152d5760405162461bcd60e51b815260206004820152601e60248201527f457865637574652074696d65206d75737420626520696e206675747572650000604482015260640161130d565b8261153733611c06565b10156115555760405162461bcd60e51b815260040161130d906142e4565b6040516bffffffffffffffffffffffff1933606090811b8216602084015286901b166034820152604881018490526068810183905242608882015260009060a80160408051808303601f19018152919052805160209091012095945050505050565b60608060008367ffffffffffffffff8111156115d5576115d5613bbd565b6040519080825280602002602001820160405280156115fe578160200160208202803683370190505b50905060008467ffffffffffffffff81111561161c5761161c613bbd565b604051908082528060200260200182016040528015611645578160200160208202803683370190505b5091959194509092505050565b61165a612d43565b3360009081526016602052604090205481106116ae5760405162461bcd60e51b8152602060048201526013602482015272092dcecc2d8d2c840e6e8c2d6ca40d2dcc8caf606b1b604482015260640161130d565b3360009081526016602052604081208054839081106116cf576116cf61428c565b9060005260206000209060050201905060008160000154116117335760405162461bcd60e51b815260206004820152601760248201527f5374616b6520616c72656164792077697468647261776e000000000000000000604482015260640161130d565b60008160010154426117459190614312565b82546003840154919250908190831015611799576000606461176884600a614325565b611772919061433c565b905061177e8184614312565b9150806018600082825461179291906142d1565b9091555050505b6117a285612d6d565b6000808555601780548492906117b9908490614312565b909155506117ca90503033836130c8565b604080518281526020810187905233917f7fc4727e062e336010f2c282598ef5f14facb3de68cf8195c2f23e1454b2b74e910160405180910390a2505050506111796001600655565b61181d3382613127565b806021600101600082825461183291906142d1565b909155505050565b611842612f2c565b61184a61315d565b6040805181815260079181019190915266554e504155534560c81b60608201523360208201527f2a09e26ec96218a3a144df2e04de096b7f0410106a4caff3cdfa5d667e604f2a906080015b60405180910390a1565b6001600160a01b0382166118e95760405162461bcd60e51b815260206004820152601060248201526f125b9d985b1a59081c1c9bdd1bd8dbdb60821b604482015260640161130d565b600081116119095760405162461bcd60e51b815260040161130d9061435e565b5050565b6119386040518060800160405280600081526020016000815260200160008152602001600081525090565b506001600160a01b0316600090815260266020908152604091829020825160808101845281548152600182015492810192909252600281015492820192909252600390910154606082015290565b61198e612f2c565b6119966131ad565b6040805181815260059181019190915264504155534560d81b60608201523360208201527f2a09e26ec96218a3a144df2e04de096b7f0410106a4caff3cdfa5d667e604f2a90608001611896565b600082116119095760405162461bcd60e51b815260040161130d9061435e565b611a0c612d43565b60008311611a5c5760405162461bcd60e51b815260206004820152601760248201527f416d6f756e74206d75737420626520706f736974697665000000000000000000604482015260640161130d565b62278d00821480611a6f57506276a70082145b80611a7c575062ed4e0082145b80611a8a57506301e1338082145b611acc5760405162461bcd60e51b8152602060048201526013602482015272125b9d985b1a59081b1bd8dac81c195c9a5bd9606a1b604482015260640161130d565b82611ad633611c06565b1015611af45760405162461bcd60e51b815260040161130d906142e4565b611aff3330856130c8565b336000908152601660209081526040808320815160a081018352878152428185018181529382019081526060820188815287151560808401908152845460018082018755958952968820935160059097029093019586559351928501929092559051600284015590516003830155516004909101805460ff191691151591909117905560178054859290611b949084906142d1565b909155505033600090815260166020526040812054611bb590600190614312565b604080518681526020810186905290810182905290915033907fb4caaf29adda3eefee3ad552a8e85058589bf834c7466cae4ee58787f70589ed9060600160405180910390a2506112bd6001600655565b6001600160a01b031660009081526020819052604090205490565b611c29612f2c565b611c3360006131f0565b565b601d54600090829060ff1615611dc757336000908152601e60205260409020544311611c9c5760405162461bcd60e51b815260206004820152601660248201527529b0b6b290313637b1b5903a3930b739b0b1ba34b7b760511b604482015260640161130d565b6040805133602080830191909152818301849052825180830384018152606090920183528151918101919091206000908152601f909152205460ff1615611d125760405162461bcd60e51b815260206004820152600a602482015269139bdb98d9481d5cd95960b21b604482015260640161130d565b601c54336000908152602080526040902054611d2e91906142d1565b421015611d705760405162461bcd60e51b815260206004820152601060248201526f10dbdbdb191bdddb881b9bdd081b595d60821b604482015260640161130d565b336000818152601e602090815260408083204390558051808301859052808201869052815180820383018152606090910182528051908301208352601f8252808320805460ff191660011790559282528052204290555b611dd084613242565b6114ba3386866130c8565b60008151835114611e265760405162461bcd60e51b8152602060048201526015602482015274082e4e4c2f240d8cadccee8d040dad2e6dac2e8c6d605b1b604482015260640161130d565b6000835111611e665760405162461bcd60e51b815260206004820152600c60248201526b456d7074792061727261797360a01b604482015260640161130d565b6000805b8351811015611eac57838181518110611e8557611e8561428c565b602002602001015182611e9891906142d1565b915080611ea4816142b8565b915050611e6a565b5080611eb733611c06565b1015611ed55760405162461bcd60e51b815260040161130d906142e4565b60005b8451811015611f3057611f1e33868381518110611ef757611ef761428c565b6020026020010151868481518110611f1157611f1161428c565b60200260200101516130c8565b80611f28816142b8565b915050611ed8565b50835160405133917f762d9d59f4cdcadad8125dfd5b9228c3f3710c17cd800b7e446f4bacba81a69f91611f6c91858252602082015260400190565b60405180910390a25060019392505050565b611f86612f2c565b6001600160a01b0382166000818152600e6020908152604091829020805460ff191685151590811790915591519182527f210f2a4a589e25d95b24cbdb060d26ae79bbe123a564d0f973503d48badd00ca910160405180910390a25050565b6060600480546110c190614252565b600080831180156120055750600082115b6120465760405162461bcd60e51b8152602060048201526012602482015271496e76616c696420706172616d657465727360701b604482015260640161130d565b6120508285614325565b61205933611c06565b10156120775760405162461bcd60e51b815260040161130d906142e4565b6040516bffffffffffffffffffffffff1933606090811b8216602084015287901b1660348201526048810185905260688101849052608881018390524260a882015260009060c80160408051808303601f1901815291905280516020909101209695505050505050565b46830361211d5760405162461bcd60e51b815260206004820152600a60248201526929b0b6b29031b430b4b760b11b604482015260640161130d565b6001600160a01b0382166121675760405162461bcd60e51b8152602060048201526011602482015270125b9d985b1a59081c9958da5c1a595b9d607a1b604482015260640161130d565b600081116112bd5760405162461bcd60e51b815260040161130d9061435e565b600081116111795760405162461bcd60e51b8152602060048201526012602482015271125b9d985b1a590818dbdb1b185d195c985b60721b604482015260640161130d565b6000336111528185856130c8565b600069d3c21bcecceda10000006121f033611c06565b10156122485760405162461bcd60e51b815260206004820152602160248201527f496e73756666696369656e742062616c616e636520666f722070726f706f73616044820152601b60fa1b606482015260840161130d565b600f805460009182612259836142b8565b919050559050604051806101400160405280828152602001336001600160a01b03168152602001868152602001600081526020016000815260200142815260200162093a80426122a991906142d1565b8152600060208201526040018560038111156122c7576122c7613ab6565b8152602090810185905260008381526010825260409081902083518155918301516001830180546001600160a01b0319166001600160a01b03909216919091179055820151600282019061231b90826143d4565b50606082015181600301556080820151816004015560a0820151816005015560c0820151816006015560e08201518160070160006101000a81548160ff0219169083151502179055506101008201518160070160016101000a81548160ff0219169083600381111561238f5761238f613ab6565b021790555061012082015160088201906123a990826143d4565b50905050336001600160a01b0316817f7585f467599d0f008985f231af99293be388626ac16ca59505c2f8f88969cd63876040516123e79190613b62565b60405180910390a3949350505050565b6016602052816000526040600020818154811061241357600080fd5b600091825260209091206005909102018054600182015460028301546003840154600490940154929550909350919060ff1685565b612450612f2c565b8061245a33611c06565b10156124785760405162461bcd60e51b815260040161130d906142e4565b6124833330836130c8565b806018600082825461183291906142d1565b61249d612f2c565b600754816124ab84866142d1565b6124b591906142d1565b1461250c5760405162461bcd60e51b815260206004820152602160248201527f446973747269627574696f6e206d75737420657175616c20746f74616c2066656044820152606560f81b606482015260840161130d565b60088390556009829055600a81905560408051848152602081018490529081018290527f69fc4c7ba13251e049284d74af6f22b2804db0152deb918f6cf17451917fe97f9060600160405180910390a1505050565b600061115882611c06565b600f5482106125b35760405162461bcd60e51b8152602060048201526013602482015272125b9d985b1a59081c1c9bdc1bdcd85b081251606a1b604482015260640161130d565b600082815260116020908152604080832033845290915290205460ff161561260d5760405162461bcd60e51b815260206004820152600d60248201526c105b1c9958591e481d9bdd1959609a1b604482015260640161130d565b6000828152601060205260409020600601544211156126645760405162461bcd60e51b8152602060048201526013602482015272159bdd1a5b99c81c195c9a5bd908195b991959606a1b604482015260640161130d565b600061266f33611c06565b9050600081116126b35760405162461bcd60e51b815260206004820152600f60248201526e2737903b37ba34b733903837bbb2b960891b604482015260640161130d565b600083815260116020908152604080832033808552908352818420805460ff19166001179055868452601283528184209084529091529020819055811561272057600083815260106020526040812060030180548392906127159084906142d1565b909155506127479050565b600083815260106020526040812060040180548392906127419084906142d1565b90915550505b60408051831515815260208101839052339185917fcbdf6214089cba887ecbf35a0b6a734589959c9763342c756bb2a80ca2bc9f6e91015b60405180910390a3505050565b80518251146127d55760405162461bcd60e51b8152602060048201526015602482015274082e4e4c2f240d8cadccee8d040dad2e6dac2e8c6d605b1b604482015260640161130d565b6000805b835181101561281b578381815181106127f4576127f461428c565b60200260200101518261280791906142d1565b915080612813816142b8565b9150506127d9565b508061282633611c06565b10156128445760405162461bcd60e51b815260040161130d906142e4565b60005b83518110156128a05761288e8482815181106128655761286561428c565b602002602001015184838151811061287f5761287f61428c565b60200260200101516000611a04565b80612898816142b8565b915050612847565b50825160405133917f3ecff5ef3d4cd5a6ae5e312eb3120f011fbdec5c46a2c91b50b2524438e8fcee916128dc91858252602082015260400190565b60405180910390a2505050565b6128f1612f2c565b6001600160a01b03811661291b57604051631e4fbdf760e01b81526000600482015260240161130d565b611179816131f0565b600f54811061296b5760405162461bcd60e51b8152602060048201526013602482015272125b9d985b1a59081c1c9bdc1bdcd85b081251606a1b604482015260640161130d565b6000818152601060205260409020600781015460ff16156129c15760405162461bcd60e51b815260206004820152601060248201526f105b1c9958591e48195e1958dd5d195960821b604482015260640161130d565b80600601544211612a0a5760405162461bcd60e51b8152602060048201526013602482015272566f74696e67207374696c6c2061637469766560681b604482015260640161130d565b6202a3008160060154612a1d91906142d1565b4211612a6b5760405162461bcd60e51b815260206004820152601760248201527f457865637574696f6e2064656c6179206e6f74206d6574000000000000000000604482015260640161130d565b600081600401548260030154612a8191906142d1565b905060006064600a612a9260025490565b612a9c9190614325565b612aa6919061433c565b905080821015612ae95760405162461bcd60e51b815260206004820152600e60248201526d145d5bdc9d5b481b9bdd081b595d60921b604482015260640161130d565b8260040154836003015411612b345760405162461bcd60e51b8152602060048201526011602482015270141c9bdc1bdcd85b081c995a9958dd1959607a1b604482015260640161130d565b60078301805460ff19166001908117909155604080516101408101825285548152918501546001600160a01b03166020830152600285018054612d059392879290840191612b8190614252565b80601f0160208091040260200160405190810160405280929190818152602001828054612bad90614252565b8015612bfa5780601f10612bcf57610100808354040283529160200191612bfa565b820191906000526020600020905b815481529060010190602001808311612bdd57829003601f168201915b50505091835250506003828101546020830152600483015460408301526005830154606083015260068301546080830152600783015460ff808216151560a085015260c0909301926101009091041690811115612c5957612c59613ab6565b6003811115612c6a57612c6a613ab6565b8152602001600882018054612c7e90614252565b80601f0160208091040260200160405190810160405280929190818152602001828054612caa90614252565b8015612cf75780601f10612ccc57610100808354040283529160200191612cf7565b820191906000526020600020905b815481529060010190602001808311612cda57829003601f168201915b5050505050815250506132bb565b60405184907f712ae1383f79ac853f8d882153778e0260ef8f03b504e2866e0593e04d2b291f90600090a250505050565b6112bd83838360016133fe565b600260065403612d6657604051633ee5aeb560e01b815260040160405180910390fd5b6002600655565b336000908152601660205260409020548110612dc15760405162461bcd60e51b8152602060048201526013602482015272092dcecc2d8d2c840e6e8c2d6ca40d2dcc8caf606b1b604482015260640161130d565b336000908152601660205260408120805483908110612de257612de261428c565b906000526020600020906005020190506000816000015411612e385760405162461bcd60e51b815260206004820152600f60248201526e4e6f20616374697665207374616b6560881b604482015260640161130d565b6000612e443384612f59565b9050600081118015612e5857506018548111155b156112bd574282600201819055508060186000828254612e789190614312565b9091555050600482015460ff1615612ec25780826000016000828254612e9e91906142d1565b925050819055508060176000828254612eb791906142d1565b90915550612ecd9050565b612ecd3033836130c8565b3360009081526026602052604081206001018054839290612eef9084906142d1565b9091555050604080518281526020810185905233917ff01da32686223933d8a18a391060918c7f11a3648639edd87ae013e2e273174391016128dc565b6005546001600160a01b03163314611c335760405163118cdaa760e01b815233600482015260240161130d565b6001600160a01b0382166000908152601660205260408120805482919084908110612f8657612f8661428c565b600091825260208083206040805160a08101825260059094029091018054808552600182015493850193909352600281015491840191909152600381015460608401526004015460ff16151560808301529092509003612fea576000915050611158565b6000816040015142612ffc9190614312565b606083015160009081526019602052604081205484519293509164496cebb80090849061302a908590614325565b6130349190614325565b61303e919061433c565b979650505050505050565b6001600160a01b038381166000908152600160209081526040808320938616835292905220546000198110156130c257818110156130b357604051637dc7a0d960e11b81526001600160a01b0384166004820152602481018290526044810183905260640161130d565b6130c2848484840360006133fe565b50505050565b6001600160a01b0383166130f257604051634b637e8f60e11b81526000600482015260240161130d565b6001600160a01b03821661311c5760405163ec442f0560e01b81526000600482015260240161130d565b6112bd8383836134d3565b6001600160a01b03821661315157604051634b637e8f60e11b81526000600482015260240161130d565b611909826000836134d3565b613165613844565b6005805460ff60a01b191690557f5db9ee0a495bf2e6ff9c91a7834c1ba4fdd244a5e8aa4e537bd38aeae4b073aa335b6040516001600160a01b039091168152602001611896565b6131b561386e565b6005805460ff60a01b1916600160a01b1790557f62e78cea01bee320cd4e420270b5ea74000d11b0c9f74754ebdbfc544b05a2586131953390565b600580546001600160a01b038381166001600160a01b0319831681179093556040519116919082907f8be0079c531659141344cd1fd0a4f28419497f9722a3daafe3b4186f6b6457e090600090a35050565b601d5460ff1680156132645750336000908152600e602052604090205460ff16155b1561117957601a548111156111795760405162461bcd60e51b815260206004820181905260248201527f5472616e73616374696f6e20616d6f756e742065786365656473206c696d6974604482015260640161130d565b600081610100015160038111156132d4576132d4613ab6565b036133435760008161012001518060200190518101906132f49190614494565b905060c881111561333d5760405162461bcd60e51b81526020600482015260136024820152724665652065786365656473206d6178696d756d60681b604482015260640161130d565b60075550565b6001816101000151600381111561335c5761335c613ab6565b036111795760008082610120015180602001905181019061337d91906144ad565b600c5491935091508190613399906001600160a01b0316611c06565b10156133e75760405162461bcd60e51b815260206004820152601d60248201527f496e73756666696369656e742074726561737572792062616c616e6365000000604482015260640161130d565b600c546112bd906001600160a01b031683836130c8565b6001600160a01b0384166134285760405163e602df0560e01b81526000600482015260240161130d565b6001600160a01b03831661345257604051634a1406b160e11b81526000600482015260240161130d565b6001600160a01b03808516600090815260016020908152604080832093871683529290522082905580156130c257826001600160a01b0316846001600160a01b03167f8c5be1e5ebec7d5bd14f71427d1e84f3dd0314c0f7b2291e5b200ac8c7c3b925846040516134c591815260200190565b60405180910390a350505050565b6134db61386e565b6001600160a01b038316158015906134fb57506001600160a01b03821615155b1561350b5761350b838383613899565b6001600160a01b038316158061352857506001600160a01b038216155b806135335750600754155b8061355657506001600160a01b0383166000908152600e602052604090205460ff165b8061357957506001600160a01b0382166000908152600e602052604090205460ff165b156135f35761358983838361393a565b6001600160a01b038316158015906135a957506001600160a01b03821615155b156112bd57816001600160a01b0316836001600160a01b03167f59abb1a21ac9c02d9c217285768a906af17496e4cada7962f129b92f0ac948cf8360405161277f91815260200190565b601d5460ff16801561360e57506001600160a01b0383163014155b801561362357506001600160a01b0382163014155b156136ae5761363181613242565b601b548161363e84611c06565b61364891906142d1565b11156136ae576001600160a01b0382166000908152600e602052604090205460ff166136ae5760405162461bcd60e51b815260206004820152601560248201527415d85b1b195d081b1a5b5a5d08195e18d959591959605a1b604482015260640161130d565b6000612710600754836136c19190614325565b6136cb919061433c565b90506000600754600854836136e09190614325565b6136ea919061433c565b90506000600754600954846136ff9190614325565b613709919061433c565b90506000816137188486614312565b6137229190614312565b905060006137308587614312565b9050831561375057600c546137509089906001600160a01b03168661393a565b821561376e57600d5461376e9089906001600160a01b03168561393a565b81156137995761377e8883613127565b816021600101600082825461379391906142d1565b90915550505b6137a488888361393a565b84602160000160008282546137b991906142d1565b90915550506001600160a01b038816600090815260266020526040812080548792906137e69084906142d1565b92505081905550866001600160a01b0316886001600160a01b03167f59abb1a21ac9c02d9c217285768a906af17496e4cada7962f129b92f0ac948cf8360405161383291815260200190565b60405180910390a35050505050505050565b600554600160a01b900460ff16611c3357604051638dfc202b60e01b815260040160405180910390fd5b600554600160a01b900460ff1615611c335760405163d93c066560e01b815260040160405180910390fd5b602580549060006138a9836142b8565b90915550506001600160a01b03831660009081526026602052604081206002018054916138d5836142b8565b90915550506001600160a01b038216600090815260266020526040812060030154900361392f576001600160a01b0382166000908152602660205260408120426003909101556024805491613929836142b8565b91905055505b505060175460235550565b6001600160a01b03831661396557806002600082825461395a91906142d1565b909155506139d79050565b6001600160a01b038316600090815260208190526040902054818110156139b85760405163391434e360e21b81526001600160a01b0385166004820152602481018290526044810183905260640161130d565b6001600160a01b03841660009081526020819052604090209082900390555b6001600160a01b0382166139f357600280548290039055613a12565b6001600160a01b03821660009081526020819052604090208054820190555b816001600160a01b0316836001600160a01b03167fddf252ad1be2c89b69c2b068fc378daa952ba7f163c4a11628f55a4df523b3ef8360405161277f91815260200190565b600060208284031215613a6957600080fd5b5035919050565b6000815180845260005b81811015613a9657602081850181015186830182015201613a7a565b506000602082860101526020601f19601f83011685010191505092915050565b634e487b7160e01b600052602160045260246000fd5b8a81526001600160a01b038a16602082015261014060408201819052600090613af78382018c613a70565b90508960608401528860808401528760a08401528660c084015285151560e084015260048510613b3757634e487b7160e01b600052602160045260246000fd5b84610100840152828103610120840152613b518185613a70565b9d9c50505050505050505050505050565b602081526000613b756020830184613a70565b9392505050565b6001600160a01b038116811461117957600080fd5b60008060408385031215613ba457600080fd5b8235613baf81613b7c565b946020939093013593505050565b634e487b7160e01b600052604160045260246000fd5b604051601f8201601f1916810167ffffffffffffffff81118282101715613bfc57613bfc613bbd565b604052919050565b600067ffffffffffffffff821115613c1e57613c1e613bbd565b5060051b60200190565b600082601f830112613c3957600080fd5b81356020613c4e613c4983613c04565b613bd3565b82815260059290921b84018101918181019086841115613c6d57600080fd5b8286015b84811015613c91578035613c8481613b7c565b8352918301918301613c71565b509695505050505050565b80358015158114613cac57600080fd5b919050565b60008060408385031215613cc457600080fd5b823567ffffffffffffffff811115613cdb57600080fd5b613ce785828601613c28565b925050613cf660208401613c9c565b90509250929050565b600060208284031215613d1157600080fd5b8135613b7581613b7c565b60008060008060808587031215613d3257600080fd5b843593506020850135925060408501359150613d5060608601613c9c565b905092959194509250565b600080600060608486031215613d7057600080fd5b8335613d7b81613b7c565b92506020840135613d8b81613b7c565b929592945050506040919091013590565b600067ffffffffffffffff831115613db657613db6613bbd565b613dc9601f8401601f1916602001613bd3565b9050828152838383011115613ddd57600080fd5b828260208301376000602084830101529392505050565b600082601f830112613e0557600080fd5b613b7583833560208501613d9c565b600080600060608486031215613e2957600080fd5b8335613e3481613b7c565b925060208401359150604084013567ffffffffffffffff811115613e5757600080fd5b613e6386828701613df4565b9150509250925092565b600080600060608486031215613e8257600080fd5b8335613e8d81613b7c565b95602085013595506040909401359392505050565b604080825283519082018190526000906020906060840190828701845b82811015613ee45781516001600160a01b031684529284019290840190600101613ebf565b5050508381038285015284518082528583019183019060005b81811015613f1957835183529284019291840191600101613efd565b5090979650505050505050565b60008060408385031215613f3957600080fd5b823591506020830135613f4b81613b7c565b809150509250929050565b60008060408385031215613f6957600080fd5b82359150602083013567ffffffffffffffff811115613f8757600080fd5b613f9385828601613df4565b9150509250929050565b600080600060608486031215613fb257600080fd5b8335925060208401359150613fc960408501613c9c565b90509250925092565b600082601f830112613fe357600080fd5b81356020613ff3613c4983613c04565b82815260059290921b8401810191818101908684111561401257600080fd5b8286015b84811015613c915780358352918301918301614016565b6000806040838503121561404057600080fd5b823567ffffffffffffffff8082111561405857600080fd5b61406486838701613c28565b9350602085013591508082111561407a57600080fd5b50613f9385828601613fd2565b6000806040838503121561409a57600080fd5b82356140a581613b7c565b9150613cf660208401613c9c565b600080600080608085870312156140c957600080fd5b84356140d481613b7c565b966020860135965060408601359560600135945092505050565b60008060006060848603121561410357600080fd5b833592506020840135613d8b81613b7c565b60008060006060848603121561412a57600080fd5b833567ffffffffffffffff8082111561414257600080fd5b818601915086601f83011261415657600080fd5b61416587833560208501613d9c565b9450602086013591506004821061417b57600080fd5b9092506040850135908082111561419157600080fd5b50613e6386828701613df4565b6000806000606084860312156141b357600080fd5b505081359360208301359350604090920135919050565b600080604083850312156141dd57600080fd5b82359150613cf660208401613c9c565b6000806040838503121561420057600080fd5b823567ffffffffffffffff8082111561421857600080fd5b61406486838701613fd2565b6000806040838503121561423757600080fd5b823561424281613b7c565b91506020830135613f4b81613b7c565b600181811c9082168061426657607f821691505b60208210810361428657634e487b7160e01b600052602260045260246000fd5b50919050565b634e487b7160e01b600052603260045260246000fd5b634e487b7160e01b600052601160045260246000fd5b6000600182016142ca576142ca6142a2565b5060010190565b80820180821115611158576111586142a2565b602080825260149082015273496e73756666696369656e742062616c616e636560601b604082015260600190565b81810381811115611158576111586142a2565b8082028115828204841417611158576111586142a2565b60008261435957634e487b7160e01b600052601260045260246000fd5b500490565b6020808252600e908201526d125b9d985b1a5908185b5bdd5b9d60921b604082015260600190565b601f8211156112bd57600081815260208120601f850160051c810160208610156143ad5750805b601f850160051c820191505b818110156143cc578281556001016143b9565b505050505050565b815167ffffffffffffffff8111156143ee576143ee613bbd565b614402816143fc8454614252565b84614386565b602080601f831160018114614437576000841561441f5750858301515b600019600386901b1c1916600185901b1785556143cc565b600085815260208120601f198616915b8281101561446657888601518255948401946001909101908401614447565b50858210156144845787850151600019600388901b60f8161c191681555b5050505050600190811b01905550565b6000602082840312156144a657600080fd5b5051919050565b600080604083850312156144c057600080fd5b82516144cb81613b7c565b602093909301519294929350505056fea2646970667358221220c526bbb64f04b39f0c47929e2a0abdf5ee88172d6ec5e7fa8adae6198b6dcffc64736f6c6343000814003359abb1a21ac9c02d9c217285768a906af17496e4cada7962f129b92f0ac948cf",
  "linkReferences": {},
  "deployedLinkReferences": {}
}