{
  "_format": "hh-sol-artifact-1",
  "contractName": "TestCaller",
  "sourceName": "contracts/TestCaller.sol",
  "abi": [
    {
      "inputs": [
        {
          "internalType": "address",
          "name": "token",
          "type": "address"
        },
        {
          "internalType": "address",
          "name": "to1",
          "type": "address"
        },
        {
          "internalType": "uint256",
          "name": "amount1",
          "type": "uint256"
        },
        {
          "internalType": "uint256",
          "name": "nonce1",
          "type": "uint256"
        },
        {
          "internalType": "address",
          "name": "to2",
          "type": "address"
        },
        {
          "internalType": "uint256",
          "name": "amount2",
          "type": "uint256"
        },
        {
          "internalType": "uint256",
          "name": "nonce2",
          "type": "uint256"
        }
      ],
      "name": "callTwo",
      "outputs": [
        {
          "internalType": "bool",
          "name": "",
          "type": "bool"
        },
        {
          "internalType": "bool",
          "name": "",
          "type": "bool"
        }
      ],
      "stateMutability": "nonpayable",
      "type": "function"
    }
  ],
  "bytecode": "0x608060405234801561001057600080fd5b50610524806100206000396000f3fe608060405234801561001057600080fd5b506004361061002b5760003560e01c80639d01d80c14610030575b600080fd5b61004a6004803603810190610045919061035a565b610061565b604051610058929190610417565b60405180910390f35b600080610078671dbcf40dd414f69960c01b6102be565b61008c67b6ed75dee6da742460c01b6102be565b6100a067fc97e731209229d060c01b6102be565b60006100b667f7a1d0c7e3241afa60c01b6102be565b6100ca675cb1a38c6374c03960c01b6102be565b60006100e067a85650aeb546261860c01b6102be565b6100f4673d4219b815479a7e60c01b6102be565b8a73ffffffffffffffffffffffffffffffffffffffff16638893002f8b8b8b6040518463ffffffff1660e01b81526004016101319392919061045e565b6020604051808303816000875af192505050801561016d57506040513d601f19601f8201168201806040525081019061016a91906104c1565b60015b61018e5761018567e8c07c286ec527af60c01b6102be565b600091506101a7565b6101a267a3b173b60b7176fc60c01b6102be565b809250505b6101bb67535f91e37d33665660c01b6102be565b6101cf6745f625796edf47ba60c01b6102be565b8a73ffffffffffffffffffffffffffffffffffffffff16638893002f8888886040518463ffffffff1660e01b815260040161020c9392919061045e565b6020604051808303816000875af192505050801561024857506040513d601f19601f8201168201806040525081019061024591906104c1565b60015b61026957610260671ad8ae02f715c65560c01b6102be565b60009050610282565b61027d676e9efe8ae39e72a160c01b6102be565b809150505b6102966785a64b7f8b9df2b860c01b6102be565b6102aa67e9161a8f29bcfa2460c01b6102be565b818193509350505097509795505050505050565b50565b600080fd5b600073ffffffffffffffffffffffffffffffffffffffff82169050919050565b60006102f1826102c6565b9050919050565b610301816102e6565b811461030c57600080fd5b50565b60008135905061031e816102f8565b92915050565b6000819050919050565b61033781610324565b811461034257600080fd5b50565b6000813590506103548161032e565b92915050565b600080600080600080600060e0888a031215610379576103786102c1565b5b60006103878a828b0161030f565b97505060206103988a828b0161030f565b96505060406103a98a828b01610345565b95505060606103ba8a828b01610345565b94505060806103cb8a828b0161030f565b93505060a06103dc8a828b01610345565b92505060c06103ed8a828b01610345565b91505092959891949750929550565b60008115159050919050565b610411816103fc565b82525050565b600060408201905061042c6000830185610408565b6104396020830184610408565b9392505050565b610449816102e6565b82525050565b61045881610324565b82525050565b60006060820190506104736000830186610440565b610480602083018561044f565b61048d604083018461044f565b949350505050565b61049e816103fc565b81146104a957600080fd5b50565b6000815190506104bb81610495565b92915050565b6000602082840312156104d7576104d66102c1565b5b60006104e5848285016104ac565b9150509291505056fea2646970667358221220eb7eb079c4fe55b81078b0ee8c20efb5624095b6e938719e551d376520bcc45a64736f6c63430008140033",
  "linkReferences": {},
  "deployedLinkReferences": {}
}