{
  "_format": "hh-sol-artifact-1",
  "contractName": "NFTTimelock",
  "sourceName": "contracts/NFTTimelock.sol",
  "abi": [
    {
      "inputs": [
        {
          "internalType": "address",
          "name": "_nft",
          "type": "address"
        },
        {
          "internalType": "uint256",
          "name": "_tokenId",
          "type": "uint256"
        },
        {
          "internalType": "uint256",
          "name": "_unlockTime",
          "type": "uint256"
        }
      ],
      "stateMutability": "nonpayable",
      "type": "constructor"
    },
    {
      "inputs": [],
      "name": "nft",
      "outputs": [
        {
          "internalType": "contract IERC721",
          "name": "",
          "type": "address"
        }
      ],
      "stateMutability": "view",
      "type": "function"
    },
    {
      "inputs": [],
      "name": "owner",
      "outputs": [
        {
          "internalType": "address",
          "name": "",
          "type": "address"
        }
      ],
      "stateMutability": "view",
      "type": "function"
    },
    {
      "inputs": [],
      "name": "tokenId",
      "outputs": [
        {
          "internalType": "uint256",
          "name": "",
          "type": "uint256"
        }
      ],
      "stateMutability": "view",
      "type": "function"
    },
    {
      "inputs": [],
      "name": "unlockTime",
      "outputs": [
        {
          "internalType": "uint256",
          "name": "",
          "type": "uint256"
        }
      ],
      "stateMutability": "view",
      "type": "function"
    },
    {
      "inputs": [],
      "name": "withdraw",
      "outputs": [],
      "stateMutability": "nonpayable",
      "type": "function"
    }
  ],
  "bytecode": "0x60e060405234801561001057600080fd5b506040516108e13803806108e1833981810160405281019061003291906101dc565b61004c673616610796feeec360c01b61014060201b60201c565b610066670721bc18a332b76960c01b61014060201b60201c565b336000806101000a81548173ffffffffffffffffffffffffffffffffffffffff021916908373ffffffffffffffffffffffffffffffffffffffff1602179055506100c0679661378f580d53b460c01b61014060201b60201c565b8273ffffffffffffffffffffffffffffffffffffffff1660808173ffffffffffffffffffffffffffffffffffffffff168152505061010e67157fd0b78ca7a7ec60c01b61014060201b60201c565b8160a0818152505061013067fae1115de2aec16b60c01b61014060201b60201c565b8060c0818152505050505061022f565b50565b600080fd5b600073ffffffffffffffffffffffffffffffffffffffff82169050919050565b600061017382610148565b9050919050565b61018381610168565b811461018e57600080fd5b50565b6000815190506101a08161017a565b92915050565b6000819050919050565b6101b9816101a6565b81146101c457600080fd5b50565b6000815190506101d6816101b0565b92915050565b6000806000606084860312156101f5576101f4610143565b5b600061020386828701610191565b9350506020610214868287016101c7565b9250506040610225868287016101c7565b9150509250925092565b60805160a05160c05161066f61027260003960008181610104015261025601526000818160e001526103530152600081816102f501526103c6015261066f6000f3fe608060405234801561001057600080fd5b50600436106100575760003560e01c806317d70f7c1461005c578063251c1aa31461007a5780633ccfd60b1461009857806347ccca02146100a25780638da5cb5b146100c0575b600080fd5b6100646100de565b6040516100719190610428565b60405180910390f35b610082610102565b60405161008f9190610428565b60405180910390f35b6100a0610126565b005b6100aa6103c4565b6040516100b791906104c2565b60405180910390f35b6100c86103e8565b6040516100d591906104fe565b60405180910390f35b7f000000000000000000000000000000000000000000000000000000000000000081565b7f000000000000000000000000000000000000000000000000000000000000000081565b61013a67e13780a252c2286160c01b61040c565b61014e67f43d426c0c040e1560c01b61040c565b610162679acf0044d163411260c01b61040c565b6101766721bd66122bc39f2560c01b61040c565b60008054906101000a900473ffffffffffffffffffffffffffffffffffffffff1673ffffffffffffffffffffffffffffffffffffffff163373ffffffffffffffffffffffffffffffffffffffff1614610204576040517f08c379a00000000000000000000000000000000000000000000000000000000081526004016101fb90610576565b60405180910390fd5b61021867859f91400fc03fd360c01b61040c565b61022c67b9a3b68df66fa68560c01b61040c565b610240676294f2d8a812216360c01b61040c565b610254677591c7660859d8ca60c01b61040c565b7f00000000000000000000000000000000000000000000000000000000000000004210156102b7576040517f08c379a00000000000000000000000000000000000000000000000000000000081526004016102ae906105e2565b60405180910390fd5b6102cb678beed52bc051a0f360c01b61040c565b6102df67881fbd0df28648e760c01b61040c565b6102f367f58262a8e7482c3b60c01b61040c565b7f000000000000000000000000000000000000000000000000000000000000000073ffffffffffffffffffffffffffffffffffffffff166342842e0e3060008054906101000a900473ffffffffffffffffffffffffffffffffffffffff167f00000000000000000000000000000000000000000000000000000000000000006040518463ffffffff1660e01b815260040161039093929190610602565b600060405180830381600087803b1580156103aa57600080fd5b505af11580156103be573d6000803e3d6000fd5b50505050565b7f000000000000000000000000000000000000000000000000000000000000000081565b60008054906101000a900473ffffffffffffffffffffffffffffffffffffffff1681565b50565b6000819050919050565b6104228161040f565b82525050565b600060208201905061043d6000830184610419565b92915050565b600073ffffffffffffffffffffffffffffffffffffffff82169050919050565b6000819050919050565b600061048861048361047e84610443565b610463565b610443565b9050919050565b600061049a8261046d565b9050919050565b60006104ac8261048f565b9050919050565b6104bc816104a1565b82525050565b60006020820190506104d760008301846104b3565b92915050565b60006104e882610443565b9050919050565b6104f8816104dd565b82525050565b600060208201905061051360008301846104ef565b92915050565b600082825260208201905092915050565b7f6e6f74206f776e65720000000000000000000000000000000000000000000000600082015250565b6000610560600983610519565b915061056b8261052a565b602082019050919050565b6000602082019050818103600083015261058f81610553565b9050919050565b7f6c6f636b65640000000000000000000000000000000000000000000000000000600082015250565b60006105cc600683610519565b91506105d782610596565b602082019050919050565b600060208201905081810360008301526105fb816105bf565b9050919050565b600060608201905061061760008301866104ef565b61062460208301856104ef565b6106316040830184610419565b94935050505056fea26469706673582212203454c5207f6084ae8923907baf7a73d478e7431d616218fcc3dad8de6dec9c2764736f6c63430008140033",
  "linkReferences": {},
  "deployedLinkReferences": {}
}