{
  "_format": "hh-sol-artifact-1",
  "contractName": "NFTTimelock",
  "sourceName": "contracts/NFTTimelock.sol",
  "abi": [
    {
      "inputs": [
        {
          "internalType": "address",
          "name": "_nft",
          "type": "address"
        },
        {
          "internalType": "uint256",
          "name": "_tokenId",
          "type": "uint256"
        },
        {
          "internalType": "uint256",
          "name": "_unlockTime",
          "type": "uint256"
        }
      ],
      "stateMutability": "nonpayable",
      "type": "constructor"
    },
    {
      "inputs": [],
      "name": "nft",
      "outputs": [
        {
          "internalType": "contract IERC721",
          "name": "",
          "type": "address"
        }
      ],
      "stateMutability": "view",
      "type": "function"
    },
    {
      "inputs": [],
      "name": "owner",
      "outputs": [
        {
          "internalType": "address",
          "name": "",
          "type": "address"
        }
      ],
      "stateMutability": "view",
      "type": "function"
    },
    {
      "inputs": [],
      "name": "tokenId",
      "outputs": [
        {
          "internalType": "uint256",
          "name": "",
          "type": "uint256"
        }
      ],
      "stateMutability": "view",
      "type": "function"
    },
    {
      "inputs": [],
      "name": "unlockTime",
      "outputs": [
        {
          "internalType": "uint256",
          "name": "",
          "type": "uint256"
        }
      ],
      "stateMutability": "view",
      "type": "function"
    },
    {
      "inputs": [],
      "name": "withdraw",
      "outputs": [],
      "stateMutability": "nonpayable",
      "type": "function"
    }
  ],
  "bytecode": "0x60e060405234801561001057600080fd5b5060405161038038038061038083398101604081905261002f9161005b565b600080546001600160a01b031916331790556001600160a01b039290921660805260a05260c05261009e565b60008060006060848603121561007057600080fd5b83516001600160a01b038116811461008757600080fd5b602085015160409095015190969495509392505050565b60805160a05160c0516102a16100df60003960008181609b0152610166015260008181606101526101e501526000818160cc015261020b01526102a16000f3fe608060405234801561001057600080fd5b50600436106100575760003560e01c806317d70f7c1461005c578063251c1aa3146100965780633ccfd60b146100bd57806347ccca02146100c75780638da5cb5b14610106575b600080fd5b6100837f000000000000000000000000000000000000000000000000000000000000000081565b6040519081526020015b60405180910390f35b6100837f000000000000000000000000000000000000000000000000000000000000000081565b6100c5610119565b005b6100ee7f000000000000000000000000000000000000000000000000000000000000000081565b6040516001600160a01b03909116815260200161008d565b6000546100ee906001600160a01b031681565b6000546001600160a01b031633146101645760405162461bcd60e51b81526020600482015260096024820152683737ba1037bbb732b960b91b60448201526064015b60405180910390fd5b7f00000000000000000000000000000000000000000000000000000000000000004210156101bd5760405162461bcd60e51b81526020600482015260066024820152651b1bd8dad95960d21b604482015260640161015b565b600054604051632142170760e11b81523060048201526001600160a01b0391821660248201527f000000000000000000000000000000000000000000000000000000000000000060448201527f0000000000000000000000000000000000000000000000000000000000000000909116906342842e0e90606401600060405180830381600087803b15801561025157600080fd5b505af1158015610265573d6000803e3d6000fd5b5050505056fea2646970667358221220039a7d8cd91b6e3af541a4f0d331142e2104d60e20ec21dae8e30d8bc52690bf64736f6c63430008140033",
  "linkReferences": {},
  "deployedLinkReferences": {}
}