{
  "_format": "hh-sol-artifact-1",
  "contractName": "SimpleMultiSig",
  "sourceName": "contracts/SimpleMultiSig.sol",
  "abi": [
    {
      "inputs": [
        {
          "internalType": "address[]",
          "name": "_owners",
          "type": "address[]"
        },
        {
          "internalType": "uint256",
          "name": "_required",
          "type": "uint256"
        }
      ],
      "stateMutability": "nonpayable",
      "type": "constructor"
    },
    {
      "anonymous": false,
      "inputs": [
        {
          "indexed": true,
          "internalType": "address",
          "name": "owner",
          "type": "address"
        },
        {
          "indexed": true,
          "internalType": "uint256",
          "name": "txId",
          "type": "uint256"
        }
      ],
      "name": "Confirm",
      "type": "event"
    },
    {
      "anonymous": false,
      "inputs": [
        {
          "indexed": true,
          "internalType": "uint256",
          "name": "txId",
          "type": "uint256"
        }
      ],
      "name": "Execute",
      "type": "event"
    },
    {
      "anonymous": false,
      "inputs": [
        {
          "indexed": true,
          "internalType": "address",
          "name": "owner",
          "type": "address"
        }
      ],
      "name": "OwnerAdded",
      "type": "event"
    },
    {
      "anonymous": false,
      "inputs": [
        {
          "indexed": true,
          "internalType": "address",
          "name": "owner",
          "type": "address"
        }
      ],
      "name": "OwnerRemoved",
      "type": "event"
    },
    {
      "anonymous": false,
      "inputs": [
        {
          "indexed": false,
          "internalType": "uint256",
          "name": "required",
          "type": "uint256"
        }
      ],
      "name": "RequirementChanged",
      "type": "event"
    },
    {
      "anonymous": false,
      "inputs": [
        {
          "indexed": true,
          "internalType": "uint256",
          "name": "txId",
          "type": "uint256"
        },
        {
          "indexed": true,
          "internalType": "address",
          "name": "proposer",
          "type": "address"
        },
        {
          "indexed": false,
          "internalType": "address",
          "name": "to",
          "type": "address"
        },
        {
          "indexed": false,
          "internalType": "uint256",
          "name": "value",
          "type": "uint256"
        }
      ],
      "name": "Submit",
      "type": "event"
    },
    {
      "inputs": [
        {
          "internalType": "address",
          "name": "newOwner",
          "type": "address"
        }
      ],
      "name": "addOwner",
      "outputs": [],
      "stateMutability": "nonpayable",
      "type": "function"
    },
    {
      "inputs": [
        {
          "internalType": "uint256",
          "name": "_required",
          "type": "uint256"
        }
      ],
      "name": "changeRequirement",
      "outputs": [],
      "stateMutability": "nonpayable",
      "type": "function"
    },
    {
      "inputs": [
        {
          "internalType": "uint256",
          "name": "txId",
          "type": "uint256"
        }
      ],
      "name": "confirmTransaction",
      "outputs": [],
      "stateMutability": "nonpayable",
      "type": "function"
    },
    {
      "inputs": [
        {
          "internalType": "uint256",
          "name": "txId",
          "type": "uint256"
        }
      ],
      "name": "executeTransaction",
      "outputs": [],
      "stateMutability": "nonpayable",
      "type": "function"
    },
    {
      "inputs": [
        {
          "internalType": "uint256",
          "name": "",
          "type": "uint256"
        },
        {
          "internalType": "address",
          "name": "",
          "type": "address"
        }
      ],
      "name": "isConfirmed",
      "outputs": [
        {
          "internalType": "bool",
          "name": "",
          "type": "bool"
        }
      ],
      "stateMutability": "view",
      "type": "function"
    },
    {
      "inputs": [
        {
          "internalType": "address",
          "name": "",
          "type": "address"
        }
      ],
      "name": "isOwner",
      "outputs": [
        {
          "internalType": "bool",
          "name": "",
          "type": "bool"
        }
      ],
      "stateMutability": "view",
      "type": "function"
    },
    {
      "inputs": [
        {
          "internalType": "uint256",
          "name": "",
          "type": "uint256"
        }
      ],
      "name": "owners",
      "outputs": [
        {
          "internalType": "address",
          "name": "",
          "type": "address"
        }
      ],
      "stateMutability": "view",
      "type": "function"
    },
    {
      "inputs": [
        {
          "internalType": "address",
          "name": "ownerToRemove",
          "type": "address"
        }
      ],
      "name": "removeOwner",
      "outputs": [],
      "stateMutability": "nonpayable",
      "type": "function"
    },
    {
      "inputs": [],
      "name": "required",
      "outputs": [
        {
          "internalType": "uint256",
          "name": "",
          "type": "uint256"
        }
      ],
      "stateMutability": "view",
      "type": "function"
    },
    {
      "inputs": [
        {
          "internalType": "address",
          "name": "to",
          "type": "address"
        },
        {
          "internalType": "uint256",
          "name": "value",
          "type": "uint256"
        },
        {
          "internalType": "bytes",
          "name": "data",
          "type": "bytes"
        }
      ],
      "name": "submitTransaction",
      "outputs": [
        {
          "internalType": "uint256",
          "name": "",
          "type": "uint256"
        }
      ],
      "stateMutability": "nonpayable",
      "type": "function"
    },
    {
      "inputs": [
        {
          "internalType": "uint256",
          "name": "",
          "type": "uint256"
        }
      ],
      "name": "transactions",
      "outputs": [
        {
          "internalType": "address",
          "name": "to",
          "type": "address"
        },
        {
          "internalType": "uint256",
          "name": "value",
          "type": "uint256"
        },
        {
          "internalType": "bytes",
          "name": "data",
          "type": "bytes"
        },
        {
          "internalType": "bool",
          "name": "executed",
          "type": "bool"
        },
        {
          "internalType": "uint256",
          "name": "confirmations",
          "type": "uint256"
        }
      ],
      "stateMutability": "view",
      "type": "function"
    },
    {
      "stateMutability": "payable",
      "type": "receive"
    }
  ],
  "bytecode": "0x60806040523480156200001157600080fd5b50604051620037d1380380620037d1833981810160405281019062000037919062000716565b62000053679db264df51722d1060c01b620004ea60201b60201c565b6200006f672c8601d35ce40b9460c01b620004ea60201b60201c565b6200008b677b07f4a36927139560c01b620004ea60201b60201c565b620000a767448a72a1a765799860c01b620004ea60201b60201c565b80825110158015620000b95750600081115b620000fb576040517f08c379a0000000000000000000000000000000000000000000000000000000008152600401620000f290620007dd565b60405180910390fd5b62000117670ffdfd9589060a7c60c01b620004ea60201b60201c565b6200013367883f55290d7b705760c01b620004ea60201b60201c565b6200014f67b9bef5ca6f1e910c60c01b620004ea60201b60201c565b60005b8251811015620004be5762000178677a9013176453438360c01b620004ea60201b60201c565b6200019467c662cf2f0581706d60c01b620004ea60201b60201c565b6000838281518110620001ac57620001ab620007ff565b5b60200260200101519050620001d2678bd7862df40e466960c01b620004ea60201b60201c565b620001ee677dd3e5cbc8ac6c4260c01b620004ea60201b60201c565b6200020a67b5c9de5cafd7783460c01b620004ea60201b60201c565b600073ffffffffffffffffffffffffffffffffffffffff168173ffffffffffffffffffffffffffffffffffffffff16036200027c576040517f08c379a000000000000000000000000000000000000000000000000000000000815260040162000273906200087e565b60405180910390fd5b6200029867b098c527d1b5a42360c01b620004ea60201b60201c565b620002b467ee96f0d4c1cad6dd60c01b620004ea60201b60201c565b620002d06772a8544e3251879560c01b620004ea60201b60201c565b620002ec6707c57172ac1e39ba60c01b620004ea60201b60201c565b600460008273ffffffffffffffffffffffffffffffffffffffff1673ffffffffffffffffffffffffffffffffffffffff16815260200190815260200160002060009054906101000a900460ff16156200037c576040517f08c379a00000000000000000000000000000000000000000000000000000000081526004016200037390620008f0565b60405180910390fd5b62000398679f1e1de06a0db95b60c01b620004ea60201b60201c565b620003b46737bd6fc6e48a7a8e60c01b620004ea60201b60201c565b6001600460008373ffffffffffffffffffffffffffffffffffffffff1673ffffffffffffffffffffffffffffffffffffffff16815260200190815260200160002060006101000a81548160ff0219169083151502179055506200042867ccfce620d8b2113a60c01b620004ea60201b60201c565b6200044467e61dc54bf3f3ff6b60c01b620004ea60201b60201c565b6000819080600181540180825580915050600190039060005260206000200160009091909190916101000a81548173ffffffffffffffffffffffffffffffffffffffff021916908373ffffffffffffffffffffffffffffffffffffffff160217905550508080620004b59062000941565b91505062000152565b50620004db677330cde585bae6ca60c01b620004ea60201b60201c565b8060018190555050506200098e565b50565b6000604051905090565b600080fd5b600080fd5b600080fd5b6000601f19601f8301169050919050565b7f4e487b7100000000000000000000000000000000000000000000000000000000600052604160045260246000fd5b620005518262000506565b810181811067ffffffffffffffff8211171562000573576200057262000517565b5b80604052505050565b600062000588620004ed565b905062000596828262000546565b919050565b600067ffffffffffffffff821115620005b957620005b862000517565b5b602082029050602081019050919050565b600080fd5b600073ffffffffffffffffffffffffffffffffffffffff82169050919050565b6000620005fc82620005cf565b9050919050565b6200060e81620005ef565b81146200061a57600080fd5b50565b6000815190506200062e8162000603565b92915050565b60006200064b62000645846200059b565b6200057c565b90508083825260208201905060208402830185811115620006715762000670620005ca565b5b835b818110156200069e57806200068988826200061d565b84526020840193505060208101905062000673565b5050509392505050565b600082601f830112620006c057620006bf62000501565b5b8151620006d284826020860162000634565b91505092915050565b6000819050919050565b620006f081620006db565b8114620006fc57600080fd5b50565b6000815190506200071081620006e5565b92915050565b6000806040838503121562000730576200072f620004f7565b5b600083015167ffffffffffffffff811115620007515762000750620004fc565b5b6200075f85828601620006a8565b92505060206200077285828601620006ff565b9150509250929050565b600082825260208201905092915050565b7f496e76616c6964206d756c746973696720636f6e666967000000000000000000600082015250565b6000620007c56017836200077c565b9150620007d2826200078d565b602082019050919050565b60006020820190508181036000830152620007f881620007b6565b9050919050565b7f4e487b7100000000000000000000000000000000000000000000000000000000600052603260045260246000fd5b7f5a65726f206f776e657200000000000000000000000000000000000000000000600082015250565b600062000866600a836200077c565b915062000873826200082e565b602082019050919050565b60006020820190508181036000830152620008998162000857565b9050919050565b7f4475706c6963617465206f776e65720000000000000000000000000000000000600082015250565b6000620008d8600f836200077c565b9150620008e582620008a0565b602082019050919050565b600060208201905081810360008301526200090b81620008c9565b9050919050565b7f4e487b7100000000000000000000000000000000000000000000000000000000600052601160045260246000fd5b60006200094e82620006db565b91507fffffffffffffffffffffffffffffffffffffffffffffffffffffffffffffffff820362000983576200098262000912565b5b600182019050919050565b612e33806200099e6000396000f3fe6080604052600436106100a05760003560e01c80639ace38c2116100645780639ace38c2146101b5578063ba51a6df146101f6578063c01a8c841461021f578063c642747414610248578063dc8452cd14610285578063ee22610b146102b0576100a7565b8063025e7c27146100ac578063173825d9146100e95780632f54bf6e146101125780637065cb481461014f57806380f59a6514610178576100a7565b366100a757005b600080fd5b3480156100b857600080fd5b506100d360048036038101906100ce9190611f5f565b6102d9565b6040516100e09190611fcd565b60405180910390f35b3480156100f557600080fd5b50610110600480360381019061010b9190612014565b610318565b005b34801561011e57600080fd5b5061013960048036038101906101349190612014565b610a8e565b604051610146919061205c565b60405180910390f35b34801561015b57600080fd5b5061017660048036038101906101719190612014565b610aae565b005b34801561018457600080fd5b5061019f600480360381019061019a9190612077565b610eef565b6040516101ac919061205c565b60405180910390f35b3480156101c157600080fd5b506101dc60048036038101906101d79190611f5f565b610f1e565b6040516101ed959493929190612156565b60405180910390f35b34801561020257600080fd5b5061021d60048036038101906102189190611f5f565b611019565b005b34801561022b57600080fd5b5061024660048036038101906102419190611f5f565b611302565b005b34801561025457600080fd5b5061026f600480360381019061026a91906122e5565b611476565b60405161027c9190612354565b60405180910390f35b34801561029157600080fd5b5061029a611828565b6040516102a79190612354565b60405180910390f35b3480156102bc57600080fd5b506102d760048036038101906102d29190611f5f565b61182e565b005b600081815481106102e957600080fd5b906000526020600020016000915054906101000a900473ffffffffffffffffffffffffffffffffffffffff1681565b61032c67b85d50cc118486ed60c01b611c3e565b61034067faa033fa4192e04960c01b611c3e565b61035467badd57a3eba16ef960c01b611c3e565b610368671b46abe021d4564360c01b611c3e565b61037c673a7f4854c46b88a560c01b611c3e565b600460003373ffffffffffffffffffffffffffffffffffffffff1673ffffffffffffffffffffffffffffffffffffffff16815260200190815260200160002060009054906101000a900460ff16610408576040517f08c379a00000000000000000000000000000000000000000000000000000000081526004016103ff906123cc565b60405180910390fd5b61041c672e8ba69cdbb9686160c01b611c3e565b610430677d92b6be0c250ae560c01b611c3e565b6104446725ecc5f28cf8eef860c01b611c3e565b610458675ed2241fe81a650e60c01b611c3e565b61046c679aa334d99f0a81a960c01b611c3e565b6104806782a7be35b289d02460c01b611c3e565b61049467b4a35531243fbcd660c01b611c3e565b600460008273ffffffffffffffffffffffffffffffffffffffff1673ffffffffffffffffffffffffffffffffffffffff16815260200190815260200160002060009054906101000a900460ff16610520576040517f08c379a000000000000000000000000000000000000000000000000000000000815260040161051790612438565b60405180910390fd5b61053467d9d812a8625ac57f60c01b611c3e565b61054867032c6b856a32753760c01b611c3e565b61055c674642b6344546055860c01b611c3e565b610570670aecf3a20ad06e6a60c01b611c3e565b60015460016000805490506105859190612487565b10156105c6576040517f08c379a00000000000000000000000000000000000000000000000000000000081526004016105bd9061252d565b60405180910390fd5b6105da677584ce5f9dc4d67860c01b611c3e565b6105ee67f36644c86f0a24e460c01b611c3e565b6106026799c79ca44d72ad7c60c01b611c3e565b60007fffffffffffffffffffffffffffffffffffffffffffffffffffffffffffffffff905061063b676a05e105f955a7d560c01b611c3e565b61064f67d631e885ad5f507960c01b611c3e565b60005b6000805490508110156107635761067367d9dda4f6f979fc7e60c01b611c3e565b610687671aa241fe810c8db460c01b611c3e565b8273ffffffffffffffffffffffffffffffffffffffff16600082815481106106b2576106b161254d565b5b9060005260206000200160009054906101000a900473ffffffffffffffffffffffffffffffffffffffff1673ffffffffffffffffffffffffffffffffffffffff160361073c5761070c67446d639fb479ea7960c01b611c3e565b610720672a3c13f409c24b0260c01b611c3e565b809150610737675c99e5a81e7ad40760c01b611c3e565b610763565b6107506748a4a45e0002f92b60c01b611c3e565b808061075b9061257c565b915050610652565b5061077867e0ba3857310f7e8160c01b611c3e565b61078c67b32a0fdff79cc42760c01b611c3e565b6107a067b2acb3481b7e011360c01b611c3e565b7fffffffffffffffffffffffffffffffffffffffffffffffffffffffffffffffff8103610802576040517f08c379a00000000000000000000000000000000000000000000000000000000081526004016107f990612610565b60405180910390fd5b610816674f25fcdb7b8789e360c01b611c3e565b61082a67abca83f9f156e7a160c01b611c3e565b6000600460008473ffffffffffffffffffffffffffffffffffffffff1673ffffffffffffffffffffffffffffffffffffffff16815260200190815260200160002060006101000a81548160ff021916908315150217905550610896671074ebf57e0c1c7b60c01b611c3e565b6108aa67e60efcc9a3d5bc3260c01b611c3e565b60016000805490506108bc9190612487565b811461099b576108d667b89e5a9edcfc46dd60c01b611c3e565b6108ea67767db6e162df98fd60c01b611c3e565b600060016000805490506108fe9190612487565b8154811061090f5761090e61254d565b5b9060005260206000200160009054906101000a900473ffffffffffffffffffffffffffffffffffffffff166000828154811061094e5761094d61254d565b5b9060005260206000200160006101000a81548173ffffffffffffffffffffffffffffffffffffffff021916908373ffffffffffffffffffffffffffffffffffffffff1602179055506109b0565b6109af67e0e4638b543ba9ed60c01b611c3e565b5b6109c4672f37cf6e1ea8de2e60c01b611c3e565b6109d867815bdd599556992260c01b611c3e565b60008054806109ea576109e9612630565b5b6001900381819060005260206000200160006101000a81549073ffffffffffffffffffffffffffffffffffffffff02191690559055610a336740eccc52ef08d36360c01b611c3e565b610a4767a8a8580908aabc4660c01b611c3e565b8173ffffffffffffffffffffffffffffffffffffffff167f58619076adf5bb0943d100ef88d52d7c3fd691b19d3a9071b555b651fbf418da60405160405180910390a25050565b60046020528060005260406000206000915054906101000a900460ff1681565b610ac267129962d0db186dc060c01b611c3e565b610ad667faa033fa4192e04960c01b611c3e565b610aea67badd57a3eba16ef960c01b611c3e565b610afe671b46abe021d4564360c01b611c3e565b610b12673a7f4854c46b88a560c01b611c3e565b600460003373ffffffffffffffffffffffffffffffffffffffff1673ffffffffffffffffffffffffffffffffffffffff16815260200190815260200160002060009054906101000a900460ff16610b9e576040517f08c379a0000000000000000000000000000000000000000000000000000000008152600401610b95906123cc565b60405180910390fd5b610bb2672e8ba69cdbb9686160c01b611c3e565b610bc6677d92b6be0c250ae560c01b611c3e565b610bda676f70c2013d3693f560c01b611c3e565b610bee67343e48b2fc942e8660c01b611c3e565b610c0267a90906788be9450b60c01b611c3e565b610c166751e5ea7130a12be760c01b611c3e565b610c2a67f08dc0fee53b59ee60c01b611c3e565b600073ffffffffffffffffffffffffffffffffffffffff168173ffffffffffffffffffffffffffffffffffffffff1603610c99576040517f08c379a0000000000000000000000000000000000000000000000000000000008152600401610c90906126ab565b60405180910390fd5b610cad67eae41d1ac38a7ffa60c01b611c3e565b610cc167bba51081c99f018760c01b611c3e565b610cd567b713de26f283bceb60c01b611c3e565b610ce96711ab03af3b17e0a660c01b611c3e565b600460008273ffffffffffffffffffffffffffffffffffffffff1673ffffffffffffffffffffffffffffffffffffffff16815260200190815260200160002060009054906101000a900460ff1615610d76576040517f08c379a0000000000000000000000000000000000000000000000000000000008152600401610d6d90612717565b60405180910390fd5b610d8a674d96a33e03c4352760c01b611c3e565b610d9e6765a2e2b96b6d65b460c01b611c3e565b6001600460008373ffffffffffffffffffffffffffffffffffffffff1673ffffffffffffffffffffffffffffffffffffffff16815260200190815260200160002060006101000a81548160ff021916908315150217905550610e0a67c22addcf5636623560c01b611c3e565b610e1e673e3725c0851d53a760c01b611c3e565b6000819080600181540180825580915050600190039060005260206000200160009091909190916101000a81548173ffffffffffffffffffffffffffffffffffffffff021916908373ffffffffffffffffffffffffffffffffffffffff160217905550610e9567691aeea0b1b57f2160c01b611c3e565b610ea967bdb2b76c035f28fe60c01b611c3e565b8073ffffffffffffffffffffffffffffffffffffffff167f994a936646fe87ffe4f1e469d3d6aa417d6b855598397f323de5b449f765f0c360405160405180910390a250565b60036020528160005260406000206020528060005260406000206000915091509054906101000a900460ff1681565b60028181548110610f2e57600080fd5b90600052602060002090600502016000915090508060000160009054906101000a900473ffffffffffffffffffffffffffffffffffffffff1690806001015490806002018054610f7d90612766565b80601f0160208091040260200160405190810160405280929190818152602001828054610fa990612766565b8015610ff65780601f10610fcb57610100808354040283529160200191610ff6565b820191906000526020600020905b815481529060010190602001808311610fd957829003601f168201915b5050505050908060030160009054906101000a900460ff16908060040154905085565b61102d67eecca0496a98d93e60c01b611c3e565b61104167faa033fa4192e04960c01b611c3e565b61105567badd57a3eba16ef960c01b611c3e565b611069671b46abe021d4564360c01b611c3e565b61107d673a7f4854c46b88a560c01b611c3e565b600460003373ffffffffffffffffffffffffffffffffffffffff1673ffffffffffffffffffffffffffffffffffffffff16815260200190815260200160002060009054906101000a900460ff16611109576040517f08c379a0000000000000000000000000000000000000000000000000000000008152600401611100906123cc565b60405180910390fd5b61111d672e8ba69cdbb9686160c01b611c3e565b611131677d92b6be0c250ae560c01b611c3e565b61114567395722e39e9def0760c01b611c3e565b611159675101a258f222a48b60c01b611c3e565b61116d67d67e6dc4d758f0aa60c01b611c3e565b61118167aa514afb1a867bda60c01b611c3e565b611195674098f9c5d07cc60760c01b611c3e565b600081116111d8576040517f08c379a00000000000000000000000000000000000000000000000000000000081526004016111cf906127e3565b60405180910390fd5b6111eb66b63df5cc070b4660c01b611c3e565b6111ff67fcd805c7a5fedcf560c01b611c3e565b611213676057e3f0d6f8c06f60c01b611c3e565b61122767c8c88e08cb605a6360c01b611c3e565b60008054905081111561126f576040517f08c379a000000000000000000000000000000000000000000000000000000000815260040161126690612875565b60405180910390fd5b61128367fd2df8abf4b6493e60c01b611c3e565b61129767d140db5b3bcb0ca060c01b611c3e565b806001819055506112b267f23a79f2e00263de60c01b611c3e565b6112c66757ad316038f7178660c01b611c3e565b7facbdb084c721332ac59f9b8e392196c9eb0e4932862da8eb9beaf0dad4f550da6001546040516112f79190612354565b60405180910390a150565b61131667f64d6b030dac88b860c01b611c3e565b61132a67faa033fa4192e04960c01b611c3e565b61133e67badd57a3eba16ef960c01b611c3e565b611352671b46abe021d4564360c01b611c3e565b611366673a7f4854c46b88a560c01b611c3e565b600460003373ffffffffffffffffffffffffffffffffffffffff1673ffffffffffffffffffffffffffffffffffffffff16815260200190815260200160002060009054906101000a900460ff166113f2576040517f08c379a00000000000000000000000000000000000000000000000000000000081526004016113e9906123cc565b60405180910390fd5b611406672e8ba69cdbb9686160c01b611c3e565b61141a677d92b6be0c250ae560c01b611c3e565b61142e67b5261781fc285d4d60c01b611c3e565b61144267d7078e64cf20d74460c01b611c3e565b6114566792444e73ffded9b360c01b611c3e565b61146a677329268c9697ee3760c01b611c3e565b61147381611c41565b50565b600061148c6729d98bfc0456f29560c01b611c3e565b6114a067faa033fa4192e04960c01b611c3e565b6114b467badd57a3eba16ef960c01b611c3e565b6114c8671b46abe021d4564360c01b611c3e565b6114dc673a7f4854c46b88a560c01b611c3e565b600460003373ffffffffffffffffffffffffffffffffffffffff1673ffffffffffffffffffffffffffffffffffffffff16815260200190815260200160002060009054906101000a900460ff16611568576040517f08c379a000000000000000000000000000000000000000000000000000000000815260040161155f906123cc565b60405180910390fd5b61157c672e8ba69cdbb9686160c01b611c3e565b611590677d92b6be0c250ae560c01b611c3e565b6115a467c80bb33a11e6d1f160c01b611c3e565b6115b8676a08a10f08af7c3660c01b611c3e565b6115cc67f9e7499bc4f9a7ac60c01b611c3e565b6115e06780bb4614166e754c60c01b611c3e565b60006040518060a001604052808673ffffffffffffffffffffffffffffffffffffffff1681526020018581526020018481526020016000151581526020016000815250905061163967817e76b219aeab0f60c01b611c3e565b61164d673c6b828429d9788a60c01b611c3e565b600281908060018154018082558091505060019003906000526020600020906005020160009091909190915060008201518160000160006101000a81548173ffffffffffffffffffffffffffffffffffffffff021916908373ffffffffffffffffffffffffffffffffffffffff1602179055506020820151816001015560408201518160020190816116df9190612a41565b5060608201518160030160006101000a81548160ff0219169083151502179055506080820151816004015550506117206704060c37c1678b5660c01b611c3e565b61173467f97f6eda274cb37660c01b611c3e565b600060016002805490506117489190612487565b905061175e67a49d86faf8989e6260c01b611c3e565b61177267a89493b405fbd73c60c01b611c3e565b3373ffffffffffffffffffffffffffffffffffffffff16817fc7b679e84d58a9a6d68a05757595dd545527b2c7e1fd2c11fc458fb7ea2337a588886040516117bb929190612b13565b60405180910390a36117d767be54beef106f954f60c01b611c3e565b6117eb67fed3c2af67b04cd760c01b611c3e565b6117f481611c41565b611808670c5d4f3d275f690f60c01b611c3e565b61181c67de97ffe919ea047d60c01b611c3e565b80925050509392505050565b60015481565b61184267ee17c136d2f91a2160c01b611c3e565b61185667e5881dafd7065a5160c01b611c3e565b61186a67b2ec023d4a2ee31f60c01b611c3e565b61187e674fc9949c22b5bbea60c01b611c3e565b60028054905081106118c5576040517f08c379a00000000000000000000000000000000000000000000000000000000081526004016118bc90612b88565b60405180910390fd5b6118d967ab9a9c3bbd17cb2b60c01b611c3e565b6118ed6766f99f3c41a072a360c01b611c3e565b611901677333443ba6d6784960c01b611c3e565b6000600282815481106119175761191661254d565b5b9060005260206000209060050201905061193b6749eea0821aef62ad60c01b611c3e565b61194f67e88d92e9f137f32a60c01b611c3e565b6119636728362e236bee732460c01b611c3e565b8060030160009054906101000a900460ff16156119b5576040517f08c379a00000000000000000000000000000000000000000000000000000000081526004016119ac90612bf4565b60405180910390fd5b6119c967b57559df7032790a60c01b611c3e565b6119dd67a81779c1e5702e6560c01b611c3e565b6119f1679d8aec7d5fe3a27b60c01b611c3e565b611a0567d36bab5d65a3a45d60c01b611c3e565b60015481600401541015611a4e576040517f08c379a0000000000000000000000000000000000000000000000000000000008152600401611a4590612c60565b60405180910390fd5b611a6267dfd94bba8931d33260c01b611c3e565b611a76670ac9c9e3c304d0cb60c01b611c3e565b60018160030160006101000a81548160ff021916908315150217905550611aa7679f654610333d132d60c01b611c3e565b611abb67c3265b8b2be4bfe060c01b611c3e565b60008160000160009054906101000a900473ffffffffffffffffffffffffffffffffffffffff1673ffffffffffffffffffffffffffffffffffffffff16826001015483600201604051611b0e9190612d0e565b60006040518083038185875af1925050503d8060008114611b4b576040519150601f19603f3d011682016040523d82523d6000602084013e611b50565b606091505b50509050611b6867985d37f5ce2eb9a560c01b611c3e565b611b7c67bab0da1fa62aedb760c01b611c3e565b611b9067fd733d2cd9e22d7a60c01b611c3e565b80611bd0576040517f08c379a0000000000000000000000000000000000000000000000000000000008152600401611bc790612d71565b60405180910390fd5b611be467925e64b9ff98df4960c01b611c3e565b611bf8673fba34adac627af760c01b611c3e565b611c0c67b83222b09cab19a460c01b611c3e565b827fddb556f1d2c1ec821e910b019d3685b229db152a0ecd517ca7e24b8bd713928960405160405180910390a2505050565b50565b611c55670cedb59263696bbf60c01b611c3e565b611c6967fb8643e8bc1c009260c01b611c3e565b611c7d6708aec6665d8e6b8160c01b611c3e565b611c916792ee3763e5f6be3460c01b611c3e565b6002805490508110611cd8576040517f08c379a0000000000000000000000000000000000000000000000000000000008152600401611ccf90612b88565b60405180910390fd5b611cec674808b029cef2646c60c01b611c3e565b611d0067eef483a6238e1c1360c01b611c3e565b611d1467e903f17079b5354160c01b611c3e565b611d2867168792cd78c491cc60c01b611c3e565b6003600082815260200190815260200160002060003373ffffffffffffffffffffffffffffffffffffffff1673ffffffffffffffffffffffffffffffffffffffff16815260200190815260200160002060009054906101000a900460ff1615611dc6576040517f08c379a0000000000000000000000000000000000000000000000000000000008152600401611dbd90612ddd565b60405180910390fd5b611dda6779000a55c5903bea60c01b611c3e565b611dee67741f9e0bb306ed9360c01b611c3e565b60016003600083815260200190815260200160002060003373ffffffffffffffffffffffffffffffffffffffff1673ffffffffffffffffffffffffffffffffffffffff16815260200190815260200160002060006101000a81548160ff021916908315150217905550611e6b67273f9d083ed59ad560c01b611c3e565b60028181548110611e7f57611e7e61254d565b5b90600052602060002090600502016004016000815480929190611ea19061257c565b9190505550611eba67fdc17b086fa640a260c01b611c3e565b611ece67f103a7afd15c5ed360c01b611c3e565b803373ffffffffffffffffffffffffffffffffffffffff167fbde73c39e691e6143456e01935275fd9f654dacca25911f03ab0d587644377eb60405160405180910390a350565b6000604051905090565b600080fd5b600080fd5b6000819050919050565b611f3c81611f29565b8114611f4757600080fd5b50565b600081359050611f5981611f33565b92915050565b600060208284031215611f7557611f74611f1f565b5b6000611f8384828501611f4a565b91505092915050565b600073ffffffffffffffffffffffffffffffffffffffff82169050919050565b6000611fb782611f8c565b9050919050565b611fc781611fac565b82525050565b6000602082019050611fe26000830184611fbe565b92915050565b611ff181611fac565b8114611ffc57600080fd5b50565b60008135905061200e81611fe8565b92915050565b60006020828403121561202a57612029611f1f565b5b600061203884828501611fff565b91505092915050565b60008115159050919050565b61205681612041565b82525050565b6000602082019050612071600083018461204d565b92915050565b6000806040838503121561208e5761208d611f1f565b5b600061209c85828601611f4a565b92505060206120ad85828601611fff565b9150509250929050565b6120c081611f29565b82525050565b600081519050919050565b600082825260208201905092915050565b60005b838110156121005780820151818401526020810190506120e5565b60008484015250505050565b6000601f19601f8301169050919050565b6000612128826120c6565b61213281856120d1565b93506121428185602086016120e2565b61214b8161210c565b840191505092915050565b600060a08201905061216b6000830188611fbe565b61217860208301876120b7565b818103604083015261218a818661211d565b9050612199606083018561204d565b6121a660808301846120b7565b9695505050505050565b600080fd5b600080fd5b7f4e487b7100000000000000000000000000000000000000000000000000000000600052604160045260246000fd5b6121f28261210c565b810181811067ffffffffffffffff82111715612211576122106121ba565b5b80604052505050565b6000612224611f15565b905061223082826121e9565b919050565b600067ffffffffffffffff8211156122505761224f6121ba565b5b6122598261210c565b9050602081019050919050565b82818337600083830152505050565b600061228861228384612235565b61221a565b9050828152602081018484840111156122a4576122a36121b5565b5b6122af848285612266565b509392505050565b600082601f8301126122cc576122cb6121b0565b5b81356122dc848260208601612275565b91505092915050565b6000806000606084860312156122fe576122fd611f1f565b5b600061230c86828701611fff565b935050602061231d86828701611f4a565b925050604084013567ffffffffffffffff81111561233e5761233d611f24565b5b61234a868287016122b7565b9150509250925092565b600060208201905061236960008301846120b7565b92915050565b600082825260208201905092915050565b7f4e6f74206f776e65720000000000000000000000000000000000000000000000600082015250565b60006123b660098361236f565b91506123c182612380565b602082019050919050565b600060208201905081810360008301526123e5816123a9565b9050919050565b7f4e6f7420616e206f776e65720000000000000000000000000000000000000000600082015250565b6000612422600c8361236f565b915061242d826123ec565b602082019050919050565b6000602082019050818103600083015261245181612415565b9050919050565b7f4e487b7100000000000000000000000000000000000000000000000000000000600052601160045260246000fd5b600061249282611f29565b915061249d83611f29565b92508282039050818111156124b5576124b4612458565b5b92915050565b7f52656d6f766520776f756c642076696f6c61746520726571756972656420636f60008201527f6e6669726d6174696f6e73000000000000000000000000000000000000000000602082015250565b6000612517602b8361236f565b9150612522826124bb565b604082019050919050565b600060208201905081810360008301526125468161250a565b9050919050565b7f4e487b7100000000000000000000000000000000000000000000000000000000600052603260045260246000fd5b600061258782611f29565b91507fffffffffffffffffffffffffffffffffffffffffffffffffffffffffffffffff82036125b9576125b8612458565b5b600182019050919050565b7f4f776e6572206e6f7420666f756e640000000000000000000000000000000000600082015250565b60006125fa600f8361236f565b9150612605826125c4565b602082019050919050565b60006020820190508181036000830152612629816125ed565b9050919050565b7f4e487b7100000000000000000000000000000000000000000000000000000000600052603160045260246000fd5b7f5a65726f206f776e657200000000000000000000000000000000000000000000600082015250565b6000612695600a8361236f565b91506126a08261265f565b602082019050919050565b600060208201905081810360008301526126c481612688565b9050919050565b7f416c7265616479206f776e657200000000000000000000000000000000000000600082015250565b6000612701600d8361236f565b915061270c826126cb565b602082019050919050565b60006020820190508181036000830152612730816126f4565b9050919050565b7f4e487b7100000000000000000000000000000000000000000000000000000000600052602260045260246000fd5b6000600282049050600182168061277e57607f821691505b60208210810361279157612790612737565b5b50919050565b7f5265717569726564206d757374206265203e2030000000000000000000000000600082015250565b60006127cd60148361236f565b91506127d882612797565b602082019050919050565b600060208201905081810360008301526127fc816127c0565b9050919050565b7f52657175697265642063616e6e6f7420657863656564206f776e657220636f7560008201527f6e74000000000000000000000000000000000000000000000000000000000000602082015250565b600061285f60228361236f565b915061286a82612803565b604082019050919050565b6000602082019050818103600083015261288e81612852565b9050919050565b60008190508160005260206000209050919050565b60006020601f8301049050919050565b600082821b905092915050565b6000600883026128f77fffffffffffffffffffffffffffffffffffffffffffffffffffffffffffffffff826128ba565b61290186836128ba565b95508019841693508086168417925050509392505050565b6000819050919050565b600061293e61293961293484611f29565b612919565b611f29565b9050919050565b6000819050919050565b61295883612923565b61296c61296482612945565b8484546128c7565b825550505050565b600090565b612981612974565b61298c81848461294f565b505050565b5b818110156129b0576129a5600082612979565b600181019050612992565b5050565b601f8211156129f5576129c681612895565b6129cf846128aa565b810160208510156129de578190505b6129f26129ea856128aa565b830182612991565b50505b505050565b600082821c905092915050565b6000612a18600019846008026129fa565b1980831691505092915050565b6000612a318383612a07565b9150826002028217905092915050565b612a4a826120c6565b67ffffffffffffffff811115612a6357612a626121ba565b5b612a6d8254612766565b612a788282856129b4565b600060209050601f831160018114612aab5760008415612a99578287015190505b612aa38582612a25565b865550612b0b565b601f198416612ab986612895565b60005b82811015612ae157848901518255600182019150602085019450602081019050612abc565b86831015612afe5784890151612afa601f891682612a07565b8355505b6001600288020188555050505b505050505050565b6000604082019050612b286000830185611fbe565b612b3560208301846120b7565b9392505050565b7f496e76616c696420747800000000000000000000000000000000000000000000600082015250565b6000612b72600a8361236f565b9150612b7d82612b3c565b602082019050919050565b60006020820190508181036000830152612ba181612b65565b9050919050565b7f416c726561647920657865637574656400000000000000000000000000000000600082015250565b6000612bde60108361236f565b9150612be982612ba8565b602082019050919050565b60006020820190508181036000830152612c0d81612bd1565b9050919050565b7f4e6f7420656e6f75676820636f6e6669726d6174696f6e730000000000000000600082015250565b6000612c4a60188361236f565b9150612c5582612c14565b602082019050919050565b60006020820190508181036000830152612c7981612c3d565b9050919050565b600081905092915050565b60008154612c9881612766565b612ca28186612c80565b94506001821660008114612cbd5760018114612cd257612d05565b60ff1983168652811515820286019350612d05565b612cdb85612895565b60005b83811015612cfd57815481890152600182019150602081019050612cde565b838801955050505b50505092915050565b6000612d1a8284612c8b565b915081905092915050565b7f457865637574696f6e206661696c656400000000000000000000000000000000600082015250565b6000612d5b60108361236f565b9150612d6682612d25565b602082019050919050565b60006020820190508181036000830152612d8a81612d4e565b9050919050565b7f416c726561647920636f6e6669726d6564000000000000000000000000000000600082015250565b6000612dc760118361236f565b9150612dd282612d91565b602082019050919050565b60006020820190508181036000830152612df681612dba565b905091905056fea264697066735822122057b210cf867ce570be4c078f9149d62899b9bf8b2c6cb6dd6b334f91058ff1d764736f6c63430008140033",
  "linkReferences": {},
  "deployedLinkReferences": {}
}