{
  "_format": "hh-sol-artifact-1",
  "contractName": "SimpleMultiSig",
  "sourceName": "contracts/SimpleMultiSig.sol",
  "abi": [
    {
      "inputs": [
        {
          "internalType": "address[]",
          "name": "_owners",
          "type": "address[]"
        },
        {
          "internalType": "uint256",
          "name": "_required",
          "type": "uint256"
        }
      ],
      "stateMutability": "nonpayable",
      "type": "constructor"
    },
    {
      "anonymous": false,
      "inputs": [
        {
          "indexed": true,
          "internalType": "address",
          "name": "owner",
          "type": "address"
        },
        {
          "indexed": true,
          "internalType": "uint256",
          "name": "txId",
          "type": "uint256"
        }
      ],
      "name": "Confirm",
      "type": "event"
    },
    {
      "anonymous": false,
      "inputs": [
        {
          "indexed": true,
          "internalType": "uint256",
          "name": "txId",
          "type": "uint256"
        }
      ],
      "name": "Execute",
      "type": "event"
    },
    {
      "anonymous": false,
      "inputs": [
        {
          "indexed": true,
          "internalType": "uint256",
          "name": "txId",
          "type": "uint256"
        },
        {
          "indexed": true,
          "internalType": "address",
          "name": "proposer",
          "type": "address"
        },
        {
          "indexed": false,
          "internalType": "address",
          "name": "to",
          "type": "address"
        },
        {
          "indexed": false,
          "internalType": "uint256",
          "name": "value",
          "type": "uint256"
        }
      ],
      "name": "Submit",
      "type": "event"
    },
    {
      "inputs": [
        {
          "internalType": "uint256",
          "name": "txId",
          "type": "uint256"
        }
      ],
      "name": "confirmTransaction",
      "outputs": [],
      "stateMutability": "nonpayable",
      "type": "function"
    },
    {
      "inputs": [
        {
          "internalType": "uint256",
          "name": "txId",
          "type": "uint256"
        }
      ],
      "name": "executeTransaction",
      "outputs": [],
      "stateMutability": "nonpayable",
      "type": "function"
    },
    {
      "inputs": [
        {
          "internalType": "uint256",
          "name": "",
          "type": "uint256"
        },
        {
          "internalType": "address",
          "name": "",
          "type": "address"
        }
      ],
      "name": "isConfirmed",
      "outputs": [
        {
          "internalType": "bool",
          "name": "",
          "type": "bool"
        }
      ],
      "stateMutability": "view",
      "type": "function"
    },
    {
      "inputs": [
        {
          "internalType": "address",
          "name": "",
          "type": "address"
        }
      ],
      "name": "isOwner",
      "outputs": [
        {
          "internalType": "bool",
          "name": "",
          "type": "bool"
        }
      ],
      "stateMutability": "view",
      "type": "function"
    },
    {
      "inputs": [
        {
          "internalType": "uint256",
          "name": "",
          "type": "uint256"
        }
      ],
      "name": "owners",
      "outputs": [
        {
          "internalType": "address",
          "name": "",
          "type": "address"
        }
      ],
      "stateMutability": "view",
      "type": "function"
    },
    {
      "inputs": [],
      "name": "required",
      "outputs": [
        {
          "internalType": "uint256",
          "name": "",
          "type": "uint256"
        }
      ],
      "stateMutability": "view",
      "type": "function"
    },
    {
      "inputs": [
        {
          "internalType": "address",
          "name": "to",
          "type": "address"
        },
        {
          "internalType": "uint256",
          "name": "value",
          "type": "uint256"
        },
        {
          "internalType": "bytes",
          "name": "data",
          "type": "bytes"
        }
      ],
      "name": "submitTransaction",
      "outputs": [
        {
          "internalType": "uint256",
          "name": "",
          "type": "uint256"
        }
      ],
      "stateMutability": "nonpayable",
      "type": "function"
    },
    {
      "inputs": [
        {
          "internalType": "uint256",
          "name": "",
          "type": "uint256"
        }
      ],
      "name": "transactions",
      "outputs": [
        {
          "internalType": "address",
          "name": "to",
          "type": "address"
        },
        {
          "internalType": "uint256",
          "name": "value",
          "type": "uint256"
        },
        {
          "internalType": "bytes",
          "name": "data",
          "type": "bytes"
        },
        {
          "internalType": "bool",
          "name": "executed",
          "type": "bool"
        },
        {
          "internalType": "uint256",
          "name": "confirmations",
          "type": "uint256"
        }
      ],
      "stateMutability": "view",
      "type": "function"
    },
    {
      "stateMutability": "payable",
      "type": "receive"
    }
  ],
  "bytecode": "0x60806040523480156200001157600080fd5b5060405162000fa938038062000fa9833981016040819052620000349162000229565b80825110158015620000465750600081115b620000985760405162461bcd60e51b815260206004820152601760248201527f496e76616c6964206d756c746973696720636f6e66696700000000000000000060448201526064015b60405180910390fd5b60005b8251811015620001eb576000838281518110620000bc57620000bc62000303565b6020026020010151905060006001600160a01b0316816001600160a01b031603620001175760405162461bcd60e51b815260206004820152600a6024820152692d32b9379037bbb732b960b11b60448201526064016200008f565b6001600160a01b03811660009081526004602052604090205460ff1615620001745760405162461bcd60e51b815260206004820152600f60248201526e223ab83634b1b0ba329037bbb732b960891b60448201526064016200008f565b6001600160a01b03166000818152600460205260408120805460ff19166001908117909155815490810182559080527f290decd9548b62a8d60345a988386fc84ba6bc95484008f6362f93160ef3e5630180546001600160a01b031916909117905580620001e28162000319565b9150506200009b565b506001555062000341565b634e487b7160e01b600052604160045260246000fd5b80516001600160a01b03811681146200022457600080fd5b919050565b600080604083850312156200023d57600080fd5b82516001600160401b03808211156200025557600080fd5b818501915085601f8301126200026a57600080fd5b8151602082821115620002815762000281620001f6565b8160051b604051601f19603f83011681018181108682111715620002a957620002a9620001f6565b604052928352818301935084810182019289841115620002c857600080fd5b948201945b83861015620002f157620002e1866200020c565b85529482019493820193620002cd565b97909101519698969750505050505050565b634e487b7160e01b600052603260045260246000fd5b6000600182016200033a57634e487b7160e01b600052601160045260246000fd5b5060010190565b610c5880620003516000396000f3fe60806040526004361061007f5760003560e01c8063c01a8c841161004e578063c01a8c8414610174578063c642747414610196578063dc8452cd146101c4578063ee22610b146101da57600080fd5b8063025e7c271461008b5780632f54bf6e146100c857806380f59a65146101085780639ace38c21461014357600080fd5b3661008657005b600080fd5b34801561009757600080fd5b506100ab6100a6366004610826565b6101fa565b6040516001600160a01b0390911681526020015b60405180910390f35b3480156100d457600080fd5b506100f86100e336600461085b565b60046020526000908152604090205460ff1681565b60405190151581526020016100bf565b34801561011457600080fd5b506100f861012336600461087d565b600360209081526000928352604080842090915290825290205460ff1681565b34801561014f57600080fd5b5061016361015e366004610826565b610224565b6040516100bf9594939291906108a9565b34801561018057600080fd5b5061019461018f366004610826565b6102fd565b005b3480156101a257600080fd5b506101b66101b136600461093a565b610359565b6040519081526020016100bf565b3480156101d057600080fd5b506101b660015481565b3480156101e657600080fd5b506101946101f5366004610826565b61050e565b6000818154811061020a57600080fd5b6000918252602090912001546001600160a01b0316905081565b6002818154811061023457600080fd5b60009182526020909120600590910201805460018201546002830180546001600160a01b03909316945090929161026a90610a05565b80601f016020809104026020016040519081016040528092919081815260200182805461029690610a05565b80156102e35780601f106102b8576101008083540402835291602001916102e3565b820191906000526020600020905b8154815290600101906020018083116102c657829003601f168201915b505050506003830154600490930154919260ff1691905085565b3360009081526004602052604090205460ff1661034d5760405162461bcd60e51b81526020600482015260096024820152682737ba1037bbb732b960b91b60448201526064015b60405180910390fd5b610356816106ff565b50565b3360009081526004602052604081205460ff166103a45760405162461bcd60e51b81526020600482015260096024820152682737ba1037bbb732b960b91b6044820152606401610344565b6040805160a0810182526001600160a01b038681168252602082018681529282018581526000606084018190526080840181905260028054600181018255915283517f405787fa12a823e0f2b7631cc41b3ba8828b3321ca811111fa75cd3aa3bb5ace600590920291820180546001600160a01b0319169190941617835593517f405787fa12a823e0f2b7631cc41b3ba8828b3321ca811111fa75cd3aa3bb5acf85015551919283927f405787fa12a823e0f2b7631cc41b3ba8828b3321ca811111fa75cd3aa3bb5ad09091019061047c9082610a8e565b50606082015160038201805460ff19169115159190911790556080909101516004909101556002546000906104b390600190610b64565b604080516001600160a01b038916815260208101889052919250339183917fc7b679e84d58a9a6d68a05757595dd545527b2c7e1fd2c11fc458fb7ea2337a5910160405180910390a3610505816106ff565b95945050505050565b600254811061054c5760405162461bcd60e51b815260206004820152600a602482015269092dcecc2d8d2c840e8f60b31b6044820152606401610344565b60006002828154811061056157610561610b7d565b60009182526020909120600590910201600381015490915060ff16156105bc5760405162461bcd60e51b815260206004820152601060248201526f105b1c9958591e48195e1958dd5d195960821b6044820152606401610344565b600154816004015410156106125760405162461bcd60e51b815260206004820152601860248201527f4e6f7420656e6f75676820636f6e6669726d6174696f6e7300000000000000006044820152606401610344565b60038101805460ff191660019081179091558154908201546040516000926001600160a01b03169190610649906002860190610b93565b60006040518083038185875af1925050503d8060008114610686576040519150601f19603f3d011682016040523d82523d6000602084013e61068b565b606091505b50509050806106cf5760405162461bcd60e51b815260206004820152601060248201526f115e1958dd5d1a5bdb8819985a5b195960821b6044820152606401610344565b60405183907fddb556f1d2c1ec821e910b019d3685b229db152a0ecd517ca7e24b8bd713928990600090a2505050565b600254811061073d5760405162461bcd60e51b815260206004820152600a602482015269092dcecc2d8d2c840e8f60b31b6044820152606401610344565b600081815260036020908152604080832033845290915290205460ff161561079b5760405162461bcd60e51b8152602060048201526011602482015270105b1c9958591e4818dbdb999a5c9b5959607a1b6044820152606401610344565b60008181526003602090815260408083203384529091529020805460ff1916600117905560028054829081106107d3576107d3610b7d565b6000918252602082206004600590920201018054916107f183610c09565b9091555050604051819033907fbde73c39e691e6143456e01935275fd9f654dacca25911f03ab0d587644377eb90600090a350565b60006020828403121561083857600080fd5b5035919050565b80356001600160a01b038116811461085657600080fd5b919050565b60006020828403121561086d57600080fd5b6108768261083f565b9392505050565b6000806040838503121561089057600080fd5b823591506108a06020840161083f565b90509250929050565b60018060a01b038616815260006020868184015260a0604084015285518060a085015260005b818110156108eb5787810183015185820160c0015282016108cf565b50600060c0828601015260c0601f19601f83011685010192505050610914606083018515159052565b8260808301529695505050505050565b634e487b7160e01b600052604160045260246000fd5b60008060006060848603121561094f57600080fd5b6109588461083f565b925060208401359150604084013567ffffffffffffffff8082111561097c57600080fd5b818601915086601f83011261099057600080fd5b8135818111156109a2576109a2610924565b604051601f8201601f19908116603f011681019083821181831017156109ca576109ca610924565b816040528281528960208487010111156109e357600080fd5b8260208601602083013760006020848301015280955050505050509250925092565b600181811c90821680610a1957607f821691505b602082108103610a3957634e487b7160e01b600052602260045260246000fd5b50919050565b601f821115610a8957600081815260208120601f850160051c81016020861015610a665750805b601f850160051c820191505b81811015610a8557828155600101610a72565b5050505b505050565b815167ffffffffffffffff811115610aa857610aa8610924565b610abc81610ab68454610a05565b84610a3f565b602080601f831160018114610af15760008415610ad95750858301515b600019600386901b1c1916600185901b178555610a85565b600085815260208120601f198616915b82811015610b2057888601518255948401946001909101908401610b01565b5085821015610b3e5787850151600019600388901b60f8161c191681555b5050505050600190811b01905550565b634e487b7160e01b600052601160045260246000fd5b81810381811115610b7757610b77610b4e565b92915050565b634e487b7160e01b600052603260045260246000fd5b6000808354610ba181610a05565b60018281168015610bb95760018114610bce57610bfd565b60ff1984168752821515830287019450610bfd565b8760005260208060002060005b85811015610bf45781548a820152908401908201610bdb565b50505082870194505b50929695505050505050565b600060018201610c1b57610c1b610b4e565b506001019056fea26469706673582212203d020cd7ba944d5fc8dc60271a02e3fb41cb074437b298ba0420ba39d5dc482064736f6c63430008140033",
  "linkReferences": {},
  "deployedLinkReferences": {}
}