{
  "_format": "hh-sol-artifact-1",
  "contractName": "FIACoinV6Upgradeable",
  "sourceName": "contracts/FIACoinV6Upgradeable.sol",
  "abi": [
    {
      "inputs": [],
      "stateMutability": "nonpayable",
      "type": "constructor"
    },
    {
      "inputs": [
        {
          "internalType": "address",
          "name": "target",
          "type": "address"
        }
      ],
      "name": "AddressEmptyCode",
      "type": "error"
    },
    {
      "inputs": [
        {
          "internalType": "address",
          "name": "implementation",
          "type": "address"
        }
      ],
      "name": "ERC1967InvalidImplementation",
      "type": "error"
    },
    {
      "inputs": [],
      "name": "ERC1967NonPayable",
      "type": "error"
    },
    {
      "inputs": [
        {
          "internalType": "address",
          "name": "spender",
          "type": "address"
        },
        {
          "internalType": "uint256",
          "name": "allowance",
          "type": "uint256"
        },
        {
          "internalType": "uint256",
          "name": "needed",
          "type": "uint256"
        }
      ],
      "name": "ERC20InsufficientAllowance",
      "type": "error"
    },
    {
      "inputs": [
        {
          "internalType": "address",
          "name": "sender",
          "type": "address"
        },
        {
          "internalType": "uint256",
          "name": "balance",
          "type": "uint256"
        },
        {
          "internalType": "uint256",
          "name": "needed",
          "type": "uint256"
        }
      ],
      "name": "ERC20InsufficientBalance",
      "type": "error"
    },
    {
      "inputs": [
        {
          "internalType": "address",
          "name": "approver",
          "type": "address"
        }
      ],
      "name": "ERC20InvalidApprover",
      "type": "error"
    },
    {
      "inputs": [
        {
          "internalType": "address",
          "name": "receiver",
          "type": "address"
        }
      ],
      "name": "ERC20InvalidReceiver",
      "type": "error"
    },
    {
      "inputs": [
        {
          "internalType": "address",
          "name": "sender",
          "type": "address"
        }
      ],
      "name": "ERC20InvalidSender",
      "type": "error"
    },
    {
      "inputs": [
        {
          "internalType": "address",
          "name": "spender",
          "type": "address"
        }
      ],
      "name": "ERC20InvalidSpender",
      "type": "error"
    },
    {
      "inputs": [],
      "name": "EnforcedPause",
      "type": "error"
    },
    {
      "inputs": [],
      "name": "ExpectedPause",
      "type": "error"
    },
    {
      "inputs": [],
      "name": "FailedCall",
      "type": "error"
    },
    {
      "inputs": [],
      "name": "InvalidInitialization",
      "type": "error"
    },
    {
      "inputs": [],
      "name": "NotInitializing",
      "type": "error"
    },
    {
      "inputs": [
        {
          "internalType": "address",
          "name": "owner",
          "type": "address"
        }
      ],
      "name": "OwnableInvalidOwner",
      "type": "error"
    },
    {
      "inputs": [
        {
          "internalType": "address",
          "name": "account",
          "type": "address"
        }
      ],
      "name": "OwnableUnauthorizedAccount",
      "type": "error"
    },
    {
      "inputs": [],
      "name": "ReentrancyGuardReentrantCall",
      "type": "error"
    },
    {
      "inputs": [],
      "name": "UUPSUnauthorizedCallContext",
      "type": "error"
    },
    {
      "inputs": [
        {
          "internalType": "bytes32",
          "name": "slot",
          "type": "bytes32"
        }
      ],
      "name": "UUPSUnsupportedProxiableUUID",
      "type": "error"
    },
    {
      "anonymous": false,
      "inputs": [
        {
          "indexed": true,
          "internalType": "address",
          "name": "owner",
          "type": "address"
        },
        {
          "indexed": true,
          "internalType": "address",
          "name": "spender",
          "type": "address"
        },
        {
          "indexed": false,
          "internalType": "uint256",
          "name": "value",
          "type": "uint256"
        }
      ],
      "name": "Approval",
      "type": "event"
    },
    {
      "anonymous": false,
      "inputs": [
        {
          "indexed": true,
          "internalType": "address",
          "name": "from",
          "type": "address"
        },
        {
          "indexed": false,
          "internalType": "uint256",
          "name": "totalAmount",
          "type": "uint256"
        },
        {
          "indexed": false,
          "internalType": "uint256",
          "name": "recipientCount",
          "type": "uint256"
        }
      ],
      "name": "BatchTransfer",
      "type": "event"
    },
    {
      "anonymous": false,
      "inputs": [
        {
          "indexed": false,
          "internalType": "string",
          "name": "action",
          "type": "string"
        },
        {
          "indexed": true,
          "internalType": "address",
          "name": "actor",
          "type": "address"
        }
      ],
      "name": "EmergencyAction",
      "type": "event"
    },
    {
      "anonymous": false,
      "inputs": [
        {
          "indexed": false,
          "internalType": "uint256",
          "name": "oldFee",
          "type": "uint256"
        },
        {
          "indexed": false,
          "internalType": "uint256",
          "name": "newFee",
          "type": "uint256"
        }
      ],
      "name": "FeeConfigurationChanged",
      "type": "event"
    },
    {
      "anonymous": false,
      "inputs": [
        {
          "indexed": false,
          "internalType": "uint256",
          "name": "treasury",
          "type": "uint256"
        },
        {
          "indexed": false,
          "internalType": "uint256",
          "name": "founder",
          "type": "uint256"
        },
        {
          "indexed": false,
          "internalType": "uint256",
          "name": "burn",
          "type": "uint256"
        }
      ],
      "name": "FeeDistributionChanged",
      "type": "event"
    },
    {
      "anonymous": false,
      "inputs": [
        {
          "indexed": true,
          "internalType": "address",
          "name": "account",
          "type": "address"
        },
        {
          "indexed": false,
          "internalType": "bool",
          "name": "exempt",
          "type": "bool"
        }
      ],
      "name": "FeeExemptionSet",
      "type": "event"
    },
    {
      "anonymous": false,
      "inputs": [
        {
          "indexed": true,
          "internalType": "address",
          "name": "from",
          "type": "address"
        },
        {
          "indexed": true,
          "internalType": "address",
          "name": "to",
          "type": "address"
        },
        {
          "indexed": false,
          "internalType": "uint256",
          "name": "amount",
          "type": "uint256"
        }
      ],
      "name": "Fingered",
      "type": "event"
    },
    {
      "anonymous": false,
      "inputs": [
        {
          "indexed": false,
          "internalType": "uint64",
          "name": "version",
          "type": "uint64"
        }
      ],
      "name": "Initialized",
      "type": "event"
    },
    {
      "anonymous": false,
      "inputs": [
        {
          "indexed": true,
          "internalType": "address",
          "name": "previousOwner",
          "type": "address"
        },
        {
          "indexed": true,
          "internalType": "address",
          "name": "newOwner",
          "type": "address"
        }
      ],
      "name": "OwnershipTransferred",
      "type": "event"
    },
    {
      "anonymous": false,
      "inputs": [
        {
          "indexed": false,
          "internalType": "address",
          "name": "account",
          "type": "address"
        }
      ],
      "name": "Paused",
      "type": "event"
    },
    {
      "anonymous": false,
      "inputs": [
        {
          "indexed": true,
          "internalType": "uint256",
          "name": "proposalId",
          "type": "uint256"
        },
        {
          "indexed": true,
          "internalType": "address",
          "name": "proposer",
          "type": "address"
        },
        {
          "indexed": false,
          "internalType": "string",
          "name": "description",
          "type": "string"
        }
      ],
      "name": "ProposalCreated",
      "type": "event"
    },
    {
      "anonymous": false,
      "inputs": [
        {
          "indexed": true,
          "internalType": "uint256",
          "name": "proposalId",
          "type": "uint256"
        }
      ],
      "name": "ProposalExecuted",
      "type": "event"
    },
    {
      "anonymous": false,
      "inputs": [
        {
          "indexed": true,
          "internalType": "address",
          "name": "user",
          "type": "address"
        },
        {
          "indexed": false,
          "internalType": "uint256",
          "name": "reward",
          "type": "uint256"
        },
        {
          "indexed": false,
          "internalType": "uint256",
          "name": "stakeIndex",
          "type": "uint256"
        }
      ],
      "name": "RewardClaimed",
      "type": "event"
    },
    {
      "anonymous": false,
      "inputs": [
        {
          "indexed": true,
          "internalType": "address",
          "name": "user",
          "type": "address"
        },
        {
          "indexed": false,
          "internalType": "uint256",
          "name": "amount",
          "type": "uint256"
        },
        {
          "indexed": false,
          "internalType": "uint256",
          "name": "lockPeriod",
          "type": "uint256"
        },
        {
          "indexed": false,
          "internalType": "uint256",
          "name": "stakeIndex",
          "type": "uint256"
        }
      ],
      "name": "Staked",
      "type": "event"
    },
    {
      "anonymous": false,
      "inputs": [
        {
          "indexed": true,
          "internalType": "address",
          "name": "from",
          "type": "address"
        },
        {
          "indexed": true,
          "internalType": "address",
          "name": "to",
          "type": "address"
        },
        {
          "indexed": false,
          "internalType": "uint256",
          "name": "value",
          "type": "uint256"
        }
      ],
      "name": "Transfer",
      "type": "event"
    },
    {
      "anonymous": false,
      "inputs": [
        {
          "indexed": true,
          "internalType": "address",
          "name": "from",
          "type": "address"
        },
        {
          "indexed": true,
          "internalType": "address",
          "name": "to",
          "type": "address"
        },
        {
          "indexed": false,
          "internalType": "uint256",
          "name": "amount",
          "type": "uint256"
        },
        {
          "indexed": false,
          "internalType": "bytes32",
          "name": "memoHash",
          "type": "bytes32"
        }
      ],
      "name": "TransferWithDataLite",
      "type": "event"
    },
    {
      "anonymous": false,
      "inputs": [
        {
          "indexed": false,
          "internalType": "address",
          "name": "account",
          "type": "address"
        }
      ],
      "name": "Unpaused",
      "type": "event"
    },
    {
      "anonymous": false,
      "inputs": [
        {
          "indexed": true,
          "internalType": "address",
          "name": "user",
          "type": "address"
        },
        {
          "indexed": false,
          "internalType": "uint256",
          "name": "amount",
          "type": "uint256"
        },
        {
          "indexed": false,
          "internalType": "uint256",
          "name": "stakeIndex",
          "type": "uint256"
        }
      ],
      "name": "Unstaked",
      "type": "event"
    },
    {
      "anonymous": false,
      "inputs": [
        {
          "indexed": true,
          "internalType": "address",
          "name": "implementation",
          "type": "address"
        }
      ],
      "name": "Upgraded",
      "type": "event"
    },
    {
      "anonymous": false,
      "inputs": [
        {
          "indexed": true,
          "internalType": "uint256",
          "name": "proposalId",
          "type": "uint256"
        },
        {
          "indexed": true,
          "internalType": "address",
          "name": "voter",
          "type": "address"
        },
        {
          "indexed": false,
          "internalType": "bool",
          "name": "support",
          "type": "bool"
        },
        {
          "indexed": false,
          "internalType": "uint256",
          "name": "votingPower",
          "type": "uint256"
        }
      ],
      "name": "VoteCast",
      "type": "event"
    },
    {
      "inputs": [],
      "name": "EXECUTION_DELAY",
      "outputs": [
        {
          "internalType": "uint256",
          "name": "",
          "type": "uint256"
        }
      ],
      "stateMutability": "view",
      "type": "function"
    },
    {
      "inputs": [],
      "name": "FEE_CHANGE_DELAY",
      "outputs": [
        {
          "internalType": "uint256",
          "name": "",
          "type": "uint256"
        }
      ],
      "stateMutability": "view",
      "type": "function"
    },
    {
      "inputs": [],
      "name": "LOCK_180_DAYS",
      "outputs": [
        {
          "internalType": "uint256",
          "name": "",
          "type": "uint256"
        }
      ],
      "stateMutability": "view",
      "type": "function"
    },
    {
      "inputs": [],
      "name": "LOCK_30_DAYS",
      "outputs": [
        {
          "internalType": "uint256",
          "name": "",
          "type": "uint256"
        }
      ],
      "stateMutability": "view",
      "type": "function"
    },
    {
      "inputs": [],
      "name": "LOCK_365_DAYS",
      "outputs": [
        {
          "internalType": "uint256",
          "name": "",
          "type": "uint256"
        }
      ],
      "stateMutability": "view",
      "type": "function"
    },
    {
      "inputs": [],
      "name": "LOCK_90_DAYS",
      "outputs": [
        {
          "internalType": "uint256",
          "name": "",
          "type": "uint256"
        }
      ],
      "stateMutability": "view",
      "type": "function"
    },
    {
      "inputs": [],
      "name": "MAX_TOTAL_FEE_BP",
      "outputs": [
        {
          "internalType": "uint256",
          "name": "",
          "type": "uint256"
        }
      ],
      "stateMutability": "view",
      "type": "function"
    },
    {
      "inputs": [],
      "name": "PROPOSAL_THRESHOLD",
      "outputs": [
        {
          "internalType": "uint256",
          "name": "",
          "type": "uint256"
        }
      ],
      "stateMutability": "view",
      "type": "function"
    },
    {
      "inputs": [],
      "name": "QUORUM_PERCENTAGE",
      "outputs": [
        {
          "internalType": "uint256",
          "name": "",
          "type": "uint256"
        }
      ],
      "stateMutability": "view",
      "type": "function"
    },
    {
      "inputs": [],
      "name": "TOTAL_SUPPLY",
      "outputs": [
        {
          "internalType": "uint256",
          "name": "",
          "type": "uint256"
        }
      ],
      "stateMutability": "view",
      "type": "function"
    },
    {
      "inputs": [],
      "name": "UPGRADE_INTERFACE_VERSION",
      "outputs": [
        {
          "internalType": "string",
          "name": "",
          "type": "string"
        }
      ],
      "stateMutability": "view",
      "type": "function"
    },
    {
      "inputs": [],
      "name": "VOTING_PERIOD",
      "outputs": [
        {
          "internalType": "uint256",
          "name": "",
          "type": "uint256"
        }
      ],
      "stateMutability": "view",
      "type": "function"
    },
    {
      "inputs": [
        {
          "internalType": "address",
          "name": "owner",
          "type": "address"
        },
        {
          "internalType": "address",
          "name": "spender",
          "type": "address"
        }
      ],
      "name": "allowance",
      "outputs": [
        {
          "internalType": "uint256",
          "name": "",
          "type": "uint256"
        }
      ],
      "stateMutability": "view",
      "type": "function"
    },
    {
      "inputs": [
        {
          "internalType": "address",
          "name": "spender",
          "type": "address"
        },
        {
          "internalType": "uint256",
          "name": "value",
          "type": "uint256"
        }
      ],
      "name": "approve",
      "outputs": [
        {
          "internalType": "bool",
          "name": "",
          "type": "bool"
        }
      ],
      "stateMutability": "nonpayable",
      "type": "function"
    },
    {
      "inputs": [
        {
          "internalType": "address",
          "name": "account",
          "type": "address"
        }
      ],
      "name": "balanceOf",
      "outputs": [
        {
          "internalType": "uint256",
          "name": "",
          "type": "uint256"
        }
      ],
      "stateMutability": "view",
      "type": "function"
    },
    {
      "inputs": [],
      "name": "decimals",
      "outputs": [
        {
          "internalType": "uint8",
          "name": "",
          "type": "uint8"
        }
      ],
      "stateMutability": "view",
      "type": "function"
    },
    {
      "inputs": [],
      "name": "emergencyPause",
      "outputs": [],
      "stateMutability": "nonpayable",
      "type": "function"
    },
    {
      "inputs": [],
      "name": "emergencyUnpause",
      "outputs": [],
      "stateMutability": "nonpayable",
      "type": "function"
    },
    {
      "inputs": [],
      "name": "executor",
      "outputs": [
        {
          "internalType": "address",
          "name": "",
          "type": "address"
        }
      ],
      "stateMutability": "view",
      "type": "function"
    },
    {
      "inputs": [],
      "name": "feeToBurnBP",
      "outputs": [
        {
          "internalType": "uint256",
          "name": "",
          "type": "uint256"
        }
      ],
      "stateMutability": "view",
      "type": "function"
    },
    {
      "inputs": [],
      "name": "feeToFounderBP",
      "outputs": [
        {
          "internalType": "uint256",
          "name": "",
          "type": "uint256"
        }
      ],
      "stateMutability": "view",
      "type": "function"
    },
    {
      "inputs": [],
      "name": "feeToTreasuryBP",
      "outputs": [
        {
          "internalType": "uint256",
          "name": "",
          "type": "uint256"
        }
      ],
      "stateMutability": "view",
      "type": "function"
    },
    {
      "inputs": [],
      "name": "founderWallet",
      "outputs": [
        {
          "internalType": "address",
          "name": "",
          "type": "address"
        }
      ],
      "stateMutability": "view",
      "type": "function"
    },
    {
      "inputs": [
        {
          "internalType": "address",
          "name": "user",
          "type": "address"
        }
      ],
      "name": "getStakeCount",
      "outputs": [
        {
          "internalType": "uint256",
          "name": "",
          "type": "uint256"
        }
      ],
      "stateMutability": "view",
      "type": "function"
    },
    {
      "inputs": [
        {
          "internalType": "uint256",
          "name": "",
          "type": "uint256"
        },
        {
          "internalType": "address",
          "name": "",
          "type": "address"
        }
      ],
      "name": "hasVoted",
      "outputs": [
        {
          "internalType": "bool",
          "name": "",
          "type": "bool"
        }
      ],
      "stateMutability": "view",
      "type": "function"
    },
    {
      "inputs": [
        {
          "internalType": "address",
          "name": "_treasury",
          "type": "address"
        },
        {
          "internalType": "address",
          "name": "_founder",
          "type": "address"
        },
        {
          "internalType": "address",
          "name": "_executor",
          "type": "address"
        }
      ],
      "name": "initialize",
      "outputs": [],
      "stateMutability": "nonpayable",
      "type": "function"
    },
    {
      "inputs": [
        {
          "internalType": "address",
          "name": "",
          "type": "address"
        }
      ],
      "name": "isFeeExempt",
      "outputs": [
        {
          "internalType": "bool",
          "name": "",
          "type": "bool"
        }
      ],
      "stateMutability": "view",
      "type": "function"
    },
    {
      "inputs": [],
      "name": "lastFeeChange",
      "outputs": [
        {
          "internalType": "uint256",
          "name": "",
          "type": "uint256"
        }
      ],
      "stateMutability": "view",
      "type": "function"
    },
    {
      "inputs": [
        {
          "internalType": "address",
          "name": "",
          "type": "address"
        }
      ],
      "name": "lastTxBlock",
      "outputs": [
        {
          "internalType": "uint256",
          "name": "",
          "type": "uint256"
        }
      ],
      "stateMutability": "view",
      "type": "function"
    },
    {
      "inputs": [
        {
          "internalType": "address",
          "name": "",
          "type": "address"
        }
      ],
      "name": "lastTxTime",
      "outputs": [
        {
          "internalType": "uint256",
          "name": "",
          "type": "uint256"
        }
      ],
      "stateMutability": "view",
      "type": "function"
    },
    {
      "inputs": [],
      "name": "name",
      "outputs": [
        {
          "internalType": "string",
          "name": "",
          "type": "string"
        }
      ],
      "stateMutability": "view",
      "type": "function"
    },
    {
      "inputs": [],
      "name": "owner",
      "outputs": [
        {
          "internalType": "address",
          "name": "",
          "type": "address"
        }
      ],
      "stateMutability": "view",
      "type": "function"
    },
    {
      "inputs": [],
      "name": "paused",
      "outputs": [
        {
          "internalType": "bool",
          "name": "",
          "type": "bool"
        }
      ],
      "stateMutability": "view",
      "type": "function"
    },
    {
      "inputs": [],
      "name": "proposalCount",
      "outputs": [
        {
          "internalType": "uint256",
          "name": "",
          "type": "uint256"
        }
      ],
      "stateMutability": "view",
      "type": "function"
    },
    {
      "inputs": [
        {
          "internalType": "uint256",
          "name": "",
          "type": "uint256"
        }
      ],
      "name": "proposals",
      "outputs": [
        {
          "internalType": "uint256",
          "name": "id",
          "type": "uint256"
        },
        {
          "internalType": "address",
          "name": "proposer",
          "type": "address"
        },
        {
          "internalType": "string",
          "name": "description",
          "type": "string"
        },
        {
          "internalType": "uint256",
          "name": "forVotes",
          "type": "uint256"
        },
        {
          "internalType": "uint256",
          "name": "againstVotes",
          "type": "uint256"
        },
        {
          "internalType": "uint256",
          "name": "startTime",
          "type": "uint256"
        },
        {
          "internalType": "uint256",
          "name": "endTime",
          "type": "uint256"
        },
        {
          "internalType": "bool",
          "name": "executed",
          "type": "bool"
        },
        {
          "internalType": "enum FIACoinV6Upgradeable.ProposalType",
          "name": "proposalType",
          "type": "uint8"
        },
        {
          "internalType": "bytes",
          "name": "proposalData",
          "type": "bytes"
        }
      ],
      "stateMutability": "view",
      "type": "function"
    },
    {
      "inputs": [],
      "name": "proxiableUUID",
      "outputs": [
        {
          "internalType": "bytes32",
          "name": "",
          "type": "bytes32"
        }
      ],
      "stateMutability": "view",
      "type": "function"
    },
    {
      "inputs": [],
      "name": "renounceOwnership",
      "outputs": [],
      "stateMutability": "nonpayable",
      "type": "function"
    },
    {
      "inputs": [],
      "name": "rewardPool",
      "outputs": [
        {
          "internalType": "uint256",
          "name": "",
          "type": "uint256"
        }
      ],
      "stateMutability": "view",
      "type": "function"
    },
    {
      "inputs": [
        {
          "internalType": "uint256",
          "name": "_totalFeeBP",
          "type": "uint256"
        }
      ],
      "name": "setTotalFeeBP",
      "outputs": [],
      "stateMutability": "nonpayable",
      "type": "function"
    },
    {
      "inputs": [
        {
          "internalType": "uint256",
          "name": "amount",
          "type": "uint256"
        },
        {
          "internalType": "uint256",
          "name": "lockPeriod",
          "type": "uint256"
        },
        {
          "internalType": "bool",
          "name": "autoCompound",
          "type": "bool"
        }
      ],
      "name": "stake",
      "outputs": [],
      "stateMutability": "nonpayable",
      "type": "function"
    },
    {
      "inputs": [
        {
          "internalType": "uint256",
          "name": "lockPeriod",
          "type": "uint256"
        }
      ],
      "name": "stakingAPY",
      "outputs": [
        {
          "internalType": "uint256",
          "name": "",
          "type": "uint256"
        }
      ],
      "stateMutability": "pure",
      "type": "function"
    },
    {
      "inputs": [],
      "name": "symbol",
      "outputs": [
        {
          "internalType": "string",
          "name": "",
          "type": "string"
        }
      ],
      "stateMutability": "view",
      "type": "function"
    },
    {
      "inputs": [],
      "name": "tokenStats",
      "outputs": [
        {
          "internalType": "uint256",
          "name": "totalFeeCollected",
          "type": "uint256"
        },
        {
          "internalType": "uint256",
          "name": "totalBurned",
          "type": "uint256"
        },
        {
          "internalType": "uint256",
          "name": "totalStaked",
          "type": "uint256"
        },
        {
          "internalType": "uint256",
          "name": "uniqueHolders",
          "type": "uint256"
        },
        {
          "internalType": "uint256",
          "name": "transactionCount",
          "type": "uint256"
        }
      ],
      "stateMutability": "view",
      "type": "function"
    },
    {
      "inputs": [],
      "name": "totalFeeBP",
      "outputs": [
        {
          "internalType": "uint256",
          "name": "",
          "type": "uint256"
        }
      ],
      "stateMutability": "view",
      "type": "function"
    },
    {
      "inputs": [],
      "name": "totalStaked",
      "outputs": [
        {
          "internalType": "uint256",
          "name": "",
          "type": "uint256"
        }
      ],
      "stateMutability": "view",
      "type": "function"
    },
    {
      "inputs": [],
      "name": "totalSupply",
      "outputs": [
        {
          "internalType": "uint256",
          "name": "",
          "type": "uint256"
        }
      ],
      "stateMutability": "view",
      "type": "function"
    },
    {
      "inputs": [
        {
          "internalType": "address",
          "name": "to",
          "type": "address"
        },
        {
          "internalType": "uint256",
          "name": "value",
          "type": "uint256"
        }
      ],
      "name": "transfer",
      "outputs": [
        {
          "internalType": "bool",
          "name": "",
          "type": "bool"
        }
      ],
      "stateMutability": "nonpayable",
      "type": "function"
    },
    {
      "inputs": [
        {
          "internalType": "address",
          "name": "from",
          "type": "address"
        },
        {
          "internalType": "address",
          "name": "to",
          "type": "address"
        },
        {
          "internalType": "uint256",
          "name": "value",
          "type": "uint256"
        }
      ],
      "name": "transferFrom",
      "outputs": [
        {
          "internalType": "bool",
          "name": "",
          "type": "bool"
        }
      ],
      "stateMutability": "nonpayable",
      "type": "function"
    },
    {
      "inputs": [
        {
          "internalType": "address",
          "name": "newOwner",
          "type": "address"
        }
      ],
      "name": "transferOwnership",
      "outputs": [],
      "stateMutability": "nonpayable",
      "type": "function"
    },
    {
      "inputs": [],
      "name": "treasury",
      "outputs": [
        {
          "internalType": "address",
          "name": "",
          "type": "address"
        }
      ],
      "stateMutability": "view",
      "type": "function"
    },
    {
      "inputs": [],
      "name": "txLimits",
      "outputs": [
        {
          "internalType": "uint256",
          "name": "maxTxAmount",
          "type": "uint256"
        },
        {
          "internalType": "uint256",
          "name": "maxWalletAmount",
          "type": "uint256"
        },
        {
          "internalType": "uint256",
          "name": "txCooldown",
          "type": "uint256"
        },
        {
          "internalType": "bool",
          "name": "limitsActive",
          "type": "bool"
        }
      ],
      "stateMutability": "view",
      "type": "function"
    },
    {
      "inputs": [
        {
          "internalType": "address",
          "name": "newImplementation",
          "type": "address"
        },
        {
          "internalType": "bytes",
          "name": "data",
          "type": "bytes"
        }
      ],
      "name": "upgradeToAndCall",
      "outputs": [],
      "stateMutability": "payable",
      "type": "function"
    },
    {
      "inputs": [
        {
          "internalType": "bytes32",
          "name": "",
          "type": "bytes32"
        }
      ],
      "name": "usedNonces",
      "outputs": [
        {
          "internalType": "bool",
          "name": "",
          "type": "bool"
        }
      ],
      "stateMutability": "view",
      "type": "function"
    },
    {
      "inputs": [
        {
          "internalType": "address",
          "name": "",
          "type": "address"
        },
        {
          "internalType": "uint256",
          "name": "",
          "type": "uint256"
        }
      ],
      "name": "userStakes",
      "outputs": [
        {
          "internalType": "uint256",
          "name": "amount",
          "type": "uint256"
        },
        {
          "internalType": "uint256",
          "name": "stakingTime",
          "type": "uint256"
        },
        {
          "internalType": "uint256",
          "name": "lastRewardClaim",
          "type": "uint256"
        },
        {
          "internalType": "uint256",
          "name": "lockPeriod",
          "type": "uint256"
        },
        {
          "internalType": "bool",
          "name": "autoCompound",
          "type": "bool"
        }
      ],
      "stateMutability": "view",
      "type": "function"
    },
    {
      "inputs": [
        {
          "internalType": "address",
          "name": "",
          "type": "address"
        }
      ],
      "name": "userStats",
      "outputs": [
        {
          "internalType": "uint256",
          "name": "totalFeesPaid",
          "type": "uint256"
        },
        {
          "internalType": "uint256",
          "name": "totalStakingRewards",
          "type": "uint256"
        },
        {
          "internalType": "uint256",
          "name": "transactionCount",
          "type": "uint256"
        },
        {
          "internalType": "uint256",
          "name": "firstTransactionTime",
          "type": "uint256"
        }
      ],
      "stateMutability": "view",
      "type": "function"
    },
    {
      "inputs": [],
      "name": "version",
      "outputs": [
        {
          "internalType": "string",
          "name": "",
          "type": "string"
        }
      ],
      "stateMutability": "pure",
      "type": "function"
    },
    {
      "inputs": [
        {
          "internalType": "uint256",
          "name": "",
          "type": "uint256"
        },
        {
          "internalType": "address",
          "name": "",
          "type": "address"
        }
      ],
      "name": "votingPower",
      "outputs": [
        {
          "internalType": "uint256",
          "name": "",
          "type": "uint256"
        }
      ],
      "stateMutability": "view",
      "type": "function"
    }
  ],
  "bytecode": "0x60a0604052306080523480156200001557600080fd5b506200002062000026565b620000da565b7ff0c57e16840df040f15088dc2f81fe391c3923bec73e23a9662efc9c229c6a00805468010000000000000000900460ff1615620000775760405163f92ee8a960e01b815260040160405180910390fd5b80546001600160401b0390811614620000d75780546001600160401b0319166001600160401b0390811782556040519081527fc7f505b2f371ae2175ee4913f4499e1f2633a7b5936321eed1cdaeb6115181d29060200160405180910390a15b50565b60805161269862000104600039600081816118200152818161184901526119d301526126986000f3fe6080604052600436106103765760003560e01c80637c6e5db7116101d1578063b5d5b5fa11610102578063da35c664116100a0578063f270fde41161006f578063f270fde414610af5578063f2fde38b14610b3d578063f614134514610b5d578063feb6172414610b7357600080fd5b8063da35c66414610a93578063dd62ed3e14610aa9578063e37c3a5514610ac9578063ee8a7c1514610ae057600080fd5b8063c34c08e5116100dc578063c34c08e5146109d8578063ceb88a16146109f8578063cf57ee6914610a25578063d90125a514610a5b57600080fd5b8063b5d5b5fa14610957578063be8a361f146109a1578063c0c53b8b146109b857600080fd5b806395d89b411161016f578063a9059cbb11610149578063a9059cbb146108a0578063ad3cb1cc146108c0578063b0dfd2e6146108f1578063b1610d7e1461094057600080fd5b806395d89b411461084d578063a23d3c3514610862578063a6c266031461088257600080fd5b8063875bb4e2116101ab578063875bb4e21461076c5780638a65d8741461078c5780638da5cb5b146107ee578063902d55a51461082b57600080fd5b80637c6e5db714610728578063817b1cd21461073f578063828652181461075557600080fd5b80634f1ef286116102ab5780635c975abb11610249578063695056881161022357806369505688146106c857806370a08231146106de578063715018a6146106fe5780637c4ccbea1461071357600080fd5b80635c975abb1461065557806361d027b31461067a57806366666aa9146106b257600080fd5b806352d1902d1161028557806352d1902d146105dc57806354fd4d50146105f157806355ef9b5e1461061f578063561b24631461063557600080fd5b80634f1ef2861461059c57806351383f98146105af57806351858e27146105c757600080fd5b80631f1f5bb31161031857806337f135d7116102f257806337f135d7146105055780633f4218e01461051c578063438596321461054c5780634a4e3bd51461058757600080fd5b80631f1f5bb3146104a757806323b872dd146104c9578063313ce567146104e957600080fd5b8063118725ce11610354578063118725ce1461040c578063120a81511461043057806317d636051461044657806318160ddd1461047357600080fd5b8063013cf08b1461037b57806306fdde03146103ba578063095ea7b3146103dc575b600080fd5b34801561038757600080fd5b5061039b6103963660046120c7565b610ba3565b6040516103b19a99989796959493929190612130565b60405180910390f35b3480156103c657600080fd5b506103cf610d18565b6040516103b191906121c6565b3480156103e857600080fd5b506103fc6103f73660046121f5565b610ddb565b60405190151581526020016103b1565b34801561041857600080fd5b5061042260025481565b6040519081526020016103b1565b34801561043c57600080fd5b5061042260035481565b34801561045257600080fd5b5061042261046136600461221f565b601b6020526000908152604090205481565b34801561047f57600080fd5b507f52c63247e1f47db19d5ce0460030c497f067ca4cebf71ba98eeadabe20bace0254610422565b3480156104b357600080fd5b506104c76104c23660046120c7565b610df5565b005b3480156104d557600080fd5b506103fc6104e436600461223a565b610ef2565b3480156104f557600080fd5b50604051601281526020016103b1565b34801561051157600080fd5b506104226202a30081565b34801561052857600080fd5b506103fc61053736600461221f565b60086020526000908152604090205460ff1681565b34801561055857600080fd5b506103fc610567366004612276565b600b60209081526000928352604080842090915290825290205460ff1681565b34801561059357600080fd5b506104c7610f18565b6104c76105aa3660046122b8565b610f85565b3480156105bb57600080fd5b506104226301e1338081565b3480156105d357600080fd5b506104c7610fa4565b3480156105e857600080fd5b50610422611005565b3480156105fd57600080fd5b506040805180820190915260058152640362e302e360dc1b60208201526103cf565b34801561062b57600080fd5b5061042260015481565b34801561064157600080fd5b506104c761065036600461237a565b611022565b34801561066157600080fd5b506000805160206126438339815191525460ff166103fc565b34801561068657600080fd5b5060055461069a906001600160a01b031681565b6040516001600160a01b0390911681526020016103b1565b3480156106be57600080fd5b50610422600f5481565b3480156106d457600080fd5b5061042260045481565b3480156106ea57600080fd5b506104226106f936600461221f565b611243565b34801561070a57600080fd5b506104c761126b565b34801561071f57600080fd5b5061042260c881565b34801561073457600080fd5b5061042262278d0081565b34801561074b57600080fd5b50610422600e5481565b34801561076157600080fd5b5061042262ed4e0081565b34801561077857600080fd5b506104226107873660046120c7565b61127f565b34801561079857600080fd5b506107ce6107a736600461221f565b60156020526000908152604090208054600182015460028301546003909301549192909184565b6040805194855260208501939093529183015260608201526080016103b1565b3480156107fa57600080fd5b507f9016d09d72d40fdae2fd8ceac6b6234c7706214fd39c1cd1e609a0528c199300546001600160a01b031661069a565b34801561083757600080fd5b506104226d314dc6448d9338c15b0a0000000081565b34801561085957600080fd5b506103cf6112d6565b34801561086e57600080fd5b5060065461069a906001600160a01b031681565b34801561088e57600080fd5b5061042269d3c21bcecceda100000081565b3480156108ac57600080fd5b506103fc6108bb3660046121f5565b611315565b3480156108cc57600080fd5b506103cf604051806040016040528060058152602001640352e302e360dc1b81525081565b3480156108fd57600080fd5b50601054601154601254601354601454610918949392919085565b604080519586526020860194909452928401919091526060830152608082015260a0016103b1565b34801561094c57600080fd5b5061042262093a8081565b34801561096357600080fd5b506109776109723660046121f5565b611323565b6040805195865260208601949094529284019190915260608301521515608082015260a0016103b1565b3480156109ad57600080fd5b506104226201518081565b3480156109c457600080fd5b506104c76109d33660046123b8565b611374565b3480156109e457600080fd5b5060075461069a906001600160a01b031681565b348015610a0457600080fd5b50610422610a1336600461221f565b601a6020526000908152604090205481565b348015610a3157600080fd5b50610422610a4036600461221f565b6001600160a01b03166000908152600d602052604090205490565b348015610a6757600080fd5b50610422610a76366004612276565b600c60209081526000928352604080842090915290825290205481565b348015610a9f57600080fd5b5061042260095481565b348015610ab557600080fd5b50610422610ac43660046123fb565b6115fa565b348015610ad557600080fd5b506104226276a70081565b348015610aec57600080fd5b50610422600a81565b348015610b0157600080fd5b50601654601754601854601954610b1b9392919060ff1684565b60408051948552602085019390935291830152151560608201526080016103b1565b348015610b4957600080fd5b506104c7610b5836600461221f565b611644565b348015610b6957600080fd5b5061042260005481565b348015610b7f57600080fd5b506103fc610b8e3660046120c7565b601c6020526000908152604090205460ff1681565b600a6020526000908152604090208054600182015460028301805492936001600160a01b0390921692610bd590612425565b80601f0160208091040260200160405190810160405280929190818152602001828054610c0190612425565b8015610c4e5780601f10610c2357610100808354040283529160200191610c4e565b820191906000526020600020905b815481529060010190602001808311610c3157829003601f168201915b5050506003840154600485015460058601546006870154600788015460088901805498999598949750929550909360ff8083169461010090930416929091610c9590612425565b80601f0160208091040260200160405190810160405280929190818152602001828054610cc190612425565b8015610d0e5780601f10610ce357610100808354040283529160200191610d0e565b820191906000526020600020905b815481529060010190602001808311610cf157829003601f168201915b505050505090508a565b7f52c63247e1f47db19d5ce0460030c497f067ca4cebf71ba98eeadabe20bace03805460609160008051602061260383398151915291610d5790612425565b80601f0160208091040260200160405190810160405280929190818152602001828054610d8390612425565b8015610dd05780601f10610da557610100808354040283529160200191610dd0565b820191906000526020600020905b815481529060010190602001808311610db357829003601f168201915b505050505091505090565b600033610de9818585611682565b60019150505b92915050565b610dfd611694565b60c8811115610e495760405162461bcd60e51b81526020600482015260136024820152724665652065786365656473206d6178696d756d60681b60448201526064015b60405180910390fd5b62015180600454610e5a9190612475565b421015610ea95760405162461bcd60e51b815260206004820152601760248201527f466565206368616e676520746f6f206672657175656e740000000000000000006044820152606401610e40565b60008054908290554260045560408051828152602081018490527fcf4c3ba0667a6e28c2746a4ee8d23efa18b2ca17591c2a22c36773a0232661d8910160405180910390a15050565b600033610f008582856116ef565b610f0b858585611756565b60019150505b9392505050565b610f20611694565b610f286117b5565b336001600160a01b03167f2a09e26ec96218a3a144df2e04de096b7f0410106a4caff3cdfa5d667e604f2a604051610f7b90602080825260079082015266554e504155534560c81b604082015260600190565b60405180910390a2565b610f8d611815565b610f96826118ba565b610fa082826118c2565b5050565b610fac611694565b610fb461197f565b336001600160a01b03167f2a09e26ec96218a3a144df2e04de096b7f0410106a4caff3cdfa5d667e604f2a604051610f7b90602080825260059082015264504155534560d81b604082015260600190565b600061100f6119c8565b5060008051602061262383398151915290565b61102a611a11565b6000831161107a5760405162461bcd60e51b815260206004820152601d60248201527f416d6f756e74206d7573742062652067726561746572207468616e20300000006044820152606401610e40565b62278d0082148061108d57506276a70082145b8061109a575062ed4e0082145b806110a857506301e1338082145b6110ea5760405162461bcd60e51b8152602060048201526013602482015272125b9d985b1a59081b1bd8dac81c195c9a5bd9606a1b6044820152606401610e40565b826110f433611243565b10156111395760405162461bcd60e51b8152602060048201526014602482015273496e73756666696369656e742062616c616e636560601b6044820152606401610e40565b611144333085611756565b336000908152600d60209081526040808320815160a081018352878152428185018181529382019081526060820188815287151560808401908152845460018082018755958952968820935160059097029093019586559351928501929092559051600284015590516003830155516004909101805460ff1916911515919091179055600e80548592906111d9908490612475565b9091555050336000818152600d60205260409020547fb4caaf29adda3eefee3ad552a8e85058589bf834c7466cae4ee58787f70589ed908590859061122090600190612488565b6040805193845260208401929092529082015260600160405180910390a2505050565b6001600160a01b03166000908152600080516020612603833981519152602052604090205490565b611273611694565b61127d6000611a42565b565b600062278d008203611294575061012c919050565b6276a70082036112a757506101f4919050565b62ed4e0082036112ba57506102bc919050565b6301e1338082036112ce5750610384919050565b506000919050565b7f52c63247e1f47db19d5ce0460030c497f067ca4cebf71ba98eeadabe20bace04805460609160008051602061260383398151915291610d5790612425565b600033610de9818585611756565b600d602052816000526040600020818154811061133f57600080fd5b600091825260209091206005909102018054600182015460028301546003840154600490940154929550909350919060ff1685565b600061137e611ab3565b805490915060ff600160401b820416159067ffffffffffffffff166000811580156113a65750825b905060008267ffffffffffffffff1660011480156113c35750303b155b9050811580156113d1575080155b156113ef5760405163f92ee8a960e01b815260040160405180910390fd5b845467ffffffffffffffff19166001178555831561141957845460ff60401b1916600160401b1785555b6114596040518060400160405280600381526020016246494160e81b8152506040518060400160405280600381526020016246494160e81b815250611adc565b61146233611aee565b61146a611aff565b611472611b07565b61147a611aff565b600580546001600160a01b03808b166001600160a01b031992831617909255600680548a84169083161790556007805492891692909116919091179055606460005560326001556014600255601e6003556040805160808101909152806114f16103e86d314dc6448d9338c15b0a0000000061249b565b815260200161150f60646d314dc6448d9338c15b0a0000000061249b565b8152600160208083018290526040928301829052835160165583810151601755838301516018556060909301516019805491151560ff199283161790556001600160a01b03808d166000908152600890955283852080548316841790558b168452828420805482168317905530845291909220805490911690911790556115aa6115963390565b6d314dc6448d9338c15b0a00000000611b17565b83156115f057845460ff60401b19168555604051600181527fc7f505b2f371ae2175ee4913f4499e1f2633a7b5936321eed1cdaeb6115181d29060200160405180910390a15b5050505050505050565b6001600160a01b0391821660009081527f52c63247e1f47db19d5ce0460030c497f067ca4cebf71ba98eeadabe20bace016020908152604080832093909416825291909152205490565b61164c611694565b6001600160a01b03811661167657604051631e4fbdf760e01b815260006004820152602401610e40565b61167f81611a42565b50565b61168f8383836001611b4d565b505050565b336116c67f9016d09d72d40fdae2fd8ceac6b6234c7706214fd39c1cd1e609a0528c199300546001600160a01b031690565b6001600160a01b03161461127d5760405163118cdaa760e01b8152336004820152602401610e40565b60006116fb84846115fa565b9050600019811015611750578181101561174157604051637dc7a0d960e11b81526001600160a01b03841660048201526024810182905260448101839052606401610e40565b61175084848484036000611b4d565b50505050565b6001600160a01b03831661178057604051634b637e8f60e11b815260006004820152602401610e40565b6001600160a01b0382166117aa5760405163ec442f0560e01b815260006004820152602401610e40565b61168f838383611c35565b6117bd611cbf565b600080516020612643833981519152805460ff191681557f5db9ee0a495bf2e6ff9c91a7834c1ba4fdd244a5e8aa4e537bd38aeae4b073aa335b6040516001600160a01b03909116815260200160405180910390a150565b306001600160a01b037f000000000000000000000000000000000000000000000000000000000000000016148061189c57507f00000000000000000000000000000000000000000000000000000000000000006001600160a01b0316611890600080516020612623833981519152546001600160a01b031690565b6001600160a01b031614155b1561127d5760405163703e46dd60e11b815260040160405180910390fd5b61167f611694565b816001600160a01b03166352d1902d6040518163ffffffff1660e01b8152600401602060405180830381865afa92505050801561191c575060408051601f3d908101601f19168201909252611919918101906124bd565b60015b61194457604051634c9c8ce360e01b81526001600160a01b0383166004820152602401610e40565b600080516020612623833981519152811461197557604051632a87526960e21b815260048101829052602401610e40565b61168f8383611cef565b611987611a11565b600080516020612643833981519152805460ff191660011781557f62e78cea01bee320cd4e420270b5ea74000d11b0c9f74754ebdbfc544b05a258336117f7565b306001600160a01b037f0000000000000000000000000000000000000000000000000000000000000000161461127d5760405163703e46dd60e11b815260040160405180910390fd5b6000805160206126438339815191525460ff161561127d5760405163d93c066560e01b815260040160405180910390fd5b7f9016d09d72d40fdae2fd8ceac6b6234c7706214fd39c1cd1e609a0528c19930080546001600160a01b031981166001600160a01b03848116918217845560405192169182907f8be0079c531659141344cd1fd0a4f28419497f9722a3daafe3b4186f6b6457e090600090a3505050565b6000807ff0c57e16840df040f15088dc2f81fe391c3923bec73e23a9662efc9c229c6a00610def565b611ae4611d45565b610fa08282611d6a565b611af6611d45565b61167f81611dbb565b61127d611d45565b611b0f611d45565b61127d611dc3565b6001600160a01b038216611b415760405163ec442f0560e01b815260006004820152602401610e40565b610fa060008383611c35565b6000805160206126038339815191526001600160a01b038516611b865760405163e602df0560e01b815260006004820152602401610e40565b6001600160a01b038416611bb057604051634a1406b160e11b815260006004820152602401610e40565b6001600160a01b03808616600090815260018301602090815260408083209388168352929052208390558115611c2e57836001600160a01b0316856001600160a01b03167f8c5be1e5ebec7d5bd14f71427d1e84f3dd0314c0f7b2291e5b200ac8c7c3b92585604051611c2591815260200190565b60405180910390a35b5050505050565b611c3d611a11565b611c48838383611df1565b6001600160a01b03831615801590611c6857506001600160a01b03821615155b1561168f57816001600160a01b0316836001600160a01b03167f59abb1a21ac9c02d9c217285768a906af17496e4cada7962f129b92f0ac948cf83604051611cb291815260200190565b60405180910390a3505050565b6000805160206126438339815191525460ff1661127d57604051638dfc202b60e01b815260040160405180910390fd5b611cf882611f2f565b6040516001600160a01b038316907fbc7cd75a20ee27fd9adebab32041f755214dbc6bffa90cc0225b39da2e5c2d3b90600090a2805115611d3d5761168f8282611f94565b610fa061200a565b611d4d612029565b61127d57604051631afcd79f60e31b815260040160405180910390fd5b611d72611d45565b6000805160206126038339815191527f52c63247e1f47db19d5ce0460030c497f067ca4cebf71ba98eeadabe20bace03611dac8482612526565b50600481016117508382612526565b61164c611d45565b611dcb611d45565b60017f9b779b17422d0df92223018b32b4d1fa46e071723d6817e2486d003becc55f0055565b6000805160206126038339815191526001600160a01b038416611e2d5781816002016000828254611e229190612475565b90915550611e9f9050565b6001600160a01b03841660009081526020829052604090205482811015611e805760405163391434e360e21b81526001600160a01b03861660048201526024810182905260448101849052606401610e40565b6001600160a01b03851660009081526020839052604090209083900390555b6001600160a01b038316611ebd576002810180548390039055611edc565b6001600160a01b03831660009081526020829052604090208054830190555b826001600160a01b0316846001600160a01b03167fddf252ad1be2c89b69c2b068fc378daa952ba7f163c4a11628f55a4df523b3ef84604051611f2191815260200190565b60405180910390a350505050565b806001600160a01b03163b600003611f6557604051634c9c8ce360e01b81526001600160a01b0382166004820152602401610e40565b60008051602061262383398151915280546001600160a01b0319166001600160a01b0392909216919091179055565b6060600080846001600160a01b031684604051611fb191906125e6565b600060405180830381855af49150503d8060008114611fec576040519150601f19603f3d011682016040523d82523d6000602084013e611ff1565b606091505b5091509150612001858383612043565b95945050505050565b341561127d5760405163b398979f60e01b815260040160405180910390fd5b6000612033611ab3565b54600160401b900460ff16919050565b606082612058576120538261209f565b610f11565b815115801561206f57506001600160a01b0384163b155b1561209857604051639996b31560e01b81526001600160a01b0385166004820152602401610e40565b5080610f11565b8051156120ae57805160208201fd5b60405163d6bda27560e01b815260040160405180910390fd5b6000602082840312156120d957600080fd5b5035919050565b60005b838110156120fb5781810151838201526020016120e3565b50506000910152565b6000815180845261211c8160208601602086016120e0565b601f01601f19169290920160200192915050565b8a81526001600160a01b038a1660208201526101406040820181905260009061215b8382018c612104565b90508960608401528860808401528760a08401528660c084015285151560e08401526004851061219b57634e487b7160e01b600052602160045260246000fd5b846101008401528281036101208401526121b58185612104565b9d9c50505050505050505050505050565b602081526000610f116020830184612104565b80356001600160a01b03811681146121f057600080fd5b919050565b6000806040838503121561220857600080fd5b612211836121d9565b946020939093013593505050565b60006020828403121561223157600080fd5b610f11826121d9565b60008060006060848603121561224f57600080fd5b612258846121d9565b9250612266602085016121d9565b9150604084013590509250925092565b6000806040838503121561228957600080fd5b82359150612299602084016121d9565b90509250929050565b634e487b7160e01b600052604160045260246000fd5b600080604083850312156122cb57600080fd5b6122d4836121d9565b9150602083013567ffffffffffffffff808211156122f157600080fd5b818501915085601f83011261230557600080fd5b813581811115612317576123176122a2565b604051601f8201601f19908116603f0116810190838211818310171561233f5761233f6122a2565b8160405282815288602084870101111561235857600080fd5b8260208601602083013760006020848301015280955050505050509250929050565b60008060006060848603121561238f57600080fd5b8335925060208401359150604084013580151581146123ad57600080fd5b809150509250925092565b6000806000606084860312156123cd57600080fd5b6123d6846121d9565b92506123e4602085016121d9565b91506123f2604085016121d9565b90509250925092565b6000806040838503121561240e57600080fd5b612417836121d9565b9150612299602084016121d9565b600181811c9082168061243957607f821691505b60208210810361245957634e487b7160e01b600052602260045260246000fd5b50919050565b634e487b7160e01b600052601160045260246000fd5b80820180821115610def57610def61245f565b81810381811115610def57610def61245f565b6000826124b857634e487b7160e01b600052601260045260246000fd5b500490565b6000602082840312156124cf57600080fd5b5051919050565b601f82111561168f576000816000526020600020601f850160051c810160208610156124ff5750805b601f850160051c820191505b8181101561251e5782815560010161250b565b505050505050565b815167ffffffffffffffff811115612540576125406122a2565b6125548161254e8454612425565b846124d6565b602080601f83116001811461258957600084156125715750858301515b600019600386901b1c1916600185901b17855561251e565b600085815260208120601f198616915b828110156125b857888601518255948401946001909101908401612599565b50858210156125d65787850151600019600388901b60f8161c191681555b5050505050600190811b01905550565b600082516125f88184602087016120e0565b919091019291505056fe52c63247e1f47db19d5ce0460030c497f067ca4cebf71ba98eeadabe20bace00360894a13ba1a3210667c828492db98dca3e2076cc3735a920a3ca505d382bbccd5ed15c6e187e77e9aee88184c21f4f2182ab5827cb3b7e07fbedcd63f03300a2646970667358221220b90ef9653c755360647fe8b36c0767a9e09c0114a19b54306b4f59f66e56925564736f6c63430008160033",
  "linkReferences": {},
  "deployedLinkReferences": {}
}