{
  "_format": "hh-sol-artifact-1",
  "contractName": "FIACoinV4",
  "sourceName": "contracts/FIACoinV4.sol",
  "abi": [
    {
      "inputs": [
        {
          "internalType": "address",
          "name": "_treasury",
          "type": "address"
        },
        {
          "internalType": "address",
          "name": "_founder",
          "type": "address"
        }
      ],
      "stateMutability": "nonpayable",
      "type": "constructor"
    },
    {
      "inputs": [
        {
          "internalType": "address",
          "name": "spender",
          "type": "address"
        },
        {
          "internalType": "uint256",
          "name": "allowance",
          "type": "uint256"
        },
        {
          "internalType": "uint256",
          "name": "needed",
          "type": "uint256"
        }
      ],
      "name": "ERC20InsufficientAllowance",
      "type": "error"
    },
    {
      "inputs": [
        {
          "internalType": "address",
          "name": "sender",
          "type": "address"
        },
        {
          "internalType": "uint256",
          "name": "balance",
          "type": "uint256"
        },
        {
          "internalType": "uint256",
          "name": "needed",
          "type": "uint256"
        }
      ],
      "name": "ERC20InsufficientBalance",
      "type": "error"
    },
    {
      "inputs": [
        {
          "internalType": "address",
          "name": "approver",
          "type": "address"
        }
      ],
      "name": "ERC20InvalidApprover",
      "type": "error"
    },
    {
      "inputs": [
        {
          "internalType": "address",
          "name": "receiver",
          "type": "address"
        }
      ],
      "name": "ERC20InvalidReceiver",
      "type": "error"
    },
    {
      "inputs": [
        {
          "internalType": "address",
          "name": "sender",
          "type": "address"
        }
      ],
      "name": "ERC20InvalidSender",
      "type": "error"
    },
    {
      "inputs": [
        {
          "internalType": "address",
          "name": "spender",
          "type": "address"
        }
      ],
      "name": "ERC20InvalidSpender",
      "type": "error"
    },
    {
      "inputs": [],
      "name": "EnforcedPause",
      "type": "error"
    },
    {
      "inputs": [],
      "name": "ExpectedPause",
      "type": "error"
    },
    {
      "inputs": [
        {
          "internalType": "address",
          "name": "owner",
          "type": "address"
        }
      ],
      "name": "OwnableInvalidOwner",
      "type": "error"
    },
    {
      "inputs": [
        {
          "internalType": "address",
          "name": "account",
          "type": "address"
        }
      ],
      "name": "OwnableUnauthorizedAccount",
      "type": "error"
    },
    {
      "anonymous": false,
      "inputs": [
        {
          "indexed": true,
          "internalType": "address",
          "name": "owner",
          "type": "address"
        },
        {
          "indexed": true,
          "internalType": "address",
          "name": "spender",
          "type": "address"
        },
        {
          "indexed": false,
          "internalType": "uint256",
          "name": "value",
          "type": "uint256"
        }
      ],
      "name": "Approval",
      "type": "event"
    },
    {
      "anonymous": false,
      "inputs": [
        {
          "indexed": false,
          "internalType": "string",
          "name": "action",
          "type": "string"
        },
        {
          "indexed": false,
          "internalType": "address",
          "name": "actor",
          "type": "address"
        }
      ],
      "name": "EmergencyAction",
      "type": "event"
    },
    {
      "anonymous": false,
      "inputs": [
        {
          "indexed": false,
          "internalType": "uint256",
          "name": "oldFee",
          "type": "uint256"
        },
        {
          "indexed": false,
          "internalType": "uint256",
          "name": "newFee",
          "type": "uint256"
        }
      ],
      "name": "FeeConfigurationChanged",
      "type": "event"
    },
    {
      "anonymous": false,
      "inputs": [
        {
          "indexed": false,
          "internalType": "uint256",
          "name": "treasuryBP",
          "type": "uint256"
        },
        {
          "indexed": false,
          "internalType": "uint256",
          "name": "founderBP",
          "type": "uint256"
        },
        {
          "indexed": false,
          "internalType": "uint256",
          "name": "burnBP",
          "type": "uint256"
        }
      ],
      "name": "FeeDistributionChanged",
      "type": "event"
    },
    {
      "anonymous": false,
      "inputs": [
        {
          "indexed": true,
          "internalType": "address",
          "name": "account",
          "type": "address"
        },
        {
          "indexed": false,
          "internalType": "bool",
          "name": "exempt",
          "type": "bool"
        }
      ],
      "name": "FeeExemptionSet",
      "type": "event"
    },
    {
      "anonymous": false,
      "inputs": [
        {
          "indexed": true,
          "internalType": "address",
          "name": "from",
          "type": "address"
        },
        {
          "indexed": true,
          "internalType": "address",
          "name": "to",
          "type": "address"
        },
        {
          "indexed": false,
          "internalType": "uint256",
          "name": "amount",
          "type": "uint256"
        }
      ],
      "name": "Fingered",
      "type": "event"
    },
    {
      "anonymous": false,
      "inputs": [
        {
          "indexed": true,
          "internalType": "address",
          "name": "previousOwner",
          "type": "address"
        },
        {
          "indexed": true,
          "internalType": "address",
          "name": "newOwner",
          "type": "address"
        }
      ],
      "name": "OwnershipTransferred",
      "type": "event"
    },
    {
      "anonymous": false,
      "inputs": [
        {
          "indexed": false,
          "internalType": "address",
          "name": "account",
          "type": "address"
        }
      ],
      "name": "Paused",
      "type": "event"
    },
    {
      "anonymous": false,
      "inputs": [
        {
          "indexed": true,
          "internalType": "address",
          "name": "from",
          "type": "address"
        },
        {
          "indexed": true,
          "internalType": "address",
          "name": "to",
          "type": "address"
        },
        {
          "indexed": false,
          "internalType": "uint256",
          "name": "value",
          "type": "uint256"
        }
      ],
      "name": "Transfer",
      "type": "event"
    },
    {
      "anonymous": false,
      "inputs": [
        {
          "indexed": false,
          "internalType": "address",
          "name": "account",
          "type": "address"
        }
      ],
      "name": "Unpaused",
      "type": "event"
    },
    {
      "inputs": [],
      "name": "FEE_CHANGE_DELAY",
      "outputs": [
        {
          "internalType": "uint256",
          "name": "",
          "type": "uint256"
        }
      ],
      "stateMutability": "view",
      "type": "function"
    },
    {
      "inputs": [],
      "name": "MAX_TOTAL_FEE_BP",
      "outputs": [
        {
          "internalType": "uint256",
          "name": "",
          "type": "uint256"
        }
      ],
      "stateMutability": "view",
      "type": "function"
    },
    {
      "inputs": [
        {
          "internalType": "address",
          "name": "owner",
          "type": "address"
        },
        {
          "internalType": "address",
          "name": "spender",
          "type": "address"
        }
      ],
      "name": "allowance",
      "outputs": [
        {
          "internalType": "uint256",
          "name": "",
          "type": "uint256"
        }
      ],
      "stateMutability": "view",
      "type": "function"
    },
    {
      "inputs": [
        {
          "internalType": "address",
          "name": "spender",
          "type": "address"
        },
        {
          "internalType": "uint256",
          "name": "value",
          "type": "uint256"
        }
      ],
      "name": "approve",
      "outputs": [
        {
          "internalType": "bool",
          "name": "",
          "type": "bool"
        }
      ],
      "stateMutability": "nonpayable",
      "type": "function"
    },
    {
      "inputs": [
        {
          "internalType": "address",
          "name": "account",
          "type": "address"
        }
      ],
      "name": "balanceOf",
      "outputs": [
        {
          "internalType": "uint256",
          "name": "",
          "type": "uint256"
        }
      ],
      "stateMutability": "view",
      "type": "function"
    },
    {
      "inputs": [
        {
          "internalType": "uint256",
          "name": "amount",
          "type": "uint256"
        }
      ],
      "name": "burn",
      "outputs": [],
      "stateMutability": "nonpayable",
      "type": "function"
    },
    {
      "inputs": [
        {
          "internalType": "uint256",
          "name": "amount",
          "type": "uint256"
        }
      ],
      "name": "calculateTransferAmounts",
      "outputs": [
        {
          "internalType": "uint256",
          "name": "received",
          "type": "uint256"
        },
        {
          "internalType": "uint256",
          "name": "fees",
          "type": "uint256"
        }
      ],
      "stateMutability": "view",
      "type": "function"
    },
    {
      "inputs": [],
      "name": "decimals",
      "outputs": [
        {
          "internalType": "uint8",
          "name": "",
          "type": "uint8"
        }
      ],
      "stateMutability": "view",
      "type": "function"
    },
    {
      "inputs": [],
      "name": "emergencyPause",
      "outputs": [],
      "stateMutability": "nonpayable",
      "type": "function"
    },
    {
      "inputs": [],
      "name": "emergencyUnpause",
      "outputs": [],
      "stateMutability": "nonpayable",
      "type": "function"
    },
    {
      "inputs": [],
      "name": "feeToBurnBP",
      "outputs": [
        {
          "internalType": "uint256",
          "name": "",
          "type": "uint256"
        }
      ],
      "stateMutability": "view",
      "type": "function"
    },
    {
      "inputs": [],
      "name": "feeToFounderBP",
      "outputs": [
        {
          "internalType": "uint256",
          "name": "",
          "type": "uint256"
        }
      ],
      "stateMutability": "view",
      "type": "function"
    },
    {
      "inputs": [],
      "name": "feeToTreasuryBP",
      "outputs": [
        {
          "internalType": "uint256",
          "name": "",
          "type": "uint256"
        }
      ],
      "stateMutability": "view",
      "type": "function"
    },
    {
      "inputs": [],
      "name": "founderWallet",
      "outputs": [
        {
          "internalType": "address",
          "name": "",
          "type": "address"
        }
      ],
      "stateMutability": "view",
      "type": "function"
    },
    {
      "inputs": [],
      "name": "getFeeBreakdown",
      "outputs": [
        {
          "internalType": "uint256",
          "name": "total",
          "type": "uint256"
        },
        {
          "internalType": "uint256",
          "name": "treasuryBP_",
          "type": "uint256"
        },
        {
          "internalType": "uint256",
          "name": "founderBP_",
          "type": "uint256"
        },
        {
          "internalType": "uint256",
          "name": "burnBP_",
          "type": "uint256"
        }
      ],
      "stateMutability": "view",
      "type": "function"
    },
    {
      "inputs": [
        {
          "internalType": "address",
          "name": "",
          "type": "address"
        }
      ],
      "name": "isFeeExempt",
      "outputs": [
        {
          "internalType": "bool",
          "name": "",
          "type": "bool"
        }
      ],
      "stateMutability": "view",
      "type": "function"
    },
    {
      "inputs": [],
      "name": "lastFeeChange",
      "outputs": [
        {
          "internalType": "uint256",
          "name": "",
          "type": "uint256"
        }
      ],
      "stateMutability": "view",
      "type": "function"
    },
    {
      "inputs": [],
      "name": "name",
      "outputs": [
        {
          "internalType": "string",
          "name": "",
          "type": "string"
        }
      ],
      "stateMutability": "view",
      "type": "function"
    },
    {
      "inputs": [],
      "name": "owner",
      "outputs": [
        {
          "internalType": "address",
          "name": "",
          "type": "address"
        }
      ],
      "stateMutability": "view",
      "type": "function"
    },
    {
      "inputs": [],
      "name": "paused",
      "outputs": [
        {
          "internalType": "bool",
          "name": "",
          "type": "bool"
        }
      ],
      "stateMutability": "view",
      "type": "function"
    },
    {
      "inputs": [],
      "name": "renounceOwnership",
      "outputs": [],
      "stateMutability": "nonpayable",
      "type": "function"
    },
    {
      "inputs": [
        {
          "internalType": "uint256",
          "name": "_treasuryBP",
          "type": "uint256"
        },
        {
          "internalType": "uint256",
          "name": "_founderBP",
          "type": "uint256"
        },
        {
          "internalType": "uint256",
          "name": "_burnBP",
          "type": "uint256"
        }
      ],
      "name": "setFeeDistribution",
      "outputs": [],
      "stateMutability": "nonpayable",
      "type": "function"
    },
    {
      "inputs": [
        {
          "internalType": "address",
          "name": "account",
          "type": "address"
        },
        {
          "internalType": "bool",
          "name": "exempt",
          "type": "bool"
        }
      ],
      "name": "setFeeExempt",
      "outputs": [],
      "stateMutability": "nonpayable",
      "type": "function"
    },
    {
      "inputs": [
        {
          "internalType": "uint256",
          "name": "_totalFeeBP",
          "type": "uint256"
        }
      ],
      "name": "setTotalFeeBP",
      "outputs": [],
      "stateMutability": "nonpayable",
      "type": "function"
    },
    {
      "inputs": [],
      "name": "symbol",
      "outputs": [
        {
          "internalType": "string",
          "name": "",
          "type": "string"
        }
      ],
      "stateMutability": "view",
      "type": "function"
    },
    {
      "inputs": [],
      "name": "totalFeeBP",
      "outputs": [
        {
          "internalType": "uint256",
          "name": "",
          "type": "uint256"
        }
      ],
      "stateMutability": "view",
      "type": "function"
    },
    {
      "inputs": [],
      "name": "totalSupply",
      "outputs": [
        {
          "internalType": "uint256",
          "name": "",
          "type": "uint256"
        }
      ],
      "stateMutability": "view",
      "type": "function"
    },
    {
      "inputs": [
        {
          "internalType": "address",
          "name": "to",
          "type": "address"
        },
        {
          "internalType": "uint256",
          "name": "value",
          "type": "uint256"
        }
      ],
      "name": "transfer",
      "outputs": [
        {
          "internalType": "bool",
          "name": "",
          "type": "bool"
        }
      ],
      "stateMutability": "nonpayable",
      "type": "function"
    },
    {
      "inputs": [
        {
          "internalType": "address",
          "name": "from",
          "type": "address"
        },
        {
          "internalType": "address",
          "name": "to",
          "type": "address"
        },
        {
          "internalType": "uint256",
          "name": "value",
          "type": "uint256"
        }
      ],
      "name": "transferFrom",
      "outputs": [
        {
          "internalType": "bool",
          "name": "",
          "type": "bool"
        }
      ],
      "stateMutability": "nonpayable",
      "type": "function"
    },
    {
      "inputs": [
        {
          "internalType": "address",
          "name": "newOwner",
          "type": "address"
        }
      ],
      "name": "transferOwnership",
      "outputs": [],
      "stateMutability": "nonpayable",
      "type": "function"
    },
    {
      "inputs": [],
      "name": "treasury",
      "outputs": [
        {
          "internalType": "address",
          "name": "",
          "type": "address"
        }
      ],
      "stateMutability": "view",
      "type": "function"
    }
  ],
  "bytecode": "0x6080604052606460065560326007556014600855601e6009553480156200002557600080fd5b5060405162004bc338038062004bc383398181016040528101906200004b919062001614565b336040518060400160405280600a81526020017f466961436f696e207634000000000000000000000000000000000000000000008152506040518060400160405280600381526020017f46494100000000000000000000000000000000000000000000000000000000008152508160039081620000c99190620018d5565b508060049081620000db9190620018d5565b505050600073ffffffffffffffffffffffffffffffffffffffff168173ffffffffffffffffffffffffffffffffffffffff1603620001535760006040517f1e4fbdf70000000000000000000000000000000000000000000000000000000081526004016200014a9190620019cd565b60405180910390fd5b6200016481620006a260201b60201c565b506200018167b9b0c4afe1ce851f60c01b6200076860201b60201c565b6200019d67cf702183fd8c524a60c01b6200076860201b60201c565b620001b9676070b3288504001a60c01b6200076860201b60201c565b620001d567a6e5c9cb0aa51aa660c01b6200076860201b60201c565b600073ffffffffffffffffffffffffffffffffffffffff168273ffffffffffffffffffffffffffffffffffffffff1614158015620002405750600073ffffffffffffffffffffffffffffffffffffffff168173ffffffffffffffffffffffffffffffffffffffff1614155b62000282576040517f08c379a0000000000000000000000000000000000000000000000000000000008152600401620002799062001a4b565b60405180910390fd5b6200029e679d16e8142f07c27660c01b6200076860201b60201c565b620002ba67ce0372bf158fdb1160c01b6200076860201b60201c565b81600b60006101000a81548173ffffffffffffffffffffffffffffffffffffffff021916908373ffffffffffffffffffffffffffffffffffffffff1602179055506200031767891473b945dd73e960c01b6200076860201b60201c565b80600c60006101000a81548173ffffffffffffffffffffffffffffffffffffffff021916908373ffffffffffffffffffffffffffffffffffffffff1602179055506200037467c0f099be0de904b260c01b6200076860201b60201c565b42600a819055506200039767b192cc67ae15fe4060c01b6200076860201b60201c565b620003b367e7159a39a01cb09a60c01b6200076860201b60201c565b620003cf674ac68e98017366ec60c01b6200076860201b60201c565b600654600954600854600754620003e7919062001a9c565b620003f3919062001a9c565b1462000436576040517f08c379a00000000000000000000000000000000000000000000000000000000081526004016200042d9062001b27565b60405180910390fd5b62000452675b512d677e0e255760c01b6200076860201b60201c565b6200046e67f18671711605012f60c01b6200076860201b60201c565b6200048a673fd03d044738a7ab60c01b6200076860201b60201c565b620004ca336200049f6200076b60201b60201c565b600a620004ad919062001caa565b633b9aca00620004be919062001cfb565b6200077460201b60201c565b620004e6679eb17a614962834660c01b6200076860201b60201c565b6001600d60003373ffffffffffffffffffffffffffffffffffffffff1673ffffffffffffffffffffffffffffffffffffffff16815260200190815260200160002060006101000a81548160ff0219169083151502179055506200055a67244c5068cb793b2a60c01b6200076860201b60201c565b6001600d60008473ffffffffffffffffffffffffffffffffffffffff1673ffffffffffffffffffffffffffffffffffffffff16815260200190815260200160002060006101000a81548160ff021916908315150217905550620005ce6781a7c0f7532717da60c01b6200076860201b60201c565b6001600d60008373ffffffffffffffffffffffffffffffffffffffff1673ffffffffffffffffffffffffffffffffffffffff16815260200190815260200160002060006101000a81548160ff02191690831515021790555062000642677975ea845147302860c01b6200076860201b60201c565b6001600d60003073ffffffffffffffffffffffffffffffffffffffff1673ffffffffffffffffffffffffffffffffffffffff16815260200190815260200160002060006101000a81548160ff021916908315150217905550505062001e53565b6000600560009054906101000a900473ffffffffffffffffffffffffffffffffffffffff16905081600560006101000a81548173ffffffffffffffffffffffffffffffffffffffff021916908373ffffffffffffffffffffffffffffffffffffffff1602179055508173ffffffffffffffffffffffffffffffffffffffff168173ffffffffffffffffffffffffffffffffffffffff167f8be0079c531659141344cd1fd0a4f28419497f9722a3daafe3b4186f6b6457e060405160405180910390a35050565b50565b60006012905090565b600073ffffffffffffffffffffffffffffffffffffffff168273ffffffffffffffffffffffffffffffffffffffff1603620007e95760006040517fec442f05000000000000000000000000000000000000000000000000000000008152600401620007e09190620019cd565b60405180910390fd5b620007fd600083836200080160201b60201c565b5050565b6200081d67ac31d400122b90dc60c01b6200076860201b60201c565b6200082d6200128160201b60201c565b62000849679531676b6a37191b60c01b6200076860201b60201c565b620008656782a7635b6304d2a760c01b6200076860201b60201c565b62000881673e2de3875a5b773660c01b6200076860201b60201c565b6200089d672cfb37adfffb081160c01b6200076860201b60201c565b600073ffffffffffffffffffffffffffffffffffffffff168373ffffffffffffffffffffffffffffffffffffffff16148015620008f25750620008f167ecc2019cabcc10c360c01b620012cb60201b60201c565b5b80620009745750600073ffffffffffffffffffffffffffffffffffffffff168273ffffffffffffffffffffffffffffffffffffffff161480156200094e57506200094d673bed6d585898c98d60c01b620012cb60201b60201c565b5b80156200097357506200097267cb2beca84d1fb14660c01b620012cb60201b60201c565b5b5b80620009cc57506000600654148015620009a65750620009a56794af27da7bae92d860c01b620012cb60201b60201c565b5b8015620009cb5750620009ca67d2f548ab14185a7060c01b620012cb60201b60201c565b5b5b8062000a6b5750600d60008473ffffffffffffffffffffffffffffffffffffffff1673ffffffffffffffffffffffffffffffffffffffff16815260200190815260200160002060009054906101000a900460ff16801562000a45575062000a44671c860c0d0f51950c60c01b620012cb60201b60201c565b5b801562000a6a575062000a6967bbae1b9f828d4d7260c01b620012cb60201b60201c565b5b5b8062000ae55750600d60008373ffffffffffffffffffffffffffffffffffffffff1673ffffffffffffffffffffffffffffffffffffffff16815260200190815260200160002060009054906101000a900460ff16801562000ae4575062000ae3679247038386481b2760c01b620012cb60201b60201c565b5b5b1562000d175762000b0767c6f7017a20b4ee1f60c01b6200076860201b60201c565b62000b23675e054cc19f5b9cef60c01b6200076860201b60201c565b62000b3f67fab79d078f8d0d6460c01b6200076860201b60201c565b62000b52838383620012d660201b60201c565b62000b6e67a6bff26f7785bfe360c01b6200076860201b60201c565b62000b8a6706f6330fde29432d60c01b6200076860201b60201c565b600073ffffffffffffffffffffffffffffffffffffffff168373ffffffffffffffffffffffffffffffffffffffff161415801562000bf55750600073ffffffffffffffffffffffffffffffffffffffff168273ffffffffffffffffffffffffffffffffffffffff1614155b1562000cbc5762000c176755ccdcec711dfd9b60c01b6200076860201b60201c565b62000c3367f34baf8c9953002e60c01b6200076860201b60201c565b62000c4f67a34e3c3bda20a49b60c01b6200076860201b60201c565b8173ffffffffffffffffffffffffffffffffffffffff168373ffffffffffffffffffffffffffffffffffffffff167f59abb1a21ac9c02d9c217285768a906af17496e4cada7962f129b92f0ac948cf8360405162000cae919062001d57565b60405180910390a362000cd9565b62000cd867e23c8d94ab054c2560c01b6200076860201b60201c565b5b62000cf567d737077d0b654ddb60c01b6200076860201b60201c565b62000d1167bf2c4df61aaf956560c01b6200076860201b60201c565b6200127c565b62000d3367af0726218550ac9660c01b6200076860201b60201c565b62000d4f67e328bc23c293829b60c01b6200076860201b60201c565b62000d6b67cab014aae8faf4ac60c01b6200076860201b60201c565b60006127106006548362000d80919062001cfb565b62000d8c919062001da3565b905062000daa67c0cefc13473099d860c01b6200076860201b60201c565b62000dc667a1e68cf8e216206d60c01b6200076860201b60201c565b60006006546007548362000ddb919062001cfb565b62000de7919062001da3565b905062000e0567924ba732c803794b60c01b6200076860201b60201c565b62000e2167fec3ba1fa5fcaa1560c01b6200076860201b60201c565b60006006546008548462000e36919062001cfb565b62000e42919062001da3565b905062000e606762171587809ca44560c01b6200076860201b60201c565b62000e7c671f1a9781611e535c60c01b6200076860201b60201c565b600081838562000e8d919062001ddb565b62000e99919062001ddb565b905062000eb76714d7eae5c44f919560c01b6200076860201b60201c565b62000ed3671b8c79507de5793f60c01b6200076860201b60201c565b6000848662000ee3919062001ddb565b905062000f0167d06f06ea8d39855660c01b6200076860201b60201c565b62000f1d6719b85210b3ceef2f60c01b6200076860201b60201c565b62000f30888883620012d660201b60201c565b62000f4c673e964a651b090a5760c01b6200076860201b60201c565b62000f6867a528ee6143ee4e1960c01b6200076860201b60201c565b6000841115620010015762000f8e677dbd24a70579895560c01b6200076860201b60201c565b62000faa675c254372a81a8bbe60c01b6200076860201b60201c565b62000fc667526fc0dfa173cb6d60c01b6200076860201b60201c565b62000ffb88600b60009054906101000a900473ffffffffffffffffffffffffffffffffffffffff1686620012d660201b60201c565b6200101e565b6200101d672e166114601db81060c01b6200076860201b60201c565b5b6200103a67fa4cb181087f74b360c01b6200076860201b60201c565b6200105667ff40c22e36443e1360c01b6200076860201b60201c565b6000831115620010ef576200107c676686ead1edf676cf60c01b6200076860201b60201c565b62001098675a43f7ee00e300d260c01b6200076860201b60201c565b620010b4676eae55d48767bbed60c01b6200076860201b60201c565b620010e988600c60009054906101000a900473ffffffffffffffffffffffffffffffffffffffff1685620012d660201b60201c565b6200110c565b6200110b671a176ea2c3abdf3660c01b6200076860201b60201c565b5b6200112867b56d36baa4ed79d260c01b6200076860201b60201c565b62001144673ff961b3e7764b9160c01b6200076860201b60201c565b6000821115620011ba576200116a67be7927f385a2776c60c01b6200076860201b60201c565b6200118667a5f64619d054fec160c01b6200076860201b60201c565b620011a267390520d5eb67a1ec60c01b6200076860201b60201c565b620011b488836200150660201b60201c565b620011d7565b620011d667c3132c8fe52a261f60c01b6200076860201b60201c565b5b620011f3675a7ca7e1da0406d160c01b6200076860201b60201c565b6200120f674c0a389d75619c9960c01b6200076860201b60201c565b8673ffffffffffffffffffffffffffffffffffffffff168873ffffffffffffffffffffffffffffffffffffffff167f59abb1a21ac9c02d9c217285768a906af17496e4cada7962f129b92f0ac948cf886040516200126e919062001d57565b60405180910390a350505050505b505050565b620012916200159360201b60201c565b15620012c9576040517fd93c066500000000000000000000000000000000000000000000000000000000815260040160405180910390fd5b565b600060019050919050565b600073ffffffffffffffffffffffffffffffffffffffff168373ffffffffffffffffffffffffffffffffffffffff16036200132c5780600260008282546200131f919062001a9c565b9250508190555062001402565b60008060008573ffffffffffffffffffffffffffffffffffffffff1673ffffffffffffffffffffffffffffffffffffffff16815260200190815260200160002054905081811015620013bb578381836040517fe450d38c000000000000000000000000000000000000000000000000000000008152600401620013b29392919062001e16565b60405180910390fd5b8181036000808673ffffffffffffffffffffffffffffffffffffffff1673ffffffffffffffffffffffffffffffffffffffff16815260200190815260200160002081905550505b600073ffffffffffffffffffffffffffffffffffffffff168273ffffffffffffffffffffffffffffffffffffffff16036200144d57806002600082825403925050819055506200149a565b806000808473ffffffffffffffffffffffffffffffffffffffff1673ffffffffffffffffffffffffffffffffffffffff168152602001908152602001600020600082825401925050819055505b8173ffffffffffffffffffffffffffffffffffffffff168373ffffffffffffffffffffffffffffffffffffffff167fddf252ad1be2c89b69c2b068fc378daa952ba7f163c4a11628f55a4df523b3ef83604051620014f9919062001d57565b60405180910390a3505050565b600073ffffffffffffffffffffffffffffffffffffffff168273ffffffffffffffffffffffffffffffffffffffff16036200157b5760006040517f96c6fd1e000000000000000000000000000000000000000000000000000000008152600401620015729190620019cd565b60405180910390fd5b6200158f826000836200080160201b60201c565b5050565b6000600560149054906101000a900460ff16905090565b600080fd5b600073ffffffffffffffffffffffffffffffffffffffff82169050919050565b6000620015dc82620015af565b9050919050565b620015ee81620015cf565b8114620015fa57600080fd5b50565b6000815190506200160e81620015e3565b92915050565b600080604083850312156200162e576200162d620015aa565b5b60006200163e85828601620015fd565b92505060206200165185828601620015fd565b9150509250929050565b600081519050919050565b7f4e487b7100000000000000000000000000000000000000000000000000000000600052604160045260246000fd5b7f4e487b7100000000000000000000000000000000000000000000000000000000600052602260045260246000fd5b60006002820490506001821680620016dd57607f821691505b602082108103620016f357620016f262001695565b5b50919050565b60008190508160005260206000209050919050565b60006020601f8301049050919050565b600082821b905092915050565b6000600883026200175d7fffffffffffffffffffffffffffffffffffffffffffffffffffffffffffffffff826200171e565b6200176986836200171e565b95508019841693508086168417925050509392505050565b6000819050919050565b6000819050919050565b6000620017b6620017b0620017aa8462001781565b6200178b565b62001781565b9050919050565b6000819050919050565b620017d28362001795565b620017ea620017e182620017bd565b8484546200172b565b825550505050565b600090565b62001801620017f2565b6200180e818484620017c7565b505050565b5b8181101562001836576200182a600082620017f7565b60018101905062001814565b5050565b601f82111562001885576200184f81620016f9565b6200185a846200170e565b810160208510156200186a578190505b6200188262001879856200170e565b83018262001813565b50505b505050565b600082821c905092915050565b6000620018aa600019846008026200188a565b1980831691505092915050565b6000620018c5838362001897565b9150826002028217905092915050565b620018e0826200165b565b67ffffffffffffffff811115620018fc57620018fb62001666565b5b620019088254620016c4565b620019158282856200183a565b600060209050601f8311600181146200194d576000841562001938578287015190505b620019448582620018b7565b865550620019b4565b601f1984166200195d86620016f9565b60005b82811015620019875784890151825560018201915060208501945060208101905062001960565b86831015620019a75784890151620019a3601f89168262001897565b8355505b6001600288020188555050505b505050505050565b620019c781620015cf565b82525050565b6000602082019050620019e46000830184620019bc565b92915050565b600082825260208201905092915050565b7f5a65726f2061646472657373206e6f7420616c6c6f7765640000000000000000600082015250565b600062001a33601883620019ea565b915062001a4082620019fb565b602082019050919050565b6000602082019050818103600083015262001a668162001a24565b9050919050565b7f4e487b7100000000000000000000000000000000000000000000000000000000600052601160045260246000fd5b600062001aa98262001781565b915062001ab68362001781565b925082820190508082111562001ad15762001ad062001a6d565b5b92915050565b7f496e76616c69642066656520646973747269627574696f6e0000000000000000600082015250565b600062001b0f601883620019ea565b915062001b1c8262001ad7565b602082019050919050565b6000602082019050818103600083015262001b428162001b00565b9050919050565b60008160011c9050919050565b6000808291508390505b600185111562001ba85780860481111562001b805762001b7f62001a6d565b5b600185161562001b905780820291505b808102905062001ba08562001b49565b945062001b60565b94509492505050565b60008262001bc3576001905062001c96565b8162001bd3576000905062001c96565b816001811462001bec576002811462001bf75762001c2d565b600191505062001c96565b60ff84111562001c0c5762001c0b62001a6d565b5b8360020a91508482111562001c265762001c2562001a6d565b5b5062001c96565b5060208310610133831016604e8410600b841016171562001c675782820a90508381111562001c615762001c6062001a6d565b5b62001c96565b62001c76848484600162001b56565b9250905081840481111562001c905762001c8f62001a6d565b5b81810290505b9392505050565b600060ff82169050919050565b600062001cb78262001781565b915062001cc48362001c9d565b925062001cf37fffffffffffffffffffffffffffffffffffffffffffffffffffffffffffffffff848462001bb1565b905092915050565b600062001d088262001781565b915062001d158362001781565b925082820262001d258162001781565b9150828204841483151762001d3f5762001d3e62001a6d565b5b5092915050565b62001d518162001781565b82525050565b600060208201905062001d6e600083018462001d46565b92915050565b7f4e487b7100000000000000000000000000000000000000000000000000000000600052601260045260246000fd5b600062001db08262001781565b915062001dbd8362001781565b92508262001dd05762001dcf62001d74565b5b828204905092915050565b600062001de88262001781565b915062001df58362001781565b925082820390508181111562001e105762001e0f62001a6d565b5b92915050565b600060608201905062001e2d6000830186620019bc565b62001e3c602083018562001d46565b62001e4b604083018462001d46565b949350505050565b612d608062001e636000396000f3fe608060405234801561001057600080fd5b50600436106101e55760003560e01c806361d027b31161010f578063a23d3c35116100a2578063d1ad64c111610071578063d1ad64c11461052d578063dd62ed3e1461055e578063f2fde38b1461058e578063f6141345146105aa576101e5565b8063a23d3c35146104a5578063a9059cbb146104c3578063ba8e568f146104f3578063be8a361f1461050f576101e5565b80637c4ccbea116100de5780637c4ccbea1461042f5780638da5cb5b1461044d5780638ebfc7961461046b57806395d89b4114610487576101e5565b806361d027b3146103b957806369505688146103d757806370a08231146103f5578063715018a614610425576101e5565b806323b872dd116101875780634a4e3bd5116101565780634a4e3bd51461036957806351858e271461037357806355ef9b5e1461037d5780635c975abb1461039b576101e5565b806323b872dd146102cf578063313ce567146102ff5780633f4218e01461031d57806342966c681461034d576101e5565b8063120a8151116101c3578063120a81511461025657806316e2fc1d1461027457806318160ddd146102955780631f1f5bb3146102b3576101e5565b806306fdde03146101ea578063095ea7b314610208578063118725ce14610238575b600080fd5b6101f26105c8565b6040516101ff9190612483565b60405180910390f35b610222600480360381019061021d919061253e565b61065a565b60405161022f9190612599565b60405180910390f35b61024061067d565b60405161024d91906125c3565b60405180910390f35b61025e610683565b60405161026b91906125c3565b60405180910390f35b61027c610689565b60405161028c94939291906125de565b60405180910390f35b61029d6106e5565b6040516102aa91906125c3565b60405180910390f35b6102cd60048036038101906102c89190612623565b6106ef565b005b6102e960048036038101906102e49190612650565b610934565b6040516102f69190612599565b60405180910390f35b610307610963565b60405161031491906126bf565b60405180910390f35b610337600480360381019061033291906126da565b61096c565b6040516103449190612599565b60405180910390f35b61036760048036038101906103629190612623565b61098c565b005b6103716109d5565b005b61037b610aaa565b005b610385610b7f565b60405161039291906125c3565b60405180910390f35b6103a3610b85565b6040516103b09190612599565b60405180910390f35b6103c1610b9c565b6040516103ce9190612716565b60405180910390f35b6103df610bc2565b6040516103ec91906125c3565b60405180910390f35b61040f600480360381019061040a91906126da565b610bc8565b60405161041c91906125c3565b60405180910390f35b61042d610c10565b005b610437610c24565b60405161044491906125c3565b60405180910390f35b610455610c29565b6040516104629190612716565b60405180910390f35b6104856004803603810190610480919061275d565b610c53565b005b61048f610e3b565b60405161049c9190612483565b60405180910390f35b6104ad610ecd565b6040516104ba9190612716565b60405180910390f35b6104dd60048036038101906104d8919061253e565b610ef3565b6040516104ea9190612599565b60405180910390f35b61050d6004803603810190610508919061279d565b610f16565b005b6105176110bd565b60405161052491906125c3565b60405180910390f35b61054760048036038101906105429190612623565b6110c4565b6040516105559291906127f0565b60405180910390f35b61057860048036038101906105739190612819565b6111c2565b60405161058591906125c3565b60405180910390f35b6105a860048036038101906105a391906126da565b611249565b005b6105b26112cf565b6040516105bf91906125c3565b60405180910390f35b6060600380546105d790612888565b80601f016020809104026020016040519081016040528092919081815260200182805461060390612888565b80156106505780601f1061062557610100808354040283529160200191610650565b820191906000526020600020905b81548152906001019060200180831161063357829003601f168201915b5050505050905090565b6000806106656112d5565b90506106728185856112dd565b600191505092915050565b60085481565b60095481565b6000806000806106a367279ebf450b75f5b260c01b6112ef565b6106b7676e83b1c39989615760c01b6112ef565b6106cb679461693be8cbb11b60c01b6112ef565b600654600754600854600954935093509350935090919293565b6000600254905090565b61070367482b0ee8d9e2202e60c01b6112ef565b61070b6112f2565b61071f677bcd475e6c8d62da60c01b6112ef565b61073367a7b424431b35765b60c01b6112ef565b61074767cce39c673bc0877a60c01b6112ef565b61075b67ac12b9681c6937c560c01b6112ef565b61076f67a9ac5cebf6e1e6ce60c01b6112ef565b60c88111156107b3576040517f08c379a00000000000000000000000000000000000000000000000000000000081526004016107aa90612905565b60405180910390fd5b6107c767be11b9b6ade3d4fc60c01b6112ef565b6107db67bc096a3afdafe07360c01b6112ef565b6107ef675cc4f03fdd9134d860c01b6112ef565b61080367ae8fb0bf5f7c00a460c01b6112ef565b62015180600a546108149190612954565b421015610856576040517f08c379a000000000000000000000000000000000000000000000000000000000815260040161084d906129d4565b60405180910390fd5b61086a678b210343e38b7ba460c01b6112ef565b61087e67b6e7702240fe6f6e60c01b6112ef565b61089267934d939f45153bc360c01b6112ef565b600060065490506108ad67308966d42bde1d5d60c01b6112ef565b816006819055506108c86728b21765ed9d2a3f60c01b6112ef565b42600a819055506108e36765809e67972b8fc460c01b6112ef565b6108f767a3d92fc971c27c0760c01b6112ef565b7fcf4c3ba0667a6e28c2746a4ee8d23efa18b2ca17591c2a22c36773a0232661d881836040516109289291906127f0565b60405180910390a15050565b60008061093f6112d5565b905061094c858285611379565b61095785858561140e565b60019150509392505050565b60006012905090565b600d6020528060005260406000206000915054906101000a900460ff1681565b6109a067f8d8e217bd13031d60c01b6112ef565b6109b467a92f684faa24df3760c01b6112ef565b6109c867141aa98c7c94cb5360c01b6112ef565b6109d23382611502565b50565b6109e9672c9d25a36a8580e760c01b6112ef565b6109f16112f2565b610a05676fa7d90e41766f4160c01b6112ef565b610a1967dd565f9a82d12fe860c01b6112ef565b610a2d678edab683201c09b160c01b6112ef565b610a41671eb3d766193cc9e560c01b6112ef565b610a49611584565b610a5d672be4b100d1d7413160c01b6112ef565b610a7167126088293f1aaacc60c01b6112ef565b7f2a09e26ec96218a3a144df2e04de096b7f0410106a4caff3cdfa5d667e604f2a33604051610aa09190612a40565b60405180910390a1565b610abe67d5195480c47eb64360c01b6112ef565b610ac66112f2565b610ada67ee396048616c1c0260c01b6112ef565b610aee67a897665335b5a49760c01b6112ef565b610b02670a725a2985b115a760c01b6112ef565b610b1667c6c41780fa48d81b60c01b6112ef565b610b1e6115e7565b610b3267b15982c8ef88484a60c01b6112ef565b610b4667a4d2c64fd0bf285860c01b6112ef565b7f2a09e26ec96218a3a144df2e04de096b7f0410106a4caff3cdfa5d667e604f2a33604051610b759190612aba565b60405180910390a1565b60075481565b6000600560149054906101000a900460ff16905090565b600b60009054906101000a900473ffffffffffffffffffffffffffffffffffffffff1681565b600a5481565b60008060008373ffffffffffffffffffffffffffffffffffffffff1673ffffffffffffffffffffffffffffffffffffffff168152602001908152602001600020549050919050565b610c186112f2565b610c22600061164a565b565b60c881565b6000600560009054906101000a900473ffffffffffffffffffffffffffffffffffffffff16905090565b610c6767cb973be3f1c38b5f60c01b6112ef565b610c6f6112f2565b610c8367def97dbbf15d177960c01b6112ef565b610c9767c1465def26bc89e260c01b6112ef565b610cab679f0908ffa52a8bd460c01b6112ef565b610cbf6758b648f254880fc660c01b6112ef565b610cd36757aac5e24846672e60c01b6112ef565b600073ffffffffffffffffffffffffffffffffffffffff168273ffffffffffffffffffffffffffffffffffffffff1603610d42576040517f08c379a0000000000000000000000000000000000000000000000000000000008152600401610d3990612b34565b60405180910390fd5b610d5667295475d89885205560c01b6112ef565b610d6a6708d4ff9a8eef40b560c01b6112ef565b80600d60008473ffffffffffffffffffffffffffffffffffffffff1673ffffffffffffffffffffffffffffffffffffffff16815260200190815260200160002060006101000a81548160ff021916908315150217905550610dd5675c0409132ee3869260c01b6112ef565b610de967c27c88c4c08bc47c60c01b6112ef565b8173ffffffffffffffffffffffffffffffffffffffff167f210f2a4a589e25d95b24cbdb060d26ae79bbe123a564d0f973503d48badd00ca82604051610e2f9190612599565b60405180910390a25050565b606060048054610e4a90612888565b80601f0160208091040260200160405190810160405280929190818152602001828054610e7690612888565b8015610ec35780601f10610e9857610100808354040283529160200191610ec3565b820191906000526020600020905b815481529060010190602001808311610ea657829003601f168201915b5050505050905090565b600c60009054906101000a900473ffffffffffffffffffffffffffffffffffffffff1681565b600080610efe6112d5565b9050610f0b81858561140e565b600191505092915050565b610f2a6760c4e1d6cac835ad60c01b6112ef565b610f326112f2565b610f46674c8e33c1b76c6e7560c01b6112ef565b610f5a67797104d147e8daea60c01b6112ef565b610f6e673b5332108b10312e60c01b6112ef565b610f826704e7d7ec2b167a4a60c01b6112ef565b610f9667776f1bc62a54996360c01b6112ef565b600654818385610fa69190612954565b610fb09190612954565b14610ff0576040517f08c379a0000000000000000000000000000000000000000000000000000000008152600401610fe790612bc6565b60405180910390fd5b61100467d0e385f1cfe9a5c860c01b6112ef565b611018673c61d560a618d88060c01b6112ef565b8260078190555061103367cbef171873ef900160c01b6112ef565b8160088190555061104e677da6a954a525324960c01b6112ef565b80600981905550611069671575a3f6fab7959560c01b6112ef565b61107d6764ca0c6585249f4e60c01b6112ef565b7f69fc4c7ba13251e049284d74af6f22b2804db0152deb918f6cf17451917fe97f8383836040516110b093929190612be6565b60405180910390a1505050565b6201518081565b6000806110db672f6a014f74951ff460c01b6112ef565b6110ef673db8e82d057ac9b360c01b6112ef565b61110367e3bd43ffc4423d8760c01b6112ef565b6000600654036111555761112167c5f08adebbe6fa0160c01b6112ef565b61113567cd0f66418a15f5d060c01b6112ef565b6111496752d9509b1171833e60c01b6112ef565b826000915091506111bd565b611169673bd528256989f1fc60c01b6112ef565b61117d67398e0f9800bfdf1960c01b6112ef565b6127106006548461118e9190612c1d565b6111989190612c8e565b90506111ae67b49bc020824fbe8160c01b6112ef565b80836111ba9190612cbf565b91505b915091565b6000600160008473ffffffffffffffffffffffffffffffffffffffff1673ffffffffffffffffffffffffffffffffffffffff16815260200190815260200160002060008373ffffffffffffffffffffffffffffffffffffffff1673ffffffffffffffffffffffffffffffffffffffff16815260200190815260200160002054905092915050565b6112516112f2565b600073ffffffffffffffffffffffffffffffffffffffff168173ffffffffffffffffffffffffffffffffffffffff16036112c35760006040517f1e4fbdf70000000000000000000000000000000000000000000000000000000081526004016112ba9190612716565b60405180910390fd5b6112cc8161164a565b50565b60065481565b600033905090565b6112ea8383836001611710565b505050565b50565b6112fa6112d5565b73ffffffffffffffffffffffffffffffffffffffff16611318610c29565b73ffffffffffffffffffffffffffffffffffffffff16146113775761133b6112d5565b6040517f118cdaa700000000000000000000000000000000000000000000000000000000815260040161136e9190612716565b60405180910390fd5b565b600061138584846111c2565b90507fffffffffffffffffffffffffffffffffffffffffffffffffffffffffffffffff81101561140857818110156113f8578281836040517ffb8f41b20000000000000000000000000000000000000000000000000000000081526004016113ef93929190612cf3565b60405180910390fd5b61140784848484036000611710565b5b50505050565b600073ffffffffffffffffffffffffffffffffffffffff168373ffffffffffffffffffffffffffffffffffffffff16036114805760006040517f96c6fd1e0000000000000000000000000000000000000000000000000000000081526004016114779190612716565b60405180910390fd5b600073ffffffffffffffffffffffffffffffffffffffff168273ffffffffffffffffffffffffffffffffffffffff16036114f25760006040517fec442f050000000000000000000000000000000000000000000000000000000081526004016114e99190612716565b60405180910390fd5b6114fd8383836118e7565b505050565b600073ffffffffffffffffffffffffffffffffffffffff168273ffffffffffffffffffffffffffffffffffffffff16036115745760006040517f96c6fd1e00000000000000000000000000000000000000000000000000000000815260040161156b9190612716565b60405180910390fd5b611580826000836118e7565b5050565b61158c612142565b6000600560146101000a81548160ff0219169083151502179055507f5db9ee0a495bf2e6ff9c91a7834c1ba4fdd244a5e8aa4e537bd38aeae4b073aa6115d06112d5565b6040516115dd9190612716565b60405180910390a1565b6115ef612182565b6001600560146101000a81548160ff0219169083151502179055507f62e78cea01bee320cd4e420270b5ea74000d11b0c9f74754ebdbfc544b05a2586116336112d5565b6040516116409190612716565b60405180910390a1565b6000600560009054906101000a900473ffffffffffffffffffffffffffffffffffffffff16905081600560006101000a81548173ffffffffffffffffffffffffffffffffffffffff021916908373ffffffffffffffffffffffffffffffffffffffff1602179055508173ffffffffffffffffffffffffffffffffffffffff168173ffffffffffffffffffffffffffffffffffffffff167f8be0079c531659141344cd1fd0a4f28419497f9722a3daafe3b4186f6b6457e060405160405180910390a35050565b600073ffffffffffffffffffffffffffffffffffffffff168473ffffffffffffffffffffffffffffffffffffffff16036117825760006040517fe602df050000000000000000000000000000000000000000000000000000000081526004016117799190612716565b60405180910390fd5b600073ffffffffffffffffffffffffffffffffffffffff168373ffffffffffffffffffffffffffffffffffffffff16036117f45760006040517f94280d620000000000000000000000000000000000000000000000000000000081526004016117eb9190612716565b60405180910390fd5b81600160008673ffffffffffffffffffffffffffffffffffffffff1673ffffffffffffffffffffffffffffffffffffffff16815260200190815260200160002060008573ffffffffffffffffffffffffffffffffffffffff1673ffffffffffffffffffffffffffffffffffffffff1681526020019081526020016000208190555080156118e1578273ffffffffffffffffffffffffffffffffffffffff168473ffffffffffffffffffffffffffffffffffffffff167f8c5be1e5ebec7d5bd14f71427d1e84f3dd0314c0f7b2291e5b200ac8c7c3b925846040516118d891906125c3565b60405180910390a35b50505050565b6118fb67ac31d400122b90dc60c01b6112ef565b611903612182565b611917679531676b6a37191b60c01b6112ef565b61192b6782a7635b6304d2a760c01b6112ef565b61193f673e2de3875a5b773660c01b6112ef565b611953672cfb37adfffb081160c01b6112ef565b600073ffffffffffffffffffffffffffffffffffffffff168373ffffffffffffffffffffffffffffffffffffffff1614801561199f575061199e67ecc2019cabcc10c360c01b6121c3565b5b80611a0e5750600073ffffffffffffffffffffffffffffffffffffffff168273ffffffffffffffffffffffffffffffffffffffff161480156119f157506119f0673bed6d585898c98d60c01b6121c3565b5b8015611a0d5750611a0c67cb2beca84d1fb14660c01b6121c3565b5b5b80611a5357506000600654148015611a365750611a356794af27da7bae92d860c01b6121c3565b5b8015611a525750611a5167d2f548ab14185a7060c01b6121c3565b5b5b80611adf5750600d60008473ffffffffffffffffffffffffffffffffffffffff1673ffffffffffffffffffffffffffffffffffffffff16815260200190815260200160002060009054906101000a900460ff168015611ac25750611ac1671c860c0d0f51950c60c01b6121c3565b5b8015611ade5750611add67bbae1b9f828d4d7260c01b6121c3565b5b5b80611b4f5750600d60008373ffffffffffffffffffffffffffffffffffffffff1673ffffffffffffffffffffffffffffffffffffffff16815260200190815260200160002060009054906101000a900460ff168015611b4e5750611b4d679247038386481b2760c01b6121c3565b5b5b15611d1a57611b6867c6f7017a20b4ee1f60c01b6112ef565b611b7c675e054cc19f5b9cef60c01b6112ef565b611b9067fab79d078f8d0d6460c01b6112ef565b611b9b8383836121ce565b611baf67a6bff26f7785bfe360c01b6112ef565b611bc36706f6330fde29432d60c01b6112ef565b600073ffffffffffffffffffffffffffffffffffffffff168373ffffffffffffffffffffffffffffffffffffffff1614158015611c2d5750600073ffffffffffffffffffffffffffffffffffffffff168273ffffffffffffffffffffffffffffffffffffffff1614155b15611cd857611c466755ccdcec711dfd9b60c01b6112ef565b611c5a67f34baf8c9953002e60c01b6112ef565b611c6e67a34e3c3bda20a49b60c01b6112ef565b8173ffffffffffffffffffffffffffffffffffffffff168373ffffffffffffffffffffffffffffffffffffffff167f59abb1a21ac9c02d9c217285768a906af17496e4cada7962f129b92f0ac948cf83604051611ccb91906125c3565b60405180910390a3611ced565b611cec67e23c8d94ab054c2560c01b6112ef565b5b611d0167d737077d0b654ddb60c01b6112ef565b611d1567bf2c4df61aaf956560c01b6112ef565b61213d565b611d2e67af0726218550ac9660c01b6112ef565b611d4267e328bc23c293829b60c01b6112ef565b611d5667cab014aae8faf4ac60c01b6112ef565b600061271060065483611d699190612c1d565b611d739190612c8e565b9050611d8967c0cefc13473099d860c01b6112ef565b611d9d67a1e68cf8e216206d60c01b6112ef565b600060065460075483611db09190612c1d565b611dba9190612c8e565b9050611dd067924ba732c803794b60c01b6112ef565b611de467fec3ba1fa5fcaa1560c01b6112ef565b600060065460085484611df79190612c1d565b611e019190612c8e565b9050611e176762171587809ca44560c01b6112ef565b611e2b671f1a9781611e535c60c01b6112ef565b6000818385611e3a9190612cbf565b611e449190612cbf565b9050611e5a6714d7eae5c44f919560c01b6112ef565b611e6e671b8c79507de5793f60c01b6112ef565b60008486611e7c9190612cbf565b9050611e9267d06f06ea8d39855660c01b6112ef565b611ea66719b85210b3ceef2f60c01b6112ef565b611eb18888836121ce565b611ec5673e964a651b090a5760c01b6112ef565b611ed967a528ee6143ee4e1960c01b6112ef565b6000841115611f5057611ef6677dbd24a70579895560c01b6112ef565b611f0a675c254372a81a8bbe60c01b6112ef565b611f1e67526fc0dfa173cb6d60c01b6112ef565b611f4b88600b60009054906101000a900473ffffffffffffffffffffffffffffffffffffffff16866121ce565b611f65565b611f64672e166114601db81060c01b6112ef565b5b611f7967fa4cb181087f74b360c01b6112ef565b611f8d67ff40c22e36443e1360c01b6112ef565b600083111561200457611faa676686ead1edf676cf60c01b6112ef565b611fbe675a43f7ee00e300d260c01b6112ef565b611fd2676eae55d48767bbed60c01b6112ef565b611fff88600c60009054906101000a900473ffffffffffffffffffffffffffffffffffffffff16856121ce565b612019565b612018671a176ea2c3abdf3660c01b6112ef565b5b61202d67b56d36baa4ed79d260c01b6112ef565b612041673ff961b3e7764b9160c01b6112ef565b60008211156120955761205e67be7927f385a2776c60c01b6112ef565b61207267a5f64619d054fec160c01b6112ef565b61208667390520d5eb67a1ec60c01b6112ef565b6120908883611502565b6120aa565b6120a967c3132c8fe52a261f60c01b6112ef565b5b6120be675a7ca7e1da0406d160c01b6112ef565b6120d2674c0a389d75619c9960c01b6112ef565b8673ffffffffffffffffffffffffffffffffffffffff168873ffffffffffffffffffffffffffffffffffffffff167f59abb1a21ac9c02d9c217285768a906af17496e4cada7962f129b92f0ac948cf8860405161212f91906125c3565b60405180910390a350505050505b505050565b61214a610b85565b612180576040517f8dfc202b00000000000000000000000000000000000000000000000000000000815260040160405180910390fd5b565b61218a610b85565b156121c1576040517fd93c066500000000000000000000000000000000000000000000000000000000815260040160405180910390fd5b565b600060019050919050565b600073ffffffffffffffffffffffffffffffffffffffff168373ffffffffffffffffffffffffffffffffffffffff16036122205780600260008282546122149190612954565b925050819055506122f3565b60008060008573ffffffffffffffffffffffffffffffffffffffff1673ffffffffffffffffffffffffffffffffffffffff168152602001908152602001600020549050818110156122ac578381836040517fe450d38c0000000000000000000000000000000000000000000000000000000081526004016122a393929190612cf3565b60405180910390fd5b8181036000808673ffffffffffffffffffffffffffffffffffffffff1673ffffffffffffffffffffffffffffffffffffffff16815260200190815260200160002081905550505b600073ffffffffffffffffffffffffffffffffffffffff168273ffffffffffffffffffffffffffffffffffffffff160361233c5780600260008282540392505081905550612389565b806000808473ffffffffffffffffffffffffffffffffffffffff1673ffffffffffffffffffffffffffffffffffffffff168152602001908152602001600020600082825401925050819055505b8173ffffffffffffffffffffffffffffffffffffffff168373ffffffffffffffffffffffffffffffffffffffff167fddf252ad1be2c89b69c2b068fc378daa952ba7f163c4a11628f55a4df523b3ef836040516123e691906125c3565b60405180910390a3505050565b600081519050919050565b600082825260208201905092915050565b60005b8381101561242d578082015181840152602081019050612412565b60008484015250505050565b6000601f19601f8301169050919050565b6000612455826123f3565b61245f81856123fe565b935061246f81856020860161240f565b61247881612439565b840191505092915050565b6000602082019050818103600083015261249d818461244a565b905092915050565b600080fd5b600073ffffffffffffffffffffffffffffffffffffffff82169050919050565b60006124d5826124aa565b9050919050565b6124e5816124ca565b81146124f057600080fd5b50565b600081359050612502816124dc565b92915050565b6000819050919050565b61251b81612508565b811461252657600080fd5b50565b60008135905061253881612512565b92915050565b60008060408385031215612555576125546124a5565b5b6000612563858286016124f3565b925050602061257485828601612529565b9150509250929050565b60008115159050919050565b6125938161257e565b82525050565b60006020820190506125ae600083018461258a565b92915050565b6125bd81612508565b82525050565b60006020820190506125d860008301846125b4565b92915050565b60006080820190506125f360008301876125b4565b61260060208301866125b4565b61260d60408301856125b4565b61261a60608301846125b4565b95945050505050565b600060208284031215612639576126386124a5565b5b600061264784828501612529565b91505092915050565b600080600060608486031215612669576126686124a5565b5b6000612677868287016124f3565b9350506020612688868287016124f3565b925050604061269986828701612529565b9150509250925092565b600060ff82169050919050565b6126b9816126a3565b82525050565b60006020820190506126d460008301846126b0565b92915050565b6000602082840312156126f0576126ef6124a5565b5b60006126fe848285016124f3565b91505092915050565b612710816124ca565b82525050565b600060208201905061272b6000830184612707565b92915050565b61273a8161257e565b811461274557600080fd5b50565b60008135905061275781612731565b92915050565b60008060408385031215612774576127736124a5565b5b6000612782858286016124f3565b925050602061279385828601612748565b9150509250929050565b6000806000606084860312156127b6576127b56124a5565b5b60006127c486828701612529565b93505060206127d586828701612529565b92505060406127e686828701612529565b9150509250925092565b600060408201905061280560008301856125b4565b61281260208301846125b4565b9392505050565b600080604083850312156128305761282f6124a5565b5b600061283e858286016124f3565b925050602061284f858286016124f3565b9150509250929050565b7f4e487b7100000000000000000000000000000000000000000000000000000000600052602260045260246000fd5b600060028204905060018216806128a057607f821691505b6020821081036128b3576128b2612859565b5b50919050565b7f4665652065786365656473206d6178696d756d00000000000000000000000000600082015250565b60006128ef6013836123fe565b91506128fa826128b9565b602082019050919050565b6000602082019050818103600083015261291e816128e2565b9050919050565b7f4e487b7100000000000000000000000000000000000000000000000000000000600052601160045260246000fd5b600061295f82612508565b915061296a83612508565b925082820190508082111561298257612981612925565b5b92915050565b7f466565206368616e676520746f6f206672657175656e74000000000000000000600082015250565b60006129be6017836123fe565b91506129c982612988565b602082019050919050565b600060208201905081810360008301526129ed816129b1565b9050919050565b7f554e504155534500000000000000000000000000000000000000000000000000600082015250565b6000612a2a6007836123fe565b9150612a35826129f4565b602082019050919050565b60006040820190508181036000830152612a5981612a1d565b9050612a686020830184612707565b92915050565b7f5041555345000000000000000000000000000000000000000000000000000000600082015250565b6000612aa46005836123fe565b9150612aaf82612a6e565b602082019050919050565b60006040820190508181036000830152612ad381612a97565b9050612ae26020830184612707565b92915050565b7f43616e6e6f74206578656d7074207a65726f2061646472657373000000000000600082015250565b6000612b1e601a836123fe565b9150612b2982612ae8565b602082019050919050565b60006020820190508181036000830152612b4d81612b11565b9050919050565b7f446973747269627574696f6e206d75737420657175616c20746f74616c20666560008201527f6500000000000000000000000000000000000000000000000000000000000000602082015250565b6000612bb06021836123fe565b9150612bbb82612b54565b604082019050919050565b60006020820190508181036000830152612bdf81612ba3565b9050919050565b6000606082019050612bfb60008301866125b4565b612c0860208301856125b4565b612c1560408301846125b4565b949350505050565b6000612c2882612508565b9150612c3383612508565b9250828202612c4181612508565b91508282048414831517612c5857612c57612925565b5b5092915050565b7f4e487b7100000000000000000000000000000000000000000000000000000000600052601260045260246000fd5b6000612c9982612508565b9150612ca483612508565b925082612cb457612cb3612c5f565b5b828204905092915050565b6000612cca82612508565b9150612cd583612508565b9250828203905081811115612ced57612cec612925565b5b92915050565b6000606082019050612d086000830186612707565b612d1560208301856125b4565b612d2260408301846125b4565b94935050505056fea2646970667358221220595c38a6e7c16fed2f4661b83e6b5890af113c6f130d919f352aa4f39d7ed37064736f6c63430008140033",
  "linkReferences": {},
  "deployedLinkReferences": {}
}