{
  "_format": "hh-sol-artifact-1",
  "contractName": "MockSafe",
  "sourceName": "contracts/MockSafe.sol",
  "abi": [
    {
      "inputs": [],
      "stateMutability": "nonpayable",
      "type": "constructor"
    },
    {
      "inputs": [
        {
          "internalType": "address",
          "name": "target",
          "type": "address"
        },
        {
          "internalType": "bytes",
          "name": "data",
          "type": "bytes"
        }
      ],
      "name": "callExecute",
      "outputs": [
        {
          "internalType": "bytes",
          "name": "",
          "type": "bytes"
        }
      ],
      "stateMutability": "nonpayable",
      "type": "function"
    },
    {
      "inputs": [],
      "name": "owner",
      "outputs": [
        {
          "internalType": "address",
          "name": "",
          "type": "address"
        }
      ],
      "stateMutability": "view",
      "type": "function"
    }
  ],
  "bytecode": "0x608060405234801561001057600080fd5b5061002b67bcd29a56649a375d60c01b61008a60201b60201c565b610045675275c52252b7e9f460c01b61008a60201b60201c565b336000806101000a81548173ffffffffffffffffffffffffffffffffffffffff021916908373ffffffffffffffffffffffffffffffffffffffff16021790555061008d565b50565b6107208061009c6000396000f3fe608060405234801561001057600080fd5b50600436106100365760003560e01c80634a1fe7741461003b5780638da5cb5b1461006b575b600080fd5b6100556004803603810190610050919061046d565b610089565b604051610062919061055d565b60405180910390f35b610073610379565b604051610080919061058e565b60405180910390f35b606061009f675fd7314ad8322fdc60c01b61039d565b6100b3678f34cb773161fcee60c01b61039d565b6100c767fe827e30c6f868af60c01b61039d565b6100db67cc48ca8d823bf4b460c01b61039d565b60008054906101000a900473ffffffffffffffffffffffffffffffffffffffff1673ffffffffffffffffffffffffffffffffffffffff163373ffffffffffffffffffffffffffffffffffffffff1614610169576040517f08c379a000000000000000000000000000000000000000000000000000000000815260040161016090610606565b60405180910390fd5b61017d67b94843233515e11a60c01b61039d565b61019167f8bf3027b1c2a8c760c01b61039d565b6101a567ea9445e6bb05635a60c01b61039d565b6000808573ffffffffffffffffffffffffffffffffffffffff1685856040516101cf929190610665565b6000604051808303816000865af19150503d806000811461020c576040519150601f19603f3d011682016040523d82523d6000602084013e610211565b606091505b509150915061022a6778eb844caad8b30e60c01b61039d565b61023e67e885ce94ea26f5d660c01b61039d565b8161033157610257676eb8595f9fb9e82f60c01b61039d565b61026b67228020aa07d0f5fa60c01b61039d565b61027f67503854ed38db699760c01b61039d565b6000815111156102ba5761029d67cfe8a35f6fe41f3560c01b61039d565b6102b167c1c49410b823013e60c01b61039d565b80518060208301fd5b6102ce67e39b8cf54e8d554560c01b61039d565b6102e267afed0a60a1700ff560c01b61039d565b6102f6670729e08e98fd5c4060c01b61039d565b6040517f08c379a0000000000000000000000000000000000000000000000000000000008152600401610328906106ca565b60405180910390fd5b61034567fb1e6dc0a80132b160c01b61039d565b6103596763e3d7b0cf266dda60c01b61039d565b61036d67a1f59fd82e9959e960c01b61039d565b80925050509392505050565b60008054906101000a900473ffffffffffffffffffffffffffffffffffffffff1681565b50565b600080fd5b600080fd5b600073ffffffffffffffffffffffffffffffffffffffff82169050919050565b60006103d5826103aa565b9050919050565b6103e5816103ca565b81146103f057600080fd5b50565b600081359050610402816103dc565b92915050565b600080fd5b600080fd5b600080fd5b60008083601f84011261042d5761042c610408565b5b8235905067ffffffffffffffff81111561044a5761044961040d565b5b60208301915083600182028301111561046657610465610412565b5b9250929050565b600080600060408486031215610486576104856103a0565b5b6000610494868287016103f3565b935050602084013567ffffffffffffffff8111156104b5576104b46103a5565b5b6104c186828701610417565b92509250509250925092565b600081519050919050565b600082825260208201905092915050565b60005b838110156105075780820151818401526020810190506104ec565b60008484015250505050565b6000601f19601f8301169050919050565b600061052f826104cd565b61053981856104d8565b93506105498185602086016104e9565b61055281610513565b840191505092915050565b600060208201905081810360008301526105778184610524565b905092915050565b610588816103ca565b82525050565b60006020820190506105a3600083018461057f565b92915050565b600082825260208201905092915050565b7f4d6f636b536166653a206f6e6c79206f776e6572000000000000000000000000600082015250565b60006105f06014836105a9565b91506105fb826105ba565b602082019050919050565b6000602082019050818103600083015261061f816105e3565b9050919050565b600081905092915050565b82818337600083830152505050565b600061064c8385610626565b9350610659838584610631565b82840190509392505050565b6000610672828486610640565b91508190509392505050565b7f4d6f636b536166653a2063616c6c206661696c65640000000000000000000000600082015250565b60006106b46015836105a9565b91506106bf8261067e565b602082019050919050565b600060208201905081810360008301526106e3816106a7565b905091905056fea2646970667358221220c8cbc6aa0a4494cb69bab80ca5f0b43539b473969ad61ffe3a7e64bc5bbbee7764736f6c63430008160033",
  "linkReferences": {},
  "deployedLinkReferences": {}
}