{
  "_format": "hh-sol-artifact-1",
  "contractName": "FIACoinV6",
  "sourceName": "contracts/FIACoinV6.sol",
  "abi": [
    {
      "inputs": [
        {
          "internalType": "address",
          "name": "_treasury",
          "type": "address"
        },
        {
          "internalType": "address",
          "name": "_founder",
          "type": "address"
        },
        {
          "internalType": "address",
          "name": "_executor",
          "type": "address"
        }
      ],
      "stateMutability": "nonpayable",
      "type": "constructor"
    },
    {
      "inputs": [
        {
          "internalType": "address",
          "name": "spender",
          "type": "address"
        },
        {
          "internalType": "uint256",
          "name": "allowance",
          "type": "uint256"
        },
        {
          "internalType": "uint256",
          "name": "needed",
          "type": "uint256"
        }
      ],
      "name": "ERC20InsufficientAllowance",
      "type": "error"
    },
    {
      "inputs": [
        {
          "internalType": "address",
          "name": "sender",
          "type": "address"
        },
        {
          "internalType": "uint256",
          "name": "balance",
          "type": "uint256"
        },
        {
          "internalType": "uint256",
          "name": "needed",
          "type": "uint256"
        }
      ],
      "name": "ERC20InsufficientBalance",
      "type": "error"
    },
    {
      "inputs": [
        {
          "internalType": "address",
          "name": "approver",
          "type": "address"
        }
      ],
      "name": "ERC20InvalidApprover",
      "type": "error"
    },
    {
      "inputs": [
        {
          "internalType": "address",
          "name": "receiver",
          "type": "address"
        }
      ],
      "name": "ERC20InvalidReceiver",
      "type": "error"
    },
    {
      "inputs": [
        {
          "internalType": "address",
          "name": "sender",
          "type": "address"
        }
      ],
      "name": "ERC20InvalidSender",
      "type": "error"
    },
    {
      "inputs": [
        {
          "internalType": "address",
          "name": "spender",
          "type": "address"
        }
      ],
      "name": "ERC20InvalidSpender",
      "type": "error"
    },
    {
      "inputs": [],
      "name": "EnforcedPause",
      "type": "error"
    },
    {
      "inputs": [],
      "name": "ExpectedPause",
      "type": "error"
    },
    {
      "inputs": [
        {
          "internalType": "address",
          "name": "owner",
          "type": "address"
        }
      ],
      "name": "OwnableInvalidOwner",
      "type": "error"
    },
    {
      "inputs": [
        {
          "internalType": "address",
          "name": "account",
          "type": "address"
        }
      ],
      "name": "OwnableUnauthorizedAccount",
      "type": "error"
    },
    {
      "inputs": [],
      "name": "ReentrancyGuardReentrantCall",
      "type": "error"
    },
    {
      "anonymous": false,
      "inputs": [
        {
          "indexed": true,
          "internalType": "address",
          "name": "owner",
          "type": "address"
        },
        {
          "indexed": true,
          "internalType": "address",
          "name": "spender",
          "type": "address"
        },
        {
          "indexed": false,
          "internalType": "uint256",
          "name": "value",
          "type": "uint256"
        }
      ],
      "name": "Approval",
      "type": "event"
    },
    {
      "anonymous": false,
      "inputs": [
        {
          "indexed": true,
          "internalType": "address",
          "name": "user",
          "type": "address"
        },
        {
          "indexed": false,
          "internalType": "uint256",
          "name": "totalAmount",
          "type": "uint256"
        },
        {
          "indexed": false,
          "internalType": "uint256",
          "name": "stakeCount",
          "type": "uint256"
        }
      ],
      "name": "BatchStaking",
      "type": "event"
    },
    {
      "anonymous": false,
      "inputs": [
        {
          "indexed": true,
          "internalType": "address",
          "name": "from",
          "type": "address"
        },
        {
          "indexed": false,
          "internalType": "uint256",
          "name": "totalAmount",
          "type": "uint256"
        },
        {
          "indexed": false,
          "internalType": "uint256",
          "name": "recipientCount",
          "type": "uint256"
        }
      ],
      "name": "BatchTransfer",
      "type": "event"
    },
    {
      "anonymous": false,
      "inputs": [
        {
          "indexed": false,
          "internalType": "string",
          "name": "action",
          "type": "string"
        },
        {
          "indexed": false,
          "internalType": "address",
          "name": "actor",
          "type": "address"
        }
      ],
      "name": "EmergencyAction",
      "type": "event"
    },
    {
      "anonymous": false,
      "inputs": [
        {
          "indexed": false,
          "internalType": "uint256",
          "name": "oldFee",
          "type": "uint256"
        },
        {
          "indexed": false,
          "internalType": "uint256",
          "name": "newFee",
          "type": "uint256"
        }
      ],
      "name": "FeeConfigurationChanged",
      "type": "event"
    },
    {
      "anonymous": false,
      "inputs": [
        {
          "indexed": false,
          "internalType": "uint256",
          "name": "treasury",
          "type": "uint256"
        },
        {
          "indexed": false,
          "internalType": "uint256",
          "name": "founder",
          "type": "uint256"
        },
        {
          "indexed": false,
          "internalType": "uint256",
          "name": "burn",
          "type": "uint256"
        }
      ],
      "name": "FeeDistributionChanged",
      "type": "event"
    },
    {
      "anonymous": false,
      "inputs": [
        {
          "indexed": true,
          "internalType": "address",
          "name": "account",
          "type": "address"
        },
        {
          "indexed": false,
          "internalType": "bool",
          "name": "exempt",
          "type": "bool"
        }
      ],
      "name": "FeeExemptionSet",
      "type": "event"
    },
    {
      "anonymous": false,
      "inputs": [
        {
          "indexed": true,
          "internalType": "address",
          "name": "from",
          "type": "address"
        },
        {
          "indexed": true,
          "internalType": "address",
          "name": "to",
          "type": "address"
        },
        {
          "indexed": false,
          "internalType": "uint256",
          "name": "amount",
          "type": "uint256"
        }
      ],
      "name": "Fingered",
      "type": "event"
    },
    {
      "anonymous": false,
      "inputs": [
        {
          "indexed": true,
          "internalType": "address",
          "name": "previousOwner",
          "type": "address"
        },
        {
          "indexed": true,
          "internalType": "address",
          "name": "newOwner",
          "type": "address"
        }
      ],
      "name": "OwnershipTransferred",
      "type": "event"
    },
    {
      "anonymous": false,
      "inputs": [
        {
          "indexed": false,
          "internalType": "address",
          "name": "account",
          "type": "address"
        }
      ],
      "name": "Paused",
      "type": "event"
    },
    {
      "anonymous": false,
      "inputs": [
        {
          "indexed": true,
          "internalType": "uint256",
          "name": "proposalId",
          "type": "uint256"
        },
        {
          "indexed": true,
          "internalType": "address",
          "name": "proposer",
          "type": "address"
        },
        {
          "indexed": false,
          "internalType": "string",
          "name": "description",
          "type": "string"
        }
      ],
      "name": "ProposalCreated",
      "type": "event"
    },
    {
      "anonymous": false,
      "inputs": [
        {
          "indexed": true,
          "internalType": "uint256",
          "name": "proposalId",
          "type": "uint256"
        }
      ],
      "name": "ProposalExecuted",
      "type": "event"
    },
    {
      "anonymous": false,
      "inputs": [
        {
          "indexed": true,
          "internalType": "address",
          "name": "user",
          "type": "address"
        },
        {
          "indexed": false,
          "internalType": "uint256",
          "name": "reward",
          "type": "uint256"
        },
        {
          "indexed": false,
          "internalType": "uint256",
          "name": "stakeIndex",
          "type": "uint256"
        }
      ],
      "name": "RewardClaimed",
      "type": "event"
    },
    {
      "anonymous": false,
      "inputs": [
        {
          "indexed": true,
          "internalType": "address",
          "name": "user",
          "type": "address"
        },
        {
          "indexed": false,
          "internalType": "uint256",
          "name": "amount",
          "type": "uint256"
        },
        {
          "indexed": false,
          "internalType": "uint256",
          "name": "lockPeriod",
          "type": "uint256"
        },
        {
          "indexed": false,
          "internalType": "uint256",
          "name": "stakeIndex",
          "type": "uint256"
        }
      ],
      "name": "Staked",
      "type": "event"
    },
    {
      "anonymous": false,
      "inputs": [
        {
          "indexed": true,
          "internalType": "address",
          "name": "from",
          "type": "address"
        },
        {
          "indexed": true,
          "internalType": "address",
          "name": "to",
          "type": "address"
        },
        {
          "indexed": false,
          "internalType": "uint256",
          "name": "value",
          "type": "uint256"
        }
      ],
      "name": "Transfer",
      "type": "event"
    },
    {
      "anonymous": false,
      "inputs": [
        {
          "indexed": true,
          "internalType": "address",
          "name": "from",
          "type": "address"
        },
        {
          "indexed": true,
          "internalType": "address",
          "name": "to",
          "type": "address"
        },
        {
          "indexed": false,
          "internalType": "uint256",
          "name": "amount",
          "type": "uint256"
        },
        {
          "indexed": false,
          "internalType": "bytes32",
          "name": "memoHash",
          "type": "bytes32"
        }
      ],
      "name": "TransferWithDataLite",
      "type": "event"
    },
    {
      "anonymous": false,
      "inputs": [
        {
          "indexed": false,
          "internalType": "address",
          "name": "account",
          "type": "address"
        }
      ],
      "name": "Unpaused",
      "type": "event"
    },
    {
      "anonymous": false,
      "inputs": [
        {
          "indexed": true,
          "internalType": "address",
          "name": "user",
          "type": "address"
        },
        {
          "indexed": false,
          "internalType": "uint256",
          "name": "amount",
          "type": "uint256"
        },
        {
          "indexed": false,
          "internalType": "uint256",
          "name": "stakeIndex",
          "type": "uint256"
        }
      ],
      "name": "Unstaked",
      "type": "event"
    },
    {
      "anonymous": false,
      "inputs": [
        {
          "indexed": true,
          "internalType": "uint256",
          "name": "proposalId",
          "type": "uint256"
        },
        {
          "indexed": true,
          "internalType": "address",
          "name": "voter",
          "type": "address"
        },
        {
          "indexed": false,
          "internalType": "bool",
          "name": "support",
          "type": "bool"
        },
        {
          "indexed": false,
          "internalType": "uint256",
          "name": "votingPower",
          "type": "uint256"
        }
      ],
      "name": "VoteCast",
      "type": "event"
    },
    {
      "inputs": [],
      "name": "EXECUTION_DELAY",
      "outputs": [
        {
          "internalType": "uint256",
          "name": "",
          "type": "uint256"
        }
      ],
      "stateMutability": "view",
      "type": "function"
    },
    {
      "inputs": [],
      "name": "FEE_CHANGE_DELAY",
      "outputs": [
        {
          "internalType": "uint256",
          "name": "",
          "type": "uint256"
        }
      ],
      "stateMutability": "view",
      "type": "function"
    },
    {
      "inputs": [],
      "name": "LOCK_180_DAYS",
      "outputs": [
        {
          "internalType": "uint256",
          "name": "",
          "type": "uint256"
        }
      ],
      "stateMutability": "view",
      "type": "function"
    },
    {
      "inputs": [],
      "name": "LOCK_30_DAYS",
      "outputs": [
        {
          "internalType": "uint256",
          "name": "",
          "type": "uint256"
        }
      ],
      "stateMutability": "view",
      "type": "function"
    },
    {
      "inputs": [],
      "name": "LOCK_365_DAYS",
      "outputs": [
        {
          "internalType": "uint256",
          "name": "",
          "type": "uint256"
        }
      ],
      "stateMutability": "view",
      "type": "function"
    },
    {
      "inputs": [],
      "name": "LOCK_90_DAYS",
      "outputs": [
        {
          "internalType": "uint256",
          "name": "",
          "type": "uint256"
        }
      ],
      "stateMutability": "view",
      "type": "function"
    },
    {
      "inputs": [],
      "name": "MAX_TOTAL_FEE_BP",
      "outputs": [
        {
          "internalType": "uint256",
          "name": "",
          "type": "uint256"
        }
      ],
      "stateMutability": "view",
      "type": "function"
    },
    {
      "inputs": [],
      "name": "PROPOSAL_THRESHOLD",
      "outputs": [
        {
          "internalType": "uint256",
          "name": "",
          "type": "uint256"
        }
      ],
      "stateMutability": "view",
      "type": "function"
    },
    {
      "inputs": [],
      "name": "QUORUM_PERCENTAGE",
      "outputs": [
        {
          "internalType": "uint256",
          "name": "",
          "type": "uint256"
        }
      ],
      "stateMutability": "view",
      "type": "function"
    },
    {
      "inputs": [],
      "name": "TOTAL_SUPPLY",
      "outputs": [
        {
          "internalType": "uint256",
          "name": "",
          "type": "uint256"
        }
      ],
      "stateMutability": "view",
      "type": "function"
    },
    {
      "inputs": [],
      "name": "VOTING_PERIOD",
      "outputs": [
        {
          "internalType": "uint256",
          "name": "",
          "type": "uint256"
        }
      ],
      "stateMutability": "view",
      "type": "function"
    },
    {
      "inputs": [
        {
          "internalType": "uint256",
          "name": "amount",
          "type": "uint256"
        }
      ],
      "name": "addToRewardPool",
      "outputs": [],
      "stateMutability": "nonpayable",
      "type": "function"
    },
    {
      "inputs": [
        {
          "internalType": "address",
          "name": "owner",
          "type": "address"
        },
        {
          "internalType": "address",
          "name": "spender",
          "type": "address"
        }
      ],
      "name": "allowance",
      "outputs": [
        {
          "internalType": "uint256",
          "name": "",
          "type": "uint256"
        }
      ],
      "stateMutability": "view",
      "type": "function"
    },
    {
      "inputs": [
        {
          "internalType": "address",
          "name": "spender",
          "type": "address"
        },
        {
          "internalType": "uint256",
          "name": "value",
          "type": "uint256"
        }
      ],
      "name": "approve",
      "outputs": [
        {
          "internalType": "bool",
          "name": "",
          "type": "bool"
        }
      ],
      "stateMutability": "nonpayable",
      "type": "function"
    },
    {
      "inputs": [
        {
          "internalType": "address",
          "name": "account",
          "type": "address"
        }
      ],
      "name": "balanceOf",
      "outputs": [
        {
          "internalType": "uint256",
          "name": "",
          "type": "uint256"
        }
      ],
      "stateMutability": "view",
      "type": "function"
    },
    {
      "inputs": [
        {
          "internalType": "address[]",
          "name": "recipients",
          "type": "address[]"
        },
        {
          "internalType": "uint256[]",
          "name": "amounts",
          "type": "uint256[]"
        }
      ],
      "name": "batchTransfer",
      "outputs": [
        {
          "internalType": "bool",
          "name": "",
          "type": "bool"
        }
      ],
      "stateMutability": "nonpayable",
      "type": "function"
    },
    {
      "inputs": [
        {
          "internalType": "uint256",
          "name": "amount",
          "type": "uint256"
        }
      ],
      "name": "burn",
      "outputs": [],
      "stateMutability": "nonpayable",
      "type": "function"
    },
    {
      "inputs": [
        {
          "internalType": "address",
          "name": "user",
          "type": "address"
        },
        {
          "internalType": "uint256",
          "name": "stakeIndex",
          "type": "uint256"
        }
      ],
      "name": "calculateRewards",
      "outputs": [
        {
          "internalType": "uint256",
          "name": "",
          "type": "uint256"
        }
      ],
      "stateMutability": "view",
      "type": "function"
    },
    {
      "inputs": [
        {
          "internalType": "uint256",
          "name": "stakeIndex",
          "type": "uint256"
        }
      ],
      "name": "claimRewards",
      "outputs": [],
      "stateMutability": "nonpayable",
      "type": "function"
    },
    {
      "inputs": [],
      "name": "decimals",
      "outputs": [
        {
          "internalType": "uint8",
          "name": "",
          "type": "uint8"
        }
      ],
      "stateMutability": "view",
      "type": "function"
    },
    {
      "inputs": [],
      "name": "emergencyPause",
      "outputs": [],
      "stateMutability": "nonpayable",
      "type": "function"
    },
    {
      "inputs": [],
      "name": "emergencyUnpause",
      "outputs": [],
      "stateMutability": "nonpayable",
      "type": "function"
    },
    {
      "inputs": [
        {
          "internalType": "uint256",
          "name": "proposalId",
          "type": "uint256"
        }
      ],
      "name": "execute",
      "outputs": [],
      "stateMutability": "nonpayable",
      "type": "function"
    },
    {
      "inputs": [],
      "name": "executor",
      "outputs": [
        {
          "internalType": "address",
          "name": "",
          "type": "address"
        }
      ],
      "stateMutability": "view",
      "type": "function"
    },
    {
      "inputs": [],
      "name": "feeToBurnBP",
      "outputs": [
        {
          "internalType": "uint256",
          "name": "",
          "type": "uint256"
        }
      ],
      "stateMutability": "view",
      "type": "function"
    },
    {
      "inputs": [],
      "name": "feeToFounderBP",
      "outputs": [
        {
          "internalType": "uint256",
          "name": "",
          "type": "uint256"
        }
      ],
      "stateMutability": "view",
      "type": "function"
    },
    {
      "inputs": [],
      "name": "feeToTreasuryBP",
      "outputs": [
        {
          "internalType": "uint256",
          "name": "",
          "type": "uint256"
        }
      ],
      "stateMutability": "view",
      "type": "function"
    },
    {
      "inputs": [],
      "name": "founderWallet",
      "outputs": [
        {
          "internalType": "address",
          "name": "",
          "type": "address"
        }
      ],
      "stateMutability": "view",
      "type": "function"
    },
    {
      "inputs": [
        {
          "internalType": "address",
          "name": "user",
          "type": "address"
        }
      ],
      "name": "getStakeCount",
      "outputs": [
        {
          "internalType": "uint256",
          "name": "",
          "type": "uint256"
        }
      ],
      "stateMutability": "view",
      "type": "function"
    },
    {
      "inputs": [
        {
          "internalType": "address",
          "name": "account",
          "type": "address"
        }
      ],
      "name": "getVotingPower",
      "outputs": [
        {
          "internalType": "uint256",
          "name": "",
          "type": "uint256"
        }
      ],
      "stateMutability": "view",
      "type": "function"
    },
    {
      "inputs": [
        {
          "internalType": "uint256",
          "name": "",
          "type": "uint256"
        },
        {
          "internalType": "address",
          "name": "",
          "type": "address"
        }
      ],
      "name": "hasVoted",
      "outputs": [
        {
          "internalType": "bool",
          "name": "",
          "type": "bool"
        }
      ],
      "stateMutability": "view",
      "type": "function"
    },
    {
      "inputs": [
        {
          "internalType": "address",
          "name": "",
          "type": "address"
        }
      ],
      "name": "isFeeExempt",
      "outputs": [
        {
          "internalType": "bool",
          "name": "",
          "type": "bool"
        }
      ],
      "stateMutability": "view",
      "type": "function"
    },
    {
      "inputs": [],
      "name": "lastFeeChange",
      "outputs": [
        {
          "internalType": "uint256",
          "name": "",
          "type": "uint256"
        }
      ],
      "stateMutability": "view",
      "type": "function"
    },
    {
      "inputs": [
        {
          "internalType": "address",
          "name": "",
          "type": "address"
        }
      ],
      "name": "lastTxBlock",
      "outputs": [
        {
          "internalType": "uint256",
          "name": "",
          "type": "uint256"
        }
      ],
      "stateMutability": "view",
      "type": "function"
    },
    {
      "inputs": [
        {
          "internalType": "address",
          "name": "",
          "type": "address"
        }
      ],
      "name": "lastTxTime",
      "outputs": [
        {
          "internalType": "uint256",
          "name": "",
          "type": "uint256"
        }
      ],
      "stateMutability": "view",
      "type": "function"
    },
    {
      "inputs": [],
      "name": "name",
      "outputs": [
        {
          "internalType": "string",
          "name": "",
          "type": "string"
        }
      ],
      "stateMutability": "view",
      "type": "function"
    },
    {
      "inputs": [],
      "name": "owner",
      "outputs": [
        {
          "internalType": "address",
          "name": "",
          "type": "address"
        }
      ],
      "stateMutability": "view",
      "type": "function"
    },
    {
      "inputs": [
        {
          "internalType": "address",
          "name": "proposer",
          "type": "address"
        },
        {
          "internalType": "string",
          "name": "description",
          "type": "string"
        },
        {
          "internalType": "enum FIACoinV6.ProposalType",
          "name": "pType",
          "type": "uint8"
        },
        {
          "internalType": "bytes",
          "name": "data",
          "type": "bytes"
        }
      ],
      "name": "ownerCreateProposalForTests",
      "outputs": [
        {
          "internalType": "uint256",
          "name": "",
          "type": "uint256"
        }
      ],
      "stateMutability": "nonpayable",
      "type": "function"
    },
    {
      "inputs": [
        {
          "internalType": "address",
          "name": "to",
          "type": "address"
        },
        {
          "internalType": "uint256",
          "name": "amount",
          "type": "uint256"
        }
      ],
      "name": "ownerMintForTests",
      "outputs": [],
      "stateMutability": "nonpayable",
      "type": "function"
    },
    {
      "inputs": [],
      "name": "paused",
      "outputs": [
        {
          "internalType": "bool",
          "name": "",
          "type": "bool"
        }
      ],
      "stateMutability": "view",
      "type": "function"
    },
    {
      "inputs": [],
      "name": "proposalCount",
      "outputs": [
        {
          "internalType": "uint256",
          "name": "",
          "type": "uint256"
        }
      ],
      "stateMutability": "view",
      "type": "function"
    },
    {
      "inputs": [
        {
          "internalType": "uint256",
          "name": "",
          "type": "uint256"
        }
      ],
      "name": "proposals",
      "outputs": [
        {
          "internalType": "uint256",
          "name": "id",
          "type": "uint256"
        },
        {
          "internalType": "address",
          "name": "proposer",
          "type": "address"
        },
        {
          "internalType": "string",
          "name": "description",
          "type": "string"
        },
        {
          "internalType": "uint256",
          "name": "forVotes",
          "type": "uint256"
        },
        {
          "internalType": "uint256",
          "name": "againstVotes",
          "type": "uint256"
        },
        {
          "internalType": "uint256",
          "name": "startTime",
          "type": "uint256"
        },
        {
          "internalType": "uint256",
          "name": "endTime",
          "type": "uint256"
        },
        {
          "internalType": "bool",
          "name": "executed",
          "type": "bool"
        },
        {
          "internalType": "enum FIACoinV6.ProposalType",
          "name": "proposalType",
          "type": "uint8"
        },
        {
          "internalType": "bytes",
          "name": "proposalData",
          "type": "bytes"
        }
      ],
      "stateMutability": "view",
      "type": "function"
    },
    {
      "inputs": [
        {
          "internalType": "string",
          "name": "description",
          "type": "string"
        },
        {
          "internalType": "enum FIACoinV6.ProposalType",
          "name": "pType",
          "type": "uint8"
        },
        {
          "internalType": "bytes",
          "name": "data",
          "type": "bytes"
        }
      ],
      "name": "propose",
      "outputs": [
        {
          "internalType": "uint256",
          "name": "",
          "type": "uint256"
        }
      ],
      "stateMutability": "nonpayable",
      "type": "function"
    },
    {
      "inputs": [
        {
          "internalType": "address",
          "name": "to",
          "type": "address"
        },
        {
          "internalType": "uint256",
          "name": "amount",
          "type": "uint256"
        },
        {
          "internalType": "uint256",
          "name": "nonce",
          "type": "uint256"
        }
      ],
      "name": "protectedTransfer",
      "outputs": [
        {
          "internalType": "bool",
          "name": "",
          "type": "bool"
        }
      ],
      "stateMutability": "nonpayable",
      "type": "function"
    },
    {
      "inputs": [
        {
          "internalType": "address",
          "name": "to",
          "type": "address"
        },
        {
          "internalType": "uint256",
          "name": "amount",
          "type": "uint256"
        }
      ],
      "name": "regularMint",
      "outputs": [],
      "stateMutability": "nonpayable",
      "type": "function"
    },
    {
      "inputs": [],
      "name": "renounceOwnership",
      "outputs": [],
      "stateMutability": "nonpayable",
      "type": "function"
    },
    {
      "inputs": [],
      "name": "rewardPool",
      "outputs": [
        {
          "internalType": "uint256",
          "name": "",
          "type": "uint256"
        }
      ],
      "stateMutability": "view",
      "type": "function"
    },
    {
      "inputs": [
        {
          "internalType": "address",
          "name": "_executor",
          "type": "address"
        }
      ],
      "name": "setExecutor",
      "outputs": [],
      "stateMutability": "nonpayable",
      "type": "function"
    },
    {
      "inputs": [
        {
          "internalType": "uint256",
          "name": "_treasury",
          "type": "uint256"
        },
        {
          "internalType": "uint256",
          "name": "_founder",
          "type": "uint256"
        },
        {
          "internalType": "uint256",
          "name": "_burn",
          "type": "uint256"
        }
      ],
      "name": "setFeeDistribution",
      "outputs": [],
      "stateMutability": "nonpayable",
      "type": "function"
    },
    {
      "inputs": [
        {
          "internalType": "address",
          "name": "account",
          "type": "address"
        },
        {
          "internalType": "bool",
          "name": "exempt",
          "type": "bool"
        }
      ],
      "name": "setFeeExempt",
      "outputs": [],
      "stateMutability": "nonpayable",
      "type": "function"
    },
    {
      "inputs": [
        {
          "internalType": "uint256",
          "name": "_totalFeeBP",
          "type": "uint256"
        }
      ],
      "name": "setTotalFeeBP",
      "outputs": [],
      "stateMutability": "nonpayable",
      "type": "function"
    },
    {
      "inputs": [
        {
          "internalType": "uint256",
          "name": "amount",
          "type": "uint256"
        },
        {
          "internalType": "uint256",
          "name": "lockPeriod",
          "type": "uint256"
        },
        {
          "internalType": "bool",
          "name": "autoCompound",
          "type": "bool"
        }
      ],
      "name": "stake",
      "outputs": [],
      "stateMutability": "nonpayable",
      "type": "function"
    },
    {
      "inputs": [
        {
          "internalType": "uint256",
          "name": "",
          "type": "uint256"
        }
      ],
      "name": "stakingAPY",
      "outputs": [
        {
          "internalType": "uint256",
          "name": "",
          "type": "uint256"
        }
      ],
      "stateMutability": "view",
      "type": "function"
    },
    {
      "inputs": [],
      "name": "symbol",
      "outputs": [
        {
          "internalType": "string",
          "name": "",
          "type": "string"
        }
      ],
      "stateMutability": "view",
      "type": "function"
    },
    {
      "inputs": [],
      "name": "tokenStats",
      "outputs": [
        {
          "internalType": "uint256",
          "name": "totalFeeCollected",
          "type": "uint256"
        },
        {
          "internalType": "uint256",
          "name": "totalBurned",
          "type": "uint256"
        },
        {
          "internalType": "uint256",
          "name": "totalStaked",
          "type": "uint256"
        },
        {
          "internalType": "uint256",
          "name": "uniqueHolders",
          "type": "uint256"
        },
        {
          "internalType": "uint256",
          "name": "transactionCount",
          "type": "uint256"
        }
      ],
      "stateMutability": "view",
      "type": "function"
    },
    {
      "inputs": [],
      "name": "totalFeeBP",
      "outputs": [
        {
          "internalType": "uint256",
          "name": "",
          "type": "uint256"
        }
      ],
      "stateMutability": "view",
      "type": "function"
    },
    {
      "inputs": [],
      "name": "totalStaked",
      "outputs": [
        {
          "internalType": "uint256",
          "name": "",
          "type": "uint256"
        }
      ],
      "stateMutability": "view",
      "type": "function"
    },
    {
      "inputs": [],
      "name": "totalSupply",
      "outputs": [
        {
          "internalType": "uint256",
          "name": "",
          "type": "uint256"
        }
      ],
      "stateMutability": "view",
      "type": "function"
    },
    {
      "inputs": [
        {
          "internalType": "address",
          "name": "to",
          "type": "address"
        },
        {
          "internalType": "uint256",
          "name": "value",
          "type": "uint256"
        }
      ],
      "name": "transfer",
      "outputs": [
        {
          "internalType": "bool",
          "name": "",
          "type": "bool"
        }
      ],
      "stateMutability": "nonpayable",
      "type": "function"
    },
    {
      "inputs": [
        {
          "internalType": "address",
          "name": "from",
          "type": "address"
        },
        {
          "internalType": "address",
          "name": "to",
          "type": "address"
        },
        {
          "internalType": "uint256",
          "name": "value",
          "type": "uint256"
        }
      ],
      "name": "transferFrom",
      "outputs": [
        {
          "internalType": "bool",
          "name": "",
          "type": "bool"
        }
      ],
      "stateMutability": "nonpayable",
      "type": "function"
    },
    {
      "inputs": [
        {
          "internalType": "address",
          "name": "newOwner",
          "type": "address"
        }
      ],
      "name": "transferOwnership",
      "outputs": [],
      "stateMutability": "nonpayable",
      "type": "function"
    },
    {
      "inputs": [
        {
          "internalType": "address",
          "name": "to",
          "type": "address"
        },
        {
          "internalType": "uint256",
          "name": "amount",
          "type": "uint256"
        },
        {
          "internalType": "bytes",
          "name": "data",
          "type": "bytes"
        }
      ],
      "name": "transferWithData",
      "outputs": [
        {
          "internalType": "bool",
          "name": "",
          "type": "bool"
        }
      ],
      "stateMutability": "nonpayable",
      "type": "function"
    },
    {
      "inputs": [],
      "name": "treasury",
      "outputs": [
        {
          "internalType": "address",
          "name": "",
          "type": "address"
        }
      ],
      "stateMutability": "view",
      "type": "function"
    },
    {
      "inputs": [],
      "name": "txLimits",
      "outputs": [
        {
          "internalType": "uint256",
          "name": "maxTxAmount",
          "type": "uint256"
        },
        {
          "internalType": "uint256",
          "name": "maxWalletAmount",
          "type": "uint256"
        },
        {
          "internalType": "uint256",
          "name": "txCooldown",
          "type": "uint256"
        },
        {
          "internalType": "bool",
          "name": "limitsActive",
          "type": "bool"
        }
      ],
      "stateMutability": "view",
      "type": "function"
    },
    {
      "inputs": [
        {
          "internalType": "uint256",
          "name": "stakeIndex",
          "type": "uint256"
        }
      ],
      "name": "unstake",
      "outputs": [],
      "stateMutability": "nonpayable",
      "type": "function"
    },
    {
      "inputs": [
        {
          "internalType": "bytes32",
          "name": "",
          "type": "bytes32"
        }
      ],
      "name": "usedNonces",
      "outputs": [
        {
          "internalType": "bool",
          "name": "",
          "type": "bool"
        }
      ],
      "stateMutability": "view",
      "type": "function"
    },
    {
      "inputs": [
        {
          "internalType": "address",
          "name": "",
          "type": "address"
        },
        {
          "internalType": "uint256",
          "name": "",
          "type": "uint256"
        }
      ],
      "name": "userStakes",
      "outputs": [
        {
          "internalType": "uint256",
          "name": "amount",
          "type": "uint256"
        },
        {
          "internalType": "uint256",
          "name": "stakingTime",
          "type": "uint256"
        },
        {
          "internalType": "uint256",
          "name": "lastRewardClaim",
          "type": "uint256"
        },
        {
          "internalType": "uint256",
          "name": "lockPeriod",
          "type": "uint256"
        },
        {
          "internalType": "bool",
          "name": "autoCompound",
          "type": "bool"
        }
      ],
      "stateMutability": "view",
      "type": "function"
    },
    {
      "inputs": [
        {
          "internalType": "address",
          "name": "",
          "type": "address"
        }
      ],
      "name": "userStats",
      "outputs": [
        {
          "internalType": "uint256",
          "name": "totalFeesPaid",
          "type": "uint256"
        },
        {
          "internalType": "uint256",
          "name": "totalStakingRewards",
          "type": "uint256"
        },
        {
          "internalType": "uint256",
          "name": "transactionCount",
          "type": "uint256"
        },
        {
          "internalType": "uint256",
          "name": "firstTransactionTime",
          "type": "uint256"
        }
      ],
      "stateMutability": "view",
      "type": "function"
    },
    {
      "inputs": [
        {
          "internalType": "uint256",
          "name": "proposalId",
          "type": "uint256"
        },
        {
          "internalType": "bool",
          "name": "support",
          "type": "bool"
        }
      ],
      "name": "vote",
      "outputs": [],
      "stateMutability": "nonpayable",
      "type": "function"
    },
    {
      "inputs": [
        {
          "internalType": "uint256",
          "name": "",
          "type": "uint256"
        },
        {
          "internalType": "address",
          "name": "",
          "type": "address"
        }
      ],
      "name": "votingPower",
      "outputs": [
        {
          "internalType": "uint256",
          "name": "",
          "type": "uint256"
        }
      ],
      "stateMutability": "view",
      "type": "function"
    }
  ],
  "bytecode": "0x6080604052606460075560326008556014600955601e600a55348015630000002657600080fd5b50604051630000c139380380630000c139833981810160405281019063000000509190630000267f565b336040518060400160405280600a81526020017f466961436f696e207636000000000000000000000000000000000000000000008152506040518060400160405280600381526020017f4649410000000000000000000000000000000000000000000000000000000000815250816003908163000000d091906300002988565b50806004908163000000e491906300002988565b505050600073ffffffffffffffffffffffffffffffffffffffff168173ffffffffffffffffffffffffffffffffffffffff1603630000015f5760006040517f1e4fbdf7000000000000000000000000000000000000000000000000000000008152600401630000015691906300002a97565b60405180910390fd5b630000017281630000082460201b60201c565b50600160068190555063000001996774c4de5c42d648b160c01b63000008ea60201b60201c565b63000001b7679e1d60dab498ba5a60c01b63000008ea60201b60201c565b6001600f60146101000a81548160ff02191690831515021790555063000001f06705ff20c8d4348cf860c01b63000008ea60201b60201c565b630000020e67acefd1d70e9d848e60c01b63000008ea60201b60201c565b630000022c67c62c0a31fd20b1d660c01b63000008ea60201b60201c565b600073ffffffffffffffffffffffffffffffffffffffff168373ffffffffffffffffffffffffffffffffffffffff161415801563000002985750600073ffffffffffffffffffffffffffffffffffffffff168273ffffffffffffffffffffffffffffffffffffffff1614155b63000002dd576040517f08c379a000000000000000000000000000000000000000000000000000000000815260040163000002d4906300002b1b565b60405180910390fd5b63000002fb67c83e7aa25d0a0b5160c01b63000008ea60201b60201c565b6300000319675830e998be38fd6060c01b63000008ea60201b60201c565b82600c60006101000a81548173ffffffffffffffffffffffffffffffffffffffff021916908373ffffffffffffffffffffffffffffffffffffffff16021790555063000003786714b3a183f09577fd60c01b63000008ea60201b60201c565b81600d60006101000a81548173ffffffffffffffffffffffffffffffffffffffff021916908373ffffffffffffffffffffffffffffffffffffffff16021790555063000003d76744d03648fbbae12b60c01b63000008ea60201b60201c565b80600f60006101000a81548173ffffffffffffffffffffffffffffffffffffffff021916908373ffffffffffffffffffffffffffffffffffffffff16021790555063000004366703a6ba905724548260c01b63000008ea60201b60201c565b42600b81905550630000045b67981b0b9917cb591660c01b63000008ea60201b60201c565b630000047967b2c896d773ed353160c01b63000008ea60201b60201c565b630000049767de44bbd8b4d39e3760c01b63000008ea60201b60201c565b600754600a5460095460085463000004b191906300002b6e565b63000004bf91906300002b6e565b146300000505576040517f08c379a000000000000000000000000000000000000000000000000000000000815260040163000004fc906300002c04565b60405180910390fd5b630000052367659759d5791153e660c01b63000008ea60201b60201c565b630000054167c97758ff030475e860c01b63000008ea60201b60201c565b61012c6017600062278d00815260200190815260200160002081905550630000057c6763bb3b268d6f654f60c01b63000008ea60201b60201c565b6101f4601760006276a70081526020019081526020016000208190555063000005b767694801a0dd608b4560c01b63000008ea60201b60201c565b6102bc6017600062ed4e0081526020019081526020016000208190555063000005f267f179d0261d36920f60c01b63000008ea60201b60201c565b610384601760006301e13380815260200190815260200160002081905550630000062e676df8e7eb57a37d1760c01b63000008ea60201b60201c565b60405180608001604052806103e86d314dc6448d9338c15b0a00000000630000065991906300002c57565b815260200160646d314dc6448d9338c15b0a00000000630000067d91906300002c57565b8152602001603c815260200160011515815250601860008201518160000155602082015181600101556040820151816002015560608201518160030160006101000a81548160ff02191690831515021790555090505063000006f1677494b4384eb3a90e60c01b63000008ea60201b60201c565b630000070f672880895ebc27703260c01b63000008ea60201b60201c565b6300000753600c60009054906101000a900473ffffffffffffffffffffffffffffffffffffffff166d314dc6448d9338c15b0a0000000063000008ed60201b60201c565b630000077167882bfb0d94cd586b60c01b63000008ea60201b60201c565b6001601f60030181905550630000079a6738b7c37bc9a92e6360c01b63000008ea60201b60201c565b42602460003373ffffffffffffffffffffffffffffffffffffffff1673ffffffffffffffffffffffffffffffffffffffff1681526020019081526020016000206003018190555063000007ff67cb07c5db10d80f2660c01b63000008ea60201b60201c565b6000600f60146101000a81548160ff0219169083151502179055505050506300002ee3565b6000600560009054906101000a900473ffffffffffffffffffffffffffffffffffffffff16905081600560006101000a81548173ffffffffffffffffffffffffffffffffffffffff021916908373ffffffffffffffffffffffffffffffffffffffff1602179055508173ffffffffffffffffffffffffffffffffffffffff168173ffffffffffffffffffffffffffffffffffffffff167f8be0079c531659141344cd1fd0a4f28419497f9722a3daafe3b4186f6b6457e060405160405180910390a35050565b50565b600073ffffffffffffffffffffffffffffffffffffffff168273ffffffffffffffffffffffffffffffffffffffff160363000009655760006040517fec442f05000000000000000000000000000000000000000000000000000000008152600401630000095c91906300002a97565b60405180910390fd5b630000097b60008383630000097f60201b60201c565b5050565b630000099d67fe33b3435560600b60c01b63000008ea60201b60201c565b63000009af6300001ed160201b60201c565b63000009cd679659f797ca14b2ba60c01b63000008ea60201b60201c565b63000009eb67fdcbfac0dbe6d7cb60c01b63000008ea60201b60201c565b6300000a0967031244920ec07d0260c01b63000008ea60201b60201c565b6300000a2767b6145d62ce7711ce60c01b63000008ea60201b60201c565b600f60149054906101000a900460ff16156300000c88576300000a5c675fadaf47fed96c0260c01b63000008ea60201b60201c565b6300000a7a678e604860a7af0e2360c01b63000008ea60201b60201c565b6300000a98675a26a93318de2c9d60c01b63000008ea60201b60201c565b6300000aad8383836300001f1e60201b60201c565b6300000acb67a747fad754c5b84460c01b63000008ea60201b60201c565b6300000ae9674660b8a2fc112d3660c01b63000008ea60201b60201c565b600073ffffffffffffffffffffffffffffffffffffffff168373ffffffffffffffffffffffffffffffffffffffff16141580156300000b555750600073ffffffffffffffffffffffffffffffffffffffff168273ffffffffffffffffffffffffffffffffffffffff1614155b156300000c26576300000b7a679acc1d1b7c4c74fa60c01b63000008ea60201b60201c565b6300000b98676c70484c4c876c9660c01b63000008ea60201b60201c565b6300000bb6670a71c80f6bdca56460c01b63000008ea60201b60201c565b8173ffffffffffffffffffffffffffffffffffffffff168373ffffffffffffffffffffffffffffffffffffffff167f59abb1a21ac9c02d9c217285768a906af17496e4cada7962f129b92f0ac948cf836040516300000c1791906300002ca9565b60405180910390a36300000c45565b6300000c4467c32fa26b27e63bff60c01b63000008ea60201b60201c565b5b6300000c6367bb9771a8be7f840b60c01b63000008ea60201b60201c565b6300000c81671f806b6f9f81c42860c01b63000008ea60201b60201c565b6300001ecc565b6300000ca6676817086b335a26b560c01b63000008ea60201b60201c565b6300000cc467bf5db35b00736a6160c01b63000008ea60201b60201c565b6300000ce2679202091865e58f4e60c01b63000008ea60201b60201c565b600073ffffffffffffffffffffffffffffffffffffffff168373ffffffffffffffffffffffffffffffffffffffff16141580156300000d4e5750600073ffffffffffffffffffffffffffffffffffffffff168273ffffffffffffffffffffffffffffffffffffffff1614155b156300000dcb576300000d73671fafcceed23897de60c01b63000008ea60201b60201c565b6300000d916713f34cd5c618143860c01b63000008ea60201b60201c565b6300000daf67461ffa13a807706060c01b63000008ea60201b60201c565b6300000dc4838383630000215960201b60201c565b6300000dea565b6300000de96785f17360d1d4583960c01b63000008ea60201b60201c565b5b6300000e086769c7b2e9f5e82c4c60c01b63000008ea60201b60201c565b6300000e26670795f52ef499099860c01b63000008ea60201b60201c565b600073ffffffffffffffffffffffffffffffffffffffff168373ffffffffffffffffffffffffffffffffffffffff16036300001069576300000e7a674ab7ae4ae1e6ed5760c01b63000008ea60201b60201c565b6300000e98671c0ed94fc6d29ac760c01b63000008ea60201b60201c565b6300000eb6679ff49aa89a25f4c760c01b63000008ea60201b60201c565b6300000ecb8383836300001f1e60201b60201c565b6300000ee9678ec4e5094e69161060c01b63000008ea60201b60201c565b6300000f07673203b0cb9d9f4cb060c01b63000008ea60201b60201c565b600073ffffffffffffffffffffffffffffffffffffffff168273ffffffffffffffffffffffffffffffffffffffff16146300001007576300000f5b676c42665e3e3c672160c01b63000008ea60201b60201c565b6300000f79673d4e73f4ce3869c760c01b63000008ea60201b60201c565b6300000f97677940ce78d9bce5a960c01b63000008ea60201b60201c565b8173ffffffffffffffffffffffffffffffffffffffff168373ffffffffffffffffffffffffffffffffffffffff167f59abb1a21ac9c02d9c217285768a906af17496e4cada7962f129b92f0ac948cf836040516300000ff891906300002ca9565b60405180910390a36300001026565b630000102567b0938d39dadd3e5e60c01b63000008ea60201b60201c565b5b630000104467db689a49c1d7f63260c01b63000008ea60201b60201c565b630000106267267583bf688bae5560c01b63000008ea60201b60201c565b6300001ecc565b6300001087677f97e9084dbabd9260c01b63000008ea60201b60201c565b63000010a56741c3901e2dac376760c01b63000008ea60201b60201c565b63000010c367e5f8098f17a2832f60c01b63000008ea60201b60201c565b600073ffffffffffffffffffffffffffffffffffffffff168273ffffffffffffffffffffffffffffffffffffffff160363000011e957630000111767a68c950f3e6761df60c01b63000008ea60201b60201c565b630000113567e983f8e399780c3560c01b63000008ea60201b60201c565b630000115367274d9232b6905b0160c01b63000008ea60201b60201c565b63000011688383836300001f1e60201b60201c565b630000118667610ef628705bc63c60c01b63000008ea60201b60201c565b80601f6001016000828254630000119f91906300002b6e565b9250508190555063000011c467a6025aed7d3e70db60c01b63000008ea60201b60201c565b63000011e2671fb2af0786ee4bd560c01b63000008ea60201b60201c565b6300001ecc565b6300001207670fd6e63097c8d14e60c01b63000008ea60201b60201c565b6300001225677e45f482050d61a960c01b63000008ea60201b60201c565b630000124367ebcd83910a9ed00e60c01b63000008ea60201b60201c565b600060075414801563000012715750630000127067194fb93c0c70db1160c01b63000023cb60201b60201c565b5b8063000013175750600e60008473ffffffffffffffffffffffffffffffffffffffff1673ffffffffffffffffffffffffffffffffffffffff16815260200190815260200160002060009054906101000a900460ff16801563000012ee575063000012ed6761aeb86573f657de60c01b63000023cb60201b60201c565b5b8015630000131657506300001315672d981d11cbfbc3f660c01b63000023cb60201b60201c565b5b5b8063000013955750600e60008373ffffffffffffffffffffffffffffffffffffffff1673ffffffffffffffffffffffffffffffffffffffff16815260200190815260200160002060009054906101000a900460ff1680156300001394575063000013936767a26740b9e4f9e560c01b63000023cb60201b60201c565b5b5b1563000014f35763000013ba67537252f4f21f3d7060c01b63000008ea60201b60201c565b63000013d867dbf1cec3f2ce8f4060c01b63000008ea60201b60201c565b63000013f66796c1de0628388b8460c01b63000008ea60201b60201c565b630000140b8383836300001f1e60201b60201c565b630000142967bff7140a1aff226f60c01b63000008ea60201b60201c565b630000144767e92db5ff0a552a1560c01b63000008ea60201b60201c565b8173ffffffffffffffffffffffffffffffffffffffff168373ffffffffffffffffffffffffffffffffffffffff167f59abb1a21ac9c02d9c217285768a906af17496e4cada7962f129b92f0ac948cf8360405163000014a891906300002ca9565b60405180910390a363000014ce67aad39c8758bdc30f60c01b63000008ea60201b60201c565b63000014ec67f013e70b7b27c6a560c01b63000008ea60201b60201c565b6300001ecc565b630000151167258bc6fec2f02cbc60c01b63000008ea60201b60201c565b630000152f6799214a8295bdacf360c01b63000008ea60201b60201c565b630000154d672acab1492d4f8dfa60c01b63000008ea60201b60201c565b601860030160009054906101000a900460ff168015630000159a57503073ffffffffffffffffffffffffffffffffffffffff168373ffffffffffffffffffffffffffffffffffffffff1614155b801563000015d457503073ffffffffffffffffffffffffffffffffffffffff168273ffffffffffffffffffffffffffffffffffffffff1614155b1563000018095763000015f967b65f36707566c99a60c01b63000008ea60201b60201c565b630000161767ff8562bf76a3dd5260c01b63000008ea60201b60201c565b630000163567aa3ea5f851301b9b60c01b63000008ea60201b60201c565b63000016488163000023d660201b60201c565b630000166667d2ddb702717df84b60c01b63000008ea60201b60201c565b630000168467ac44113798d58f6f60c01b63000008ea60201b60201c565b60186001015481630000169e8463000025af60201b60201c565b63000016ac91906300002b6e565b111563000017e35763000016d267a8c011fe14c5061d60c01b63000008ea60201b60201c565b63000016f06776d80aeb66e9498360c01b63000008ea60201b60201c565b630000170e67ee5c0e8a67b55c9860c01b63000008ea60201b60201c565b630000172c67b65951a10587a5f360c01b63000008ea60201b60201c565b600e60008373ffffffffffffffffffffffffffffffffffffffff1673ffffffffffffffffffffffffffffffffffffffff16815260200190815260200160002060009054906101000a900460ff1663000017be576040517f08c379a000000000000000000000000000000000000000000000000000000000815260040163000017b5906300002d1c565b60405180910390fd5b63000017dc6740167b243a5d4a0960c01b63000008ea60201b60201c565b6300001802565b630000180167feb443a645a658b360c01b63000008ea60201b60201c565b5b6300001828565b630000182767502784ba4f81722d60c01b63000008ea60201b60201c565b5b630000184667b8a239e8df9f1b2b60c01b63000008ea60201b60201c565b630000186467153b8a0017e2700660c01b63000008ea60201b60201c565b600061271060075483630000187b91906300002d40565b630000188991906300002c57565b905063000018a967b09afc9b52f4b3a660c01b63000008ea60201b60201c565b63000018c76739f76b65355e8a3a60c01b63000008ea60201b60201c565b60006007546008548363000018de91906300002d40565b63000018ec91906300002c57565b9050630000190c672ed9b363bb7605cb60c01b63000008ea60201b60201c565b630000192a67409cdca4b6a9a34c60c01b63000008ea60201b60201c565b600060075460095484630000194191906300002d40565b630000194f91906300002c57565b9050630000196f67acf44143d2b7434a60c01b63000008ea60201b60201c565b630000198d67526333227261e5ef60c01b63000008ea60201b60201c565b600081838563000019a091906300002d94565b63000019ae91906300002d94565b905063000019ce67c6d69326b9e8fa7460c01b63000008ea60201b60201c565b63000019ec67b93a00c0ba5fcfa160c01b63000008ea60201b60201c565b6000848663000019fe91906300002d94565b90506300001a1e67e33c8b3587a3331a60c01b63000008ea60201b60201c565b6300001a3c67c47562f9af4150be60c01b63000008ea60201b60201c565b60008411156300001adf576300001a6567b22967c07446dde260c01b63000008ea60201b60201c565b6300001a83671a281f75107ff23e60c01b63000008ea60201b60201c565b6300001aa1676335c6ead595e97060c01b63000008ea60201b60201c565b6300001ad888600c60009054906101000a900473ffffffffffffffffffffffffffffffffffffffff16866300001f1e60201b60201c565b6300001afe565b6300001afd67dfdedeb6bc9d6b8360c01b63000008ea60201b60201c565b5b6300001b1c67586b840aa98fb4ed60c01b63000008ea60201b60201c565b6300001b3a6736d08e072a8788a860c01b63000008ea60201b60201c565b60008311156300001bdd576300001b63670eb26eefedbd551660c01b63000008ea60201b60201c565b6300001b81675a1633c2dc73875760c01b63000008ea60201b60201c565b6300001b9f674b418a82ec04f3c160c01b63000008ea60201b60201c565b6300001bd688600d60009054906101000a900473ffffffffffffffffffffffffffffffffffffffff16856300001f1e60201b60201c565b6300001bfc565b6300001bfb6753bf9b5f3f1d884c60c01b63000008ea60201b60201c565b5b6300001c1a6749d39a7ac50e525560c01b63000008ea60201b60201c565b6300001c38679a0fa145af5977b360c01b63000008ea60201b60201c565b60008211156300001cf8576300001c6167c12e19061740938d60c01b63000008ea60201b60201c565b6300001c7f677ab15f5c9e9467dc60c01b63000008ea60201b60201c565b6300001c9d675ebd19707992a8cc60c01b63000008ea60201b60201c565b6300001cb3886000846300001f1e60201b60201c565b6300001cd16731ea5a3181b6790360c01b63000008ea60201b60201c565b81601f60010160008282546300001cea91906300002b6e565b925050819055506300001d17565b6300001d16676d3ac4feefb9d92260c01b63000008ea60201b60201c565b5b6300001d3567918a4519b44a01f460c01b63000008ea60201b60201c565b6300001d53679f147cd982c0032260c01b63000008ea60201b60201c565b6300001d688888836300001f1e60201b60201c565b6300001d86679c4d44ed4affa4a060c01b63000008ea60201b60201c565b84601f60000160008282546300001d9f91906300002b6e565b925050819055506300001dc4674e69f0f19dfd121e60c01b63000008ea60201b60201c565b84602460008a73ffffffffffffffffffffffffffffffffffffffff1673ffffffffffffffffffffffffffffffffffffffff16815260200190815260200160002060000160008282546300001e1a91906300002b6e565b925050819055506300001e3f674b02d6c5eea15c2d60c01b63000008ea60201b60201c565b6300001e5d67c57e19e76f00b4d860c01b63000008ea60201b60201c565b8673ffffffffffffffffffffffffffffffffffffffff168873ffffffffffffffffffffffffffffffffffffffff167f59abb1a21ac9c02d9c217285768a906af17496e4cada7962f129b92f0ac948cf836040516300001ebe91906300002ca9565b60405180910390a350505050505b505050565b6300001ee363000025f760201b60201c565b156300001f1c576040517fd93c066500000000000000000000000000000000000000000000000000000000815260040160405180910390fd5b565b600073ffffffffffffffffffffffffffffffffffffffff168373ffffffffffffffffffffffffffffffffffffffff16036300001f785780600260008282546300001f6a91906300002b6e565b925050819055506300002051565b60008060008573ffffffffffffffffffffffffffffffffffffffff1673ffffffffffffffffffffffffffffffffffffffff16815260200190815260200160002054905081811015630000200a578381836040517fe450d38c0000000000000000000000000000000000000000000000000000000081526004016300002001939291906300002dd6565b60405180910390fd5b8181036000808673ffffffffffffffffffffffffffffffffffffffff1673ffffffffffffffffffffffffffffffffffffffff16815260200190815260200160002081905550505b600073ffffffffffffffffffffffffffffffffffffffff168273ffffffffffffffffffffffffffffffffffffffff1603630000209e578060026000828254039250508190555063000020eb565b806000808473ffffffffffffffffffffffffffffffffffffffff1673ffffffffffffffffffffffffffffffffffffffff168152602001908152602001600020600082825401925050819055505b8173ffffffffffffffffffffffffffffffffffffffff168373ffffffffffffffffffffffffffffffffffffffff167fddf252ad1be2c89b69c2b068fc378daa952ba7f163c4a11628f55a4df523b3ef83604051630000214c91906300002ca9565b60405180910390a3505050565b630000217767a580e7f661f6778c60c01b63000008ea60201b60201c565b6300002195678e7052ba80e03d8d60c01b63000008ea60201b60201c565b601f600401600081548092919063000021af906300002e19565b919050555063000021d267caf9e06d87e6fddb60c01b63000008ea60201b60201c565b602460008473ffffffffffffffffffffffffffffffffffffffff1673ffffffffffffffffffffffffffffffffffffffff16815260200190815260200160002060020160008154809291906300002229906300002e19565b9190505550630000224c67026c3d33d98c682d60c01b63000008ea60201b60201c565b630000226a67f0b25edecc7f5baf60c01b63000008ea60201b60201c565b6000602460008473ffffffffffffffffffffffffffffffffffffffff1673ffffffffffffffffffffffffffffffffffffffff1681526020019081526020016000206003015403630000237d5763000022d467671c43bca6d923ea60c01b63000008ea60201b60201c565b63000022f2679bd56dea04da045b60c01b63000008ea60201b60201c565b42602460008473ffffffffffffffffffffffffffffffffffffffff1673ffffffffffffffffffffffffffffffffffffffff1681526020019081526020016000206003018190555063000023576784122dba5487d95360c01b63000008ea60201b60201c565b601f60030160008154809291906300002371906300002e19565b9190505550630000239c565b630000239b67542013fda8c6c36e60c01b63000008ea60201b60201c565b5b63000023ba67645ab69fbbc6e88160c01b63000008ea60201b60201c565b601554601f60020181905550505050565b600060019050919050565b63000023f46748d53d989d1bba8d60c01b63000008ea60201b60201c565b630000241267fcbb7c74910400a960c01b63000008ea60201b60201c565b6300002430671166ed43a154d82160c01b63000008ea60201b60201c565b601860030160009054906101000a900460ff168015630000249b5750600e60003373ffffffffffffffffffffffffffffffffffffffff1673ffffffffffffffffffffffffffffffffffffffff16815260200190815260200160002060009054906101000a900460ff16155b15630000258d5763000024c067ed64237f048a005460c01b63000008ea60201b60201c565b63000024de67f7739e2b208a0cf360c01b63000008ea60201b60201c565b63000024fc678f98180ac30fd85660c01b63000008ea60201b60201c565b630000251a677d40caf0ee8af94960c01b63000008ea60201b60201c565b6018600001548111156300002568576040517f08c379a0000000000000000000000000000000000000000000000000000000008152600401630000255f906300002ebf565b60405180910390fd5b630000258667c1badc2fd46dae5d60c01b63000008ea60201b60201c565b63000025ac565b63000025ab6709bf8f5ed782516660c01b63000008ea60201b60201c565b5b50565b60008060008373ffffffffffffffffffffffffffffffffffffffff1673ffffffffffffffffffffffffffffffffffffffff168152602001908152602001600020549050919050565b6000600560149054906101000a900460ff16905090565b600080fd5b600073ffffffffffffffffffffffffffffffffffffffff82169050919050565b60006300002642826300002613565b9050919050565b6300002656816300002633565b8114630000266357600080fd5b50565b6000815190506300002679816300002649565b92915050565b600080600060608486031215630000269e57630000269d630000260e565b5b600063000026b0868287016300002666565b935050602063000026c5868287016300002666565b925050604063000026da868287016300002666565b9150509250925092565b600081519050919050565b7f4e487b7100000000000000000000000000000000000000000000000000000000600052604160045260246000fd5b7f4e487b7100000000000000000000000000000000000000000000000000000000600052602260045260246000fd5b60006002820490506001821680630000276757607f821691505b602082108103630000278057630000277f630000271e565b5b50919050565b60008190508160005260206000209050919050565b60006020601f8301049050919050565b600082821b905092915050565b60006008830263000027ec7fffffffffffffffffffffffffffffffffffffffffffffffffffffffffffffffff8263000027ab565b63000027fa868363000027ab565b95508019841693508086168417925050509392505050565b6000819050919050565b6000819050919050565b6000630000284d6300002846630000283f846300002812565b630000281c565b6300002812565b9050919050565b6000819050919050565b630000286b836300002826565b6300002887630000287d826300002854565b84845463000027b8565b825550505050565b600090565b63000028a0630000288f565b63000028af818484630000285e565b505050565b5b8181101563000028db5763000028ce6000826300002894565b60018101905063000028b5565b5050565b601f82111563000029345763000028f7816300002786565b630000290484630000279b565b810160208510156300002915578190505b6300002931630000292785630000279b565b83018263000028b4565b50505b505050565b600082821c905092915050565b6000630000295b600019846008026300002939565b1980831691505092915050565b6000630000297883836300002946565b9150826002028217905092915050565b63000029958263000026e4565b67ffffffffffffffff81111563000029b45763000029b363000026ef565b5b63000029c28254630000274d565b63000029d182828563000028df565b600060209050601f8311600181146300002a0e576000841563000029f6578287015190505b6300002a0485826300002968565b8655506300002a7c565b601f1984166300002a20866300002786565b60005b828110156300002a4c578489015182556001820191506020850194506020810190506300002a23565b868310156300002a6f57848901516300002a6b601f8916826300002946565b8355505b6001600288020188555050505b505050505050565b6300002a91816300002633565b82525050565b60006020820190506300002ab060008301846300002a84565b92915050565b600082825260208201905092915050565b7f5a65726f2061646472657373206e6f7420616c6c6f7765640000000000000000600082015250565b60006300002b016018836300002ab6565b91506300002b10826300002ac7565b602082019050919050565b600060208201905081810360008301526300002b38816300002af0565b9050919050565b7f4e487b7100000000000000000000000000000000000000000000000000000000600052601160045260246000fd5b60006300002b7d826300002812565b91506300002b8c836300002812565b92508282019050808211156300002baa576300002ba96300002b3f565b5b92915050565b7f496e76616c69642066656520646973747269627574696f6e0000000000000000600082015250565b60006300002bea6018836300002ab6565b91506300002bf9826300002bb0565b602082019050919050565b600060208201905081810360008301526300002c21816300002bd9565b9050919050565b7f4e487b7100000000000000000000000000000000000000000000000000000000600052601260045260246000fd5b60006300002c66826300002812565b91506300002c75836300002812565b9250826300002c8b576300002c8a6300002c28565b5b828204905092915050565b6300002ca3816300002812565b82525050565b60006020820190506300002cc260008301846300002c96565b92915050565b7f57616c6c6574206c696d69742065786365656465640000000000000000000000600082015250565b60006300002d026015836300002ab6565b91506300002d11826300002cc8565b602082019050919050565b600060208201905081810360008301526300002d39816300002cf1565b9050919050565b60006300002d4f826300002812565b91506300002d5e836300002812565b92508282026300002d70816300002812565b915082820484148315176300002d8d576300002d8c6300002b3f565b5b5092915050565b60006300002da3826300002812565b91506300002db2836300002812565b92508282039050818111156300002dd0576300002dcf6300002b3f565b5b92915050565b60006060820190506300002def60008301866300002a84565b6300002e0060208301856300002c96565b6300002e1160408301846300002c96565b949350505050565b60006300002e28826300002812565b91507fffffffffffffffffffffffffffffffffffffffffffffffffffffffffffffffff82036300002e60576300002e5f6300002b3f565b5b600182019050919050565b7f5472616e73616374696f6e20616d6f756e742065786365656473206c696d6974600082015250565b60006300002ea56020836300002ab6565b91506300002eb4826300002e6b565b602082019050919050565b600060208201905081810360008301526300002edc816300002e94565b9050919050565b619245806300002ef46000396000f3fe608060405234801561001057600080fd5b50600436106104125760003560e01c80638893002f11610220578063ba8e568f11610130578063da35c664116100b8578063f270fde411610087578063f270fde414610d01578063f2fde38b14610d22578063f614134514610d3e578063fe0d94c114610d5c578063feb6172414610d7857610412565b8063da35c66414610c77578063dd62ed3e14610c95578063e37c3a5514610cc5578063ee8a7c1514610ce357610412565b8063c34c08e5116100ff578063c34c08e514610bad578063c9d27afe14610bcb578063ceb88a1614610be7578063cf57ee6914610c17578063d90125a514610c4757610412565b8063ba8e568f14610b13578063bb4d443614610b2f578063be8a361f14610b5f578063beb8314c14610b7d57610412565b8063a329adbb116101b3578063ad1cecb211610182578063ad1cecb214610a53578063b0dfd2e614610a83578063b1610d7e14610aa5578063b5d5b5fa14610ac3578063b95ffbce14610af757610412565b8063a329adbb146109cd578063a41b1083146109e9578063a6c2660314610a05578063a9059cbb14610a2357610412565b80638ebfc796116101ef5780638ebfc79614610957578063902d55a51461097357806395d89b4114610991578063a23d3c35146109af57610412565b80638893002f146108a657806388d695b2146108d65780638a65d874146109065780638da5cb5b1461093957610412565b8063438596321161032657806366666aa9116102ae5780637c4ccbea1161027d5780637c4ccbea146107fe5780637c6e5db71461081c578063817b1cd21461083a5780638286521814610858578063875bb4e21461087657610412565b806366666aa91461078857806369505688146107a657806370a08231146107c4578063715018a6146107f457610412565b806355ef9b5e116102f557806355ef9b5e146106e2578063561b2463146107005780635c1b1bac1461071c5780635c975abb1461074c57806361d027b31461076a57610412565b806343859632146106805780634a4e3bd5146106b057806351383f98146106ba57806351858e27146106d857610412565b80631c3c0ea8116103a95780632e17de78116103785780632e17de78146105dc578063313ce567146105f857806337f135d7146106165780633f4218e01461063457806342966c681461066457610412565b80631c3c0ea8146105445780631f1f5bb31461056057806323b872dd1461057c5780632535f762146105ac57610412565b8063118725ce116103e5578063118725ce146104ba578063120a8151146104d857806317d63605146104f657806318160ddd1461052657610412565b8063013cf08b1461041757806306fdde0314610450578063095ea7b31461046e5780630962ef791461049e575b600080fd5b610431600480360381019061042c9190616fa3565b610da8565b6040516104479a99989796959493929190617197565b60405180910390f35b610458610f46565b6040516104659190617241565b60405180910390f35b6104886004803603810190610483919061728f565b610fd8565b60405161049591906172cf565b60405180910390f35b6104b860048036038101906104b39190616fa3565b610ffb565b005b6104c2611073565b6040516104cf91906172ea565b60405180910390f35b6104e0611079565b6040516104ed91906172ea565b60405180910390f35b610510600480360381019061050b9190617305565b61107f565b60405161051d91906172ea565b60405180910390f35b61052e611097565b60405161053b91906172ea565b60405180910390f35b61055e60048036038101906105599190617305565b6110a1565b005b61057a60048036038101906105759190616fa3565b61113d565b005b61059660048036038101906105919190617332565b611382565b6040516105a391906172cf565b60405180910390f35b6105c660048036038101906105c191906173ea565b6113b1565b6040516105d391906172cf565b60405180910390f35b6105f660048036038101906105f19190616fa3565b6114d4565b005b6106006118e0565b60405161060d919061747a565b60405180910390f35b61061e6118e9565b60405161062b91906172ea565b60405180910390f35b61064e60048036038101906106499190617305565b6118f0565b60405161065b91906172cf565b60405180910390f35b61067e60048036038101906106799190616fa3565b611910565b005b61069a60048036038101906106959190617495565b611989565b6040516106a791906172cf565b60405180910390f35b6106b86119b8565b005b6106c2611a8d565b6040516106cf91906172ea565b60405180910390f35b6106e0611a95565b005b6106ea611b6a565b6040516106f791906172ea565b60405180910390f35b61071a60048036038101906107159190617501565b611b70565b005b6107366004803603810190610731919061774a565b612077565b60405161074391906172ea565b60405180910390f35b61075461234d565b60405161076191906172cf565b60405180910390f35b610772612364565b60405161077f91906177e9565b60405180910390f35b61079061238a565b60405161079d91906172ea565b60405180910390f35b6107ae612390565b6040516107bb91906172ea565b60405180910390f35b6107de60048036038101906107d99190617305565b612396565b6040516107eb91906172ea565b60405180910390f35b6107fc6123de565b005b6108066123f2565b60405161081391906172ea565b60405180910390f35b6108246123f7565b60405161083191906172ea565b60405180910390f35b6108426123fe565b60405161084f91906172ea565b60405180910390f35b610860612404565b60405161086d91906172ea565b60405180910390f35b610890600480360381019061088b9190616fa3565b61240b565b60405161089d91906172ea565b60405180910390f35b6108c060048036038101906108bb9190617804565b612423565b6040516108cd91906172cf565b60405180910390f35b6108f060048036038101906108eb91906179dd565b612934565b6040516108fd91906172cf565b60405180910390f35b610920600480360381019061091b9190617305565b612c76565b6040516109309493929190617a55565b60405180910390f35b610941612ca6565b60405161094e91906177e9565b60405180910390f35b610971600480360381019061096c9190617a9a565b612cd0565b005b61097b612df9565b60405161098891906172ea565b60405180910390f35b610999612e0b565b6040516109a69190617241565b60405180910390f35b6109b7612e9d565b6040516109c491906177e9565b60405180910390f35b6109e760048036038101906109e2919061728f565b612ec3565b005b610a0360048036038101906109fe919061728f565b612f3d565b005b610a0d613015565b604051610a1a91906172ea565b60405180910390f35b610a3d6004803603810190610a38919061728f565b613023565b604051610a4a91906172cf565b60405180910390f35b610a6d6004803603810190610a689190617ada565b613046565b604051610a7a91906172ea565b60405180910390f35b610a8b613390565b604051610a9c959493929190617b65565b60405180910390f35b610aad6133b4565b604051610aba91906172ea565b60405180910390f35b610add6004803603810190610ad8919061728f565b6133bb565b604051610aee959493929190617bb8565b60405180910390f35b610b116004803603810190610b0c9190616fa3565b61341b565b005b610b2d6004803603810190610b289190617c0b565b61355d565b005b610b496004803603810190610b449190617305565b613704565b604051610b5691906172ea565b60405180910390f35b610b67613752565b604051610b7491906172ea565b60405180910390f35b610b976004803603810190610b92919061728f565b613759565b604051610ba491906172ea565b60405180910390f35b610bb56137a9565b604051610bc291906177e9565b60405180910390f35b610be56004803603810190610be09190617c5e565b6137cf565b005b610c016004803603810190610bfc9190617305565b613d17565b604051610c0e91906172ea565b60405180910390f35b610c316004803603810190610c2c9190617305565b613d2f565b604051610c3e91906172ea565b60405180910390f35b610c616004803603810190610c5c9190617495565b613db7565b604051610c6e91906172ea565b60405180910390f35b610c7f613ddc565b604051610c8c91906172ea565b60405180910390f35b610caf6004803603810190610caa9190617c9e565b613de2565b604051610cbc91906172ea565b60405180910390f35b610ccd613e69565b604051610cda91906172ea565b60405180910390f35b610ceb613e70565b604051610cf891906172ea565b60405180910390f35b610d09613e75565b604051610d199493929190617cde565b60405180910390f35b610d3c6004803603810190610d379190617305565b613ea0565b005b610d46613f26565b604051610d5391906172ea565b60405180910390f35b610d766004803603810190610d719190616fa3565b613f2c565b005b610d926004803603810190610d8d9190617d59565b6147c8565b604051610d9f91906172cf565b60405180910390f35b60116020528060005260406000206000915090508060000154908060010160009054906101000a900473ffffffffffffffffffffffffffffffffffffffff1690806002018054610df790617db5565b80601f0160208091040260200160405190810160405280929190818152602001828054610e2390617db5565b8015610e705780601f10610e4557610100808354040283529160200191610e70565b820191906000526020600020905b815481529060010190602001808311610e5357829003601f168201915b5050505050908060030154908060040154908060050154908060060154908060070160009054906101000a900460ff16908060070160019054906101000a900460ff1690806008018054610ec390617db5565b80601f0160208091040260200160405190810160405280929190818152602001828054610eef90617db5565b8015610f3c5780601f10610f1157610100808354040283529160200191610f3c565b820191906000526020600020905b815481529060010190602001808311610f1f57829003601f168201915b505050505090508a565b606060038054610f5590617db5565b80601f0160208091040260200160405190810160405280929190818152602001828054610f8190617db5565b8015610fce5780601f10610fa357610100808354040283529160200191610fce565b820191906000526020600020905b815481529060010190602001808311610fb157829003601f168201915b5050505050905090565b600080610fe36147e8565b9050610ff08185856147f0565b600191505092915050565b61100f671461ce87849d6b4260c01b614802565b611017614805565b61102b67ff26ae329129772b60c01b614802565b61103f679c282b98864bc98b60c01b614802565b61105367ce05395902d14f1860c01b614802565b61106767fbc5d120bc2f3edf60c01b614802565b61107081614846565b50565b60095481565b600a5481565b601e6020528060005260406000206000915090505481565b6000600254905090565b6110b567267e8c81557b7cda60c01b614802565b6110bd614d23565b6110d1671551b4f77a21afc460c01b614802565b6110e567d935b4d26a6a3ade60c01b614802565b6110f9670c7cc3c5b6400fbb60c01b614802565b80600f60006101000a81548173ffffffffffffffffffffffffffffffffffffffff021916908373ffffffffffffffffffffffffffffffffffffffff16021790555050565b61115167248baae8941b1cd860c01b614802565b611159614d23565b61116d6710815cc58c6dd7f160c01b614802565b61118167080e471d4465538360c01b614802565b61119567578cf1801f0cbdfc60c01b614802565b6111a967c8db872295cdd59660c01b614802565b6111bd6724a8e7b5ee1b191b60c01b614802565b60c8811115611201576040517f08c379a00000000000000000000000000000000000000000000000000000000081526004016111f890617e32565b60405180910390fd5b611215677fe34dd9b59105d860c01b614802565b61122967d0111a81157bc79760c01b614802565b61123d677b101207015848f060c01b614802565b61125167afa2efc11a67aa7a60c01b614802565b62015180600b546112629190617e81565b4210156112a4576040517f08c379a000000000000000000000000000000000000000000000000000000000815260040161129b90617f01565b60405180910390fd5b6112b86704356986aa9f931c60c01b614802565b6112cc67a826ce5c4838f1f060c01b614802565b6112e067146f05bf7d1eaa5360c01b614802565b600060075490506112fb67bc85c6cced8a905260c01b614802565b8160078190555061131667f3c9c11d255f936a60c01b614802565b42600b81905550611331673fb741fccc55802960c01b614802565b61134567ab1be75d42efadc760c01b614802565b7fcf4c3ba0667a6e28c2746a4ee8d23efa18b2ca17591c2a22c36773a0232661d88183604051611376929190617f21565b60405180910390a15050565b60008061138d6147e8565b905061139a858285614daa565b6113a5858585614e3f565b60019150509392505050565b60006113c767ab0b42c55b05623960c01b614802565b6113db6781f592bb90bf066860c01b614802565b6113ef6763928a490b53525460c01b614802565b6113fa338686614e3f565b61140e6712fec52e2413e6df60c01b614802565b61142267365a5e326bace19960c01b614802565b8473ffffffffffffffffffffffffffffffffffffffff163373ffffffffffffffffffffffffffffffffffffffff167f22af1a14b223889c2d81fb5728dcd1106321c93a9e681db1e43279d5e91fd1ee868686604051611482929190617f7a565b6040518091039020604051611498929190617fa2565b60405180910390a36114b467cb46e6522bd15fd960c01b614802565b6114c8672b79d3544320f88a60c01b614802565b60019050949350505050565b6114e867278911b13199cb6660c01b614802565b6114f0614805565b611504673d4453b69ea94e9a60c01b614802565b6115186751e50c54cbd02e9e60c01b614802565b61152c67af5fbc531994011360c01b614802565b611540670b1998aa246e697460c01b614802565b61155467be9b9edf9c3bb84760c01b614802565b601460003373ffffffffffffffffffffffffffffffffffffffff1673ffffffffffffffffffffffffffffffffffffffff1681526020019081526020016000208054905081106115d8576040517f08c379a00000000000000000000000000000000000000000000000000000000081526004016115cf90618017565b60405180910390fd5b6115ec675e5bcc25935a043a60c01b614802565b611600672f728646eab0b2ab60c01b614802565b61161467e2479d1d5f3d2e3260c01b614802565b6000601460003373ffffffffffffffffffffffffffffffffffffffff1673ffffffffffffffffffffffffffffffffffffffff168152602001908152602001600020828154811061166757611666618037565b5b9060005260206000209060050201905061168b67f4fa0f6525041e9f60c01b614802565b61169f677242b8fea680123d60c01b614802565b6116b367367f7bcfcb1680ae60c01b614802565b60008160000154116116fa576040517f08c379a00000000000000000000000000000000000000000000000000000000081526004016116f1906180b2565b60405180910390fd5b61170e67302bf3384172cb4360c01b614802565b611722679df0a4941a83b6d960c01b614802565b61173667a01fd8473a0e59eb60c01b614802565b61174a6756434b698d1f31f460c01b614802565b8060030154816001015461175e9190617e81565b4210156117a0576040517f08c379a00000000000000000000000000000000000000000000000000000000081526004016117979061811e565b60405180910390fd5b6117b467e466c3049d323c2160c01b614802565b6117c8672e8aa7b9179e4fee60c01b614802565b6117dc678a7fc97f67b993b060c01b614802565b6000816000015490506117f96784707d092f0c368f60c01b614802565b60008260000181905550611817679b6231d4725a3de660c01b614802565b8060156000828254611829919061813e565b92505081905550611844676bc52bb5553c30f760c01b614802565b611858674d8d82b08f49567e60c01b614802565b611863303383614e3f565b61187767b85664d534f1d69760c01b614802565b61188b6768add98dec2bc5c960c01b614802565b3373ffffffffffffffffffffffffffffffffffffffff167f7fc4727e062e336010f2c282598ef5f14facb3de68cf8195c2f23e1454b2b74e82856040516118d3929190617f21565b60405180910390a2505050565b60006012905090565b6202a30081565b600e6020528060005260406000206000915054906101000a900460ff1681565b61192467932e95128bf613cb60c01b614802565b61193867eca12c469428f13e60c01b614802565b61194c67d4c4256319eec23760c01b614802565b6119563382614f33565b61196a67463f4b26e22de4ab60c01b614802565b80601f600101600082825461197f9190617e81565b9250508190555050565b60126020528160005260406000206020528060005260406000206000915091509054906101000a900460ff1681565b6119cc671805143c4c978a8460c01b614802565b6119d4614d23565b6119e8670e1f21012db437f760c01b614802565b6119fc67c859eb09d2831ab160c01b614802565b611a1067b53b612dfd59de4260c01b614802565b611a2467e793c73e5ad2cfed60c01b614802565b611a2c614fb5565b611a40671daebf5b09c04a4060c01b614802565b611a5467545fc28751d6bd4f60c01b614802565b7f2a09e26ec96218a3a144df2e04de096b7f0410106a4caff3cdfa5d667e604f2a33604051611a8391906181be565b60405180910390a1565b6301e1338081565b611aa967438437b68d7bb1a760c01b614802565b611ab1614d23565b611ac5677bd0ec5f7b7f989560c01b614802565b611ad9670a12def8d47e9c3060c01b614802565b611aed67748237bebc1acafb60c01b614802565b611b016797d2aed878a62b5560c01b614802565b611b09615018565b611b1d67ef87d7d06a025cdb60c01b614802565b611b3167023b33c4908d180c60c01b614802565b7f2a09e26ec96218a3a144df2e04de096b7f0410106a4caff3cdfa5d667e604f2a33604051611b609190618238565b60405180910390a1565b60085481565b611b8467e01e19f680142c3e60c01b614802565b611b8c614805565b611ba0671a1db2efd6955cad60c01b614802565b611bb467e96bda679331294360c01b614802565b611bc867854f91180821cec760c01b614802565b611bdc67b627d59f6f7e50ec60c01b614802565b611bf0675e7bda74bb9d58b560c01b614802565b60008311611c33576040517f08c379a0000000000000000000000000000000000000000000000000000000008152600401611c2a906182b2565b60405180910390fd5b611c4767dcf21ace18e9937160c01b614802565b611c5b67c24b1e9451faec8260c01b614802565b611c6f67341c5b5242ec1f0b60c01b614802565b611c83675cd8614acabfbf0560c01b614802565b62278d0082148015611ca55750611ca467630ec948366284f660c01b61507b565b5b80611cea57506276a70082148015611ccd5750611ccc67f83db933407da26260c01b61507b565b5b8015611ce95750611ce867080b59f88f5637f460c01b61507b565b5b5b80611d2f575062ed4e0082148015611d125750611d116766ad6783998282c560c01b61507b565b5b8015611d2e5750611d2d67cc9b43d4decbfe0b60c01b61507b565b5b5b80611d5957506301e1338082148015611d585750611d5767191bc8cc32e7b53760c01b61507b565b5b5b611d98576040517f08c379a0000000000000000000000000000000000000000000000000000000008152600401611d8f9061831e565b60405180910390fd5b611dac670c791e188e9a59dc60c01b614802565b611dc067f83c936ed28c0f9e60c01b614802565b611dd46736efdef0355b291260c01b614802565b611de867b12b3a321f11ccc160c01b614802565b82611df233612396565b1015611e33576040517f08c379a0000000000000000000000000000000000000000000000000000000008152600401611e2a9061838a565b60405180910390fd5b611e4767ab215c83eb100b2760c01b614802565b611e5b6768b92bb6cf68417960c01b614802565b611e6f6725c50da96ec6d58e60c01b614802565b611e7a333085614e3f565b611e8e6728d84ee8a94f913660c01b614802565b611ea267de077a26b95f7fd060c01b614802565b601460003373ffffffffffffffffffffffffffffffffffffffff1673ffffffffffffffffffffffffffffffffffffffff1681526020019081526020016000206040518060a0016040528085815260200142815260200142815260200184815260200183151581525090806001815401808255809150506001900390600052602060002090600502016000909190919091506000820151816000015560208201518160010155604082015181600201556060820151816003015560808201518160040160006101000a81548160ff0219169083151502179055505050611f91677a14812dcdec4f4760c01b614802565b8260156000828254611fa39190617e81565b92505081905550611fbe67fffd0e2267719f2260c01b614802565b611fd267a784bda8a488d71a60c01b614802565b3373ffffffffffffffffffffffffffffffffffffffff167fb4caaf29adda3eefee3ad552a8e85058589bf834c7466cae4ee58787f70589ed84846001601460003373ffffffffffffffffffffffffffffffffffffffff1673ffffffffffffffffffffffffffffffffffffffff1681526020019081526020016000208054905061205b919061813e565b60405161206a939291906183aa565b60405180910390a2505050565b600061208d67ce89bafc5616a34460c01b614802565b612095614d23565b6120a967aa78f3e91ec8356060c01b614802565b6120bd67b23aadcdce15172a60c01b614802565b6120d167f83688111903a4ea60c01b614802565b6120e567804efa9716e05a9c60c01b614802565b6000601060008154809291906120fa906183e1565b91905055905061211467c0af7bc3872aeed860c01b614802565b6040518061014001604052808281526020018773ffffffffffffffffffffffffffffffffffffffff168152602001868152602001600081526020016000815260200142815260200162093a804261216b9190617e81565b815260200160001515815260200185600381111561218c5761218b6170cb565b5b815260200184815250601160008381526020019081526020016000206000820151816000015560208201518160010160006101000a81548173ffffffffffffffffffffffffffffffffffffffff021916908373ffffffffffffffffffffffffffffffffffffffff160217905550604082015181600201908161220e91906185d5565b50606082015181600301556080820151816004015560a0820151816005015560c0820151816006015560e08201518160070160006101000a81548160ff0219169083151502179055506101008201518160070160016101000a81548160ff02191690836003811115612283576122826170cb565b5b021790555061012082015181600801908161229e9190618702565b509050506122b667b4c1179eab24034360c01b614802565b6122ca675162ffa7ad4988ae60c01b614802565b8573ffffffffffffffffffffffffffffffffffffffff16817f7585f467599d0f008985f231af99293be388626ac16ca59505c2f8f88969cd63876040516123119190617241565b60405180910390a361232d67164bac54bfeff93f60c01b614802565b61234167b25d95d36cf0059e60c01b614802565b80915050949350505050565b6000600560149054906101000a900460ff16905090565b600c60009054906101000a900473ffffffffffffffffffffffffffffffffffffffff1681565b60165481565b600b5481565b60008060008373ffffffffffffffffffffffffffffffffffffffff1673ffffffffffffffffffffffffffffffffffffffff168152602001908152602001600020549050919050565b6123e6614d23565b6123f06000615086565b565b60c881565b62278d0081565b60155481565b62ed4e0081565b60176020528060005260406000206000915090505481565b600061243967de4768b86226ebfc60c01b614802565b8161244e67da6210ae730ff57160c01b614802565b61246267349bd17205ce86cd60c01b614802565b6124766736aada755dd2725a60c01b614802565b601860030160009054906101000a900460ff161561284b576124a2674cc294fb9acbda2260c01b614802565b6124b667e087c444d42666cd60c01b614802565b6124ca675dc582e8342310bd60c01b614802565b6124de671130485b7ee4d3b360c01b614802565b601c60003373ffffffffffffffffffffffffffffffffffffffff1673ffffffffffffffffffffffffffffffffffffffff16815260200190815260200160002054431161255f576040517f08c379a000000000000000000000000000000000000000000000000000000000815260040161255690618820565b60405180910390fd5b6125736723adb5ceb2886a2f60c01b614802565b612587674f68747f1f00445560c01b614802565b61259b670c2be103004d724e60c01b614802565b6125af67463de6162579cba560c01b614802565b601d600033836040516020016125c6929190618840565b60405160208183030381529060405280519060200120815260200190815260200160002060009054906101000a900460ff1615612638576040517f08c379a000000000000000000000000000000000000000000000000000000000815260040161262f906188b5565b60405180910390fd5b61264c671b65676fff7736ab60c01b614802565b6126606746627ad8a1cf484160c01b614802565b61267467132c675a91b41bd660c01b614802565b612688679cc925b83ef91e4360c01b614802565b601860020154601e60003373ffffffffffffffffffffffffffffffffffffffff1673ffffffffffffffffffffffffffffffffffffffff168152602001908152602001600020546126d89190617e81565b42101561271a576040517f08c379a000000000000000000000000000000000000000000000000000000000815260040161271190618921565b60405180910390fd5b61272e674e1b62fda941293e60c01b614802565b612742673849ccd2e049e99060c01b614802565b43601c60003373ffffffffffffffffffffffffffffffffffffffff1673ffffffffffffffffffffffffffffffffffffffff1681526020019081526020016000208190555061279a67e92a0f65890dc7d160c01b614802565b6001601d600033846040516020016127b3929190618840565b60405160208183030381529060405280519060200120815260200190815260200160002060006101000a81548160ff021916908315150217905550612802676219fb2ad1fd6e4660c01b614802565b42601e60003373ffffffffffffffffffffffffffffffffffffffff1673ffffffffffffffffffffffffffffffffffffffff16815260200190815260200160002081905550612860565b61285f67d43346034101110a60c01b614802565b5b61287467f3bf8615432b484360c01b614802565b61288867c5571947a5e76ba860c01b614802565b61289c670a7920975f88513c60c01b614802565b6128b067cc041e96ccbb522160c01b614802565b6128c467f6a56a4db54ebc6460c01b614802565b6128cd8461514c565b6128e1679e5b57f2ddedbd0c60c01b614802565b6128f567bfe533b699616d1a60c01b614802565b612900338686614e3f565b6129146749eb311a727c1c1660c01b614802565b612928672ad2a5947909d15060c01b614802565b60019150509392505050565b600061294a67155af87a74207b0760c01b614802565b61295e67c44baa1bfad3f97e60c01b614802565b61297267ef863c038bc3a24760c01b614802565b61298667229e1258482835f060c01b614802565b81518351146129ca576040517f08c379a00000000000000000000000000000000000000000000000000000000081526004016129c19061898d565b60405180910390fd5b6129de671c37974a691cf91d60c01b614802565b6129f2675bdb2e99fc4a5ac460c01b614802565b612a06673d9f211e7519d3ea60c01b614802565b6000612a1c6781a3631ce8be439560c01b614802565b612a3067fed077400db2540760c01b614802565b60005b8351811015612a8557612a5067634ec42464a046a860c01b614802565b838181518110612a6357612a62618037565b5b602002602001015182612a769190617e81565b91508080600101915050612a33565b50612a9a67083985bee511633860c01b614802565b612aae671d6a42bbcfe0b27360c01b614802565b612ac267d746998ba8eebb1660c01b614802565b80612acc33612396565b1015612b0d576040517f08c379a0000000000000000000000000000000000000000000000000000000008152600401612b049061838a565b60405180910390fd5b612b216793c01b12c4b4d7d360c01b614802565b612b356790bd32d2616eeee460c01b614802565b612b49676ff03e72e18506a960c01b614802565b60005b8451811015612bc957612b69675e8302e4d4ece2ad60c01b614802565b612b7d67c53adf9547a6893860c01b614802565b612bbc33868381518110612b9457612b93618037565b5b6020026020010151868481518110612baf57612bae618037565b5b6020026020010151614e3f565b8080600101915050612b4c565b50612bde6737f0bdf48b4db85160c01b614802565b612bf2670a6c6e17fcb352bd60c01b614802565b3373ffffffffffffffffffffffffffffffffffffffff167f762d9d59f4cdcadad8125dfd5b9228c3f3710c17cd800b7e446f4bacba81a69f828651604051612c3b929190617f21565b60405180910390a2612c5767343f4ef6e2dd63ab60c01b614802565b612c6b67daa4ba789856239c60c01b614802565b600191505092915050565b60246020528060005260406000206000915090508060000154908060010154908060020154908060030154905084565b6000600560009054906101000a900473ffffffffffffffffffffffffffffffffffffffff16905090565b612ce467c5d1dc04a948cd4f60c01b614802565b612cec614d23565b612d00674c574fda680b208c60c01b614802565b612d14672b95587a80d28bbb60c01b614802565b612d2867c7fdf2bde296054660c01b614802565b80600e60008473ffffffffffffffffffffffffffffffffffffffff1673ffffffffffffffffffffffffffffffffffffffff16815260200190815260200160002060006101000a81548160ff021916908315150217905550612d9367ba638530c9bacafd60c01b614802565b612da7672efc454ee1d871e160c01b614802565b8173ffffffffffffffffffffffffffffffffffffffff167f210f2a4a589e25d95b24cbdb060d26ae79bbe123a564d0f973503d48badd00ca82604051612ded91906172cf565b60405180910390a25050565b6d314dc6448d9338c15b0a0000000081565b606060048054612e1a90617db5565b80601f0160208091040260200160405190810160405280929190818152602001828054612e4690617db5565b8015612e935780601f10612e6857610100808354040283529160200191612e93565b820191906000526020600020905b815481529060010190602001808311612e7657829003601f168201915b5050505050905090565b600d60009054906101000a900473ffffffffffffffffffffffffffffffffffffffff1681565b612ed76756383e293b9144df60c01b614802565b612edf614d23565b612ef3675f1a799e0e3e8eab60c01b614802565b612f0767923686b16878315d60c01b614802565b612f1b67819c77659f6e452660c01b614802565b612f2f6763765b798011960c60c01b614802565b612f3982826152bf565b5050565b612f51678675675d1d971e7460c01b614802565b612f59614d23565b612f6d67586facfc886f195160c01b614802565b612f8167a6714145f890655760c01b614802565b612f95670c246bdbc51b522e60c01b614802565b6001600f60146101000a81548160ff021916908315150217905550612fc46713088502c5802cc360c01b614802565b612fd86777a8ca415b3abf7d60c01b614802565b612fe282826152bf565b612ff667ef5b9b88ebe79bd160c01b614802565b6000600f60146101000a81548160ff0219169083151502179055505050565b69d3c21bcecceda100000081565b60008061302e6147e8565b905061303b818585614e3f565b600191505092915050565b600061305c67b27f2dff581308bf60c01b614802565b6130706771d5a8b55c9fbbfc60c01b614802565b61308467825565ecc1c6c45660c01b614802565b613098670f865fd590aa3bc860c01b614802565b69d3c21bcecceda10000006130ac33612396565b10156130ed576040517f08c379a00000000000000000000000000000000000000000000000000000000081526004016130e490618a1f565b60405180910390fd5b6131016726a1c94a9d1ed21860c01b614802565b613115676b2ac397e09a1f6460c01b614802565b613129671930062f1ba7882d60c01b614802565b60006010600081548092919061313e906183e1565b919050559050613158673ab2f67788c6892d60c01b614802565b6040518061014001604052808281526020013373ffffffffffffffffffffffffffffffffffffffff168152602001868152602001600081526020016000815260200142815260200162093a80426131af9190617e81565b81526020016000151581526020018560038111156131d0576131cf6170cb565b5b815260200184815250601160008381526020019081526020016000206000820151816000015560208201518160010160006101000a81548173ffffffffffffffffffffffffffffffffffffffff021916908373ffffffffffffffffffffffffffffffffffffffff160217905550604082015181600201908161325291906185d5565b50606082015181600301556080820151816004015560a0820151816005015560c0820151816006015560e08201518160070160006101000a81548160ff0219169083151502179055506101008201518160070160016101000a81548160ff021916908360038111156132c7576132c66170cb565b5b02179055506101208201518160080190816132e29190618702565b509050506132fa6725f84e3d159299d160c01b614802565b61330e674deb2c54941dee2660c01b614802565b3373ffffffffffffffffffffffffffffffffffffffff16817f7585f467599d0f008985f231af99293be388626ac16ca59505c2f8f88969cd63876040516133559190617241565b60405180910390a361337167cc3996fc28226e0960c01b614802565b61338567c7f6114d1534b22160c01b614802565b809150509392505050565b601f8060000154908060010154908060020154908060030154908060040154905085565b62093a8081565b601460205281600052604060002081815481106133d757600080fd5b9060005260206000209060050201600091509150508060000154908060010154908060020154908060030154908060040160009054906101000a900460ff16905085565b61342f67d737bc9b644b231060c01b614802565b613437614d23565b61344b67833222ac213bc5dc60c01b614802565b61345f67e877d7f0ac4e2caf60c01b614802565b6134736755ea5504f4fa2d1460c01b614802565b613487671df100bfcbc4e3e860c01b614802565b61349b67b8df66d1d20fa1a260c01b614802565b806134a533612396565b10156134e6576040517f08c379a00000000000000000000000000000000000000000000000000000000081526004016134dd9061838a565b60405180910390fd5b6134fa67eef0872cb379e6f560c01b614802565b61350e6766ee9752a4cb2f8e60c01b614802565b61352267fa759f0a88df4aab60c01b614802565b61352d333083614e3f565b61354167e52559d4ba34b6a560c01b614802565b80601660008282546135539190617e81565b9250508190555050565b6135716787b6c45f000ba47360c01b614802565b613579614d23565b61358d677f69dbe22b31df2d60c01b614802565b6135a1674fe481475426f7f560c01b614802565b6135b5675f2a357e4c5f8afd60c01b614802565b6135c96729d6af14a46b741760c01b614802565b6135dd672654ddc0cfc20f5760c01b614802565b6007548183856135ed9190617e81565b6135f79190617e81565b14613637576040517f08c379a000000000000000000000000000000000000000000000000000000000815260040161362e90618ab1565b60405180910390fd5b61364b67f07d641f1b0cfe2660c01b614802565b61365f6739fe49f3a598c88460c01b614802565b8260088190555061367a670a8f4d26dbe667d860c01b614802565b81600981905550613695672409f237bdb2f68b60c01b614802565b80600a819055506136b0670c825610688af13b60c01b614802565b6136c467ba7f33cc1047705360c01b614802565b7f69fc4c7ba13251e049284d74af6f22b2804db0152deb918f6cf17451917fe97f8383836040516136f7939291906183aa565b60405180910390a1505050565b600061371a67f6cfa5def96c2d6360c01b614802565b61372e67956dd2b1309f1c1f60c01b614802565b613742674d41e981db51d77560c01b614802565b61374b82612396565b9050919050565b6201518081565b600061376f6722545ca3a49294a160c01b614802565b61378367705677f6a486959c60c01b614802565b613797679513e9d0acd3c51660c01b614802565b6137a18383615341565b905092915050565b600f60009054906101000a900473ffffffffffffffffffffffffffffffffffffffff1681565b6137e367fc7fcb7ff24e601f60c01b614802565b6137f76789eb36e5237507b760c01b614802565b61380b6790be8cada92dc01260c01b614802565b61381f673fc9ac4228a32f6160c01b614802565b6010548210613863576040517f08c379a000000000000000000000000000000000000000000000000000000000815260040161385a90618b1d565b60405180910390fd5b61387767cd7faa10b708fbd160c01b614802565b61388b6759d127174a40e7e260c01b614802565b61389f67587e50d6c9012fa660c01b614802565b6138b3678ed1c03858875a6a60c01b614802565b6012600083815260200190815260200160002060003373ffffffffffffffffffffffffffffffffffffffff1673ffffffffffffffffffffffffffffffffffffffff16815260200190815260200160002060009054906101000a900460ff1615613951576040517f08c379a000000000000000000000000000000000000000000000000000000000815260040161394890618b89565b60405180910390fd5b61396567c88a96c29b89b44560c01b614802565b61397967f89f5147b67ac75660c01b614802565b61398d678539da1f2b19d45c60c01b614802565b6139a16760a77a93c5c2f0e760c01b614802565b60116000838152602001908152602001600020600601544211156139fa576040517f08c379a00000000000000000000000000000000000000000000000000000000081526004016139f190618bf5565b60405180910390fd5b613a0e676abc170277dfb24d60c01b614802565b613a2267ae965b05c6a8ae0e60c01b614802565b613a36674f6968b748b5c30760c01b614802565b6000613a4133612396565b9050613a5767067073145d39869160c01b614802565b613a6b67ec08d1629e89624360c01b614802565b613a7f679c6fd11b345a0be960c01b614802565b60008111613ac2576040517f08c379a0000000000000000000000000000000000000000000000000000000008152600401613ab990618c61565b60405180910390fd5b613ad56609b39cb523cfe960c01b614802565b613ae967ce712902cc2cc56760c01b614802565b60016012600085815260200190815260200160002060003373ffffffffffffffffffffffffffffffffffffffff1673ffffffffffffffffffffffffffffffffffffffff16815260200190815260200160002060006101000a81548160ff021916908315150217905550613b6667eb8afb6acd6fe45060c01b614802565b806013600085815260200190815260200160002060003373ffffffffffffffffffffffffffffffffffffffff1673ffffffffffffffffffffffffffffffffffffffff16815260200190815260200160002081905550613bcf674937e4ddb47035cb60c01b614802565b613be367a0f5bb469bfc8aa160c01b614802565b8115613c4357613bfd677574b86499d728b860c01b614802565b613c1167dd3e4d15bdacd37e60c01b614802565b80601160008581526020019081526020016000206003016000828254613c379190617e81565b92505081905550613c99565b613c5767bafed23fa2410d4360c01b614802565b613c6b67f227ae89eee097af60c01b614802565b80601160008581526020019081526020016000206004016000828254613c919190617e81565b925050819055505b613cad675f0d5985af8a785760c01b614802565b613cc16749e85714c3dacf7a60c01b614802565b3373ffffffffffffffffffffffffffffffffffffffff16837fcbdf6214089cba887ecbf35a0b6a734589959c9763342c756bb2a80ca2bc9f6e8484604051613d0a929190618c81565b60405180910390a3505050565b601c6020528060005260406000206000915090505481565b6000613d45679af043e9248bbe1b60c01b614802565b613d596732a85fa517a61a6e60c01b614802565b613d6d678e0961bb1021fe9060c01b614802565b601460008373ffffffffffffffffffffffffffffffffffffffff1673ffffffffffffffffffffffffffffffffffffffff168152602001908152602001600020805490509050919050565b6013602052816000526040600020602052806000526040600020600091509150505481565b60105481565b6000600160008473ffffffffffffffffffffffffffffffffffffffff1673ffffffffffffffffffffffffffffffffffffffff16815260200190815260200160002060008373ffffffffffffffffffffffffffffffffffffffff1673ffffffffffffffffffffffffffffffffffffffff16815260200190815260200160002054905092915050565b6276a70081565b600a81565b60188060000154908060010154908060020154908060030160009054906101000a900460ff16905084565b613ea8614d23565b600073ffffffffffffffffffffffffffffffffffffffff168173ffffffffffffffffffffffffffffffffffffffff1603613f1a5760006040517f1e4fbdf7000000000000000000000000000000000000000000000000000000008152600401613f1191906177e9565b60405180910390fd5b613f2381615086565b50565b60075481565b613f40674d3f9f87c49fb38760c01b614802565b613f546728c1c0016a82ae1e60c01b614802565b613f6867f09a77534b30becc60c01b614802565b613f7c67c47d0767a7fb9c6960c01b614802565b6010548110613fc0576040517f08c379a0000000000000000000000000000000000000000000000000000000008152600401613fb790618b1d565b60405180910390fd5b613fd467bd9364c89b181a7b60c01b614802565b613fe8671922d00900e7e88c60c01b614802565b613ffc6718321eb72651ac9f60c01b614802565b614010677b5a2451c5fddb5e60c01b614802565b600f60009054906101000a900473ffffffffffffffffffffffffffffffffffffffff1673ffffffffffffffffffffffffffffffffffffffff163373ffffffffffffffffffffffffffffffffffffffff1614801561407d575061407c679d350591fd90c8be60c01b61507b565b5b806140d6575061408b612ca6565b73ffffffffffffffffffffffffffffffffffffffff163373ffffffffffffffffffffffffffffffffffffffff161480156140d557506140d4675e4828acc25226d660c01b61507b565b5b5b614115576040517f08c379a000000000000000000000000000000000000000000000000000000000815260040161410c90618cf6565b60405180910390fd5b61412967f02b012390953c3c60c01b614802565b61413d67ab68a9762ae4c73460c01b614802565b61415167a4375714dcd7192660c01b614802565b600060116000838152602001908152602001600020905061417c6731d699af4a455c7260c01b614802565b614190679fa89357efebbd8a60c01b614802565b6141a4671a24eb44f093ee2460c01b614802565b8060070160009054906101000a900460ff16156141f6576040517f08c379a00000000000000000000000000000000000000000000000000000000081526004016141ed90618d62565b60405180910390fd5b61420a67df5a607c6bb02a0d60c01b614802565b61421e67c842860b59785a9560c01b614802565b614232673eb34ec46fdd3f7660c01b614802565b6142466773821218a6467e1f60c01b614802565b8060060154421161428c576040517f08c379a000000000000000000000000000000000000000000000000000000000815260040161428390618dce565b60405180910390fd5b6142a067269c41bfec883a1c60c01b614802565b6142b467073c9cb4e53824d760c01b614802565b6142c8677bdc9fd68598ba2f60c01b614802565b6142dc677d06388f3a6181ea60c01b614802565b6202a30081600601546142ef9190617e81565b4211614330576040517f08c379a000000000000000000000000000000000000000000000000000000000815260040161432790618e3a565b60405180910390fd5b61434467f10a58a13ac7d15860c01b614802565b6143586720c0d94f045e307f60c01b614802565b61436c67e491df0805ff6de860c01b614802565b6000816004015482600301546143829190617e81565b905061439867bda9eda6dc3ad74860c01b614802565b6143ac677ae2401eb8397fcf60c01b614802565b60006064600a6143ba611097565b6143c49190618e5a565b6143ce9190618ecb565b90506143e467140e29fcc8cc87f060c01b614802565b6143f867d6328ea1b519824660c01b614802565b61440c67702a02aecf51f59060c01b614802565b8082101561444f576040517f08c379a000000000000000000000000000000000000000000000000000000000815260040161444690618f48565b60405180910390fd5b614463672a4651dfd1d6407b60c01b614802565b6144776794e3238ba1d8903960c01b614802565b61448b67915a9693149c193a60c01b614802565b61449f6763e9c458f4011bce60c01b614802565b82600401548360030154116144e9576040517f08c379a00000000000000000000000000000000000000000000000000000000081526004016144e090618fb4565b60405180910390fd5b6144fd6772cd2e80095744d660c01b614802565b61451167b10a28fb164f14dd60c01b614802565b60018360070160006101000a81548160ff02191690831515021790555061454267715a3000b62e98ea60c01b614802565b61455667a92f1fe01bb9b7b460c01b614802565b61476d8360405180610140016040529081600082015481526020016001820160009054906101000a900473ffffffffffffffffffffffffffffffffffffffff1673ffffffffffffffffffffffffffffffffffffffff1673ffffffffffffffffffffffffffffffffffffffff1681526020016002820180546145d690617db5565b80601f016020809104026020016040519081016040528092919081815260200182805461460290617db5565b801561464f5780601f106146245761010080835404028352916020019161464f565b820191906000526020600020905b81548152906001019060200180831161463257829003601f168201915b50505050508152602001600382015481526020016004820154815260200160058201548152602001600682015481526020016007820160009054906101000a900460ff161515151581526020016007820160019054906101000a900460ff1660038111156146c0576146bf6170cb565b5b60038111156146d2576146d16170cb565b5b81526020016008820180546146e690617db5565b80601f016020809104026020016040519081016040528092919081815260200182805461471290617db5565b801561475f5780601f106147345761010080835404028352916020019161475f565b820191906000526020600020905b81548152906001019060200180831161474257829003601f168201915b5050505050815250506155b7565b61478167039d4c2be686443d60c01b614802565b6147956747c572b02b6a31ee60c01b614802565b837f712ae1383f79ac853f8d882153778e0260ef8f03b504e2866e0593e04d2b291f60405160405180910390a250505050565b601d6020528060005260406000206000915054906101000a900460ff1681565b600033905090565b6147fd8383836001615919565b505050565b50565b61480d61234d565b15614844576040517fd93c066500000000000000000000000000000000000000000000000000000000815260040160405180910390fd5b565b61485a67ff085afd0f57ebaa60c01b614802565b61486e674722b4429d7683a260c01b614802565b61488267eb468f3021e1d03b60c01b614802565b6148966757ecd97657bb800060c01b614802565b601460003373ffffffffffffffffffffffffffffffffffffffff1673ffffffffffffffffffffffffffffffffffffffff16815260200190815260200160002080549050811061491a576040517f08c379a000000000000000000000000000000000000000000000000000000000815260040161491190618017565b60405180910390fd5b61492e6730fea6bb04c3418460c01b614802565b61494267895a5d6dff9491e360c01b614802565b614956671a359a8343d8a31360c01b614802565b6000601460003373ffffffffffffffffffffffffffffffffffffffff1673ffffffffffffffffffffffffffffffffffffffff16815260200190815260200160002082815481106149a9576149a8618037565b5b906000526020600020906005020190506149cd67282f471e220f5d0560c01b614802565b6149e1675dae5890626bcf3d60c01b614802565b6149f567568220a64bfae36860c01b614802565b6000816000015411614a3c576040517f08c379a0000000000000000000000000000000000000000000000000000000008152600401614a33906180b2565b60405180910390fd5b614a506732d8518d7c0306fb60c01b614802565b614a6467a2fda4308589449e60c01b614802565b614a78670ead6ac94131874e60c01b614802565b6000614a843384615341565b9050614a9a6732d462ec6cd3c13a60c01b614802565b614aae67daad4308eb7100c660c01b614802565b600081118015614ac057506016548111155b15614d0957614ad9673ab0df95a9d64db160c01b614802565b614aed67ec405cbd2ce9ffe360c01b614802565b428260020181905550614b0a67e617a61e43cb63d460c01b614802565b8060166000828254614b1c919061813e565b92505081905550614b376738461234c73892ec60c01b614802565b614b4b67872495bf24f1805f60c01b614802565b8160040160009054906101000a900460ff1615614bd757614b7667fe849f266dc6fea460c01b614802565b614b8a67b7dc254241afa10a60c01b614802565b80826000016000828254614b9e9190617e81565b92505081905550614bb967ef862dc8a5c1e8c060c01b614802565b8060156000828254614bcb9190617e81565b92505081905550614c1f565b614beb67ff5d78495874307260c01b614802565b614bff67748fa79f7931630d60c01b614802565b614c13670f837f6acb1a416060c01b614802565b614c1e303383614e3f565b5b614c3367ff9fbc847520eb8160c01b614802565b80602460003373ffffffffffffffffffffffffffffffffffffffff1673ffffffffffffffffffffffffffffffffffffffff1681526020019081526020016000206001016000828254614c859190617e81565b92505081905550614ca067d16f620f47fd04d260c01b614802565b614cb4671d61df32ad795c5560c01b614802565b3373ffffffffffffffffffffffffffffffffffffffff167ff01da32686223933d8a18a391060918c7f11a3648639edd87ae013e2e27317438285604051614cfc929190617f21565b60405180910390a2614d1e565b614d1d67fa556e6657523fa560c01b614802565b5b505050565b614d2b6147e8565b73ffffffffffffffffffffffffffffffffffffffff16614d49612ca6565b73ffffffffffffffffffffffffffffffffffffffff1614614da857614d6c6147e8565b6040517f118cdaa7000000000000000000000000000000000000000000000000000000008152600401614d9f91906177e9565b60405180910390fd5b565b6000614db68484613de2565b90507fffffffffffffffffffffffffffffffffffffffffffffffffffffffffffffffff811015614e395781811015614e29578281836040517ffb8f41b2000000000000000000000000000000000000000000000000000000008152600401614e2093929190618fd4565b60405180910390fd5b614e3884848484036000615919565b5b50505050565b600073ffffffffffffffffffffffffffffffffffffffff168373ffffffffffffffffffffffffffffffffffffffff1603614eb15760006040517f96c6fd1e000000000000000000000000000000000000000000000000000000008152600401614ea891906177e9565b60405180910390fd5b600073ffffffffffffffffffffffffffffffffffffffff168273ffffffffffffffffffffffffffffffffffffffff1603614f235760006040517fec442f05000000000000000000000000000000000000000000000000000000008152600401614f1a91906177e9565b60405180910390fd5b614f2e838383615af0565b505050565b600073ffffffffffffffffffffffffffffffffffffffff168273ffffffffffffffffffffffffffffffffffffffff1603614fa55760006040517f96c6fd1e000000000000000000000000000000000000000000000000000000008152600401614f9c91906177e9565b60405180910390fd5b614fb182600083615af0565b5050565b614fbd616af6565b6000600560146101000a81548160ff0219169083151502179055507f5db9ee0a495bf2e6ff9c91a7834c1ba4fdd244a5e8aa4e537bd38aeae4b073aa6150016147e8565b60405161500e91906177e9565b60405180910390a1565b615020614805565b6001600560146101000a81548160ff0219169083151502179055507f62e78cea01bee320cd4e420270b5ea74000d11b0c9f74754ebdbfc544b05a2586150646147e8565b60405161507191906177e9565b60405180910390a1565b600060019050919050565b6000600560009054906101000a900473ffffffffffffffffffffffffffffffffffffffff16905081600560006101000a81548173ffffffffffffffffffffffffffffffffffffffff021916908373ffffffffffffffffffffffffffffffffffffffff1602179055508173ffffffffffffffffffffffffffffffffffffffff168173ffffffffffffffffffffffffffffffffffffffff167f8be0079c531659141344cd1fd0a4f28419497f9722a3daafe3b4186f6b6457e060405160405180910390a35050565b6151606748d53d989d1bba8d60c01b614802565b61517467fcbb7c74910400a960c01b614802565b615188671166ed43a154d82160c01b614802565b601860030160009054906101000a900460ff1680156151f15750600e60003373ffffffffffffffffffffffffffffffffffffffff1673ffffffffffffffffffffffffffffffffffffffff16815260200190815260200160002060009054906101000a900460ff16155b156152a75761520a67ed64237f048a005460c01b614802565b61521e67f7739e2b208a0cf360c01b614802565b615232678f98180ac30fd85660c01b614802565b615246677d40caf0ee8af94960c01b614802565b60186000015481111561528e576040517f08c379a000000000000000000000000000000000000000000000000000000000815260040161528590619057565b60405180910390fd5b6152a267c1badc2fd46dae5d60c01b614802565b6152bc565b6152bb6709bf8f5ed782516660c01b614802565b5b50565b600073ffffffffffffffffffffffffffffffffffffffff168273ffffffffffffffffffffffffffffffffffffffff16036153315760006040517fec442f0500000000000000000000000000000000000000000000000000000000815260040161532891906177e9565b60405180910390fd5b61533d60008383615af0565b5050565b6000615357674471b5bf1900cc8e60c01b614802565b61536b67df4fab4a9b2e2bd760c01b614802565b61537f67dcfbe48e06325bcd60c01b614802565b6000601460008573ffffffffffffffffffffffffffffffffffffffff1673ffffffffffffffffffffffffffffffffffffffff16815260200190815260200160002083815481106153d2576153d1618037565b5b90600052602060002090600502016040518060a0016040529081600082015481526020016001820154815260200160028201548152602001600382015481526020016004820160009054906101000a900460ff16151515158152505090506154446725b895aae1a719b560c01b614802565b615458675e2fbc8e439a4acc60c01b614802565b60008160000151036154965761547867ec5c7e7eda2c141660c01b614802565b61548c67c7c02d74f33c097360c01b614802565b60009150506155b1565b6154aa677b087cc9e89d1fcf60c01b614802565b6154be6780cba589e83aef0160c01b614802565b6154d267178a6f7a7c9723ca60c01b614802565b60008160400151426154e4919061813e565b90506154fa67623b3dd00b76f48860c01b614802565b61550e671470bdde465f345f60c01b614802565b6000601760008460600151815260200190815260200160002054905061553e6707c56f260864c19560c01b614802565b61555267e05d9112c2ac111660c01b614802565b600064496cebb8008383866000015161556b9190618e5a565b6155759190618e5a565b61557f9190618ecb565b905061559567de31318b2a5011d060c01b614802565b6155a96758586e054ad8183760c01b614802565b809450505050505b92915050565b6155cb677090b8ce2b455a4b60c01b614802565b6155df67b1b33f10886841d760c01b614802565b6155f367d4af0f2d3c14199a60c01b614802565b60006003811115615607576156066170cb565b5b816101000151600381111561561f5761561e6170cb565b5b036157325761563867f1f1fdb6f02c758460c01b614802565b61564c6726c6117e0fd2876460c01b614802565b6156606735de35c8c489e4bb60c01b614802565b600081610120015180602001905181019061567b919061908c565b905061569167eaaede71d56daeda60c01b614802565b6156a567297b5d3756b5ba1d60c01b614802565b6156b967b64f7d0cb09d565360c01b614802565b60c88111156156fd576040517f08c379a00000000000000000000000000000000000000000000000000000000081526004016156f490617e32565b60405180910390fd5b615711670c985d733efcfec060c01b614802565b61572567d8a18c63e7ef181b60c01b614802565b8060078190555050615916565b61574667b961dbefff739c7a60c01b614802565b61575a67135153cfe746bb4360c01b614802565b6001600381111561576e5761576d6170cb565b5b8161010001516003811115615786576157856170cb565b5b036159005761579f67d5161b1020158d9060c01b614802565b6157b367354217cdf6f1c3a660c01b614802565b6157c767d5e400f546470fc760c01b614802565b6000808261012001518060200190518101906157e391906190f7565b915091506157fb6708663f56d8cd36d160c01b614802565b61580f67d8e2f16b7f29c60a60c01b614802565b6158236797879e8e6a4eb3d960c01b614802565b8061584f600c60009054906101000a900473ffffffffffffffffffffffffffffffffffffffff16612396565b1015615890576040517f08c379a000000000000000000000000000000000000000000000000000000000815260040161588790619183565b60405180910390fd5b6158a467f820c85d63dd2a4160c01b614802565b6158b86778398e5f0aeb16f660c01b614802565b6158cc673cf986bc06bef0ab60c01b614802565b6158f9600c60009054906101000a900473ffffffffffffffffffffffffffffffffffffffff168383614e3f565b5050615915565b615914677ea7695832c5f4ae60c01b614802565b5b5b50565b600073ffffffffffffffffffffffffffffffffffffffff168473ffffffffffffffffffffffffffffffffffffffff160361598b5760006040517fe602df0500000000000000000000000000000000000000000000000000000000815260040161598291906177e9565b60405180910390fd5b600073ffffffffffffffffffffffffffffffffffffffff168373ffffffffffffffffffffffffffffffffffffffff16036159fd5760006040517f94280d620000000000000000000000000000000000000000000000000000000081526004016159f491906177e9565b60405180910390fd5b81600160008673ffffffffffffffffffffffffffffffffffffffff1673ffffffffffffffffffffffffffffffffffffffff16815260200190815260200160002060008573ffffffffffffffffffffffffffffffffffffffff1673ffffffffffffffffffffffffffffffffffffffff168152602001908152602001600020819055508015615aea578273ffffffffffffffffffffffffffffffffffffffff168473ffffffffffffffffffffffffffffffffffffffff167f8c5be1e5ebec7d5bd14f71427d1e84f3dd0314c0f7b2291e5b200ac8c7c3b92584604051615ae191906172ea565b60405180910390a35b50505050565b615b0467fe33b3435560600b60c01b614802565b615b0c614805565b615b20679659f797ca14b2ba60c01b614802565b615b3467fdcbfac0dbe6d7cb60c01b614802565b615b4867031244920ec07d0260c01b614802565b615b5c67b6145d62ce7711ce60c01b614802565b600f60149054906101000a900460ff1615615d3757615b85675fadaf47fed96c0260c01b614802565b615b99678e604860a7af0e2360c01b614802565b615bad675a26a93318de2c9d60c01b614802565b615bb8838383616b36565b615bcc67a747fad754c5b84460c01b614802565b615be0674660b8a2fc112d3660c01b614802565b600073ffffffffffffffffffffffffffffffffffffffff168373ffffffffffffffffffffffffffffffffffffffff1614158015615c4a5750600073ffffffffffffffffffffffffffffffffffffffff168273ffffffffffffffffffffffffffffffffffffffff1614155b15615cf557615c63679acc1d1b7c4c74fa60c01b614802565b615c77676c70484c4c876c9660c01b614802565b615c8b670a71c80f6bdca56460c01b614802565b8173ffffffffffffffffffffffffffffffffffffffff168373ffffffffffffffffffffffffffffffffffffffff167f59abb1a21ac9c02d9c217285768a906af17496e4cada7962f129b92f0ac948cf83604051615ce891906172ea565b60405180910390a3615d0a565b615d0967c32fa26b27e63bff60c01b614802565b5b615d1e67bb9771a8be7f840b60c01b614802565b615d32671f806b6f9f81c42860c01b614802565b616af1565b615d4b676817086b335a26b560c01b614802565b615d5f67bf5db35b00736a6160c01b614802565b615d73679202091865e58f4e60c01b614802565b600073ffffffffffffffffffffffffffffffffffffffff168373ffffffffffffffffffffffffffffffffffffffff1614158015615ddd5750600073ffffffffffffffffffffffffffffffffffffffff168273ffffffffffffffffffffffffffffffffffffffff1614155b15615e2e57615df6671fafcceed23897de60c01b614802565b615e0a6713f34cd5c618143860c01b614802565b615e1e67461ffa13a807706060c01b614802565b615e29838383616d5b565b615e43565b615e426785f17360d1d4583960c01b614802565b5b615e576769c7b2e9f5e82c4c60c01b614802565b615e6b670795f52ef499099860c01b614802565b600073ffffffffffffffffffffffffffffffffffffffff168373ffffffffffffffffffffffffffffffffffffffff160361602a57615eb3674ab7ae4ae1e6ed5760c01b614802565b615ec7671c0ed94fc6d29ac760c01b614802565b615edb679ff49aa89a25f4c760c01b614802565b615ee6838383616b36565b615efa678ec4e5094e69161060c01b614802565b615f0e673203b0cb9d9f4cb060c01b614802565b600073ffffffffffffffffffffffffffffffffffffffff168273ffffffffffffffffffffffffffffffffffffffff1614615fe857615f56676c42665e3e3c672160c01b614802565b615f6a673d4e73f4ce3869c760c01b614802565b615f7e677940ce78d9bce5a960c01b614802565b8173ffffffffffffffffffffffffffffffffffffffff168373ffffffffffffffffffffffffffffffffffffffff167f59abb1a21ac9c02d9c217285768a906af17496e4cada7962f129b92f0ac948cf83604051615fdb91906172ea565b60405180910390a3615ffd565b615ffc67b0938d39dadd3e5e60c01b614802565b5b61601167db689a49c1d7f63260c01b614802565b61602567267583bf688bae5560c01b614802565b616af1565b61603e677f97e9084dbabd9260c01b614802565b6160526741c3901e2dac376760c01b614802565b61606667e5f8098f17a2832f60c01b614802565b600073ffffffffffffffffffffffffffffffffffffffff168273ffffffffffffffffffffffffffffffffffffffff160361613e576160ae67a68c950f3e6761df60c01b614802565b6160c267e983f8e399780c3560c01b614802565b6160d667274d9232b6905b0160c01b614802565b6160e1838383616b36565b6160f567610ef628705bc63c60c01b614802565b80601f600101600082825461610a9190617e81565b9250508190555061612567a6025aed7d3e70db60c01b614802565b616139671fb2af0786ee4bd560c01b614802565b616af1565b616152670fd6e63097c8d14e60c01b614802565b616166677e45f482050d61a960c01b614802565b61617a67ebcd83910a9ed00e60c01b614802565b600060075414801561619c575061619b67194fb93c0c70db1160c01b61507b565b5b806162285750600e60008473ffffffffffffffffffffffffffffffffffffffff1673ffffffffffffffffffffffffffffffffffffffff16815260200190815260200160002060009054906101000a900460ff16801561620b575061620a6761aeb86573f657de60c01b61507b565b5b80156162275750616226672d981d11cbfbc3f660c01b61507b565b5b5b806162985750600e60008373ffffffffffffffffffffffffffffffffffffffff1673ffffffffffffffffffffffffffffffffffffffff16815260200190815260200160002060009054906101000a900460ff16801561629757506162966767a26740b9e4f9e560c01b61507b565b5b5b1561639e576162b167537252f4f21f3d7060c01b614802565b6162c567dbf1cec3f2ce8f4060c01b614802565b6162d96796c1de0628388b8460c01b614802565b6162e4838383616b36565b6162f867bff7140a1aff226f60c01b614802565b61630c67e92db5ff0a552a1560c01b614802565b8173ffffffffffffffffffffffffffffffffffffffff168373ffffffffffffffffffffffffffffffffffffffff167f59abb1a21ac9c02d9c217285768a906af17496e4cada7962f129b92f0ac948cf8360405161636991906172ea565b60405180910390a361638567aad39c8758bdc30f60c01b614802565b61639967f013e70b7b27c6a560c01b614802565b616af1565b6163b267258bc6fec2f02cbc60c01b614802565b6163c66799214a8295bdacf360c01b614802565b6163da672acab1492d4f8dfa60c01b614802565b601860030160009054906101000a900460ff16801561642557503073ffffffffffffffffffffffffffffffffffffffff168373ffffffffffffffffffffffffffffffffffffffff1614155b801561645d57503073ffffffffffffffffffffffffffffffffffffffff168273ffffffffffffffffffffffffffffffffffffffff1614155b156165fe5761647667b65f36707566c99a60c01b614802565b61648a67ff8562bf76a3dd5260c01b614802565b61649e67aa3ea5f851301b9b60c01b614802565b6164a78161514c565b6164bb67d2ddb702717df84b60c01b614802565b6164cf67ac44113798d58f6f60c01b614802565b601860010154816164df84612396565b6164e99190617e81565b11156165e45761650367a8c011fe14c5061d60c01b614802565b6165176776d80aeb66e9498360c01b614802565b61652b67ee5c0e8a67b55c9860c01b614802565b61653f67b65951a10587a5f360c01b614802565b600e60008373ffffffffffffffffffffffffffffffffffffffff1673ffffffffffffffffffffffffffffffffffffffff16815260200190815260200160002060009054906101000a900460ff166165cb576040517f08c379a00000000000000000000000000000000000000000000000000000000081526004016165c2906191ef565b60405180910390fd5b6165df6740167b243a5d4a0960c01b614802565b6165f9565b6165f867feb443a645a658b360c01b614802565b5b616613565b61661267502784ba4f81722d60c01b614802565b5b61662767b8a239e8df9f1b2b60c01b614802565b61663b67153b8a0017e2700660c01b614802565b60006127106007548361664e9190618e5a565b6166589190618ecb565b905061666e67b09afc9b52f4b3a660c01b614802565b6166826739f76b65355e8a3a60c01b614802565b6000600754600854836166959190618e5a565b61669f9190618ecb565b90506166b5672ed9b363bb7605cb60c01b614802565b6166c967409cdca4b6a9a34c60c01b614802565b6000600754600954846166dc9190618e5a565b6166e69190618ecb565b90506166fc67acf44143d2b7434a60c01b614802565b61671067526333227261e5ef60c01b614802565b600081838561671f919061813e565b616729919061813e565b905061673f67c6d69326b9e8fa7460c01b614802565b61675367b93a00c0ba5fcfa160c01b614802565b60008486616761919061813e565b905061677767e33c8b3587a3331a60c01b614802565b61678b67c47562f9af4150be60c01b614802565b6000841115616802576167a867b22967c07446dde260c01b614802565b6167bc671a281f75107ff23e60c01b614802565b6167d0676335c6ead595e97060c01b614802565b6167fd88600c60009054906101000a900473ffffffffffffffffffffffffffffffffffffffff1686616b36565b616817565b61681667dfdedeb6bc9d6b8360c01b614802565b5b61682b67586b840aa98fb4ed60c01b614802565b61683f6736d08e072a8788a860c01b614802565b60008311156168b65761685c670eb26eefedbd551660c01b614802565b616870675a1633c2dc73875760c01b614802565b616884674b418a82ec04f3c160c01b614802565b6168b188600d60009054906101000a900473ffffffffffffffffffffffffffffffffffffffff1685616b36565b6168cb565b6168ca6753bf9b5f3f1d884c60c01b614802565b5b6168df6749d39a7ac50e525560c01b614802565b6168f3679a0fa145af5977b360c01b614802565b60008211156169795761691067c12e19061740938d60c01b614802565b616924677ab15f5c9e9467dc60c01b614802565b616938675ebd19707992a8cc60c01b614802565b61694488600084616b36565b6169586731ea5a3181b6790360c01b614802565b81601f600101600082825461696d9190617e81565b9250508190555061698e565b61698d676d3ac4feefb9d92260c01b614802565b5b6169a267918a4519b44a01f460c01b614802565b6169b6679f147cd982c0032260c01b614802565b6169c1888883616b36565b6169d5679c4d44ed4affa4a060c01b614802565b84601f60000160008282546169ea9190617e81565b92505081905550616a05674e69f0f19dfd121e60c01b614802565b84602460008a73ffffffffffffffffffffffffffffffffffffffff1673ffffffffffffffffffffffffffffffffffffffff1681526020019081526020016000206000016000828254616a579190617e81565b92505081905550616a72674b02d6c5eea15c2d60c01b614802565b616a8667c57e19e76f00b4d860c01b614802565b8673ffffffffffffffffffffffffffffffffffffffff168873ffffffffffffffffffffffffffffffffffffffff167f59abb1a21ac9c02d9c217285768a906af17496e4cada7962f129b92f0ac948cf83604051616ae391906172ea565b60405180910390a350505050505b505050565b616afe61234d565b616b34576040517f8dfc202b00000000000000000000000000000000000000000000000000000000815260040160405180910390fd5b565b600073ffffffffffffffffffffffffffffffffffffffff168373ffffffffffffffffffffffffffffffffffffffff1603616b88578060026000828254616b7c9190617e81565b92505081905550616c5b565b60008060008573ffffffffffffffffffffffffffffffffffffffff1673ffffffffffffffffffffffffffffffffffffffff16815260200190815260200160002054905081811015616c14578381836040517fe450d38c000000000000000000000000000000000000000000000000000000008152600401616c0b93929190618fd4565b60405180910390fd5b8181036000808673ffffffffffffffffffffffffffffffffffffffff1673ffffffffffffffffffffffffffffffffffffffff16815260200190815260200160002081905550505b600073ffffffffffffffffffffffffffffffffffffffff168273ffffffffffffffffffffffffffffffffffffffff1603616ca45780600260008282540392505081905550616cf1565b806000808473ffffffffffffffffffffffffffffffffffffffff1673ffffffffffffffffffffffffffffffffffffffff168152602001908152602001600020600082825401925050819055505b8173ffffffffffffffffffffffffffffffffffffffff168373ffffffffffffffffffffffffffffffffffffffff167fddf252ad1be2c89b69c2b068fc378daa952ba7f163c4a11628f55a4df523b3ef83604051616d4e91906172ea565b60405180910390a3505050565b616d6f67a580e7f661f6778c60c01b614802565b616d83678e7052ba80e03d8d60c01b614802565b601f6004016000815480929190616d99906183e1565b9190505550616db267caf9e06d87e6fddb60c01b614802565b602460008473ffffffffffffffffffffffffffffffffffffffff1673ffffffffffffffffffffffffffffffffffffffff1681526020019081526020016000206002016000815480929190616e05906183e1565b9190505550616e1e67026c3d33d98c682d60c01b614802565b616e3267f0b25edecc7f5baf60c01b614802565b6000602460008473ffffffffffffffffffffffffffffffffffffffff1673ffffffffffffffffffffffffffffffffffffffff1681526020019081526020016000206003015403616f1f57616e9067671c43bca6d923ea60c01b614802565b616ea4679bd56dea04da045b60c01b614802565b42602460008473ffffffffffffffffffffffffffffffffffffffff1673ffffffffffffffffffffffffffffffffffffffff16815260200190815260200160002060030181905550616eff6784122dba5487d95360c01b614802565b601f6003016000815480929190616f15906183e1565b9190505550616f34565b616f3367542013fda8c6c36e60c01b614802565b5b616f4867645ab69fbbc6e88160c01b614802565b601554601f60020181905550505050565b6000604051905090565b600080fd5b600080fd5b6000819050919050565b616f8081616f6d565b8114616f8b57600080fd5b50565b600081359050616f9d81616f77565b92915050565b600060208284031215616fb957616fb8616f63565b5b6000616fc784828501616f8e565b91505092915050565b616fd981616f6d565b82525050565b600073ffffffffffffffffffffffffffffffffffffffff82169050919050565b600061700a82616fdf565b9050919050565b61701a81616fff565b82525050565b600081519050919050565b600082825260208201905092915050565b60005b8381101561705a57808201518184015260208101905061703f565b60008484015250505050565b6000601f19601f8301169050919050565b600061708282617020565b61708c818561702b565b935061709c81856020860161703c565b6170a581617066565b840191505092915050565b60008115159050919050565b6170c5816170b0565b82525050565b7f4e487b7100000000000000000000000000000000000000000000000000000000600052602160045260246000fd5b6004811061710b5761710a6170cb565b5b50565b600081905061711c826170fa565b919050565b600061712c8261710e565b9050919050565b61713c81617121565b82525050565b600081519050919050565b600082825260208201905092915050565b600061716982617142565b617173818561714d565b935061718381856020860161703c565b61718c81617066565b840191505092915050565b6000610140820190506171ad600083018d616fd0565b6171ba602083018c617011565b81810360408301526171cc818b617077565b90506171db606083018a616fd0565b6171e86080830189616fd0565b6171f560a0830188616fd0565b61720260c0830187616fd0565b61720f60e08301866170bc565b61721d610100830185617133565b818103610120830152617230818461715e565b90509b9a5050505050505050505050565b6000602082019050818103600083015261725b8184617077565b905092915050565b61726c81616fff565b811461727757600080fd5b50565b60008135905061728981617263565b92915050565b600080604083850312156172a6576172a5616f63565b5b60006172b48582860161727a565b92505060206172c585828601616f8e565b9150509250929050565b60006020820190506172e460008301846170bc565b92915050565b60006020820190506172ff6000830184616fd0565b92915050565b60006020828403121561731b5761731a616f63565b5b60006173298482850161727a565b91505092915050565b60008060006060848603121561734b5761734a616f63565b5b60006173598682870161727a565b935050602061736a8682870161727a565b925050604061737b86828701616f8e565b9150509250925092565b600080fd5b600080fd5b600080fd5b60008083601f8401126173aa576173a9617385565b5b8235905067ffffffffffffffff8111156173c7576173c661738a565b5b6020830191508360018202830111156173e3576173e261738f565b5b9250929050565b6000806000806060858703121561740457617403616f63565b5b60006174128782880161727a565b945050602061742387828801616f8e565b935050604085013567ffffffffffffffff81111561744457617443616f68565b5b61745087828801617394565b925092505092959194509250565b600060ff82169050919050565b6174748161745e565b82525050565b600060208201905061748f600083018461746b565b92915050565b600080604083850312156174ac576174ab616f63565b5b60006174ba85828601616f8e565b92505060206174cb8582860161727a565b9150509250929050565b6174de816170b0565b81146174e957600080fd5b50565b6000813590506174fb816174d5565b92915050565b60008060006060848603121561751a57617519616f63565b5b600061752886828701616f8e565b935050602061753986828701616f8e565b925050604061754a868287016174ec565b9150509250925092565b600080fd5b7f4e487b7100000000000000000000000000000000000000000000000000000000600052604160045260246000fd5b61759182617066565b810181811067ffffffffffffffff821117156175b0576175af617559565b5b80604052505050565b60006175c3616f59565b90506175cf8282617588565b919050565b600067ffffffffffffffff8211156175ef576175ee617559565b5b6175f882617066565b9050602081019050919050565b82818337600083830152505050565b6000617627617622846175d4565b6175b9565b90508281526020810184848401111561764357617642617554565b5b61764e848285617605565b509392505050565b600082601f83011261766b5761766a617385565b5b813561767b848260208601617614565b91505092915050565b6004811061769157600080fd5b50565b6000813590506176a381617684565b92915050565b600067ffffffffffffffff8211156176c4576176c3617559565b5b6176cd82617066565b9050602081019050919050565b60006176ed6176e8846176a9565b6175b9565b90508281526020810184848401111561770957617708617554565b5b617714848285617605565b509392505050565b600082601f83011261773157617730617385565b5b81356177418482602086016176da565b91505092915050565b6000806000806080858703121561776457617763616f63565b5b60006177728782880161727a565b945050602085013567ffffffffffffffff81111561779357617792616f68565b5b61779f87828801617656565b93505060406177b087828801617694565b925050606085013567ffffffffffffffff8111156177d1576177d0616f68565b5b6177dd8782880161771c565b91505092959194509250565b60006020820190506177fe6000830184617011565b92915050565b60008060006060848603121561781d5761781c616f63565b5b600061782b8682870161727a565b935050602061783c86828701616f8e565b925050604061784d86828701616f8e565b9150509250925092565b600067ffffffffffffffff82111561787257617871617559565b5b602082029050602081019050919050565b600061789661789184617857565b6175b9565b905080838252602082019050602084028301858111156178b9576178b861738f565b5b835b818110156178e257806178ce888261727a565b8452602084019350506020810190506178bb565b5050509392505050565b600082601f83011261790157617900617385565b5b8135617911848260208601617883565b91505092915050565b600067ffffffffffffffff82111561793557617934617559565b5b602082029050602081019050919050565b60006179596179548461791a565b6175b9565b9050808382526020820190506020840283018581111561797c5761797b61738f565b5b835b818110156179a557806179918882616f8e565b84526020840193505060208101905061797e565b5050509392505050565b600082601f8301126179c4576179c3617385565b5b81356179d4848260208601617946565b91505092915050565b600080604083850312156179f4576179f3616f63565b5b600083013567ffffffffffffffff811115617a1257617a11616f68565b5b617a1e858286016178ec565b925050602083013567ffffffffffffffff811115617a3f57617a3e616f68565b5b617a4b858286016179af565b9150509250929050565b6000608082019050617a6a6000830187616fd0565b617a776020830186616fd0565b617a846040830185616fd0565b617a916060830184616fd0565b95945050505050565b60008060408385031215617ab157617ab0616f63565b5b6000617abf8582860161727a565b9250506020617ad0858286016174ec565b9150509250929050565b600080600060608486031215617af357617af2616f63565b5b600084013567ffffffffffffffff811115617b1157617b10616f68565b5b617b1d86828701617656565b9350506020617b2e86828701617694565b925050604084013567ffffffffffffffff811115617b4f57617b4e616f68565b5b617b5b8682870161771c565b9150509250925092565b600060a082019050617b7a6000830188616fd0565b617b876020830187616fd0565b617b946040830186616fd0565b617ba16060830185616fd0565b617bae6080830184616fd0565b9695505050505050565b600060a082019050617bcd6000830188616fd0565b617bda6020830187616fd0565b617be76040830186616fd0565b617bf46060830185616fd0565b617c0160808301846170bc565b9695505050505050565b600080600060608486031215617c2457617c23616f63565b5b6000617c3286828701616f8e565b9350506020617c4386828701616f8e565b9250506040617c5486828701616f8e565b9150509250925092565b60008060408385031215617c7557617c74616f63565b5b6000617c8385828601616f8e565b9250506020617c94858286016174ec565b9150509250929050565b60008060408385031215617cb557617cb4616f63565b5b6000617cc38582860161727a565b9250506020617cd48582860161727a565b9150509250929050565b6000608082019050617cf36000830187616fd0565b617d006020830186616fd0565b617d0d6040830185616fd0565b617d1a60608301846170bc565b95945050505050565b6000819050919050565b617d3681617d23565b8114617d4157600080fd5b50565b600081359050617d5381617d2d565b92915050565b600060208284031215617d6f57617d6e616f63565b5b6000617d7d84828501617d44565b91505092915050565b7f4e487b7100000000000000000000000000000000000000000000000000000000600052602260045260246000fd5b60006002820490506001821680617dcd57607f821691505b602082108103617de057617ddf617d86565b5b50919050565b7f4665652065786365656473206d6178696d756d00000000000000000000000000600082015250565b6000617e1c60138361702b565b9150617e2782617de6565b602082019050919050565b60006020820190508181036000830152617e4b81617e0f565b9050919050565b7f4e487b7100000000000000000000000000000000000000000000000000000000600052601160045260246000fd5b6000617e8c82616f6d565b9150617e9783616f6d565b9250828201905080821115617eaf57617eae617e52565b5b92915050565b7f466565206368616e676520746f6f206672657175656e74000000000000000000600082015250565b6000617eeb60178361702b565b9150617ef682617eb5565b602082019050919050565b60006020820190508181036000830152617f1a81617ede565b9050919050565b6000604082019050617f366000830185616fd0565b617f436020830184616fd0565b9392505050565b600081905092915050565b6000617f618385617f4a565b9350617f6e838584617605565b82840190509392505050565b6000617f87828486617f55565b91508190509392505050565b617f9c81617d23565b82525050565b6000604082019050617fb76000830185616fd0565b617fc46020830184617f93565b9392505050565b7f496e76616c6964207374616b6520696e64657800000000000000000000000000600082015250565b600061800160138361702b565b915061800c82617fcb565b602082019050919050565b6000602082019050818103600083015261803081617ff4565b9050919050565b7f4e487b7100000000000000000000000000000000000000000000000000000000600052603260045260246000fd5b7f4e6f20616374697665207374616b650000000000000000000000000000000000600082015250565b600061809c600f8361702b565b91506180a782618066565b602082019050919050565b600060208201905081810360008301526180cb8161808f565b9050919050565b7f4c6f636b20706572696f64206e6f742066696e69736865640000000000000000600082015250565b600061810860188361702b565b9150618113826180d2565b602082019050919050565b60006020820190508181036000830152618137816180fb565b9050919050565b600061814982616f6d565b915061815483616f6d565b925082820390508181111561816c5761816b617e52565b5b92915050565b7f554e504155534500000000000000000000000000000000000000000000000000600082015250565b60006181a860078361702b565b91506181b382618172565b602082019050919050565b600060408201905081810360008301526181d78161819b565b90506181e66020830184617011565b92915050565b7f5041555345000000000000000000000000000000000000000000000000000000600082015250565b600061822260058361702b565b915061822d826181ec565b602082019050919050565b6000604082019050818103600083015261825181618215565b90506182606020830184617011565b92915050565b7f416d6f756e74206d7573742062652067726561746572207468616e2030000000600082015250565b600061829c601d8361702b565b91506182a782618266565b602082019050919050565b600060208201905081810360008301526182cb8161828f565b9050919050565b7f496e76616c6964206c6f636b20706572696f6400000000000000000000000000600082015250565b600061830860138361702b565b9150618313826182d2565b602082019050919050565b60006020820190508181036000830152618337816182fb565b9050919050565b7f496e73756666696369656e742062616c616e6365000000000000000000000000600082015250565b600061837460148361702b565b915061837f8261833e565b602082019050919050565b600060208201905081810360008301526183a381618367565b9050919050565b60006060820190506183bf6000830186616fd0565b6183cc6020830185616fd0565b6183d96040830184616fd0565b949350505050565b60006183ec82616f6d565b91507fffffffffffffffffffffffffffffffffffffffffffffffffffffffffffffffff820361841e5761841d617e52565b5b600182019050919050565b60008190508160005260206000209050919050565b60006020601f8301049050919050565b600082821b905092915050565b60006008830261848b7fffffffffffffffffffffffffffffffffffffffffffffffffffffffffffffffff8261844e565b618495868361844e565b95508019841693508086168417925050509392505050565b6000819050919050565b60006184d26184cd6184c884616f6d565b6184ad565b616f6d565b9050919050565b6000819050919050565b6184ec836184b7565b6185006184f8826184d9565b84845461845b565b825550505050565b600090565b618515618508565b6185208184846184e3565b505050565b5b818110156185445761853960008261850d565b600181019050618526565b5050565b601f8211156185895761855a81618429565b6185638461843e565b81016020851015618572578190505b61858661857e8561843e565b830182618525565b50505b505050565b600082821c905092915050565b60006185ac6000198460080261858e565b1980831691505092915050565b60006185c5838361859b565b9150826002028217905092915050565b6185de82617020565b67ffffffffffffffff8111156185f7576185f6617559565b5b6186018254617db5565b61860c828285618548565b600060209050601f83116001811461863f576000841561862d578287015190505b61863785826185b9565b86555061869f565b601f19841661864d86618429565b60005b8281101561867557848901518255600182019150602085019450602081019050618650565b86831015618692578489015161868e601f89168261859b565b8355505b6001600288020188555050505b505050505050565b60008190508160005260206000209050919050565b601f8211156186fd576186ce816186a7565b6186d78461843e565b810160208510156186e6578190505b6186fa6186f28561843e565b830182618525565b50505b505050565b61870b82617142565b67ffffffffffffffff81111561872457618723617559565b5b61872e8254617db5565b6187398282856186bc565b600060209050601f83116001811461876c576000841561875a578287015190505b61876485826185b9565b8655506187cc565b601f19841661877a866186a7565b60005b828110156187a25784890151825560018201915060208501945060208101905061877d565b868310156187bf57848901516187bb601f89168261859b565b8355505b6001600288020188555050505b505050505050565b7f53616d6520626c6f636b207472616e73616374696f6e00000000000000000000600082015250565b600061880a60168361702b565b9150618815826187d4565b602082019050919050565b60006020820190508181036000830152618839816187fd565b9050919050565b60006040820190506188556000830185617011565b6188626020830184616fd0565b9392505050565b7f4e6f6e6365207573656400000000000000000000000000000000000000000000600082015250565b600061889f600a8361702b565b91506188aa82618869565b602082019050919050565b600060208201905081810360008301526188ce81618892565b9050919050565b7f436f6f6c646f776e206e6f74206d657400000000000000000000000000000000600082015250565b600061890b60108361702b565b9150618916826188d5565b602082019050919050565b6000602082019050818103600083015261893a816188fe565b9050919050565b7f4172726179206c656e677468206d69736d617463680000000000000000000000600082015250565b600061897760158361702b565b915061898282618941565b602082019050919050565b600060208201905081810360008301526189a68161896a565b9050919050565b7f496e73756666696369656e742062616c616e636520666f722070726f706f736160008201527f6c00000000000000000000000000000000000000000000000000000000000000602082015250565b6000618a0960218361702b565b9150618a14826189ad565b604082019050919050565b60006020820190508181036000830152618a38816189fc565b9050919050565b7f446973747269627574696f6e206d75737420657175616c20746f74616c20666560008201527f6500000000000000000000000000000000000000000000000000000000000000602082015250565b6000618a9b60218361702b565b9150618aa682618a3f565b604082019050919050565b60006020820190508181036000830152618aca81618a8e565b9050919050565b7f496e76616c69642070726f706f73616c20494400000000000000000000000000600082015250565b6000618b0760138361702b565b9150618b1282618ad1565b602082019050919050565b60006020820190508181036000830152618b3681618afa565b9050919050565b7f416c726561647920766f74656400000000000000000000000000000000000000600082015250565b6000618b73600d8361702b565b9150618b7e82618b3d565b602082019050919050565b60006020820190508181036000830152618ba281618b66565b9050919050565b7f566f74696e6720706572696f6420656e64656400000000000000000000000000600082015250565b6000618bdf60138361702b565b9150618bea82618ba9565b602082019050919050565b60006020820190508181036000830152618c0e81618bd2565b9050919050565b7f4e6f20766f74696e6720706f7765720000000000000000000000000000000000600082015250565b6000618c4b600f8361702b565b9150618c5682618c15565b602082019050919050565b60006020820190508181036000830152618c7a81618c3e565b9050919050565b6000604082019050618c9660008301856170bc565b618ca36020830184616fd0565b9392505050565b7f4e6f7420617574686f72697a656420746f206578656375746500000000000000600082015250565b6000618ce060198361702b565b9150618ceb82618caa565b602082019050919050565b60006020820190508181036000830152618d0f81618cd3565b9050919050565b7f416c726561647920657865637574656400000000000000000000000000000000600082015250565b6000618d4c60108361702b565b9150618d5782618d16565b602082019050919050565b60006020820190508181036000830152618d7b81618d3f565b9050919050565b7f566f74696e67207374696c6c2061637469766500000000000000000000000000600082015250565b6000618db860138361702b565b9150618dc382618d82565b602082019050919050565b60006020820190508181036000830152618de781618dab565b9050919050565b7f457865637574696f6e2064656c6179206e6f74206d6574000000000000000000600082015250565b6000618e2460178361702b565b9150618e2f82618dee565b602082019050919050565b60006020820190508181036000830152618e5381618e17565b9050919050565b6000618e6582616f6d565b9150618e7083616f6d565b9250828202618e7e81616f6d565b91508282048414831517618e9557618e94617e52565b5b5092915050565b7f4e487b7100000000000000000000000000000000000000000000000000000000600052601260045260246000fd5b6000618ed682616f6d565b9150618ee183616f6d565b925082618ef157618ef0618e9c565b5b828204905092915050565b7f51756f72756d206e6f74206d6574000000000000000000000000000000000000600082015250565b6000618f32600e8361702b565b9150618f3d82618efc565b602082019050919050565b60006020820190508181036000830152618f6181618f25565b9050919050565b7f50726f706f73616c2072656a6563746564000000000000000000000000000000600082015250565b6000618f9e60118361702b565b9150618fa982618f68565b602082019050919050565b60006020820190508181036000830152618fcd81618f91565b9050919050565b6000606082019050618fe96000830186617011565b618ff66020830185616fd0565b6190036040830184616fd0565b949350505050565b7f5472616e73616374696f6e20616d6f756e742065786365656473206c696d6974600082015250565b600061904160208361702b565b915061904c8261900b565b602082019050919050565b6000602082019050818103600083015261907081619034565b9050919050565b60008151905061908681616f77565b92915050565b6000602082840312156190a2576190a1616f63565b5b60006190b084828501619077565b91505092915050565b60006190c482616fdf565b9050919050565b6190d4816190b9565b81146190df57600080fd5b50565b6000815190506190f1816190cb565b92915050565b6000806040838503121561910e5761910d616f63565b5b600061911c858286016190e2565b925050602061912d85828601619077565b9150509250929050565b7f496e73756666696369656e742074726561737572792062616c616e6365000000600082015250565b600061916d601d8361702b565b915061917882619137565b602082019050919050565b6000602082019050818103600083015261919c81619160565b9050919050565b7f57616c6c6574206c696d69742065786365656465640000000000000000000000600082015250565b60006191d960158361702b565b91506191e4826191a3565b602082019050919050565b60006020820190508181036000830152619208816191cc565b905091905056fea26469706673582212207ad91adc1313a9d8e1179577a3cfdb0c4e21d244ae83d65f2a58ac76668d83f064736f6c63430008160033",
  "linkReferences": {},
  "deployedLinkReferences": {}
}