{
  "_format": "hh-sol-artifact-1",
  "contractName": "FIACoinV7Upgradeable",
  "sourceName": "contracts/FIACoinV7Upgradeable.sol",
  "abi": [
    {
      "inputs": [
        {
          "internalType": "address",
          "name": "target",
          "type": "address"
        }
      ],
      "name": "AddressEmptyCode",
      "type": "error"
    },
    {
      "inputs": [
        {
          "internalType": "address",
          "name": "implementation",
          "type": "address"
        }
      ],
      "name": "ERC1967InvalidImplementation",
      "type": "error"
    },
    {
      "inputs": [],
      "name": "ERC1967NonPayable",
      "type": "error"
    },
    {
      "inputs": [
        {
          "internalType": "address",
          "name": "spender",
          "type": "address"
        },
        {
          "internalType": "uint256",
          "name": "allowance",
          "type": "uint256"
        },
        {
          "internalType": "uint256",
          "name": "needed",
          "type": "uint256"
        }
      ],
      "name": "ERC20InsufficientAllowance",
      "type": "error"
    },
    {
      "inputs": [
        {
          "internalType": "address",
          "name": "sender",
          "type": "address"
        },
        {
          "internalType": "uint256",
          "name": "balance",
          "type": "uint256"
        },
        {
          "internalType": "uint256",
          "name": "needed",
          "type": "uint256"
        }
      ],
      "name": "ERC20InsufficientBalance",
      "type": "error"
    },
    {
      "inputs": [
        {
          "internalType": "address",
          "name": "approver",
          "type": "address"
        }
      ],
      "name": "ERC20InvalidApprover",
      "type": "error"
    },
    {
      "inputs": [
        {
          "internalType": "address",
          "name": "receiver",
          "type": "address"
        }
      ],
      "name": "ERC20InvalidReceiver",
      "type": "error"
    },
    {
      "inputs": [
        {
          "internalType": "address",
          "name": "sender",
          "type": "address"
        }
      ],
      "name": "ERC20InvalidSender",
      "type": "error"
    },
    {
      "inputs": [
        {
          "internalType": "address",
          "name": "spender",
          "type": "address"
        }
      ],
      "name": "ERC20InvalidSpender",
      "type": "error"
    },
    {
      "inputs": [],
      "name": "EnforcedPause",
      "type": "error"
    },
    {
      "inputs": [],
      "name": "ExpectedPause",
      "type": "error"
    },
    {
      "inputs": [],
      "name": "FailedCall",
      "type": "error"
    },
    {
      "inputs": [],
      "name": "InvalidInitialization",
      "type": "error"
    },
    {
      "inputs": [],
      "name": "NotInitializing",
      "type": "error"
    },
    {
      "inputs": [
        {
          "internalType": "address",
          "name": "owner",
          "type": "address"
        }
      ],
      "name": "OwnableInvalidOwner",
      "type": "error"
    },
    {
      "inputs": [
        {
          "internalType": "address",
          "name": "account",
          "type": "address"
        }
      ],
      "name": "OwnableUnauthorizedAccount",
      "type": "error"
    },
    {
      "inputs": [],
      "name": "ReentrancyGuardReentrantCall",
      "type": "error"
    },
    {
      "inputs": [],
      "name": "UUPSUnauthorizedCallContext",
      "type": "error"
    },
    {
      "inputs": [
        {
          "internalType": "bytes32",
          "name": "slot",
          "type": "bytes32"
        }
      ],
      "name": "UUPSUnsupportedProxiableUUID",
      "type": "error"
    },
    {
      "anonymous": false,
      "inputs": [
        {
          "indexed": true,
          "internalType": "address",
          "name": "owner",
          "type": "address"
        },
        {
          "indexed": true,
          "internalType": "address",
          "name": "spender",
          "type": "address"
        },
        {
          "indexed": false,
          "internalType": "uint256",
          "name": "value",
          "type": "uint256"
        }
      ],
      "name": "Approval",
      "type": "event"
    },
    {
      "anonymous": false,
      "inputs": [
        {
          "indexed": true,
          "internalType": "address",
          "name": "from",
          "type": "address"
        },
        {
          "indexed": false,
          "internalType": "uint256",
          "name": "totalAmount",
          "type": "uint256"
        },
        {
          "indexed": false,
          "internalType": "uint256",
          "name": "recipientCount",
          "type": "uint256"
        }
      ],
      "name": "BatchTransfer",
      "type": "event"
    },
    {
      "anonymous": false,
      "inputs": [
        {
          "indexed": false,
          "internalType": "uint256",
          "name": "version",
          "type": "uint256"
        },
        {
          "indexed": false,
          "internalType": "string",
          "name": "description",
          "type": "string"
        }
      ],
      "name": "BugFixApplied",
      "type": "event"
    },
    {
      "anonymous": false,
      "inputs": [
        {
          "indexed": false,
          "internalType": "bool",
          "name": "enabled",
          "type": "bool"
        },
        {
          "indexed": false,
          "internalType": "uint256",
          "name": "multiplier",
          "type": "uint256"
        }
      ],
      "name": "DynamicAPYEnabled",
      "type": "event"
    },
    {
      "anonymous": false,
      "inputs": [
        {
          "indexed": false,
          "internalType": "string",
          "name": "action",
          "type": "string"
        },
        {
          "indexed": true,
          "internalType": "address",
          "name": "actor",
          "type": "address"
        }
      ],
      "name": "EmergencyAction",
      "type": "event"
    },
    {
      "anonymous": false,
      "inputs": [
        {
          "indexed": true,
          "internalType": "address",
          "name": "user",
          "type": "address"
        },
        {
          "indexed": false,
          "internalType": "bool",
          "name": "enabled",
          "type": "bool"
        }
      ],
      "name": "EmergencyWithdrawalToggled",
      "type": "event"
    },
    {
      "anonymous": false,
      "inputs": [
        {
          "indexed": false,
          "internalType": "uint256",
          "name": "oldFee",
          "type": "uint256"
        },
        {
          "indexed": false,
          "internalType": "uint256",
          "name": "newFee",
          "type": "uint256"
        }
      ],
      "name": "FeeConfigurationChanged",
      "type": "event"
    },
    {
      "anonymous": false,
      "inputs": [
        {
          "indexed": false,
          "internalType": "uint256",
          "name": "treasury",
          "type": "uint256"
        },
        {
          "indexed": false,
          "internalType": "uint256",
          "name": "founder",
          "type": "uint256"
        },
        {
          "indexed": false,
          "internalType": "uint256",
          "name": "burn",
          "type": "uint256"
        }
      ],
      "name": "FeeDistributionChanged",
      "type": "event"
    },
    {
      "anonymous": false,
      "inputs": [
        {
          "indexed": true,
          "internalType": "address",
          "name": "account",
          "type": "address"
        },
        {
          "indexed": false,
          "internalType": "bool",
          "name": "exempt",
          "type": "bool"
        }
      ],
      "name": "FeeExemptionSet",
      "type": "event"
    },
    {
      "anonymous": false,
      "inputs": [
        {
          "indexed": true,
          "internalType": "address",
          "name": "from",
          "type": "address"
        },
        {
          "indexed": true,
          "internalType": "address",
          "name": "to",
          "type": "address"
        },
        {
          "indexed": false,
          "internalType": "uint256",
          "name": "amount",
          "type": "uint256"
        }
      ],
      "name": "Fingered",
      "type": "event"
    },
    {
      "anonymous": false,
      "inputs": [
        {
          "indexed": false,
          "internalType": "uint64",
          "name": "version",
          "type": "uint64"
        }
      ],
      "name": "Initialized",
      "type": "event"
    },
    {
      "anonymous": false,
      "inputs": [
        {
          "indexed": true,
          "internalType": "address",
          "name": "previousOwner",
          "type": "address"
        },
        {
          "indexed": true,
          "internalType": "address",
          "name": "newOwner",
          "type": "address"
        }
      ],
      "name": "OwnershipTransferred",
      "type": "event"
    },
    {
      "anonymous": false,
      "inputs": [
        {
          "indexed": false,
          "internalType": "address",
          "name": "account",
          "type": "address"
        }
      ],
      "name": "Paused",
      "type": "event"
    },
    {
      "anonymous": false,
      "inputs": [
        {
          "indexed": true,
          "internalType": "uint256",
          "name": "proposalId",
          "type": "uint256"
        },
        {
          "indexed": true,
          "internalType": "address",
          "name": "proposer",
          "type": "address"
        },
        {
          "indexed": false,
          "internalType": "string",
          "name": "description",
          "type": "string"
        }
      ],
      "name": "ProposalCreated",
      "type": "event"
    },
    {
      "anonymous": false,
      "inputs": [
        {
          "indexed": true,
          "internalType": "uint256",
          "name": "proposalId",
          "type": "uint256"
        }
      ],
      "name": "ProposalExecuted",
      "type": "event"
    },
    {
      "anonymous": false,
      "inputs": [
        {
          "indexed": true,
          "internalType": "address",
          "name": "user",
          "type": "address"
        },
        {
          "indexed": false,
          "internalType": "uint256",
          "name": "reward",
          "type": "uint256"
        },
        {
          "indexed": false,
          "internalType": "uint256",
          "name": "stakeIndex",
          "type": "uint256"
        }
      ],
      "name": "RewardClaimed",
      "type": "event"
    },
    {
      "anonymous": false,
      "inputs": [
        {
          "indexed": true,
          "internalType": "address",
          "name": "user",
          "type": "address"
        },
        {
          "indexed": false,
          "internalType": "uint256",
          "name": "amount",
          "type": "uint256"
        },
        {
          "indexed": false,
          "internalType": "uint256",
          "name": "lockPeriod",
          "type": "uint256"
        },
        {
          "indexed": false,
          "internalType": "uint256",
          "name": "stakeIndex",
          "type": "uint256"
        }
      ],
      "name": "Staked",
      "type": "event"
    },
    {
      "anonymous": false,
      "inputs": [
        {
          "indexed": true,
          "internalType": "address",
          "name": "from",
          "type": "address"
        },
        {
          "indexed": true,
          "internalType": "address",
          "name": "to",
          "type": "address"
        },
        {
          "indexed": false,
          "internalType": "uint256",
          "name": "value",
          "type": "uint256"
        }
      ],
      "name": "Transfer",
      "type": "event"
    },
    {
      "anonymous": false,
      "inputs": [
        {
          "indexed": true,
          "internalType": "address",
          "name": "from",
          "type": "address"
        },
        {
          "indexed": true,
          "internalType": "address",
          "name": "to",
          "type": "address"
        },
        {
          "indexed": false,
          "internalType": "uint256",
          "name": "amount",
          "type": "uint256"
        },
        {
          "indexed": false,
          "internalType": "bytes32",
          "name": "memoHash",
          "type": "bytes32"
        }
      ],
      "name": "TransferWithDataLite",
      "type": "event"
    },
    {
      "anonymous": false,
      "inputs": [
        {
          "indexed": false,
          "internalType": "address",
          "name": "account",
          "type": "address"
        }
      ],
      "name": "Unpaused",
      "type": "event"
    },
    {
      "anonymous": false,
      "inputs": [
        {
          "indexed": true,
          "internalType": "address",
          "name": "user",
          "type": "address"
        },
        {
          "indexed": false,
          "internalType": "uint256",
          "name": "amount",
          "type": "uint256"
        },
        {
          "indexed": false,
          "internalType": "uint256",
          "name": "stakeIndex",
          "type": "uint256"
        }
      ],
      "name": "Unstaked",
      "type": "event"
    },
    {
      "anonymous": false,
      "inputs": [
        {
          "indexed": true,
          "internalType": "address",
          "name": "implementation",
          "type": "address"
        }
      ],
      "name": "Upgraded",
      "type": "event"
    },
    {
      "anonymous": false,
      "inputs": [
        {
          "indexed": true,
          "internalType": "address",
          "name": "user",
          "type": "address"
        },
        {
          "indexed": false,
          "internalType": "string",
          "name": "feature",
          "type": "string"
        }
      ],
      "name": "V7FeatureUsed",
      "type": "event"
    },
    {
      "anonymous": false,
      "inputs": [
        {
          "indexed": true,
          "internalType": "uint256",
          "name": "proposalId",
          "type": "uint256"
        },
        {
          "indexed": true,
          "internalType": "address",
          "name": "voter",
          "type": "address"
        },
        {
          "indexed": false,
          "internalType": "bool",
          "name": "support",
          "type": "bool"
        },
        {
          "indexed": false,
          "internalType": "uint256",
          "name": "votingPower",
          "type": "uint256"
        }
      ],
      "name": "VoteCast",
      "type": "event"
    },
    {
      "inputs": [],
      "name": "EXECUTION_DELAY",
      "outputs": [
        {
          "internalType": "uint256",
          "name": "",
          "type": "uint256"
        }
      ],
      "stateMutability": "view",
      "type": "function"
    },
    {
      "inputs": [],
      "name": "FEE_CHANGE_DELAY",
      "outputs": [
        {
          "internalType": "uint256",
          "name": "",
          "type": "uint256"
        }
      ],
      "stateMutability": "view",
      "type": "function"
    },
    {
      "inputs": [],
      "name": "LOCK_180_DAYS",
      "outputs": [
        {
          "internalType": "uint256",
          "name": "",
          "type": "uint256"
        }
      ],
      "stateMutability": "view",
      "type": "function"
    },
    {
      "inputs": [],
      "name": "LOCK_30_DAYS",
      "outputs": [
        {
          "internalType": "uint256",
          "name": "",
          "type": "uint256"
        }
      ],
      "stateMutability": "view",
      "type": "function"
    },
    {
      "inputs": [],
      "name": "LOCK_365_DAYS",
      "outputs": [
        {
          "internalType": "uint256",
          "name": "",
          "type": "uint256"
        }
      ],
      "stateMutability": "view",
      "type": "function"
    },
    {
      "inputs": [],
      "name": "LOCK_90_DAYS",
      "outputs": [
        {
          "internalType": "uint256",
          "name": "",
          "type": "uint256"
        }
      ],
      "stateMutability": "view",
      "type": "function"
    },
    {
      "inputs": [],
      "name": "MAX_TOTAL_FEE_BP",
      "outputs": [
        {
          "internalType": "uint256",
          "name": "",
          "type": "uint256"
        }
      ],
      "stateMutability": "view",
      "type": "function"
    },
    {
      "inputs": [],
      "name": "PROPOSAL_THRESHOLD",
      "outputs": [
        {
          "internalType": "uint256",
          "name": "",
          "type": "uint256"
        }
      ],
      "stateMutability": "view",
      "type": "function"
    },
    {
      "inputs": [],
      "name": "QUORUM_PERCENTAGE",
      "outputs": [
        {
          "internalType": "uint256",
          "name": "",
          "type": "uint256"
        }
      ],
      "stateMutability": "view",
      "type": "function"
    },
    {
      "inputs": [],
      "name": "TOTAL_SUPPLY",
      "outputs": [
        {
          "internalType": "uint256",
          "name": "",
          "type": "uint256"
        }
      ],
      "stateMutability": "view",
      "type": "function"
    },
    {
      "inputs": [],
      "name": "UPGRADE_INTERFACE_VERSION",
      "outputs": [
        {
          "internalType": "string",
          "name": "",
          "type": "string"
        }
      ],
      "stateMutability": "view",
      "type": "function"
    },
    {
      "inputs": [],
      "name": "VOTING_PERIOD",
      "outputs": [
        {
          "internalType": "uint256",
          "name": "",
          "type": "uint256"
        }
      ],
      "stateMutability": "view",
      "type": "function"
    },
    {
      "inputs": [
        {
          "internalType": "address",
          "name": "owner",
          "type": "address"
        },
        {
          "internalType": "address",
          "name": "spender",
          "type": "address"
        }
      ],
      "name": "allowance",
      "outputs": [
        {
          "internalType": "uint256",
          "name": "",
          "type": "uint256"
        }
      ],
      "stateMutability": "view",
      "type": "function"
    },
    {
      "inputs": [
        {
          "internalType": "address",
          "name": "spender",
          "type": "address"
        },
        {
          "internalType": "uint256",
          "name": "value",
          "type": "uint256"
        }
      ],
      "name": "approve",
      "outputs": [
        {
          "internalType": "bool",
          "name": "",
          "type": "bool"
        }
      ],
      "stateMutability": "nonpayable",
      "type": "function"
    },
    {
      "inputs": [
        {
          "internalType": "address",
          "name": "account",
          "type": "address"
        }
      ],
      "name": "balanceOf",
      "outputs": [
        {
          "internalType": "uint256",
          "name": "",
          "type": "uint256"
        }
      ],
      "stateMutability": "view",
      "type": "function"
    },
    {
      "inputs": [],
      "name": "baseAPYMultiplier",
      "outputs": [
        {
          "internalType": "uint256",
          "name": "",
          "type": "uint256"
        }
      ],
      "stateMutability": "view",
      "type": "function"
    },
    {
      "inputs": [
        {
          "internalType": "uint256[]",
          "name": "amounts",
          "type": "uint256[]"
        },
        {
          "internalType": "uint256[]",
          "name": "lockPeriods",
          "type": "uint256[]"
        },
        {
          "internalType": "bool[]",
          "name": "autoCompounds",
          "type": "bool[]"
        }
      ],
      "name": "batchStake",
      "outputs": [],
      "stateMutability": "nonpayable",
      "type": "function"
    },
    {
      "inputs": [],
      "name": "bugFixVersion",
      "outputs": [
        {
          "internalType": "uint256",
          "name": "",
          "type": "uint256"
        }
      ],
      "stateMutability": "view",
      "type": "function"
    },
    {
      "inputs": [
        {
          "internalType": "address",
          "name": "user",
          "type": "address"
        },
        {
          "internalType": "uint256",
          "name": "stakeIndex",
          "type": "uint256"
        }
      ],
      "name": "calculateRewards",
      "outputs": [
        {
          "internalType": "uint256",
          "name": "",
          "type": "uint256"
        }
      ],
      "stateMutability": "view",
      "type": "function"
    },
    {
      "inputs": [
        {
          "internalType": "bool",
          "name": "enabled",
          "type": "bool"
        },
        {
          "internalType": "uint256",
          "name": "multiplier",
          "type": "uint256"
        }
      ],
      "name": "configureDynamicAPY",
      "outputs": [],
      "stateMutability": "nonpayable",
      "type": "function"
    },
    {
      "inputs": [],
      "name": "decimals",
      "outputs": [
        {
          "internalType": "uint8",
          "name": "",
          "type": "uint8"
        }
      ],
      "stateMutability": "view",
      "type": "function"
    },
    {
      "inputs": [],
      "name": "dynamicAPYEnabled",
      "outputs": [
        {
          "internalType": "bool",
          "name": "",
          "type": "bool"
        }
      ],
      "stateMutability": "view",
      "type": "function"
    },
    {
      "inputs": [],
      "name": "emergencyPause",
      "outputs": [],
      "stateMutability": "nonpayable",
      "type": "function"
    },
    {
      "inputs": [],
      "name": "emergencyUnpause",
      "outputs": [],
      "stateMutability": "nonpayable",
      "type": "function"
    },
    {
      "inputs": [
        {
          "internalType": "address",
          "name": "",
          "type": "address"
        }
      ],
      "name": "emergencyWithdrawalEnabled",
      "outputs": [
        {
          "internalType": "bool",
          "name": "",
          "type": "bool"
        }
      ],
      "stateMutability": "view",
      "type": "function"
    },
    {
      "inputs": [],
      "name": "executor",
      "outputs": [
        {
          "internalType": "address",
          "name": "",
          "type": "address"
        }
      ],
      "stateMutability": "view",
      "type": "function"
    },
    {
      "inputs": [],
      "name": "feeToBurnBP",
      "outputs": [
        {
          "internalType": "uint256",
          "name": "",
          "type": "uint256"
        }
      ],
      "stateMutability": "view",
      "type": "function"
    },
    {
      "inputs": [],
      "name": "feeToFounderBP",
      "outputs": [
        {
          "internalType": "uint256",
          "name": "",
          "type": "uint256"
        }
      ],
      "stateMutability": "view",
      "type": "function"
    },
    {
      "inputs": [],
      "name": "feeToTreasuryBP",
      "outputs": [
        {
          "internalType": "uint256",
          "name": "",
          "type": "uint256"
        }
      ],
      "stateMutability": "view",
      "type": "function"
    },
    {
      "inputs": [],
      "name": "founderWallet",
      "outputs": [
        {
          "internalType": "address",
          "name": "",
          "type": "address"
        }
      ],
      "stateMutability": "view",
      "type": "function"
    },
    {
      "inputs": [
        {
          "internalType": "uint256",
          "name": "lockPeriod",
          "type": "uint256"
        }
      ],
      "name": "getEffectiveAPY",
      "outputs": [
        {
          "internalType": "uint256",
          "name": "",
          "type": "uint256"
        }
      ],
      "stateMutability": "view",
      "type": "function"
    },
    {
      "inputs": [
        {
          "internalType": "address",
          "name": "user",
          "type": "address"
        }
      ],
      "name": "getStakeCount",
      "outputs": [
        {
          "internalType": "uint256",
          "name": "",
          "type": "uint256"
        }
      ],
      "stateMutability": "view",
      "type": "function"
    },
    {
      "inputs": [
        {
          "internalType": "address",
          "name": "user",
          "type": "address"
        }
      ],
      "name": "getUserStakingInfo",
      "outputs": [
        {
          "internalType": "uint256",
          "name": "totalUserStaked",
          "type": "uint256"
        },
        {
          "internalType": "uint256",
          "name": "totalPendingRewards",
          "type": "uint256"
        },
        {
          "internalType": "uint256",
          "name": "activeStakes",
          "type": "uint256"
        },
        {
          "internalType": "uint256",
          "name": "nextUnlockTime",
          "type": "uint256"
        }
      ],
      "stateMutability": "view",
      "type": "function"
    },
    {
      "inputs": [
        {
          "internalType": "uint256",
          "name": "",
          "type": "uint256"
        },
        {
          "internalType": "address",
          "name": "",
          "type": "address"
        }
      ],
      "name": "hasVoted",
      "outputs": [
        {
          "internalType": "bool",
          "name": "",
          "type": "bool"
        }
      ],
      "stateMutability": "view",
      "type": "function"
    },
    {
      "inputs": [
        {
          "internalType": "address",
          "name": "_treasury",
          "type": "address"
        },
        {
          "internalType": "address",
          "name": "_founder",
          "type": "address"
        },
        {
          "internalType": "address",
          "name": "_executor",
          "type": "address"
        }
      ],
      "name": "initialize",
      "outputs": [],
      "stateMutability": "nonpayable",
      "type": "function"
    },
    {
      "inputs": [],
      "name": "initializeV7",
      "outputs": [],
      "stateMutability": "nonpayable",
      "type": "function"
    },
    {
      "inputs": [
        {
          "internalType": "address",
          "name": "",
          "type": "address"
        }
      ],
      "name": "isFeeExempt",
      "outputs": [
        {
          "internalType": "bool",
          "name": "",
          "type": "bool"
        }
      ],
      "stateMutability": "view",
      "type": "function"
    },
    {
      "inputs": [],
      "name": "lastFeeChange",
      "outputs": [
        {
          "internalType": "uint256",
          "name": "",
          "type": "uint256"
        }
      ],
      "stateMutability": "view",
      "type": "function"
    },
    {
      "inputs": [
        {
          "internalType": "address",
          "name": "",
          "type": "address"
        }
      ],
      "name": "lastTxBlock",
      "outputs": [
        {
          "internalType": "uint256",
          "name": "",
          "type": "uint256"
        }
      ],
      "stateMutability": "view",
      "type": "function"
    },
    {
      "inputs": [
        {
          "internalType": "address",
          "name": "",
          "type": "address"
        }
      ],
      "name": "lastTxTime",
      "outputs": [
        {
          "internalType": "uint256",
          "name": "",
          "type": "uint256"
        }
      ],
      "stateMutability": "view",
      "type": "function"
    },
    {
      "inputs": [],
      "name": "name",
      "outputs": [
        {
          "internalType": "string",
          "name": "",
          "type": "string"
        }
      ],
      "stateMutability": "view",
      "type": "function"
    },
    {
      "inputs": [],
      "name": "owner",
      "outputs": [
        {
          "internalType": "address",
          "name": "",
          "type": "address"
        }
      ],
      "stateMutability": "view",
      "type": "function"
    },
    {
      "inputs": [],
      "name": "paused",
      "outputs": [
        {
          "internalType": "bool",
          "name": "",
          "type": "bool"
        }
      ],
      "stateMutability": "view",
      "type": "function"
    },
    {
      "inputs": [],
      "name": "proposalCount",
      "outputs": [
        {
          "internalType": "uint256",
          "name": "",
          "type": "uint256"
        }
      ],
      "stateMutability": "view",
      "type": "function"
    },
    {
      "inputs": [
        {
          "internalType": "uint256",
          "name": "",
          "type": "uint256"
        }
      ],
      "name": "proposals",
      "outputs": [
        {
          "internalType": "uint256",
          "name": "id",
          "type": "uint256"
        },
        {
          "internalType": "address",
          "name": "proposer",
          "type": "address"
        },
        {
          "internalType": "string",
          "name": "description",
          "type": "string"
        },
        {
          "internalType": "uint256",
          "name": "forVotes",
          "type": "uint256"
        },
        {
          "internalType": "uint256",
          "name": "againstVotes",
          "type": "uint256"
        },
        {
          "internalType": "uint256",
          "name": "startTime",
          "type": "uint256"
        },
        {
          "internalType": "uint256",
          "name": "endTime",
          "type": "uint256"
        },
        {
          "internalType": "bool",
          "name": "executed",
          "type": "bool"
        },
        {
          "internalType": "enum FIACoinV6Upgradeable.ProposalType",
          "name": "proposalType",
          "type": "uint8"
        },
        {
          "internalType": "bytes",
          "name": "proposalData",
          "type": "bytes"
        }
      ],
      "stateMutability": "view",
      "type": "function"
    },
    {
      "inputs": [
        {
          "internalType": "string",
          "name": "description",
          "type": "string"
        },
        {
          "internalType": "enum FIACoinV6Upgradeable.ProposalType",
          "name": "proposalType",
          "type": "uint8"
        },
        {
          "internalType": "bytes",
          "name": "proposalData",
          "type": "bytes"
        },
        {
          "internalType": "uint256",
          "name": "executionDelay",
          "type": "uint256"
        }
      ],
      "name": "proposeWithAutoExecution",
      "outputs": [
        {
          "internalType": "uint256",
          "name": "",
          "type": "uint256"
        }
      ],
      "stateMutability": "nonpayable",
      "type": "function"
    },
    {
      "inputs": [],
      "name": "proxiableUUID",
      "outputs": [
        {
          "internalType": "bytes32",
          "name": "",
          "type": "bytes32"
        }
      ],
      "stateMutability": "view",
      "type": "function"
    },
    {
      "inputs": [],
      "name": "renounceOwnership",
      "outputs": [],
      "stateMutability": "nonpayable",
      "type": "function"
    },
    {
      "inputs": [],
      "name": "rewardPool",
      "outputs": [
        {
          "internalType": "uint256",
          "name": "",
          "type": "uint256"
        }
      ],
      "stateMutability": "view",
      "type": "function"
    },
    {
      "inputs": [
        {
          "internalType": "bool",
          "name": "enabled",
          "type": "bool"
        }
      ],
      "name": "setEmergencyWithdrawal",
      "outputs": [],
      "stateMutability": "nonpayable",
      "type": "function"
    },
    {
      "inputs": [
        {
          "internalType": "uint256",
          "name": "_totalFeeBP",
          "type": "uint256"
        }
      ],
      "name": "setTotalFeeBP",
      "outputs": [],
      "stateMutability": "nonpayable",
      "type": "function"
    },
    {
      "inputs": [
        {
          "internalType": "uint256",
          "name": "amount",
          "type": "uint256"
        },
        {
          "internalType": "uint256",
          "name": "lockPeriod",
          "type": "uint256"
        },
        {
          "internalType": "bool",
          "name": "autoCompound",
          "type": "bool"
        }
      ],
      "name": "stake",
      "outputs": [],
      "stateMutability": "nonpayable",
      "type": "function"
    },
    {
      "inputs": [
        {
          "internalType": "uint256",
          "name": "lockPeriod",
          "type": "uint256"
        }
      ],
      "name": "stakingAPY",
      "outputs": [
        {
          "internalType": "uint256",
          "name": "",
          "type": "uint256"
        }
      ],
      "stateMutability": "pure",
      "type": "function"
    },
    {
      "inputs": [],
      "name": "symbol",
      "outputs": [
        {
          "internalType": "string",
          "name": "",
          "type": "string"
        }
      ],
      "stateMutability": "view",
      "type": "function"
    },
    {
      "inputs": [],
      "name": "tokenStats",
      "outputs": [
        {
          "internalType": "uint256",
          "name": "totalFeeCollected",
          "type": "uint256"
        },
        {
          "internalType": "uint256",
          "name": "totalBurned",
          "type": "uint256"
        },
        {
          "internalType": "uint256",
          "name": "totalStaked",
          "type": "uint256"
        },
        {
          "internalType": "uint256",
          "name": "uniqueHolders",
          "type": "uint256"
        },
        {
          "internalType": "uint256",
          "name": "transactionCount",
          "type": "uint256"
        }
      ],
      "stateMutability": "view",
      "type": "function"
    },
    {
      "inputs": [],
      "name": "totalFeeBP",
      "outputs": [
        {
          "internalType": "uint256",
          "name": "",
          "type": "uint256"
        }
      ],
      "stateMutability": "view",
      "type": "function"
    },
    {
      "inputs": [],
      "name": "totalStaked",
      "outputs": [
        {
          "internalType": "uint256",
          "name": "",
          "type": "uint256"
        }
      ],
      "stateMutability": "view",
      "type": "function"
    },
    {
      "inputs": [],
      "name": "totalSupply",
      "outputs": [
        {
          "internalType": "uint256",
          "name": "",
          "type": "uint256"
        }
      ],
      "stateMutability": "view",
      "type": "function"
    },
    {
      "inputs": [
        {
          "internalType": "address",
          "name": "to",
          "type": "address"
        },
        {
          "internalType": "uint256",
          "name": "value",
          "type": "uint256"
        }
      ],
      "name": "transfer",
      "outputs": [
        {
          "internalType": "bool",
          "name": "",
          "type": "bool"
        }
      ],
      "stateMutability": "nonpayable",
      "type": "function"
    },
    {
      "inputs": [
        {
          "internalType": "address",
          "name": "from",
          "type": "address"
        },
        {
          "internalType": "address",
          "name": "to",
          "type": "address"
        },
        {
          "internalType": "uint256",
          "name": "value",
          "type": "uint256"
        }
      ],
      "name": "transferFrom",
      "outputs": [
        {
          "internalType": "bool",
          "name": "",
          "type": "bool"
        }
      ],
      "stateMutability": "nonpayable",
      "type": "function"
    },
    {
      "inputs": [
        {
          "internalType": "address",
          "name": "newOwner",
          "type": "address"
        }
      ],
      "name": "transferOwnership",
      "outputs": [],
      "stateMutability": "nonpayable",
      "type": "function"
    },
    {
      "inputs": [],
      "name": "treasury",
      "outputs": [
        {
          "internalType": "address",
          "name": "",
          "type": "address"
        }
      ],
      "stateMutability": "view",
      "type": "function"
    },
    {
      "inputs": [],
      "name": "txLimits",
      "outputs": [
        {
          "internalType": "uint256",
          "name": "maxTxAmount",
          "type": "uint256"
        },
        {
          "internalType": "uint256",
          "name": "maxWalletAmount",
          "type": "uint256"
        },
        {
          "internalType": "uint256",
          "name": "txCooldown",
          "type": "uint256"
        },
        {
          "internalType": "bool",
          "name": "limitsActive",
          "type": "bool"
        }
      ],
      "stateMutability": "view",
      "type": "function"
    },
    {
      "inputs": [
        {
          "internalType": "uint256",
          "name": "stakeIndex",
          "type": "uint256"
        }
      ],
      "name": "unstake",
      "outputs": [],
      "stateMutability": "nonpayable",
      "type": "function"
    },
    {
      "inputs": [
        {
          "internalType": "address",
          "name": "newImplementation",
          "type": "address"
        },
        {
          "internalType": "bytes",
          "name": "data",
          "type": "bytes"
        }
      ],
      "name": "upgradeToAndCall",
      "outputs": [],
      "stateMutability": "payable",
      "type": "function"
    },
    {
      "inputs": [
        {
          "internalType": "bytes32",
          "name": "",
          "type": "bytes32"
        }
      ],
      "name": "usedNonces",
      "outputs": [
        {
          "internalType": "bool",
          "name": "",
          "type": "bool"
        }
      ],
      "stateMutability": "view",
      "type": "function"
    },
    {
      "inputs": [
        {
          "internalType": "address",
          "name": "",
          "type": "address"
        },
        {
          "internalType": "uint256",
          "name": "",
          "type": "uint256"
        }
      ],
      "name": "userStakes",
      "outputs": [
        {
          "internalType": "uint256",
          "name": "amount",
          "type": "uint256"
        },
        {
          "internalType": "uint256",
          "name": "stakingTime",
          "type": "uint256"
        },
        {
          "internalType": "uint256",
          "name": "lastRewardClaim",
          "type": "uint256"
        },
        {
          "internalType": "uint256",
          "name": "lockPeriod",
          "type": "uint256"
        },
        {
          "internalType": "bool",
          "name": "autoCompound",
          "type": "bool"
        }
      ],
      "stateMutability": "view",
      "type": "function"
    },
    {
      "inputs": [
        {
          "internalType": "address",
          "name": "",
          "type": "address"
        }
      ],
      "name": "userStats",
      "outputs": [
        {
          "internalType": "uint256",
          "name": "totalFeesPaid",
          "type": "uint256"
        },
        {
          "internalType": "uint256",
          "name": "totalStakingRewards",
          "type": "uint256"
        },
        {
          "internalType": "uint256",
          "name": "transactionCount",
          "type": "uint256"
        },
        {
          "internalType": "uint256",
          "name": "firstTransactionTime",
          "type": "uint256"
        }
      ],
      "stateMutability": "view",
      "type": "function"
    },
    {
      "inputs": [],
      "name": "version",
      "outputs": [
        {
          "internalType": "string",
          "name": "",
          "type": "string"
        }
      ],
      "stateMutability": "pure",
      "type": "function"
    },
    {
      "inputs": [
        {
          "internalType": "uint256",
          "name": "",
          "type": "uint256"
        },
        {
          "internalType": "address",
          "name": "",
          "type": "address"
        }
      ],
      "name": "votingPower",
      "outputs": [
        {
          "internalType": "uint256",
          "name": "",
          "type": "uint256"
        }
      ],
      "stateMutability": "view",
      "type": "function"
    }
  ],
  "bytecode": "0x60a06040523073ffffffffffffffffffffffffffffffffffffffff1660809073ffffffffffffffffffffffffffffffffffffffff168152503480156200004457600080fd5b506200006167f445c508992f6a0260c01b620000af60201b60201c565b6200007d675251b44040f1000260c01b620000af60201b60201c565b6200009967781bdc879ef3659f60c01b620000af60201b60201c565b620000a9620000b260201b60201c565b62000245565b50565b6000620000c4620001bc60201b60201c565b90508060000160089054906101000a900460ff161562000110576040517ff92ee8a900000000000000000000000000000000000000000000000000000000815260040160405180910390fd5b67ffffffffffffffff80168160000160009054906101000a900467ffffffffffffffff1667ffffffffffffffff1614620001b95767ffffffffffffffff8160000160006101000a81548167ffffffffffffffff021916908367ffffffffffffffff1602179055507fc7f505b2f371ae2175ee4913f4499e1f2633a7b5936321eed1cdaeb6115181d267ffffffffffffffff604051620001b0919062000228565b60405180910390a15b50565b600080620001cf620001d860201b60201c565b90508091505090565b60007ff0c57e16840df040f15088dc2f81fe391c3923bec73e23a9662efc9c229c6a0060001b905090565b600067ffffffffffffffff82169050919050565b620002228162000203565b82525050565b60006020820190506200023f600083018462000217565b92915050565b6080516186196200026f600039600081816156bf01528181615714015261597d01526186196000f3fe6080604052600436106104055760003560e01c8063817b1cd211610213578063c0c53b8b11610123578063ec9870df116100ab578063f270fde41161007a578063f270fde414611009578063f2fde38b14611037578063f614134514611060578063f7d88db11461108b578063feb61724146110b457610405565b8063ec9870df14610f5f578063ee8a7c1514610f88578063eef3c7a614610fb3578063ef87b24b14610fde57610405565b8063cf57ee69116100f2578063cf57ee6914610e52578063d90125a514610e8f578063da35c66414610ecc578063dd62ed3e14610ef7578063e37c3a5514610f3457610405565b8063c0c53b8b14610daa578063c34c08e514610dd3578063c8bf908714610dfe578063ceb88a1614610e1557610405565b8063a6c26603116101a6578063b0dfd2e611610175578063b0dfd2e614610ca7578063b1610d7e14610cd6578063b5d5b5fa14610d01578063be8a361f14610d42578063beb8314c14610d6d57610405565b8063a6c2660314610bd7578063a9059cbb14610c02578063aa473e7014610c3f578063ad3cb1cc14610c7c57610405565b80638da5cb5b116101e25780638da5cb5b14610b2b578063902d55a514610b5657806395d89b4114610b81578063a23d3c3514610bac57610405565b8063817b1cd214610a585780638286521814610a83578063875bb4e214610aae5780638a65d87414610aeb57610405565b80634f1ef2861161031957806361d027b3116102a157806370a082311161027057806370a082311461096e578063715018a6146109ab5780637c4ccbea146109c25780637c6e5db7146109ed5780638093360814610a1857610405565b806361d027b3146108b057806366666aa9146108db57806369505688146109065780636f21d5911461093157610405565b80635330dd2f116102e85780635330dd2f146107db57806354fd4d501461080657806355ef9b5e14610831578063561b24631461085c5780635c975abb1461088557610405565b80634f1ef2861461075257806351383f981461076e57806351858e271461079957806352d1902d146107b057610405565b806323b872dd1161039c57806337f135d71161036b57806337f135d7146106595780633a3be4e6146106845780633f4218e0146106c157806343859632146106fe5780634a4e3bd51461073b57610405565b806323b872dd1461059f5780632a276796146105dc5780632e17de7814610605578063313ce5671461062e57610405565b8063120a8151116103d8578063120a8151146104e357806317d636051461050e57806318160ddd1461054b5780631f1f5bb31461057657610405565b8063013cf08b1461040a57806306fdde0314610450578063095ea7b31461047b578063118725ce146104b8575b600080fd5b34801561041657600080fd5b50610431600480360381019061042c919061676a565b6110f1565b6040516104479a9998979695949392919061695e565b60405180910390f35b34801561045c57600080fd5b5061046561128f565b6040516104729190616a08565b60405180910390f35b34801561048757600080fd5b506104a2600480360381019061049d9190616a56565b611330565b6040516104af9190616a96565b60405180910390f35b3480156104c457600080fd5b506104cd611353565b6040516104da9190616ab1565b60405180910390f35b3480156104ef57600080fd5b506104f8611359565b6040516105059190616ab1565b60405180910390f35b34801561051a57600080fd5b5061053560048036038101906105309190616acc565b61135f565b6040516105429190616ab1565b60405180910390f35b34801561055757600080fd5b50610560611377565b60405161056d9190616ab1565b60405180910390f35b34801561058257600080fd5b5061059d6004803603810190610598919061676a565b61138f565b005b3480156105ab57600080fd5b506105c660048036038101906105c19190616af9565b6115d3565b6040516105d39190616a96565b60405180910390f35b3480156105e857600080fd5b5061060360048036038101906105fe9190616b78565b611602565b005b34801561061157600080fd5b5061062c6004803603810190610627919061676a565b61176e565b005b34801561063a57600080fd5b5061064361204b565b6040516106509190616bc1565b60405180910390f35b34801561066557600080fd5b5061066e612054565b60405161067b9190616ab1565b60405180910390f35b34801561069057600080fd5b506106ab60048036038101906106a69190616cbc565b61205b565b6040516106b89190616ab1565b60405180910390f35b3480156106cd57600080fd5b506106e860048036038101906106e39190616acc565b612404565b6040516106f59190616a96565b60405180910390f35b34801561070a57600080fd5b5061072560048036038101906107209190616d63565b612424565b6040516107329190616a96565b60405180910390f35b34801561074757600080fd5b50610750612453565b005b61076c60048036038101906107679190616ed3565b612544565b005b34801561077a57600080fd5b50610783612563565b6040516107909190616ab1565b60405180910390f35b3480156107a557600080fd5b506107ae61256b565b005b3480156107bc57600080fd5b506107c561265c565b6040516107d29190616f48565b60405180910390f35b3480156107e757600080fd5b506107f061268f565b6040516107fd9190616ab1565b60405180910390f35b34801561081257600080fd5b5061081b612695565b6040516108289190616a08565b60405180910390f35b34801561083d57600080fd5b5061084661270e565b6040516108539190616ab1565b60405180910390f35b34801561086857600080fd5b50610883600480360381019061087e9190616f63565b612714565b005b34801561089157600080fd5b5061089a612c3e565b6040516108a79190616a96565b60405180910390f35b3480156108bc57600080fd5b506108c5612c63565b6040516108d29190616fb6565b60405180910390f35b3480156108e757600080fd5b506108f0612c89565b6040516108fd9190616ab1565b60405180910390f35b34801561091257600080fd5b5061091b612c8f565b6040516109289190616ab1565b60405180910390f35b34801561093d57600080fd5b5061095860048036038101906109539190616acc565b612c95565b6040516109659190616a96565b60405180910390f35b34801561097a57600080fd5b5061099560048036038101906109909190616acc565b612cb5565b6040516109a29190616ab1565b60405180910390f35b3480156109b757600080fd5b506109c0612d0c565b005b3480156109ce57600080fd5b506109d7612d20565b6040516109e49190616ab1565b60405180910390f35b3480156109f957600080fd5b50610a02612d25565b604051610a0f9190616ab1565b60405180910390f35b348015610a2457600080fd5b50610a3f6004803603810190610a3a9190616acc565b612d2c565b604051610a4f9493929190616fd1565b60405180910390f35b348015610a6457600080fd5b50610a6d613152565b604051610a7a9190616ab1565b60405180910390f35b348015610a8f57600080fd5b50610a98613158565b604051610aa59190616ab1565b60405180910390f35b348015610aba57600080fd5b50610ad56004803603810190610ad0919061676a565b61315f565b604051610ae29190616ab1565b60405180910390f35b348015610af757600080fd5b50610b126004803603810190610b0d9190616acc565b613388565b604051610b229493929190616fd1565b60405180910390f35b348015610b3757600080fd5b50610b406133b8565b604051610b4d9190616fb6565b60405180910390f35b348015610b6257600080fd5b50610b6b6133f0565b604051610b789190616ab1565b60405180910390f35b348015610b8d57600080fd5b50610b96613402565b604051610ba39190616a08565b60405180910390f35b348015610bb857600080fd5b50610bc16134a3565b604051610bce9190616fb6565b60405180910390f35b348015610be357600080fd5b50610bec6134c9565b604051610bf99190616ab1565b60405180910390f35b348015610c0e57600080fd5b50610c296004803603810190610c249190616a56565b6134d7565b604051610c369190616a96565b60405180910390f35b348015610c4b57600080fd5b50610c666004803603810190610c61919061676a565b6134fa565b604051610c739190616ab1565b60405180910390f35b348015610c8857600080fd5b50610c9161372b565b604051610c9e9190616a08565b60405180910390f35b348015610cb357600080fd5b50610cbc613764565b604051610ccd959493929190617016565b60405180910390f35b348015610ce257600080fd5b50610ceb613788565b604051610cf89190616ab1565b60405180910390f35b348015610d0d57600080fd5b50610d286004803603810190610d239190616a56565b61378f565b604051610d39959493929190617069565b60405180910390f35b348015610d4e57600080fd5b50610d576137ef565b604051610d649190616ab1565b60405180910390f35b348015610d7957600080fd5b50610d946004803603810190610d8f9190616a56565b6137f6565b604051610da19190616ab1565b60405180910390f35b348015610db657600080fd5b50610dd16004803603810190610dcc91906170bc565b613dea565b005b348015610ddf57600080fd5b50610de86144bd565b604051610df59190616fb6565b60405180910390f35b348015610e0a57600080fd5b50610e136144e3565b005b348015610e2157600080fd5b50610e3c6004803603810190610e379190616acc565b6146ea565b604051610e499190616ab1565b60405180910390f35b348015610e5e57600080fd5b50610e796004803603810190610e749190616acc565b614702565b604051610e869190616ab1565b60405180910390f35b348015610e9b57600080fd5b50610eb66004803603810190610eb19190616d63565b61478a565b604051610ec39190616ab1565b60405180910390f35b348015610ed857600080fd5b50610ee16147af565b604051610eee9190616ab1565b60405180910390f35b348015610f0357600080fd5b50610f1e6004803603810190610f19919061710f565b6147b5565b604051610f2b9190616ab1565b60405180910390f35b348015610f4057600080fd5b50610f4961484a565b604051610f569190616ab1565b60405180910390f35b348015610f6b57600080fd5b50610f866004803603810190610f8191906171fb565b614851565b005b348015610f9457600080fd5b50610f9d61511d565b604051610faa9190616ab1565b60405180910390f35b348015610fbf57600080fd5b50610fc8615122565b604051610fd59190616a96565b60405180910390f35b348015610fea57600080fd5b50610ff3615135565b6040516110009190616ab1565b60405180910390f35b34801561101557600080fd5b5061101e61513b565b60405161102e94939291906172af565b60405180910390f35b34801561104357600080fd5b5061105e60048036038101906110599190616acc565b615166565b005b34801561106c57600080fd5b506110756151ec565b6040516110829190616ab1565b60405180910390f35b34801561109757600080fd5b506110b260048036038101906110ad91906172f4565b6151f2565b005b3480156110c057600080fd5b506110db60048036038101906110d69190617360565b615387565b6040516110e89190616a96565b60405180910390f35b600a6020528060005260406000206000915090508060000154908060010160009054906101000a900473ffffffffffffffffffffffffffffffffffffffff1690806002018054611140906173bc565b80601f016020809104026020016040519081016040528092919081815260200182805461116c906173bc565b80156111b95780601f1061118e576101008083540402835291602001916111b9565b820191906000526020600020905b81548152906001019060200180831161119c57829003601f168201915b5050505050908060030154908060040154908060050154908060060154908060070160009054906101000a900460ff16908060070160019054906101000a900460ff169080600801805461120c906173bc565b80601f0160208091040260200160405190810160405280929190818152602001828054611238906173bc565b80156112855780601f1061125a57610100808354040283529160200191611285565b820191906000526020600020905b81548152906001019060200180831161126857829003601f168201915b505050505090508a565b6060600061129b6153a7565b90508060030180546112ac906173bc565b80601f01602080910402602001604051908101604052809291908181526020018280546112d8906173bc565b80156113255780601f106112fa57610100808354040283529160200191611325565b820191906000526020600020905b81548152906001019060200180831161130857829003601f168201915b505050505091505090565b60008061133b6153cf565b90506113488185856153d7565b600191505092915050565b60025481565b60035481565b601b6020528060005260406000206000915090505481565b6000806113826153a7565b9050806002015491505090565b6113a3676de053d4b90de3c860c01b6153e9565b6113ab6153ec565b6113bf6769f84dbf0fc76a2c60c01b6153e9565b6113d367752aef1497f971b860c01b6153e9565b6113e767771b212ac877ab1e60c01b6153e9565b6113fb67839dc77d67686d7560c01b6153e9565b61140f675e22980668624d4260c01b6153e9565b60c8811115611453576040517f08c379a000000000000000000000000000000000000000000000000000000000815260040161144a90617439565b60405180910390fd5b61146767b35370658014425560c01b6153e9565b61147b674861632a43f3fec160c01b6153e9565b61148f67bdcbb0c45eb90a5a60c01b6153e9565b6114a367056f20e3f84054e760c01b6153e9565b620151806004546114b49190617488565b4210156114f6576040517f08c379a00000000000000000000000000000000000000000000000000000000081526004016114ed90617508565b60405180910390fd5b61150a67081347f9a86eb45b60c01b6153e9565b61151e67e7e80143346a400360c01b6153e9565b61153267afad6d371159903360c01b6153e9565b60008054905061154c67f5bf186109910c4c60c01b6153e9565b8160008190555061156767d900cb089566462460c01b6153e9565b42600481905550611582671d04f83ad0dbb05c60c01b6153e9565b611596679dada60cd15b2a6060c01b6153e9565b7fcf4c3ba0667a6e28c2746a4ee8d23efa18b2ca17591c2a22c36773a0232661d881836040516115c7929190617528565b60405180910390a15050565b6000806115de6153cf565b90506115eb858285615473565b6115f6858585615508565b60019150509392505050565b61161667fb40bded6033963660c01b6155fc565b61162a676369db9e9cebfe8060c01b6155fc565b80601d60003373ffffffffffffffffffffffffffffffffffffffff1673ffffffffffffffffffffffffffffffffffffffff16815260200190815260200160002060006101000a81548160ff021916908315150217905550611695674ce907e2ca384dbb60c01b6155fc565b6116a967510b864ed2f45dc260c01b6155fc565b3373ffffffffffffffffffffffffffffffffffffffff167fcf90d7e7483c85e71c861c0359a7d8b146290c7f6025ce0f8f9332f5e14dcee9826040516116ef9190616a96565b60405180910390a261170b6791beb5518631b83760c01b6155fc565b61171f674bbb1022df5bcdb160c01b6155fc565b3373ffffffffffffffffffffffffffffffffffffffff167f17bba2ce2e99d306dbd37ea822b0c70cdd9c9ddf3927ff87a53baa30281f93786040516117639061759d565b60405180910390a250565b611782671e934d76a8f35c3360c01b6155fc565b61178a6155ff565b61179e675f62395a03118f4260c01b6155fc565b6117b2670d39c75bb8c36e1560c01b6155fc565b6117c667ad2818f338b29fb260c01b6155fc565b6117da671ce259f95f812d8c60c01b6155fc565b6117ee675bb24e44bb69375160c01b6155fc565b600d60003373ffffffffffffffffffffffffffffffffffffffff1673ffffffffffffffffffffffffffffffffffffffff168152602001908152602001600020805490508110611872576040517f08c379a000000000000000000000000000000000000000000000000000000000815260040161186990617609565b60405180910390fd5b6118866743e79e13e9b491f360c01b6155fc565b61189a672c0216bad2a6b9eb60c01b6155fc565b6118ae67affc84f8577fdf7560c01b6155fc565b6000600d60003373ffffffffffffffffffffffffffffffffffffffff1673ffffffffffffffffffffffffffffffffffffffff168152602001908152602001600020828154811061190157611900617629565b5b906000526020600020906005020190506119256796e5381caabe338f60c01b6155fc565b611939677181d6f8c15b924d60c01b6155fc565b61194d6717ecb0f658f3b78260c01b6155fc565b6000816000015411611994576040517f08c379a000000000000000000000000000000000000000000000000000000000815260040161198b906176a4565b60405180910390fd5b6119a86718b82b1a831e634960c01b6155fc565b6119bc67d9195e042549bcb160c01b6155fc565b6119d0674c3678ab0e46dc5760c01b6155fc565b6000816003015482600101546119e69190617488565b42101590506119ff6735c222c6c18a845a60c01b6155fc565b611a136738dbfedef2cfd88c60c01b6155fc565b6000601d60003373ffffffffffffffffffffffffffffffffffffffff1673ffffffffffffffffffffffffffffffffffffffff16815260200190815260200160002060009054906101000a900460ff169050611a786778f533ba8609346960c01b6155fc565b611a8c67310af476a476cf1360c01b6155fc565b611aa067ba4fedb42ada608b60c01b6155fc565b818015611abd5750611abc67f837bd025050a28460c01b615640565b5b80611ae15750808015611ae05750611adf67750670981a2d8f1c60c01b615640565b5b5b611b20576040517f08c379a0000000000000000000000000000000000000000000000000000000008152600401611b1790617736565b60405180910390fd5b611b34674f2139e15575d47260c01b6155fc565b611b4867756ccebabd68bad260c01b6155fc565b611b5c6743c5d08b3bebbe1a60c01b6155fc565b600083600001549050611b79671ebcbf326b76e91060c01b6155fc565b611b8d677b0e6ce2e01a4deb60c01b6155fc565b6000611ba367fd5516aae7e6958160c01b6155fc565b611bb767bf71153db76e260760c01b6155fc565b8315611ccd57611bd167086ac408f4a2de6160c01b6155fc565b611be567607f2c687b02872e60c01b6155fc565b3073ffffffffffffffffffffffffffffffffffffffff1663beb8314c33886040518363ffffffff1660e01b8152600401611c20929190617756565b602060405180830381865afa158015611c3d573d6000803e3d6000fd5b505050506040513d601f19601f82011682018060405250810190611c619190617794565b9050611c7767de7fc49f17fa4e8460c01b6155fc565b611c8b67a0ac0f6c4151a73c60c01b6155fc565b600f54811115611cb357611ca96761e6754ccd8a76f160c01b6155fc565b600f549050611cc8565b611cc767ac7ac4e7e49bfdf360c01b6155fc565b5b611ddf565b611ce1677dcfff493b55051f60c01b6155fc565b611cf56768c93df5d440587560c01b6155fc565b611d09678ef8fcba83c8d45360c01b6155fc565b6000600a83611d1891906177f0565b9050611d2e678ba57d4b72d78c6e60c01b6155fc565b8083611d3a9190617821565b9250611d5067756800b80d795d2560c01b6155fc565b80600f6000828254611d629190617488565b92505081905550611d7d678fddfc063fb2299b60c01b6155fc565b611d9167b3cdb05ae800c86460c01b6155fc565b3373ffffffffffffffffffffffffffffffffffffffff167f17bba2ce2e99d306dbd37ea822b0c70cdd9c9ddf3927ff87a53baa30281f9378604051611dd5906178a1565b60405180910390a2505b611df367babe0917354a365960c01b6155fc565b60008560000181905550611e11671f11f2ecf8c2b14160c01b6155fc565b81600e6000828254611e239190617821565b92505081905550611e3e671df1f6964fb72c4f60c01b6155fc565b611e5267d80fba81a6b942eb60c01b6155fc565b6000811115611ea157611e6f670201c6c9a243aadc60c01b6155fc565b611e8367280f835acaaa814d60c01b6155fc565b80600f6000828254611e959190617821565b92505081905550611eb6565b611eb567b7da47bb86b425b860c01b6155fc565b5b611eca67d04fe0d1481bbf3560c01b6155fc565b611ede678fe091a69393fe5760c01b6155fc565b611ef430338385611eef9190617488565b615508565b611f0867c1d635c2a5e17abc60c01b6155fc565b611f1c67909e85285767451a60c01b6155fc565b3373ffffffffffffffffffffffffffffffffffffffff167f7fc4727e062e336010f2c282598ef5f14facb3de68cf8195c2f23e1454b2b74e8388604051611f64929190617528565b60405180910390a2611f8067209c4bbd4fe7608b60c01b6155fc565b611f9467d172bbe2333c313160c01b6155fc565b600081111561202e57611fb167646ad6ccd73ed45d60c01b6155fc565b611fc567a2c5a9d0a6ebe0a460c01b6155fc565b611fd967ce15582ad8c30a1c60c01b6155fc565b3373ffffffffffffffffffffffffffffffffffffffff167ff01da32686223933d8a18a391060918c7f11a3648639edd87ae013e2e27317438288604051612021929190617528565b60405180910390a2612043565b612042676e571112615668f860c01b6155fc565b5b505050505050565b60006012905090565b6202a30081565b600061207167afcfcf69b3e3570d60c01b6155fc565b61208567e8203d895ef5688060c01b6155fc565b612099674b6291e57f84553760c01b6155fc565b6120ad67b8b8e3415bb091d760c01b6155fc565b6202a3008210156120f3576040517f08c379a00000000000000000000000000000000000000000000000000000000081526004016120ea9061790d565b60405180910390fd5b612107678c8a04bd87e1cd6d60c01b6155fc565b61211b670d9b5b2db91f911f60c01b6155fc565b61212f67060bc503fc6380f660c01b6155fc565b61214367d6a24acb40b06bf160c01b6155fc565b62278d00821115612189576040517f08c379a000000000000000000000000000000000000000000000000000000000815260040161218090617979565b60405180910390fd5b61219d6777ef592df7cd1d8660c01b6155fc565b6121b1677c176dfa2e7878ac60c01b6155fc565b6121c567338f8838ba7897d360c01b6155fc565b6000600960008154809291906121da90617999565b9190505590506121f467309b2e748652e33760c01b6155fc565b612208674eade39f8a7b66d560c01b6155fc565b6000600a600083815260200190815260200160002090506122336702ca0b9ff643c90b60c01b6155fc565b8888826002019182612246929190617b98565b5061225b679946535c1a080d2960c01b6155fc565b868160070160016101000a81548160ff0219169083600381111561228257612281616892565b5b021790555061229b67545a25d87a53411260c01b6155fc565b85858260080191826122ae929190617cce565b506122c36726f79796c2a4352260c01b6155fc565b338160010160006101000a81548173ffffffffffffffffffffffffffffffffffffffff021916908373ffffffffffffffffffffffffffffffffffffffff16021790555061231a67c7a068d593ea5cfe60c01b6155fc565b428160050181905550612337672b1065752642d5a960c01b6155fc565b8362093a80426123479190617488565b6123519190617488565b816006018190555061236d67375b5dc716dffff460c01b6155fc565b61238167ca6900177cd3cce660c01b6155fc565b3373ffffffffffffffffffffffffffffffffffffffff167f17bba2ce2e99d306dbd37ea822b0c70cdd9c9ddf3927ff87a53baa30281f93786040516123c590617dea565b60405180910390a26123e16784cf8beb7f17b38b60c01b6155fc565b6123f5678681d201a6a4d71b60c01b6155fc565b81925050509695505050505050565b60086020528060005260406000206000915054906101000a900460ff1681565b600b6020528160005260406000206020528060005260406000206000915091509054906101000a900460ff1681565b61246767d5a74a24bc18ffca60c01b6153e9565b61246f6153ec565b612483679742841a3f7e3b2c60c01b6153e9565b612497679cb07e6f50eaf65c60c01b6153e9565b6124ab67f72da381e9e6f6b260c01b6153e9565b6124bf674ce00db93821922360c01b6153e9565b6124c761564b565b6124db67557f6822ad0d92a560c01b6153e9565b6124ef671cb550f487385a2360c01b6153e9565b6124f76153cf565b73ffffffffffffffffffffffffffffffffffffffff167f2a09e26ec96218a3a144df2e04de096b7f0410106a4caff3cdfa5d667e604f2a60405161253a90617e56565b60405180910390a2565b61254c6156bd565b612555826157a3565b61255f82826157ea565b5050565b6301e1338081565b61257f6751688a5a46ed1dbc60c01b6153e9565b6125876153ec565b61259b67d2ec829812d2b89c60c01b6153e9565b6125af672e1e4fb46b0567b160c01b6153e9565b6125c367d496f001aa65524b60c01b6153e9565b6125d767e2b878d951af04e860c01b6153e9565b6125df615909565b6125f36706636b095d90ed4e60c01b6153e9565b612607671eff50d55096cc4f60c01b6153e9565b61260f6153cf565b73ffffffffffffffffffffffffffffffffffffffff167f2a09e26ec96218a3a144df2e04de096b7f0410106a4caff3cdfa5d667e604f2a60405161265290617ec2565b60405180910390a2565b600061266661597b565b7f360894a13ba1a3210667c828492db98dca3e2076cc3735a920a3ca505d382bbc60001b905090565b60205481565b60606126ab679c0b013b778f5fd660c01b6155fc565b6126bf679e92ecd8cefe7ffd60c01b6155fc565b6126d36708cf2a19bbef0d4660c01b6155fc565b6040518060400160405280600581526020017f372e302e30000000000000000000000000000000000000000000000000000000815250905090565b60015481565b612728674bd36cb6746fac1760c01b6153e9565b6127306155ff565b6127446766bff4b3164c0c2f60c01b6153e9565b61275867d27bd329ce1d134d60c01b6153e9565b61276c6747529770f836489160c01b6153e9565b61278067e605ccb1ef61886460c01b6153e9565b61279467881c79a37bc0fddc60c01b6153e9565b600083116127d7576040517f08c379a00000000000000000000000000000000000000000000000000000000081526004016127ce90617f2e565b60405180910390fd5b6127eb677b952f00b08248d860c01b6153e9565b6127ff67da038e982e30271d60c01b6153e9565b6128136741c9c3ef894cca0660c01b6153e9565b61282767b2326fbc7294085360c01b6153e9565b62278d008214801561284957506128486797c95d5a9616ac7c60c01b615a02565b5b8061288e57506276a70082148015612871575061287067362349ba6e0b1b0b60c01b615a02565b5b801561288d575061288c6776b2f04d680caee760c01b615a02565b5b5b806128d3575062ed4e00821480156128b657506128b567796f0eb1a8a83bcb60c01b615a02565b5b80156128d257506128d1677e30009b8c07be9b60c01b615a02565b5b5b806128fd57506301e13380821480156128fc57506128fb67bce4758d5858b53760c01b615a02565b5b5b61293c576040517f08c379a000000000000000000000000000000000000000000000000000000000815260040161293390617f9a565b60405180910390fd5b61295067227c4cbabbc1b31560c01b6153e9565b61296467fb58fbded218e23060c01b6153e9565b6129786744c60acfa0a007ad60c01b6153e9565b61298c67157da678bdfcf3f360c01b6153e9565b8261299d6129986153cf565b612cb5565b10156129de576040517f08c379a00000000000000000000000000000000000000000000000000000000081526004016129d590618006565b60405180910390fd5b6129f2672b59d1ebf9c866c160c01b6153e9565b612a0667f80dd50892780aee60c01b6153e9565b612a1a67a448ff79eee3a9f660c01b6153e9565b612a2c612a256153cf565b3085615508565b612a4067602963fe18b9450160c01b6153e9565b612a5467b618b096deaedcad60c01b6153e9565b600d6000612a606153cf565b73ffffffffffffffffffffffffffffffffffffffff1673ffffffffffffffffffffffffffffffffffffffff1681526020019081526020016000206040518060a0016040528085815260200142815260200142815260200184815260200183151581525090806001815401808255809150506001900390600052602060002090600502016000909190919091506000820151816000015560208201518160010155604082015181600201556060820151816003015560808201518160040160006101000a81548160ff0219169083151502179055505050612b4a67392d8c5de9e24ea860c01b6153e9565b82600e6000828254612b5c9190617488565b92505081905550612b7767498053159c6c6e2460c01b6153e9565b612b8b670d092686672ead7560c01b6153e9565b612b936153cf565b73ffffffffffffffffffffffffffffffffffffffff167fb4caaf29adda3eefee3ad552a8e85058589bf834c7466cae4ee58787f70589ed84846001600d6000612bda6153cf565b73ffffffffffffffffffffffffffffffffffffffff1673ffffffffffffffffffffffffffffffffffffffff16815260200190815260200160002080549050612c229190617821565b604051612c3193929190618026565b60405180910390a2505050565b600080612c49615a0d565b90508060000160009054906101000a900460ff1691505090565b600560009054906101000a900473ffffffffffffffffffffffffffffffffffffffff1681565b600f5481565b60045481565b601d6020528060005260406000206000915054906101000a900460ff1681565b600080612cc06153a7565b90508060000160008473ffffffffffffffffffffffffffffffffffffffff1673ffffffffffffffffffffffffffffffffffffffff16815260200190815260200160002054915050919050565b612d146153ec565b612d1e6000615a35565b565b60c881565b62278d0081565b600080600080612d4667e9ae5da7cb893aa960c01b6155fc565b612d5a6779e5015cef03a25160c01b6155fc565b612d6e67cb6a64b3b1bbff5660c01b6155fc565b6000600d60008773ffffffffffffffffffffffffffffffffffffffff1673ffffffffffffffffffffffffffffffffffffffff1681526020019081526020016000209050612dc5673e9914891520e4e860c01b6155fc565b612dd967edca63c84452b29960c01b6155fc565b60007fffffffffffffffffffffffffffffffffffffffffffffffffffffffffffffffff9050612e1267ae84f629c39dbea060c01b6155fc565b612e266711701da1f0ebad7460c01b6155fc565b60005b82805490508110156130cb57612e496717c7dae4730d06e360c01b6155fc565b612e5d672948cb6a06f4675160c01b6155fc565b6000838281548110612e7257612e71617629565b5b90600052602060002090600502016000015411156130a957612e9e674ae82daf0dfc4e1560c01b6155fc565b612eb267894f6d1ddbeeb1c360c01b6155fc565b828181548110612ec557612ec4617629565b5b90600052602060002090600502016000015487612ee29190617488565b9650612ef8675368b3a20b75e6ac60c01b6155fc565b3073ffffffffffffffffffffffffffffffffffffffff1663beb8314c89836040518363ffffffff1660e01b8152600401612f33929190617756565b602060405180830381865afa158015612f50573d6000803e3d6000fd5b505050506040513d601f19601f82011682018060405250810190612f749190617794565b86612f7f9190617488565b9550612f9567d8f375dfeafe992f60c01b6155fc565b8480612fa090617999565b955050612fb76773f091df08c2fee460c01b6155fc565b612fcb674bb73ec1f9019cf360c01b6155fc565b6000838281548110612fe057612fdf617629565b5b90600052602060002090600502016003015484838154811061300557613004617629565b5b9060005260206000209060050201600101546130219190617488565b905061303767d71084056607e19560c01b6155fc565b61304b67b97a37b5ffbfa67b60c01b6155fc565b828110801561305957504281115b1561308e576130726763943fff068e191260c01b6155fc565b61308667f71d5b0f22e0ac7360c01b6155fc565b8092506130a3565b6130a267226166dcf108a02860c01b6155fc565b5b506130be565b6130bd67e5f36a25b517d66360c01b6155fc565b5b8080600101915050612e29565b506130e0679553261c9ca4325060c01b6155fc565b7fffffffffffffffffffffffffffffffffffffffffffffffffffffffffffffffff81148061311e575061311d6760dfd21725af778860c01b615b0c565b5b801561313a5750613139677a936daffda4237960c01b615640565b5b6131445780613147565b60005b925050509193509193565b600e5481565b62ed4e0081565b60006131756778cff966d75dd70c60c01b6153e9565b61318967ce6c87dfcce78ebb60c01b6153e9565b61319d671b0531e6b451766160c01b6153e9565b62278d0082036131d9576131bb67ae2748632ca8a65560c01b6153e9565b6131cf674a07367d8258caf760c01b6153e9565b61012c9050613383565b6131ed6793f4cf6272cc208160c01b6153e9565b6132016703350a354efad81860c01b6153e9565b613215678261ed6592d724fc60c01b6153e9565b6276a7008203613251576132336785cff8027ad261a260c01b6153e9565b613247674a387d000b7fc80b60c01b6153e9565b6101f49050613383565b61326567b3188988c4c8dc3160c01b6153e9565b61327967f7554d9c6dc26a1460c01b6153e9565b61328d677d1eb4d73f5383d760c01b6153e9565b62ed4e0082036132c9576132ab67aaa62d3638a7a94260c01b6153e9565b6132bf67947071c009f6477860c01b6153e9565b6102bc9050613383565b6132dd6754ed352bc30e868860c01b6153e9565b6132f167e1974dfcd5b11f8d60c01b6153e9565b6133056735b6072af599a46360c01b6153e9565b6301e13380820361334257613324679f4b0630a7d24ea260c01b6153e9565b613338671f1f0a9f6c5772a960c01b6153e9565b6103849050613383565b61335667f92eee5fe4f5e32d60c01b6153e9565b61336a6762ce48fd12a6aa6760c01b6153e9565b61337e67278a0c2b0b3dfa8360c01b6153e9565b600090505b919050565b60156020528060005260406000206000915090508060000154908060010154908060020154908060030154905084565b6000806133c3615b13565b90508060000160009054906101000a900473ffffffffffffffffffffffffffffffffffffffff1691505090565b6d314dc6448d9338c15b0a0000000081565b6060600061340e6153a7565b905080600401805461341f906173bc565b80601f016020809104026020016040519081016040528092919081815260200182805461344b906173bc565b80156134985780601f1061346d57610100808354040283529160200191613498565b820191906000526020600020905b81548152906001019060200180831161347b57829003601f168201915b505050505091505090565b600660009054906101000a900473ffffffffffffffffffffffffffffffffffffffff1681565b69d3c21bcecceda100000081565b6000806134e26153cf565b90506134ef818585615508565b600191505092915050565b600061351067754ad3fafb9d291a60c01b6155fc565b6135246792f0c0e936e9af6160c01b6155fc565b613538673bfe21055f9768f860c01b6155fc565b60003073ffffffffffffffffffffffffffffffffffffffff1663875bb4e2846040518263ffffffff1660e01b81526004016135739190616ab1565b602060405180830381865afa158015613590573d6000803e3d6000fd5b505050506040513d601f19601f820116820180604052508101906135b49190617794565b90506135ca67e60ece3952eef37a60c01b6155fc565b6135de6726aed71607a3977460c01b6155fc565b601e60009054906101000a900460ff16613637576136066736a22b04db38a21b60c01b6155fc565b61361a6730f84e9f1e9076ff60c01b6155fc565b61362e67fad03c78ccbcbeb460c01b6155fc565b80915050613726565b61364b6791e1f2313aa5d67160c01b6155fc565b61365f6751437c17b0ef603f60c01b6155fc565b61367367d4c4005b387068bc60c01b6155fc565b600061367d611377565b612710600e5461368d919061805d565b61369791906177f0565b90506136ad67d53a3cc0fc9539cb60c01b6155fc565b6136c16735a560e8fdb8cc9760c01b6155fc565b60006064826136d091906177f0565b90506136e66775f714ee5ab63e6360c01b6155fc565b6136fa674798affc5950cf2660c01b6155fc565b61271081601f5461370b9190617488565b84613716919061805d565b61372091906177f0565b93505050505b919050565b6040518060400160405280600581526020017f352e302e3000000000000000000000000000000000000000000000000000000081525081565b60108060000154908060010154908060020154908060030154908060040154905085565b62093a8081565b600d60205281600052604060002081815481106137ab57600080fd5b9060005260206000209060050201600091509150508060000154908060010154908060020154908060030154908060040160009054906101000a900460ff16905085565b6201518081565b600061380c672b0ff0264de310a160c01b6155fc565b61382067c8234e89e17a7ab960c01b6155fc565b61383467774c9b042114a64360c01b6155fc565b61384867272c1b687e1a4fca60c01b6155fc565b600d60008473ffffffffffffffffffffffffffffffffffffffff1673ffffffffffffffffffffffffffffffffffffffff1681526020019081526020016000208054905082106138cc576040517f08c379a00000000000000000000000000000000000000000000000000000000081526004016138c390617609565b60405180910390fd5b6138e0672a590946b448f66a60c01b6155fc565b6138f467cb28e424ddbbce9960c01b6155fc565b6139086769fc2599936d13f660c01b6155fc565b6000600d60008573ffffffffffffffffffffffffffffffffffffffff1673ffffffffffffffffffffffffffffffffffffffff168152602001908152602001600020838154811061395b5761395a617629565b5b9060005260206000209060050201905061397f67ebf547b464a6500860c01b6155fc565b61399367e32e973db48b0df760c01b6155fc565b60008160020154426139a59190617821565b90506139bb67d1450b194036e11d60c01b6155fc565b6139cf6775ac7bd479d00c5e60c01b6155fc565b60003073ffffffffffffffffffffffffffffffffffffffff1663875bb4e284600301546040518263ffffffff1660e01b8152600401613a0e9190616ab1565b602060405180830381865afa158015613a2b573d6000803e3d6000fd5b505050506040513d601f19601f82011682018060405250810190613a4f9190617794565b9050613a6567e2f5079d38ebc2fd60c01b6155fc565b613a7967e7ac8bf174fc024760c01b6155fc565b6000819050613a9267e01475f7ae2a3fe660c01b6155fc565b613aa667d48affa122ef99d560c01b6155fc565b601e60009054906101000a900460ff1615613b9957613acf67913a69f6aa0d56d960c01b6155fc565b613ae3672ade02f21cff13fd60c01b6155fc565b613af767837fcd468c1f727060c01b6155fc565b6000613b01611377565b612710600e54613b11919061805d565b613b1b91906177f0565b9050613b3167a47c57fe2bf33f0760c01b6155fc565b613b4567ea0eec98cb35457460c01b6155fc565b6000606482613b5491906177f0565b9050613b6a67514645728250b05a60c01b6155fc565b61271081601f54613b7b9190617488565b85613b86919061805d565b613b9091906177f0565b92505050613bae565b613bad6777469ac0577affd860c01b6155fc565b5b613bc267ad12351b830096cc60c01b6155fc565b613bd6673cb9aa1cce4d642860c01b6155fc565b6000613bec67fb401a51054c790060c01b6155fc565b613c00677dc24e749a49506560c01b6155fc565b8460040160009054906101000a900460ff1615613d5e57613c2b67bce98eea9f6cbe8d60c01b6155fc565b613c3f67daac026988a5a35960c01b6155fc565b613c536718ba70fb45c418f760c01b6155fc565b60006201518085613c6491906177f0565b9050613c7a67bc4ee5d294e1117360c01b6155fc565b613c8e6725cc0c336a4d457760c01b6155fc565b600061016d84613c9e91906177f0565b9050613cb467eb85eca96cf6a17a60c01b6155fc565b61271082828960000154613cc8919061805d565b613cd2919061805d565b613cdc91906177f0565b9250613cf267220f71c4be3231f060c01b6155fc565b613d06670a65c2a220d32be460c01b6155fc565b600f54831115613d4257613d2467d213116b12acd85060c01b6155fc565b613d38677ff9b1be45975c3c60c01b6155fc565b600f549250613d57565b613d5667e665d0647a4afc4860c01b6155fc565b5b5050613db4565b613d726784ee4334221d4ed560c01b6155fc565b613d86679a5859a8a590fd7d60c01b6155fc565b64496cebb80084838760000154613d9d919061805d565b613da7919061805d565b613db191906177f0565b90505b613dc867330a4ee0cb1b1a2c60c01b6155fc565b613ddc67af0fe21c444d1aa260c01b6155fc565b809550505050505092915050565b613dfe67736c9c1ba3b347b860c01b6153e9565b6000613e08615b3b565b905060008160000160089054906101000a900460ff1615905060008260000160009054906101000a900467ffffffffffffffff1690506000808267ffffffffffffffff16148015613e565750825b9050600060018367ffffffffffffffff16148015613e8b575060003073ffffffffffffffffffffffffffffffffffffffff163b145b905081158015613e99575080155b15613ed0576040517ff92ee8a900000000000000000000000000000000000000000000000000000000815260040160405180910390fd5b60018560000160006101000a81548167ffffffffffffffff021916908367ffffffffffffffff1602179055508315613f205760018560000160086101000a81548160ff0219169083151502179055505b613f3467903f2e7736804ae660c01b6153e9565b613f486720b3a8695fa9ba9d60c01b6153e9565b613f5c67acda6cb7c5c2739c60c01b6153e9565b613f70671edfd0cf14daf37e60c01b6153e9565b613fe46040518060400160405280600381526020017f46494100000000000000000000000000000000000000000000000000000000008152506040518060400160405280600381526020017f4649410000000000000000000000000000000000000000000000000000000000815250615b4f565b613ff867565556f676a76ac960c01b6153e9565b61400c67c694de1a56eadb6460c01b6153e9565b61401c6140176153cf565b615b65565b614030676fffd5f59f0ac69660c01b6153e9565b61404467f3e3b18b6f808e3b60c01b6153e9565b61404c615b79565b6140606765c4d829b4f9dba360c01b6153e9565b61407467f11d46658ca03ce560c01b6153e9565b61407c615b83565b61409067e58ef43dd083f92e60c01b6153e9565b6140a4675c9aef38c0c606f960c01b6153e9565b6140ac615b95565b6140c067707f71a9c8475b4960c01b6153e9565b87600560006101000a81548173ffffffffffffffffffffffffffffffffffffffff021916908373ffffffffffffffffffffffffffffffffffffffff16021790555061411567e40b21988cc61a9060c01b6153e9565b86600660006101000a81548173ffffffffffffffffffffffffffffffffffffffff021916908373ffffffffffffffffffffffffffffffffffffffff16021790555061416a6711f691da620f9fcf60c01b6153e9565b85600760006101000a81548173ffffffffffffffffffffffffffffffffffffffff021916908373ffffffffffffffffffffffffffffffffffffffff1602179055506141bf6718d82739864b85c860c01b6153e9565b60646000819055506141db6714cce8746d99ed5360c01b6153e9565b60326001819055506141f767e618b42be2e60d6060c01b6153e9565b60146002819055506142136752342abfd11fe89b60c01b6153e9565b601e60038190555061422f67eb3f9c9dea148eb060c01b6153e9565b60405180608001604052806103e86d314dc6448d9338c15b0a0000000061425691906177f0565b815260200160646d314dc6448d9338c15b0a0000000061427691906177f0565b81526020016001815260200160011515815250601660008201518160000155602082015181600101556040820151816002015560608201518160030160006101000a81548160ff0219169083151502179055509050506142e0678aa4cffc23897dbf60c01b6153e9565b6001600860008a73ffffffffffffffffffffffffffffffffffffffff1673ffffffffffffffffffffffffffffffffffffffff16815260200190815260200160002060006101000a81548160ff02191690831515021790555061434c674177f279f1820a9760c01b6153e9565b6001600860008973ffffffffffffffffffffffffffffffffffffffff1673ffffffffffffffffffffffffffffffffffffffff16815260200190815260200160002060006101000a81548160ff0219169083151502179055506143b867341abd5c7465f5cb60c01b6153e9565b6001600860003073ffffffffffffffffffffffffffffffffffffffff1673ffffffffffffffffffffffffffffffffffffffff16815260200190815260200160002060006101000a81548160ff02191690831515021790555061442467ac37d2dba373659260c01b6153e9565b61443867d951b8f703cedc4960c01b6153e9565b6144576144436153cf565b6d314dc6448d9338c15b0a00000000615b9f565b83156144b35760008560000160086101000a81548160ff0219169083151502179055507fc7f505b2f371ae2175ee4913f4499e1f2633a7b5936321eed1cdaeb6115181d260016040516144aa91906180ee565b60405180910390a15b5050505050505050565b600760009054906101000a900473ffffffffffffffffffffffffffffffffffffffff1681565b6144f767844cc990d316bb3b60c01b6155fc565b6144ff6153ec565b61451367b5d9408d6af5b21f60c01b6155fc565b61452767207d80ed624728bd60c01b6155fc565b61453b677ccc25a84603683b60c01b6155fc565b61454f67831282a096749da160c01b6155fc565b61456367818c7555b69b11a260c01b6155fc565b6000602054146145a8576040517f08c379a000000000000000000000000000000000000000000000000000000000815260040161459f90618155565b60405180910390fd5b6145bc67acea1bd5dc3a6baa60c01b6155fc565b6145d0670c7e418f693f5ad960c01b6155fc565b6001601e60006101000a81548160ff0219169083151502179055506145ff67fe5aacd618a8563960c01b6155fc565b612710601f8190555061461c67f3d6c62dd3b5aed460c01b6155fc565b60016020819055506146386731ca0dc0dc120e9960c01b6155fc565b61464c67921e3b4999aaa3db60c01b6155fc565b7f1858ded87560746ec8c78afbe90ce7899a15849e419f2c411174332674889d57600160405161467c9190618218565b60405180910390a16146986706494d9096499fa860c01b6155fc565b6146ac67a6150a222c8b2baa60c01b6155fc565b7f517c9648418b59425b8e70325d60c9a7545b84d167ee02e3c8c09a836f1d7eb96001601f546040516146e0929190618246565b60405180910390a1565b601a6020528060005260406000206000915090505481565b600061471867e65895ea499ea26160c01b6153e9565b61472c670f083700c437b4b260c01b6153e9565b614740673a5925036b5a1c6f60c01b6153e9565b600d60008373ffffffffffffffffffffffffffffffffffffffff1673ffffffffffffffffffffffffffffffffffffffff168152602001908152602001600020805490509050919050565b600c602052816000526040600020602052806000526040600020600091509150505481565b60095481565b6000806147c06153a7565b90508060010160008573ffffffffffffffffffffffffffffffffffffffff1673ffffffffffffffffffffffffffffffffffffffff16815260200190815260200160002060008473ffffffffffffffffffffffffffffffffffffffff1673ffffffffffffffffffffffffffffffffffffffff1681526020019081526020016000205491505092915050565b6276a70081565b614865679e0ba59abd397f1a60c01b6155fc565b61486d6155ff565b614881672328fead2e5494af60c01b6155fc565b61489567cde4cd6cc72ce5d960c01b6155fc565b6148a9671c80c28ffb700c0e60c01b6155fc565b6148bd67e8d1b2b8dad56f3e60c01b6155fc565b6148d167d97b1d83372f7b0b60c01b6155fc565b83839050868690501480156148eb57508181905086869050145b61492a576040517f08c379a0000000000000000000000000000000000000000000000000000000008152600401614921906182bb565b60405180910390fd5b61493e67f4f4ef2d1f75a4ee60c01b6155fc565b6149526796924143479c1e8a60c01b6155fc565b614966670e088f545be9447460c01b6155fc565b61497a676e5dd18aef6fa13b60c01b6155fc565b600a8686905011156149c1576040517f08c379a00000000000000000000000000000000000000000000000000000000081526004016149b890618327565b60405180910390fd5b6149d567370994c6665baafa60c01b6155fc565b6149e96752b4fd8c5cc1e78360c01b6155fc565b6149fd67d592e7c1e582acb560c01b6155fc565b6000614a1367b79b28ee660d115060c01b6155fc565b614a27675483cecc87a44d1c60c01b6155fc565b60005b87879050811015614a7d57614a49670815f991691b431c60c01b6155fc565b878782818110614a5c57614a5b617629565b5b9050602002013582614a6e9190617488565b91508080600101915050614a2a565b50614a9267674294487e24592660c01b6155fc565b614aa667da9470db87aa9a1660c01b6155fc565b614aba67580acb0f26cff75c60c01b6155fc565b80614ac433612cb5565b1015614b05576040517f08c379a0000000000000000000000000000000000000000000000000000000008152600401614afc90618006565b60405180910390fd5b614b19679e0334d2537fa6e860c01b6155fc565b614b2d67e1153bebbbde3c7560c01b6155fc565b614b4167b83417c05b0a8fe060c01b6155fc565b614b4c333083615508565b614b6067bdf54e456e60e7ce60c01b6155fc565b614b746713520996acff1a5e60c01b6155fc565b60005b8787905081101561509f57614b96674d9eccde3698d09d60c01b6155fc565b614baa672564d9e9bf8288d560c01b6155fc565b614bbe67587b90a9631a6e7760c01b6155fc565b6000888883818110614bd357614bd2617629565b5b9050602002013511614c1a576040517f08c379a0000000000000000000000000000000000000000000000000000000008152600401614c1190617f2e565b60405180910390fd5b614c2e67132c6a5d80ad08c560c01b6155fc565b614c426780e7c158d2273a6960c01b6155fc565b614c566762d13b1f988bfdf560c01b6155fc565b614c69669b2f5a83ad246260c01b6155fc565b62278d00868683818110614c8057614c7f617629565b5b90506020020135148015614ca45750614ca3673832ad664de2cd9260c01b615640565b5b80614d0257506276a700868683818110614cc157614cc0617629565b5b90506020020135148015614ce55750614ce467132322344a6af29960c01b615640565b5b8015614d015750614d00678487e2559f9db01260c01b615640565b5b5b80614d60575062ed4e00868683818110614d1f57614d1e617629565b5b90506020020135148015614d435750614d4267b8581eccf164ae4f60c01b615640565b5b8015614d5f5750614d5e67aa46d930b69e605560c01b615640565b5b5b80614da357506301e13380868683818110614d7e57614d7d617629565b5b90506020020135148015614da25750614da1670d98d8bd7ee8c65660c01b615640565b5b5b614de2576040517f08c379a0000000000000000000000000000000000000000000000000000000008152600401614dd990617f9a565b60405180910390fd5b614df66721fe4cb375fac28260c01b6155fc565b614e0a6723c722a4df97a29760c01b6155fc565b614e1e6735b92bf83900287060c01b6155fc565b600d60003373ffffffffffffffffffffffffffffffffffffffff1673ffffffffffffffffffffffffffffffffffffffff1681526020019081526020016000206040518060a001604052808a8a85818110614e7b57614e7a617629565b5b905060200201358152602001428152602001428152602001888885818110614ea657614ea5617629565b5b905060200201358152602001868685818110614ec557614ec4617629565b5b9050602002016020810190614eda9190616b78565b151581525090806001815401808255809150506001900390600052602060002090600502016000909190919091506000820151816000015560208201518160010155604082015181600201556060820151816003015560808201518160040160006101000a81548160ff0219169083151502179055505050614f6667bdcc515e204045d560c01b6155fc565b878782818110614f7957614f78617629565b5b90506020020135600e6000828254614f919190617488565b92505081905550614fac678606c93f111837ea60c01b6155fc565b614fc0678248707af9c5a95a60c01b6155fc565b3373ffffffffffffffffffffffffffffffffffffffff167fb4caaf29adda3eefee3ad552a8e85058589bf834c7466cae4ee58787f70589ed89898481811061500b5761500a617629565b5b9050602002013588888581811061502557615024617629565b5b905060200201356001600d60003373ffffffffffffffffffffffffffffffffffffffff1673ffffffffffffffffffffffffffffffffffffffff1681526020019081526020016000208054905061507b9190617821565b60405161508a93929190618026565b60405180910390a28080600101915050614b77565b506150b4674d77f7966c3649e460c01b6155fc565b6150c867259fcebd12658a1a60c01b6155fc565b3373ffffffffffffffffffffffffffffffffffffffff167f17bba2ce2e99d306dbd37ea822b0c70cdd9c9ddf3927ff87a53baa30281f937860405161510c90618393565b60405180910390a250505050505050565b600a81565b601e60009054906101000a900460ff1681565b601f5481565b60168060000154908060010154908060020154908060030160009054906101000a900460ff16905084565b61516e6153ec565b600073ffffffffffffffffffffffffffffffffffffffff168173ffffffffffffffffffffffffffffffffffffffff16036151e05760006040517f1e4fbdf70000000000000000000000000000000000000000000000000000000081526004016151d79190616fb6565b60405180910390fd5b6151e981615a35565b50565b60005481565b61520667efd47b32b2c9e12160c01b6155fc565b61520e6153ec565b615222679252b05900bbb67160c01b6155fc565b61523667054953be91de601e60c01b6155fc565b61524a675f142b75e859e2eb60c01b6155fc565b61525e678c4483d70b3d8ac160c01b6155fc565b61527267925bfa96c0e4a6d760c01b6155fc565b61138881101580156152865750614e208111155b6152c5576040517f08c379a00000000000000000000000000000000000000000000000000000000081526004016152bc90618425565b60405180910390fd5b6152d967bc4de6cc7163152e60c01b6155fc565b6152ed67309f6efb0a1e3ec760c01b6155fc565b81601e60006101000a81548160ff02191690831515021790555061531b67fc4368f20ca4bc3160c01b6155fc565b80601f8190555061533667f3db1e26b8b730ed60c01b6155fc565b61534a675dea49686a4c1cca60c01b6155fc565b7f517c9648418b59425b8e70325d60c9a7545b84d167ee02e3c8c09a836f1d7eb9828260405161537b929190618246565b60405180910390a15050565b601c6020528060005260406000206000915054906101000a900460ff1681565b60007f52c63247e1f47db19d5ce0460030c497f067ca4cebf71ba98eeadabe20bace00905090565b600033905090565b6153e48383836001615c21565b505050565b50565b6153f46153cf565b73ffffffffffffffffffffffffffffffffffffffff166154126133b8565b73ffffffffffffffffffffffffffffffffffffffff1614615471576154356153cf565b6040517f118cdaa70000000000000000000000000000000000000000000000000000000081526004016154689190616fb6565b60405180910390fd5b565b600061547f84846147b5565b90507fffffffffffffffffffffffffffffffffffffffffffffffffffffffffffffffff81101561550257818110156154f2578281836040517ffb8f41b20000000000000000000000000000000000000000000000000000000081526004016154e993929190618445565b60405180910390fd5b61550184848484036000615c21565b5b50505050565b600073ffffffffffffffffffffffffffffffffffffffff168373ffffffffffffffffffffffffffffffffffffffff160361557a5760006040517f96c6fd1e0000000000000000000000000000000000000000000000000000000081526004016155719190616fb6565b60405180910390fd5b600073ffffffffffffffffffffffffffffffffffffffff168273ffffffffffffffffffffffffffffffffffffffff16036155ec5760006040517fec442f050000000000000000000000000000000000000000000000000000000081526004016155e39190616fb6565b60405180910390fd5b6155f7838383615e07565b505050565b50565b615607612c3e565b1561563e576040517fd93c066500000000000000000000000000000000000000000000000000000000815260040160405180910390fd5b565b600060019050919050565b615653615fd5565b600061565d615a0d565b905060008160000160006101000a81548160ff0219169083151502179055507f5db9ee0a495bf2e6ff9c91a7834c1ba4fdd244a5e8aa4e537bd38aeae4b073aa6156a56153cf565b6040516156b29190616fb6565b60405180910390a150565b7f000000000000000000000000000000000000000000000000000000000000000073ffffffffffffffffffffffffffffffffffffffff163073ffffffffffffffffffffffffffffffffffffffff16148061576a57507f000000000000000000000000000000000000000000000000000000000000000073ffffffffffffffffffffffffffffffffffffffff16615751616015565b73ffffffffffffffffffffffffffffffffffffffff1614155b156157a1576040517fe07c8dba00000000000000000000000000000000000000000000000000000000815260040160405180910390fd5b565b6157b767243f9be732d7b5be60c01b6153e9565b6157bf6153ec565b6157d367b1de3dc0bca88af560c01b6153e9565b6157e767ba9516c4616b0d5060c01b6153e9565b50565b8173ffffffffffffffffffffffffffffffffffffffff166352d1902d6040518163ffffffff1660e01b8152600401602060405180830381865afa92505050801561585257506040513d601f19601f8201168201806040525081019061584f9190618491565b60015b61589357816040517f4c9c8ce300000000000000000000000000000000000000000000000000000000815260040161588a9190616fb6565b60405180910390fd5b7f360894a13ba1a3210667c828492db98dca3e2076cc3735a920a3ca505d382bbc60001b81146158fa57806040517faa1d49a40000000000000000000000000000000000000000000000000000000081526004016158f19190616f48565b60405180910390fd5b615904838361606c565b505050565b6159116155ff565b600061591b615a0d565b905060018160000160006101000a81548160ff0219169083151502179055507f62e78cea01bee320cd4e420270b5ea74000d11b0c9f74754ebdbfc544b05a2586159636153cf565b6040516159709190616fb6565b60405180910390a150565b7f000000000000000000000000000000000000000000000000000000000000000073ffffffffffffffffffffffffffffffffffffffff163073ffffffffffffffffffffffffffffffffffffffff1614615a00576040517fe07c8dba00000000000000000000000000000000000000000000000000000000815260040160405180910390fd5b565b600060019050919050565b60007fcd5ed15c6e187e77e9aee88184c21f4f2182ab5827cb3b7e07fbedcd63f03300905090565b6000615a3f615b13565b905060008160000160009054906101000a900473ffffffffffffffffffffffffffffffffffffffff169050828260000160006101000a81548173ffffffffffffffffffffffffffffffffffffffff021916908373ffffffffffffffffffffffffffffffffffffffff1602179055508273ffffffffffffffffffffffffffffffffffffffff168173ffffffffffffffffffffffffffffffffffffffff167f8be0079c531659141344cd1fd0a4f28419497f9722a3daafe3b4186f6b6457e060405160405180910390a3505050565b6000919050565b60007f9016d09d72d40fdae2fd8ceac6b6234c7706214fd39c1cd1e609a0528c199300905090565b600080615b466160df565b90508091505090565b615b5761610a565b615b61828261614a565b5050565b615b6d61610a565b615b7681616187565b50565b615b8161610a565b565b615b8b61610a565b615b9361620d565b565b615b9d61610a565b565b600073ffffffffffffffffffffffffffffffffffffffff168273ffffffffffffffffffffffffffffffffffffffff1603615c115760006040517fec442f05000000000000000000000000000000000000000000000000000000008152600401615c089190616fb6565b60405180910390fd5b615c1d60008383615e07565b5050565b6000615c2b6153a7565b9050600073ffffffffffffffffffffffffffffffffffffffff168573ffffffffffffffffffffffffffffffffffffffff1603615c9f5760006040517fe602df05000000000000000000000000000000000000000000000000000000008152600401615c969190616fb6565b60405180910390fd5b600073ffffffffffffffffffffffffffffffffffffffff168473ffffffffffffffffffffffffffffffffffffffff1603615d115760006040517f94280d62000000000000000000000000000000000000000000000000000000008152600401615d089190616fb6565b60405180910390fd5b828160010160008773ffffffffffffffffffffffffffffffffffffffff1673ffffffffffffffffffffffffffffffffffffffff16815260200190815260200160002060008673ffffffffffffffffffffffffffffffffffffffff1673ffffffffffffffffffffffffffffffffffffffff168152602001908152602001600020819055508115615e00578373ffffffffffffffffffffffffffffffffffffffff168573ffffffffffffffffffffffffffffffffffffffff167f8c5be1e5ebec7d5bd14f71427d1e84f3dd0314c0f7b2291e5b200ac8c7c3b92585604051615df79190616ab1565b60405180910390a35b5050505050565b615e1b671362042cbe5e7a6e60c01b6153e9565b615e236155ff565b615e3767b8ce9484d8c462db60c01b6153e9565b615e4b67f863c0086ad6c21160c01b6153e9565b615e5f672e32fb9eee5ac50660c01b6153e9565b615e73674ede11b41b845d4660c01b6153e9565b615e7e83838361622e565b615e9267f866d3d6e0eed3c760c01b6153e9565b615ea667a0f389d7539c292160c01b6153e9565b600073ffffffffffffffffffffffffffffffffffffffff168373ffffffffffffffffffffffffffffffffffffffff1614158015615f105750600073ffffffffffffffffffffffffffffffffffffffff168273ffffffffffffffffffffffffffffffffffffffff1614155b15615fbb57615f2967fbdb94e65249fbf260c01b6153e9565b615f3d6712c27b30ca9f2dcc60c01b6153e9565b615f5167edba459f32af481960c01b6153e9565b8173ffffffffffffffffffffffffffffffffffffffff168373ffffffffffffffffffffffffffffffffffffffff167f59abb1a21ac9c02d9c217285768a906af17496e4cada7962f129b92f0ac948cf83604051615fae9190616ab1565b60405180910390a3615fd0565b615fcf6784f2ba8d832217d960c01b6153e9565b5b505050565b615fdd612c3e565b616013576040517f8dfc202b00000000000000000000000000000000000000000000000000000000815260040160405180910390fd5b565b60006160437f360894a13ba1a3210667c828492db98dca3e2076cc3735a920a3ca505d382bbc60001b61646d565b60000160009054906101000a900473ffffffffffffffffffffffffffffffffffffffff16905090565b61607582616477565b8173ffffffffffffffffffffffffffffffffffffffff167fbc7cd75a20ee27fd9adebab32041f755214dbc6bffa90cc0225b39da2e5c2d3b60405160405180910390a26000815111156160d2576160cc8282616544565b506160db565b6160da6165c8565b5b5050565b60007ff0c57e16840df040f15088dc2f81fe391c3923bec73e23a9662efc9c229c6a0060001b905090565b616112616605565b616148576040517fd7e6bcf800000000000000000000000000000000000000000000000000000000815260040160405180910390fd5b565b61615261610a565b600061615c6153a7565b90508281600301908161616f91906184be565b508181600401908161618191906184be565b50505050565b61618f61610a565b600073ffffffffffffffffffffffffffffffffffffffff168173ffffffffffffffffffffffffffffffffffffffff16036162015760006040517f1e4fbdf70000000000000000000000000000000000000000000000000000000081526004016161f89190616fb6565b60405180910390fd5b61620a81615a35565b50565b61621561610a565b600061621f616625565b90506001816000018190555050565b60006162386153a7565b9050600073ffffffffffffffffffffffffffffffffffffffff168473ffffffffffffffffffffffffffffffffffffffff160361628e57818160020160008282546162829190617488565b92505081905550616367565b60008160000160008673ffffffffffffffffffffffffffffffffffffffff1673ffffffffffffffffffffffffffffffffffffffff1681526020019081526020016000205490508281101561631d578481846040517fe450d38c00000000000000000000000000000000000000000000000000000000815260040161631493929190618445565b60405180910390fd5b8281038260000160008773ffffffffffffffffffffffffffffffffffffffff1673ffffffffffffffffffffffffffffffffffffffff16815260200190815260200160002081905550505b600073ffffffffffffffffffffffffffffffffffffffff168373ffffffffffffffffffffffffffffffffffffffff16036163b257818160020160008282540392505081905550616402565b818160000160008573ffffffffffffffffffffffffffffffffffffffff1673ffffffffffffffffffffffffffffffffffffffff168152602001908152602001600020600082825401925050819055505b8273ffffffffffffffffffffffffffffffffffffffff168473ffffffffffffffffffffffffffffffffffffffff167fddf252ad1be2c89b69c2b068fc378daa952ba7f163c4a11628f55a4df523b3ef8460405161645f9190616ab1565b60405180910390a350505050565b6000819050919050565b60008173ffffffffffffffffffffffffffffffffffffffff163b036164d357806040517f4c9c8ce30000000000000000000000000000000000000000000000000000000081526004016164ca9190616fb6565b60405180910390fd5b806165007f360894a13ba1a3210667c828492db98dca3e2076cc3735a920a3ca505d382bbc60001b61646d565b60000160006101000a81548173ffffffffffffffffffffffffffffffffffffffff021916908373ffffffffffffffffffffffffffffffffffffffff16021790555050565b60606000808473ffffffffffffffffffffffffffffffffffffffff168460405161656e91906185cc565b600060405180830381855af49150503d80600081146165a9576040519150601f19603f3d011682016040523d82523d6000602084013e6165ae565b606091505b50915091506165be85838361664d565b9250505092915050565b6000341115616603576040517fb398979f00000000000000000000000000000000000000000000000000000000815260040160405180910390fd5b565b600061660f615b3b565b60000160089054906101000a900460ff16905090565b60007f9b779b17422d0df92223018b32b4d1fa46e071723d6817e2486d003becc55f00905090565b6060826166625761665d826166dc565b6166d4565b6000825114801561668a575060008473ffffffffffffffffffffffffffffffffffffffff163b145b156166cc57836040517f9996b3150000000000000000000000000000000000000000000000000000000081526004016166c39190616fb6565b60405180910390fd5b8190506166d5565b5b9392505050565b6000815111156166ee57805160208201fd5b6040517fd6bda27500000000000000000000000000000000000000000000000000000000815260040160405180910390fd5b6000604051905090565b600080fd5b600080fd5b6000819050919050565b61674781616734565b811461675257600080fd5b50565b6000813590506167648161673e565b92915050565b6000602082840312156167805761677f61672a565b5b600061678e84828501616755565b91505092915050565b6167a081616734565b82525050565b600073ffffffffffffffffffffffffffffffffffffffff82169050919050565b60006167d1826167a6565b9050919050565b6167e1816167c6565b82525050565b600081519050919050565b600082825260208201905092915050565b60005b83811015616821578082015181840152602081019050616806565b60008484015250505050565b6000601f19601f8301169050919050565b6000616849826167e7565b61685381856167f2565b9350616863818560208601616803565b61686c8161682d565b840191505092915050565b60008115159050919050565b61688c81616877565b82525050565b7f4e487b7100000000000000000000000000000000000000000000000000000000600052602160045260246000fd5b600481106168d2576168d1616892565b5b50565b60008190506168e3826168c1565b919050565b60006168f3826168d5565b9050919050565b616903816168e8565b82525050565b600081519050919050565b600082825260208201905092915050565b600061693082616909565b61693a8185616914565b935061694a818560208601616803565b6169538161682d565b840191505092915050565b600061014082019050616974600083018d616797565b616981602083018c6167d8565b8181036040830152616993818b61683e565b90506169a2606083018a616797565b6169af6080830189616797565b6169bc60a0830188616797565b6169c960c0830187616797565b6169d660e0830186616883565b6169e46101008301856168fa565b8181036101208301526169f78184616925565b90509b9a5050505050505050505050565b60006020820190508181036000830152616a22818461683e565b905092915050565b616a33816167c6565b8114616a3e57600080fd5b50565b600081359050616a5081616a2a565b92915050565b60008060408385031215616a6d57616a6c61672a565b5b6000616a7b85828601616a41565b9250506020616a8c85828601616755565b9150509250929050565b6000602082019050616aab6000830184616883565b92915050565b6000602082019050616ac66000830184616797565b92915050565b600060208284031215616ae257616ae161672a565b5b6000616af084828501616a41565b91505092915050565b600080600060608486031215616b1257616b1161672a565b5b6000616b2086828701616a41565b9350506020616b3186828701616a41565b9250506040616b4286828701616755565b9150509250925092565b616b5581616877565b8114616b6057600080fd5b50565b600081359050616b7281616b4c565b92915050565b600060208284031215616b8e57616b8d61672a565b5b6000616b9c84828501616b63565b91505092915050565b600060ff82169050919050565b616bbb81616ba5565b82525050565b6000602082019050616bd66000830184616bb2565b92915050565b600080fd5b600080fd5b600080fd5b60008083601f840112616c0157616c00616bdc565b5b8235905067ffffffffffffffff811115616c1e57616c1d616be1565b5b602083019150836001820283011115616c3a57616c39616be6565b5b9250929050565b60048110616c4e57600080fd5b50565b600081359050616c6081616c41565b92915050565b60008083601f840112616c7c57616c7b616bdc565b5b8235905067ffffffffffffffff811115616c9957616c98616be1565b5b602083019150836001820283011115616cb557616cb4616be6565b5b9250929050565b60008060008060008060808789031215616cd957616cd861672a565b5b600087013567ffffffffffffffff811115616cf757616cf661672f565b5b616d0389828a01616beb565b96509650506020616d1689828a01616c51565b945050604087013567ffffffffffffffff811115616d3757616d3661672f565b5b616d4389828a01616c66565b93509350506060616d5689828a01616755565b9150509295509295509295565b60008060408385031215616d7a57616d7961672a565b5b6000616d8885828601616755565b9250506020616d9985828601616a41565b9150509250929050565b600080fd5b7f4e487b7100000000000000000000000000000000000000000000000000000000600052604160045260246000fd5b616de08261682d565b810181811067ffffffffffffffff82111715616dff57616dfe616da8565b5b80604052505050565b6000616e12616720565b9050616e1e8282616dd7565b919050565b600067ffffffffffffffff821115616e3e57616e3d616da8565b5b616e478261682d565b9050602081019050919050565b82818337600083830152505050565b6000616e76616e7184616e23565b616e08565b905082815260208101848484011115616e9257616e91616da3565b5b616e9d848285616e54565b509392505050565b600082601f830112616eba57616eb9616bdc565b5b8135616eca848260208601616e63565b91505092915050565b60008060408385031215616eea57616ee961672a565b5b6000616ef885828601616a41565b925050602083013567ffffffffffffffff811115616f1957616f1861672f565b5b616f2585828601616ea5565b9150509250929050565b6000819050919050565b616f4281616f2f565b82525050565b6000602082019050616f5d6000830184616f39565b92915050565b600080600060608486031215616f7c57616f7b61672a565b5b6000616f8a86828701616755565b9350506020616f9b86828701616755565b9250506040616fac86828701616b63565b9150509250925092565b6000602082019050616fcb60008301846167d8565b92915050565b6000608082019050616fe66000830187616797565b616ff36020830186616797565b6170006040830185616797565b61700d6060830184616797565b95945050505050565b600060a08201905061702b6000830188616797565b6170386020830187616797565b6170456040830186616797565b6170526060830185616797565b61705f6080830184616797565b9695505050505050565b600060a08201905061707e6000830188616797565b61708b6020830187616797565b6170986040830186616797565b6170a56060830185616797565b6170b26080830184616883565b9695505050505050565b6000806000606084860312156170d5576170d461672a565b5b60006170e386828701616a41565b93505060206170f486828701616a41565b925050604061710586828701616a41565b9150509250925092565b600080604083850312156171265761712561672a565b5b600061713485828601616a41565b925050602061714585828601616a41565b9150509250929050565b60008083601f84011261716557617164616bdc565b5b8235905067ffffffffffffffff81111561718257617181616be1565b5b60208301915083602082028301111561719e5761719d616be6565b5b9250929050565b60008083601f8401126171bb576171ba616bdc565b5b8235905067ffffffffffffffff8111156171d8576171d7616be1565b5b6020830191508360208202830111156171f4576171f3616be6565b5b9250929050565b600080600080600080606087890312156172185761721761672a565b5b600087013567ffffffffffffffff8111156172365761723561672f565b5b61724289828a0161714f565b9650965050602087013567ffffffffffffffff8111156172655761726461672f565b5b61727189828a0161714f565b9450945050604087013567ffffffffffffffff8111156172945761729361672f565b5b6172a089828a016171a5565b92509250509295509295509295565b60006080820190506172c46000830187616797565b6172d16020830186616797565b6172de6040830185616797565b6172eb6060830184616883565b95945050505050565b6000806040838503121561730b5761730a61672a565b5b600061731985828601616b63565b925050602061732a85828601616755565b9150509250929050565b61733d81616f2f565b811461734857600080fd5b50565b60008135905061735a81617334565b92915050565b6000602082840312156173765761737561672a565b5b60006173848482850161734b565b91505092915050565b7f4e487b7100000000000000000000000000000000000000000000000000000000600052602260045260246000fd5b600060028204905060018216806173d457607f821691505b6020821081036173e7576173e661738d565b5b50919050565b7f4665652065786365656473206d6178696d756d00000000000000000000000000600082015250565b60006174236013836167f2565b915061742e826173ed565b602082019050919050565b6000602082019050818103600083015261745281617416565b9050919050565b7f4e487b7100000000000000000000000000000000000000000000000000000000600052601160045260246000fd5b600061749382616734565b915061749e83616734565b92508282019050808211156174b6576174b5617459565b5b92915050565b7f466565206368616e676520746f6f206672657175656e74000000000000000000600082015250565b60006174f26017836167f2565b91506174fd826174bc565b602082019050919050565b60006020820190508181036000830152617521816174e5565b9050919050565b600060408201905061753d6000830185616797565b61754a6020830184616797565b9392505050565b7f536574456d657267656e63795769746864726177616c00000000000000000000600082015250565b60006175876016836167f2565b915061759282617551565b602082019050919050565b600060208201905081810360008301526175b68161757a565b9050919050565b7f496e76616c6964207374616b6520696e64657800000000000000000000000000600082015250565b60006175f36013836167f2565b91506175fe826175bd565b602082019050919050565b60006020820190508181036000830152617622816175e6565b9050919050565b7f4e487b7100000000000000000000000000000000000000000000000000000000600052603260045260246000fd5b7f5374616b6520616c72656164792077697468647261776e000000000000000000600082015250565b600061768e6017836167f2565b915061769982617658565b602082019050919050565b600060208201905081810360008301526176bd81617681565b9050919050565b7f5374616b65206973207374696c6c206c6f636b656420616e6420656d6572676560008201527f6e6379207769746864726177616c206e6f7420656e61626c6564000000000000602082015250565b6000617720603a836167f2565b915061772b826176c4565b604082019050919050565b6000602082019050818103600083015261774f81617713565b9050919050565b600060408201905061776b60008301856167d8565b6177786020830184616797565b9392505050565b60008151905061778e8161673e565b92915050565b6000602082840312156177aa576177a961672a565b5b60006177b88482850161777f565b91505092915050565b7f4e487b7100000000000000000000000000000000000000000000000000000000600052601260045260246000fd5b60006177fb82616734565b915061780683616734565b925082617816576178156177c1565b5b828204905092915050565b600061782c82616734565b915061783783616734565b925082820390508181111561784f5761784e617459565b5b92915050565b7f456d657267656e63795769746864726177616c00000000000000000000000000600082015250565b600061788b6013836167f2565b915061789682617855565b602082019050919050565b600060208201905081810360008301526178ba8161787e565b9050919050565b7f457865637574696f6e2064656c617920746f6f2073686f727400000000000000600082015250565b60006178f76019836167f2565b9150617902826178c1565b602082019050919050565b60006020820190508181036000830152617926816178ea565b9050919050565b7f457865637574696f6e2064656c617920746f6f206c6f6e670000000000000000600082015250565b60006179636018836167f2565b915061796e8261792d565b602082019050919050565b6000602082019050818103600083015261799281617956565b9050919050565b60006179a482616734565b91507fffffffffffffffffffffffffffffffffffffffffffffffffffffffffffffffff82036179d6576179d5617459565b5b600182019050919050565b600082905092915050565b60008190508160005260206000209050919050565b60006020601f8301049050919050565b600082821b905092915050565b600060088302617a4e7fffffffffffffffffffffffffffffffffffffffffffffffffffffffffffffffff82617a11565b617a588683617a11565b95508019841693508086168417925050509392505050565b6000819050919050565b6000617a95617a90617a8b84616734565b617a70565b616734565b9050919050565b6000819050919050565b617aaf83617a7a565b617ac3617abb82617a9c565b848454617a1e565b825550505050565b600090565b617ad8617acb565b617ae3818484617aa6565b505050565b5b81811015617b0757617afc600082617ad0565b600181019050617ae9565b5050565b601f821115617b4c57617b1d816179ec565b617b2684617a01565b81016020851015617b35578190505b617b49617b4185617a01565b830182617ae8565b50505b505050565b600082821c905092915050565b6000617b6f60001984600802617b51565b1980831691505092915050565b6000617b888383617b5e565b9150826002028217905092915050565b617ba283836179e1565b67ffffffffffffffff811115617bbb57617bba616da8565b5b617bc582546173bc565b617bd0828285617b0b565b6000601f831160018114617bff5760008415617bed578287013590505b617bf78582617b7c565b865550617c5f565b601f198416617c0d866179ec565b60005b82811015617c3557848901358255600182019150602085019450602081019050617c10565b86831015617c525784890135617c4e601f891682617b5e565b8355505b6001600288020188555050505b50505050505050565b600082905092915050565b60008190508160005260206000209050919050565b601f821115617cc957617c9a81617c73565b617ca384617a01565b81016020851015617cb2578190505b617cc6617cbe85617a01565b830182617ae8565b50505b505050565b617cd88383617c68565b67ffffffffffffffff811115617cf157617cf0616da8565b5b617cfb82546173bc565b617d06828285617c88565b6000601f831160018114617d355760008415617d23578287013590505b617d2d8582617b7c565b865550617d95565b601f198416617d4386617c73565b60005b82811015617d6b57848901358255600182019150602085019450602081019050617d46565b86831015617d885784890135617d84601f891682617b5e565b8355505b6001600288020188555050505b50505050505050565b7f50726f706f7365576974684175746f457865637574696f6e0000000000000000600082015250565b6000617dd46018836167f2565b9150617ddf82617d9e565b602082019050919050565b60006020820190508181036000830152617e0381617dc7565b9050919050565b7f554e504155534500000000000000000000000000000000000000000000000000600082015250565b6000617e406007836167f2565b9150617e4b82617e0a565b602082019050919050565b60006020820190508181036000830152617e6f81617e33565b9050919050565b7f5041555345000000000000000000000000000000000000000000000000000000600082015250565b6000617eac6005836167f2565b9150617eb782617e76565b602082019050919050565b60006020820190508181036000830152617edb81617e9f565b9050919050565b7f416d6f756e74206d7573742062652067726561746572207468616e2030000000600082015250565b6000617f18601d836167f2565b9150617f2382617ee2565b602082019050919050565b60006020820190508181036000830152617f4781617f0b565b9050919050565b7f496e76616c6964206c6f636b20706572696f6400000000000000000000000000600082015250565b6000617f846013836167f2565b9150617f8f82617f4e565b602082019050919050565b60006020820190508181036000830152617fb381617f77565b9050919050565b7f496e73756666696369656e742062616c616e6365000000000000000000000000600082015250565b6000617ff06014836167f2565b9150617ffb82617fba565b602082019050919050565b6000602082019050818103600083015261801f81617fe3565b9050919050565b600060608201905061803b6000830186616797565b6180486020830185616797565b6180556040830184616797565b949350505050565b600061806882616734565b915061807383616734565b925082820261808181616734565b9150828204841483151761809857618097617459565b5b5092915050565b6000819050919050565b600067ffffffffffffffff82169050919050565b60006180d86180d36180ce8461809f565b617a70565b6180a9565b9050919050565b6180e8816180bd565b82525050565b600060208201905061810360008301846180df565b92915050565b7f563720616c726561647920696e697469616c697a656400000000000000000000600082015250565b600061813f6016836167f2565b915061814a82618109565b602082019050919050565b6000602082019050818103600083015261816e81618132565b9050919050565b600061819061818b6181868461809f565b617a70565b616734565b9050919050565b6181a081618175565b82525050565b7f4669786564207374616b696e67207265776172642063616c63756c6174696f6e60008201527f2062756700000000000000000000000000000000000000000000000000000000602082015250565b60006182026024836167f2565b915061820d826181a6565b604082019050919050565b600060408201905061822d6000830184618197565b818103602083015261823e816181f5565b905092915050565b600060408201905061825b6000830185616883565b6182686020830184616797565b9392505050565b7f4172726179206c656e677468206d69736d617463680000000000000000000000600082015250565b60006182a56015836167f2565b91506182b08261826f565b602082019050919050565b600060208201905081810360008301526182d481618298565b9050919050565b7f546f6f206d616e79207374616b657320696e2062617463680000000000000000600082015250565b60006183116018836167f2565b915061831c826182db565b602082019050919050565b6000602082019050818103600083015261834081618304565b9050919050565b7f42617463685374616b6500000000000000000000000000000000000000000000600082015250565b600061837d600a836167f2565b915061838882618347565b602082019050919050565b600060208201905081810360008301526183ac81618370565b9050919050565b7f4d756c7469706c696572206d757374206265206265747765656e20302e35782060008201527f616e642032780000000000000000000000000000000000000000000000000000602082015250565b600061840f6026836167f2565b915061841a826183b3565b604082019050919050565b6000602082019050818103600083015261843e81618402565b9050919050565b600060608201905061845a60008301866167d8565b6184676020830185616797565b6184746040830184616797565b949350505050565b60008151905061848b81617334565b92915050565b6000602082840312156184a7576184a661672a565b5b60006184b58482850161847c565b91505092915050565b6184c7826167e7565b67ffffffffffffffff8111156184e0576184df616da8565b5b6184ea82546173bc565b6184f5828285617b0b565b600060209050601f8311600181146185285760008415618516578287015190505b6185208582617b7c565b865550618588565b601f198416618536866179ec565b60005b8281101561855e57848901518255600182019150602085019450602081019050618539565b8683101561857b5784890151618577601f891682617b5e565b8355505b6001600288020188555050505b505050505050565b600081905092915050565b60006185a682616909565b6185b08185618590565b93506185c0818560208601616803565b80840191505092915050565b60006185d8828461859b565b91508190509291505056fea2646970667358221220477cdc8310e9a4f4664256f89f1c33bd30b6eee83cfc0ad26f658668bc6075ed64736f6c63430008160033",
  "linkReferences": {},
  "deployedLinkReferences": {}
}