{
  "_format": "hh-sol-artifact-1",
  "contractName": "FIACoinV7Upgradeable",
  "sourceName": "contracts/FIACoinV7Upgradeable.sol",
  "abi": [
    {
      "inputs": [
        {
          "internalType": "address",
          "name": "target",
          "type": "address"
        }
      ],
      "name": "AddressEmptyCode",
      "type": "error"
    },
    {
      "inputs": [
        {
          "internalType": "address",
          "name": "implementation",
          "type": "address"
        }
      ],
      "name": "ERC1967InvalidImplementation",
      "type": "error"
    },
    {
      "inputs": [],
      "name": "ERC1967NonPayable",
      "type": "error"
    },
    {
      "inputs": [
        {
          "internalType": "address",
          "name": "spender",
          "type": "address"
        },
        {
          "internalType": "uint256",
          "name": "allowance",
          "type": "uint256"
        },
        {
          "internalType": "uint256",
          "name": "needed",
          "type": "uint256"
        }
      ],
      "name": "ERC20InsufficientAllowance",
      "type": "error"
    },
    {
      "inputs": [
        {
          "internalType": "address",
          "name": "sender",
          "type": "address"
        },
        {
          "internalType": "uint256",
          "name": "balance",
          "type": "uint256"
        },
        {
          "internalType": "uint256",
          "name": "needed",
          "type": "uint256"
        }
      ],
      "name": "ERC20InsufficientBalance",
      "type": "error"
    },
    {
      "inputs": [
        {
          "internalType": "address",
          "name": "approver",
          "type": "address"
        }
      ],
      "name": "ERC20InvalidApprover",
      "type": "error"
    },
    {
      "inputs": [
        {
          "internalType": "address",
          "name": "receiver",
          "type": "address"
        }
      ],
      "name": "ERC20InvalidReceiver",
      "type": "error"
    },
    {
      "inputs": [
        {
          "internalType": "address",
          "name": "sender",
          "type": "address"
        }
      ],
      "name": "ERC20InvalidSender",
      "type": "error"
    },
    {
      "inputs": [
        {
          "internalType": "address",
          "name": "spender",
          "type": "address"
        }
      ],
      "name": "ERC20InvalidSpender",
      "type": "error"
    },
    {
      "inputs": [],
      "name": "EnforcedPause",
      "type": "error"
    },
    {
      "inputs": [],
      "name": "ExpectedPause",
      "type": "error"
    },
    {
      "inputs": [],
      "name": "FailedCall",
      "type": "error"
    },
    {
      "inputs": [],
      "name": "InvalidInitialization",
      "type": "error"
    },
    {
      "inputs": [],
      "name": "NotInitializing",
      "type": "error"
    },
    {
      "inputs": [
        {
          "internalType": "address",
          "name": "owner",
          "type": "address"
        }
      ],
      "name": "OwnableInvalidOwner",
      "type": "error"
    },
    {
      "inputs": [
        {
          "internalType": "address",
          "name": "account",
          "type": "address"
        }
      ],
      "name": "OwnableUnauthorizedAccount",
      "type": "error"
    },
    {
      "inputs": [],
      "name": "ReentrancyGuardReentrantCall",
      "type": "error"
    },
    {
      "inputs": [],
      "name": "UUPSUnauthorizedCallContext",
      "type": "error"
    },
    {
      "inputs": [
        {
          "internalType": "bytes32",
          "name": "slot",
          "type": "bytes32"
        }
      ],
      "name": "UUPSUnsupportedProxiableUUID",
      "type": "error"
    },
    {
      "anonymous": false,
      "inputs": [
        {
          "indexed": true,
          "internalType": "address",
          "name": "owner",
          "type": "address"
        },
        {
          "indexed": true,
          "internalType": "address",
          "name": "spender",
          "type": "address"
        },
        {
          "indexed": false,
          "internalType": "uint256",
          "name": "value",
          "type": "uint256"
        }
      ],
      "name": "Approval",
      "type": "event"
    },
    {
      "anonymous": false,
      "inputs": [
        {
          "indexed": true,
          "internalType": "address",
          "name": "from",
          "type": "address"
        },
        {
          "indexed": false,
          "internalType": "uint256",
          "name": "totalAmount",
          "type": "uint256"
        },
        {
          "indexed": false,
          "internalType": "uint256",
          "name": "recipientCount",
          "type": "uint256"
        }
      ],
      "name": "BatchTransfer",
      "type": "event"
    },
    {
      "anonymous": false,
      "inputs": [
        {
          "indexed": false,
          "internalType": "uint256",
          "name": "version",
          "type": "uint256"
        },
        {
          "indexed": false,
          "internalType": "string",
          "name": "description",
          "type": "string"
        }
      ],
      "name": "BugFixApplied",
      "type": "event"
    },
    {
      "anonymous": false,
      "inputs": [
        {
          "indexed": false,
          "internalType": "bool",
          "name": "enabled",
          "type": "bool"
        },
        {
          "indexed": false,
          "internalType": "uint256",
          "name": "multiplier",
          "type": "uint256"
        }
      ],
      "name": "DynamicAPYEnabled",
      "type": "event"
    },
    {
      "anonymous": false,
      "inputs": [
        {
          "indexed": false,
          "internalType": "string",
          "name": "action",
          "type": "string"
        },
        {
          "indexed": true,
          "internalType": "address",
          "name": "actor",
          "type": "address"
        }
      ],
      "name": "EmergencyAction",
      "type": "event"
    },
    {
      "anonymous": false,
      "inputs": [
        {
          "indexed": true,
          "internalType": "address",
          "name": "user",
          "type": "address"
        },
        {
          "indexed": false,
          "internalType": "bool",
          "name": "enabled",
          "type": "bool"
        }
      ],
      "name": "EmergencyWithdrawalToggled",
      "type": "event"
    },
    {
      "anonymous": false,
      "inputs": [
        {
          "indexed": false,
          "internalType": "uint256",
          "name": "oldFee",
          "type": "uint256"
        },
        {
          "indexed": false,
          "internalType": "uint256",
          "name": "newFee",
          "type": "uint256"
        }
      ],
      "name": "FeeConfigurationChanged",
      "type": "event"
    },
    {
      "anonymous": false,
      "inputs": [
        {
          "indexed": false,
          "internalType": "uint256",
          "name": "treasury",
          "type": "uint256"
        },
        {
          "indexed": false,
          "internalType": "uint256",
          "name": "founder",
          "type": "uint256"
        },
        {
          "indexed": false,
          "internalType": "uint256",
          "name": "burn",
          "type": "uint256"
        }
      ],
      "name": "FeeDistributionChanged",
      "type": "event"
    },
    {
      "anonymous": false,
      "inputs": [
        {
          "indexed": true,
          "internalType": "address",
          "name": "account",
          "type": "address"
        },
        {
          "indexed": false,
          "internalType": "bool",
          "name": "exempt",
          "type": "bool"
        }
      ],
      "name": "FeeExemptionSet",
      "type": "event"
    },
    {
      "anonymous": false,
      "inputs": [
        {
          "indexed": true,
          "internalType": "address",
          "name": "from",
          "type": "address"
        },
        {
          "indexed": true,
          "internalType": "address",
          "name": "to",
          "type": "address"
        },
        {
          "indexed": false,
          "internalType": "uint256",
          "name": "amount",
          "type": "uint256"
        }
      ],
      "name": "Fingered",
      "type": "event"
    },
    {
      "anonymous": false,
      "inputs": [
        {
          "indexed": false,
          "internalType": "uint64",
          "name": "version",
          "type": "uint64"
        }
      ],
      "name": "Initialized",
      "type": "event"
    },
    {
      "anonymous": false,
      "inputs": [
        {
          "indexed": true,
          "internalType": "address",
          "name": "previousOwner",
          "type": "address"
        },
        {
          "indexed": true,
          "internalType": "address",
          "name": "newOwner",
          "type": "address"
        }
      ],
      "name": "OwnershipTransferred",
      "type": "event"
    },
    {
      "anonymous": false,
      "inputs": [
        {
          "indexed": false,
          "internalType": "address",
          "name": "account",
          "type": "address"
        }
      ],
      "name": "Paused",
      "type": "event"
    },
    {
      "anonymous": false,
      "inputs": [
        {
          "indexed": true,
          "internalType": "uint256",
          "name": "proposalId",
          "type": "uint256"
        },
        {
          "indexed": true,
          "internalType": "address",
          "name": "proposer",
          "type": "address"
        },
        {
          "indexed": false,
          "internalType": "string",
          "name": "description",
          "type": "string"
        }
      ],
      "name": "ProposalCreated",
      "type": "event"
    },
    {
      "anonymous": false,
      "inputs": [
        {
          "indexed": true,
          "internalType": "uint256",
          "name": "proposalId",
          "type": "uint256"
        }
      ],
      "name": "ProposalExecuted",
      "type": "event"
    },
    {
      "anonymous": false,
      "inputs": [
        {
          "indexed": true,
          "internalType": "address",
          "name": "user",
          "type": "address"
        },
        {
          "indexed": false,
          "internalType": "uint256",
          "name": "reward",
          "type": "uint256"
        },
        {
          "indexed": false,
          "internalType": "uint256",
          "name": "stakeIndex",
          "type": "uint256"
        }
      ],
      "name": "RewardClaimed",
      "type": "event"
    },
    {
      "anonymous": false,
      "inputs": [
        {
          "indexed": true,
          "internalType": "address",
          "name": "user",
          "type": "address"
        },
        {
          "indexed": false,
          "internalType": "uint256",
          "name": "amount",
          "type": "uint256"
        },
        {
          "indexed": false,
          "internalType": "uint256",
          "name": "lockPeriod",
          "type": "uint256"
        },
        {
          "indexed": false,
          "internalType": "uint256",
          "name": "stakeIndex",
          "type": "uint256"
        }
      ],
      "name": "Staked",
      "type": "event"
    },
    {
      "anonymous": false,
      "inputs": [
        {
          "indexed": true,
          "internalType": "address",
          "name": "from",
          "type": "address"
        },
        {
          "indexed": true,
          "internalType": "address",
          "name": "to",
          "type": "address"
        },
        {
          "indexed": false,
          "internalType": "uint256",
          "name": "value",
          "type": "uint256"
        }
      ],
      "name": "Transfer",
      "type": "event"
    },
    {
      "anonymous": false,
      "inputs": [
        {
          "indexed": true,
          "internalType": "address",
          "name": "from",
          "type": "address"
        },
        {
          "indexed": true,
          "internalType": "address",
          "name": "to",
          "type": "address"
        },
        {
          "indexed": false,
          "internalType": "uint256",
          "name": "amount",
          "type": "uint256"
        },
        {
          "indexed": false,
          "internalType": "bytes32",
          "name": "memoHash",
          "type": "bytes32"
        }
      ],
      "name": "TransferWithDataLite",
      "type": "event"
    },
    {
      "anonymous": false,
      "inputs": [
        {
          "indexed": false,
          "internalType": "address",
          "name": "account",
          "type": "address"
        }
      ],
      "name": "Unpaused",
      "type": "event"
    },
    {
      "anonymous": false,
      "inputs": [
        {
          "indexed": true,
          "internalType": "address",
          "name": "user",
          "type": "address"
        },
        {
          "indexed": false,
          "internalType": "uint256",
          "name": "amount",
          "type": "uint256"
        },
        {
          "indexed": false,
          "internalType": "uint256",
          "name": "stakeIndex",
          "type": "uint256"
        }
      ],
      "name": "Unstaked",
      "type": "event"
    },
    {
      "anonymous": false,
      "inputs": [
        {
          "indexed": true,
          "internalType": "address",
          "name": "implementation",
          "type": "address"
        }
      ],
      "name": "Upgraded",
      "type": "event"
    },
    {
      "anonymous": false,
      "inputs": [
        {
          "indexed": true,
          "internalType": "address",
          "name": "user",
          "type": "address"
        },
        {
          "indexed": false,
          "internalType": "string",
          "name": "feature",
          "type": "string"
        }
      ],
      "name": "V7FeatureUsed",
      "type": "event"
    },
    {
      "anonymous": false,
      "inputs": [
        {
          "indexed": true,
          "internalType": "uint256",
          "name": "proposalId",
          "type": "uint256"
        },
        {
          "indexed": true,
          "internalType": "address",
          "name": "voter",
          "type": "address"
        },
        {
          "indexed": false,
          "internalType": "bool",
          "name": "support",
          "type": "bool"
        },
        {
          "indexed": false,
          "internalType": "uint256",
          "name": "votingPower",
          "type": "uint256"
        }
      ],
      "name": "VoteCast",
      "type": "event"
    },
    {
      "inputs": [],
      "name": "EXECUTION_DELAY",
      "outputs": [
        {
          "internalType": "uint256",
          "name": "",
          "type": "uint256"
        }
      ],
      "stateMutability": "view",
      "type": "function"
    },
    {
      "inputs": [],
      "name": "FEE_CHANGE_DELAY",
      "outputs": [
        {
          "internalType": "uint256",
          "name": "",
          "type": "uint256"
        }
      ],
      "stateMutability": "view",
      "type": "function"
    },
    {
      "inputs": [],
      "name": "LOCK_180_DAYS",
      "outputs": [
        {
          "internalType": "uint256",
          "name": "",
          "type": "uint256"
        }
      ],
      "stateMutability": "view",
      "type": "function"
    },
    {
      "inputs": [],
      "name": "LOCK_30_DAYS",
      "outputs": [
        {
          "internalType": "uint256",
          "name": "",
          "type": "uint256"
        }
      ],
      "stateMutability": "view",
      "type": "function"
    },
    {
      "inputs": [],
      "name": "LOCK_365_DAYS",
      "outputs": [
        {
          "internalType": "uint256",
          "name": "",
          "type": "uint256"
        }
      ],
      "stateMutability": "view",
      "type": "function"
    },
    {
      "inputs": [],
      "name": "LOCK_90_DAYS",
      "outputs": [
        {
          "internalType": "uint256",
          "name": "",
          "type": "uint256"
        }
      ],
      "stateMutability": "view",
      "type": "function"
    },
    {
      "inputs": [],
      "name": "MAX_TOTAL_FEE_BP",
      "outputs": [
        {
          "internalType": "uint256",
          "name": "",
          "type": "uint256"
        }
      ],
      "stateMutability": "view",
      "type": "function"
    },
    {
      "inputs": [],
      "name": "PROPOSAL_THRESHOLD",
      "outputs": [
        {
          "internalType": "uint256",
          "name": "",
          "type": "uint256"
        }
      ],
      "stateMutability": "view",
      "type": "function"
    },
    {
      "inputs": [],
      "name": "QUORUM_PERCENTAGE",
      "outputs": [
        {
          "internalType": "uint256",
          "name": "",
          "type": "uint256"
        }
      ],
      "stateMutability": "view",
      "type": "function"
    },
    {
      "inputs": [],
      "name": "TOTAL_SUPPLY",
      "outputs": [
        {
          "internalType": "uint256",
          "name": "",
          "type": "uint256"
        }
      ],
      "stateMutability": "view",
      "type": "function"
    },
    {
      "inputs": [],
      "name": "UPGRADE_INTERFACE_VERSION",
      "outputs": [
        {
          "internalType": "string",
          "name": "",
          "type": "string"
        }
      ],
      "stateMutability": "view",
      "type": "function"
    },
    {
      "inputs": [],
      "name": "VOTING_PERIOD",
      "outputs": [
        {
          "internalType": "uint256",
          "name": "",
          "type": "uint256"
        }
      ],
      "stateMutability": "view",
      "type": "function"
    },
    {
      "inputs": [
        {
          "internalType": "address",
          "name": "owner",
          "type": "address"
        },
        {
          "internalType": "address",
          "name": "spender",
          "type": "address"
        }
      ],
      "name": "allowance",
      "outputs": [
        {
          "internalType": "uint256",
          "name": "",
          "type": "uint256"
        }
      ],
      "stateMutability": "view",
      "type": "function"
    },
    {
      "inputs": [
        {
          "internalType": "address",
          "name": "spender",
          "type": "address"
        },
        {
          "internalType": "uint256",
          "name": "value",
          "type": "uint256"
        }
      ],
      "name": "approve",
      "outputs": [
        {
          "internalType": "bool",
          "name": "",
          "type": "bool"
        }
      ],
      "stateMutability": "nonpayable",
      "type": "function"
    },
    {
      "inputs": [
        {
          "internalType": "address",
          "name": "account",
          "type": "address"
        }
      ],
      "name": "balanceOf",
      "outputs": [
        {
          "internalType": "uint256",
          "name": "",
          "type": "uint256"
        }
      ],
      "stateMutability": "view",
      "type": "function"
    },
    {
      "inputs": [],
      "name": "baseAPYMultiplier",
      "outputs": [
        {
          "internalType": "uint256",
          "name": "",
          "type": "uint256"
        }
      ],
      "stateMutability": "view",
      "type": "function"
    },
    {
      "inputs": [
        {
          "internalType": "uint256[]",
          "name": "amounts",
          "type": "uint256[]"
        },
        {
          "internalType": "uint256[]",
          "name": "lockPeriods",
          "type": "uint256[]"
        },
        {
          "internalType": "bool[]",
          "name": "autoCompounds",
          "type": "bool[]"
        }
      ],
      "name": "batchStake",
      "outputs": [],
      "stateMutability": "nonpayable",
      "type": "function"
    },
    {
      "inputs": [],
      "name": "bugFixVersion",
      "outputs": [
        {
          "internalType": "uint256",
          "name": "",
          "type": "uint256"
        }
      ],
      "stateMutability": "view",
      "type": "function"
    },
    {
      "inputs": [
        {
          "internalType": "address",
          "name": "user",
          "type": "address"
        },
        {
          "internalType": "uint256",
          "name": "stakeIndex",
          "type": "uint256"
        }
      ],
      "name": "calculateRewards",
      "outputs": [
        {
          "internalType": "uint256",
          "name": "",
          "type": "uint256"
        }
      ],
      "stateMutability": "view",
      "type": "function"
    },
    {
      "inputs": [
        {
          "internalType": "bool",
          "name": "enabled",
          "type": "bool"
        },
        {
          "internalType": "uint256",
          "name": "multiplier",
          "type": "uint256"
        }
      ],
      "name": "configureDynamicAPY",
      "outputs": [],
      "stateMutability": "nonpayable",
      "type": "function"
    },
    {
      "inputs": [],
      "name": "decimals",
      "outputs": [
        {
          "internalType": "uint8",
          "name": "",
          "type": "uint8"
        }
      ],
      "stateMutability": "view",
      "type": "function"
    },
    {
      "inputs": [],
      "name": "dynamicAPYEnabled",
      "outputs": [
        {
          "internalType": "bool",
          "name": "",
          "type": "bool"
        }
      ],
      "stateMutability": "view",
      "type": "function"
    },
    {
      "inputs": [],
      "name": "emergencyPause",
      "outputs": [],
      "stateMutability": "nonpayable",
      "type": "function"
    },
    {
      "inputs": [],
      "name": "emergencyUnpause",
      "outputs": [],
      "stateMutability": "nonpayable",
      "type": "function"
    },
    {
      "inputs": [
        {
          "internalType": "address",
          "name": "",
          "type": "address"
        }
      ],
      "name": "emergencyWithdrawalEnabled",
      "outputs": [
        {
          "internalType": "bool",
          "name": "",
          "type": "bool"
        }
      ],
      "stateMutability": "view",
      "type": "function"
    },
    {
      "inputs": [],
      "name": "executor",
      "outputs": [
        {
          "internalType": "address",
          "name": "",
          "type": "address"
        }
      ],
      "stateMutability": "view",
      "type": "function"
    },
    {
      "inputs": [],
      "name": "feeToBurnBP",
      "outputs": [
        {
          "internalType": "uint256",
          "name": "",
          "type": "uint256"
        }
      ],
      "stateMutability": "view",
      "type": "function"
    },
    {
      "inputs": [],
      "name": "feeToFounderBP",
      "outputs": [
        {
          "internalType": "uint256",
          "name": "",
          "type": "uint256"
        }
      ],
      "stateMutability": "view",
      "type": "function"
    },
    {
      "inputs": [],
      "name": "feeToTreasuryBP",
      "outputs": [
        {
          "internalType": "uint256",
          "name": "",
          "type": "uint256"
        }
      ],
      "stateMutability": "view",
      "type": "function"
    },
    {
      "inputs": [],
      "name": "founderWallet",
      "outputs": [
        {
          "internalType": "address",
          "name": "",
          "type": "address"
        }
      ],
      "stateMutability": "view",
      "type": "function"
    },
    {
      "inputs": [
        {
          "internalType": "uint256",
          "name": "lockPeriod",
          "type": "uint256"
        }
      ],
      "name": "getEffectiveAPY",
      "outputs": [
        {
          "internalType": "uint256",
          "name": "",
          "type": "uint256"
        }
      ],
      "stateMutability": "view",
      "type": "function"
    },
    {
      "inputs": [
        {
          "internalType": "address",
          "name": "user",
          "type": "address"
        }
      ],
      "name": "getStakeCount",
      "outputs": [
        {
          "internalType": "uint256",
          "name": "",
          "type": "uint256"
        }
      ],
      "stateMutability": "view",
      "type": "function"
    },
    {
      "inputs": [
        {
          "internalType": "address",
          "name": "user",
          "type": "address"
        }
      ],
      "name": "getUserStakingInfo",
      "outputs": [
        {
          "internalType": "uint256",
          "name": "totalUserStaked",
          "type": "uint256"
        },
        {
          "internalType": "uint256",
          "name": "totalPendingRewards",
          "type": "uint256"
        },
        {
          "internalType": "uint256",
          "name": "activeStakes",
          "type": "uint256"
        },
        {
          "internalType": "uint256",
          "name": "nextUnlockTime",
          "type": "uint256"
        }
      ],
      "stateMutability": "view",
      "type": "function"
    },
    {
      "inputs": [
        {
          "internalType": "uint256",
          "name": "",
          "type": "uint256"
        },
        {
          "internalType": "address",
          "name": "",
          "type": "address"
        }
      ],
      "name": "hasVoted",
      "outputs": [
        {
          "internalType": "bool",
          "name": "",
          "type": "bool"
        }
      ],
      "stateMutability": "view",
      "type": "function"
    },
    {
      "inputs": [
        {
          "internalType": "address",
          "name": "_treasury",
          "type": "address"
        },
        {
          "internalType": "address",
          "name": "_founder",
          "type": "address"
        },
        {
          "internalType": "address",
          "name": "_executor",
          "type": "address"
        }
      ],
      "name": "initialize",
      "outputs": [],
      "stateMutability": "nonpayable",
      "type": "function"
    },
    {
      "inputs": [],
      "name": "initializeV7",
      "outputs": [],
      "stateMutability": "nonpayable",
      "type": "function"
    },
    {
      "inputs": [
        {
          "internalType": "address",
          "name": "",
          "type": "address"
        }
      ],
      "name": "isFeeExempt",
      "outputs": [
        {
          "internalType": "bool",
          "name": "",
          "type": "bool"
        }
      ],
      "stateMutability": "view",
      "type": "function"
    },
    {
      "inputs": [],
      "name": "lastFeeChange",
      "outputs": [
        {
          "internalType": "uint256",
          "name": "",
          "type": "uint256"
        }
      ],
      "stateMutability": "view",
      "type": "function"
    },
    {
      "inputs": [
        {
          "internalType": "address",
          "name": "",
          "type": "address"
        }
      ],
      "name": "lastTxBlock",
      "outputs": [
        {
          "internalType": "uint256",
          "name": "",
          "type": "uint256"
        }
      ],
      "stateMutability": "view",
      "type": "function"
    },
    {
      "inputs": [
        {
          "internalType": "address",
          "name": "",
          "type": "address"
        }
      ],
      "name": "lastTxTime",
      "outputs": [
        {
          "internalType": "uint256",
          "name": "",
          "type": "uint256"
        }
      ],
      "stateMutability": "view",
      "type": "function"
    },
    {
      "inputs": [],
      "name": "name",
      "outputs": [
        {
          "internalType": "string",
          "name": "",
          "type": "string"
        }
      ],
      "stateMutability": "view",
      "type": "function"
    },
    {
      "inputs": [],
      "name": "owner",
      "outputs": [
        {
          "internalType": "address",
          "name": "",
          "type": "address"
        }
      ],
      "stateMutability": "view",
      "type": "function"
    },
    {
      "inputs": [],
      "name": "paused",
      "outputs": [
        {
          "internalType": "bool",
          "name": "",
          "type": "bool"
        }
      ],
      "stateMutability": "view",
      "type": "function"
    },
    {
      "inputs": [],
      "name": "proposalCount",
      "outputs": [
        {
          "internalType": "uint256",
          "name": "",
          "type": "uint256"
        }
      ],
      "stateMutability": "view",
      "type": "function"
    },
    {
      "inputs": [
        {
          "internalType": "uint256",
          "name": "",
          "type": "uint256"
        }
      ],
      "name": "proposals",
      "outputs": [
        {
          "internalType": "uint256",
          "name": "id",
          "type": "uint256"
        },
        {
          "internalType": "address",
          "name": "proposer",
          "type": "address"
        },
        {
          "internalType": "string",
          "name": "description",
          "type": "string"
        },
        {
          "internalType": "uint256",
          "name": "forVotes",
          "type": "uint256"
        },
        {
          "internalType": "uint256",
          "name": "againstVotes",
          "type": "uint256"
        },
        {
          "internalType": "uint256",
          "name": "startTime",
          "type": "uint256"
        },
        {
          "internalType": "uint256",
          "name": "endTime",
          "type": "uint256"
        },
        {
          "internalType": "bool",
          "name": "executed",
          "type": "bool"
        },
        {
          "internalType": "enum FIACoinV6Upgradeable.ProposalType",
          "name": "proposalType",
          "type": "uint8"
        },
        {
          "internalType": "bytes",
          "name": "proposalData",
          "type": "bytes"
        }
      ],
      "stateMutability": "view",
      "type": "function"
    },
    {
      "inputs": [
        {
          "internalType": "string",
          "name": "description",
          "type": "string"
        },
        {
          "internalType": "enum FIACoinV6Upgradeable.ProposalType",
          "name": "proposalType",
          "type": "uint8"
        },
        {
          "internalType": "bytes",
          "name": "proposalData",
          "type": "bytes"
        },
        {
          "internalType": "uint256",
          "name": "executionDelay",
          "type": "uint256"
        }
      ],
      "name": "proposeWithAutoExecution",
      "outputs": [
        {
          "internalType": "uint256",
          "name": "",
          "type": "uint256"
        }
      ],
      "stateMutability": "nonpayable",
      "type": "function"
    },
    {
      "inputs": [],
      "name": "proxiableUUID",
      "outputs": [
        {
          "internalType": "bytes32",
          "name": "",
          "type": "bytes32"
        }
      ],
      "stateMutability": "view",
      "type": "function"
    },
    {
      "inputs": [],
      "name": "renounceOwnership",
      "outputs": [],
      "stateMutability": "nonpayable",
      "type": "function"
    },
    {
      "inputs": [],
      "name": "rewardPool",
      "outputs": [
        {
          "internalType": "uint256",
          "name": "",
          "type": "uint256"
        }
      ],
      "stateMutability": "view",
      "type": "function"
    },
    {
      "inputs": [
        {
          "internalType": "bool",
          "name": "enabled",
          "type": "bool"
        }
      ],
      "name": "setEmergencyWithdrawal",
      "outputs": [],
      "stateMutability": "nonpayable",
      "type": "function"
    },
    {
      "inputs": [
        {
          "internalType": "uint256",
          "name": "_totalFeeBP",
          "type": "uint256"
        }
      ],
      "name": "setTotalFeeBP",
      "outputs": [],
      "stateMutability": "nonpayable",
      "type": "function"
    },
    {
      "inputs": [
        {
          "internalType": "uint256",
          "name": "amount",
          "type": "uint256"
        },
        {
          "internalType": "uint256",
          "name": "lockPeriod",
          "type": "uint256"
        },
        {
          "internalType": "bool",
          "name": "autoCompound",
          "type": "bool"
        }
      ],
      "name": "stake",
      "outputs": [],
      "stateMutability": "nonpayable",
      "type": "function"
    },
    {
      "inputs": [
        {
          "internalType": "uint256",
          "name": "lockPeriod",
          "type": "uint256"
        }
      ],
      "name": "stakingAPY",
      "outputs": [
        {
          "internalType": "uint256",
          "name": "",
          "type": "uint256"
        }
      ],
      "stateMutability": "pure",
      "type": "function"
    },
    {
      "inputs": [],
      "name": "symbol",
      "outputs": [
        {
          "internalType": "string",
          "name": "",
          "type": "string"
        }
      ],
      "stateMutability": "view",
      "type": "function"
    },
    {
      "inputs": [],
      "name": "tokenStats",
      "outputs": [
        {
          "internalType": "uint256",
          "name": "totalFeeCollected",
          "type": "uint256"
        },
        {
          "internalType": "uint256",
          "name": "totalBurned",
          "type": "uint256"
        },
        {
          "internalType": "uint256",
          "name": "totalStaked",
          "type": "uint256"
        },
        {
          "internalType": "uint256",
          "name": "uniqueHolders",
          "type": "uint256"
        },
        {
          "internalType": "uint256",
          "name": "transactionCount",
          "type": "uint256"
        }
      ],
      "stateMutability": "view",
      "type": "function"
    },
    {
      "inputs": [],
      "name": "totalFeeBP",
      "outputs": [
        {
          "internalType": "uint256",
          "name": "",
          "type": "uint256"
        }
      ],
      "stateMutability": "view",
      "type": "function"
    },
    {
      "inputs": [],
      "name": "totalStaked",
      "outputs": [
        {
          "internalType": "uint256",
          "name": "",
          "type": "uint256"
        }
      ],
      "stateMutability": "view",
      "type": "function"
    },
    {
      "inputs": [],
      "name": "totalSupply",
      "outputs": [
        {
          "internalType": "uint256",
          "name": "",
          "type": "uint256"
        }
      ],
      "stateMutability": "view",
      "type": "function"
    },
    {
      "inputs": [
        {
          "internalType": "address",
          "name": "to",
          "type": "address"
        },
        {
          "internalType": "uint256",
          "name": "value",
          "type": "uint256"
        }
      ],
      "name": "transfer",
      "outputs": [
        {
          "internalType": "bool",
          "name": "",
          "type": "bool"
        }
      ],
      "stateMutability": "nonpayable",
      "type": "function"
    },
    {
      "inputs": [
        {
          "internalType": "address",
          "name": "from",
          "type": "address"
        },
        {
          "internalType": "address",
          "name": "to",
          "type": "address"
        },
        {
          "internalType": "uint256",
          "name": "value",
          "type": "uint256"
        }
      ],
      "name": "transferFrom",
      "outputs": [
        {
          "internalType": "bool",
          "name": "",
          "type": "bool"
        }
      ],
      "stateMutability": "nonpayable",
      "type": "function"
    },
    {
      "inputs": [
        {
          "internalType": "address",
          "name": "newOwner",
          "type": "address"
        }
      ],
      "name": "transferOwnership",
      "outputs": [],
      "stateMutability": "nonpayable",
      "type": "function"
    },
    {
      "inputs": [],
      "name": "treasury",
      "outputs": [
        {
          "internalType": "address",
          "name": "",
          "type": "address"
        }
      ],
      "stateMutability": "view",
      "type": "function"
    },
    {
      "inputs": [],
      "name": "txLimits",
      "outputs": [
        {
          "internalType": "uint256",
          "name": "maxTxAmount",
          "type": "uint256"
        },
        {
          "internalType": "uint256",
          "name": "maxWalletAmount",
          "type": "uint256"
        },
        {
          "internalType": "uint256",
          "name": "txCooldown",
          "type": "uint256"
        },
        {
          "internalType": "bool",
          "name": "limitsActive",
          "type": "bool"
        }
      ],
      "stateMutability": "view",
      "type": "function"
    },
    {
      "inputs": [
        {
          "internalType": "uint256",
          "name": "stakeIndex",
          "type": "uint256"
        }
      ],
      "name": "unstake",
      "outputs": [],
      "stateMutability": "nonpayable",
      "type": "function"
    },
    {
      "inputs": [
        {
          "internalType": "address",
          "name": "newImplementation",
          "type": "address"
        },
        {
          "internalType": "bytes",
          "name": "data",
          "type": "bytes"
        }
      ],
      "name": "upgradeToAndCall",
      "outputs": [],
      "stateMutability": "payable",
      "type": "function"
    },
    {
      "inputs": [
        {
          "internalType": "bytes32",
          "name": "",
          "type": "bytes32"
        }
      ],
      "name": "usedNonces",
      "outputs": [
        {
          "internalType": "bool",
          "name": "",
          "type": "bool"
        }
      ],
      "stateMutability": "view",
      "type": "function"
    },
    {
      "inputs": [
        {
          "internalType": "address",
          "name": "",
          "type": "address"
        },
        {
          "internalType": "uint256",
          "name": "",
          "type": "uint256"
        }
      ],
      "name": "userStakes",
      "outputs": [
        {
          "internalType": "uint256",
          "name": "amount",
          "type": "uint256"
        },
        {
          "internalType": "uint256",
          "name": "stakingTime",
          "type": "uint256"
        },
        {
          "internalType": "uint256",
          "name": "lastRewardClaim",
          "type": "uint256"
        },
        {
          "internalType": "uint256",
          "name": "lockPeriod",
          "type": "uint256"
        },
        {
          "internalType": "bool",
          "name": "autoCompound",
          "type": "bool"
        }
      ],
      "stateMutability": "view",
      "type": "function"
    },
    {
      "inputs": [
        {
          "internalType": "address",
          "name": "",
          "type": "address"
        }
      ],
      "name": "userStats",
      "outputs": [
        {
          "internalType": "uint256",
          "name": "totalFeesPaid",
          "type": "uint256"
        },
        {
          "internalType": "uint256",
          "name": "totalStakingRewards",
          "type": "uint256"
        },
        {
          "internalType": "uint256",
          "name": "transactionCount",
          "type": "uint256"
        },
        {
          "internalType": "uint256",
          "name": "firstTransactionTime",
          "type": "uint256"
        }
      ],
      "stateMutability": "view",
      "type": "function"
    },
    {
      "inputs": [],
      "name": "version",
      "outputs": [
        {
          "internalType": "string",
          "name": "",
          "type": "string"
        }
      ],
      "stateMutability": "pure",
      "type": "function"
    },
    {
      "inputs": [
        {
          "internalType": "uint256",
          "name": "",
          "type": "uint256"
        },
        {
          "internalType": "address",
          "name": "",
          "type": "address"
        }
      ],
      "name": "votingPower",
      "outputs": [
        {
          "internalType": "uint256",
          "name": "",
          "type": "uint256"
        }
      ],
      "stateMutability": "view",
      "type": "function"
    }
  ],
  "bytecode": "0x60a06040523073ffffffffffffffffffffffffffffffffffffffff1660809073ffffffffffffffffffffffffffffffffffffffff168152503480156200004457600080fd5b5062000061677f8fb21970ec047460c01b620000af60201b60201c565b6200007d67666b8c378dd315dc60c01b620000af60201b60201c565b6200009967c910b9f1b85957cc60c01b620000af60201b60201c565b620000a9620000b260201b60201c565b62000245565b50565b6000620000c4620001bc60201b60201c565b90508060000160089054906101000a900460ff161562000110576040517ff92ee8a900000000000000000000000000000000000000000000000000000000815260040160405180910390fd5b67ffffffffffffffff80168160000160009054906101000a900467ffffffffffffffff1667ffffffffffffffff1614620001b95767ffffffffffffffff8160000160006101000a81548167ffffffffffffffff021916908367ffffffffffffffff1602179055507fc7f505b2f371ae2175ee4913f4499e1f2633a7b5936321eed1cdaeb6115181d267ffffffffffffffff604051620001b0919062000228565b60405180910390a15b50565b600080620001cf620001d860201b60201c565b90508091505090565b60007ff0c57e16840df040f15088dc2f81fe391c3923bec73e23a9662efc9c229c6a0060001b905090565b600067ffffffffffffffff82169050919050565b620002228162000203565b82525050565b60006020820190506200023f600083018462000217565b92915050565b6080516186186200026f600039600081816156be01528181615713015261597c01526186186000f3fe6080604052600436106104055760003560e01c8063817b1cd211610213578063c0c53b8b11610123578063ec9870df116100ab578063f270fde41161007a578063f270fde414611009578063f2fde38b14611037578063f614134514611060578063f7d88db11461108b578063feb61724146110b457610405565b8063ec9870df14610f5f578063ee8a7c1514610f88578063eef3c7a614610fb3578063ef87b24b14610fde57610405565b8063cf57ee69116100f2578063cf57ee6914610e52578063d90125a514610e8f578063da35c66414610ecc578063dd62ed3e14610ef7578063e37c3a5514610f3457610405565b8063c0c53b8b14610daa578063c34c08e514610dd3578063c8bf908714610dfe578063ceb88a1614610e1557610405565b8063a6c26603116101a6578063b0dfd2e611610175578063b0dfd2e614610ca7578063b1610d7e14610cd6578063b5d5b5fa14610d01578063be8a361f14610d42578063beb8314c14610d6d57610405565b8063a6c2660314610bd7578063a9059cbb14610c02578063aa473e7014610c3f578063ad3cb1cc14610c7c57610405565b80638da5cb5b116101e25780638da5cb5b14610b2b578063902d55a514610b5657806395d89b4114610b81578063a23d3c3514610bac57610405565b8063817b1cd214610a585780638286521814610a83578063875bb4e214610aae5780638a65d87414610aeb57610405565b80634f1ef2861161031957806361d027b3116102a157806370a082311161027057806370a082311461096e578063715018a6146109ab5780637c4ccbea146109c25780637c6e5db7146109ed5780638093360814610a1857610405565b806361d027b3146108b057806366666aa9146108db57806369505688146109065780636f21d5911461093157610405565b80635330dd2f116102e85780635330dd2f146107db57806354fd4d501461080657806355ef9b5e14610831578063561b24631461085c5780635c975abb1461088557610405565b80634f1ef2861461075257806351383f981461076e57806351858e271461079957806352d1902d146107b057610405565b806323b872dd1161039c57806337f135d71161036b57806337f135d7146106595780633a3be4e6146106845780633f4218e0146106c157806343859632146106fe5780634a4e3bd51461073b57610405565b806323b872dd1461059f5780632a276796146105dc5780632e17de7814610605578063313ce5671461062e57610405565b8063120a8151116103d8578063120a8151146104e357806317d636051461050e57806318160ddd1461054b5780631f1f5bb31461057657610405565b8063013cf08b1461040a57806306fdde0314610450578063095ea7b31461047b578063118725ce146104b8575b600080fd5b34801561041657600080fd5b50610431600480360381019061042c9190616769565b6110f1565b6040516104479a9998979695949392919061695d565b60405180910390f35b34801561045c57600080fd5b5061046561128f565b6040516104729190616a07565b60405180910390f35b34801561048757600080fd5b506104a2600480360381019061049d9190616a55565b611330565b6040516104af9190616a95565b60405180910390f35b3480156104c457600080fd5b506104cd611353565b6040516104da9190616ab0565b60405180910390f35b3480156104ef57600080fd5b506104f8611359565b6040516105059190616ab0565b60405180910390f35b34801561051a57600080fd5b5061053560048036038101906105309190616acb565b61135f565b6040516105429190616ab0565b60405180910390f35b34801561055757600080fd5b50610560611377565b60405161056d9190616ab0565b60405180910390f35b34801561058257600080fd5b5061059d60048036038101906105989190616769565b61138f565b005b3480156105ab57600080fd5b506105c660048036038101906105c19190616af8565b6115d3565b6040516105d39190616a95565b60405180910390f35b3480156105e857600080fd5b5061060360048036038101906105fe9190616b77565b611602565b005b34801561061157600080fd5b5061062c60048036038101906106279190616769565b61176e565b005b34801561063a57600080fd5b5061064361204b565b6040516106509190616bc0565b60405180910390f35b34801561066557600080fd5b5061066e612054565b60405161067b9190616ab0565b60405180910390f35b34801561069057600080fd5b506106ab60048036038101906106a69190616cbb565b61205b565b6040516106b89190616ab0565b60405180910390f35b3480156106cd57600080fd5b506106e860048036038101906106e39190616acb565b612403565b6040516106f59190616a95565b60405180910390f35b34801561070a57600080fd5b5061072560048036038101906107209190616d62565b612423565b6040516107329190616a95565b60405180910390f35b34801561074757600080fd5b50610750612452565b005b61076c60048036038101906107679190616ed2565b612543565b005b34801561077a57600080fd5b50610783612562565b6040516107909190616ab0565b60405180910390f35b3480156107a557600080fd5b506107ae61256a565b005b3480156107bc57600080fd5b506107c561265b565b6040516107d29190616f47565b60405180910390f35b3480156107e757600080fd5b506107f061268e565b6040516107fd9190616ab0565b60405180910390f35b34801561081257600080fd5b5061081b612694565b6040516108289190616a07565b60405180910390f35b34801561083d57600080fd5b5061084661270d565b6040516108539190616ab0565b60405180910390f35b34801561086857600080fd5b50610883600480360381019061087e9190616f62565b612713565b005b34801561089157600080fd5b5061089a612c3d565b6040516108a79190616a95565b60405180910390f35b3480156108bc57600080fd5b506108c5612c62565b6040516108d29190616fb5565b60405180910390f35b3480156108e757600080fd5b506108f0612c88565b6040516108fd9190616ab0565b60405180910390f35b34801561091257600080fd5b5061091b612c8e565b6040516109289190616ab0565b60405180910390f35b34801561093d57600080fd5b5061095860048036038101906109539190616acb565b612c94565b6040516109659190616a95565b60405180910390f35b34801561097a57600080fd5b5061099560048036038101906109909190616acb565b612cb4565b6040516109a29190616ab0565b60405180910390f35b3480156109b757600080fd5b506109c0612d0b565b005b3480156109ce57600080fd5b506109d7612d1f565b6040516109e49190616ab0565b60405180910390f35b3480156109f957600080fd5b50610a02612d24565b604051610a0f9190616ab0565b60405180910390f35b348015610a2457600080fd5b50610a3f6004803603810190610a3a9190616acb565b612d2b565b604051610a4f9493929190616fd0565b60405180910390f35b348015610a6457600080fd5b50610a6d613151565b604051610a7a9190616ab0565b60405180910390f35b348015610a8f57600080fd5b50610a98613157565b604051610aa59190616ab0565b60405180910390f35b348015610aba57600080fd5b50610ad56004803603810190610ad09190616769565b61315e565b604051610ae29190616ab0565b60405180910390f35b348015610af757600080fd5b50610b126004803603810190610b0d9190616acb565b613387565b604051610b229493929190616fd0565b60405180910390f35b348015610b3757600080fd5b50610b406133b7565b604051610b4d9190616fb5565b60405180910390f35b348015610b6257600080fd5b50610b6b6133ef565b604051610b789190616ab0565b60405180910390f35b348015610b8d57600080fd5b50610b96613401565b604051610ba39190616a07565b60405180910390f35b348015610bb857600080fd5b50610bc16134a2565b604051610bce9190616fb5565b60405180910390f35b348015610be357600080fd5b50610bec6134c8565b604051610bf99190616ab0565b60405180910390f35b348015610c0e57600080fd5b50610c296004803603810190610c249190616a55565b6134d6565b604051610c369190616a95565b60405180910390f35b348015610c4b57600080fd5b50610c666004803603810190610c619190616769565b6134f9565b604051610c739190616ab0565b60405180910390f35b348015610c8857600080fd5b50610c9161372a565b604051610c9e9190616a07565b60405180910390f35b348015610cb357600080fd5b50610cbc613763565b604051610ccd959493929190617015565b60405180910390f35b348015610ce257600080fd5b50610ceb613787565b604051610cf89190616ab0565b60405180910390f35b348015610d0d57600080fd5b50610d286004803603810190610d239190616a55565b61378e565b604051610d39959493929190617068565b60405180910390f35b348015610d4e57600080fd5b50610d576137ee565b604051610d649190616ab0565b60405180910390f35b348015610d7957600080fd5b50610d946004803603810190610d8f9190616a55565b6137f5565b604051610da19190616ab0565b60405180910390f35b348015610db657600080fd5b50610dd16004803603810190610dcc91906170bb565b613de8565b005b348015610ddf57600080fd5b50610de86144bb565b604051610df59190616fb5565b60405180910390f35b348015610e0a57600080fd5b50610e136144e1565b005b348015610e2157600080fd5b50610e3c6004803603810190610e379190616acb565b6146e8565b604051610e499190616ab0565b60405180910390f35b348015610e5e57600080fd5b50610e796004803603810190610e749190616acb565b614700565b604051610e869190616ab0565b60405180910390f35b348015610e9b57600080fd5b50610eb66004803603810190610eb19190616d62565b614788565b604051610ec39190616ab0565b60405180910390f35b348015610ed857600080fd5b50610ee16147ad565b604051610eee9190616ab0565b60405180910390f35b348015610f0357600080fd5b50610f1e6004803603810190610f19919061710e565b6147b3565b604051610f2b9190616ab0565b60405180910390f35b348015610f4057600080fd5b50610f49614848565b604051610f569190616ab0565b60405180910390f35b348015610f6b57600080fd5b50610f866004803603810190610f8191906171fa565b61484f565b005b348015610f9457600080fd5b50610f9d61511c565b604051610faa9190616ab0565b60405180910390f35b348015610fbf57600080fd5b50610fc8615121565b604051610fd59190616a95565b60405180910390f35b348015610fea57600080fd5b50610ff3615134565b6040516110009190616ab0565b60405180910390f35b34801561101557600080fd5b5061101e61513a565b60405161102e94939291906172ae565b60405180910390f35b34801561104357600080fd5b5061105e60048036038101906110599190616acb565b615165565b005b34801561106c57600080fd5b506110756151eb565b6040516110829190616ab0565b60405180910390f35b34801561109757600080fd5b506110b260048036038101906110ad91906172f3565b6151f1565b005b3480156110c057600080fd5b506110db60048036038101906110d6919061735f565b615386565b6040516110e89190616a95565b60405180910390f35b600a6020528060005260406000206000915090508060000154908060010160009054906101000a900473ffffffffffffffffffffffffffffffffffffffff1690806002018054611140906173bb565b80601f016020809104026020016040519081016040528092919081815260200182805461116c906173bb565b80156111b95780601f1061118e576101008083540402835291602001916111b9565b820191906000526020600020905b81548152906001019060200180831161119c57829003601f168201915b5050505050908060030154908060040154908060050154908060060154908060070160009054906101000a900460ff16908060070160019054906101000a900460ff169080600801805461120c906173bb565b80601f0160208091040260200160405190810160405280929190818152602001828054611238906173bb565b80156112855780601f1061125a57610100808354040283529160200191611285565b820191906000526020600020905b81548152906001019060200180831161126857829003601f168201915b505050505090508a565b6060600061129b6153a6565b90508060030180546112ac906173bb565b80601f01602080910402602001604051908101604052809291908181526020018280546112d8906173bb565b80156113255780601f106112fa57610100808354040283529160200191611325565b820191906000526020600020905b81548152906001019060200180831161130857829003601f168201915b505050505091505090565b60008061133b6153ce565b90506113488185856153d6565b600191505092915050565b60025481565b60035481565b601b6020528060005260406000206000915090505481565b6000806113826153a6565b9050806002015491505090565b6113a3672960a7e2b0ff2d6060c01b6153e8565b6113ab6153eb565b6113bf67a0addb622e517bee60c01b6153e8565b6113d367333598e11ee63efe60c01b6153e8565b6113e767a87c08b04339c4c660c01b6153e8565b6113fb673f165631df195c0f60c01b6153e8565b61140f67bd40235e43008deb60c01b6153e8565b60c8811115611453576040517f08c379a000000000000000000000000000000000000000000000000000000000815260040161144a90617438565b60405180910390fd5b611467677fcafed05f39458760c01b6153e8565b61147b679d915d3fb89f788860c01b6153e8565b61148f67a87247903918081a60c01b6153e8565b6114a3670153c2a58eae3e2b60c01b6153e8565b620151806004546114b49190617487565b4210156114f6576040517f08c379a00000000000000000000000000000000000000000000000000000000081526004016114ed90617507565b60405180910390fd5b61150a674037368c4b810ed460c01b6153e8565b61151e6745a612bfee20c0fa60c01b6153e8565b61153267124ea75621914ee760c01b6153e8565b60008054905061154c679f1921bf83b6722860c01b6153e8565b8160008190555061156767ac606321749bbeb760c01b6153e8565b4260048190555061158267f445c508992f6a0260c01b6153e8565b611596675251b44040f1000260c01b6153e8565b7fcf4c3ba0667a6e28c2746a4ee8d23efa18b2ca17591c2a22c36773a0232661d881836040516115c7929190617527565b60405180910390a15050565b6000806115de6153ce565b90506115eb858285615472565b6115f6858585615507565b60019150509392505050565b6116166796e5381caabe338f60c01b6155fb565b61162a677181d6f8c15b924d60c01b6155fb565b80601d60003373ffffffffffffffffffffffffffffffffffffffff1673ffffffffffffffffffffffffffffffffffffffff16815260200190815260200160002060006101000a81548160ff0219169083151502179055506116956717ecb0f658f3b78260c01b6155fb565b6116a96718b82b1a831e634960c01b6155fb565b3373ffffffffffffffffffffffffffffffffffffffff167fcf90d7e7483c85e71c861c0359a7d8b146290c7f6025ce0f8f9332f5e14dcee9826040516116ef9190616a95565b60405180910390a261170b67d9195e042549bcb160c01b6155fb565b61171f674c3678ab0e46dc5760c01b6155fb565b3373ffffffffffffffffffffffffffffffffffffffff167f17bba2ce2e99d306dbd37ea822b0c70cdd9c9ddf3927ff87a53baa30281f93786040516117639061759c565b60405180910390a250565b61178267b5c73e2b0fa8b14d60c01b6155fb565b61178a6155fe565b61179e678f4652be40a7d44560c01b6155fb565b6117b26731ca0dc0dc120e9960c01b6155fb565b6117c667921e3b4999aaa3db60c01b6155fb565b6117da6706494d9096499fa860c01b6155fb565b6117ee67a6150a222c8b2baa60c01b6155fb565b600d60003373ffffffffffffffffffffffffffffffffffffffff1673ffffffffffffffffffffffffffffffffffffffff168152602001908152602001600020805490508110611872576040517f08c379a000000000000000000000000000000000000000000000000000000000815260040161186990617608565b60405180910390fd5b611886679c0b013b778f5fd660c01b6155fb565b61189a679e92ecd8cefe7ffd60c01b6155fb565b6118ae6708cf2a19bbef0d4660c01b6155fb565b6000600d60003373ffffffffffffffffffffffffffffffffffffffff1673ffffffffffffffffffffffffffffffffffffffff168152602001908152602001600020828154811061190157611900617628565b5b90600052602060002090600502019050611925672b0ff0264de310a160c01b6155fb565b61193967c8234e89e17a7ab960c01b6155fb565b61194d67774c9b042114a64360c01b6155fb565b6000816000015411611994576040517f08c379a000000000000000000000000000000000000000000000000000000000815260040161198b906176a3565b60405180910390fd5b6119a867272c1b687e1a4fca60c01b6155fb565b6119bc672a590946b448f66a60c01b6155fb565b6119d067cb28e424ddbbce9960c01b6155fb565b6000816003015482600101546119e69190617487565b42101590506119ff6769fc2599936d13f660c01b6155fb565b611a1367ebf547b464a6500860c01b6155fb565b6000601d60003373ffffffffffffffffffffffffffffffffffffffff1673ffffffffffffffffffffffffffffffffffffffff16815260200190815260200160002060009054906101000a900460ff169050611a7867e32e973db48b0df760c01b6155fb565b611a8c67d1450b194036e11d60c01b6155fb565b611aa06775ac7bd479d00c5e60c01b6155fb565b818015611abd5750611abc67e2f5079d38ebc2fd60c01b61563f565b5b80611ae15750808015611ae05750611adf67e7ac8bf174fc024760c01b61563f565b5b5b611b20576040517f08c379a0000000000000000000000000000000000000000000000000000000008152600401611b1790617735565b60405180910390fd5b611b3467e01475f7ae2a3fe660c01b6155fb565b611b4867d48affa122ef99d560c01b6155fb565b611b5c67913a69f6aa0d56d960c01b6155fb565b600083600001549050611b79672ade02f21cff13fd60c01b6155fb565b611b8d67837fcd468c1f727060c01b6155fb565b6000611ba367a47c57fe2bf33f0760c01b6155fb565b611bb767ea0eec98cb35457460c01b6155fb565b8315611ccd57611bd167514645728250b05a60c01b6155fb565b611be56777469ac0577affd860c01b6155fb565b3073ffffffffffffffffffffffffffffffffffffffff1663beb8314c33886040518363ffffffff1660e01b8152600401611c20929190617755565b602060405180830381865afa158015611c3d573d6000803e3d6000fd5b505050506040513d601f19601f82011682018060405250810190611c619190617793565b9050611c7767ad12351b830096cc60c01b6155fb565b611c8b673cb9aa1cce4d642860c01b6155fb565b600f54811115611cb357611ca967fb401a51054c790060c01b6155fb565b600f549050611cc8565b611cc7677dc24e749a49506560c01b6155fb565b5b611ddf565b611ce167bce98eea9f6cbe8d60c01b6155fb565b611cf567daac026988a5a35960c01b6155fb565b611d096718ba70fb45c418f760c01b6155fb565b6000600a83611d1891906177ef565b9050611d2e67bc4ee5d294e1117360c01b6155fb565b8083611d3a9190617820565b9250611d506725cc0c336a4d457760c01b6155fb565b80600f6000828254611d629190617487565b92505081905550611d7d67eb85eca96cf6a17a60c01b6155fb565b611d9167220f71c4be3231f060c01b6155fb565b3373ffffffffffffffffffffffffffffffffffffffff167f17bba2ce2e99d306dbd37ea822b0c70cdd9c9ddf3927ff87a53baa30281f9378604051611dd5906178a0565b60405180910390a2505b611df3670a65c2a220d32be460c01b6155fb565b60008560000181905550611e1167d213116b12acd85060c01b6155fb565b81600e6000828254611e239190617820565b92505081905550611e3e677ff9b1be45975c3c60c01b6155fb565b611e5267e665d0647a4afc4860c01b6155fb565b6000811115611ea157611e6f6784ee4334221d4ed560c01b6155fb565b611e83679a5859a8a590fd7d60c01b6155fb565b80600f6000828254611e959190617820565b92505081905550611eb6565b611eb567330a4ee0cb1b1a2c60c01b6155fb565b5b611eca67af0fe21c444d1aa260c01b6155fb565b611ede67035e499996f7852260c01b6155fb565b611ef430338385611eef9190617487565b615507565b611f0867b7a31614be1a08a160c01b6155fb565b611f1c670d39c75bb8c36e1560c01b6155fb565b3373ffffffffffffffffffffffffffffffffffffffff167f7fc4727e062e336010f2c282598ef5f14facb3de68cf8195c2f23e1454b2b74e8388604051611f64929190617527565b60405180910390a2611f8067ad2818f338b29fb260c01b6155fb565b611f94671ce259f95f812d8c60c01b6155fb565b600081111561202e57611fb1675bb24e44bb69375160c01b6155fb565b611fc56743e79e13e9b491f360c01b6155fb565b611fd9672c0216bad2a6b9eb60c01b6155fb565b3373ffffffffffffffffffffffffffffffffffffffff167ff01da32686223933d8a18a391060918c7f11a3648639edd87ae013e2e27317438288604051612021929190617527565b60405180910390a2612043565b61204267affc84f8577fdf7560c01b6155fb565b5b505050505050565b60006012905090565b6202a30081565b6000612071679e0334d2537fa6e860c01b6155fb565b61208567e1153bebbbde3c7560c01b6155fb565b61209967b83417c05b0a8fe060c01b6155fb565b6120ad67bdf54e456e60e7ce60c01b6155fb565b6202a3008210156120f3576040517f08c379a00000000000000000000000000000000000000000000000000000000081526004016120ea9061790c565b60405180910390fd5b6121076713520996acff1a5e60c01b6155fb565b61211b674d9eccde3698d09d60c01b6155fb565b61212f672564d9e9bf8288d560c01b6155fb565b61214367587b90a9631a6e7760c01b6155fb565b62278d00821115612189576040517f08c379a000000000000000000000000000000000000000000000000000000000815260040161218090617978565b60405180910390fd5b61219d67132c6a5d80ad08c560c01b6155fb565b6121b16780e7c158d2273a6960c01b6155fb565b6121c56762d13b1f988bfdf560c01b6155fb565b6000600960008154809291906121da90617998565b9190505590506121f3669b2f5a83ad246260c01b6155fb565b612207673832ad664de2cd9260c01b6155fb565b6000600a6000838152602001908152602001600020905061223267132322344a6af29960c01b6155fb565b8888826002019182612245929190617b97565b5061225a678487e2559f9db01260c01b6155fb565b868160070160016101000a81548160ff0219169083600381111561228157612280616891565b5b021790555061229a67b8581eccf164ae4f60c01b6155fb565b85858260080191826122ad929190617ccd565b506122c267aa46d930b69e605560c01b6155fb565b338160010160006101000a81548173ffffffffffffffffffffffffffffffffffffffff021916908373ffffffffffffffffffffffffffffffffffffffff160217905550612319670d98d8bd7ee8c65660c01b6155fb565b4281600501819055506123366721fe4cb375fac28260c01b6155fb565b8362093a80426123469190617487565b6123509190617487565b816006018190555061236c6723c722a4df97a29760c01b6155fb565b6123806735b92bf83900287060c01b6155fb565b3373ffffffffffffffffffffffffffffffffffffffff167f17bba2ce2e99d306dbd37ea822b0c70cdd9c9ddf3927ff87a53baa30281f93786040516123c490617de9565b60405180910390a26123e067bdcc515e204045d560c01b6155fb565b6123f4678606c93f111837ea60c01b6155fb565b81925050509695505050505050565b60086020528060005260406000206000915054906101000a900460ff1681565b600b6020528160005260406000206020528060005260406000206000915091509054906101000a900460ff1681565b61246667d8ff63872e1b897460c01b6153e8565b61246e6153eb565b61248267b13bb2e2aa15e1b260c01b6153e8565b61249667f3e3b18b6f808e3b60c01b6153e8565b6124aa6765c4d829b4f9dba360c01b6153e8565b6124be67f11d46658ca03ce560c01b6153e8565b6124c661564a565b6124da67e58ef43dd083f92e60c01b6153e8565b6124ee675c9aef38c0c606f960c01b6153e8565b6124f66153ce565b73ffffffffffffffffffffffffffffffffffffffff167f2a09e26ec96218a3a144df2e04de096b7f0410106a4caff3cdfa5d667e604f2a60405161253990617e55565b60405180910390a2565b61254b6156bc565b612554826157a2565b61255e82826157e9565b5050565b6301e1338081565b61257e6708356b226ff0e0c360c01b6153e8565b6125866153eb565b61259a67aca0893e1010f55760c01b6153e8565b6125ae6751271a3a7ccf1a3960c01b6153e8565b6125c26720b3a8695fa9ba9d60c01b6153e8565b6125d667acda6cb7c5c2739c60c01b6153e8565b6125de615908565b6125f2671edfd0cf14daf37e60c01b6153e8565b61260667565556f676a76ac960c01b6153e8565b61260e6153ce565b73ffffffffffffffffffffffffffffffffffffffff167f2a09e26ec96218a3a144df2e04de096b7f0410106a4caff3cdfa5d667e604f2a60405161265190617ec1565b60405180910390a2565b600061266561597a565b7f360894a13ba1a3210667c828492db98dca3e2076cc3735a920a3ca505d382bbc60001b905090565b60205481565b60606126aa670958c2f983cd48b460c01b6155fb565b6126be676cc7e5c48ef5049660c01b6155fb565b6126d26718b208831dae04ed60c01b6155fb565b6040518060400160405280600581526020017f372e302e30000000000000000000000000000000000000000000000000000000815250905090565b60015481565b6127276765df75e0a525f5d360c01b6153e8565b61272f6155fe565b612743673a88c0cf7723053a60c01b6153e8565b6127576711f691da620f9fcf60c01b6153e8565b61276b6718d82739864b85c860c01b6153e8565b61277f6714cce8746d99ed5360c01b6153e8565b61279367e618b42be2e60d6060c01b6153e8565b600083116127d6576040517f08c379a00000000000000000000000000000000000000000000000000000000081526004016127cd90617f2d565b60405180910390fd5b6127ea6752342abfd11fe89b60c01b6153e8565b6127fe67eb3f9c9dea148eb060c01b6153e8565b612812678aa4cffc23897dbf60c01b6153e8565b612826674177f279f1820a9760c01b6153e8565b62278d0082148015612848575061284767341abd5c7465f5cb60c01b615a01565b5b8061288d57506276a70082148015612870575061286f67ac37d2dba373659260c01b615a01565b5b801561288c575061288b67d951b8f703cedc4960c01b615a01565b5b5b806128d2575062ed4e00821480156128b557506128b467a3c5aec48dc21b4b60c01b615a01565b5b80156128d157506128d067fc896f46850f04e160c01b615a01565b5b5b806128fc57506301e13380821480156128fb57506128fa67ba9516c4616b0d5060c01b615a01565b5b5b61293b576040517f08c379a000000000000000000000000000000000000000000000000000000000815260040161293290617f99565b60405180910390fd5b61294f67835e1ec9bf50f77860c01b6153e8565b61296367a462c51fc793f64c60c01b6153e8565b61297767a0c2ebe9a133ea9c60c01b6153e8565b61298b67575ea49f3399114060c01b6153e8565b8261299c6129976153ce565b612cb4565b10156129dd576040517f08c379a00000000000000000000000000000000000000000000000000000000081526004016129d490618005565b60405180910390fd5b6129f1670342bf669fc9f18a60c01b6153e8565b612a0567752aef1497f971b860c01b6153e8565b612a1967771b212ac877ab1e60c01b6153e8565b612a2b612a246153ce565b3085615507565b612a3f67839dc77d67686d7560c01b6153e8565b612a53675e22980668624d4260c01b6153e8565b600d6000612a5f6153ce565b73ffffffffffffffffffffffffffffffffffffffff1673ffffffffffffffffffffffffffffffffffffffff1681526020019081526020016000206040518060a0016040528085815260200142815260200142815260200184815260200183151581525090806001815401808255809150506001900390600052602060002090600502016000909190919091506000820151816000015560208201518160010155604082015181600201556060820151816003015560808201518160040160006101000a81548160ff0219169083151502179055505050612b4967b35370658014425560c01b6153e8565b82600e6000828254612b5b9190617487565b92505081905550612b76674861632a43f3fec160c01b6153e8565b612b8a67bdcbb0c45eb90a5a60c01b6153e8565b612b926153ce565b73ffffffffffffffffffffffffffffffffffffffff167fb4caaf29adda3eefee3ad552a8e85058589bf834c7466cae4ee58787f70589ed84846001600d6000612bd96153ce565b73ffffffffffffffffffffffffffffffffffffffff1673ffffffffffffffffffffffffffffffffffffffff16815260200190815260200160002080549050612c219190617820565b604051612c3093929190618025565b60405180910390a2505050565b600080612c48615a0c565b90508060000160009054906101000a900460ff1691505090565b600560009054906101000a900473ffffffffffffffffffffffffffffffffffffffff1681565b600f5481565b60045481565b601d6020528060005260406000206000915054906101000a900460ff1681565b600080612cbf6153a6565b90508060000160008473ffffffffffffffffffffffffffffffffffffffff1673ffffffffffffffffffffffffffffffffffffffff16815260200190815260200160002054915050919050565b612d136153eb565b612d1d6000615a34565b565b60c881565b62278d0081565b600080600080612d4567d4c4005b387068bc60c01b6155fb565b612d5967d53a3cc0fc9539cb60c01b6155fb565b612d6d6735a560e8fdb8cc9760c01b6155fb565b6000600d60008773ffffffffffffffffffffffffffffffffffffffff1673ffffffffffffffffffffffffffffffffffffffff1681526020019081526020016000209050612dc46775f714ee5ab63e6360c01b6155fb565b612dd8674798affc5950cf2660c01b6155fb565b60007fffffffffffffffffffffffffffffffffffffffffffffffffffffffffffffffff9050612e1167d2cad62531d07dfe60c01b6155fb565b612e25673cf19f838acc275360c01b6155fb565b60005b82805490508110156130ca57612e4867cde4cd6cc72ce5d960c01b6155fb565b612e5c671c80c28ffb700c0e60c01b6155fb565b6000838281548110612e7157612e70617628565b5b90600052602060002090600502016000015411156130a857612e9d67e8d1b2b8dad56f3e60c01b6155fb565b612eb167d97b1d83372f7b0b60c01b6155fb565b828181548110612ec457612ec3617628565b5b90600052602060002090600502016000015487612ee19190617487565b9650612ef767f4f4ef2d1f75a4ee60c01b6155fb565b3073ffffffffffffffffffffffffffffffffffffffff1663beb8314c89836040518363ffffffff1660e01b8152600401612f32929190617755565b602060405180830381865afa158015612f4f573d6000803e3d6000fd5b505050506040513d601f19601f82011682018060405250810190612f739190617793565b86612f7e9190617487565b9550612f946796924143479c1e8a60c01b6155fb565b8480612f9f90617998565b955050612fb6670e088f545be9447460c01b6155fb565b612fca676e5dd18aef6fa13b60c01b6155fb565b6000838281548110612fdf57612fde617628565b5b90600052602060002090600502016003015484838154811061300457613003617628565b5b9060005260206000209060050201600101546130209190617487565b905061303667370994c6665baafa60c01b6155fb565b61304a6752b4fd8c5cc1e78360c01b6155fb565b828110801561305857504281115b1561308d5761307167d592e7c1e582acb560c01b6155fb565b61308567b79b28ee660d115060c01b6155fb565b8092506130a2565b6130a1675483cecc87a44d1c60c01b6155fb565b5b506130bd565b6130bc670815f991691b431c60c01b6155fb565b5b8080600101915050612e28565b506130df67674294487e24592660c01b6155fb565b7fffffffffffffffffffffffffffffffffffffffffffffffffffffffffffffffff81148061311d575061311c67da9470db87aa9a1660c01b615b0b565b5b8015613139575061313867580acb0f26cff75c60c01b61563f565b5b6131435780613146565b60005b925050509193509193565b600e5481565b62ed4e0081565b600061317467afad6d371159903360c01b6153e8565b61318867f5bf186109910c4c60c01b6153e8565b61319c67d900cb089566462460c01b6153e8565b62278d0082036131d8576131ba671d04f83ad0dbb05c60c01b6153e8565b6131ce679dada60cd15b2a6060c01b6153e8565b61012c9050613382565b6131ec6727cbf17d894d5f7160c01b6153e8565b61320067066d521d95beee1160c01b6153e8565b613214672e1e4fb46b0567b160c01b6153e8565b6276a70082036132505761323267d496f001aa65524b60c01b6153e8565b61324667e2b878d951af04e860c01b6153e8565b6101f49050613382565b6132646706636b095d90ed4e60c01b6153e8565b613278671eff50d55096cc4f60c01b6153e8565b61328c67ccb0fa682d070a6160c01b6153e8565b62ed4e0082036132c8576132aa6744efd9764074bb3860c01b6153e8565b6132be679cb07e6f50eaf65c60c01b6153e8565b6102bc9050613382565b6132dc67f72da381e9e6f6b260c01b6153e8565b6132f0674ce00db93821922360c01b6153e8565b61330467557f6822ad0d92a560c01b6153e8565b6301e13380820361334157613323671cb550f487385a2360c01b6153e8565b61333767c0cd1564aba9310860c01b6153e8565b6103849050613382565b61335567afd22e988474b57b60c01b6153e8565b61336967d27bd329ce1d134d60c01b6153e8565b61337d6747529770f836489160c01b6153e8565b600090505b919050565b60156020528060005260406000206000915090508060000154908060010154908060020154908060030154905084565b6000806133c2615b12565b90508060000160009054906101000a900473ffffffffffffffffffffffffffffffffffffffff1691505090565b6d314dc6448d9338c15b0a0000000081565b6060600061340d6153a6565b905080600401805461341e906173bb565b80601f016020809104026020016040519081016040528092919081815260200182805461344a906173bb565b80156134975780601f1061346c57610100808354040283529160200191613497565b820191906000526020600020905b81548152906001019060200180831161347a57829003601f168201915b505050505091505090565b600660009054906101000a900473ffffffffffffffffffffffffffffffffffffffff1681565b69d3c21bcecceda100000081565b6000806134e16153ce565b90506134ee818585615507565b600191505092915050565b600061350f677b0e6ce2e01a4deb60c01b6155fb565b61352367fd5516aae7e6958160c01b6155fb565b61353767bf71153db76e260760c01b6155fb565b60003073ffffffffffffffffffffffffffffffffffffffff1663875bb4e2846040518263ffffffff1660e01b81526004016135729190616ab0565b602060405180830381865afa15801561358f573d6000803e3d6000fd5b505050506040513d601f19601f820116820180604052508101906135b39190617793565b90506135c967086ac408f4a2de6160c01b6155fb565b6135dd67607f2c687b02872e60c01b6155fb565b601e60009054906101000a900460ff166136365761360567de7fc49f17fa4e8460c01b6155fb565b61361967a0ac0f6c4151a73c60c01b6155fb565b61362d6761e6754ccd8a76f160c01b6155fb565b80915050613725565b61364a67ac7ac4e7e49bfdf360c01b6155fb565b61365e677dcfff493b55051f60c01b6155fb565b6136726768c93df5d440587560c01b6155fb565b600061367c611377565b612710600e5461368c919061805c565b61369691906177ef565b90506136ac678ef8fcba83c8d45360c01b6155fb565b6136c0678ba57d4b72d78c6e60c01b6155fb565b60006064826136cf91906177ef565b90506136e567756800b80d795d2560c01b6155fb565b6136f9678fddfc063fb2299b60c01b6155fb565b61271081601f5461370a9190617487565b84613715919061805c565b61371f91906177ef565b93505050505b919050565b6040518060400160405280600581526020017f352e302e3000000000000000000000000000000000000000000000000000000081525081565b60108060000154908060010154908060020154908060030154908060040154905085565b62093a8081565b600d60205281600052604060002081815481106137aa57600080fd5b9060005260206000209060050201600091509150508060000154908060010154908060020154908060030154908060040160009054906101000a900460ff16905085565b6201518081565b600061380b673e8f365d0115460460c01b6155fb565b61381f670938fa7ae591a19760c01b6155fb565b61383367b37d284a0621a43960c01b6155fb565b613847677767b3664f35df9a60c01b6155fb565b600d60008473ffffffffffffffffffffffffffffffffffffffff1673ffffffffffffffffffffffffffffffffffffffff1681526020019081526020016000208054905082106138cb576040517f08c379a00000000000000000000000000000000000000000000000000000000081526004016138c290617608565b60405180910390fd5b6138df67c3d3ab24b216964160c01b6155fb565b6138f3672c97fc0e1ee6202860c01b6155fb565b613907675b58116147cddec360c01b6155fb565b6000600d60008573ffffffffffffffffffffffffffffffffffffffff1673ffffffffffffffffffffffffffffffffffffffff168152602001908152602001600020838154811061395a57613959617628565b5b9060005260206000209060050201905061397e67475829f1f95723d960c01b6155fb565b61399267d2eff2cc31bf7a4e60c01b6155fb565b60008160020154426139a49190617820565b90506139ba6774134f4d40dcd98d60c01b6155fb565b6139ce67b3657591aa6f1d6360c01b6155fb565b60003073ffffffffffffffffffffffffffffffffffffffff1663875bb4e284600301546040518263ffffffff1660e01b8152600401613a0d9190616ab0565b602060405180830381865afa158015613a2a573d6000803e3d6000fd5b505050506040513d601f19601f82011682018060405250810190613a4e9190617793565b9050613a6467e56514c8906b83da60c01b6155fb565b613a78676d2dd073b02cbdc860c01b6155fb565b6000819050613a91671dbedaf06ea57b9c60c01b6155fb565b613aa466c14d9d1770bec360c01b6155fb565b601e60009054906101000a900460ff1615613b9757613acd67b886e4c2bd530aed60c01b6155fb565b613ae1671850f0b616fe980960c01b6155fb565b613af5677effa3cf22cc0f8160c01b6155fb565b6000613aff611377565b612710600e54613b0f919061805c565b613b1991906177ef565b9050613b2f67c2a6f759a24dce1d60c01b6155fb565b613b43677614a01dc1dcc4b660c01b6155fb565b6000606482613b5291906177ef565b9050613b68672173e28895135b6560c01b6155fb565b61271081601f54613b799190617487565b85613b84919061805c565b613b8e91906177ef565b92505050613bac565b613bab678d2c9206f308222760c01b6155fb565b5b613bc06755470a07b756b1eb60c01b6155fb565b613bd467f5028611f2921f8060c01b6155fb565b6000613bea674c40450668dab7d460c01b6155fb565b613bfe67d802562443f68fef60c01b6155fb565b8460040160009054906101000a900460ff1615613d5c57613c296729dcf5b715e6caf660c01b6155fb565b613c3d673a10d59c6dac189f60c01b6155fb565b613c5167499637ae388d60b560c01b6155fb565b60006201518085613c6291906177ef565b9050613c786734146ca5c094d61360c01b6155fb565b613c8c675bea85e6aaa3da7d60c01b6155fb565b600061016d84613c9c91906177ef565b9050613cb267f19f2ee5c3cb452660c01b6155fb565b61271082828960000154613cc6919061805c565b613cd0919061805c565b613cda91906177ef565b9250613cf067a497de972581916460c01b6155fb565b613d046736204c532cacc03e60c01b6155fb565b600f54831115613d4057613d2267fc7177dbda1a76ae60c01b6155fb565b613d3667207d80ed624728bd60c01b6155fb565b600f549250613d55565b613d54677ccc25a84603683b60c01b6155fb565b5b5050613db2565b613d7067831282a096749da160c01b6155fb565b613d8467818c7555b69b11a260c01b6155fb565b64496cebb80084838760000154613d9b919061805c565b613da5919061805c565b613daf91906177ef565b90505b613dc667acea1bd5dc3a6baa60c01b6155fb565b613dda670c7e418f693f5ad960c01b6155fb565b809550505050505092915050565b613dfc674a986069efa9a91d60c01b6153e8565b6000613e06615b3a565b905060008160000160089054906101000a900460ff1615905060008260000160009054906101000a900467ffffffffffffffff1690506000808267ffffffffffffffff16148015613e545750825b9050600060018367ffffffffffffffff16148015613e89575060003073ffffffffffffffffffffffffffffffffffffffff163b145b905081158015613e97575080155b15613ece576040517ff92ee8a900000000000000000000000000000000000000000000000000000000815260040160405180910390fd5b60018560000160006101000a81548167ffffffffffffffff021916908367ffffffffffffffff1602179055508315613f1e5760018560000160086101000a81548160ff0219169083151502179055505b613f3267e813812fa6d7d16760c01b6153e8565b613f46678e7797857d45e63f60c01b6153e8565b613f5a67ade0b72f7b4b5d4c60c01b6153e8565b613f6e6727e8c5a733e13eef60c01b6153e8565b613fe26040518060400160405280600381526020017f46494100000000000000000000000000000000000000000000000000000000008152506040518060400160405280600381526020017f4649410000000000000000000000000000000000000000000000000000000000815250615b4e565b613ff6671d0b7f661f1e653f60c01b6153e8565b61400a67762e8757b646736460c01b6153e8565b61401a6140156153ce565b615b64565b61402e6712bc8ae3cf4102d760c01b6153e8565b614042678d27291c2f969ec760c01b6153e8565b61404a615b78565b61405e67476231774b97979e60c01b6153e8565b61407267ba40b5ecaef0006160c01b6153e8565b61407a615b82565b61408e67e885a4b8e9d4307a60c01b6153e8565b6140a267aac8e881a16925c060c01b6153e8565b6140aa615b94565b6140be676e62aab37021280c60c01b6153e8565b87600560006101000a81548173ffffffffffffffffffffffffffffffffffffffff021916908373ffffffffffffffffffffffffffffffffffffffff160217905550614113678c86013dabcd5dec60c01b6153e8565b86600660006101000a81548173ffffffffffffffffffffffffffffffffffffffff021916908373ffffffffffffffffffffffffffffffffffffffff160217905550614168670380771f9120713360c01b6153e8565b85600760006101000a81548173ffffffffffffffffffffffffffffffffffffffff021916908373ffffffffffffffffffffffffffffffffffffffff1602179055506141bd6718bc6bc5581de91c60c01b6153e8565b60646000819055506141d96751d43917ab13da5660c01b6153e8565b60326001819055506141f5670698ff2ba2c703eb60c01b6153e8565b6014600281905550614211678717613c61100cd860c01b6153e8565b601e60038190555061422d67e2b6a8e7bf877dd360c01b6153e8565b60405180608001604052806103e86d314dc6448d9338c15b0a0000000061425491906177ef565b815260200160646d314dc6448d9338c15b0a0000000061427491906177ef565b81526020016001815260200160011515815250601660008201518160000155602082015181600101556040820151816002015560608201518160030160006101000a81548160ff0219169083151502179055509050506142de67a6fcb328312593c560c01b6153e8565b6001600860008a73ffffffffffffffffffffffffffffffffffffffff1673ffffffffffffffffffffffffffffffffffffffff16815260200190815260200160002060006101000a81548160ff02191690831515021790555061434a67ab476526b383121a60c01b6153e8565b6001600860008973ffffffffffffffffffffffffffffffffffffffff1673ffffffffffffffffffffffffffffffffffffffff16815260200190815260200160002060006101000a81548160ff0219169083151502179055506143b66744e3c9185a42906c60c01b6153e8565b6001600860003073ffffffffffffffffffffffffffffffffffffffff1673ffffffffffffffffffffffffffffffffffffffff16815260200190815260200160002060006101000a81548160ff021916908315150217905550614422671d485e71b8273fc660c01b6153e8565b61443667866c8b7d36727ec360c01b6153e8565b6144556144416153ce565b6d314dc6448d9338c15b0a00000000615b9e565b83156144b15760008560000160086101000a81548160ff0219169083151502179055507fc7f505b2f371ae2175ee4913f4499e1f2633a7b5936321eed1cdaeb6115181d260016040516144a891906180ed565b60405180910390a15b5050505050505050565b600760009054906101000a900473ffffffffffffffffffffffffffffffffffffffff1681565b6144f567868852dc8a4042ce60c01b6155fb565b6144fd6153eb565b614511672aa2f4c49e87e25c60c01b6155fb565b614525678c0baf0285e57cb560c01b6155fb565b61453967f27fd5af78631ede60c01b6155fb565b61454d67b1276569955294e060c01b6155fb565b61456167bc89e69f6119d4d660c01b6155fb565b6000602054146145a6576040517f08c379a000000000000000000000000000000000000000000000000000000000815260040161459d90618154565b60405180910390fd5b6145ba671fcc4557da1792b360c01b6155fb565b6145ce6712aa50226f79ae9d60c01b6155fb565b6001601e60006101000a81548160ff0219169083151502179055506145fd67c8a59e530680bc0760c01b6155fb565b612710601f8190555061461a673c71de7acc598a5860c01b6155fb565b600160208190555061463667c0d5a9f11746564260c01b6155fb565b61464a673a81367baba2bab860c01b6155fb565b7f1858ded87560746ec8c78afbe90ce7899a15849e419f2c411174332674889d57600160405161467a9190618217565b60405180910390a1614696673f5b4da3cfcd893e60c01b6155fb565b6146aa67f7beaacb0e1de1c160c01b6155fb565b7f517c9648418b59425b8e70325d60c9a7545b84d167ee02e3c8c09a836f1d7eb96001601f546040516146de929190618245565b60405180910390a1565b601a6020528060005260406000206000915090505481565b600061471667056f20e3f84054e760c01b6153e8565b61472a67081347f9a86eb45b60c01b6153e8565b61473e67e7e80143346a400360c01b6153e8565b600d60008373ffffffffffffffffffffffffffffffffffffffff1673ffffffffffffffffffffffffffffffffffffffff168152602001908152602001600020805490509050919050565b600c602052816000526040600020602052806000526040600020600091509150505481565b60095481565b6000806147be6153a6565b90508060010160008573ffffffffffffffffffffffffffffffffffffffff1673ffffffffffffffffffffffffffffffffffffffff16815260200190815260200160002060008473ffffffffffffffffffffffffffffffffffffffff1673ffffffffffffffffffffffffffffffffffffffff1681526020019081526020016000205491505092915050565b6276a70081565b61486367affd86d6a7e917f060c01b6155fb565b61486b6155fe565b61487f67df25d33d6c4a301660c01b6155fb565b614893671f11f2ecf8c2b14160c01b6155fb565b6148a7671df1f6964fb72c4f60c01b6155fb565b6148bb67d80fba81a6b942eb60c01b6155fb565b6148cf670201c6c9a243aadc60c01b6155fb565b83839050868690501480156148e957508181905086869050145b614928576040517f08c379a000000000000000000000000000000000000000000000000000000000815260040161491f906182ba565b60405180910390fd5b61493c67280f835acaaa814d60c01b6155fb565b61495067b7da47bb86b425b860c01b6155fb565b61496467d04fe0d1481bbf3560c01b6155fb565b614978678fe091a69393fe5760c01b6155fb565b600a8686905011156149bf576040517f08c379a00000000000000000000000000000000000000000000000000000000081526004016149b690618326565b60405180910390fd5b6149d367c1d635c2a5e17abc60c01b6155fb565b6149e767909e85285767451a60c01b6155fb565b6149fb67209c4bbd4fe7608b60c01b6155fb565b6000614a1167d172bbe2333c313160c01b6155fb565b614a2567646ad6ccd73ed45d60c01b6155fb565b60005b87879050811015614a7b57614a4767a2c5a9d0a6ebe0a460c01b6155fb565b878782818110614a5a57614a59617628565b5b9050602002013582614a6c9190617487565b91508080600101915050614a28565b50614a9067ce15582ad8c30a1c60c01b6155fb565b614aa4676e571112615668f860c01b6155fb565b614ab867fb40bded6033963660c01b6155fb565b80614ac233612cb4565b1015614b03576040517f08c379a0000000000000000000000000000000000000000000000000000000008152600401614afa90618005565b60405180910390fd5b614b17676369db9e9cebfe8060c01b6155fb565b614b2b674ce907e2ca384dbb60c01b6155fb565b614b3f67510b864ed2f45dc260c01b6155fb565b614b4a333083615507565b614b5e6791beb5518631b83760c01b6155fb565b614b72674bbb1022df5bcdb160c01b6155fb565b60005b8787905081101561509e57614b946793cf601ab33a4cea60c01b6155fb565b614ba86774a9c81aea2d564060c01b6155fb565b614bbc67054953be91de601e60c01b6155fb565b6000888883818110614bd157614bd0617628565b5b9050602002013511614c18576040517f08c379a0000000000000000000000000000000000000000000000000000000008152600401614c0f90617f2d565b60405180910390fd5b614c2c675f142b75e859e2eb60c01b6155fb565b614c40678c4483d70b3d8ac160c01b6155fb565b614c5467925bfa96c0e4a6d760c01b6155fb565b614c6867bc4de6cc7163152e60c01b6155fb565b62278d00868683818110614c7f57614c7e617628565b5b90506020020135148015614ca35750614ca267309f6efb0a1e3ec760c01b61563f565b5b80614d0157506276a700868683818110614cc057614cbf617628565b5b90506020020135148015614ce45750614ce367fc4368f20ca4bc3160c01b61563f565b5b8015614d005750614cff67f3db1e26b8b730ed60c01b61563f565b5b5b80614d5f575062ed4e00868683818110614d1e57614d1d617628565b5b90506020020135148015614d425750614d41675dea49686a4c1cca60c01b61563f565b5b8015614d5e5750614d5d67754ad3fafb9d291a60c01b61563f565b5b5b80614da257506301e13380868683818110614d7d57614d7c617628565b5b90506020020135148015614da15750614da06792f0c0e936e9af6160c01b61563f565b5b5b614de1576040517f08c379a0000000000000000000000000000000000000000000000000000000008152600401614dd890617f99565b60405180910390fd5b614df5673bfe21055f9768f860c01b6155fb565b614e0967e60ece3952eef37a60c01b6155fb565b614e1d6726aed71607a3977460c01b6155fb565b600d60003373ffffffffffffffffffffffffffffffffffffffff1673ffffffffffffffffffffffffffffffffffffffff1681526020019081526020016000206040518060a001604052808a8a85818110614e7a57614e79617628565b5b905060200201358152602001428152602001428152602001888885818110614ea557614ea4617628565b5b905060200201358152602001868685818110614ec457614ec3617628565b5b9050602002016020810190614ed99190616b77565b151581525090806001815401808255809150506001900390600052602060002090600502016000909190919091506000820151816000015560208201518160010155604082015181600201556060820151816003015560808201518160040160006101000a81548160ff0219169083151502179055505050614f656736a22b04db38a21b60c01b6155fb565b878782818110614f7857614f77617628565b5b90506020020135600e6000828254614f909190617487565b92505081905550614fab6730f84e9f1e9076ff60c01b6155fb565b614fbf67fad03c78ccbcbeb460c01b6155fb565b3373ffffffffffffffffffffffffffffffffffffffff167fb4caaf29adda3eefee3ad552a8e85058589bf834c7466cae4ee58787f70589ed89898481811061500a57615009617628565b5b9050602002013588888581811061502457615023617628565b5b905060200201356001600d60003373ffffffffffffffffffffffffffffffffffffffff1673ffffffffffffffffffffffffffffffffffffffff1681526020019081526020016000208054905061507a9190617820565b60405161508993929190618025565b60405180910390a28080600101915050614b75565b506150b36791e1f2313aa5d67160c01b6155fb565b6150c76751437c17b0ef603f60c01b6155fb565b3373ffffffffffffffffffffffffffffffffffffffff167f17bba2ce2e99d306dbd37ea822b0c70cdd9c9ddf3927ff87a53baa30281f937860405161510b90618392565b60405180910390a250505050505050565b600a81565b601e60009054906101000a900460ff1681565b601f5481565b60168060000154908060010154908060020154908060030160009054906101000a900460ff16905084565b61516d6153eb565b600073ffffffffffffffffffffffffffffffffffffffff168173ffffffffffffffffffffffffffffffffffffffff16036151df5760006040517f1e4fbdf70000000000000000000000000000000000000000000000000000000081526004016151d69190616fb5565b60405180910390fd5b6151e881615a34565b50565b60005481565b6152056763347844611a35ab60c01b6155fb565b61520d6153eb565b615221673a72ea43fe45805360c01b6155fb565b6152356778f533ba8609346960c01b6155fb565b61524967310af476a476cf1360c01b6155fb565b61525d67ba4fedb42ada608b60c01b6155fb565b61527167f837bd025050a28460c01b6155fb565b61138881101580156152855750614e208111155b6152c4576040517f08c379a00000000000000000000000000000000000000000000000000000000081526004016152bb90618424565b60405180910390fd5b6152d867750670981a2d8f1c60c01b6155fb565b6152ec674f2139e15575d47260c01b6155fb565b81601e60006101000a81548160ff02191690831515021790555061531a67756ccebabd68bad260c01b6155fb565b80601f819055506153356743c5d08b3bebbe1a60c01b6155fb565b615349671ebcbf326b76e91060c01b6155fb565b7f517c9648418b59425b8e70325d60c9a7545b84d167ee02e3c8c09a836f1d7eb9828260405161537a929190618245565b60405180910390a15050565b601c6020528060005260406000206000915054906101000a900460ff1681565b60007f52c63247e1f47db19d5ce0460030c497f067ca4cebf71ba98eeadabe20bace00905090565b600033905090565b6153e38383836001615c20565b505050565b50565b6153f36153ce565b73ffffffffffffffffffffffffffffffffffffffff166154116133b7565b73ffffffffffffffffffffffffffffffffffffffff1614615470576154346153ce565b6040517f118cdaa70000000000000000000000000000000000000000000000000000000081526004016154679190616fb5565b60405180910390fd5b565b600061547e84846147b3565b90507fffffffffffffffffffffffffffffffffffffffffffffffffffffffffffffffff81101561550157818110156154f1578281836040517ffb8f41b20000000000000000000000000000000000000000000000000000000081526004016154e893929190618444565b60405180910390fd5b61550084848484036000615c20565b5b50505050565b600073ffffffffffffffffffffffffffffffffffffffff168373ffffffffffffffffffffffffffffffffffffffff16036155795760006040517f96c6fd1e0000000000000000000000000000000000000000000000000000000081526004016155709190616fb5565b60405180910390fd5b600073ffffffffffffffffffffffffffffffffffffffff168273ffffffffffffffffffffffffffffffffffffffff16036155eb5760006040517fec442f050000000000000000000000000000000000000000000000000000000081526004016155e29190616fb5565b60405180910390fd5b6155f6838383615e06565b505050565b50565b615606612c3d565b1561563d576040517fd93c066500000000000000000000000000000000000000000000000000000000815260040160405180910390fd5b565b600060019050919050565b615652615fd4565b600061565c615a0c565b905060008160000160006101000a81548160ff0219169083151502179055507f5db9ee0a495bf2e6ff9c91a7834c1ba4fdd244a5e8aa4e537bd38aeae4b073aa6156a46153ce565b6040516156b19190616fb5565b60405180910390a150565b7f000000000000000000000000000000000000000000000000000000000000000073ffffffffffffffffffffffffffffffffffffffff163073ffffffffffffffffffffffffffffffffffffffff16148061576957507f000000000000000000000000000000000000000000000000000000000000000073ffffffffffffffffffffffffffffffffffffffff16615750616014565b73ffffffffffffffffffffffffffffffffffffffff1614155b156157a0576040517fe07c8dba00000000000000000000000000000000000000000000000000000000815260040160405180910390fd5b565b6157b667233076132dfabc3f60c01b6153e8565b6157be6153eb565b6157d26770f5ac4fceb80c1560c01b6153e8565b6157e66744cb282fd519573a60c01b6153e8565b50565b8173ffffffffffffffffffffffffffffffffffffffff166352d1902d6040518163ffffffff1660e01b8152600401602060405180830381865afa92505050801561585157506040513d601f19601f8201168201806040525081019061584e9190618490565b60015b61589257816040517f4c9c8ce30000000000000000000000000000000000000000000000000000000081526004016158899190616fb5565b60405180910390fd5b7f360894a13ba1a3210667c828492db98dca3e2076cc3735a920a3ca505d382bbc60001b81146158f957806040517faa1d49a40000000000000000000000000000000000000000000000000000000081526004016158f09190616f47565b60405180910390fd5b615903838361606b565b505050565b6159106155fe565b600061591a615a0c565b905060018160000160006101000a81548160ff0219169083151502179055507f62e78cea01bee320cd4e420270b5ea74000d11b0c9f74754ebdbfc544b05a2586159626153ce565b60405161596f9190616fb5565b60405180910390a150565b7f000000000000000000000000000000000000000000000000000000000000000073ffffffffffffffffffffffffffffffffffffffff163073ffffffffffffffffffffffffffffffffffffffff16146159ff576040517fe07c8dba00000000000000000000000000000000000000000000000000000000815260040160405180910390fd5b565b600060019050919050565b60007fcd5ed15c6e187e77e9aee88184c21f4f2182ab5827cb3b7e07fbedcd63f03300905090565b6000615a3e615b12565b905060008160000160009054906101000a900473ffffffffffffffffffffffffffffffffffffffff169050828260000160006101000a81548173ffffffffffffffffffffffffffffffffffffffff021916908373ffffffffffffffffffffffffffffffffffffffff1602179055508273ffffffffffffffffffffffffffffffffffffffff168173ffffffffffffffffffffffffffffffffffffffff167f8be0079c531659141344cd1fd0a4f28419497f9722a3daafe3b4186f6b6457e060405160405180910390a3505050565b6000919050565b60007f9016d09d72d40fdae2fd8ceac6b6234c7706214fd39c1cd1e609a0528c199300905090565b600080615b456160de565b90508091505090565b615b56616109565b615b608282616149565b5050565b615b6c616109565b615b7581616186565b50565b615b80616109565b565b615b8a616109565b615b9261620c565b565b615b9c616109565b565b600073ffffffffffffffffffffffffffffffffffffffff168273ffffffffffffffffffffffffffffffffffffffff1603615c105760006040517fec442f05000000000000000000000000000000000000000000000000000000008152600401615c079190616fb5565b60405180910390fd5b615c1c60008383615e06565b5050565b6000615c2a6153a6565b9050600073ffffffffffffffffffffffffffffffffffffffff168573ffffffffffffffffffffffffffffffffffffffff1603615c9e5760006040517fe602df05000000000000000000000000000000000000000000000000000000008152600401615c959190616fb5565b60405180910390fd5b600073ffffffffffffffffffffffffffffffffffffffff168473ffffffffffffffffffffffffffffffffffffffff1603615d105760006040517f94280d62000000000000000000000000000000000000000000000000000000008152600401615d079190616fb5565b60405180910390fd5b828160010160008773ffffffffffffffffffffffffffffffffffffffff1673ffffffffffffffffffffffffffffffffffffffff16815260200190815260200160002060008673ffffffffffffffffffffffffffffffffffffffff1673ffffffffffffffffffffffffffffffffffffffff168152602001908152602001600020819055508115615dff578373ffffffffffffffffffffffffffffffffffffffff168573ffffffffffffffffffffffffffffffffffffffff167f8c5be1e5ebec7d5bd14f71427d1e84f3dd0314c0f7b2291e5b200ac8c7c3b92585604051615df69190616ab0565b60405180910390a35b5050505050565b615e1a67eb1ae8df5eb3aa8860c01b6153e8565b615e226155fe565b615e3667217b8afb1de077c060c01b6153e8565b615e4a677b952f00b08248d860c01b6153e8565b615e5e67da038e982e30271d60c01b6153e8565b615e726741c9c3ef894cca0660c01b6153e8565b615e7d83838361622d565b615e9167b2326fbc7294085360c01b6153e8565b615ea56797c95d5a9616ac7c60c01b6153e8565b600073ffffffffffffffffffffffffffffffffffffffff168373ffffffffffffffffffffffffffffffffffffffff1614158015615f0f5750600073ffffffffffffffffffffffffffffffffffffffff168273ffffffffffffffffffffffffffffffffffffffff1614155b15615fba57615f2867362349ba6e0b1b0b60c01b6153e8565b615f3c6776b2f04d680caee760c01b6153e8565b615f5067796f0eb1a8a83bcb60c01b6153e8565b8173ffffffffffffffffffffffffffffffffffffffff168373ffffffffffffffffffffffffffffffffffffffff167f59abb1a21ac9c02d9c217285768a906af17496e4cada7962f129b92f0ac948cf83604051615fad9190616ab0565b60405180910390a3615fcf565b615fce677e30009b8c07be9b60c01b6153e8565b5b505050565b615fdc612c3d565b616012576040517f8dfc202b00000000000000000000000000000000000000000000000000000000815260040160405180910390fd5b565b60006160427f360894a13ba1a3210667c828492db98dca3e2076cc3735a920a3ca505d382bbc60001b61646c565b60000160009054906101000a900473ffffffffffffffffffffffffffffffffffffffff16905090565b61607482616476565b8173ffffffffffffffffffffffffffffffffffffffff167fbc7cd75a20ee27fd9adebab32041f755214dbc6bffa90cc0225b39da2e5c2d3b60405160405180910390a26000815111156160d1576160cb8282616543565b506160da565b6160d96165c7565b5b5050565b60007ff0c57e16840df040f15088dc2f81fe391c3923bec73e23a9662efc9c229c6a0060001b905090565b616111616604565b616147576040517fd7e6bcf800000000000000000000000000000000000000000000000000000000815260040160405180910390fd5b565b616151616109565b600061615b6153a6565b90508281600301908161616e91906184bd565b508181600401908161618091906184bd565b50505050565b61618e616109565b600073ffffffffffffffffffffffffffffffffffffffff168173ffffffffffffffffffffffffffffffffffffffff16036162005760006040517f1e4fbdf70000000000000000000000000000000000000000000000000000000081526004016161f79190616fb5565b60405180910390fd5b61620981615a34565b50565b616214616109565b600061621e616624565b90506001816000018190555050565b60006162376153a6565b9050600073ffffffffffffffffffffffffffffffffffffffff168473ffffffffffffffffffffffffffffffffffffffff160361628d57818160020160008282546162819190617487565b92505081905550616366565b60008160000160008673ffffffffffffffffffffffffffffffffffffffff1673ffffffffffffffffffffffffffffffffffffffff1681526020019081526020016000205490508281101561631c578481846040517fe450d38c00000000000000000000000000000000000000000000000000000000815260040161631393929190618444565b60405180910390fd5b8281038260000160008773ffffffffffffffffffffffffffffffffffffffff1673ffffffffffffffffffffffffffffffffffffffff16815260200190815260200160002081905550505b600073ffffffffffffffffffffffffffffffffffffffff168373ffffffffffffffffffffffffffffffffffffffff16036163b157818160020160008282540392505081905550616401565b818160000160008573ffffffffffffffffffffffffffffffffffffffff1673ffffffffffffffffffffffffffffffffffffffff168152602001908152602001600020600082825401925050819055505b8273ffffffffffffffffffffffffffffffffffffffff168473ffffffffffffffffffffffffffffffffffffffff167fddf252ad1be2c89b69c2b068fc378daa952ba7f163c4a11628f55a4df523b3ef8460405161645e9190616ab0565b60405180910390a350505050565b6000819050919050565b60008173ffffffffffffffffffffffffffffffffffffffff163b036164d257806040517f4c9c8ce30000000000000000000000000000000000000000000000000000000081526004016164c99190616fb5565b60405180910390fd5b806164ff7f360894a13ba1a3210667c828492db98dca3e2076cc3735a920a3ca505d382bbc60001b61646c565b60000160006101000a81548173ffffffffffffffffffffffffffffffffffffffff021916908373ffffffffffffffffffffffffffffffffffffffff16021790555050565b60606000808473ffffffffffffffffffffffffffffffffffffffff168460405161656d91906185cb565b600060405180830381855af49150503d80600081146165a8576040519150601f19603f3d011682016040523d82523d6000602084013e6165ad565b606091505b50915091506165bd85838361664c565b9250505092915050565b6000341115616602576040517fb398979f00000000000000000000000000000000000000000000000000000000815260040160405180910390fd5b565b600061660e615b3a565b60000160089054906101000a900460ff16905090565b60007f9b779b17422d0df92223018b32b4d1fa46e071723d6817e2486d003becc55f00905090565b6060826166615761665c826166db565b6166d3565b60008251148015616689575060008473ffffffffffffffffffffffffffffffffffffffff163b145b156166cb57836040517f9996b3150000000000000000000000000000000000000000000000000000000081526004016166c29190616fb5565b60405180910390fd5b8190506166d4565b5b9392505050565b6000815111156166ed57805160208201fd5b6040517fd6bda27500000000000000000000000000000000000000000000000000000000815260040160405180910390fd5b6000604051905090565b600080fd5b600080fd5b6000819050919050565b61674681616733565b811461675157600080fd5b50565b6000813590506167638161673d565b92915050565b60006020828403121561677f5761677e616729565b5b600061678d84828501616754565b91505092915050565b61679f81616733565b82525050565b600073ffffffffffffffffffffffffffffffffffffffff82169050919050565b60006167d0826167a5565b9050919050565b6167e0816167c5565b82525050565b600081519050919050565b600082825260208201905092915050565b60005b83811015616820578082015181840152602081019050616805565b60008484015250505050565b6000601f19601f8301169050919050565b6000616848826167e6565b61685281856167f1565b9350616862818560208601616802565b61686b8161682c565b840191505092915050565b60008115159050919050565b61688b81616876565b82525050565b7f4e487b7100000000000000000000000000000000000000000000000000000000600052602160045260246000fd5b600481106168d1576168d0616891565b5b50565b60008190506168e2826168c0565b919050565b60006168f2826168d4565b9050919050565b616902816168e7565b82525050565b600081519050919050565b600082825260208201905092915050565b600061692f82616908565b6169398185616913565b9350616949818560208601616802565b6169528161682c565b840191505092915050565b600061014082019050616973600083018d616796565b616980602083018c6167d7565b8181036040830152616992818b61683d565b90506169a1606083018a616796565b6169ae6080830189616796565b6169bb60a0830188616796565b6169c860c0830187616796565b6169d560e0830186616882565b6169e36101008301856168f9565b8181036101208301526169f68184616924565b90509b9a5050505050505050505050565b60006020820190508181036000830152616a21818461683d565b905092915050565b616a32816167c5565b8114616a3d57600080fd5b50565b600081359050616a4f81616a29565b92915050565b60008060408385031215616a6c57616a6b616729565b5b6000616a7a85828601616a40565b9250506020616a8b85828601616754565b9150509250929050565b6000602082019050616aaa6000830184616882565b92915050565b6000602082019050616ac56000830184616796565b92915050565b600060208284031215616ae157616ae0616729565b5b6000616aef84828501616a40565b91505092915050565b600080600060608486031215616b1157616b10616729565b5b6000616b1f86828701616a40565b9350506020616b3086828701616a40565b9250506040616b4186828701616754565b9150509250925092565b616b5481616876565b8114616b5f57600080fd5b50565b600081359050616b7181616b4b565b92915050565b600060208284031215616b8d57616b8c616729565b5b6000616b9b84828501616b62565b91505092915050565b600060ff82169050919050565b616bba81616ba4565b82525050565b6000602082019050616bd56000830184616bb1565b92915050565b600080fd5b600080fd5b600080fd5b60008083601f840112616c0057616bff616bdb565b5b8235905067ffffffffffffffff811115616c1d57616c1c616be0565b5b602083019150836001820283011115616c3957616c38616be5565b5b9250929050565b60048110616c4d57600080fd5b50565b600081359050616c5f81616c40565b92915050565b60008083601f840112616c7b57616c7a616bdb565b5b8235905067ffffffffffffffff811115616c9857616c97616be0565b5b602083019150836001820283011115616cb457616cb3616be5565b5b9250929050565b60008060008060008060808789031215616cd857616cd7616729565b5b600087013567ffffffffffffffff811115616cf657616cf561672e565b5b616d0289828a01616bea565b96509650506020616d1589828a01616c50565b945050604087013567ffffffffffffffff811115616d3657616d3561672e565b5b616d4289828a01616c65565b93509350506060616d5589828a01616754565b9150509295509295509295565b60008060408385031215616d7957616d78616729565b5b6000616d8785828601616754565b9250506020616d9885828601616a40565b9150509250929050565b600080fd5b7f4e487b7100000000000000000000000000000000000000000000000000000000600052604160045260246000fd5b616ddf8261682c565b810181811067ffffffffffffffff82111715616dfe57616dfd616da7565b5b80604052505050565b6000616e1161671f565b9050616e1d8282616dd6565b919050565b600067ffffffffffffffff821115616e3d57616e3c616da7565b5b616e468261682c565b9050602081019050919050565b82818337600083830152505050565b6000616e75616e7084616e22565b616e07565b905082815260208101848484011115616e9157616e90616da2565b5b616e9c848285616e53565b509392505050565b600082601f830112616eb957616eb8616bdb565b5b8135616ec9848260208601616e62565b91505092915050565b60008060408385031215616ee957616ee8616729565b5b6000616ef785828601616a40565b925050602083013567ffffffffffffffff811115616f1857616f1761672e565b5b616f2485828601616ea4565b9150509250929050565b6000819050919050565b616f4181616f2e565b82525050565b6000602082019050616f5c6000830184616f38565b92915050565b600080600060608486031215616f7b57616f7a616729565b5b6000616f8986828701616754565b9350506020616f9a86828701616754565b9250506040616fab86828701616b62565b9150509250925092565b6000602082019050616fca60008301846167d7565b92915050565b6000608082019050616fe56000830187616796565b616ff26020830186616796565b616fff6040830185616796565b61700c6060830184616796565b95945050505050565b600060a08201905061702a6000830188616796565b6170376020830187616796565b6170446040830186616796565b6170516060830185616796565b61705e6080830184616796565b9695505050505050565b600060a08201905061707d6000830188616796565b61708a6020830187616796565b6170976040830186616796565b6170a46060830185616796565b6170b16080830184616882565b9695505050505050565b6000806000606084860312156170d4576170d3616729565b5b60006170e286828701616a40565b93505060206170f386828701616a40565b925050604061710486828701616a40565b9150509250925092565b6000806040838503121561712557617124616729565b5b600061713385828601616a40565b925050602061714485828601616a40565b9150509250929050565b60008083601f84011261716457617163616bdb565b5b8235905067ffffffffffffffff81111561718157617180616be0565b5b60208301915083602082028301111561719d5761719c616be5565b5b9250929050565b60008083601f8401126171ba576171b9616bdb565b5b8235905067ffffffffffffffff8111156171d7576171d6616be0565b5b6020830191508360208202830111156171f3576171f2616be5565b5b9250929050565b6000806000806000806060878903121561721757617216616729565b5b600087013567ffffffffffffffff8111156172355761723461672e565b5b61724189828a0161714e565b9650965050602087013567ffffffffffffffff8111156172645761726361672e565b5b61727089828a0161714e565b9450945050604087013567ffffffffffffffff8111156172935761729261672e565b5b61729f89828a016171a4565b92509250509295509295509295565b60006080820190506172c36000830187616796565b6172d06020830186616796565b6172dd6040830185616796565b6172ea6060830184616882565b95945050505050565b6000806040838503121561730a57617309616729565b5b600061731885828601616b62565b925050602061732985828601616754565b9150509250929050565b61733c81616f2e565b811461734757600080fd5b50565b60008135905061735981617333565b92915050565b60006020828403121561737557617374616729565b5b60006173838482850161734a565b91505092915050565b7f4e487b7100000000000000000000000000000000000000000000000000000000600052602260045260246000fd5b600060028204905060018216806173d357607f821691505b6020821081036173e6576173e561738c565b5b50919050565b7f4665652065786365656473206d6178696d756d00000000000000000000000000600082015250565b60006174226013836167f1565b915061742d826173ec565b602082019050919050565b6000602082019050818103600083015261745181617415565b9050919050565b7f4e487b7100000000000000000000000000000000000000000000000000000000600052601160045260246000fd5b600061749282616733565b915061749d83616733565b92508282019050808211156174b5576174b4617458565b5b92915050565b7f466565206368616e676520746f6f206672657175656e74000000000000000000600082015250565b60006174f16017836167f1565b91506174fc826174bb565b602082019050919050565b60006020820190508181036000830152617520816174e4565b9050919050565b600060408201905061753c6000830185616796565b6175496020830184616796565b9392505050565b7f536574456d657267656e63795769746864726177616c00000000000000000000600082015250565b60006175866016836167f1565b915061759182617550565b602082019050919050565b600060208201905081810360008301526175b581617579565b9050919050565b7f496e76616c6964207374616b6520696e64657800000000000000000000000000600082015250565b60006175f26013836167f1565b91506175fd826175bc565b602082019050919050565b60006020820190508181036000830152617621816175e5565b9050919050565b7f4e487b7100000000000000000000000000000000000000000000000000000000600052603260045260246000fd5b7f5374616b6520616c72656164792077697468647261776e000000000000000000600082015250565b600061768d6017836167f1565b915061769882617657565b602082019050919050565b600060208201905081810360008301526176bc81617680565b9050919050565b7f5374616b65206973207374696c6c206c6f636b656420616e6420656d6572676560008201527f6e6379207769746864726177616c206e6f7420656e61626c6564000000000000602082015250565b600061771f603a836167f1565b915061772a826176c3565b604082019050919050565b6000602082019050818103600083015261774e81617712565b9050919050565b600060408201905061776a60008301856167d7565b6177776020830184616796565b9392505050565b60008151905061778d8161673d565b92915050565b6000602082840312156177a9576177a8616729565b5b60006177b78482850161777e565b91505092915050565b7f4e487b7100000000000000000000000000000000000000000000000000000000600052601260045260246000fd5b60006177fa82616733565b915061780583616733565b925082617815576178146177c0565b5b828204905092915050565b600061782b82616733565b915061783683616733565b925082820390508181111561784e5761784d617458565b5b92915050565b7f456d657267656e63795769746864726177616c00000000000000000000000000600082015250565b600061788a6013836167f1565b915061789582617854565b602082019050919050565b600060208201905081810360008301526178b98161787d565b9050919050565b7f457865637574696f6e2064656c617920746f6f2073686f727400000000000000600082015250565b60006178f66019836167f1565b9150617901826178c0565b602082019050919050565b60006020820190508181036000830152617925816178e9565b9050919050565b7f457865637574696f6e2064656c617920746f6f206c6f6e670000000000000000600082015250565b60006179626018836167f1565b915061796d8261792c565b602082019050919050565b6000602082019050818103600083015261799181617955565b9050919050565b60006179a382616733565b91507fffffffffffffffffffffffffffffffffffffffffffffffffffffffffffffffff82036179d5576179d4617458565b5b600182019050919050565b600082905092915050565b60008190508160005260206000209050919050565b60006020601f8301049050919050565b600082821b905092915050565b600060088302617a4d7fffffffffffffffffffffffffffffffffffffffffffffffffffffffffffffffff82617a10565b617a578683617a10565b95508019841693508086168417925050509392505050565b6000819050919050565b6000617a94617a8f617a8a84616733565b617a6f565b616733565b9050919050565b6000819050919050565b617aae83617a79565b617ac2617aba82617a9b565b848454617a1d565b825550505050565b600090565b617ad7617aca565b617ae2818484617aa5565b505050565b5b81811015617b0657617afb600082617acf565b600181019050617ae8565b5050565b601f821115617b4b57617b1c816179eb565b617b2584617a00565b81016020851015617b34578190505b617b48617b4085617a00565b830182617ae7565b50505b505050565b600082821c905092915050565b6000617b6e60001984600802617b50565b1980831691505092915050565b6000617b878383617b5d565b9150826002028217905092915050565b617ba183836179e0565b67ffffffffffffffff811115617bba57617bb9616da7565b5b617bc482546173bb565b617bcf828285617b0a565b6000601f831160018114617bfe5760008415617bec578287013590505b617bf68582617b7b565b865550617c5e565b601f198416617c0c866179eb565b60005b82811015617c3457848901358255600182019150602085019450602081019050617c0f565b86831015617c515784890135617c4d601f891682617b5d565b8355505b6001600288020188555050505b50505050505050565b600082905092915050565b60008190508160005260206000209050919050565b601f821115617cc857617c9981617c72565b617ca284617a00565b81016020851015617cb1578190505b617cc5617cbd85617a00565b830182617ae7565b50505b505050565b617cd78383617c67565b67ffffffffffffffff811115617cf057617cef616da7565b5b617cfa82546173bb565b617d05828285617c87565b6000601f831160018114617d345760008415617d22578287013590505b617d2c8582617b7b565b865550617d94565b601f198416617d4286617c72565b60005b82811015617d6a57848901358255600182019150602085019450602081019050617d45565b86831015617d875784890135617d83601f891682617b5d565b8355505b6001600288020188555050505b50505050505050565b7f50726f706f7365576974684175746f457865637574696f6e0000000000000000600082015250565b6000617dd36018836167f1565b9150617dde82617d9d565b602082019050919050565b60006020820190508181036000830152617e0281617dc6565b9050919050565b7f554e504155534500000000000000000000000000000000000000000000000000600082015250565b6000617e3f6007836167f1565b9150617e4a82617e09565b602082019050919050565b60006020820190508181036000830152617e6e81617e32565b9050919050565b7f5041555345000000000000000000000000000000000000000000000000000000600082015250565b6000617eab6005836167f1565b9150617eb682617e75565b602082019050919050565b60006020820190508181036000830152617eda81617e9e565b9050919050565b7f416d6f756e74206d7573742062652067726561746572207468616e2030000000600082015250565b6000617f17601d836167f1565b9150617f2282617ee1565b602082019050919050565b60006020820190508181036000830152617f4681617f0a565b9050919050565b7f496e76616c6964206c6f636b20706572696f6400000000000000000000000000600082015250565b6000617f836013836167f1565b9150617f8e82617f4d565b602082019050919050565b60006020820190508181036000830152617fb281617f76565b9050919050565b7f496e73756666696369656e742062616c616e6365000000000000000000000000600082015250565b6000617fef6014836167f1565b9150617ffa82617fb9565b602082019050919050565b6000602082019050818103600083015261801e81617fe2565b9050919050565b600060608201905061803a6000830186616796565b6180476020830185616796565b6180546040830184616796565b949350505050565b600061806782616733565b915061807283616733565b925082820261808081616733565b9150828204841483151761809757618096617458565b5b5092915050565b6000819050919050565b600067ffffffffffffffff82169050919050565b60006180d76180d26180cd8461809e565b617a6f565b6180a8565b9050919050565b6180e7816180bc565b82525050565b600060208201905061810260008301846180de565b92915050565b7f563720616c726561647920696e697469616c697a656400000000000000000000600082015250565b600061813e6016836167f1565b915061814982618108565b602082019050919050565b6000602082019050818103600083015261816d81618131565b9050919050565b600061818f61818a6181858461809e565b617a6f565b616733565b9050919050565b61819f81618174565b82525050565b7f4669786564207374616b696e67207265776172642063616c63756c6174696f6e60008201527f2062756700000000000000000000000000000000000000000000000000000000602082015250565b60006182016024836167f1565b915061820c826181a5565b604082019050919050565b600060408201905061822c6000830184618196565b818103602083015261823d816181f4565b905092915050565b600060408201905061825a6000830185616882565b6182676020830184616796565b9392505050565b7f4172726179206c656e677468206d69736d617463680000000000000000000000600082015250565b60006182a46015836167f1565b91506182af8261826e565b602082019050919050565b600060208201905081810360008301526182d381618297565b9050919050565b7f546f6f206d616e79207374616b657320696e2062617463680000000000000000600082015250565b60006183106018836167f1565b915061831b826182da565b602082019050919050565b6000602082019050818103600083015261833f81618303565b9050919050565b7f42617463685374616b6500000000000000000000000000000000000000000000600082015250565b600061837c600a836167f1565b915061838782618346565b602082019050919050565b600060208201905081810360008301526183ab8161836f565b9050919050565b7f4d756c7469706c696572206d757374206265206265747765656e20302e35782060008201527f616e642032780000000000000000000000000000000000000000000000000000602082015250565b600061840e6026836167f1565b9150618419826183b2565b604082019050919050565b6000602082019050818103600083015261843d81618401565b9050919050565b600060608201905061845960008301866167d7565b6184666020830185616796565b6184736040830184616796565b949350505050565b60008151905061848a81617333565b92915050565b6000602082840312156184a6576184a5616729565b5b60006184b48482850161847b565b91505092915050565b6184c6826167e6565b67ffffffffffffffff8111156184df576184de616da7565b5b6184e982546173bb565b6184f4828285617b0a565b600060209050601f8311600181146185275760008415618515578287015190505b61851f8582617b7b565b865550618587565b601f198416618535866179eb565b60005b8281101561855d57848901518255600182019150602085019450602081019050618538565b8683101561857a5784890151618576601f891682617b5d565b8355505b6001600288020188555050505b505050505050565b600081905092915050565b60006185a582616908565b6185af818561858f565b93506185bf818560208601616802565b80840191505092915050565b60006185d7828461859a565b91508190509291505056fea26469706673582212207d475a31e3d7c98f20b4da685b5c6b2baa7944b1ffe220a5eead2ea47ba822d364736f6c63430008160033",
  "linkReferences": {},
  "deployedLinkReferences": {}
}